{
	"compilerInput": "{\"language\":\"Solidity\",\"sources\":{\"DIDIdentityToken.sol\":{\"content\":\"// SPDX-License-Identifier: MIT\\npragma solidity ^0.8.20;\\n\\n// Compiler settings for Remix IDE:\\n// - Enable optimization: Yes\\n// - Runs: 1 (optimize for smaller bytecode size)\\n// - EVM Version: Paris (or default)\\n// This ensures the contract stays under the 24KB bytecode limit\\n\\nimport \\\"@openzeppelin/contracts/token/ERC721/ERC721.sol\\\";\\nimport \\\"@openzeppelin/contracts/access/Ownable.sol\\\";\\nimport \\\"@openzeppelin/contracts/utils/ReentrancyGuard.sol\\\";\\n\\n/**\\n * @title DIDIdentityToken\\n * @dev Soulbound ERC-721 token for SafePsy DID identities\\n * @notice Each wallet can have exactly one non-transferable identity token\\n * \\n * Storage Model:\\n * - tokenId → DidProfile mapping\\n * - owner → tokenId mapping (for efficient lookup)\\n * \\n * Gas Considerations:\\n * - Using uint64 for timestamps saves gas vs uint256\\n * - bytes32 for chatDataReference is more gas-efficient than string\\n * - Single storage slot for DidProfile (packed struct)\\n * - Events are indexed for efficient filtering\\n * \\n * Upgradeability:\\n * - Contract uses UUPS-compatible storage layout\\n * - Storage variables are grouped for proxy compatibility\\n * - Consider using UUPS proxy pattern for future upgrades\\n */\\ncontract DIDIdentityToken is ERC721, Ownable, ReentrancyGuard {\\n    // ============ Storage ============\\n    \\n    /**\\n     * @dev DID Profile structure\\n     * Packed to optimize gas (fits in 3 storage slots)\\n     */\\n    struct DidProfile {\\n        address owner;                    // 20 bytes (slot 1)\\n        uint64 createdAt;                 // 8 bytes (slot 1, packed)\\n        uint64 lastUpdatedAt;             // 8 bytes (slot 1, packed)\\n        bytes32 chatDataReference;        // 32 bytes (slot 2)\\n        bytes encryptedKeyMetadata;       // Variable length (slot 3+)\\n    }\\n\\n    // Mapping from tokenId to DidProfile\\n    mapping(uint256 => DidProfile) private _tokenProfiles;\\n    \\n    // Mapping from owner address to tokenId (for efficient lookup)\\n    mapping(address => uint256) private _ownerToTokenId;\\n    \\n    // Mapping to check if address has a DID\\n    mapping(address => bool) private _hasDid;\\n    \\n    // Mapping to track revoked DIDs (separate mapping to preserve storage layout)\\n    mapping(uint256 => bool) private _revokedTokens;\\n    mapping(address => bool) private _revokedAddresses;\\n    \\n    // Token counter (starts at 1)\\n    uint256 private _tokenCounter;\\n    \\n    // Backend signer for minting (optional)\\n    address public backendSigner;\\n    \\n    // Whether public minting is allowed\\n    bool public allowPublicMinting;\\n    \\n    // Base URI for token metadata\\n    string private _baseTokenURI;\\n\\n    // ============ Events ============\\n    \\n    /**\\n     * @dev Emitted when a DID is created\\n     */\\n    event DidCreated(\\n        address indexed user,\\n        uint256 indexed tokenId,\\n        uint64 timestamp\\n    );\\n    \\n    /**\\n     * @dev Emitted when chat data reference is updated\\n     */\\n    event DidChatReferenceUpdated(\\n        address indexed user,\\n        uint256 indexed tokenId,\\n        bytes32 indexed chatDataReference,\\n        uint64 timestamp\\n    );\\n    \\n    /**\\n     * @dev Emitted when encrypted key metadata is updated\\n     */\\n    event DidKeyMetadataUpdated(\\n        address indexed user,\\n        uint256 indexed tokenId,\\n        uint64 timestamp\\n    );\\n    \\n    /**\\n     * @dev Emitted when backend signer is updated\\n     */\\n    event BackendSignerUpdated(address indexed newSigner);\\n    \\n    /**\\n     * @dev Emitted when public minting is toggled\\n     */\\n    event PublicMintingToggled(bool enabled);\\n    \\n    /**\\n     * @dev Emitted when a DID is revoked\\n     */\\n    event DidRevoked(\\n        address indexed user,\\n        uint256 indexed tokenId,\\n        uint64 timestamp\\n    );\\n    \\n    /**\\n     * @dev Emitted when a DID is migrated to a new wallet\\n     */\\n    event DidMigrated(\\n        address indexed oldWallet,\\n        address indexed newWallet,\\n        uint256 indexed tokenId,\\n        uint64 timestamp\\n    );\\n\\n    // ============ Modifiers ============\\n    \\n    /**\\n     * @dev Modifier to check if caller is backend signer or public minting is allowed\\n     */\\n    modifier onlyMinter() {\\n        require(\\n            msg.sender == backendSigner || allowPublicMinting || msg.sender == owner(),\\n            \\\"Not authorized\\\"\\n        );\\n        _;\\n    }\\n    \\n    /**\\n     * @dev Modifier to check if user has a DID\\n     */\\n    modifier onlyDidOwner(address user) {\\n        require(_hasDid[user], \\\"No DID\\\");\\n        require(msg.sender == user, \\\"Not owner\\\");\\n        _;\\n    }\\n    \\n    /**\\n     * @dev Modifier to check if DID is not revoked\\n     */\\n    modifier notRevoked(address user) {\\n        require(_hasDid[user], \\\"No DID\\\");\\n        uint256 tokenId = _ownerToTokenId[user];\\n        require(!_revokedTokens[tokenId], \\\"Revoked\\\");\\n        _;\\n    }\\n    \\n    /**\\n     * @dev Modifier to check if DID is not revoked (by token ID)\\n     */\\n    modifier notRevokedById(uint256 tokenId) {\\n        require(_exists(tokenId), \\\"No token\\\");\\n        require(!_revokedTokens[tokenId], \\\"Revoked\\\");\\n        _;\\n    }\\n\\n    // ============ Constructor ============\\n    \\n    /**\\n     * @dev Constructor\\n     * @param name Token name (e.g., \\\"SafePsy DID Identity\\\")\\n     * @param symbol Token symbol (e.g., \\\"SAFEPSY-DID\\\")\\n     * @param baseURI Base URI for token metadata\\n     * @param _backendSigner Address of backend signer (can be zero address)\\n     * @param _allowPublicMinting Whether to allow public minting\\n     */\\n    constructor(\\n        string memory name,\\n        string memory symbol,\\n        string memory baseURI,\\n        address _backendSigner,\\n        bool _allowPublicMinting\\n    ) ERC721(name, symbol) Ownable(msg.sender) {\\n        _baseTokenURI = baseURI;\\n        backendSigner = _backendSigner;\\n        allowPublicMinting = _allowPublicMinting;\\n        _tokenCounter = 0; // Will start at 1\\n    }\\n\\n    // ============ Soulbound Implementation ============\\n    \\n    /**\\n     * @dev Override _update to prevent transfers (soulbound token)\\n     * @notice This hook is called by all transfer operations in OpenZeppelin v5\\n     * @notice Only allows transfers from address(0) (minting) or to address(0) (burning)\\n     */\\n    function _update(address to, uint256 tokenId, address auth) \\n        internal \\n        override \\n        returns (address) \\n    {\\n        address from = _ownerOf(tokenId);\\n        \\n        // Allow minting (from == address(0)) and burning (to == address(0))\\n        // But prevent all other transfers\\n        if (from != address(0) && to != address(0)) {\\n            revert(\\\"Soulbound\\\");\\n        }\\n        \\n        return super._update(to, tokenId, auth);\\n    }\\n    \\n    /**\\n     * @dev Override approve to prevent approvals (token is non-transferable)\\n     * @notice This function always reverts to prevent approvals\\n     */\\n    function approve(address, uint256) public pure override {\\n        revert(\\\"Soulbound\\\");\\n    }\\n    \\n    /**\\n     * @dev Override setApprovalForAll to prevent approvals (token is non-transferable)\\n     * @notice This function always reverts to prevent approvals\\n     */\\n    function setApprovalForAll(address, bool) public pure override {\\n        revert(\\\"Soulbound\\\");\\n    }\\n\\n    // ============ Minting Functions ============\\n    \\n    /**\\n     * @dev Create a DID for a user (backend signer or owner only, or public if enabled)\\n     * @param user The wallet address to create DID for\\n     * @return tokenId The created token ID\\n     */\\n    function createDid(address user) external onlyMinter nonReentrant returns (uint256) {\\n        require(!_hasDid[user], \\\"Has DID\\\");\\n        require(user != address(0), \\\"Zero addr\\\");\\n\\n        _tokenCounter++;\\n        uint256 tokenId = _tokenCounter;\\n\\n        // Create profile\\n        DidProfile memory profile = DidProfile({\\n            owner: user,\\n            createdAt: uint64(block.timestamp),\\n            lastUpdatedAt: uint64(block.timestamp),\\n            chatDataReference: bytes32(0),\\n            encryptedKeyMetadata: bytes(\\\"\\\")\\n        });\\n\\n        _tokenProfiles[tokenId] = profile;\\n        _ownerToTokenId[user] = tokenId;\\n        _hasDid[user] = true;\\n\\n        // Mint ERC-721 token\\n        _safeMint(user, tokenId);\\n\\n        emit DidCreated(user, tokenId, uint64(block.timestamp));\\n\\n        return tokenId;\\n    }\\n    \\n    /**\\n     * @dev Create a DID for the caller (public minting)\\n     * @return tokenId The created token ID\\n     */\\n    function createMyDid() external nonReentrant returns (uint256) {\\n        require(allowPublicMinting, \\\"No public mint\\\");\\n        require(!_hasDid[msg.sender], \\\"Has DID\\\");\\n\\n        _tokenCounter++;\\n        uint256 tokenId = _tokenCounter;\\n\\n        // Create profile\\n        DidProfile memory profile = DidProfile({\\n            owner: msg.sender,\\n            createdAt: uint64(block.timestamp),\\n            lastUpdatedAt: uint64(block.timestamp),\\n            chatDataReference: bytes32(0),\\n            encryptedKeyMetadata: bytes(\\\"\\\")\\n        });\\n\\n        _tokenProfiles[tokenId] = profile;\\n        _ownerToTokenId[msg.sender] = tokenId;\\n        _hasDid[msg.sender] = true;\\n\\n        // Mint ERC-721 token\\n        _safeMint(msg.sender, tokenId);\\n\\n        emit DidCreated(msg.sender, tokenId, uint64(block.timestamp));\\n\\n        return tokenId;\\n    }\\n\\n    // ============ Profile Functions ============\\n    \\n    /**\\n     * @dev Get profile by owner address (efficient lookup)\\n     * @param user The wallet address\\n     * @return profile The DidProfile struct\\n     */\\n    function getProfileByOwner(address user) external view returns (DidProfile memory) {\\n        require(_hasDid[user], \\\"No DID\\\");\\n        uint256 tokenId = _ownerToTokenId[user];\\n        return _tokenProfiles[tokenId];\\n    }\\n    \\n    /**\\n     * @dev Get profile by token ID\\n     * @param tokenId The token ID\\n     * @return profile The DidProfile struct\\n     */\\n    function getProfile(uint256 tokenId) external view returns (DidProfile memory) {\\n        require(_exists(tokenId), \\\"No token\\\");\\n        return _tokenProfiles[tokenId];\\n    }\\n    \\n    /**\\n     * @dev Update chat data reference and encrypted key metadata\\n     * @param newRef New chat data reference (hash/CID/DB key)\\n     * @param newEncryptedKeyMetadata New encrypted key metadata\\n     * @notice Only callable by DID owner, and DID must not be revoked\\n     */\\n    function updateChatReference(\\n        string calldata newRef,\\n        bytes calldata newEncryptedKeyMetadata\\n    ) external onlyDidOwner(msg.sender) notRevoked(msg.sender) nonReentrant {\\n        uint256 tokenId = _ownerToTokenId[msg.sender];\\n        DidProfile storage profile = _tokenProfiles[tokenId];\\n        \\n        // Convert string to bytes32 using hash (simpler, smaller bytecode)\\n        bytes32 refHash = keccak256(bytes(newRef));\\n        profile.chatDataReference = refHash;\\n        profile.encryptedKeyMetadata = newEncryptedKeyMetadata;\\n        profile.lastUpdatedAt = uint64(block.timestamp);\\n        \\n        emit DidChatReferenceUpdated(msg.sender, tokenId, refHash, uint64(block.timestamp));\\n        emit DidKeyMetadataUpdated(msg.sender, tokenId, uint64(block.timestamp));\\n    }\\n    \\n    /**\\n     * @dev Update only encrypted key metadata (preserve chat reference)\\n     * @param newEncryptedKeyMetadata New encrypted key metadata\\n     * @notice Only callable by DID owner, and DID must not be revoked\\n     */\\n    function updateEncryptedKeyMetadata(\\n        bytes calldata newEncryptedKeyMetadata\\n    ) external onlyDidOwner(msg.sender) notRevoked(msg.sender) nonReentrant {\\n        uint256 tokenId = _ownerToTokenId[msg.sender];\\n        DidProfile storage profile = _tokenProfiles[tokenId];\\n        \\n        profile.encryptedKeyMetadata = newEncryptedKeyMetadata;\\n        profile.lastUpdatedAt = uint64(block.timestamp);\\n        \\n        emit DidKeyMetadataUpdated(msg.sender, tokenId, uint64(block.timestamp));\\n    }\\n    \\n    /**\\n     * @dev Update only chat data reference (preserve encrypted key)\\n     * @param newRef New chat data reference\\n     * @notice Only callable by DID owner, and DID must not be revoked\\n     */\\n    function updateChatDataReference(\\n        string calldata newRef\\n    ) external onlyDidOwner(msg.sender) notRevoked(msg.sender) nonReentrant {\\n        uint256 tokenId = _ownerToTokenId[msg.sender];\\n        DidProfile storage profile = _tokenProfiles[tokenId];\\n        \\n        // Convert string to bytes32 using hash (simpler, smaller bytecode)\\n        bytes32 refHash = keccak256(bytes(newRef));\\n        profile.chatDataReference = refHash;\\n        profile.lastUpdatedAt = uint64(block.timestamp);\\n        \\n        emit DidChatReferenceUpdated(msg.sender, tokenId, refHash, uint64(block.timestamp));\\n    }\\n\\n    // ============ View Functions ============\\n    \\n    /**\\n     * @dev Check if a wallet has a DID\\n     * @param user The wallet address\\n     * @return Whether the wallet has a DID\\n     */\\n    function hasDid(address user) external view returns (bool) {\\n        return _hasDid[user];\\n    }\\n    \\n    /**\\n     * @dev Get token ID for a wallet address\\n     * @param user The wallet address\\n     * @return tokenId The token ID (0 if no DID)\\n     */\\n    function getDidId(address user) external view returns (uint256) {\\n        return _ownerToTokenId[user];\\n    }\\n    \\n    /**\\n     * @dev Get chat data reference for a wallet\\n     * @param user The wallet address\\n     * @return The chat data reference (bytes32)\\n     */\\n    function getChatDataReference(address user) external view returns (bytes32) {\\n        require(_hasDid[user], \\\"No DID\\\");\\n        uint256 tokenId = _ownerToTokenId[user];\\n        return _tokenProfiles[tokenId].chatDataReference;\\n    }\\n    \\n    /**\\n     * @dev Get encrypted key metadata for a wallet\\n     * @param user The wallet address\\n     * @return The encrypted key metadata (bytes)\\n     */\\n    function getEncryptedKeyMetadata(address user) external view returns (bytes memory) {\\n        require(_hasDid[user], \\\"No DID\\\");\\n        uint256 tokenId = _ownerToTokenId[user];\\n        return _tokenProfiles[tokenId].encryptedKeyMetadata;\\n    }\\n    \\n    /**\\n     * @dev Get total number of DIDs created\\n     * @return The total count\\n     */\\n    function totalSupply() external view returns (uint256) {\\n        return _tokenCounter;\\n    }\\n    \\n    /**\\n     * @dev Get base URI for token metadata\\n     * @return The base URI\\n     */\\n    function _baseURI() internal view override(ERC721) returns (string memory) {\\n        return _baseTokenURI;\\n    }\\n    \\n    /**\\n     * @dev Set base URI (only owner)\\n     * @param baseURI New base URI\\n     */\\n    function setBaseURI(string memory baseURI) external onlyOwner {\\n        _baseTokenURI = baseURI;\\n    }\\n\\n    // ============ Admin Functions ============\\n    \\n    /**\\n     * @dev Update backend signer (only owner)\\n     * @param newSigner New backend signer address\\n     */\\n    function updateBackendSigner(address newSigner) external onlyOwner {\\n        require(newSigner != address(0), \\\"Zero addr\\\");\\n        backendSigner = newSigner;\\n        emit BackendSignerUpdated(newSigner);\\n    }\\n    \\n    /**\\n     * @dev Toggle public minting (only owner)\\n     * @param _allow Whether to allow public minting\\n     */\\n    function setAllowPublicMinting(bool _allow) external onlyOwner {\\n        allowPublicMinting = _allow;\\n        emit PublicMintingToggled(_allow);\\n    }\\n    \\n    /**\\n     * @dev Check if token exists (override for ERC721)\\n     * @param tokenId The token ID\\n     * @return Whether the token exists\\n     */\\n    function _exists(uint256 tokenId) internal view returns (bool) {\\n        return _ownerOf(tokenId) != address(0);\\n    }\\n\\n    // ============ Revocation Functions ============\\n    \\n    /**\\n     * @dev Check if a DID is revoked\\n     * @param user The wallet address\\n     * @return Whether the DID is revoked\\n     */\\n    function isRevoked(address user) external view returns (bool) {\\n        if (!_hasDid[user]) {\\n            return false;\\n        }\\n        uint256 tokenId = _ownerToTokenId[user];\\n        return _revokedTokens[tokenId];\\n    }\\n    \\n    /**\\n     * @dev Check if a DID is revoked by token ID\\n     * @param tokenId The token ID\\n     * @return Whether the DID is revoked\\n     */\\n    function isRevokedById(uint256 tokenId) external view returns (bool) {\\n        return _revokedTokens[tokenId];\\n    }\\n    \\n    /**\\n     * @dev Revoke a DID (mark as revoked, optionally clear chat reference)\\n     * @param clearChatReference Whether to clear the chat data reference\\n     * @notice Only callable by DID owner\\n     * @notice Revoked DIDs cannot be updated, but token remains in existence\\n     */\\n    function revokeDid(bool clearChatReference) external onlyDidOwner(msg.sender) nonReentrant {\\n        _revokeDidInternal(msg.sender, clearChatReference);\\n    }\\n    \\n    /**\\n     * @dev Revoke a DID (convenience function, clears chat reference by default)\\n     * @notice Only callable by DID owner\\n     */\\n    function revokeDid() external onlyDidOwner(msg.sender) nonReentrant {\\n        _revokeDidInternal(msg.sender, true);\\n    }\\n    \\n    /**\\n     * @dev Internal function to revoke a DID\\n     * @param user The user address whose DID should be revoked\\n     * @param clearChatReference Whether to clear the chat data reference\\n     */\\n    function _revokeDidInternal(address user, bool clearChatReference) internal {\\n        uint256 tokenId = _ownerToTokenId[user];\\n        require(!_revokedTokens[tokenId], \\\"Revoked\\\");\\n        \\n        // Mark as revoked\\n        _revokedTokens[tokenId] = true;\\n        _revokedAddresses[user] = true;\\n        \\n        // Optionally clear chat reference\\n        if (clearChatReference) {\\n            DidProfile storage profile = _tokenProfiles[tokenId];\\n            profile.chatDataReference = bytes32(0);\\n            profile.encryptedKeyMetadata = bytes(\\\"\\\");\\n            profile.lastUpdatedAt = uint64(block.timestamp);\\n        }\\n        \\n        emit DidRevoked(user, tokenId, uint64(block.timestamp));\\n    }\\n\\n    // ============ Migration Functions ============\\n    \\n    /**\\n     * @dev Migrate DID from old wallet to new wallet (admin/backend only)\\n     * @param oldWallet The old wallet address\\n     * @param newWallet The new wallet address\\n     * @param clearChatReference Whether to clear chat reference during migration\\n     * @notice This is a support-driven process for wallet migration\\n     * @notice Only callable by contract owner or backend signer\\n     * @notice Old wallet's DID is revoked, new wallet gets a new DID\\n     */\\n    function migrateDid(\\n        address oldWallet,\\n        address newWallet,\\n        bool clearChatReference\\n    ) external nonReentrant {\\n        require(\\n            msg.sender == owner() || msg.sender == backendSigner,\\n            \\\"Not authorized\\\"\\n        );\\n        require(oldWallet != address(0), \\\"Zero addr\\\");\\n        require(newWallet != address(0), \\\"Zero addr\\\");\\n        require(oldWallet != newWallet, \\\"Same wallet\\\");\\n        require(_hasDid[oldWallet], \\\"No DID\\\");\\n        require(!_hasDid[newWallet], \\\"Has DID\\\");\\n        \\n        uint256 oldTokenId = _ownerToTokenId[oldWallet];\\n        require(!_revokedTokens[oldTokenId], \\\"Revoked\\\");\\n        \\n        // Revoke old DID\\n        _revokedTokens[oldTokenId] = true;\\n        _revokedAddresses[oldWallet] = true;\\n        \\n        // Create new DID for new wallet\\n        _tokenCounter++;\\n        uint256 newTokenId = _tokenCounter;\\n        \\n        // Copy profile data if not clearing\\n        DidProfile memory oldProfile = _tokenProfiles[oldTokenId];\\n        DidProfile memory newProfile = DidProfile({\\n            owner: newWallet,\\n            createdAt: uint64(block.timestamp),\\n            lastUpdatedAt: uint64(block.timestamp),\\n            chatDataReference: clearChatReference ? bytes32(0) : oldProfile.chatDataReference,\\n            encryptedKeyMetadata: clearChatReference ? bytes(\\\"\\\") : oldProfile.encryptedKeyMetadata\\n        });\\n        \\n        _tokenProfiles[newTokenId] = newProfile;\\n        _ownerToTokenId[newWallet] = newTokenId;\\n        _hasDid[newWallet] = true;\\n        \\n        // Mint new ERC-721 token\\n        _safeMint(newWallet, newTokenId);\\n        \\n        emit DidRevoked(oldWallet, oldTokenId, uint64(block.timestamp));\\n        emit DidCreated(newWallet, newTokenId, uint64(block.timestamp));\\n        emit DidMigrated(oldWallet, newWallet, newTokenId, uint64(block.timestamp));\\n    }\\n}\\n\"},\"@openzeppelin/contracts/utils/ReentrancyGuard.sol\":{\"content\":\"// SPDX-License-Identifier: MIT\\n// OpenZeppelin Contracts (last updated v5.1.0) (utils/ReentrancyGuard.sol)\\n\\npragma solidity ^0.8.20;\\n\\n/**\\n * @dev Contract module that helps prevent reentrant calls to a function.\\n *\\n * Inheriting from `ReentrancyGuard` will make the {nonReentrant} modifier\\n * available, which can be applied to functions to make sure there are no nested\\n * (reentrant) calls to them.\\n *\\n * Note that because there is a single `nonReentrant` guard, functions marked as\\n * `nonReentrant` may not call one another. This can be worked around by making\\n * those functions `private`, and then adding `external` `nonReentrant` entry\\n * points to them.\\n *\\n * TIP: If EIP-1153 (transient storage) is available on the chain you're deploying at,\\n * consider using {ReentrancyGuardTransient} instead.\\n *\\n * TIP: If you would like to learn more about reentrancy and alternative ways\\n * to protect against it, check out our blog post\\n * https://blog.openzeppelin.com/reentrancy-after-istanbul/[Reentrancy After Istanbul].\\n */\\nabstract contract ReentrancyGuard {\\n    // Booleans are more expensive than uint256 or any type that takes up a full\\n    // word because each write operation emits an extra SLOAD to first read the\\n    // slot's contents, replace the bits taken up by the boolean, and then write\\n    // back. This is the compiler's defense against contract upgrades and\\n    // pointer aliasing, and it cannot be disabled.\\n\\n    // The values being non-zero value makes deployment a bit more expensive,\\n    // but in exchange the refund on every call to nonReentrant will be lower in\\n    // amount. Since refunds are capped to a percentage of the total\\n    // transaction's gas, it is best to keep them low in cases like this one, to\\n    // increase the likelihood of the full refund coming into effect.\\n    uint256 private constant NOT_ENTERED = 1;\\n    uint256 private constant ENTERED = 2;\\n\\n    uint256 private _status;\\n\\n    /**\\n     * @dev Unauthorized reentrant call.\\n     */\\n    error ReentrancyGuardReentrantCall();\\n\\n    constructor() {\\n        _status = NOT_ENTERED;\\n    }\\n\\n    /**\\n     * @dev Prevents a contract from calling itself, directly or indirectly.\\n     * Calling a `nonReentrant` function from another `nonReentrant`\\n     * function is not supported. It is possible to prevent this from happening\\n     * by making the `nonReentrant` function external, and making it call a\\n     * `private` function that does the actual work.\\n     */\\n    modifier nonReentrant() {\\n        _nonReentrantBefore();\\n        _;\\n        _nonReentrantAfter();\\n    }\\n\\n    function _nonReentrantBefore() private {\\n        // On the first call to nonReentrant, _status will be NOT_ENTERED\\n        if (_status == ENTERED) {\\n            revert ReentrancyGuardReentrantCall();\\n        }\\n\\n        // Any calls to nonReentrant after this point will fail\\n        _status = ENTERED;\\n    }\\n\\n    function _nonReentrantAfter() private {\\n        // By storing the original value once again, a refund is triggered (see\\n        // https://eips.ethereum.org/EIPS/eip-2200)\\n        _status = NOT_ENTERED;\\n    }\\n\\n    /**\\n     * @dev Returns true if the reentrancy guard is currently set to \\\"entered\\\", which indicates there is a\\n     * `nonReentrant` function in the call stack.\\n     */\\n    function _reentrancyGuardEntered() internal view returns (bool) {\\n        return _status == ENTERED;\\n    }\\n}\\n\"},\"@openzeppelin/contracts/access/Ownable.sol\":{\"content\":\"// SPDX-License-Identifier: MIT\\n// OpenZeppelin Contracts (last updated v5.0.0) (access/Ownable.sol)\\n\\npragma solidity ^0.8.20;\\n\\nimport {Context} from \\\"../utils/Context.sol\\\";\\n\\n/**\\n * @dev Contract module which provides a basic access control mechanism, where\\n * there is an account (an owner) that can be granted exclusive access to\\n * specific functions.\\n *\\n * The initial owner is set to the address provided by the deployer. This can\\n * later be changed with {transferOwnership}.\\n *\\n * This module is used through inheritance. It will make available the modifier\\n * `onlyOwner`, which can be applied to your functions to restrict their use to\\n * the owner.\\n */\\nabstract contract Ownable is Context {\\n    address private _owner;\\n\\n    /**\\n     * @dev The caller account is not authorized to perform an operation.\\n     */\\n    error OwnableUnauthorizedAccount(address account);\\n\\n    /**\\n     * @dev The owner is not a valid owner account. (eg. `address(0)`)\\n     */\\n    error OwnableInvalidOwner(address owner);\\n\\n    event OwnershipTransferred(address indexed previousOwner, address indexed newOwner);\\n\\n    /**\\n     * @dev Initializes the contract setting the address provided by the deployer as the initial owner.\\n     */\\n    constructor(address initialOwner) {\\n        if (initialOwner == address(0)) {\\n            revert OwnableInvalidOwner(address(0));\\n        }\\n        _transferOwnership(initialOwner);\\n    }\\n\\n    /**\\n     * @dev Throws if called by any account other than the owner.\\n     */\\n    modifier onlyOwner() {\\n        _checkOwner();\\n        _;\\n    }\\n\\n    /**\\n     * @dev Returns the address of the current owner.\\n     */\\n    function owner() public view virtual returns (address) {\\n        return _owner;\\n    }\\n\\n    /**\\n     * @dev Throws if the sender is not the owner.\\n     */\\n    function _checkOwner() internal view virtual {\\n        if (owner() != _msgSender()) {\\n            revert OwnableUnauthorizedAccount(_msgSender());\\n        }\\n    }\\n\\n    /**\\n     * @dev Leaves the contract without owner. It will not be possible to call\\n     * `onlyOwner` functions. Can only be called by the current owner.\\n     *\\n     * NOTE: Renouncing ownership will leave the contract without an owner,\\n     * thereby disabling any functionality that is only available to the owner.\\n     */\\n    function renounceOwnership() public virtual onlyOwner {\\n        _transferOwnership(address(0));\\n    }\\n\\n    /**\\n     * @dev Transfers ownership of the contract to a new account (`newOwner`).\\n     * Can only be called by the current owner.\\n     */\\n    function transferOwnership(address newOwner) public virtual onlyOwner {\\n        if (newOwner == address(0)) {\\n            revert OwnableInvalidOwner(address(0));\\n        }\\n        _transferOwnership(newOwner);\\n    }\\n\\n    /**\\n     * @dev Transfers ownership of the contract to a new account (`newOwner`).\\n     * Internal function without access restriction.\\n     */\\n    function _transferOwnership(address newOwner) internal virtual {\\n        address oldOwner = _owner;\\n        _owner = newOwner;\\n        emit OwnershipTransferred(oldOwner, newOwner);\\n    }\\n}\\n\"},\"@openzeppelin/contracts/token/ERC721/ERC721.sol\":{\"content\":\"// SPDX-License-Identifier: MIT\\n// OpenZeppelin Contracts (last updated v5.4.0) (token/ERC721/ERC721.sol)\\n\\npragma solidity ^0.8.20;\\n\\nimport {IERC721} from \\\"./IERC721.sol\\\";\\nimport {IERC721Metadata} from \\\"./extensions/IERC721Metadata.sol\\\";\\nimport {ERC721Utils} from \\\"./utils/ERC721Utils.sol\\\";\\nimport {Context} from \\\"../../utils/Context.sol\\\";\\nimport {Strings} from \\\"../../utils/Strings.sol\\\";\\nimport {IERC165, ERC165} from \\\"../../utils/introspection/ERC165.sol\\\";\\nimport {IERC721Errors} from \\\"../../interfaces/draft-IERC6093.sol\\\";\\n\\n/**\\n * @dev Implementation of https://eips.ethereum.org/EIPS/eip-721[ERC-721] Non-Fungible Token Standard, including\\n * the Metadata extension, but not including the Enumerable extension, which is available separately as\\n * {ERC721Enumerable}.\\n */\\nabstract contract ERC721 is Context, ERC165, IERC721, IERC721Metadata, IERC721Errors {\\n    using Strings for uint256;\\n\\n    // Token name\\n    string private _name;\\n\\n    // Token symbol\\n    string private _symbol;\\n\\n    mapping(uint256 tokenId => address) private _owners;\\n\\n    mapping(address owner => uint256) private _balances;\\n\\n    mapping(uint256 tokenId => address) private _tokenApprovals;\\n\\n    mapping(address owner => mapping(address operator => bool)) private _operatorApprovals;\\n\\n    /**\\n     * @dev Initializes the contract by setting a `name` and a `symbol` to the token collection.\\n     */\\n    constructor(string memory name_, string memory symbol_) {\\n        _name = name_;\\n        _symbol = symbol_;\\n    }\\n\\n    /// @inheritdoc IERC165\\n    function supportsInterface(bytes4 interfaceId) public view virtual override(ERC165, IERC165) returns (bool) {\\n        return\\n            interfaceId == type(IERC721).interfaceId ||\\n            interfaceId == type(IERC721Metadata).interfaceId ||\\n            super.supportsInterface(interfaceId);\\n    }\\n\\n    /// @inheritdoc IERC721\\n    function balanceOf(address owner) public view virtual returns (uint256) {\\n        if (owner == address(0)) {\\n            revert ERC721InvalidOwner(address(0));\\n        }\\n        return _balances[owner];\\n    }\\n\\n    /// @inheritdoc IERC721\\n    function ownerOf(uint256 tokenId) public view virtual returns (address) {\\n        return _requireOwned(tokenId);\\n    }\\n\\n    /// @inheritdoc IERC721Metadata\\n    function name() public view virtual returns (string memory) {\\n        return _name;\\n    }\\n\\n    /// @inheritdoc IERC721Metadata\\n    function symbol() public view virtual returns (string memory) {\\n        return _symbol;\\n    }\\n\\n    /// @inheritdoc IERC721Metadata\\n    function tokenURI(uint256 tokenId) public view virtual returns (string memory) {\\n        _requireOwned(tokenId);\\n\\n        string memory baseURI = _baseURI();\\n        return bytes(baseURI).length > 0 ? string.concat(baseURI, tokenId.toString()) : \\\"\\\";\\n    }\\n\\n    /**\\n     * @dev Base URI for computing {tokenURI}. If set, the resulting URI for each\\n     * token will be the concatenation of the `baseURI` and the `tokenId`. Empty\\n     * by default, can be overridden in child contracts.\\n     */\\n    function _baseURI() internal view virtual returns (string memory) {\\n        return \\\"\\\";\\n    }\\n\\n    /// @inheritdoc IERC721\\n    function approve(address to, uint256 tokenId) public virtual {\\n        _approve(to, tokenId, _msgSender());\\n    }\\n\\n    /// @inheritdoc IERC721\\n    function getApproved(uint256 tokenId) public view virtual returns (address) {\\n        _requireOwned(tokenId);\\n\\n        return _getApproved(tokenId);\\n    }\\n\\n    /// @inheritdoc IERC721\\n    function setApprovalForAll(address operator, bool approved) public virtual {\\n        _setApprovalForAll(_msgSender(), operator, approved);\\n    }\\n\\n    /// @inheritdoc IERC721\\n    function isApprovedForAll(address owner, address operator) public view virtual returns (bool) {\\n        return _operatorApprovals[owner][operator];\\n    }\\n\\n    /// @inheritdoc IERC721\\n    function transferFrom(address from, address to, uint256 tokenId) public virtual {\\n        if (to == address(0)) {\\n            revert ERC721InvalidReceiver(address(0));\\n        }\\n        // Setting an \\\"auth\\\" arguments enables the `_isAuthorized` check which verifies that the token exists\\n        // (from != 0). Therefore, it is not needed to verify that the return value is not 0 here.\\n        address previousOwner = _update(to, tokenId, _msgSender());\\n        if (previousOwner != from) {\\n            revert ERC721IncorrectOwner(from, tokenId, previousOwner);\\n        }\\n    }\\n\\n    /// @inheritdoc IERC721\\n    function safeTransferFrom(address from, address to, uint256 tokenId) public {\\n        safeTransferFrom(from, to, tokenId, \\\"\\\");\\n    }\\n\\n    /// @inheritdoc IERC721\\n    function safeTransferFrom(address from, address to, uint256 tokenId, bytes memory data) public virtual {\\n        transferFrom(from, to, tokenId);\\n        ERC721Utils.checkOnERC721Received(_msgSender(), from, to, tokenId, data);\\n    }\\n\\n    /**\\n     * @dev Returns the owner of the `tokenId`. Does NOT revert if token doesn't exist\\n     *\\n     * IMPORTANT: Any overrides to this function that add ownership of tokens not tracked by the\\n     * core ERC-721 logic MUST be matched with the use of {_increaseBalance} to keep balances\\n     * consistent with ownership. The invariant to preserve is that for any address `a` the value returned by\\n     * `balanceOf(a)` must be equal to the number of tokens such that `_ownerOf(tokenId)` is `a`.\\n     */\\n    function _ownerOf(uint256 tokenId) internal view virtual returns (address) {\\n        return _owners[tokenId];\\n    }\\n\\n    /**\\n     * @dev Returns the approved address for `tokenId`. Returns 0 if `tokenId` is not minted.\\n     */\\n    function _getApproved(uint256 tokenId) internal view virtual returns (address) {\\n        return _tokenApprovals[tokenId];\\n    }\\n\\n    /**\\n     * @dev Returns whether `spender` is allowed to manage `owner`'s tokens, or `tokenId` in\\n     * particular (ignoring whether it is owned by `owner`).\\n     *\\n     * WARNING: This function assumes that `owner` is the actual owner of `tokenId` and does not verify this\\n     * assumption.\\n     */\\n    function _isAuthorized(address owner, address spender, uint256 tokenId) internal view virtual returns (bool) {\\n        return\\n            spender != address(0) &&\\n            (owner == spender || isApprovedForAll(owner, spender) || _getApproved(tokenId) == spender);\\n    }\\n\\n    /**\\n     * @dev Checks if `spender` can operate on `tokenId`, assuming the provided `owner` is the actual owner.\\n     * Reverts if:\\n     * - `spender` does not have approval from `owner` for `tokenId`.\\n     * - `spender` does not have approval to manage all of `owner`'s assets.\\n     *\\n     * WARNING: This function assumes that `owner` is the actual owner of `tokenId` and does not verify this\\n     * assumption.\\n     */\\n    function _checkAuthorized(address owner, address spender, uint256 tokenId) internal view virtual {\\n        if (!_isAuthorized(owner, spender, tokenId)) {\\n            if (owner == address(0)) {\\n                revert ERC721NonexistentToken(tokenId);\\n            } else {\\n                revert ERC721InsufficientApproval(spender, tokenId);\\n            }\\n        }\\n    }\\n\\n    /**\\n     * @dev Unsafe write access to the balances, used by extensions that \\\"mint\\\" tokens using an {ownerOf} override.\\n     *\\n     * NOTE: the value is limited to type(uint128).max. This protect against _balance overflow. It is unrealistic that\\n     * a uint256 would ever overflow from increments when these increments are bounded to uint128 values.\\n     *\\n     * WARNING: Increasing an account's balance using this function tends to be paired with an override of the\\n     * {_ownerOf} function to resolve the ownership of the corresponding tokens so that balances and ownership\\n     * remain consistent with one another.\\n     */\\n    function _increaseBalance(address account, uint128 value) internal virtual {\\n        unchecked {\\n            _balances[account] += value;\\n        }\\n    }\\n\\n    /**\\n     * @dev Transfers `tokenId` from its current owner to `to`, or alternatively mints (or burns) if the current owner\\n     * (or `to`) is the zero address. Returns the owner of the `tokenId` before the update.\\n     *\\n     * The `auth` argument is optional. If the value passed is non 0, then this function will check that\\n     * `auth` is either the owner of the token, or approved to operate on the token (by the owner).\\n     *\\n     * Emits a {Transfer} event.\\n     *\\n     * NOTE: If overriding this function in a way that tracks balances, see also {_increaseBalance}.\\n     */\\n    function _update(address to, uint256 tokenId, address auth) internal virtual returns (address) {\\n        address from = _ownerOf(tokenId);\\n\\n        // Perform (optional) operator check\\n        if (auth != address(0)) {\\n            _checkAuthorized(from, auth, tokenId);\\n        }\\n\\n        // Execute the update\\n        if (from != address(0)) {\\n            // Clear approval. No need to re-authorize or emit the Approval event\\n            _approve(address(0), tokenId, address(0), false);\\n\\n            unchecked {\\n                _balances[from] -= 1;\\n            }\\n        }\\n\\n        if (to != address(0)) {\\n            unchecked {\\n                _balances[to] += 1;\\n            }\\n        }\\n\\n        _owners[tokenId] = to;\\n\\n        emit Transfer(from, to, tokenId);\\n\\n        return from;\\n    }\\n\\n    /**\\n     * @dev Mints `tokenId` and transfers it to `to`.\\n     *\\n     * WARNING: Usage of this method is discouraged, use {_safeMint} whenever possible\\n     *\\n     * Requirements:\\n     *\\n     * - `tokenId` must not exist.\\n     * - `to` cannot be the zero address.\\n     *\\n     * Emits a {Transfer} event.\\n     */\\n    function _mint(address to, uint256 tokenId) internal {\\n        if (to == address(0)) {\\n            revert ERC721InvalidReceiver(address(0));\\n        }\\n        address previousOwner = _update(to, tokenId, address(0));\\n        if (previousOwner != address(0)) {\\n            revert ERC721InvalidSender(address(0));\\n        }\\n    }\\n\\n    /**\\n     * @dev Mints `tokenId`, transfers it to `to` and checks for `to` acceptance.\\n     *\\n     * Requirements:\\n     *\\n     * - `tokenId` must not exist.\\n     * - If `to` refers to a smart contract, it must implement {IERC721Receiver-onERC721Received}, which is called upon a safe transfer.\\n     *\\n     * Emits a {Transfer} event.\\n     */\\n    function _safeMint(address to, uint256 tokenId) internal {\\n        _safeMint(to, tokenId, \\\"\\\");\\n    }\\n\\n    /**\\n     * @dev Same as {xref-ERC721-_safeMint-address-uint256-}[`_safeMint`], with an additional `data` parameter which is\\n     * forwarded in {IERC721Receiver-onERC721Received} to contract recipients.\\n     */\\n    function _safeMint(address to, uint256 tokenId, bytes memory data) internal virtual {\\n        _mint(to, tokenId);\\n        ERC721Utils.checkOnERC721Received(_msgSender(), address(0), to, tokenId, data);\\n    }\\n\\n    /**\\n     * @dev Destroys `tokenId`.\\n     * The approval is cleared when the token is burned.\\n     * This is an internal function that does not check if the sender is authorized to operate on the token.\\n     *\\n     * Requirements:\\n     *\\n     * - `tokenId` must exist.\\n     *\\n     * Emits a {Transfer} event.\\n     */\\n    function _burn(uint256 tokenId) internal {\\n        address previousOwner = _update(address(0), tokenId, address(0));\\n        if (previousOwner == address(0)) {\\n            revert ERC721NonexistentToken(tokenId);\\n        }\\n    }\\n\\n    /**\\n     * @dev Transfers `tokenId` from `from` to `to`.\\n     *  As opposed to {transferFrom}, this imposes no restrictions on msg.sender.\\n     *\\n     * Requirements:\\n     *\\n     * - `to` cannot be the zero address.\\n     * - `tokenId` token must be owned by `from`.\\n     *\\n     * Emits a {Transfer} event.\\n     */\\n    function _transfer(address from, address to, uint256 tokenId) internal {\\n        if (to == address(0)) {\\n            revert ERC721InvalidReceiver(address(0));\\n        }\\n        address previousOwner = _update(to, tokenId, address(0));\\n        if (previousOwner == address(0)) {\\n            revert ERC721NonexistentToken(tokenId);\\n        } else if (previousOwner != from) {\\n            revert ERC721IncorrectOwner(from, tokenId, previousOwner);\\n        }\\n    }\\n\\n    /**\\n     * @dev Safely transfers `tokenId` token from `from` to `to`, checking that contract recipients\\n     * are aware of the ERC-721 standard to prevent tokens from being forever locked.\\n     *\\n     * `data` is additional data, it has no specified format and it is sent in call to `to`.\\n     *\\n     * This internal function is like {safeTransferFrom} in the sense that it invokes\\n     * {IERC721Receiver-onERC721Received} on the receiver, and can be used to e.g.\\n     * implement alternative mechanisms to perform token transfer, such as signature-based.\\n     *\\n     * Requirements:\\n     *\\n     * - `tokenId` token must exist and be owned by `from`.\\n     * - `to` cannot be the zero address.\\n     * - `from` cannot be the zero address.\\n     * - If `to` refers to a smart contract, it must implement {IERC721Receiver-onERC721Received}, which is called upon a safe transfer.\\n     *\\n     * Emits a {Transfer} event.\\n     */\\n    function _safeTransfer(address from, address to, uint256 tokenId) internal {\\n        _safeTransfer(from, to, tokenId, \\\"\\\");\\n    }\\n\\n    /**\\n     * @dev Same as {xref-ERC721-_safeTransfer-address-address-uint256-}[`_safeTransfer`], with an additional `data` parameter which is\\n     * forwarded in {IERC721Receiver-onERC721Received} to contract recipients.\\n     */\\n    function _safeTransfer(address from, address to, uint256 tokenId, bytes memory data) internal virtual {\\n        _transfer(from, to, tokenId);\\n        ERC721Utils.checkOnERC721Received(_msgSender(), from, to, tokenId, data);\\n    }\\n\\n    /**\\n     * @dev Approve `to` to operate on `tokenId`\\n     *\\n     * The `auth` argument is optional. If the value passed is non 0, then this function will check that `auth` is\\n     * either the owner of the token, or approved to operate on all tokens held by this owner.\\n     *\\n     * Emits an {Approval} event.\\n     *\\n     * Overrides to this logic should be done to the variant with an additional `bool emitEvent` argument.\\n     */\\n    function _approve(address to, uint256 tokenId, address auth) internal {\\n        _approve(to, tokenId, auth, true);\\n    }\\n\\n    /**\\n     * @dev Variant of `_approve` with an optional flag to enable or disable the {Approval} event. The event is not\\n     * emitted in the context of transfers.\\n     */\\n    function _approve(address to, uint256 tokenId, address auth, bool emitEvent) internal virtual {\\n        // Avoid reading the owner unless necessary\\n        if (emitEvent || auth != address(0)) {\\n            address owner = _requireOwned(tokenId);\\n\\n            // We do not use _isAuthorized because single-token approvals should not be able to call approve\\n            if (auth != address(0) && owner != auth && !isApprovedForAll(owner, auth)) {\\n                revert ERC721InvalidApprover(auth);\\n            }\\n\\n            if (emitEvent) {\\n                emit Approval(owner, to, tokenId);\\n            }\\n        }\\n\\n        _tokenApprovals[tokenId] = to;\\n    }\\n\\n    /**\\n     * @dev Approve `operator` to operate on all of `owner` tokens\\n     *\\n     * Requirements:\\n     * - operator can't be the address zero.\\n     *\\n     * Emits an {ApprovalForAll} event.\\n     */\\n    function _setApprovalForAll(address owner, address operator, bool approved) internal virtual {\\n        if (operator == address(0)) {\\n            revert ERC721InvalidOperator(operator);\\n        }\\n        _operatorApprovals[owner][operator] = approved;\\n        emit ApprovalForAll(owner, operator, approved);\\n    }\\n\\n    /**\\n     * @dev Reverts if the `tokenId` doesn't have a current owner (it hasn't been minted, or it has been burned).\\n     * Returns the owner.\\n     *\\n     * Overrides to ownership logic should be done to {_ownerOf}.\\n     */\\n    function _requireOwned(uint256 tokenId) internal view returns (address) {\\n        address owner = _ownerOf(tokenId);\\n        if (owner == address(0)) {\\n            revert ERC721NonexistentToken(tokenId);\\n        }\\n        return owner;\\n    }\\n}\\n\"},\"@openzeppelin/contracts/interfaces/draft-IERC6093.sol\":{\"content\":\"// SPDX-License-Identifier: MIT\\n// OpenZeppelin Contracts (last updated v5.4.0) (interfaces/draft-IERC6093.sol)\\npragma solidity >=0.8.4;\\n\\n/**\\n * @dev Standard ERC-20 Errors\\n * Interface of the https://eips.ethereum.org/EIPS/eip-6093[ERC-6093] custom errors for ERC-20 tokens.\\n */\\ninterface IERC20Errors {\\n    /**\\n     * @dev Indicates an error related to the current `balance` of a `sender`. Used in transfers.\\n     * @param sender Address whose tokens are being transferred.\\n     * @param balance Current balance for the interacting account.\\n     * @param needed Minimum amount required to perform a transfer.\\n     */\\n    error ERC20InsufficientBalance(address sender, uint256 balance, uint256 needed);\\n\\n    /**\\n     * @dev Indicates a failure with the token `sender`. Used in transfers.\\n     * @param sender Address whose tokens are being transferred.\\n     */\\n    error ERC20InvalidSender(address sender);\\n\\n    /**\\n     * @dev Indicates a failure with the token `receiver`. Used in transfers.\\n     * @param receiver Address to which tokens are being transferred.\\n     */\\n    error ERC20InvalidReceiver(address receiver);\\n\\n    /**\\n     * @dev Indicates a failure with the `spender`’s `allowance`. Used in transfers.\\n     * @param spender Address that may be allowed to operate on tokens without being their owner.\\n     * @param allowance Amount of tokens a `spender` is allowed to operate with.\\n     * @param needed Minimum amount required to perform a transfer.\\n     */\\n    error ERC20InsufficientAllowance(address spender, uint256 allowance, uint256 needed);\\n\\n    /**\\n     * @dev Indicates a failure with the `approver` of a token to be approved. Used in approvals.\\n     * @param approver Address initiating an approval operation.\\n     */\\n    error ERC20InvalidApprover(address approver);\\n\\n    /**\\n     * @dev Indicates a failure with the `spender` to be approved. Used in approvals.\\n     * @param spender Address that may be allowed to operate on tokens without being their owner.\\n     */\\n    error ERC20InvalidSpender(address spender);\\n}\\n\\n/**\\n * @dev Standard ERC-721 Errors\\n * Interface of the https://eips.ethereum.org/EIPS/eip-6093[ERC-6093] custom errors for ERC-721 tokens.\\n */\\ninterface IERC721Errors {\\n    /**\\n     * @dev Indicates that an address can't be an owner. For example, `address(0)` is a forbidden owner in ERC-20.\\n     * Used in balance queries.\\n     * @param owner Address of the current owner of a token.\\n     */\\n    error ERC721InvalidOwner(address owner);\\n\\n    /**\\n     * @dev Indicates a `tokenId` whose `owner` is the zero address.\\n     * @param tokenId Identifier number of a token.\\n     */\\n    error ERC721NonexistentToken(uint256 tokenId);\\n\\n    /**\\n     * @dev Indicates an error related to the ownership over a particular token. Used in transfers.\\n     * @param sender Address whose tokens are being transferred.\\n     * @param tokenId Identifier number of a token.\\n     * @param owner Address of the current owner of a token.\\n     */\\n    error ERC721IncorrectOwner(address sender, uint256 tokenId, address owner);\\n\\n    /**\\n     * @dev Indicates a failure with the token `sender`. Used in transfers.\\n     * @param sender Address whose tokens are being transferred.\\n     */\\n    error ERC721InvalidSender(address sender);\\n\\n    /**\\n     * @dev Indicates a failure with the token `receiver`. Used in transfers.\\n     * @param receiver Address to which tokens are being transferred.\\n     */\\n    error ERC721InvalidReceiver(address receiver);\\n\\n    /**\\n     * @dev Indicates a failure with the `operator`’s approval. Used in transfers.\\n     * @param operator Address that may be allowed to operate on tokens without being their owner.\\n     * @param tokenId Identifier number of a token.\\n     */\\n    error ERC721InsufficientApproval(address operator, uint256 tokenId);\\n\\n    /**\\n     * @dev Indicates a failure with the `approver` of a token to be approved. Used in approvals.\\n     * @param approver Address initiating an approval operation.\\n     */\\n    error ERC721InvalidApprover(address approver);\\n\\n    /**\\n     * @dev Indicates a failure with the `operator` to be approved. Used in approvals.\\n     * @param operator Address that may be allowed to operate on tokens without being their owner.\\n     */\\n    error ERC721InvalidOperator(address operator);\\n}\\n\\n/**\\n * @dev Standard ERC-1155 Errors\\n * Interface of the https://eips.ethereum.org/EIPS/eip-6093[ERC-6093] custom errors for ERC-1155 tokens.\\n */\\ninterface IERC1155Errors {\\n    /**\\n     * @dev Indicates an error related to the current `balance` of a `sender`. Used in transfers.\\n     * @param sender Address whose tokens are being transferred.\\n     * @param balance Current balance for the interacting account.\\n     * @param needed Minimum amount required to perform a transfer.\\n     * @param tokenId Identifier number of a token.\\n     */\\n    error ERC1155InsufficientBalance(address sender, uint256 balance, uint256 needed, uint256 tokenId);\\n\\n    /**\\n     * @dev Indicates a failure with the token `sender`. Used in transfers.\\n     * @param sender Address whose tokens are being transferred.\\n     */\\n    error ERC1155InvalidSender(address sender);\\n\\n    /**\\n     * @dev Indicates a failure with the token `receiver`. Used in transfers.\\n     * @param receiver Address to which tokens are being transferred.\\n     */\\n    error ERC1155InvalidReceiver(address receiver);\\n\\n    /**\\n     * @dev Indicates a failure with the `operator`’s approval. Used in transfers.\\n     * @param operator Address that may be allowed to operate on tokens without being their owner.\\n     * @param owner Address of the current owner of a token.\\n     */\\n    error ERC1155MissingApprovalForAll(address operator, address owner);\\n\\n    /**\\n     * @dev Indicates a failure with the `approver` of a token to be approved. Used in approvals.\\n     * @param approver Address initiating an approval operation.\\n     */\\n    error ERC1155InvalidApprover(address approver);\\n\\n    /**\\n     * @dev Indicates a failure with the `operator` to be approved. Used in approvals.\\n     * @param operator Address that may be allowed to operate on tokens without being their owner.\\n     */\\n    error ERC1155InvalidOperator(address operator);\\n\\n    /**\\n     * @dev Indicates an array length mismatch between ids and values in a safeBatchTransferFrom operation.\\n     * Used in batch transfers.\\n     * @param idsLength Length of the array of token identifiers\\n     * @param valuesLength Length of the array of token amounts\\n     */\\n    error ERC1155InvalidArrayLength(uint256 idsLength, uint256 valuesLength);\\n}\\n\"},\"@openzeppelin/contracts/utils/introspection/ERC165.sol\":{\"content\":\"// SPDX-License-Identifier: MIT\\n// OpenZeppelin Contracts (last updated v5.4.0) (utils/introspection/ERC165.sol)\\n\\npragma solidity ^0.8.20;\\n\\nimport {IERC165} from \\\"./IERC165.sol\\\";\\n\\n/**\\n * @dev Implementation of the {IERC165} interface.\\n *\\n * Contracts that want to implement ERC-165 should inherit from this contract and override {supportsInterface} to check\\n * for the additional interface id that will be supported. For example:\\n *\\n * ```solidity\\n * function supportsInterface(bytes4 interfaceId) public view virtual override returns (bool) {\\n *     return interfaceId == type(MyInterface).interfaceId || super.supportsInterface(interfaceId);\\n * }\\n * ```\\n */\\nabstract contract ERC165 is IERC165 {\\n    /// @inheritdoc IERC165\\n    function supportsInterface(bytes4 interfaceId) public view virtual returns (bool) {\\n        return interfaceId == type(IERC165).interfaceId;\\n    }\\n}\\n\"},\"@openzeppelin/contracts/utils/Strings.sol\":{\"content\":\"// SPDX-License-Identifier: MIT\\n// OpenZeppelin Contracts (last updated v5.4.0) (utils/Strings.sol)\\n\\npragma solidity ^0.8.20;\\n\\nimport {Math} from \\\"./math/Math.sol\\\";\\nimport {SafeCast} from \\\"./math/SafeCast.sol\\\";\\nimport {SignedMath} from \\\"./math/SignedMath.sol\\\";\\n\\n/**\\n * @dev String operations.\\n */\\nlibrary Strings {\\n    using SafeCast for *;\\n\\n    bytes16 private constant HEX_DIGITS = \\\"0123456789abcdef\\\";\\n    uint8 private constant ADDRESS_LENGTH = 20;\\n    uint256 private constant SPECIAL_CHARS_LOOKUP =\\n        (1 << 0x08) | // backspace\\n            (1 << 0x09) | // tab\\n            (1 << 0x0a) | // newline\\n            (1 << 0x0c) | // form feed\\n            (1 << 0x0d) | // carriage return\\n            (1 << 0x22) | // double quote\\n            (1 << 0x5c); // backslash\\n\\n    /**\\n     * @dev The `value` string doesn't fit in the specified `length`.\\n     */\\n    error StringsInsufficientHexLength(uint256 value, uint256 length);\\n\\n    /**\\n     * @dev The string being parsed contains characters that are not in scope of the given base.\\n     */\\n    error StringsInvalidChar();\\n\\n    /**\\n     * @dev The string being parsed is not a properly formatted address.\\n     */\\n    error StringsInvalidAddressFormat();\\n\\n    /**\\n     * @dev Converts a `uint256` to its ASCII `string` decimal representation.\\n     */\\n    function toString(uint256 value) internal pure returns (string memory) {\\n        unchecked {\\n            uint256 length = Math.log10(value) + 1;\\n            string memory buffer = new string(length);\\n            uint256 ptr;\\n            assembly (\\\"memory-safe\\\") {\\n                ptr := add(add(buffer, 0x20), length)\\n            }\\n            while (true) {\\n                ptr--;\\n                assembly (\\\"memory-safe\\\") {\\n                    mstore8(ptr, byte(mod(value, 10), HEX_DIGITS))\\n                }\\n                value /= 10;\\n                if (value == 0) break;\\n            }\\n            return buffer;\\n        }\\n    }\\n\\n    /**\\n     * @dev Converts a `int256` to its ASCII `string` decimal representation.\\n     */\\n    function toStringSigned(int256 value) internal pure returns (string memory) {\\n        return string.concat(value < 0 ? \\\"-\\\" : \\\"\\\", toString(SignedMath.abs(value)));\\n    }\\n\\n    /**\\n     * @dev Converts a `uint256` to its ASCII `string` hexadecimal representation.\\n     */\\n    function toHexString(uint256 value) internal pure returns (string memory) {\\n        unchecked {\\n            return toHexString(value, Math.log256(value) + 1);\\n        }\\n    }\\n\\n    /**\\n     * @dev Converts a `uint256` to its ASCII `string` hexadecimal representation with fixed length.\\n     */\\n    function toHexString(uint256 value, uint256 length) internal pure returns (string memory) {\\n        uint256 localValue = value;\\n        bytes memory buffer = new bytes(2 * length + 2);\\n        buffer[0] = \\\"0\\\";\\n        buffer[1] = \\\"x\\\";\\n        for (uint256 i = 2 * length + 1; i > 1; --i) {\\n            buffer[i] = HEX_DIGITS[localValue & 0xf];\\n            localValue >>= 4;\\n        }\\n        if (localValue != 0) {\\n            revert StringsInsufficientHexLength(value, length);\\n        }\\n        return string(buffer);\\n    }\\n\\n    /**\\n     * @dev Converts an `address` with fixed length of 20 bytes to its not checksummed ASCII `string` hexadecimal\\n     * representation.\\n     */\\n    function toHexString(address addr) internal pure returns (string memory) {\\n        return toHexString(uint256(uint160(addr)), ADDRESS_LENGTH);\\n    }\\n\\n    /**\\n     * @dev Converts an `address` with fixed length of 20 bytes to its checksummed ASCII `string` hexadecimal\\n     * representation, according to EIP-55.\\n     */\\n    function toChecksumHexString(address addr) internal pure returns (string memory) {\\n        bytes memory buffer = bytes(toHexString(addr));\\n\\n        // hash the hex part of buffer (skip length + 2 bytes, length 40)\\n        uint256 hashValue;\\n        assembly (\\\"memory-safe\\\") {\\n            hashValue := shr(96, keccak256(add(buffer, 0x22), 40))\\n        }\\n\\n        for (uint256 i = 41; i > 1; --i) {\\n            // possible values for buffer[i] are 48 (0) to 57 (9) and 97 (a) to 102 (f)\\n            if (hashValue & 0xf > 7 && uint8(buffer[i]) > 96) {\\n                // case shift by xoring with 0x20\\n                buffer[i] ^= 0x20;\\n            }\\n            hashValue >>= 4;\\n        }\\n        return string(buffer);\\n    }\\n\\n    /**\\n     * @dev Returns true if the two strings are equal.\\n     */\\n    function equal(string memory a, string memory b) internal pure returns (bool) {\\n        return bytes(a).length == bytes(b).length && keccak256(bytes(a)) == keccak256(bytes(b));\\n    }\\n\\n    /**\\n     * @dev Parse a decimal string and returns the value as a `uint256`.\\n     *\\n     * Requirements:\\n     * - The string must be formatted as `[0-9]*`\\n     * - The result must fit into an `uint256` type\\n     */\\n    function parseUint(string memory input) internal pure returns (uint256) {\\n        return parseUint(input, 0, bytes(input).length);\\n    }\\n\\n    /**\\n     * @dev Variant of {parseUint-string} that parses a substring of `input` located between position `begin` (included) and\\n     * `end` (excluded).\\n     *\\n     * Requirements:\\n     * - The substring must be formatted as `[0-9]*`\\n     * - The result must fit into an `uint256` type\\n     */\\n    function parseUint(string memory input, uint256 begin, uint256 end) internal pure returns (uint256) {\\n        (bool success, uint256 value) = tryParseUint(input, begin, end);\\n        if (!success) revert StringsInvalidChar();\\n        return value;\\n    }\\n\\n    /**\\n     * @dev Variant of {parseUint-string} that returns false if the parsing fails because of an invalid character.\\n     *\\n     * NOTE: This function will revert if the result does not fit in a `uint256`.\\n     */\\n    function tryParseUint(string memory input) internal pure returns (bool success, uint256 value) {\\n        return _tryParseUintUncheckedBounds(input, 0, bytes(input).length);\\n    }\\n\\n    /**\\n     * @dev Variant of {parseUint-string-uint256-uint256} that returns false if the parsing fails because of an invalid\\n     * character.\\n     *\\n     * NOTE: This function will revert if the result does not fit in a `uint256`.\\n     */\\n    function tryParseUint(\\n        string memory input,\\n        uint256 begin,\\n        uint256 end\\n    ) internal pure returns (bool success, uint256 value) {\\n        if (end > bytes(input).length || begin > end) return (false, 0);\\n        return _tryParseUintUncheckedBounds(input, begin, end);\\n    }\\n\\n    /**\\n     * @dev Implementation of {tryParseUint-string-uint256-uint256} that does not check bounds. Caller should make sure that\\n     * `begin <= end <= input.length`. Other inputs would result in undefined behavior.\\n     */\\n    function _tryParseUintUncheckedBounds(\\n        string memory input,\\n        uint256 begin,\\n        uint256 end\\n    ) private pure returns (bool success, uint256 value) {\\n        bytes memory buffer = bytes(input);\\n\\n        uint256 result = 0;\\n        for (uint256 i = begin; i < end; ++i) {\\n            uint8 chr = _tryParseChr(bytes1(_unsafeReadBytesOffset(buffer, i)));\\n            if (chr > 9) return (false, 0);\\n            result *= 10;\\n            result += chr;\\n        }\\n        return (true, result);\\n    }\\n\\n    /**\\n     * @dev Parse a decimal string and returns the value as a `int256`.\\n     *\\n     * Requirements:\\n     * - The string must be formatted as `[-+]?[0-9]*`\\n     * - The result must fit in an `int256` type.\\n     */\\n    function parseInt(string memory input) internal pure returns (int256) {\\n        return parseInt(input, 0, bytes(input).length);\\n    }\\n\\n    /**\\n     * @dev Variant of {parseInt-string} that parses a substring of `input` located between position `begin` (included) and\\n     * `end` (excluded).\\n     *\\n     * Requirements:\\n     * - The substring must be formatted as `[-+]?[0-9]*`\\n     * - The result must fit in an `int256` type.\\n     */\\n    function parseInt(string memory input, uint256 begin, uint256 end) internal pure returns (int256) {\\n        (bool success, int256 value) = tryParseInt(input, begin, end);\\n        if (!success) revert StringsInvalidChar();\\n        return value;\\n    }\\n\\n    /**\\n     * @dev Variant of {parseInt-string} that returns false if the parsing fails because of an invalid character or if\\n     * the result does not fit in a `int256`.\\n     *\\n     * NOTE: This function will revert if the absolute value of the result does not fit in a `uint256`.\\n     */\\n    function tryParseInt(string memory input) internal pure returns (bool success, int256 value) {\\n        return _tryParseIntUncheckedBounds(input, 0, bytes(input).length);\\n    }\\n\\n    uint256 private constant ABS_MIN_INT256 = 2 ** 255;\\n\\n    /**\\n     * @dev Variant of {parseInt-string-uint256-uint256} that returns false if the parsing fails because of an invalid\\n     * character or if the result does not fit in a `int256`.\\n     *\\n     * NOTE: This function will revert if the absolute value of the result does not fit in a `uint256`.\\n     */\\n    function tryParseInt(\\n        string memory input,\\n        uint256 begin,\\n        uint256 end\\n    ) internal pure returns (bool success, int256 value) {\\n        if (end > bytes(input).length || begin > end) return (false, 0);\\n        return _tryParseIntUncheckedBounds(input, begin, end);\\n    }\\n\\n    /**\\n     * @dev Implementation of {tryParseInt-string-uint256-uint256} that does not check bounds. Caller should make sure that\\n     * `begin <= end <= input.length`. Other inputs would result in undefined behavior.\\n     */\\n    function _tryParseIntUncheckedBounds(\\n        string memory input,\\n        uint256 begin,\\n        uint256 end\\n    ) private pure returns (bool success, int256 value) {\\n        bytes memory buffer = bytes(input);\\n\\n        // Check presence of a negative sign.\\n        bytes1 sign = begin == end ? bytes1(0) : bytes1(_unsafeReadBytesOffset(buffer, begin)); // don't do out-of-bound (possibly unsafe) read if sub-string is empty\\n        bool positiveSign = sign == bytes1(\\\"+\\\");\\n        bool negativeSign = sign == bytes1(\\\"-\\\");\\n        uint256 offset = (positiveSign || negativeSign).toUint();\\n\\n        (bool absSuccess, uint256 absValue) = tryParseUint(input, begin + offset, end);\\n\\n        if (absSuccess && absValue < ABS_MIN_INT256) {\\n            return (true, negativeSign ? -int256(absValue) : int256(absValue));\\n        } else if (absSuccess && negativeSign && absValue == ABS_MIN_INT256) {\\n            return (true, type(int256).min);\\n        } else return (false, 0);\\n    }\\n\\n    /**\\n     * @dev Parse a hexadecimal string (with or without \\\"0x\\\" prefix), and returns the value as a `uint256`.\\n     *\\n     * Requirements:\\n     * - The string must be formatted as `(0x)?[0-9a-fA-F]*`\\n     * - The result must fit in an `uint256` type.\\n     */\\n    function parseHexUint(string memory input) internal pure returns (uint256) {\\n        return parseHexUint(input, 0, bytes(input).length);\\n    }\\n\\n    /**\\n     * @dev Variant of {parseHexUint-string} that parses a substring of `input` located between position `begin` (included) and\\n     * `end` (excluded).\\n     *\\n     * Requirements:\\n     * - The substring must be formatted as `(0x)?[0-9a-fA-F]*`\\n     * - The result must fit in an `uint256` type.\\n     */\\n    function parseHexUint(string memory input, uint256 begin, uint256 end) internal pure returns (uint256) {\\n        (bool success, uint256 value) = tryParseHexUint(input, begin, end);\\n        if (!success) revert StringsInvalidChar();\\n        return value;\\n    }\\n\\n    /**\\n     * @dev Variant of {parseHexUint-string} that returns false if the parsing fails because of an invalid character.\\n     *\\n     * NOTE: This function will revert if the result does not fit in a `uint256`.\\n     */\\n    function tryParseHexUint(string memory input) internal pure returns (bool success, uint256 value) {\\n        return _tryParseHexUintUncheckedBounds(input, 0, bytes(input).length);\\n    }\\n\\n    /**\\n     * @dev Variant of {parseHexUint-string-uint256-uint256} that returns false if the parsing fails because of an\\n     * invalid character.\\n     *\\n     * NOTE: This function will revert if the result does not fit in a `uint256`.\\n     */\\n    function tryParseHexUint(\\n        string memory input,\\n        uint256 begin,\\n        uint256 end\\n    ) internal pure returns (bool success, uint256 value) {\\n        if (end > bytes(input).length || begin > end) return (false, 0);\\n        return _tryParseHexUintUncheckedBounds(input, begin, end);\\n    }\\n\\n    /**\\n     * @dev Implementation of {tryParseHexUint-string-uint256-uint256} that does not check bounds. Caller should make sure that\\n     * `begin <= end <= input.length`. Other inputs would result in undefined behavior.\\n     */\\n    function _tryParseHexUintUncheckedBounds(\\n        string memory input,\\n        uint256 begin,\\n        uint256 end\\n    ) private pure returns (bool success, uint256 value) {\\n        bytes memory buffer = bytes(input);\\n\\n        // skip 0x prefix if present\\n        bool hasPrefix = (end > begin + 1) && bytes2(_unsafeReadBytesOffset(buffer, begin)) == bytes2(\\\"0x\\\"); // don't do out-of-bound (possibly unsafe) read if sub-string is empty\\n        uint256 offset = hasPrefix.toUint() * 2;\\n\\n        uint256 result = 0;\\n        for (uint256 i = begin + offset; i < end; ++i) {\\n            uint8 chr = _tryParseChr(bytes1(_unsafeReadBytesOffset(buffer, i)));\\n            if (chr > 15) return (false, 0);\\n            result *= 16;\\n            unchecked {\\n                // Multiplying by 16 is equivalent to a shift of 4 bits (with additional overflow check).\\n                // This guarantees that adding a value < 16 will not cause an overflow, hence the unchecked.\\n                result += chr;\\n            }\\n        }\\n        return (true, result);\\n    }\\n\\n    /**\\n     * @dev Parse a hexadecimal string (with or without \\\"0x\\\" prefix), and returns the value as an `address`.\\n     *\\n     * Requirements:\\n     * - The string must be formatted as `(0x)?[0-9a-fA-F]{40}`\\n     */\\n    function parseAddress(string memory input) internal pure returns (address) {\\n        return parseAddress(input, 0, bytes(input).length);\\n    }\\n\\n    /**\\n     * @dev Variant of {parseAddress-string} that parses a substring of `input` located between position `begin` (included) and\\n     * `end` (excluded).\\n     *\\n     * Requirements:\\n     * - The substring must be formatted as `(0x)?[0-9a-fA-F]{40}`\\n     */\\n    function parseAddress(string memory input, uint256 begin, uint256 end) internal pure returns (address) {\\n        (bool success, address value) = tryParseAddress(input, begin, end);\\n        if (!success) revert StringsInvalidAddressFormat();\\n        return value;\\n    }\\n\\n    /**\\n     * @dev Variant of {parseAddress-string} that returns false if the parsing fails because the input is not a properly\\n     * formatted address. See {parseAddress-string} requirements.\\n     */\\n    function tryParseAddress(string memory input) internal pure returns (bool success, address value) {\\n        return tryParseAddress(input, 0, bytes(input).length);\\n    }\\n\\n    /**\\n     * @dev Variant of {parseAddress-string-uint256-uint256} that returns false if the parsing fails because input is not a properly\\n     * formatted address. See {parseAddress-string-uint256-uint256} requirements.\\n     */\\n    function tryParseAddress(\\n        string memory input,\\n        uint256 begin,\\n        uint256 end\\n    ) internal pure returns (bool success, address value) {\\n        if (end > bytes(input).length || begin > end) return (false, address(0));\\n\\n        bool hasPrefix = (end > begin + 1) && bytes2(_unsafeReadBytesOffset(bytes(input), begin)) == bytes2(\\\"0x\\\"); // don't do out-of-bound (possibly unsafe) read if sub-string is empty\\n        uint256 expectedLength = 40 + hasPrefix.toUint() * 2;\\n\\n        // check that input is the correct length\\n        if (end - begin == expectedLength) {\\n            // length guarantees that this does not overflow, and value is at most type(uint160).max\\n            (bool s, uint256 v) = _tryParseHexUintUncheckedBounds(input, begin, end);\\n            return (s, address(uint160(v)));\\n        } else {\\n            return (false, address(0));\\n        }\\n    }\\n\\n    function _tryParseChr(bytes1 chr) private pure returns (uint8) {\\n        uint8 value = uint8(chr);\\n\\n        // Try to parse `chr`:\\n        // - Case 1: [0-9]\\n        // - Case 2: [a-f]\\n        // - Case 3: [A-F]\\n        // - otherwise not supported\\n        unchecked {\\n            if (value > 47 && value < 58) value -= 48;\\n            else if (value > 96 && value < 103) value -= 87;\\n            else if (value > 64 && value < 71) value -= 55;\\n            else return type(uint8).max;\\n        }\\n\\n        return value;\\n    }\\n\\n    /**\\n     * @dev Escape special characters in JSON strings. This can be useful to prevent JSON injection in NFT metadata.\\n     *\\n     * WARNING: This function should only be used in double quoted JSON strings. Single quotes are not escaped.\\n     *\\n     * NOTE: This function escapes all unicode characters, and not just the ones in ranges defined in section 2.5 of\\n     * RFC-4627 (U+0000 to U+001F, U+0022 and U+005C). ECMAScript's `JSON.parse` does recover escaped unicode\\n     * characters that are not in this range, but other tooling may provide different results.\\n     */\\n    function escapeJSON(string memory input) internal pure returns (string memory) {\\n        bytes memory buffer = bytes(input);\\n        bytes memory output = new bytes(2 * buffer.length); // worst case scenario\\n        uint256 outputLength = 0;\\n\\n        for (uint256 i; i < buffer.length; ++i) {\\n            bytes1 char = bytes1(_unsafeReadBytesOffset(buffer, i));\\n            if (((SPECIAL_CHARS_LOOKUP & (1 << uint8(char))) != 0)) {\\n                output[outputLength++] = \\\"\\\\\\\\\\\";\\n                if (char == 0x08) output[outputLength++] = \\\"b\\\";\\n                else if (char == 0x09) output[outputLength++] = \\\"t\\\";\\n                else if (char == 0x0a) output[outputLength++] = \\\"n\\\";\\n                else if (char == 0x0c) output[outputLength++] = \\\"f\\\";\\n                else if (char == 0x0d) output[outputLength++] = \\\"r\\\";\\n                else if (char == 0x5c) output[outputLength++] = \\\"\\\\\\\\\\\";\\n                else if (char == 0x22) {\\n                    // solhint-disable-next-line quotes\\n                    output[outputLength++] = '\\\"';\\n                }\\n            } else {\\n                output[outputLength++] = char;\\n            }\\n        }\\n        // write the actual length and deallocate unused memory\\n        assembly (\\\"memory-safe\\\") {\\n            mstore(output, outputLength)\\n            mstore(0x40, add(output, shl(5, shr(5, add(outputLength, 63)))))\\n        }\\n\\n        return string(output);\\n    }\\n\\n    /**\\n     * @dev Reads a bytes32 from a bytes array without bounds checking.\\n     *\\n     * NOTE: making this function internal would mean it could be used with memory unsafe offset, and marking the\\n     * assembly block as such would prevent some optimizations.\\n     */\\n    function _unsafeReadBytesOffset(bytes memory buffer, uint256 offset) private pure returns (bytes32 value) {\\n        // This is not memory safe in the general case, but all calls to this private function are within bounds.\\n        assembly (\\\"memory-safe\\\") {\\n            value := mload(add(add(buffer, 0x20), offset))\\n        }\\n    }\\n}\\n\"},\"@openzeppelin/contracts/utils/Context.sol\":{\"content\":\"// SPDX-License-Identifier: MIT\\n// OpenZeppelin Contracts (last updated v5.0.1) (utils/Context.sol)\\n\\npragma solidity ^0.8.20;\\n\\n/**\\n * @dev Provides information about the current execution context, including the\\n * sender of the transaction and its data. While these are generally available\\n * via msg.sender and msg.data, they should not be accessed in such a direct\\n * manner, since when dealing with meta-transactions the account sending and\\n * paying for execution may not be the actual sender (as far as an application\\n * is concerned).\\n *\\n * This contract is only required for intermediate, library-like contracts.\\n */\\nabstract contract Context {\\n    function _msgSender() internal view virtual returns (address) {\\n        return msg.sender;\\n    }\\n\\n    function _msgData() internal view virtual returns (bytes calldata) {\\n        return msg.data;\\n    }\\n\\n    function _contextSuffixLength() internal view virtual returns (uint256) {\\n        return 0;\\n    }\\n}\\n\"},\"@openzeppelin/contracts/token/ERC721/utils/ERC721Utils.sol\":{\"content\":\"// SPDX-License-Identifier: MIT\\n// OpenZeppelin Contracts (last updated v5.4.0) (token/ERC721/utils/ERC721Utils.sol)\\n\\npragma solidity ^0.8.20;\\n\\nimport {IERC721Receiver} from \\\"../IERC721Receiver.sol\\\";\\nimport {IERC721Errors} from \\\"../../../interfaces/draft-IERC6093.sol\\\";\\n\\n/**\\n * @dev Library that provide common ERC-721 utility functions.\\n *\\n * See https://eips.ethereum.org/EIPS/eip-721[ERC-721].\\n *\\n * _Available since v5.1._\\n */\\nlibrary ERC721Utils {\\n    /**\\n     * @dev Performs an acceptance check for the provided `operator` by calling {IERC721Receiver-onERC721Received}\\n     * on the `to` address. The `operator` is generally the address that initiated the token transfer (i.e. `msg.sender`).\\n     *\\n     * The acceptance call is not executed and treated as a no-op if the target address doesn't contain code (i.e. an EOA).\\n     * Otherwise, the recipient must implement {IERC721Receiver-onERC721Received} and return the acceptance magic value to accept\\n     * the transfer.\\n     */\\n    function checkOnERC721Received(\\n        address operator,\\n        address from,\\n        address to,\\n        uint256 tokenId,\\n        bytes memory data\\n    ) internal {\\n        if (to.code.length > 0) {\\n            try IERC721Receiver(to).onERC721Received(operator, from, tokenId, data) returns (bytes4 retval) {\\n                if (retval != IERC721Receiver.onERC721Received.selector) {\\n                    // Token rejected\\n                    revert IERC721Errors.ERC721InvalidReceiver(to);\\n                }\\n            } catch (bytes memory reason) {\\n                if (reason.length == 0) {\\n                    // non-IERC721Receiver implementer\\n                    revert IERC721Errors.ERC721InvalidReceiver(to);\\n                } else {\\n                    assembly (\\\"memory-safe\\\") {\\n                        revert(add(reason, 0x20), mload(reason))\\n                    }\\n                }\\n            }\\n        }\\n    }\\n}\\n\"},\"@openzeppelin/contracts/token/ERC721/extensions/IERC721Metadata.sol\":{\"content\":\"// SPDX-License-Identifier: MIT\\n// OpenZeppelin Contracts (last updated v5.4.0) (token/ERC721/extensions/IERC721Metadata.sol)\\n\\npragma solidity >=0.6.2;\\n\\nimport {IERC721} from \\\"../IERC721.sol\\\";\\n\\n/**\\n * @title ERC-721 Non-Fungible Token Standard, optional metadata extension\\n * @dev See https://eips.ethereum.org/EIPS/eip-721\\n */\\ninterface IERC721Metadata is IERC721 {\\n    /**\\n     * @dev Returns the token collection name.\\n     */\\n    function name() external view returns (string memory);\\n\\n    /**\\n     * @dev Returns the token collection symbol.\\n     */\\n    function symbol() external view returns (string memory);\\n\\n    /**\\n     * @dev Returns the Uniform Resource Identifier (URI) for `tokenId` token.\\n     */\\n    function tokenURI(uint256 tokenId) external view returns (string memory);\\n}\\n\"},\"@openzeppelin/contracts/token/ERC721/IERC721.sol\":{\"content\":\"// SPDX-License-Identifier: MIT\\n// OpenZeppelin Contracts (last updated v5.4.0) (token/ERC721/IERC721.sol)\\n\\npragma solidity >=0.6.2;\\n\\nimport {IERC165} from \\\"../../utils/introspection/IERC165.sol\\\";\\n\\n/**\\n * @dev Required interface of an ERC-721 compliant contract.\\n */\\ninterface IERC721 is IERC165 {\\n    /**\\n     * @dev Emitted when `tokenId` token is transferred from `from` to `to`.\\n     */\\n    event Transfer(address indexed from, address indexed to, uint256 indexed tokenId);\\n\\n    /**\\n     * @dev Emitted when `owner` enables `approved` to manage the `tokenId` token.\\n     */\\n    event Approval(address indexed owner, address indexed approved, uint256 indexed tokenId);\\n\\n    /**\\n     * @dev Emitted when `owner` enables or disables (`approved`) `operator` to manage all of its assets.\\n     */\\n    event ApprovalForAll(address indexed owner, address indexed operator, bool approved);\\n\\n    /**\\n     * @dev Returns the number of tokens in ``owner``'s account.\\n     */\\n    function balanceOf(address owner) external view returns (uint256 balance);\\n\\n    /**\\n     * @dev Returns the owner of the `tokenId` token.\\n     *\\n     * Requirements:\\n     *\\n     * - `tokenId` must exist.\\n     */\\n    function ownerOf(uint256 tokenId) external view returns (address owner);\\n\\n    /**\\n     * @dev Safely transfers `tokenId` token from `from` to `to`.\\n     *\\n     * Requirements:\\n     *\\n     * - `from` cannot be the zero address.\\n     * - `to` cannot be the zero address.\\n     * - `tokenId` token must exist and be owned by `from`.\\n     * - If the caller is not `from`, it must be approved to move this token by either {approve} or {setApprovalForAll}.\\n     * - If `to` refers to a smart contract, it must implement {IERC721Receiver-onERC721Received}, which is called upon\\n     *   a safe transfer.\\n     *\\n     * Emits a {Transfer} event.\\n     */\\n    function safeTransferFrom(address from, address to, uint256 tokenId, bytes calldata data) external;\\n\\n    /**\\n     * @dev Safely transfers `tokenId` token from `from` to `to`, checking first that contract recipients\\n     * are aware of the ERC-721 protocol to prevent tokens from being forever locked.\\n     *\\n     * Requirements:\\n     *\\n     * - `from` cannot be the zero address.\\n     * - `to` cannot be the zero address.\\n     * - `tokenId` token must exist and be owned by `from`.\\n     * - If the caller is not `from`, it must have been allowed to move this token by either {approve} or\\n     *   {setApprovalForAll}.\\n     * - If `to` refers to a smart contract, it must implement {IERC721Receiver-onERC721Received}, which is called upon\\n     *   a safe transfer.\\n     *\\n     * Emits a {Transfer} event.\\n     */\\n    function safeTransferFrom(address from, address to, uint256 tokenId) external;\\n\\n    /**\\n     * @dev Transfers `tokenId` token from `from` to `to`.\\n     *\\n     * WARNING: Note that the caller is responsible to confirm that the recipient is capable of receiving ERC-721\\n     * or else they may be permanently lost. Usage of {safeTransferFrom} prevents loss, though the caller must\\n     * understand this adds an external call which potentially creates a reentrancy vulnerability.\\n     *\\n     * Requirements:\\n     *\\n     * - `from` cannot be the zero address.\\n     * - `to` cannot be the zero address.\\n     * - `tokenId` token must be owned by `from`.\\n     * - If the caller is not `from`, it must be approved to move this token by either {approve} or {setApprovalForAll}.\\n     *\\n     * Emits a {Transfer} event.\\n     */\\n    function transferFrom(address from, address to, uint256 tokenId) external;\\n\\n    /**\\n     * @dev Gives permission to `to` to transfer `tokenId` token to another account.\\n     * The approval is cleared when the token is transferred.\\n     *\\n     * Only a single account can be approved at a time, so approving the zero address clears previous approvals.\\n     *\\n     * Requirements:\\n     *\\n     * - The caller must own the token or be an approved operator.\\n     * - `tokenId` must exist.\\n     *\\n     * Emits an {Approval} event.\\n     */\\n    function approve(address to, uint256 tokenId) external;\\n\\n    /**\\n     * @dev Approve or remove `operator` as an operator for the caller.\\n     * Operators can call {transferFrom} or {safeTransferFrom} for any token owned by the caller.\\n     *\\n     * Requirements:\\n     *\\n     * - The `operator` cannot be the address zero.\\n     *\\n     * Emits an {ApprovalForAll} event.\\n     */\\n    function setApprovalForAll(address operator, bool approved) external;\\n\\n    /**\\n     * @dev Returns the account approved for `tokenId` token.\\n     *\\n     * Requirements:\\n     *\\n     * - `tokenId` must exist.\\n     */\\n    function getApproved(uint256 tokenId) external view returns (address operator);\\n\\n    /**\\n     * @dev Returns if the `operator` is allowed to manage all of the assets of `owner`.\\n     *\\n     * See {setApprovalForAll}\\n     */\\n    function isApprovedForAll(address owner, address operator) external view returns (bool);\\n}\\n\"},\"@openzeppelin/contracts/utils/introspection/IERC165.sol\":{\"content\":\"// SPDX-License-Identifier: MIT\\n// OpenZeppelin Contracts (last updated v5.4.0) (utils/introspection/IERC165.sol)\\n\\npragma solidity >=0.4.16;\\n\\n/**\\n * @dev Interface of the ERC-165 standard, as defined in the\\n * https://eips.ethereum.org/EIPS/eip-165[ERC].\\n *\\n * Implementers can declare support of contract interfaces, which can then be\\n * queried by others ({ERC165Checker}).\\n *\\n * For an implementation, see {ERC165}.\\n */\\ninterface IERC165 {\\n    /**\\n     * @dev Returns true if this contract implements the interface defined by\\n     * `interfaceId`. See the corresponding\\n     * https://eips.ethereum.org/EIPS/eip-165#how-interfaces-are-identified[ERC section]\\n     * to learn more about how these ids are created.\\n     *\\n     * This function call must use less than 30 000 gas.\\n     */\\n    function supportsInterface(bytes4 interfaceId) external view returns (bool);\\n}\\n\"},\"@openzeppelin/contracts/utils/math/SignedMath.sol\":{\"content\":\"// SPDX-License-Identifier: MIT\\n// OpenZeppelin Contracts (last updated v5.1.0) (utils/math/SignedMath.sol)\\n\\npragma solidity ^0.8.20;\\n\\nimport {SafeCast} from \\\"./SafeCast.sol\\\";\\n\\n/**\\n * @dev Standard signed math utilities missing in the Solidity language.\\n */\\nlibrary SignedMath {\\n    /**\\n     * @dev Branchless ternary evaluation for `a ? b : c`. Gas costs are constant.\\n     *\\n     * IMPORTANT: This function may reduce bytecode size and consume less gas when used standalone.\\n     * However, the compiler may optimize Solidity ternary operations (i.e. `a ? b : c`) to only compute\\n     * one branch when needed, making this function more expensive.\\n     */\\n    function ternary(bool condition, int256 a, int256 b) internal pure returns (int256) {\\n        unchecked {\\n            // branchless ternary works because:\\n            // b ^ (a ^ b) == a\\n            // b ^ 0 == b\\n            return b ^ ((a ^ b) * int256(SafeCast.toUint(condition)));\\n        }\\n    }\\n\\n    /**\\n     * @dev Returns the largest of two signed numbers.\\n     */\\n    function max(int256 a, int256 b) internal pure returns (int256) {\\n        return ternary(a > b, a, b);\\n    }\\n\\n    /**\\n     * @dev Returns the smallest of two signed numbers.\\n     */\\n    function min(int256 a, int256 b) internal pure returns (int256) {\\n        return ternary(a < b, a, b);\\n    }\\n\\n    /**\\n     * @dev Returns the average of two signed numbers without overflow.\\n     * The result is rounded towards zero.\\n     */\\n    function average(int256 a, int256 b) internal pure returns (int256) {\\n        // Formula from the book \\\"Hacker's Delight\\\"\\n        int256 x = (a & b) + ((a ^ b) >> 1);\\n        return x + (int256(uint256(x) >> 255) & (a ^ b));\\n    }\\n\\n    /**\\n     * @dev Returns the absolute unsigned value of a signed value.\\n     */\\n    function abs(int256 n) internal pure returns (uint256) {\\n        unchecked {\\n            // Formula from the \\\"Bit Twiddling Hacks\\\" by Sean Eron Anderson.\\n            // Since `n` is a signed integer, the generated bytecode will use the SAR opcode to perform the right shift,\\n            // taking advantage of the most significant (or \\\"sign\\\" bit) in two's complement representation.\\n            // This opcode adds new most significant bits set to the value of the previous most significant bit. As a result,\\n            // the mask will either be `bytes32(0)` (if n is positive) or `~bytes32(0)` (if n is negative).\\n            int256 mask = n >> 255;\\n\\n            // A `bytes32(0)` mask leaves the input unchanged, while a `~bytes32(0)` mask complements it.\\n            return uint256((n + mask) ^ mask);\\n        }\\n    }\\n}\\n\"},\"@openzeppelin/contracts/utils/math/SafeCast.sol\":{\"content\":\"// SPDX-License-Identifier: MIT\\n// OpenZeppelin Contracts (last updated v5.1.0) (utils/math/SafeCast.sol)\\n// This file was procedurally generated from scripts/generate/templates/SafeCast.js.\\n\\npragma solidity ^0.8.20;\\n\\n/**\\n * @dev Wrappers over Solidity's uintXX/intXX/bool casting operators with added overflow\\n * checks.\\n *\\n * Downcasting from uint256/int256 in Solidity does not revert on overflow. This can\\n * easily result in undesired exploitation or bugs, since developers usually\\n * assume that overflows raise errors. `SafeCast` restores this intuition by\\n * reverting the transaction when such an operation overflows.\\n *\\n * Using this library instead of the unchecked operations eliminates an entire\\n * class of bugs, so it's recommended to use it always.\\n */\\nlibrary SafeCast {\\n    /**\\n     * @dev Value doesn't fit in an uint of `bits` size.\\n     */\\n    error SafeCastOverflowedUintDowncast(uint8 bits, uint256 value);\\n\\n    /**\\n     * @dev An int value doesn't fit in an uint of `bits` size.\\n     */\\n    error SafeCastOverflowedIntToUint(int256 value);\\n\\n    /**\\n     * @dev Value doesn't fit in an int of `bits` size.\\n     */\\n    error SafeCastOverflowedIntDowncast(uint8 bits, int256 value);\\n\\n    /**\\n     * @dev An uint value doesn't fit in an int of `bits` size.\\n     */\\n    error SafeCastOverflowedUintToInt(uint256 value);\\n\\n    /**\\n     * @dev Returns the downcasted uint248 from uint256, reverting on\\n     * overflow (when the input is greater than largest uint248).\\n     *\\n     * Counterpart to Solidity's `uint248` operator.\\n     *\\n     * Requirements:\\n     *\\n     * - input must fit into 248 bits\\n     */\\n    function toUint248(uint256 value) internal pure returns (uint248) {\\n        if (value > type(uint248).max) {\\n            revert SafeCastOverflowedUintDowncast(248, value);\\n        }\\n        return uint248(value);\\n    }\\n\\n    /**\\n     * @dev Returns the downcasted uint240 from uint256, reverting on\\n     * overflow (when the input is greater than largest uint240).\\n     *\\n     * Counterpart to Solidity's `uint240` operator.\\n     *\\n     * Requirements:\\n     *\\n     * - input must fit into 240 bits\\n     */\\n    function toUint240(uint256 value) internal pure returns (uint240) {\\n        if (value > type(uint240).max) {\\n            revert SafeCastOverflowedUintDowncast(240, value);\\n        }\\n        return uint240(value);\\n    }\\n\\n    /**\\n     * @dev Returns the downcasted uint232 from uint256, reverting on\\n     * overflow (when the input is greater than largest uint232).\\n     *\\n     * Counterpart to Solidity's `uint232` operator.\\n     *\\n     * Requirements:\\n     *\\n     * - input must fit into 232 bits\\n     */\\n    function toUint232(uint256 value) internal pure returns (uint232) {\\n        if (value > type(uint232).max) {\\n            revert SafeCastOverflowedUintDowncast(232, value);\\n        }\\n        return uint232(value);\\n    }\\n\\n    /**\\n     * @dev Returns the downcasted uint224 from uint256, reverting on\\n     * overflow (when the input is greater than largest uint224).\\n     *\\n     * Counterpart to Solidity's `uint224` operator.\\n     *\\n     * Requirements:\\n     *\\n     * - input must fit into 224 bits\\n     */\\n    function toUint224(uint256 value) internal pure returns (uint224) {\\n        if (value > type(uint224).max) {\\n            revert SafeCastOverflowedUintDowncast(224, value);\\n        }\\n        return uint224(value);\\n    }\\n\\n    /**\\n     * @dev Returns the downcasted uint216 from uint256, reverting on\\n     * overflow (when the input is greater than largest uint216).\\n     *\\n     * Counterpart to Solidity's `uint216` operator.\\n     *\\n     * Requirements:\\n     *\\n     * - input must fit into 216 bits\\n     */\\n    function toUint216(uint256 value) internal pure returns (uint216) {\\n        if (value > type(uint216).max) {\\n            revert SafeCastOverflowedUintDowncast(216, value);\\n        }\\n        return uint216(value);\\n    }\\n\\n    /**\\n     * @dev Returns the downcasted uint208 from uint256, reverting on\\n     * overflow (when the input is greater than largest uint208).\\n     *\\n     * Counterpart to Solidity's `uint208` operator.\\n     *\\n     * Requirements:\\n     *\\n     * - input must fit into 208 bits\\n     */\\n    function toUint208(uint256 value) internal pure returns (uint208) {\\n        if (value > type(uint208).max) {\\n            revert SafeCastOverflowedUintDowncast(208, value);\\n        }\\n        return uint208(value);\\n    }\\n\\n    /**\\n     * @dev Returns the downcasted uint200 from uint256, reverting on\\n     * overflow (when the input is greater than largest uint200).\\n     *\\n     * Counterpart to Solidity's `uint200` operator.\\n     *\\n     * Requirements:\\n     *\\n     * - input must fit into 200 bits\\n     */\\n    function toUint200(uint256 value) internal pure returns (uint200) {\\n        if (value > type(uint200).max) {\\n            revert SafeCastOverflowedUintDowncast(200, value);\\n        }\\n        return uint200(value);\\n    }\\n\\n    /**\\n     * @dev Returns the downcasted uint192 from uint256, reverting on\\n     * overflow (when the input is greater than largest uint192).\\n     *\\n     * Counterpart to Solidity's `uint192` operator.\\n     *\\n     * Requirements:\\n     *\\n     * - input must fit into 192 bits\\n     */\\n    function toUint192(uint256 value) internal pure returns (uint192) {\\n        if (value > type(uint192).max) {\\n            revert SafeCastOverflowedUintDowncast(192, value);\\n        }\\n        return uint192(value);\\n    }\\n\\n    /**\\n     * @dev Returns the downcasted uint184 from uint256, reverting on\\n     * overflow (when the input is greater than largest uint184).\\n     *\\n     * Counterpart to Solidity's `uint184` operator.\\n     *\\n     * Requirements:\\n     *\\n     * - input must fit into 184 bits\\n     */\\n    function toUint184(uint256 value) internal pure returns (uint184) {\\n        if (value > type(uint184).max) {\\n            revert SafeCastOverflowedUintDowncast(184, value);\\n        }\\n        return uint184(value);\\n    }\\n\\n    /**\\n     * @dev Returns the downcasted uint176 from uint256, reverting on\\n     * overflow (when the input is greater than largest uint176).\\n     *\\n     * Counterpart to Solidity's `uint176` operator.\\n     *\\n     * Requirements:\\n     *\\n     * - input must fit into 176 bits\\n     */\\n    function toUint176(uint256 value) internal pure returns (uint176) {\\n        if (value > type(uint176).max) {\\n            revert SafeCastOverflowedUintDowncast(176, value);\\n        }\\n        return uint176(value);\\n    }\\n\\n    /**\\n     * @dev Returns the downcasted uint168 from uint256, reverting on\\n     * overflow (when the input is greater than largest uint168).\\n     *\\n     * Counterpart to Solidity's `uint168` operator.\\n     *\\n     * Requirements:\\n     *\\n     * - input must fit into 168 bits\\n     */\\n    function toUint168(uint256 value) internal pure returns (uint168) {\\n        if (value > type(uint168).max) {\\n            revert SafeCastOverflowedUintDowncast(168, value);\\n        }\\n        return uint168(value);\\n    }\\n\\n    /**\\n     * @dev Returns the downcasted uint160 from uint256, reverting on\\n     * overflow (when the input is greater than largest uint160).\\n     *\\n     * Counterpart to Solidity's `uint160` operator.\\n     *\\n     * Requirements:\\n     *\\n     * - input must fit into 160 bits\\n     */\\n    function toUint160(uint256 value) internal pure returns (uint160) {\\n        if (value > type(uint160).max) {\\n            revert SafeCastOverflowedUintDowncast(160, value);\\n        }\\n        return uint160(value);\\n    }\\n\\n    /**\\n     * @dev Returns the downcasted uint152 from uint256, reverting on\\n     * overflow (when the input is greater than largest uint152).\\n     *\\n     * Counterpart to Solidity's `uint152` operator.\\n     *\\n     * Requirements:\\n     *\\n     * - input must fit into 152 bits\\n     */\\n    function toUint152(uint256 value) internal pure returns (uint152) {\\n        if (value > type(uint152).max) {\\n            revert SafeCastOverflowedUintDowncast(152, value);\\n        }\\n        return uint152(value);\\n    }\\n\\n    /**\\n     * @dev Returns the downcasted uint144 from uint256, reverting on\\n     * overflow (when the input is greater than largest uint144).\\n     *\\n     * Counterpart to Solidity's `uint144` operator.\\n     *\\n     * Requirements:\\n     *\\n     * - input must fit into 144 bits\\n     */\\n    function toUint144(uint256 value) internal pure returns (uint144) {\\n        if (value > type(uint144).max) {\\n            revert SafeCastOverflowedUintDowncast(144, value);\\n        }\\n        return uint144(value);\\n    }\\n\\n    /**\\n     * @dev Returns the downcasted uint136 from uint256, reverting on\\n     * overflow (when the input is greater than largest uint136).\\n     *\\n     * Counterpart to Solidity's `uint136` operator.\\n     *\\n     * Requirements:\\n     *\\n     * - input must fit into 136 bits\\n     */\\n    function toUint136(uint256 value) internal pure returns (uint136) {\\n        if (value > type(uint136).max) {\\n            revert SafeCastOverflowedUintDowncast(136, value);\\n        }\\n        return uint136(value);\\n    }\\n\\n    /**\\n     * @dev Returns the downcasted uint128 from uint256, reverting on\\n     * overflow (when the input is greater than largest uint128).\\n     *\\n     * Counterpart to Solidity's `uint128` operator.\\n     *\\n     * Requirements:\\n     *\\n     * - input must fit into 128 bits\\n     */\\n    function toUint128(uint256 value) internal pure returns (uint128) {\\n        if (value > type(uint128).max) {\\n            revert SafeCastOverflowedUintDowncast(128, value);\\n        }\\n        return uint128(value);\\n    }\\n\\n    /**\\n     * @dev Returns the downcasted uint120 from uint256, reverting on\\n     * overflow (when the input is greater than largest uint120).\\n     *\\n     * Counterpart to Solidity's `uint120` operator.\\n     *\\n     * Requirements:\\n     *\\n     * - input must fit into 120 bits\\n     */\\n    function toUint120(uint256 value) internal pure returns (uint120) {\\n        if (value > type(uint120).max) {\\n            revert SafeCastOverflowedUintDowncast(120, value);\\n        }\\n        return uint120(value);\\n    }\\n\\n    /**\\n     * @dev Returns the downcasted uint112 from uint256, reverting on\\n     * overflow (when the input is greater than largest uint112).\\n     *\\n     * Counterpart to Solidity's `uint112` operator.\\n     *\\n     * Requirements:\\n     *\\n     * - input must fit into 112 bits\\n     */\\n    function toUint112(uint256 value) internal pure returns (uint112) {\\n        if (value > type(uint112).max) {\\n            revert SafeCastOverflowedUintDowncast(112, value);\\n        }\\n        return uint112(value);\\n    }\\n\\n    /**\\n     * @dev Returns the downcasted uint104 from uint256, reverting on\\n     * overflow (when the input is greater than largest uint104).\\n     *\\n     * Counterpart to Solidity's `uint104` operator.\\n     *\\n     * Requirements:\\n     *\\n     * - input must fit into 104 bits\\n     */\\n    function toUint104(uint256 value) internal pure returns (uint104) {\\n        if (value > type(uint104).max) {\\n            revert SafeCastOverflowedUintDowncast(104, value);\\n        }\\n        return uint104(value);\\n    }\\n\\n    /**\\n     * @dev Returns the downcasted uint96 from uint256, reverting on\\n     * overflow (when the input is greater than largest uint96).\\n     *\\n     * Counterpart to Solidity's `uint96` operator.\\n     *\\n     * Requirements:\\n     *\\n     * - input must fit into 96 bits\\n     */\\n    function toUint96(uint256 value) internal pure returns (uint96) {\\n        if (value > type(uint96).max) {\\n            revert SafeCastOverflowedUintDowncast(96, value);\\n        }\\n        return uint96(value);\\n    }\\n\\n    /**\\n     * @dev Returns the downcasted uint88 from uint256, reverting on\\n     * overflow (when the input is greater than largest uint88).\\n     *\\n     * Counterpart to Solidity's `uint88` operator.\\n     *\\n     * Requirements:\\n     *\\n     * - input must fit into 88 bits\\n     */\\n    function toUint88(uint256 value) internal pure returns (uint88) {\\n        if (value > type(uint88).max) {\\n            revert SafeCastOverflowedUintDowncast(88, value);\\n        }\\n        return uint88(value);\\n    }\\n\\n    /**\\n     * @dev Returns the downcasted uint80 from uint256, reverting on\\n     * overflow (when the input is greater than largest uint80).\\n     *\\n     * Counterpart to Solidity's `uint80` operator.\\n     *\\n     * Requirements:\\n     *\\n     * - input must fit into 80 bits\\n     */\\n    function toUint80(uint256 value) internal pure returns (uint80) {\\n        if (value > type(uint80).max) {\\n            revert SafeCastOverflowedUintDowncast(80, value);\\n        }\\n        return uint80(value);\\n    }\\n\\n    /**\\n     * @dev Returns the downcasted uint72 from uint256, reverting on\\n     * overflow (when the input is greater than largest uint72).\\n     *\\n     * Counterpart to Solidity's `uint72` operator.\\n     *\\n     * Requirements:\\n     *\\n     * - input must fit into 72 bits\\n     */\\n    function toUint72(uint256 value) internal pure returns (uint72) {\\n        if (value > type(uint72).max) {\\n            revert SafeCastOverflowedUintDowncast(72, value);\\n        }\\n        return uint72(value);\\n    }\\n\\n    /**\\n     * @dev Returns the downcasted uint64 from uint256, reverting on\\n     * overflow (when the input is greater than largest uint64).\\n     *\\n     * Counterpart to Solidity's `uint64` operator.\\n     *\\n     * Requirements:\\n     *\\n     * - input must fit into 64 bits\\n     */\\n    function toUint64(uint256 value) internal pure returns (uint64) {\\n        if (value > type(uint64).max) {\\n            revert SafeCastOverflowedUintDowncast(64, value);\\n        }\\n        return uint64(value);\\n    }\\n\\n    /**\\n     * @dev Returns the downcasted uint56 from uint256, reverting on\\n     * overflow (when the input is greater than largest uint56).\\n     *\\n     * Counterpart to Solidity's `uint56` operator.\\n     *\\n     * Requirements:\\n     *\\n     * - input must fit into 56 bits\\n     */\\n    function toUint56(uint256 value) internal pure returns (uint56) {\\n        if (value > type(uint56).max) {\\n            revert SafeCastOverflowedUintDowncast(56, value);\\n        }\\n        return uint56(value);\\n    }\\n\\n    /**\\n     * @dev Returns the downcasted uint48 from uint256, reverting on\\n     * overflow (when the input is greater than largest uint48).\\n     *\\n     * Counterpart to Solidity's `uint48` operator.\\n     *\\n     * Requirements:\\n     *\\n     * - input must fit into 48 bits\\n     */\\n    function toUint48(uint256 value) internal pure returns (uint48) {\\n        if (value > type(uint48).max) {\\n            revert SafeCastOverflowedUintDowncast(48, value);\\n        }\\n        return uint48(value);\\n    }\\n\\n    /**\\n     * @dev Returns the downcasted uint40 from uint256, reverting on\\n     * overflow (when the input is greater than largest uint40).\\n     *\\n     * Counterpart to Solidity's `uint40` operator.\\n     *\\n     * Requirements:\\n     *\\n     * - input must fit into 40 bits\\n     */\\n    function toUint40(uint256 value) internal pure returns (uint40) {\\n        if (value > type(uint40).max) {\\n            revert SafeCastOverflowedUintDowncast(40, value);\\n        }\\n        return uint40(value);\\n    }\\n\\n    /**\\n     * @dev Returns the downcasted uint32 from uint256, reverting on\\n     * overflow (when the input is greater than largest uint32).\\n     *\\n     * Counterpart to Solidity's `uint32` operator.\\n     *\\n     * Requirements:\\n     *\\n     * - input must fit into 32 bits\\n     */\\n    function toUint32(uint256 value) internal pure returns (uint32) {\\n        if (value > type(uint32).max) {\\n            revert SafeCastOverflowedUintDowncast(32, value);\\n        }\\n        return uint32(value);\\n    }\\n\\n    /**\\n     * @dev Returns the downcasted uint24 from uint256, reverting on\\n     * overflow (when the input is greater than largest uint24).\\n     *\\n     * Counterpart to Solidity's `uint24` operator.\\n     *\\n     * Requirements:\\n     *\\n     * - input must fit into 24 bits\\n     */\\n    function toUint24(uint256 value) internal pure returns (uint24) {\\n        if (value > type(uint24).max) {\\n            revert SafeCastOverflowedUintDowncast(24, value);\\n        }\\n        return uint24(value);\\n    }\\n\\n    /**\\n     * @dev Returns the downcasted uint16 from uint256, reverting on\\n     * overflow (when the input is greater than largest uint16).\\n     *\\n     * Counterpart to Solidity's `uint16` operator.\\n     *\\n     * Requirements:\\n     *\\n     * - input must fit into 16 bits\\n     */\\n    function toUint16(uint256 value) internal pure returns (uint16) {\\n        if (value > type(uint16).max) {\\n            revert SafeCastOverflowedUintDowncast(16, value);\\n        }\\n        return uint16(value);\\n    }\\n\\n    /**\\n     * @dev Returns the downcasted uint8 from uint256, reverting on\\n     * overflow (when the input is greater than largest uint8).\\n     *\\n     * Counterpart to Solidity's `uint8` operator.\\n     *\\n     * Requirements:\\n     *\\n     * - input must fit into 8 bits\\n     */\\n    function toUint8(uint256 value) internal pure returns (uint8) {\\n        if (value > type(uint8).max) {\\n            revert SafeCastOverflowedUintDowncast(8, value);\\n        }\\n        return uint8(value);\\n    }\\n\\n    /**\\n     * @dev Converts a signed int256 into an unsigned uint256.\\n     *\\n     * Requirements:\\n     *\\n     * - input must be greater than or equal to 0.\\n     */\\n    function toUint256(int256 value) internal pure returns (uint256) {\\n        if (value < 0) {\\n            revert SafeCastOverflowedIntToUint(value);\\n        }\\n        return uint256(value);\\n    }\\n\\n    /**\\n     * @dev Returns the downcasted int248 from int256, reverting on\\n     * overflow (when the input is less than smallest int248 or\\n     * greater than largest int248).\\n     *\\n     * Counterpart to Solidity's `int248` operator.\\n     *\\n     * Requirements:\\n     *\\n     * - input must fit into 248 bits\\n     */\\n    function toInt248(int256 value) internal pure returns (int248 downcasted) {\\n        downcasted = int248(value);\\n        if (downcasted != value) {\\n            revert SafeCastOverflowedIntDowncast(248, value);\\n        }\\n    }\\n\\n    /**\\n     * @dev Returns the downcasted int240 from int256, reverting on\\n     * overflow (when the input is less than smallest int240 or\\n     * greater than largest int240).\\n     *\\n     * Counterpart to Solidity's `int240` operator.\\n     *\\n     * Requirements:\\n     *\\n     * - input must fit into 240 bits\\n     */\\n    function toInt240(int256 value) internal pure returns (int240 downcasted) {\\n        downcasted = int240(value);\\n        if (downcasted != value) {\\n            revert SafeCastOverflowedIntDowncast(240, value);\\n        }\\n    }\\n\\n    /**\\n     * @dev Returns the downcasted int232 from int256, reverting on\\n     * overflow (when the input is less than smallest int232 or\\n     * greater than largest int232).\\n     *\\n     * Counterpart to Solidity's `int232` operator.\\n     *\\n     * Requirements:\\n     *\\n     * - input must fit into 232 bits\\n     */\\n    function toInt232(int256 value) internal pure returns (int232 downcasted) {\\n        downcasted = int232(value);\\n        if (downcasted != value) {\\n            revert SafeCastOverflowedIntDowncast(232, value);\\n        }\\n    }\\n\\n    /**\\n     * @dev Returns the downcasted int224 from int256, reverting on\\n     * overflow (when the input is less than smallest int224 or\\n     * greater than largest int224).\\n     *\\n     * Counterpart to Solidity's `int224` operator.\\n     *\\n     * Requirements:\\n     *\\n     * - input must fit into 224 bits\\n     */\\n    function toInt224(int256 value) internal pure returns (int224 downcasted) {\\n        downcasted = int224(value);\\n        if (downcasted != value) {\\n            revert SafeCastOverflowedIntDowncast(224, value);\\n        }\\n    }\\n\\n    /**\\n     * @dev Returns the downcasted int216 from int256, reverting on\\n     * overflow (when the input is less than smallest int216 or\\n     * greater than largest int216).\\n     *\\n     * Counterpart to Solidity's `int216` operator.\\n     *\\n     * Requirements:\\n     *\\n     * - input must fit into 216 bits\\n     */\\n    function toInt216(int256 value) internal pure returns (int216 downcasted) {\\n        downcasted = int216(value);\\n        if (downcasted != value) {\\n            revert SafeCastOverflowedIntDowncast(216, value);\\n        }\\n    }\\n\\n    /**\\n     * @dev Returns the downcasted int208 from int256, reverting on\\n     * overflow (when the input is less than smallest int208 or\\n     * greater than largest int208).\\n     *\\n     * Counterpart to Solidity's `int208` operator.\\n     *\\n     * Requirements:\\n     *\\n     * - input must fit into 208 bits\\n     */\\n    function toInt208(int256 value) internal pure returns (int208 downcasted) {\\n        downcasted = int208(value);\\n        if (downcasted != value) {\\n            revert SafeCastOverflowedIntDowncast(208, value);\\n        }\\n    }\\n\\n    /**\\n     * @dev Returns the downcasted int200 from int256, reverting on\\n     * overflow (when the input is less than smallest int200 or\\n     * greater than largest int200).\\n     *\\n     * Counterpart to Solidity's `int200` operator.\\n     *\\n     * Requirements:\\n     *\\n     * - input must fit into 200 bits\\n     */\\n    function toInt200(int256 value) internal pure returns (int200 downcasted) {\\n        downcasted = int200(value);\\n        if (downcasted != value) {\\n            revert SafeCastOverflowedIntDowncast(200, value);\\n        }\\n    }\\n\\n    /**\\n     * @dev Returns the downcasted int192 from int256, reverting on\\n     * overflow (when the input is less than smallest int192 or\\n     * greater than largest int192).\\n     *\\n     * Counterpart to Solidity's `int192` operator.\\n     *\\n     * Requirements:\\n     *\\n     * - input must fit into 192 bits\\n     */\\n    function toInt192(int256 value) internal pure returns (int192 downcasted) {\\n        downcasted = int192(value);\\n        if (downcasted != value) {\\n            revert SafeCastOverflowedIntDowncast(192, value);\\n        }\\n    }\\n\\n    /**\\n     * @dev Returns the downcasted int184 from int256, reverting on\\n     * overflow (when the input is less than smallest int184 or\\n     * greater than largest int184).\\n     *\\n     * Counterpart to Solidity's `int184` operator.\\n     *\\n     * Requirements:\\n     *\\n     * - input must fit into 184 bits\\n     */\\n    function toInt184(int256 value) internal pure returns (int184 downcasted) {\\n        downcasted = int184(value);\\n        if (downcasted != value) {\\n            revert SafeCastOverflowedIntDowncast(184, value);\\n        }\\n    }\\n\\n    /**\\n     * @dev Returns the downcasted int176 from int256, reverting on\\n     * overflow (when the input is less than smallest int176 or\\n     * greater than largest int176).\\n     *\\n     * Counterpart to Solidity's `int176` operator.\\n     *\\n     * Requirements:\\n     *\\n     * - input must fit into 176 bits\\n     */\\n    function toInt176(int256 value) internal pure returns (int176 downcasted) {\\n        downcasted = int176(value);\\n        if (downcasted != value) {\\n            revert SafeCastOverflowedIntDowncast(176, value);\\n        }\\n    }\\n\\n    /**\\n     * @dev Returns the downcasted int168 from int256, reverting on\\n     * overflow (when the input is less than smallest int168 or\\n     * greater than largest int168).\\n     *\\n     * Counterpart to Solidity's `int168` operator.\\n     *\\n     * Requirements:\\n     *\\n     * - input must fit into 168 bits\\n     */\\n    function toInt168(int256 value) internal pure returns (int168 downcasted) {\\n        downcasted = int168(value);\\n        if (downcasted != value) {\\n            revert SafeCastOverflowedIntDowncast(168, value);\\n        }\\n    }\\n\\n    /**\\n     * @dev Returns the downcasted int160 from int256, reverting on\\n     * overflow (when the input is less than smallest int160 or\\n     * greater than largest int160).\\n     *\\n     * Counterpart to Solidity's `int160` operator.\\n     *\\n     * Requirements:\\n     *\\n     * - input must fit into 160 bits\\n     */\\n    function toInt160(int256 value) internal pure returns (int160 downcasted) {\\n        downcasted = int160(value);\\n        if (downcasted != value) {\\n            revert SafeCastOverflowedIntDowncast(160, value);\\n        }\\n    }\\n\\n    /**\\n     * @dev Returns the downcasted int152 from int256, reverting on\\n     * overflow (when the input is less than smallest int152 or\\n     * greater than largest int152).\\n     *\\n     * Counterpart to Solidity's `int152` operator.\\n     *\\n     * Requirements:\\n     *\\n     * - input must fit into 152 bits\\n     */\\n    function toInt152(int256 value) internal pure returns (int152 downcasted) {\\n        downcasted = int152(value);\\n        if (downcasted != value) {\\n            revert SafeCastOverflowedIntDowncast(152, value);\\n        }\\n    }\\n\\n    /**\\n     * @dev Returns the downcasted int144 from int256, reverting on\\n     * overflow (when the input is less than smallest int144 or\\n     * greater than largest int144).\\n     *\\n     * Counterpart to Solidity's `int144` operator.\\n     *\\n     * Requirements:\\n     *\\n     * - input must fit into 144 bits\\n     */\\n    function toInt144(int256 value) internal pure returns (int144 downcasted) {\\n        downcasted = int144(value);\\n        if (downcasted != value) {\\n            revert SafeCastOverflowedIntDowncast(144, value);\\n        }\\n    }\\n\\n    /**\\n     * @dev Returns the downcasted int136 from int256, reverting on\\n     * overflow (when the input is less than smallest int136 or\\n     * greater than largest int136).\\n     *\\n     * Counterpart to Solidity's `int136` operator.\\n     *\\n     * Requirements:\\n     *\\n     * - input must fit into 136 bits\\n     */\\n    function toInt136(int256 value) internal pure returns (int136 downcasted) {\\n        downcasted = int136(value);\\n        if (downcasted != value) {\\n            revert SafeCastOverflowedIntDowncast(136, value);\\n        }\\n    }\\n\\n    /**\\n     * @dev Returns the downcasted int128 from int256, reverting on\\n     * overflow (when the input is less than smallest int128 or\\n     * greater than largest int128).\\n     *\\n     * Counterpart to Solidity's `int128` operator.\\n     *\\n     * Requirements:\\n     *\\n     * - input must fit into 128 bits\\n     */\\n    function toInt128(int256 value) internal pure returns (int128 downcasted) {\\n        downcasted = int128(value);\\n        if (downcasted != value) {\\n            revert SafeCastOverflowedIntDowncast(128, value);\\n        }\\n    }\\n\\n    /**\\n     * @dev Returns the downcasted int120 from int256, reverting on\\n     * overflow (when the input is less than smallest int120 or\\n     * greater than largest int120).\\n     *\\n     * Counterpart to Solidity's `int120` operator.\\n     *\\n     * Requirements:\\n     *\\n     * - input must fit into 120 bits\\n     */\\n    function toInt120(int256 value) internal pure returns (int120 downcasted) {\\n        downcasted = int120(value);\\n        if (downcasted != value) {\\n            revert SafeCastOverflowedIntDowncast(120, value);\\n        }\\n    }\\n\\n    /**\\n     * @dev Returns the downcasted int112 from int256, reverting on\\n     * overflow (when the input is less than smallest int112 or\\n     * greater than largest int112).\\n     *\\n     * Counterpart to Solidity's `int112` operator.\\n     *\\n     * Requirements:\\n     *\\n     * - input must fit into 112 bits\\n     */\\n    function toInt112(int256 value) internal pure returns (int112 downcasted) {\\n        downcasted = int112(value);\\n        if (downcasted != value) {\\n            revert SafeCastOverflowedIntDowncast(112, value);\\n        }\\n    }\\n\\n    /**\\n     * @dev Returns the downcasted int104 from int256, reverting on\\n     * overflow (when the input is less than smallest int104 or\\n     * greater than largest int104).\\n     *\\n     * Counterpart to Solidity's `int104` operator.\\n     *\\n     * Requirements:\\n     *\\n     * - input must fit into 104 bits\\n     */\\n    function toInt104(int256 value) internal pure returns (int104 downcasted) {\\n        downcasted = int104(value);\\n        if (downcasted != value) {\\n            revert SafeCastOverflowedIntDowncast(104, value);\\n        }\\n    }\\n\\n    /**\\n     * @dev Returns the downcasted int96 from int256, reverting on\\n     * overflow (when the input is less than smallest int96 or\\n     * greater than largest int96).\\n     *\\n     * Counterpart to Solidity's `int96` operator.\\n     *\\n     * Requirements:\\n     *\\n     * - input must fit into 96 bits\\n     */\\n    function toInt96(int256 value) internal pure returns (int96 downcasted) {\\n        downcasted = int96(value);\\n        if (downcasted != value) {\\n            revert SafeCastOverflowedIntDowncast(96, value);\\n        }\\n    }\\n\\n    /**\\n     * @dev Returns the downcasted int88 from int256, reverting on\\n     * overflow (when the input is less than smallest int88 or\\n     * greater than largest int88).\\n     *\\n     * Counterpart to Solidity's `int88` operator.\\n     *\\n     * Requirements:\\n     *\\n     * - input must fit into 88 bits\\n     */\\n    function toInt88(int256 value) internal pure returns (int88 downcasted) {\\n        downcasted = int88(value);\\n        if (downcasted != value) {\\n            revert SafeCastOverflowedIntDowncast(88, value);\\n        }\\n    }\\n\\n    /**\\n     * @dev Returns the downcasted int80 from int256, reverting on\\n     * overflow (when the input is less than smallest int80 or\\n     * greater than largest int80).\\n     *\\n     * Counterpart to Solidity's `int80` operator.\\n     *\\n     * Requirements:\\n     *\\n     * - input must fit into 80 bits\\n     */\\n    function toInt80(int256 value) internal pure returns (int80 downcasted) {\\n        downcasted = int80(value);\\n        if (downcasted != value) {\\n            revert SafeCastOverflowedIntDowncast(80, value);\\n        }\\n    }\\n\\n    /**\\n     * @dev Returns the downcasted int72 from int256, reverting on\\n     * overflow (when the input is less than smallest int72 or\\n     * greater than largest int72).\\n     *\\n     * Counterpart to Solidity's `int72` operator.\\n     *\\n     * Requirements:\\n     *\\n     * - input must fit into 72 bits\\n     */\\n    function toInt72(int256 value) internal pure returns (int72 downcasted) {\\n        downcasted = int72(value);\\n        if (downcasted != value) {\\n            revert SafeCastOverflowedIntDowncast(72, value);\\n        }\\n    }\\n\\n    /**\\n     * @dev Returns the downcasted int64 from int256, reverting on\\n     * overflow (when the input is less than smallest int64 or\\n     * greater than largest int64).\\n     *\\n     * Counterpart to Solidity's `int64` operator.\\n     *\\n     * Requirements:\\n     *\\n     * - input must fit into 64 bits\\n     */\\n    function toInt64(int256 value) internal pure returns (int64 downcasted) {\\n        downcasted = int64(value);\\n        if (downcasted != value) {\\n            revert SafeCastOverflowedIntDowncast(64, value);\\n        }\\n    }\\n\\n    /**\\n     * @dev Returns the downcasted int56 from int256, reverting on\\n     * overflow (when the input is less than smallest int56 or\\n     * greater than largest int56).\\n     *\\n     * Counterpart to Solidity's `int56` operator.\\n     *\\n     * Requirements:\\n     *\\n     * - input must fit into 56 bits\\n     */\\n    function toInt56(int256 value) internal pure returns (int56 downcasted) {\\n        downcasted = int56(value);\\n        if (downcasted != value) {\\n            revert SafeCastOverflowedIntDowncast(56, value);\\n        }\\n    }\\n\\n    /**\\n     * @dev Returns the downcasted int48 from int256, reverting on\\n     * overflow (when the input is less than smallest int48 or\\n     * greater than largest int48).\\n     *\\n     * Counterpart to Solidity's `int48` operator.\\n     *\\n     * Requirements:\\n     *\\n     * - input must fit into 48 bits\\n     */\\n    function toInt48(int256 value) internal pure returns (int48 downcasted) {\\n        downcasted = int48(value);\\n        if (downcasted != value) {\\n            revert SafeCastOverflowedIntDowncast(48, value);\\n        }\\n    }\\n\\n    /**\\n     * @dev Returns the downcasted int40 from int256, reverting on\\n     * overflow (when the input is less than smallest int40 or\\n     * greater than largest int40).\\n     *\\n     * Counterpart to Solidity's `int40` operator.\\n     *\\n     * Requirements:\\n     *\\n     * - input must fit into 40 bits\\n     */\\n    function toInt40(int256 value) internal pure returns (int40 downcasted) {\\n        downcasted = int40(value);\\n        if (downcasted != value) {\\n            revert SafeCastOverflowedIntDowncast(40, value);\\n        }\\n    }\\n\\n    /**\\n     * @dev Returns the downcasted int32 from int256, reverting on\\n     * overflow (when the input is less than smallest int32 or\\n     * greater than largest int32).\\n     *\\n     * Counterpart to Solidity's `int32` operator.\\n     *\\n     * Requirements:\\n     *\\n     * - input must fit into 32 bits\\n     */\\n    function toInt32(int256 value) internal pure returns (int32 downcasted) {\\n        downcasted = int32(value);\\n        if (downcasted != value) {\\n            revert SafeCastOverflowedIntDowncast(32, value);\\n        }\\n    }\\n\\n    /**\\n     * @dev Returns the downcasted int24 from int256, reverting on\\n     * overflow (when the input is less than smallest int24 or\\n     * greater than largest int24).\\n     *\\n     * Counterpart to Solidity's `int24` operator.\\n     *\\n     * Requirements:\\n     *\\n     * - input must fit into 24 bits\\n     */\\n    function toInt24(int256 value) internal pure returns (int24 downcasted) {\\n        downcasted = int24(value);\\n        if (downcasted != value) {\\n            revert SafeCastOverflowedIntDowncast(24, value);\\n        }\\n    }\\n\\n    /**\\n     * @dev Returns the downcasted int16 from int256, reverting on\\n     * overflow (when the input is less than smallest int16 or\\n     * greater than largest int16).\\n     *\\n     * Counterpart to Solidity's `int16` operator.\\n     *\\n     * Requirements:\\n     *\\n     * - input must fit into 16 bits\\n     */\\n    function toInt16(int256 value) internal pure returns (int16 downcasted) {\\n        downcasted = int16(value);\\n        if (downcasted != value) {\\n            revert SafeCastOverflowedIntDowncast(16, value);\\n        }\\n    }\\n\\n    /**\\n     * @dev Returns the downcasted int8 from int256, reverting on\\n     * overflow (when the input is less than smallest int8 or\\n     * greater than largest int8).\\n     *\\n     * Counterpart to Solidity's `int8` operator.\\n     *\\n     * Requirements:\\n     *\\n     * - input must fit into 8 bits\\n     */\\n    function toInt8(int256 value) internal pure returns (int8 downcasted) {\\n        downcasted = int8(value);\\n        if (downcasted != value) {\\n            revert SafeCastOverflowedIntDowncast(8, value);\\n        }\\n    }\\n\\n    /**\\n     * @dev Converts an unsigned uint256 into a signed int256.\\n     *\\n     * Requirements:\\n     *\\n     * - input must be less than or equal to maxInt256.\\n     */\\n    function toInt256(uint256 value) internal pure returns (int256) {\\n        // Note: Unsafe cast below is okay because `type(int256).max` is guaranteed to be positive\\n        if (value > uint256(type(int256).max)) {\\n            revert SafeCastOverflowedUintToInt(value);\\n        }\\n        return int256(value);\\n    }\\n\\n    /**\\n     * @dev Cast a boolean (false or true) to a uint256 (0 or 1) with no jump.\\n     */\\n    function toUint(bool b) internal pure returns (uint256 u) {\\n        assembly (\\\"memory-safe\\\") {\\n            u := iszero(iszero(b))\\n        }\\n    }\\n}\\n\"},\"@openzeppelin/contracts/utils/math/Math.sol\":{\"content\":\"// SPDX-License-Identifier: MIT\\n// OpenZeppelin Contracts (last updated v5.3.0) (utils/math/Math.sol)\\n\\npragma solidity ^0.8.20;\\n\\nimport {Panic} from \\\"../Panic.sol\\\";\\nimport {SafeCast} from \\\"./SafeCast.sol\\\";\\n\\n/**\\n * @dev Standard math utilities missing in the Solidity language.\\n */\\nlibrary Math {\\n    enum Rounding {\\n        Floor, // Toward negative infinity\\n        Ceil, // Toward positive infinity\\n        Trunc, // Toward zero\\n        Expand // Away from zero\\n    }\\n\\n    /**\\n     * @dev Return the 512-bit addition of two uint256.\\n     *\\n     * The result is stored in two 256 variables such that sum = high * 2²⁵⁶ + low.\\n     */\\n    function add512(uint256 a, uint256 b) internal pure returns (uint256 high, uint256 low) {\\n        assembly (\\\"memory-safe\\\") {\\n            low := add(a, b)\\n            high := lt(low, a)\\n        }\\n    }\\n\\n    /**\\n     * @dev Return the 512-bit multiplication of two uint256.\\n     *\\n     * The result is stored in two 256 variables such that product = high * 2²⁵⁶ + low.\\n     */\\n    function mul512(uint256 a, uint256 b) internal pure returns (uint256 high, uint256 low) {\\n        // 512-bit multiply [high low] = x * y. Compute the product mod 2²⁵⁶ and mod 2²⁵⁶ - 1, then use\\n        // the Chinese Remainder Theorem to reconstruct the 512 bit result. The result is stored in two 256\\n        // variables such that product = high * 2²⁵⁶ + low.\\n        assembly (\\\"memory-safe\\\") {\\n            let mm := mulmod(a, b, not(0))\\n            low := mul(a, b)\\n            high := sub(sub(mm, low), lt(mm, low))\\n        }\\n    }\\n\\n    /**\\n     * @dev Returns the addition of two unsigned integers, with a success flag (no overflow).\\n     */\\n    function tryAdd(uint256 a, uint256 b) internal pure returns (bool success, uint256 result) {\\n        unchecked {\\n            uint256 c = a + b;\\n            success = c >= a;\\n            result = c * SafeCast.toUint(success);\\n        }\\n    }\\n\\n    /**\\n     * @dev Returns the subtraction of two unsigned integers, with a success flag (no overflow).\\n     */\\n    function trySub(uint256 a, uint256 b) internal pure returns (bool success, uint256 result) {\\n        unchecked {\\n            uint256 c = a - b;\\n            success = c <= a;\\n            result = c * SafeCast.toUint(success);\\n        }\\n    }\\n\\n    /**\\n     * @dev Returns the multiplication of two unsigned integers, with a success flag (no overflow).\\n     */\\n    function tryMul(uint256 a, uint256 b) internal pure returns (bool success, uint256 result) {\\n        unchecked {\\n            uint256 c = a * b;\\n            assembly (\\\"memory-safe\\\") {\\n                // Only true when the multiplication doesn't overflow\\n                // (c / a == b) || (a == 0)\\n                success := or(eq(div(c, a), b), iszero(a))\\n            }\\n            // equivalent to: success ? c : 0\\n            result = c * SafeCast.toUint(success);\\n        }\\n    }\\n\\n    /**\\n     * @dev Returns the division of two unsigned integers, with a success flag (no division by zero).\\n     */\\n    function tryDiv(uint256 a, uint256 b) internal pure returns (bool success, uint256 result) {\\n        unchecked {\\n            success = b > 0;\\n            assembly (\\\"memory-safe\\\") {\\n                // The `DIV` opcode returns zero when the denominator is 0.\\n                result := div(a, b)\\n            }\\n        }\\n    }\\n\\n    /**\\n     * @dev Returns the remainder of dividing two unsigned integers, with a success flag (no division by zero).\\n     */\\n    function tryMod(uint256 a, uint256 b) internal pure returns (bool success, uint256 result) {\\n        unchecked {\\n            success = b > 0;\\n            assembly (\\\"memory-safe\\\") {\\n                // The `MOD` opcode returns zero when the denominator is 0.\\n                result := mod(a, b)\\n            }\\n        }\\n    }\\n\\n    /**\\n     * @dev Unsigned saturating addition, bounds to `2²⁵⁶ - 1` instead of overflowing.\\n     */\\n    function saturatingAdd(uint256 a, uint256 b) internal pure returns (uint256) {\\n        (bool success, uint256 result) = tryAdd(a, b);\\n        return ternary(success, result, type(uint256).max);\\n    }\\n\\n    /**\\n     * @dev Unsigned saturating subtraction, bounds to zero instead of overflowing.\\n     */\\n    function saturatingSub(uint256 a, uint256 b) internal pure returns (uint256) {\\n        (, uint256 result) = trySub(a, b);\\n        return result;\\n    }\\n\\n    /**\\n     * @dev Unsigned saturating multiplication, bounds to `2²⁵⁶ - 1` instead of overflowing.\\n     */\\n    function saturatingMul(uint256 a, uint256 b) internal pure returns (uint256) {\\n        (bool success, uint256 result) = tryMul(a, b);\\n        return ternary(success, result, type(uint256).max);\\n    }\\n\\n    /**\\n     * @dev Branchless ternary evaluation for `a ? b : c`. Gas costs are constant.\\n     *\\n     * IMPORTANT: This function may reduce bytecode size and consume less gas when used standalone.\\n     * However, the compiler may optimize Solidity ternary operations (i.e. `a ? b : c`) to only compute\\n     * one branch when needed, making this function more expensive.\\n     */\\n    function ternary(bool condition, uint256 a, uint256 b) internal pure returns (uint256) {\\n        unchecked {\\n            // branchless ternary works because:\\n            // b ^ (a ^ b) == a\\n            // b ^ 0 == b\\n            return b ^ ((a ^ b) * SafeCast.toUint(condition));\\n        }\\n    }\\n\\n    /**\\n     * @dev Returns the largest of two numbers.\\n     */\\n    function max(uint256 a, uint256 b) internal pure returns (uint256) {\\n        return ternary(a > b, a, b);\\n    }\\n\\n    /**\\n     * @dev Returns the smallest of two numbers.\\n     */\\n    function min(uint256 a, uint256 b) internal pure returns (uint256) {\\n        return ternary(a < b, a, b);\\n    }\\n\\n    /**\\n     * @dev Returns the average of two numbers. The result is rounded towards\\n     * zero.\\n     */\\n    function average(uint256 a, uint256 b) internal pure returns (uint256) {\\n        // (a + b) / 2 can overflow.\\n        return (a & b) + (a ^ b) / 2;\\n    }\\n\\n    /**\\n     * @dev Returns the ceiling of the division of two numbers.\\n     *\\n     * This differs from standard division with `/` in that it rounds towards infinity instead\\n     * of rounding towards zero.\\n     */\\n    function ceilDiv(uint256 a, uint256 b) internal pure returns (uint256) {\\n        if (b == 0) {\\n            // Guarantee the same behavior as in a regular Solidity division.\\n            Panic.panic(Panic.DIVISION_BY_ZERO);\\n        }\\n\\n        // The following calculation ensures accurate ceiling division without overflow.\\n        // Since a is non-zero, (a - 1) / b will not overflow.\\n        // The largest possible result occurs when (a - 1) / b is type(uint256).max,\\n        // but the largest value we can obtain is type(uint256).max - 1, which happens\\n        // when a = type(uint256).max and b = 1.\\n        unchecked {\\n            return SafeCast.toUint(a > 0) * ((a - 1) / b + 1);\\n        }\\n    }\\n\\n    /**\\n     * @dev Calculates floor(x * y / denominator) with full precision. Throws if result overflows a uint256 or\\n     * denominator == 0.\\n     *\\n     * Original credit to Remco Bloemen under MIT license (https://xn--2-umb.com/21/muldiv) with further edits by\\n     * Uniswap Labs also under MIT license.\\n     */\\n    function mulDiv(uint256 x, uint256 y, uint256 denominator) internal pure returns (uint256 result) {\\n        unchecked {\\n            (uint256 high, uint256 low) = mul512(x, y);\\n\\n            // Handle non-overflow cases, 256 by 256 division.\\n            if (high == 0) {\\n                // Solidity will revert if denominator == 0, unlike the div opcode on its own.\\n                // The surrounding unchecked block does not change this fact.\\n                // See https://docs.soliditylang.org/en/latest/control-structures.html#checked-or-unchecked-arithmetic.\\n                return low / denominator;\\n            }\\n\\n            // Make sure the result is less than 2²⁵⁶. Also prevents denominator == 0.\\n            if (denominator <= high) {\\n                Panic.panic(ternary(denominator == 0, Panic.DIVISION_BY_ZERO, Panic.UNDER_OVERFLOW));\\n            }\\n\\n            ///////////////////////////////////////////////\\n            // 512 by 256 division.\\n            ///////////////////////////////////////////////\\n\\n            // Make division exact by subtracting the remainder from [high low].\\n            uint256 remainder;\\n            assembly (\\\"memory-safe\\\") {\\n                // Compute remainder using mulmod.\\n                remainder := mulmod(x, y, denominator)\\n\\n                // Subtract 256 bit number from 512 bit number.\\n                high := sub(high, gt(remainder, low))\\n                low := sub(low, remainder)\\n            }\\n\\n            // Factor powers of two out of denominator and compute largest power of two divisor of denominator.\\n            // Always >= 1. See https://cs.stackexchange.com/q/138556/92363.\\n\\n            uint256 twos = denominator & (0 - denominator);\\n            assembly (\\\"memory-safe\\\") {\\n                // Divide denominator by twos.\\n                denominator := div(denominator, twos)\\n\\n                // Divide [high low] by twos.\\n                low := div(low, twos)\\n\\n                // Flip twos such that it is 2²⁵⁶ / twos. If twos is zero, then it becomes one.\\n                twos := add(div(sub(0, twos), twos), 1)\\n            }\\n\\n            // Shift in bits from high into low.\\n            low |= high * twos;\\n\\n            // Invert denominator mod 2²⁵⁶. Now that denominator is an odd number, it has an inverse modulo 2²⁵⁶ such\\n            // that denominator * inv ≡ 1 mod 2²⁵⁶. Compute the inverse by starting with a seed that is correct for\\n            // four bits. That is, denominator * inv ≡ 1 mod 2⁴.\\n            uint256 inverse = (3 * denominator) ^ 2;\\n\\n            // Use the Newton-Raphson iteration to improve the precision. Thanks to Hensel's lifting lemma, this also\\n            // works in modular arithmetic, doubling the correct bits in each step.\\n            inverse *= 2 - denominator * inverse; // inverse mod 2⁸\\n            inverse *= 2 - denominator * inverse; // inverse mod 2¹⁶\\n            inverse *= 2 - denominator * inverse; // inverse mod 2³²\\n            inverse *= 2 - denominator * inverse; // inverse mod 2⁶⁴\\n            inverse *= 2 - denominator * inverse; // inverse mod 2¹²⁸\\n            inverse *= 2 - denominator * inverse; // inverse mod 2²⁵⁶\\n\\n            // Because the division is now exact we can divide by multiplying with the modular inverse of denominator.\\n            // This will give us the correct result modulo 2²⁵⁶. Since the preconditions guarantee that the outcome is\\n            // less than 2²⁵⁶, this is the final result. We don't need to compute the high bits of the result and high\\n            // is no longer required.\\n            result = low * inverse;\\n            return result;\\n        }\\n    }\\n\\n    /**\\n     * @dev Calculates x * y / denominator with full precision, following the selected rounding direction.\\n     */\\n    function mulDiv(uint256 x, uint256 y, uint256 denominator, Rounding rounding) internal pure returns (uint256) {\\n        return mulDiv(x, y, denominator) + SafeCast.toUint(unsignedRoundsUp(rounding) && mulmod(x, y, denominator) > 0);\\n    }\\n\\n    /**\\n     * @dev Calculates floor(x * y >> n) with full precision. Throws if result overflows a uint256.\\n     */\\n    function mulShr(uint256 x, uint256 y, uint8 n) internal pure returns (uint256 result) {\\n        unchecked {\\n            (uint256 high, uint256 low) = mul512(x, y);\\n            if (high >= 1 << n) {\\n                Panic.panic(Panic.UNDER_OVERFLOW);\\n            }\\n            return (high << (256 - n)) | (low >> n);\\n        }\\n    }\\n\\n    /**\\n     * @dev Calculates x * y >> n with full precision, following the selected rounding direction.\\n     */\\n    function mulShr(uint256 x, uint256 y, uint8 n, Rounding rounding) internal pure returns (uint256) {\\n        return mulShr(x, y, n) + SafeCast.toUint(unsignedRoundsUp(rounding) && mulmod(x, y, 1 << n) > 0);\\n    }\\n\\n    /**\\n     * @dev Calculate the modular multiplicative inverse of a number in Z/nZ.\\n     *\\n     * If n is a prime, then Z/nZ is a field. In that case all elements are inversible, except 0.\\n     * If n is not a prime, then Z/nZ is not a field, and some elements might not be inversible.\\n     *\\n     * If the input value is not inversible, 0 is returned.\\n     *\\n     * NOTE: If you know for sure that n is (big) a prime, it may be cheaper to use Fermat's little theorem and get the\\n     * inverse using `Math.modExp(a, n - 2, n)`. See {invModPrime}.\\n     */\\n    function invMod(uint256 a, uint256 n) internal pure returns (uint256) {\\n        unchecked {\\n            if (n == 0) return 0;\\n\\n            // The inverse modulo is calculated using the Extended Euclidean Algorithm (iterative version)\\n            // Used to compute integers x and y such that: ax + ny = gcd(a, n).\\n            // When the gcd is 1, then the inverse of a modulo n exists and it's x.\\n            // ax + ny = 1\\n            // ax = 1 + (-y)n\\n            // ax ≡ 1 (mod n) # x is the inverse of a modulo n\\n\\n            // If the remainder is 0 the gcd is n right away.\\n            uint256 remainder = a % n;\\n            uint256 gcd = n;\\n\\n            // Therefore the initial coefficients are:\\n            // ax + ny = gcd(a, n) = n\\n            // 0a + 1n = n\\n            int256 x = 0;\\n            int256 y = 1;\\n\\n            while (remainder != 0) {\\n                uint256 quotient = gcd / remainder;\\n\\n                (gcd, remainder) = (\\n                    // The old remainder is the next gcd to try.\\n                    remainder,\\n                    // Compute the next remainder.\\n                    // Can't overflow given that (a % gcd) * (gcd // (a % gcd)) <= gcd\\n                    // where gcd is at most n (capped to type(uint256).max)\\n                    gcd - remainder * quotient\\n                );\\n\\n                (x, y) = (\\n                    // Increment the coefficient of a.\\n                    y,\\n                    // Decrement the coefficient of n.\\n                    // Can overflow, but the result is casted to uint256 so that the\\n                    // next value of y is \\\"wrapped around\\\" to a value between 0 and n - 1.\\n                    x - y * int256(quotient)\\n                );\\n            }\\n\\n            if (gcd != 1) return 0; // No inverse exists.\\n            return ternary(x < 0, n - uint256(-x), uint256(x)); // Wrap the result if it's negative.\\n        }\\n    }\\n\\n    /**\\n     * @dev Variant of {invMod}. More efficient, but only works if `p` is known to be a prime greater than `2`.\\n     *\\n     * From https://en.wikipedia.org/wiki/Fermat%27s_little_theorem[Fermat's little theorem], we know that if p is\\n     * prime, then `a**(p-1) ≡ 1 mod p`. As a consequence, we have `a * a**(p-2) ≡ 1 mod p`, which means that\\n     * `a**(p-2)` is the modular multiplicative inverse of a in Fp.\\n     *\\n     * NOTE: this function does NOT check that `p` is a prime greater than `2`.\\n     */\\n    function invModPrime(uint256 a, uint256 p) internal view returns (uint256) {\\n        unchecked {\\n            return Math.modExp(a, p - 2, p);\\n        }\\n    }\\n\\n    /**\\n     * @dev Returns the modular exponentiation of the specified base, exponent and modulus (b ** e % m)\\n     *\\n     * Requirements:\\n     * - modulus can't be zero\\n     * - underlying staticcall to precompile must succeed\\n     *\\n     * IMPORTANT: The result is only valid if the underlying call succeeds. When using this function, make\\n     * sure the chain you're using it on supports the precompiled contract for modular exponentiation\\n     * at address 0x05 as specified in https://eips.ethereum.org/EIPS/eip-198[EIP-198]. Otherwise,\\n     * the underlying function will succeed given the lack of a revert, but the result may be incorrectly\\n     * interpreted as 0.\\n     */\\n    function modExp(uint256 b, uint256 e, uint256 m) internal view returns (uint256) {\\n        (bool success, uint256 result) = tryModExp(b, e, m);\\n        if (!success) {\\n            Panic.panic(Panic.DIVISION_BY_ZERO);\\n        }\\n        return result;\\n    }\\n\\n    /**\\n     * @dev Returns the modular exponentiation of the specified base, exponent and modulus (b ** e % m).\\n     * It includes a success flag indicating if the operation succeeded. Operation will be marked as failed if trying\\n     * to operate modulo 0 or if the underlying precompile reverted.\\n     *\\n     * IMPORTANT: The result is only valid if the success flag is true. When using this function, make sure the chain\\n     * you're using it on supports the precompiled contract for modular exponentiation at address 0x05 as specified in\\n     * https://eips.ethereum.org/EIPS/eip-198[EIP-198]. Otherwise, the underlying function will succeed given the lack\\n     * of a revert, but the result may be incorrectly interpreted as 0.\\n     */\\n    function tryModExp(uint256 b, uint256 e, uint256 m) internal view returns (bool success, uint256 result) {\\n        if (m == 0) return (false, 0);\\n        assembly (\\\"memory-safe\\\") {\\n            let ptr := mload(0x40)\\n            // | Offset    | Content    | Content (Hex)                                                      |\\n            // |-----------|------------|--------------------------------------------------------------------|\\n            // | 0x00:0x1f | size of b  | 0x0000000000000000000000000000000000000000000000000000000000000020 |\\n            // | 0x20:0x3f | size of e  | 0x0000000000000000000000000000000000000000000000000000000000000020 |\\n            // | 0x40:0x5f | size of m  | 0x0000000000000000000000000000000000000000000000000000000000000020 |\\n            // | 0x60:0x7f | value of b | 0x<.............................................................b> |\\n            // | 0x80:0x9f | value of e | 0x<.............................................................e> |\\n            // | 0xa0:0xbf | value of m | 0x<.............................................................m> |\\n            mstore(ptr, 0x20)\\n            mstore(add(ptr, 0x20), 0x20)\\n            mstore(add(ptr, 0x40), 0x20)\\n            mstore(add(ptr, 0x60), b)\\n            mstore(add(ptr, 0x80), e)\\n            mstore(add(ptr, 0xa0), m)\\n\\n            // Given the result < m, it's guaranteed to fit in 32 bytes,\\n            // so we can use the memory scratch space located at offset 0.\\n            success := staticcall(gas(), 0x05, ptr, 0xc0, 0x00, 0x20)\\n            result := mload(0x00)\\n        }\\n    }\\n\\n    /**\\n     * @dev Variant of {modExp} that supports inputs of arbitrary length.\\n     */\\n    function modExp(bytes memory b, bytes memory e, bytes memory m) internal view returns (bytes memory) {\\n        (bool success, bytes memory result) = tryModExp(b, e, m);\\n        if (!success) {\\n            Panic.panic(Panic.DIVISION_BY_ZERO);\\n        }\\n        return result;\\n    }\\n\\n    /**\\n     * @dev Variant of {tryModExp} that supports inputs of arbitrary length.\\n     */\\n    function tryModExp(\\n        bytes memory b,\\n        bytes memory e,\\n        bytes memory m\\n    ) internal view returns (bool success, bytes memory result) {\\n        if (_zeroBytes(m)) return (false, new bytes(0));\\n\\n        uint256 mLen = m.length;\\n\\n        // Encode call args in result and move the free memory pointer\\n        result = abi.encodePacked(b.length, e.length, mLen, b, e, m);\\n\\n        assembly (\\\"memory-safe\\\") {\\n            let dataPtr := add(result, 0x20)\\n            // Write result on top of args to avoid allocating extra memory.\\n            success := staticcall(gas(), 0x05, dataPtr, mload(result), dataPtr, mLen)\\n            // Overwrite the length.\\n            // result.length > returndatasize() is guaranteed because returndatasize() == m.length\\n            mstore(result, mLen)\\n            // Set the memory pointer after the returned data.\\n            mstore(0x40, add(dataPtr, mLen))\\n        }\\n    }\\n\\n    /**\\n     * @dev Returns whether the provided byte array is zero.\\n     */\\n    function _zeroBytes(bytes memory byteArray) private pure returns (bool) {\\n        for (uint256 i = 0; i < byteArray.length; ++i) {\\n            if (byteArray[i] != 0) {\\n                return false;\\n            }\\n        }\\n        return true;\\n    }\\n\\n    /**\\n     * @dev Returns the square root of a number. If the number is not a perfect square, the value is rounded\\n     * towards zero.\\n     *\\n     * This method is based on Newton's method for computing square roots; the algorithm is restricted to only\\n     * using integer operations.\\n     */\\n    function sqrt(uint256 a) internal pure returns (uint256) {\\n        unchecked {\\n            // Take care of easy edge cases when a == 0 or a == 1\\n            if (a <= 1) {\\n                return a;\\n            }\\n\\n            // In this function, we use Newton's method to get a root of `f(x) := x² - a`. It involves building a\\n            // sequence x_n that converges toward sqrt(a). For each iteration x_n, we also define the error between\\n            // the current value as `ε_n = | x_n - sqrt(a) |`.\\n            //\\n            // For our first estimation, we consider `e` the smallest power of 2 which is bigger than the square root\\n            // of the target. (i.e. `2**(e-1) ≤ sqrt(a) < 2**e`). We know that `e ≤ 128` because `(2¹²⁸)² = 2²⁵⁶` is\\n            // bigger than any uint256.\\n            //\\n            // By noticing that\\n            // `2**(e-1) ≤ sqrt(a) < 2**e → (2**(e-1))² ≤ a < (2**e)² → 2**(2*e-2) ≤ a < 2**(2*e)`\\n            // we can deduce that `e - 1` is `log2(a) / 2`. We can thus compute `x_n = 2**(e-1)` using a method similar\\n            // to the msb function.\\n            uint256 aa = a;\\n            uint256 xn = 1;\\n\\n            if (aa >= (1 << 128)) {\\n                aa >>= 128;\\n                xn <<= 64;\\n            }\\n            if (aa >= (1 << 64)) {\\n                aa >>= 64;\\n                xn <<= 32;\\n            }\\n            if (aa >= (1 << 32)) {\\n                aa >>= 32;\\n                xn <<= 16;\\n            }\\n            if (aa >= (1 << 16)) {\\n                aa >>= 16;\\n                xn <<= 8;\\n            }\\n            if (aa >= (1 << 8)) {\\n                aa >>= 8;\\n                xn <<= 4;\\n            }\\n            if (aa >= (1 << 4)) {\\n                aa >>= 4;\\n                xn <<= 2;\\n            }\\n            if (aa >= (1 << 2)) {\\n                xn <<= 1;\\n            }\\n\\n            // We now have x_n such that `x_n = 2**(e-1) ≤ sqrt(a) < 2**e = 2 * x_n`. This implies ε_n ≤ 2**(e-1).\\n            //\\n            // We can refine our estimation by noticing that the middle of that interval minimizes the error.\\n            // If we move x_n to equal 2**(e-1) + 2**(e-2), then we reduce the error to ε_n ≤ 2**(e-2).\\n            // This is going to be our x_0 (and ε_0)\\n            xn = (3 * xn) >> 1; // ε_0 := | x_0 - sqrt(a) | ≤ 2**(e-2)\\n\\n            // From here, Newton's method give us:\\n            // x_{n+1} = (x_n + a / x_n) / 2\\n            //\\n            // One should note that:\\n            // x_{n+1}² - a = ((x_n + a / x_n) / 2)² - a\\n            //              = ((x_n² + a) / (2 * x_n))² - a\\n            //              = (x_n⁴ + 2 * a * x_n² + a²) / (4 * x_n²) - a\\n            //              = (x_n⁴ + 2 * a * x_n² + a² - 4 * a * x_n²) / (4 * x_n²)\\n            //              = (x_n⁴ - 2 * a * x_n² + a²) / (4 * x_n²)\\n            //              = (x_n² - a)² / (2 * x_n)²\\n            //              = ((x_n² - a) / (2 * x_n))²\\n            //              ≥ 0\\n            // Which proves that for all n ≥ 1, sqrt(a) ≤ x_n\\n            //\\n            // This gives us the proof of quadratic convergence of the sequence:\\n            // ε_{n+1} = | x_{n+1} - sqrt(a) |\\n            //         = | (x_n + a / x_n) / 2 - sqrt(a) |\\n            //         = | (x_n² + a - 2*x_n*sqrt(a)) / (2 * x_n) |\\n            //         = | (x_n - sqrt(a))² / (2 * x_n) |\\n            //         = | ε_n² / (2 * x_n) |\\n            //         = ε_n² / | (2 * x_n) |\\n            //\\n            // For the first iteration, we have a special case where x_0 is known:\\n            // ε_1 = ε_0² / | (2 * x_0) |\\n            //     ≤ (2**(e-2))² / (2 * (2**(e-1) + 2**(e-2)))\\n            //     ≤ 2**(2*e-4) / (3 * 2**(e-1))\\n            //     ≤ 2**(e-3) / 3\\n            //     ≤ 2**(e-3-log2(3))\\n            //     ≤ 2**(e-4.5)\\n            //\\n            // For the following iterations, we use the fact that, 2**(e-1) ≤ sqrt(a) ≤ x_n:\\n            // ε_{n+1} = ε_n² / | (2 * x_n) |\\n            //         ≤ (2**(e-k))² / (2 * 2**(e-1))\\n            //         ≤ 2**(2*e-2*k) / 2**e\\n            //         ≤ 2**(e-2*k)\\n            xn = (xn + a / xn) >> 1; // ε_1 := | x_1 - sqrt(a) | ≤ 2**(e-4.5)  -- special case, see above\\n            xn = (xn + a / xn) >> 1; // ε_2 := | x_2 - sqrt(a) | ≤ 2**(e-9)    -- general case with k = 4.5\\n            xn = (xn + a / xn) >> 1; // ε_3 := | x_3 - sqrt(a) | ≤ 2**(e-18)   -- general case with k = 9\\n            xn = (xn + a / xn) >> 1; // ε_4 := | x_4 - sqrt(a) | ≤ 2**(e-36)   -- general case with k = 18\\n            xn = (xn + a / xn) >> 1; // ε_5 := | x_5 - sqrt(a) | ≤ 2**(e-72)   -- general case with k = 36\\n            xn = (xn + a / xn) >> 1; // ε_6 := | x_6 - sqrt(a) | ≤ 2**(e-144)  -- general case with k = 72\\n\\n            // Because e ≤ 128 (as discussed during the first estimation phase), we know have reached a precision\\n            // ε_6 ≤ 2**(e-144) < 1. Given we're operating on integers, then we can ensure that xn is now either\\n            // sqrt(a) or sqrt(a) + 1.\\n            return xn - SafeCast.toUint(xn > a / xn);\\n        }\\n    }\\n\\n    /**\\n     * @dev Calculates sqrt(a), following the selected rounding direction.\\n     */\\n    function sqrt(uint256 a, Rounding rounding) internal pure returns (uint256) {\\n        unchecked {\\n            uint256 result = sqrt(a);\\n            return result + SafeCast.toUint(unsignedRoundsUp(rounding) && result * result < a);\\n        }\\n    }\\n\\n    /**\\n     * @dev Return the log in base 2 of a positive value rounded towards zero.\\n     * Returns 0 if given 0.\\n     */\\n    function log2(uint256 x) internal pure returns (uint256 r) {\\n        // If value has upper 128 bits set, log2 result is at least 128\\n        r = SafeCast.toUint(x > 0xffffffffffffffffffffffffffffffff) << 7;\\n        // If upper 64 bits of 128-bit half set, add 64 to result\\n        r |= SafeCast.toUint((x >> r) > 0xffffffffffffffff) << 6;\\n        // If upper 32 bits of 64-bit half set, add 32 to result\\n        r |= SafeCast.toUint((x >> r) > 0xffffffff) << 5;\\n        // If upper 16 bits of 32-bit half set, add 16 to result\\n        r |= SafeCast.toUint((x >> r) > 0xffff) << 4;\\n        // If upper 8 bits of 16-bit half set, add 8 to result\\n        r |= SafeCast.toUint((x >> r) > 0xff) << 3;\\n        // If upper 4 bits of 8-bit half set, add 4 to result\\n        r |= SafeCast.toUint((x >> r) > 0xf) << 2;\\n\\n        // Shifts value right by the current result and use it as an index into this lookup table:\\n        //\\n        // | x (4 bits) |  index  | table[index] = MSB position |\\n        // |------------|---------|-----------------------------|\\n        // |    0000    |    0    |        table[0] = 0         |\\n        // |    0001    |    1    |        table[1] = 0         |\\n        // |    0010    |    2    |        table[2] = 1         |\\n        // |    0011    |    3    |        table[3] = 1         |\\n        // |    0100    |    4    |        table[4] = 2         |\\n        // |    0101    |    5    |        table[5] = 2         |\\n        // |    0110    |    6    |        table[6] = 2         |\\n        // |    0111    |    7    |        table[7] = 2         |\\n        // |    1000    |    8    |        table[8] = 3         |\\n        // |    1001    |    9    |        table[9] = 3         |\\n        // |    1010    |   10    |        table[10] = 3        |\\n        // |    1011    |   11    |        table[11] = 3        |\\n        // |    1100    |   12    |        table[12] = 3        |\\n        // |    1101    |   13    |        table[13] = 3        |\\n        // |    1110    |   14    |        table[14] = 3        |\\n        // |    1111    |   15    |        table[15] = 3        |\\n        //\\n        // The lookup table is represented as a 32-byte value with the MSB positions for 0-15 in the last 16 bytes.\\n        assembly (\\\"memory-safe\\\") {\\n            r := or(r, byte(shr(r, x), 0x0000010102020202030303030303030300000000000000000000000000000000))\\n        }\\n    }\\n\\n    /**\\n     * @dev Return the log in base 2, following the selected rounding direction, of a positive value.\\n     * Returns 0 if given 0.\\n     */\\n    function log2(uint256 value, Rounding rounding) internal pure returns (uint256) {\\n        unchecked {\\n            uint256 result = log2(value);\\n            return result + SafeCast.toUint(unsignedRoundsUp(rounding) && 1 << result < value);\\n        }\\n    }\\n\\n    /**\\n     * @dev Return the log in base 10 of a positive value rounded towards zero.\\n     * Returns 0 if given 0.\\n     */\\n    function log10(uint256 value) internal pure returns (uint256) {\\n        uint256 result = 0;\\n        unchecked {\\n            if (value >= 10 ** 64) {\\n                value /= 10 ** 64;\\n                result += 64;\\n            }\\n            if (value >= 10 ** 32) {\\n                value /= 10 ** 32;\\n                result += 32;\\n            }\\n            if (value >= 10 ** 16) {\\n                value /= 10 ** 16;\\n                result += 16;\\n            }\\n            if (value >= 10 ** 8) {\\n                value /= 10 ** 8;\\n                result += 8;\\n            }\\n            if (value >= 10 ** 4) {\\n                value /= 10 ** 4;\\n                result += 4;\\n            }\\n            if (value >= 10 ** 2) {\\n                value /= 10 ** 2;\\n                result += 2;\\n            }\\n            if (value >= 10 ** 1) {\\n                result += 1;\\n            }\\n        }\\n        return result;\\n    }\\n\\n    /**\\n     * @dev Return the log in base 10, following the selected rounding direction, of a positive value.\\n     * Returns 0 if given 0.\\n     */\\n    function log10(uint256 value, Rounding rounding) internal pure returns (uint256) {\\n        unchecked {\\n            uint256 result = log10(value);\\n            return result + SafeCast.toUint(unsignedRoundsUp(rounding) && 10 ** result < value);\\n        }\\n    }\\n\\n    /**\\n     * @dev Return the log in base 256 of a positive value rounded towards zero.\\n     * Returns 0 if given 0.\\n     *\\n     * Adding one to the result gives the number of pairs of hex symbols needed to represent `value` as a hex string.\\n     */\\n    function log256(uint256 x) internal pure returns (uint256 r) {\\n        // If value has upper 128 bits set, log2 result is at least 128\\n        r = SafeCast.toUint(x > 0xffffffffffffffffffffffffffffffff) << 7;\\n        // If upper 64 bits of 128-bit half set, add 64 to result\\n        r |= SafeCast.toUint((x >> r) > 0xffffffffffffffff) << 6;\\n        // If upper 32 bits of 64-bit half set, add 32 to result\\n        r |= SafeCast.toUint((x >> r) > 0xffffffff) << 5;\\n        // If upper 16 bits of 32-bit half set, add 16 to result\\n        r |= SafeCast.toUint((x >> r) > 0xffff) << 4;\\n        // Add 1 if upper 8 bits of 16-bit half set, and divide accumulated result by 8\\n        return (r >> 3) | SafeCast.toUint((x >> r) > 0xff);\\n    }\\n\\n    /**\\n     * @dev Return the log in base 256, following the selected rounding direction, of a positive value.\\n     * Returns 0 if given 0.\\n     */\\n    function log256(uint256 value, Rounding rounding) internal pure returns (uint256) {\\n        unchecked {\\n            uint256 result = log256(value);\\n            return result + SafeCast.toUint(unsignedRoundsUp(rounding) && 1 << (result << 3) < value);\\n        }\\n    }\\n\\n    /**\\n     * @dev Returns whether a provided rounding mode is considered rounding up for unsigned integers.\\n     */\\n    function unsignedRoundsUp(Rounding rounding) internal pure returns (bool) {\\n        return uint8(rounding) % 2 == 1;\\n    }\\n}\\n\"},\"@openzeppelin/contracts/token/ERC721/IERC721Receiver.sol\":{\"content\":\"// SPDX-License-Identifier: MIT\\n// OpenZeppelin Contracts (last updated v5.4.0) (token/ERC721/IERC721Receiver.sol)\\n\\npragma solidity >=0.5.0;\\n\\n/**\\n * @title ERC-721 token receiver interface\\n * @dev Interface for any contract that wants to support safeTransfers\\n * from ERC-721 asset contracts.\\n */\\ninterface IERC721Receiver {\\n    /**\\n     * @dev Whenever an {IERC721} `tokenId` token is transferred to this contract via {IERC721-safeTransferFrom}\\n     * by `operator` from `from`, this function is called.\\n     *\\n     * It must return its Solidity selector to confirm the token transfer.\\n     * If any other value is returned or the interface is not implemented by the recipient, the transfer will be\\n     * reverted.\\n     *\\n     * The selector can be obtained in Solidity with `IERC721Receiver.onERC721Received.selector`.\\n     */\\n    function onERC721Received(\\n        address operator,\\n        address from,\\n        uint256 tokenId,\\n        bytes calldata data\\n    ) external returns (bytes4);\\n}\\n\"},\"@openzeppelin/contracts/utils/Panic.sol\":{\"content\":\"// SPDX-License-Identifier: MIT\\n// OpenZeppelin Contracts (last updated v5.1.0) (utils/Panic.sol)\\n\\npragma solidity ^0.8.20;\\n\\n/**\\n * @dev Helper library for emitting standardized panic codes.\\n *\\n * ```solidity\\n * contract Example {\\n *      using Panic for uint256;\\n *\\n *      // Use any of the declared internal constants\\n *      function foo() { Panic.GENERIC.panic(); }\\n *\\n *      // Alternatively\\n *      function foo() { Panic.panic(Panic.GENERIC); }\\n * }\\n * ```\\n *\\n * Follows the list from https://github.com/ethereum/solidity/blob/v0.8.24/libsolutil/ErrorCodes.h[libsolutil].\\n *\\n * _Available since v5.1._\\n */\\n// slither-disable-next-line unused-state\\nlibrary Panic {\\n    /// @dev generic / unspecified error\\n    uint256 internal constant GENERIC = 0x00;\\n    /// @dev used by the assert() builtin\\n    uint256 internal constant ASSERT = 0x01;\\n    /// @dev arithmetic underflow or overflow\\n    uint256 internal constant UNDER_OVERFLOW = 0x11;\\n    /// @dev division or modulo by zero\\n    uint256 internal constant DIVISION_BY_ZERO = 0x12;\\n    /// @dev enum conversion error\\n    uint256 internal constant ENUM_CONVERSION_ERROR = 0x21;\\n    /// @dev invalid encoding in storage\\n    uint256 internal constant STORAGE_ENCODING_ERROR = 0x22;\\n    /// @dev empty array pop\\n    uint256 internal constant EMPTY_ARRAY_POP = 0x31;\\n    /// @dev array out of bounds access\\n    uint256 internal constant ARRAY_OUT_OF_BOUNDS = 0x32;\\n    /// @dev resource error (too large allocation or too large array)\\n    uint256 internal constant RESOURCE_ERROR = 0x41;\\n    /// @dev calling invalid internal function\\n    uint256 internal constant INVALID_INTERNAL_FUNCTION = 0x51;\\n\\n    /// @dev Reverts with a panic code. Recommended to use with\\n    /// the internal constants with predefined codes.\\n    function panic(uint256 code) internal pure {\\n        assembly (\\\"memory-safe\\\") {\\n            mstore(0x00, 0x4e487b71)\\n            mstore(0x20, code)\\n            revert(0x1c, 0x24)\\n        }\\n    }\\n}\\n\"}},\"settings\":{\"optimizer\":{\"enabled\":false,\"runs\":200},\"outputSelection\":{\"*\":{\"\":[\"ast\"],\"*\":[\"abi\",\"metadata\",\"devdoc\",\"userdoc\",\"storageLayout\",\"evm.legacyAssembly\",\"evm.bytecode\",\"evm.deployedBytecode\",\"evm.methodIdentifiers\",\"evm.gasEstimates\",\"evm.assembly\"]}},\"remappings\":[]}}",
	"name": "DIDIdentityToken",
	"bytecode": {
		"linkReferences": {},
		"object": "608060405234801562000010575f80fd5b50604051620063193803806200631983398181016040528101906200003691906200044c565b338585815f908162000049919062000764565b5080600190816200005b919062000764565b5050505f73ffffffffffffffffffffffffffffffffffffffff168173ffffffffffffffffffffffffffffffffffffffff1603620000d1575f6040517f1e4fbdf7000000000000000000000000000000000000000000000000000000008152600401620000c8919062000859565b60405180910390fd5b620000e2816200016960201b60201c565b50600160078190555082600f9081620000fc919062000764565b5081600e5f6101000a81548173ffffffffffffffffffffffffffffffffffffffff021916908373ffffffffffffffffffffffffffffffffffffffff16021790555080600e60146101000a81548160ff0219169083151502179055505f600d81905550505050505062000874565b5f60065f9054906101000a900473ffffffffffffffffffffffffffffffffffffffff1690508160065f6101000a81548173ffffffffffffffffffffffffffffffffffffffff021916908373ffffffffffffffffffffffffffffffffffffffff1602179055508173ffffffffffffffffffffffffffffffffffffffff168173ffffffffffffffffffffffffffffffffffffffff167f8be0079c531659141344cd1fd0a4f28419497f9722a3daafe3b4186f6b6457e060405160405180910390a35050565b5f604051905090565b5f80fd5b5f80fd5b5f80fd5b5f80fd5b5f601f19601f8301169050919050565b7f4e487b71000000000000000000000000000000000000000000000000000000005f52604160045260245ffd5b6200028d8262000245565b810181811067ffffffffffffffff82111715620002af57620002ae62000255565b5b80604052505050565b5f620002c36200022c565b9050620002d1828262000282565b919050565b5f67ffffffffffffffff821115620002f357620002f262000255565b5b620002fe8262000245565b9050602081019050919050565b5f5b838110156200032a5780820151818401526020810190506200030d565b5f8484015250505050565b5f6200034b6200034584620002d6565b620002b8565b9050828152602081018484840111156200036a576200036962000241565b5b620003778482856200030b565b509392505050565b5f82601f8301126200039657620003956200023d565b5b8151620003a884826020860162000335565b91505092915050565b5f73ffffffffffffffffffffffffffffffffffffffff82169050919050565b5f620003dc82620003b1565b9050919050565b620003ee81620003d0565b8114620003f9575f80fd5b50565b5f815190506200040c81620003e3565b92915050565b5f8115159050919050565b620004288162000412565b811462000433575f80fd5b50565b5f8151905062000446816200041d565b92915050565b5f805f805f60a0868803121562000468576200046762000235565b5b5f86015167ffffffffffffffff81111562000488576200048762000239565b5b62000496888289016200037f565b955050602086015167ffffffffffffffff811115620004ba57620004b962000239565b5b620004c8888289016200037f565b945050604086015167ffffffffffffffff811115620004ec57620004eb62000239565b5b620004fa888289016200037f565b93505060606200050d88828901620003fc565b9250506080620005208882890162000436565b9150509295509295909350565b5f81519050919050565b7f4e487b71000000000000000000000000000000000000000000000000000000005f52602260045260245ffd5b5f60028204905060018216806200057c57607f821691505b60208210810362000592576200059162000537565b5b50919050565b5f819050815f5260205f209050919050565b5f6020601f8301049050919050565b5f82821b905092915050565b5f60088302620005f67fffffffffffffffffffffffffffffffffffffffffffffffffffffffffffffffff82620005b9565b620006028683620005b9565b95508019841693508086168417925050509392505050565b5f819050919050565b5f819050919050565b5f6200064c6200064662000640846200061a565b62000623565b6200061a565b9050919050565b5f819050919050565b62000667836200062c565b6200067f620006768262000653565b848454620005c5565b825550505050565b5f90565b6200069562000687565b620006a28184846200065c565b505050565b5b81811015620006c957620006bd5f826200068b565b600181019050620006a8565b5050565b601f8211156200071857620006e28162000598565b620006ed84620005aa565b81016020851015620006fd578190505b620007156200070c85620005aa565b830182620006a7565b50505b505050565b5f82821c905092915050565b5f6200073a5f19846008026200071d565b1980831691505092915050565b5f62000754838362000729565b9150826002028217905092915050565b6200076f826200052d565b67ffffffffffffffff8111156200078b576200078a62000255565b5b62000797825462000564565b620007a4828285620006cd565b5f60209050601f831160018114620007da575f8415620007c5578287015190505b620007d1858262000747565b86555062000840565b601f198416620007ea8662000598565b5f5b828110156200081357848901518255600182019150602085019450602081019050620007ec565b868310156200083357848901516200082f601f89168262000729565b8355505b6001600288020188555050505b505050505050565b6200085381620003d0565b82525050565b5f6020820190506200086e5f83018462000848565b92915050565b615a9780620008825f395ff3fe608060405234801561000f575f80fd5b5060043610610230575f3560e01c8063715018a61161012e578063c5762ef7116100b6578063e985e9c51161007a578063e985e9c5146106aa578063f08f4f64146106da578063f2fde38b1461070a578063fa52864914610726578063ff6a0bff1461074257610230565b8063c5762ef7146105e0578063c87b56dd146105fe578063dc3904501461062e578063e16c06521461064a578063e2a0e9f21461067a57610230565b8063998dfbb2116100fd578063998dfbb21461052a578063a22cb4651461055a578063b88d4fde14610576578063c048bc1314610592578063c3135e1a146105b057610230565b8063715018a6146104c8578063898cdb86146104d25780638da5cb5b146104ee57806395d89b411461050c57610230565b806323b872dd116101bc5780635f13e97c116101805780635f13e97c1461042457806362ec93541461042e5780636352211e1461044a57806365d65e861461047a57806370a082311461049857610230565b806323b872dd1461038457806342842e0e146103a057806343e91f48146103bc578063522bec8d146103d857806355f804b31461040857610230565b80630fa12160116102035780630fa12160146102ce57806313036808146102fe57806318160ddd1461031a5780631830f737146103385780631d638f8c1461035457610230565b806301ffc9a71461023457806306fdde0314610264578063081812fc14610282578063095ea7b3146102b2575b5f80fd5b61024e6004803603810190610249919061453a565b610772565b60405161025b919061457f565b60405180910390f35b61026c610853565b6040516102799190614622565b60405180910390f35b61029c60048036038101906102979190614675565b6108e2565b6040516102a991906146df565b60405180910390f35b6102cc60048036038101906102c79190614722565b6108fd565b005b6102e860048036038101906102e39190614760565b610938565b6040516102f59190614899565b60405180910390f35b6103186004803603810190610313919061491a565b610b7e565b005b610322610eac565b60405161032f9190614974565b60405180910390f35b610352600480360381019061034d91906149b7565b610eb5565b005b61036e60048036038101906103699190614760565b610fcb565b60405161037b9190614974565b60405180910390f35b61039e600480360381019061039991906149e2565b611011565b005b6103ba60048036038101906103b591906149e2565b611110565b005b6103d660048036038101906103d19190614a87565b61112f565b005b6103f260048036038101906103ed9190614675565b6114c2565b6040516103ff919061457f565b60405180910390f35b610422600480360381019061041d9190614c2d565b6114e8565b005b61042c611503565b005b61044860048036038101906104439190614c74565b611619565b005b610464600480360381019061045f9190614675565b611f02565b60405161047191906146df565b60405180910390f35b610482611f13565b60405161048f91906146df565b60405180910390f35b6104b260048036038101906104ad9190614760565b611f38565b6040516104bf9190614974565b60405180910390f35b6104d0611fee565b005b6104ec60048036038101906104e79190614760565b612001565b005b6104f66120fd565b60405161050391906146df565b60405180910390f35b610514612125565b6040516105219190614622565b60405180910390f35b610544600480360381019061053f9190614760565b6121b5565b6040516105519190614d0c565b60405180910390f35b610574600480360381019061056f9190614d2c565b612324565b005b610590600480360381019061058b9190614e08565b61235f565b005b61059a612384565b6040516105a79190614974565b60405180910390f35b6105ca60048036038101906105c59190614760565b6126bc565b6040516105d7919061457f565b60405180910390f35b6105e861270e565b6040516105f5919061457f565b60405180910390f35b61061860048036038101906106139190614675565b612721565b6040516106259190614622565b60405180910390f35b61064860048036038101906106439190614e88565b612787565b005b610664600480360381019061065f9190614760565b612aa3565b604051610671919061457f565b60405180910390f35b610694600480360381019061068f9190614760565b612b62565b6040516106a19190614974565b60405180910390f35b6106c460048036038101906106bf9190614ed3565b612f9e565b6040516106d1919061457f565b60405180910390f35b6106f460048036038101906106ef9190614675565b61302c565b6040516107019190614899565b60405180910390f35b610724600480360381019061071f9190614760565b6131ef565b005b610740600480360381019061073b91906149b7565b613273565b005b61075c60048036038101906107579190614760565b6132cf565b6040516107699190614f20565b60405180910390f35b5f7f80ac58cd000000000000000000000000000000000000000000000000000000007bffffffffffffffffffffffffffffffffffffffffffffffffffffffff1916827bffffffffffffffffffffffffffffffffffffffffffffffffffffffff1916148061083c57507f5b5e139f000000000000000000000000000000000000000000000000000000007bffffffffffffffffffffffffffffffffffffffffffffffffffffffff1916827bffffffffffffffffffffffffffffffffffffffffffffffffffffffff1916145b8061084c575061084b826133b7565b5b9050919050565b60605f805461086190614f66565b80601f016020809104026020016040519081016040528092919081815260200182805461088d90614f66565b80156108d85780601f106108af576101008083540402835291602001916108d8565b820191905f5260205f20905b8154815290600101906020018083116108bb57829003601f168201915b5050505050905090565b5f6108ec82613420565b506108f6826134a6565b9050919050565b6040517f08c379a000000000000000000000000000000000000000000000000000000000815260040161092f90614fe0565b60405180910390fd5b61094061447c565b600a5f8373ffffffffffffffffffffffffffffffffffffffff1673ffffffffffffffffffffffffffffffffffffffff1681526020019081526020015f205f9054906101000a900460ff166109c9576040517f08c379a00000000000000000000000000000000000000000000000000000000081526004016109c090615048565b60405180910390fd5b5f60095f8473ffffffffffffffffffffffffffffffffffffffff1673ffffffffffffffffffffffffffffffffffffffff1681526020019081526020015f2054905060085f8281526020019081526020015f206040518060a00160405290815f82015f9054906101000a900473ffffffffffffffffffffffffffffffffffffffff1673ffffffffffffffffffffffffffffffffffffffff1673ffffffffffffffffffffffffffffffffffffffff1681526020015f820160149054906101000a900467ffffffffffffffff1667ffffffffffffffff1667ffffffffffffffff168152602001600182015f9054906101000a900467ffffffffffffffff1667ffffffffffffffff1667ffffffffffffffff16815260200160028201548152602001600382018054610af690614f66565b80601f0160208091040260200160405190810160405280929190818152602001828054610b2290614f66565b8015610b6d5780601f10610b4457610100808354040283529160200191610b6d565b820191905f5260205f20905b815481529060010190602001808311610b5057829003601f168201915b505050505081525050915050919050565b33600a5f8273ffffffffffffffffffffffffffffffffffffffff1673ffffffffffffffffffffffffffffffffffffffff1681526020019081526020015f205f9054906101000a900460ff16610c08576040517f08c379a0000000000000000000000000000000000000000000000000000000008152600401610bff90615048565b60405180910390fd5b8073ffffffffffffffffffffffffffffffffffffffff163373ffffffffffffffffffffffffffffffffffffffff1614610c76576040517f08c379a0000000000000000000000000000000000000000000000000000000008152600401610c6d906150b0565b60405180910390fd5b33600a5f8273ffffffffffffffffffffffffffffffffffffffff1673ffffffffffffffffffffffffffffffffffffffff1681526020019081526020015f205f9054906101000a900460ff16610d00576040517f08c379a0000000000000000000000000000000000000000000000000000000008152600401610cf790615048565b60405180910390fd5b5f60095f8373ffffffffffffffffffffffffffffffffffffffff1673ffffffffffffffffffffffffffffffffffffffff1681526020019081526020015f20549050600b5f8281526020019081526020015f205f9054906101000a900460ff1615610d9f576040517f08c379a0000000000000000000000000000000000000000000000000000000008152600401610d9690615118565b60405180910390fd5b610da76134df565b5f60095f3373ffffffffffffffffffffffffffffffffffffffff1673ffffffffffffffffffffffffffffffffffffffff1681526020019081526020015f205490505f60085f8381526020019081526020015f2090505f8787604051610e0d929190615164565b6040518091039020905080826002018190555042826001015f6101000a81548167ffffffffffffffff021916908367ffffffffffffffff16021790555080833373ffffffffffffffffffffffffffffffffffffffff167f8280fd7bbdeb2364e894d403db429c0fb8e57a385d0f2ec1f7926acf3284772642604051610e92919061518b565b60405180910390a4505050610ea5613525565b5050505050565b5f600d54905090565b33600a5f8273ffffffffffffffffffffffffffffffffffffffff1673ffffffffffffffffffffffffffffffffffffffff1681526020019081526020015f205f9054906101000a900460ff16610f3f576040517f08c379a0000000000000000000000000000000000000000000000000000000008152600401610f3690615048565b60405180910390fd5b8073ffffffffffffffffffffffffffffffffffffffff163373ffffffffffffffffffffffffffffffffffffffff1614610fad576040517f08c379a0000000000000000000000000000000000000000000000000000000008152600401610fa4906150b0565b60405180910390fd5b610fb56134df565b610fbf338361352f565b610fc7613525565b5050565b5f60095f8373ffffffffffffffffffffffffffffffffffffffff1673ffffffffffffffffffffffffffffffffffffffff1681526020019081526020015f20549050919050565b5f73ffffffffffffffffffffffffffffffffffffffff168273ffffffffffffffffffffffffffffffffffffffff1603611081575f6040517f64a0ae9200000000000000000000000000000000000000000000000000000000815260040161107891906146df565b60405180910390fd5b5f611094838361108f613711565b613718565b90508373ffffffffffffffffffffffffffffffffffffffff168173ffffffffffffffffffffffffffffffffffffffff161461110a578382826040517f64283d7b000000000000000000000000000000000000000000000000000000008152600401611101939291906151a4565b60405180910390fd5b50505050565b61112a83838360405180602001604052805f81525061235f565b505050565b33600a5f8273ffffffffffffffffffffffffffffffffffffffff1673ffffffffffffffffffffffffffffffffffffffff1681526020019081526020015f205f9054906101000a900460ff166111b9576040517f08c379a00000000000000000000000000000000000000000000000000000000081526004016111b090615048565b60405180910390fd5b8073ffffffffffffffffffffffffffffffffffffffff163373ffffffffffffffffffffffffffffffffffffffff1614611227576040517f08c379a000000000000000000000000000000000000000000000000000000000815260040161121e906150b0565b60405180910390fd5b33600a5f8273ffffffffffffffffffffffffffffffffffffffff1673ffffffffffffffffffffffffffffffffffffffff1681526020019081526020015f205f9054906101000a900460ff166112b1576040517f08c379a00000000000000000000000000000000000000000000000000000000081526004016112a890615048565b60405180910390fd5b5f60095f8373ffffffffffffffffffffffffffffffffffffffff1673ffffffffffffffffffffffffffffffffffffffff1681526020019081526020015f20549050600b5f8281526020019081526020015f205f9054906101000a900460ff1615611350576040517f08c379a000000000000000000000000000000000000000000000000000000000815260040161134790615118565b60405180910390fd5b6113586134df565b5f60095f3373ffffffffffffffffffffffffffffffffffffffff1673ffffffffffffffffffffffffffffffffffffffff1681526020019081526020015f205490505f60085f8381526020019081526020015f2090505f89896040516113be929190615164565b6040518091039020905080826002018190555087878360030191826113e4929190615380565b5042826001015f6101000a81548167ffffffffffffffff021916908367ffffffffffffffff16021790555080833373ffffffffffffffffffffffffffffffffffffffff167f8280fd7bbdeb2364e894d403db429c0fb8e57a385d0f2ec1f7926acf3284772642604051611457919061518b565b60405180910390a4823373ffffffffffffffffffffffffffffffffffffffff167feea13ec8b49fb404f99b1bf8fd2589a5b2fcc7eb6d17e9a0768d55148a807157426040516114a6919061518b565b60405180910390a35050506114b9613525565b50505050505050565b5f600b5f8381526020019081526020015f205f9054906101000a900460ff169050919050565b6114f06137e2565b80600f90816114ff91906154a5565b5050565b33600a5f8273ffffffffffffffffffffffffffffffffffffffff1673ffffffffffffffffffffffffffffffffffffffff1681526020019081526020015f205f9054906101000a900460ff1661158d576040517f08c379a000000000000000000000000000000000000000000000000000000000815260040161158490615048565b60405180910390fd5b8073ffffffffffffffffffffffffffffffffffffffff163373ffffffffffffffffffffffffffffffffffffffff16146115fb576040517f08c379a00000000000000000000000000000000000000000000000000000000081526004016115f2906150b0565b60405180910390fd5b6116036134df565b61160e33600161352f565b611616613525565b50565b6116216134df565b6116296120fd565b73ffffffffffffffffffffffffffffffffffffffff163373ffffffffffffffffffffffffffffffffffffffff1614806116ae5750600e5f9054906101000a900473ffffffffffffffffffffffffffffffffffffffff1673ffffffffffffffffffffffffffffffffffffffff163373ffffffffffffffffffffffffffffffffffffffff16145b6116ed576040517f08c379a00000000000000000000000000000000000000000000000000000000081526004016116e4906155be565b60405180910390fd5b5f73ffffffffffffffffffffffffffffffffffffffff168373ffffffffffffffffffffffffffffffffffffffff160361175b576040517f08c379a000000000000000000000000000000000000000000000000000000000815260040161175290615626565b60405180910390fd5b5f73ffffffffffffffffffffffffffffffffffffffff168273ffffffffffffffffffffffffffffffffffffffff16036117c9576040517f08c379a00000000000000000000000000000000000000000000000000000000081526004016117c090615626565b60405180910390fd5b8173ffffffffffffffffffffffffffffffffffffffff168373ffffffffffffffffffffffffffffffffffffffff1603611837576040517f08c379a000000000000000000000000000000000000000000000000000000000815260040161182e9061568e565b60405180910390fd5b600a5f8473ffffffffffffffffffffffffffffffffffffffff1673ffffffffffffffffffffffffffffffffffffffff1681526020019081526020015f205f9054906101000a900460ff166118c0576040517f08c379a00000000000000000000000000000000000000000000000000000000081526004016118b790615048565b60405180910390fd5b600a5f8373ffffffffffffffffffffffffffffffffffffffff1673ffffffffffffffffffffffffffffffffffffffff1681526020019081526020015f205f9054906101000a900460ff161561194a576040517f08c379a0000000000000000000000000000000000000000000000000000000008152600401611941906156f6565b60405180910390fd5b5f60095f8573ffffffffffffffffffffffffffffffffffffffff1673ffffffffffffffffffffffffffffffffffffffff1681526020019081526020015f20549050600b5f8281526020019081526020015f205f9054906101000a900460ff16156119e9576040517f08c379a00000000000000000000000000000000000000000000000000000000081526004016119e090615118565b60405180910390fd5b6001600b5f8381526020019081526020015f205f6101000a81548160ff0219169083151502179055506001600c5f8673ffffffffffffffffffffffffffffffffffffffff1673ffffffffffffffffffffffffffffffffffffffff1681526020019081526020015f205f6101000a81548160ff021916908315150217905550600d5f815480929190611a7990615741565b91905055505f600d5490505f60085f8481526020019081526020015f206040518060a00160405290815f82015f9054906101000a900473ffffffffffffffffffffffffffffffffffffffff1673ffffffffffffffffffffffffffffffffffffffff1673ffffffffffffffffffffffffffffffffffffffff1681526020015f820160149054906101000a900467ffffffffffffffff1667ffffffffffffffff1667ffffffffffffffff168152602001600182015f9054906101000a900467ffffffffffffffff1667ffffffffffffffff1667ffffffffffffffff16815260200160028201548152602001600382018054611b7190614f66565b80601f0160208091040260200160405190810160405280929190818152602001828054611b9d90614f66565b8015611be85780601f10611bbf57610100808354040283529160200191611be8565b820191905f5260205f20905b815481529060010190602001808311611bcb57829003601f168201915b50505050508152505090505f6040518060a001604052808773ffffffffffffffffffffffffffffffffffffffff1681526020014267ffffffffffffffff1681526020014267ffffffffffffffff16815260200186611c4a578360600151611c4e565b5f801b5b815260200186611c62578360800151611c72565b60405180602001604052805f8152505b81525090508060085f8581526020019081526020015f205f820151815f015f6101000a81548173ffffffffffffffffffffffffffffffffffffffff021916908373ffffffffffffffffffffffffffffffffffffffff1602179055506020820151815f0160146101000a81548167ffffffffffffffff021916908367ffffffffffffffff1602179055506040820151816001015f6101000a81548167ffffffffffffffff021916908367ffffffffffffffff160217905550606082015181600201556080820151816003019081611d489190615788565b509050508260095f8873ffffffffffffffffffffffffffffffffffffffff1673ffffffffffffffffffffffffffffffffffffffff1681526020019081526020015f20819055506001600a5f8873ffffffffffffffffffffffffffffffffffffffff1673ffffffffffffffffffffffffffffffffffffffff1681526020019081526020015f205f6101000a81548160ff021916908315150217905550611ded8684613869565b838773ffffffffffffffffffffffffffffffffffffffff167fe8ccf73831b7f096110633fc510fb0d4e739d5df4da47cb20fdbcd06711dd6f542604051611e34919061518b565b60405180910390a3828673ffffffffffffffffffffffffffffffffffffffff167ffd0c93be4723cb4c74010465b445d5f99eef0354f49ee7c247fa9ef9093aa8ed42604051611e83919061518b565b60405180910390a3828673ffffffffffffffffffffffffffffffffffffffff168873ffffffffffffffffffffffffffffffffffffffff167f38f96748528ae3c7b2848a2bbd3e1f25ec23d6b0b0205522893a20c45bb4aaed42604051611ee9919061518b565b60405180910390a450505050611efd613525565b505050565b5f611f0c82613420565b9050919050565b600e5f9054906101000a900473ffffffffffffffffffffffffffffffffffffffff1681565b5f8073ffffffffffffffffffffffffffffffffffffffff168273ffffffffffffffffffffffffffffffffffffffff1603611fa9575f6040517f89c62b64000000000000000000000000000000000000000000000000000000008152600401611fa091906146df565b60405180910390fd5b60035f8373ffffffffffffffffffffffffffffffffffffffff1673ffffffffffffffffffffffffffffffffffffffff1681526020019081526020015f20549050919050565b611ff66137e2565b611fff5f613886565b565b6120096137e2565b5f73ffffffffffffffffffffffffffffffffffffffff168173ffffffffffffffffffffffffffffffffffffffff1603612077576040517f08c379a000000000000000000000000000000000000000000000000000000000815260040161206e90615626565b60405180910390fd5b80600e5f6101000a81548173ffffffffffffffffffffffffffffffffffffffff021916908373ffffffffffffffffffffffffffffffffffffffff1602179055508073ffffffffffffffffffffffffffffffffffffffff167fbf1b7f0ea3d9f70f4a9732008adf3ed3aacaa8e1d290ace363b8a009a0d9c09e60405160405180910390a250565b5f60065f9054906101000a900473ffffffffffffffffffffffffffffffffffffffff16905090565b60606001805461213490614f66565b80601f016020809104026020016040519081016040528092919081815260200182805461216090614f66565b80156121ab5780601f10612182576101008083540402835291602001916121ab565b820191905f5260205f20905b81548152906001019060200180831161218e57829003601f168201915b5050505050905090565b6060600a5f8373ffffffffffffffffffffffffffffffffffffffff1673ffffffffffffffffffffffffffffffffffffffff1681526020019081526020015f205f9054906101000a900460ff16612240576040517f08c379a000000000000000000000000000000000000000000000000000000000815260040161223790615048565b60405180910390fd5b5f60095f8473ffffffffffffffffffffffffffffffffffffffff1673ffffffffffffffffffffffffffffffffffffffff1681526020019081526020015f2054905060085f8281526020019081526020015f2060030180546122a090614f66565b80601f01602080910402602001604051908101604052809291908181526020018280546122cc90614f66565b80156123175780601f106122ee57610100808354040283529160200191612317565b820191905f5260205f20905b8154815290600101906020018083116122fa57829003601f168201915b5050505050915050919050565b6040517f08c379a000000000000000000000000000000000000000000000000000000000815260040161235690614fe0565b60405180910390fd5b61236a848484611011565b61237e612375613711565b85858585613949565b50505050565b5f61238d6134df565b600e60149054906101000a900460ff166123dc576040517f08c379a00000000000000000000000000000000000000000000000000000000081526004016123d3906158a1565b60405180910390fd5b600a5f3373ffffffffffffffffffffffffffffffffffffffff1673ffffffffffffffffffffffffffffffffffffffff1681526020019081526020015f205f9054906101000a900460ff1615612466576040517f08c379a000000000000000000000000000000000000000000000000000000000815260040161245d906156f6565b60405180910390fd5b600d5f81548092919061247890615741565b91905055505f600d5490505f6040518060a001604052803373ffffffffffffffffffffffffffffffffffffffff1681526020014267ffffffffffffffff1681526020014267ffffffffffffffff1681526020015f801b815260200160405180602001604052805f81525081525090508060085f8481526020019081526020015f205f820151815f015f6101000a81548173ffffffffffffffffffffffffffffffffffffffff021916908373ffffffffffffffffffffffffffffffffffffffff1602179055506020820151815f0160146101000a81548167ffffffffffffffff021916908367ffffffffffffffff1602179055506040820151816001015f6101000a81548167ffffffffffffffff021916908367ffffffffffffffff1602179055506060820151816002015560808201518160030190816125b89190615788565b509050508160095f3373ffffffffffffffffffffffffffffffffffffffff1673ffffffffffffffffffffffffffffffffffffffff1681526020019081526020015f20819055506001600a5f3373ffffffffffffffffffffffffffffffffffffffff1673ffffffffffffffffffffffffffffffffffffffff1681526020019081526020015f205f6101000a81548160ff02191690831515021790555061265d3383613869565b813373ffffffffffffffffffffffffffffffffffffffff167ffd0c93be4723cb4c74010465b445d5f99eef0354f49ee7c247fa9ef9093aa8ed426040516126a4919061518b565b60405180910390a381925050506126b9613525565b90565b5f600a5f8373ffffffffffffffffffffffffffffffffffffffff1673ffffffffffffffffffffffffffffffffffffffff1681526020019081526020015f205f9054906101000a900460ff169050919050565b600e60149054906101000a900460ff1681565b606061272c82613420565b505f612736613af5565b90505f8151116127545760405180602001604052805f81525061277f565b8061275e84613b85565b60405160200161276f9291906158f9565b6040516020818303038152906040525b915050919050565b33600a5f8273ffffffffffffffffffffffffffffffffffffffff1673ffffffffffffffffffffffffffffffffffffffff1681526020019081526020015f205f9054906101000a900460ff16612811576040517f08c379a000000000000000000000000000000000000000000000000000000000815260040161280890615048565b60405180910390fd5b8073ffffffffffffffffffffffffffffffffffffffff163373ffffffffffffffffffffffffffffffffffffffff161461287f576040517f08c379a0000000000000000000000000000000000000000000000000000000008152600401612876906150b0565b60405180910390fd5b33600a5f8273ffffffffffffffffffffffffffffffffffffffff1673ffffffffffffffffffffffffffffffffffffffff1681526020019081526020015f205f9054906101000a900460ff16612909576040517f08c379a000000000000000000000000000000000000000000000000000000000815260040161290090615048565b60405180910390fd5b5f60095f8373ffffffffffffffffffffffffffffffffffffffff1673ffffffffffffffffffffffffffffffffffffffff1681526020019081526020015f20549050600b5f8281526020019081526020015f205f9054906101000a900460ff16156129a8576040517f08c379a000000000000000000000000000000000000000000000000000000000815260040161299f90615118565b60405180910390fd5b6129b06134df565b5f60095f3373ffffffffffffffffffffffffffffffffffffffff1673ffffffffffffffffffffffffffffffffffffffff1681526020019081526020015f205490505f60085f8381526020019081526020015f2090508686826003019182612a18929190615380565b5042816001015f6101000a81548167ffffffffffffffff021916908367ffffffffffffffff160217905550813373ffffffffffffffffffffffffffffffffffffffff167feea13ec8b49fb404f99b1bf8fd2589a5b2fcc7eb6d17e9a0768d55148a80715742604051612a8a919061518b565b60405180910390a35050612a9c613525565b5050505050565b5f600a5f8373ffffffffffffffffffffffffffffffffffffffff1673ffffffffffffffffffffffffffffffffffffffff1681526020019081526020015f205f9054906101000a900460ff16612afa575f9050612b5d565b5f60095f8473ffffffffffffffffffffffffffffffffffffffff1673ffffffffffffffffffffffffffffffffffffffff1681526020019081526020015f20549050600b5f8281526020019081526020015f205f9054906101000a900460ff169150505b919050565b5f600e5f9054906101000a900473ffffffffffffffffffffffffffffffffffffffff1673ffffffffffffffffffffffffffffffffffffffff163373ffffffffffffffffffffffffffffffffffffffff161480612bca5750600e60149054906101000a900460ff165b80612c075750612bd86120fd565b73ffffffffffffffffffffffffffffffffffffffff163373ffffffffffffffffffffffffffffffffffffffff16145b612c46576040517f08c379a0000000000000000000000000000000000000000000000000000000008152600401612c3d906155be565b60405180910390fd5b612c4e6134df565b600a5f8373ffffffffffffffffffffffffffffffffffffffff1673ffffffffffffffffffffffffffffffffffffffff1681526020019081526020015f205f9054906101000a900460ff1615612cd8576040517f08c379a0000000000000000000000000000000000000000000000000000000008152600401612ccf906156f6565b60405180910390fd5b5f73ffffffffffffffffffffffffffffffffffffffff168273ffffffffffffffffffffffffffffffffffffffff1603612d46576040517f08c379a0000000000000000000000000000000000000000000000000000000008152600401612d3d90615626565b60405180910390fd5b600d5f815480929190612d5890615741565b91905055505f600d5490505f6040518060a001604052808573ffffffffffffffffffffffffffffffffffffffff1681526020014267ffffffffffffffff1681526020014267ffffffffffffffff1681526020015f801b815260200160405180602001604052805f81525081525090508060085f8481526020019081526020015f205f820151815f015f6101000a81548173ffffffffffffffffffffffffffffffffffffffff021916908373ffffffffffffffffffffffffffffffffffffffff1602179055506020820151815f0160146101000a81548167ffffffffffffffff021916908367ffffffffffffffff1602179055506040820151816001015f6101000a81548167ffffffffffffffff021916908367ffffffffffffffff160217905550606082015181600201556080820151816003019081612e989190615788565b509050508160095f8673ffffffffffffffffffffffffffffffffffffffff1673ffffffffffffffffffffffffffffffffffffffff1681526020019081526020015f20819055506001600a5f8673ffffffffffffffffffffffffffffffffffffffff1673ffffffffffffffffffffffffffffffffffffffff1681526020019081526020015f205f6101000a81548160ff021916908315150217905550612f3d8483613869565b818473ffffffffffffffffffffffffffffffffffffffff167ffd0c93be4723cb4c74010465b445d5f99eef0354f49ee7c247fa9ef9093aa8ed42604051612f84919061518b565b60405180910390a38192505050612f99613525565b919050565b5f60055f8473ffffffffffffffffffffffffffffffffffffffff1673ffffffffffffffffffffffffffffffffffffffff1681526020019081526020015f205f8373ffffffffffffffffffffffffffffffffffffffff1673ffffffffffffffffffffffffffffffffffffffff1681526020019081526020015f205f9054906101000a900460ff16905092915050565b61303461447c565b61303d82613c4f565b61307c576040517f08c379a000000000000000000000000000000000000000000000000000000000815260040161307390615966565b60405180910390fd5b60085f8381526020019081526020015f206040518060a00160405290815f82015f9054906101000a900473ffffffffffffffffffffffffffffffffffffffff1673ffffffffffffffffffffffffffffffffffffffff1673ffffffffffffffffffffffffffffffffffffffff1681526020015f820160149054906101000a900467ffffffffffffffff1667ffffffffffffffff1667ffffffffffffffff168152602001600182015f9054906101000a900467ffffffffffffffff1667ffffffffffffffff1667ffffffffffffffff1681526020016002820154815260200160038201805461316890614f66565b80601f016020809104026020016040519081016040528092919081815260200182805461319490614f66565b80156131df5780601f106131b6576101008083540402835291602001916131df565b820191905f5260205f20905b8154815290600101906020018083116131c257829003601f168201915b5050505050815250509050919050565b6131f76137e2565b5f73ffffffffffffffffffffffffffffffffffffffff168173ffffffffffffffffffffffffffffffffffffffff1603613267575f6040517f1e4fbdf700000000000000000000000000000000000000000000000000000000815260040161325e91906146df565b60405180910390fd5b61327081613886565b50565b61327b6137e2565b80600e60146101000a81548160ff0219169083151502179055507fc977af333cf8813c2d0975c679d4face4e304c8f859030b4379c4b21c84963a2816040516132c4919061457f565b60405180910390a150565b5f600a5f8373ffffffffffffffffffffffffffffffffffffffff1673ffffffffffffffffffffffffffffffffffffffff1681526020019081526020015f205f9054906101000a900460ff16613359576040517f08c379a000000000000000000000000000000000000000000000000000000000815260040161335090615048565b60405180910390fd5b5f60095f8473ffffffffffffffffffffffffffffffffffffffff1673ffffffffffffffffffffffffffffffffffffffff1681526020019081526020015f2054905060085f8281526020019081526020015f2060020154915050919050565b5f7f01ffc9a7000000000000000000000000000000000000000000000000000000007bffffffffffffffffffffffffffffffffffffffffffffffffffffffff1916827bffffffffffffffffffffffffffffffffffffffffffffffffffffffff1916149050919050565b5f8061342b83613c8f565b90505f73ffffffffffffffffffffffffffffffffffffffff168173ffffffffffffffffffffffffffffffffffffffff160361349d57826040517f7e2732890000000000000000000000000000000000000000000000000000000081526004016134949190614974565b60405180910390fd5b80915050919050565b5f60045f8381526020019081526020015f205f9054906101000a900473ffffffffffffffffffffffffffffffffffffffff169050919050565b60026007540361351b576040517f3ee5aeb500000000000000000000000000000000000000000000000000000000815260040160405180910390fd5b6002600781905550565b6001600781905550565b5f60095f8473ffffffffffffffffffffffffffffffffffffffff1673ffffffffffffffffffffffffffffffffffffffff1681526020019081526020015f20549050600b5f8281526020019081526020015f205f9054906101000a900460ff16156135ce576040517f08c379a00000000000000000000000000000000000000000000000000000000081526004016135c590615118565b60405180910390fd5b6001600b5f8381526020019081526020015f205f6101000a81548160ff0219169083151502179055506001600c5f8573ffffffffffffffffffffffffffffffffffffffff1673ffffffffffffffffffffffffffffffffffffffff1681526020019081526020015f205f6101000a81548160ff02191690831515021790555081156136bd575f60085f8381526020019081526020015f2090505f801b816002018190555060405180602001604052805f8152508160030190816136909190615788565b5042816001015f6101000a81548167ffffffffffffffff021916908367ffffffffffffffff160217905550505b808373ffffffffffffffffffffffffffffffffffffffff167fe8ccf73831b7f096110633fc510fb0d4e739d5df4da47cb20fdbcd06711dd6f542604051613704919061518b565b60405180910390a3505050565b5f33905090565b5f8061372384613c8f565b90505f73ffffffffffffffffffffffffffffffffffffffff168173ffffffffffffffffffffffffffffffffffffffff161415801561378d57505f73ffffffffffffffffffffffffffffffffffffffff168573ffffffffffffffffffffffffffffffffffffffff1614155b156137cd576040517f08c379a00000000000000000000000000000000000000000000000000000000081526004016137c490614fe0565b60405180910390fd5b6137d8858585613cc8565b9150509392505050565b6137ea613711565b73ffffffffffffffffffffffffffffffffffffffff166138086120fd565b73ffffffffffffffffffffffffffffffffffffffff16146138675761382b613711565b6040517f118cdaa700000000000000000000000000000000000000000000000000000000815260040161385e91906146df565b60405180910390fd5b565b613882828260405180602001604052805f815250613ed3565b5050565b5f60065f9054906101000a900473ffffffffffffffffffffffffffffffffffffffff1690508160065f6101000a81548173ffffffffffffffffffffffffffffffffffffffff021916908373ffffffffffffffffffffffffffffffffffffffff1602179055508173ffffffffffffffffffffffffffffffffffffffff168173ffffffffffffffffffffffffffffffffffffffff167f8be0079c531659141344cd1fd0a4f28419497f9722a3daafe3b4186f6b6457e060405160405180910390a35050565b5f8373ffffffffffffffffffffffffffffffffffffffff163b1115613aee578273ffffffffffffffffffffffffffffffffffffffff1663150b7a02868685856040518563ffffffff1660e01b81526004016139a79493929190615984565b6020604051808303815f875af19250505080156139e257506040513d601f19601f820116820180604052508101906139df91906159e2565b60015b613a63573d805f8114613a10576040519150601f19603f3d011682016040523d82523d5f602084013e613a15565b606091505b505f815103613a5b57836040517f64a0ae92000000000000000000000000000000000000000000000000000000008152600401613a5291906146df565b60405180910390fd5b805160208201fd5b63150b7a0260e01b7bffffffffffffffffffffffffffffffffffffffffffffffffffffffff1916817bffffffffffffffffffffffffffffffffffffffffffffffffffffffff191614613aec57836040517f64a0ae92000000000000000000000000000000000000000000000000000000008152600401613ae391906146df565b60405180910390fd5b505b5050505050565b6060600f8054613b0490614f66565b80601f0160208091040260200160405190810160405280929190818152602001828054613b3090614f66565b8015613b7b5780601f10613b5257610100808354040283529160200191613b7b565b820191905f5260205f20905b815481529060010190602001808311613b5e57829003601f168201915b5050505050905090565b60605f6001613b9384613ef6565b0190505f8167ffffffffffffffff811115613bb157613bb0614b09565b5b6040519080825280601f01601f191660200182016040528015613be35781602001600182028036833780820191505090505b5090505f82602083010190505b600115613c44578080600190039150507f3031323334353637383961626364656600000000000000000000000000000000600a86061a8153600a8581613c3957613c38615a0d565b5b0494505f8503613bf0575b819350505050919050565b5f8073ffffffffffffffffffffffffffffffffffffffff16613c7083613c8f565b73ffffffffffffffffffffffffffffffffffffffff1614159050919050565b5f60025f8381526020019081526020015f205f9054906101000a900473ffffffffffffffffffffffffffffffffffffffff169050919050565b5f80613cd384613c8f565b90505f73ffffffffffffffffffffffffffffffffffffffff168373ffffffffffffffffffffffffffffffffffffffff1614613d1457613d13818486614047565b5b5f73ffffffffffffffffffffffffffffffffffffffff168173ffffffffffffffffffffffffffffffffffffffff1614613d9f57613d535f855f8061410a565b600160035f8373ffffffffffffffffffffffffffffffffffffffff1673ffffffffffffffffffffffffffffffffffffffff1681526020019081526020015f205f82825403925050819055505b5f73ffffffffffffffffffffffffffffffffffffffff168573ffffffffffffffffffffffffffffffffffffffff1614613e1e57600160035f8773ffffffffffffffffffffffffffffffffffffffff1673ffffffffffffffffffffffffffffffffffffffff1681526020019081526020015f205f82825401925050819055505b8460025f8681526020019081526020015f205f6101000a81548173ffffffffffffffffffffffffffffffffffffffff021916908373ffffffffffffffffffffffffffffffffffffffff160217905550838573ffffffffffffffffffffffffffffffffffffffff168273ffffffffffffffffffffffffffffffffffffffff167fddf252ad1be2c89b69c2b068fc378daa952ba7f163c4a11628f55a4df523b3ef60405160405180910390a4809150509392505050565b613edd83836142c9565b613ef1613ee8613711565b5f858585613949565b505050565b5f805f90507a184f03e93ff9f4daa797ed6e38ed64bf6a1f0100000000000000008310613f52577a184f03e93ff9f4daa797ed6e38ed64bf6a1f0100000000000000008381613f4857613f47615a0d565b5b0492506040810190505b6d04ee2d6d415b85acef81000000008310613f8f576d04ee2d6d415b85acef81000000008381613f8557613f84615a0d565b5b0492506020810190505b662386f26fc100008310613fbe57662386f26fc100008381613fb457613fb3615a0d565b5b0492506010810190505b6305f5e1008310613fe7576305f5e1008381613fdd57613fdc615a0d565b5b0492506008810190505b612710831061400c57612710838161400257614001615a0d565b5b0492506004810190505b6064831061402f576064838161402557614024615a0d565b5b0492506002810190505b600a831061403e576001810190505b80915050919050565b6140528383836143bc565b614105575f73ffffffffffffffffffffffffffffffffffffffff168373ffffffffffffffffffffffffffffffffffffffff16036140c657806040517f7e2732890000000000000000000000000000000000000000000000000000000081526004016140bd9190614974565b60405180910390fd5b81816040517f177e802f0000000000000000000000000000000000000000000000000000000081526004016140fc929190615a3a565b60405180910390fd5b505050565b808061414257505f73ffffffffffffffffffffffffffffffffffffffff168273ffffffffffffffffffffffffffffffffffffffff1614155b15614274575f61415184613420565b90505f73ffffffffffffffffffffffffffffffffffffffff168373ffffffffffffffffffffffffffffffffffffffff16141580156141bb57508273ffffffffffffffffffffffffffffffffffffffff168173ffffffffffffffffffffffffffffffffffffffff1614155b80156141ce57506141cc8184612f9e565b155b1561421057826040517fa9fbf51f00000000000000000000000000000000000000000000000000000000815260040161420791906146df565b60405180910390fd5b811561427257838573ffffffffffffffffffffffffffffffffffffffff168273ffffffffffffffffffffffffffffffffffffffff167f8c5be1e5ebec7d5bd14f71427d1e84f3dd0314c0f7b2291e5b200ac8c7c3b92560405160405180910390a45b505b8360045f8581526020019081526020015f205f6101000a81548173ffffffffffffffffffffffffffffffffffffffff021916908373ffffffffffffffffffffffffffffffffffffffff16021790555050505050565b5f73ffffffffffffffffffffffffffffffffffffffff168273ffffffffffffffffffffffffffffffffffffffff1603614339575f6040517f64a0ae9200000000000000000000000000000000000000000000000000000000815260040161433091906146df565b60405180910390fd5b5f61434583835f613718565b90505f73ffffffffffffffffffffffffffffffffffffffff168173ffffffffffffffffffffffffffffffffffffffff16146143b7575f6040517f73c6ac6e0000000000000000000000000000000000000000000000000000000081526004016143ae91906146df565b60405180910390fd5b505050565b5f8073ffffffffffffffffffffffffffffffffffffffff168373ffffffffffffffffffffffffffffffffffffffff161415801561447357508273ffffffffffffffffffffffffffffffffffffffff168473ffffffffffffffffffffffffffffffffffffffff16148061443457506144338484612f9e565b5b8061447257508273ffffffffffffffffffffffffffffffffffffffff1661445a836134a6565b73ffffffffffffffffffffffffffffffffffffffff16145b5b90509392505050565b6040518060a001604052805f73ffffffffffffffffffffffffffffffffffffffff1681526020015f67ffffffffffffffff1681526020015f67ffffffffffffffff1681526020015f8019168152602001606081525090565b5f604051905090565b5f80fd5b5f80fd5b5f7fffffffff0000000000000000000000000000000000000000000000000000000082169050919050565b614519816144e5565b8114614523575f80fd5b50565b5f8135905061453481614510565b92915050565b5f6020828403121561454f5761454e6144dd565b5b5f61455c84828501614526565b91505092915050565b5f8115159050919050565b61457981614565565b82525050565b5f6020820190506145925f830184614570565b92915050565b5f81519050919050565b5f82825260208201905092915050565b5f5b838110156145cf5780820151818401526020810190506145b4565b5f8484015250505050565b5f601f19601f8301169050919050565b5f6145f482614598565b6145fe81856145a2565b935061460e8185602086016145b2565b614617816145da565b840191505092915050565b5f6020820190508181035f83015261463a81846145ea565b905092915050565b5f819050919050565b61465481614642565b811461465e575f80fd5b50565b5f8135905061466f8161464b565b92915050565b5f6020828403121561468a576146896144dd565b5b5f61469784828501614661565b91505092915050565b5f73ffffffffffffffffffffffffffffffffffffffff82169050919050565b5f6146c9826146a0565b9050919050565b6146d9816146bf565b82525050565b5f6020820190506146f25f8301846146d0565b92915050565b614701816146bf565b811461470b575f80fd5b50565b5f8135905061471c816146f8565b92915050565b5f8060408385031215614738576147376144dd565b5b5f6147458582860161470e565b925050602061475685828601614661565b9150509250929050565b5f60208284031215614775576147746144dd565b5b5f6147828482850161470e565b91505092915050565b614794816146bf565b82525050565b5f67ffffffffffffffff82169050919050565b6147b68161479a565b82525050565b5f819050919050565b6147ce816147bc565b82525050565b5f81519050919050565b5f82825260208201905092915050565b5f6147f8826147d4565b61480281856147de565b93506148128185602086016145b2565b61481b816145da565b840191505092915050565b5f60a083015f83015161483b5f86018261478b565b50602083015161484e60208601826147ad565b50604083015161486160408601826147ad565b50606083015161487460608601826147c5565b506080830151848203608086015261488c82826147ee565b9150508091505092915050565b5f6020820190508181035f8301526148b18184614826565b905092915050565b5f80fd5b5f80fd5b5f80fd5b5f8083601f8401126148da576148d96148b9565b5b8235905067ffffffffffffffff8111156148f7576148f66148bd565b5b602083019150836001820283011115614913576149126148c1565b5b9250929050565b5f80602083850312156149305761492f6144dd565b5b5f83013567ffffffffffffffff81111561494d5761494c6144e1565b5b614959858286016148c5565b92509250509250929050565b61496e81614642565b82525050565b5f6020820190506149875f830184614965565b92915050565b61499681614565565b81146149a0575f80fd5b50565b5f813590506149b18161498d565b92915050565b5f602082840312156149cc576149cb6144dd565b5b5f6149d9848285016149a3565b91505092915050565b5f805f606084860312156149f9576149f86144dd565b5b5f614a068682870161470e565b9350506020614a178682870161470e565b9250506040614a2886828701614661565b9150509250925092565b5f8083601f840112614a4757614a466148b9565b5b8235905067ffffffffffffffff811115614a6457614a636148bd565b5b602083019150836001820283011115614a8057614a7f6148c1565b5b9250929050565b5f805f8060408587031215614a9f57614a9e6144dd565b5b5f85013567ffffffffffffffff811115614abc57614abb6144e1565b5b614ac8878288016148c5565b9450945050602085013567ffffffffffffffff811115614aeb57614aea6144e1565b5b614af787828801614a32565b925092505092959194509250565b5f80fd5b7f4e487b71000000000000000000000000000000000000000000000000000000005f52604160045260245ffd5b614b3f826145da565b810181811067ffffffffffffffff82111715614b5e57614b5d614b09565b5b80604052505050565b5f614b706144d4565b9050614b7c8282614b36565b919050565b5f67ffffffffffffffff821115614b9b57614b9a614b09565b5b614ba4826145da565b9050602081019050919050565b828183375f83830152505050565b5f614bd1614bcc84614b81565b614b67565b905082815260208101848484011115614bed57614bec614b05565b5b614bf8848285614bb1565b509392505050565b5f82601f830112614c1457614c136148b9565b5b8135614c24848260208601614bbf565b91505092915050565b5f60208284031215614c4257614c416144dd565b5b5f82013567ffffffffffffffff811115614c5f57614c5e6144e1565b5b614c6b84828501614c00565b91505092915050565b5f805f60608486031215614c8b57614c8a6144dd565b5b5f614c988682870161470e565b9350506020614ca98682870161470e565b9250506040614cba868287016149a3565b9150509250925092565b5f82825260208201905092915050565b5f614cde826147d4565b614ce88185614cc4565b9350614cf88185602086016145b2565b614d01816145da565b840191505092915050565b5f6020820190508181035f830152614d248184614cd4565b905092915050565b5f8060408385031215614d4257614d416144dd565b5b5f614d4f8582860161470e565b9250506020614d60858286016149a3565b9150509250929050565b5f67ffffffffffffffff821115614d8457614d83614b09565b5b614d8d826145da565b9050602081019050919050565b5f614dac614da784614d6a565b614b67565b905082815260208101848484011115614dc857614dc7614b05565b5b614dd3848285614bb1565b509392505050565b5f82601f830112614def57614dee6148b9565b5b8135614dff848260208601614d9a565b91505092915050565b5f805f8060808587031215614e2057614e1f6144dd565b5b5f614e2d8782880161470e565b9450506020614e3e8782880161470e565b9350506040614e4f87828801614661565b925050606085013567ffffffffffffffff811115614e7057614e6f6144e1565b5b614e7c87828801614ddb565b91505092959194509250565b5f8060208385031215614e9e57614e9d6144dd565b5b5f83013567ffffffffffffffff811115614ebb57614eba6144e1565b5b614ec785828601614a32565b92509250509250929050565b5f8060408385031215614ee957614ee86144dd565b5b5f614ef68582860161470e565b9250506020614f078582860161470e565b9150509250929050565b614f1a816147bc565b82525050565b5f602082019050614f335f830184614f11565b92915050565b7f4e487b71000000000000000000000000000000000000000000000000000000005f52602260045260245ffd5b5f6002820490506001821680614f7d57607f821691505b602082108103614f9057614f8f614f39565b5b50919050565b7f536f756c626f756e6400000000000000000000000000000000000000000000005f82015250565b5f614fca6009836145a2565b9150614fd582614f96565b602082019050919050565b5f6020820190508181035f830152614ff781614fbe565b9050919050565b7f4e6f2044494400000000000000000000000000000000000000000000000000005f82015250565b5f6150326006836145a2565b915061503d82614ffe565b602082019050919050565b5f6020820190508181035f83015261505f81615026565b9050919050565b7f4e6f74206f776e657200000000000000000000000000000000000000000000005f82015250565b5f61509a6009836145a2565b91506150a582615066565b602082019050919050565b5f6020820190508181035f8301526150c78161508e565b9050919050565b7f5265766f6b6564000000000000000000000000000000000000000000000000005f82015250565b5f6151026007836145a2565b915061510d826150ce565b602082019050919050565b5f6020820190508181035f83015261512f816150f6565b9050919050565b5f81905092915050565b5f61514b8385615136565b9350615158838584614bb1565b82840190509392505050565b5f615170828486615140565b91508190509392505050565b6151858161479a565b82525050565b5f60208201905061519e5f83018461517c565b92915050565b5f6060820190506151b75f8301866146d0565b6151c46020830185614965565b6151d160408301846146d0565b949350505050565b5f82905092915050565b5f819050815f5260205f209050919050565b5f6020601f8301049050919050565b5f82821b905092915050565b5f6008830261523f7fffffffffffffffffffffffffffffffffffffffffffffffffffffffffffffffff82615204565b6152498683615204565b95508019841693508086168417925050509392505050565b5f819050919050565b5f61528461527f61527a84614642565b615261565b614642565b9050919050565b5f819050919050565b61529d8361526a565b6152b16152a98261528b565b848454615210565b825550505050565b5f90565b6152c56152b9565b6152d0818484615294565b505050565b5b818110156152f3576152e85f826152bd565b6001810190506152d6565b5050565b601f82111561533857615309816151e3565b615312846151f5565b81016020851015615321578190505b61533561532d856151f5565b8301826152d5565b50505b505050565b5f82821c905092915050565b5f6153585f198460080261533d565b1980831691505092915050565b5f6153708383615349565b9150826002028217905092915050565b61538a83836151d9565b67ffffffffffffffff8111156153a3576153a2614b09565b5b6153ad8254614f66565b6153b88282856152f7565b5f601f8311600181146153e5575f84156153d3578287013590505b6153dd8582615365565b865550615444565b601f1984166153f3866151e3565b5f5b8281101561541a578489013582556001820191506020850194506020810190506153f5565b868310156154375784890135615433601f891682615349565b8355505b6001600288020188555050505b50505050505050565b5f819050815f5260205f209050919050565b601f8211156154a0576154718161544d565b61547a846151f5565b81016020851015615489578190505b61549d615495856151f5565b8301826152d5565b50505b505050565b6154ae82614598565b67ffffffffffffffff8111156154c7576154c6614b09565b5b6154d18254614f66565b6154dc82828561545f565b5f60209050601f83116001811461550d575f84156154fb578287015190505b6155058582615365565b86555061556c565b601f19841661551b8661544d565b5f5b828110156155425784890151825560018201915060208501945060208101905061551d565b8683101561555f578489015161555b601f891682615349565b8355505b6001600288020188555050505b505050505050565b7f4e6f7420617574686f72697a65640000000000000000000000000000000000005f82015250565b5f6155a8600e836145a2565b91506155b382615574565b602082019050919050565b5f6020820190508181035f8301526155d58161559c565b9050919050565b7f5a65726f206164647200000000000000000000000000000000000000000000005f82015250565b5f6156106009836145a2565b915061561b826155dc565b602082019050919050565b5f6020820190508181035f83015261563d81615604565b9050919050565b7f53616d652077616c6c65740000000000000000000000000000000000000000005f82015250565b5f615678600b836145a2565b915061568382615644565b602082019050919050565b5f6020820190508181035f8301526156a58161566c565b9050919050565b7f48617320444944000000000000000000000000000000000000000000000000005f82015250565b5f6156e06007836145a2565b91506156eb826156ac565b602082019050919050565b5f6020820190508181035f83015261570d816156d4565b9050919050565b7f4e487b71000000000000000000000000000000000000000000000000000000005f52601160045260245ffd5b5f61574b82614642565b91507fffffffffffffffffffffffffffffffffffffffffffffffffffffffffffffffff820361577d5761577c615714565b5b600182019050919050565b615791826147d4565b67ffffffffffffffff8111156157aa576157a9614b09565b5b6157b48254614f66565b6157bf8282856152f7565b5f60209050601f8311600181146157f0575f84156157de578287015190505b6157e88582615365565b86555061584f565b601f1984166157fe866151e3565b5f5b8281101561582557848901518255600182019150602085019450602081019050615800565b86831015615842578489015161583e601f891682615349565b8355505b6001600288020188555050505b505050505050565b7f4e6f207075626c6963206d696e740000000000000000000000000000000000005f82015250565b5f61588b600e836145a2565b915061589682615857565b602082019050919050565b5f6020820190508181035f8301526158b88161587f565b9050919050565b5f81905092915050565b5f6158d382614598565b6158dd81856158bf565b93506158ed8185602086016145b2565b80840191505092915050565b5f61590482856158c9565b915061591082846158c9565b91508190509392505050565b7f4e6f20746f6b656e0000000000000000000000000000000000000000000000005f82015250565b5f6159506008836145a2565b915061595b8261591c565b602082019050919050565b5f6020820190508181035f83015261597d81615944565b9050919050565b5f6080820190506159975f8301876146d0565b6159a460208301866146d0565b6159b16040830185614965565b81810360608301526159c38184614cd4565b905095945050505050565b5f815190506159dc81614510565b92915050565b5f602082840312156159f7576159f66144dd565b5b5f615a04848285016159ce565b91505092915050565b7f4e487b71000000000000000000000000000000000000000000000000000000005f52601260045260245ffd5b5f604082019050615a4d5f8301856146d0565b615a5a6020830184614965565b939250505056fea26469706673582212209a525d230518c86b8b95bbdfc842f60bd8aa75ab42e6c1a61e93d2092d5e078364736f6c63430008140033",
		"opcodes": "PUSH1 0x80 PUSH1 0x40 MSTORE CALLVALUE DUP1 ISZERO PUSH3 0x10 JUMPI PUSH0 DUP1 REVERT JUMPDEST POP PUSH1 0x40 MLOAD PUSH3 0x6319 CODESIZE SUB DUP1 PUSH3 0x6319 DUP4 CODECOPY DUP2 DUP2 ADD PUSH1 0x40 MSTORE DUP2 ADD SWAP1 PUSH3 0x36 SWAP2 SWAP1 PUSH3 0x44C JUMP JUMPDEST CALLER DUP6 DUP6 DUP2 PUSH0 SWAP1 DUP2 PUSH3 0x49 SWAP2 SWAP1 PUSH3 0x764 JUMP JUMPDEST POP DUP1 PUSH1 0x1 SWAP1 DUP2 PUSH3 0x5B SWAP2 SWAP1 PUSH3 0x764 JUMP JUMPDEST POP POP POP PUSH0 PUSH20 0xFFFFFFFFFFFFFFFFFFFFFFFFFFFFFFFFFFFFFFFF AND DUP2 PUSH20 0xFFFFFFFFFFFFFFFFFFFFFFFFFFFFFFFFFFFFFFFF AND SUB PUSH3 0xD1 JUMPI PUSH0 PUSH1 0x40 MLOAD PUSH32 0x1E4FBDF700000000000000000000000000000000000000000000000000000000 DUP2 MSTORE PUSH1 0x4 ADD PUSH3 0xC8 SWAP2 SWAP1 PUSH3 0x859 JUMP JUMPDEST PUSH1 0x40 MLOAD DUP1 SWAP2 SUB SWAP1 REVERT JUMPDEST PUSH3 0xE2 DUP2 PUSH3 0x169 PUSH1 0x20 SHL PUSH1 0x20 SHR JUMP JUMPDEST POP PUSH1 0x1 PUSH1 0x7 DUP2 SWAP1 SSTORE POP DUP3 PUSH1 0xF SWAP1 DUP2 PUSH3 0xFC SWAP2 SWAP1 PUSH3 0x764 JUMP JUMPDEST POP DUP2 PUSH1 0xE PUSH0 PUSH2 0x100 EXP DUP2 SLOAD DUP2 PUSH20 0xFFFFFFFFFFFFFFFFFFFFFFFFFFFFFFFFFFFFFFFF MUL NOT AND SWAP1 DUP4 PUSH20 0xFFFFFFFFFFFFFFFFFFFFFFFFFFFFFFFFFFFFFFFF AND MUL OR SWAP1 SSTORE POP DUP1 PUSH1 0xE PUSH1 0x14 PUSH2 0x100 EXP DUP2 SLOAD DUP2 PUSH1 0xFF MUL NOT AND SWAP1 DUP4 ISZERO ISZERO MUL OR SWAP1 SSTORE POP PUSH0 PUSH1 0xD DUP2 SWAP1 SSTORE POP POP POP POP POP POP PUSH3 0x874 JUMP JUMPDEST PUSH0 PUSH1 0x6 PUSH0 SWAP1 SLOAD SWAP1 PUSH2 0x100 EXP SWAP1 DIV PUSH20 0xFFFFFFFFFFFFFFFFFFFFFFFFFFFFFFFFFFFFFFFF AND SWAP1 POP DUP2 PUSH1 0x6 PUSH0 PUSH2 0x100 EXP DUP2 SLOAD DUP2 PUSH20 0xFFFFFFFFFFFFFFFFFFFFFFFFFFFFFFFFFFFFFFFF MUL NOT AND SWAP1 DUP4 PUSH20 0xFFFFFFFFFFFFFFFFFFFFFFFFFFFFFFFFFFFFFFFF AND MUL OR SWAP1 SSTORE POP DUP2 PUSH20 0xFFFFFFFFFFFFFFFFFFFFFFFFFFFFFFFFFFFFFFFF AND DUP2 PUSH20 0xFFFFFFFFFFFFFFFFFFFFFFFFFFFFFFFFFFFFFFFF AND PUSH32 0x8BE0079C531659141344CD1FD0A4F28419497F9722A3DAAFE3B4186F6B6457E0 PUSH1 0x40 MLOAD PUSH1 0x40 MLOAD DUP1 SWAP2 SUB SWAP1 LOG3 POP POP JUMP JUMPDEST PUSH0 PUSH1 0x40 MLOAD SWAP1 POP SWAP1 JUMP JUMPDEST PUSH0 DUP1 REVERT JUMPDEST PUSH0 DUP1 REVERT JUMPDEST PUSH0 DUP1 REVERT JUMPDEST PUSH0 DUP1 REVERT JUMPDEST PUSH0 PUSH1 0x1F NOT PUSH1 0x1F DUP4 ADD AND SWAP1 POP SWAP2 SWAP1 POP JUMP JUMPDEST PUSH32 0x4E487B7100000000000000000000000000000000000000000000000000000000 PUSH0 MSTORE PUSH1 0x41 PUSH1 0x4 MSTORE PUSH1 0x24 PUSH0 REVERT JUMPDEST PUSH3 0x28D DUP3 PUSH3 0x245 JUMP JUMPDEST DUP2 ADD DUP2 DUP2 LT PUSH8 0xFFFFFFFFFFFFFFFF DUP3 GT OR ISZERO PUSH3 0x2AF JUMPI PUSH3 0x2AE PUSH3 0x255 JUMP JUMPDEST JUMPDEST DUP1 PUSH1 0x40 MSTORE POP POP POP JUMP JUMPDEST PUSH0 PUSH3 0x2C3 PUSH3 0x22C JUMP JUMPDEST SWAP1 POP PUSH3 0x2D1 DUP3 DUP3 PUSH3 0x282 JUMP JUMPDEST SWAP2 SWAP1 POP JUMP JUMPDEST PUSH0 PUSH8 0xFFFFFFFFFFFFFFFF DUP3 GT ISZERO PUSH3 0x2F3 JUMPI PUSH3 0x2F2 PUSH3 0x255 JUMP JUMPDEST JUMPDEST PUSH3 0x2FE DUP3 PUSH3 0x245 JUMP JUMPDEST SWAP1 POP PUSH1 0x20 DUP2 ADD SWAP1 POP SWAP2 SWAP1 POP JUMP JUMPDEST PUSH0 JUMPDEST DUP4 DUP2 LT ISZERO PUSH3 0x32A JUMPI DUP1 DUP3 ADD MLOAD DUP2 DUP5 ADD MSTORE PUSH1 0x20 DUP2 ADD SWAP1 POP PUSH3 0x30D JUMP JUMPDEST PUSH0 DUP5 DUP5 ADD MSTORE POP POP POP POP JUMP JUMPDEST PUSH0 PUSH3 0x34B PUSH3 0x345 DUP5 PUSH3 0x2D6 JUMP JUMPDEST PUSH3 0x2B8 JUMP JUMPDEST SWAP1 POP DUP3 DUP2 MSTORE PUSH1 0x20 DUP2 ADD DUP5 DUP5 DUP5 ADD GT ISZERO PUSH3 0x36A JUMPI PUSH3 0x369 PUSH3 0x241 JUMP JUMPDEST JUMPDEST PUSH3 0x377 DUP5 DUP3 DUP6 PUSH3 0x30B JUMP JUMPDEST POP SWAP4 SWAP3 POP POP POP JUMP JUMPDEST PUSH0 DUP3 PUSH1 0x1F DUP4 ADD SLT PUSH3 0x396 JUMPI PUSH3 0x395 PUSH3 0x23D JUMP JUMPDEST JUMPDEST DUP2 MLOAD PUSH3 0x3A8 DUP5 DUP3 PUSH1 0x20 DUP7 ADD PUSH3 0x335 JUMP JUMPDEST SWAP2 POP POP SWAP3 SWAP2 POP POP JUMP JUMPDEST PUSH0 PUSH20 0xFFFFFFFFFFFFFFFFFFFFFFFFFFFFFFFFFFFFFFFF DUP3 AND SWAP1 POP SWAP2 SWAP1 POP JUMP JUMPDEST PUSH0 PUSH3 0x3DC DUP3 PUSH3 0x3B1 JUMP JUMPDEST SWAP1 POP SWAP2 SWAP1 POP JUMP JUMPDEST PUSH3 0x3EE DUP2 PUSH3 0x3D0 JUMP JUMPDEST DUP2 EQ PUSH3 0x3F9 JUMPI PUSH0 DUP1 REVERT JUMPDEST POP JUMP JUMPDEST PUSH0 DUP2 MLOAD SWAP1 POP PUSH3 0x40C DUP2 PUSH3 0x3E3 JUMP JUMPDEST SWAP3 SWAP2 POP POP JUMP JUMPDEST PUSH0 DUP2 ISZERO ISZERO SWAP1 POP SWAP2 SWAP1 POP JUMP JUMPDEST PUSH3 0x428 DUP2 PUSH3 0x412 JUMP JUMPDEST DUP2 EQ PUSH3 0x433 JUMPI PUSH0 DUP1 REVERT JUMPDEST POP JUMP JUMPDEST PUSH0 DUP2 MLOAD SWAP1 POP PUSH3 0x446 DUP2 PUSH3 0x41D JUMP JUMPDEST SWAP3 SWAP2 POP POP JUMP JUMPDEST PUSH0 DUP1 PUSH0 DUP1 PUSH0 PUSH1 0xA0 DUP7 DUP9 SUB SLT ISZERO PUSH3 0x468 JUMPI PUSH3 0x467 PUSH3 0x235 JUMP JUMPDEST JUMPDEST PUSH0 DUP7 ADD MLOAD PUSH8 0xFFFFFFFFFFFFFFFF DUP2 GT ISZERO PUSH3 0x488 JUMPI PUSH3 0x487 PUSH3 0x239 JUMP JUMPDEST JUMPDEST PUSH3 0x496 DUP9 DUP3 DUP10 ADD PUSH3 0x37F JUMP JUMPDEST SWAP6 POP POP PUSH1 0x20 DUP7 ADD MLOAD PUSH8 0xFFFFFFFFFFFFFFFF DUP2 GT ISZERO PUSH3 0x4BA JUMPI PUSH3 0x4B9 PUSH3 0x239 JUMP JUMPDEST JUMPDEST PUSH3 0x4C8 DUP9 DUP3 DUP10 ADD PUSH3 0x37F JUMP JUMPDEST SWAP5 POP POP PUSH1 0x40 DUP7 ADD MLOAD PUSH8 0xFFFFFFFFFFFFFFFF DUP2 GT ISZERO PUSH3 0x4EC JUMPI PUSH3 0x4EB PUSH3 0x239 JUMP JUMPDEST JUMPDEST PUSH3 0x4FA DUP9 DUP3 DUP10 ADD PUSH3 0x37F JUMP JUMPDEST SWAP4 POP POP PUSH1 0x60 PUSH3 0x50D DUP9 DUP3 DUP10 ADD PUSH3 0x3FC JUMP JUMPDEST SWAP3 POP POP PUSH1 0x80 PUSH3 0x520 DUP9 DUP3 DUP10 ADD PUSH3 0x436 JUMP JUMPDEST SWAP2 POP POP SWAP3 SWAP6 POP SWAP3 SWAP6 SWAP1 SWAP4 POP JUMP JUMPDEST PUSH0 DUP2 MLOAD SWAP1 POP SWAP2 SWAP1 POP JUMP JUMPDEST PUSH32 0x4E487B7100000000000000000000000000000000000000000000000000000000 PUSH0 MSTORE PUSH1 0x22 PUSH1 0x4 MSTORE PUSH1 0x24 PUSH0 REVERT JUMPDEST PUSH0 PUSH1 0x2 DUP3 DIV SWAP1 POP PUSH1 0x1 DUP3 AND DUP1 PUSH3 0x57C JUMPI PUSH1 0x7F DUP3 AND SWAP2 POP JUMPDEST PUSH1 0x20 DUP3 LT DUP2 SUB PUSH3 0x592 JUMPI PUSH3 0x591 PUSH3 0x537 JUMP JUMPDEST JUMPDEST POP SWAP2 SWAP1 POP JUMP JUMPDEST PUSH0 DUP2 SWAP1 POP DUP2 PUSH0 MSTORE PUSH1 0x20 PUSH0 KECCAK256 SWAP1 POP SWAP2 SWAP1 POP JUMP JUMPDEST PUSH0 PUSH1 0x20 PUSH1 0x1F DUP4 ADD DIV SWAP1 POP SWAP2 SWAP1 POP JUMP JUMPDEST PUSH0 DUP3 DUP3 SHL SWAP1 POP SWAP3 SWAP2 POP POP JUMP JUMPDEST PUSH0 PUSH1 0x8 DUP4 MUL PUSH3 0x5F6 PUSH32 0xFFFFFFFFFFFFFFFFFFFFFFFFFFFFFFFFFFFFFFFFFFFFFFFFFFFFFFFFFFFFFFFF DUP3 PUSH3 0x5B9 JUMP JUMPDEST PUSH3 0x602 DUP7 DUP4 PUSH3 0x5B9 JUMP JUMPDEST SWAP6 POP DUP1 NOT DUP5 AND SWAP4 POP DUP1 DUP7 AND DUP5 OR SWAP3 POP POP POP SWAP4 SWAP3 POP POP POP JUMP JUMPDEST PUSH0 DUP2 SWAP1 POP SWAP2 SWAP1 POP JUMP JUMPDEST PUSH0 DUP2 SWAP1 POP SWAP2 SWAP1 POP JUMP JUMPDEST PUSH0 PUSH3 0x64C PUSH3 0x646 PUSH3 0x640 DUP5 PUSH3 0x61A JUMP JUMPDEST PUSH3 0x623 JUMP JUMPDEST PUSH3 0x61A JUMP JUMPDEST SWAP1 POP SWAP2 SWAP1 POP JUMP JUMPDEST PUSH0 DUP2 SWAP1 POP SWAP2 SWAP1 POP JUMP JUMPDEST PUSH3 0x667 DUP4 PUSH3 0x62C JUMP JUMPDEST PUSH3 0x67F PUSH3 0x676 DUP3 PUSH3 0x653 JUMP JUMPDEST DUP5 DUP5 SLOAD PUSH3 0x5C5 JUMP JUMPDEST DUP3 SSTORE POP POP POP POP JUMP JUMPDEST PUSH0 SWAP1 JUMP JUMPDEST PUSH3 0x695 PUSH3 0x687 JUMP JUMPDEST PUSH3 0x6A2 DUP2 DUP5 DUP5 PUSH3 0x65C JUMP JUMPDEST POP POP POP JUMP JUMPDEST JUMPDEST DUP2 DUP2 LT ISZERO PUSH3 0x6C9 JUMPI PUSH3 0x6BD PUSH0 DUP3 PUSH3 0x68B JUMP JUMPDEST PUSH1 0x1 DUP2 ADD SWAP1 POP PUSH3 0x6A8 JUMP JUMPDEST POP POP JUMP JUMPDEST PUSH1 0x1F DUP3 GT ISZERO PUSH3 0x718 JUMPI PUSH3 0x6E2 DUP2 PUSH3 0x598 JUMP JUMPDEST PUSH3 0x6ED DUP5 PUSH3 0x5AA JUMP JUMPDEST DUP2 ADD PUSH1 0x20 DUP6 LT ISZERO PUSH3 0x6FD JUMPI DUP2 SWAP1 POP JUMPDEST PUSH3 0x715 PUSH3 0x70C DUP6 PUSH3 0x5AA JUMP JUMPDEST DUP4 ADD DUP3 PUSH3 0x6A7 JUMP JUMPDEST POP POP JUMPDEST POP POP POP JUMP JUMPDEST PUSH0 DUP3 DUP3 SHR SWAP1 POP SWAP3 SWAP2 POP POP JUMP JUMPDEST PUSH0 PUSH3 0x73A PUSH0 NOT DUP5 PUSH1 0x8 MUL PUSH3 0x71D JUMP JUMPDEST NOT DUP1 DUP4 AND SWAP2 POP POP SWAP3 SWAP2 POP POP JUMP JUMPDEST PUSH0 PUSH3 0x754 DUP4 DUP4 PUSH3 0x729 JUMP JUMPDEST SWAP2 POP DUP3 PUSH1 0x2 MUL DUP3 OR SWAP1 POP SWAP3 SWAP2 POP POP JUMP JUMPDEST PUSH3 0x76F DUP3 PUSH3 0x52D JUMP JUMPDEST PUSH8 0xFFFFFFFFFFFFFFFF DUP2 GT ISZERO PUSH3 0x78B JUMPI PUSH3 0x78A PUSH3 0x255 JUMP JUMPDEST JUMPDEST PUSH3 0x797 DUP3 SLOAD PUSH3 0x564 JUMP JUMPDEST PUSH3 0x7A4 DUP3 DUP3 DUP6 PUSH3 0x6CD JUMP JUMPDEST PUSH0 PUSH1 0x20 SWAP1 POP PUSH1 0x1F DUP4 GT PUSH1 0x1 DUP2 EQ PUSH3 0x7DA JUMPI PUSH0 DUP5 ISZERO PUSH3 0x7C5 JUMPI DUP3 DUP8 ADD MLOAD SWAP1 POP JUMPDEST PUSH3 0x7D1 DUP6 DUP3 PUSH3 0x747 JUMP JUMPDEST DUP7 SSTORE POP PUSH3 0x840 JUMP JUMPDEST PUSH1 0x1F NOT DUP5 AND PUSH3 0x7EA DUP7 PUSH3 0x598 JUMP JUMPDEST PUSH0 JUMPDEST DUP3 DUP2 LT ISZERO PUSH3 0x813 JUMPI DUP5 DUP10 ADD MLOAD DUP3 SSTORE PUSH1 0x1 DUP3 ADD SWAP2 POP PUSH1 0x20 DUP6 ADD SWAP5 POP PUSH1 0x20 DUP2 ADD SWAP1 POP PUSH3 0x7EC JUMP JUMPDEST DUP7 DUP4 LT ISZERO PUSH3 0x833 JUMPI DUP5 DUP10 ADD MLOAD PUSH3 0x82F PUSH1 0x1F DUP10 AND DUP3 PUSH3 0x729 JUMP JUMPDEST DUP4 SSTORE POP JUMPDEST PUSH1 0x1 PUSH1 0x2 DUP9 MUL ADD DUP9 SSTORE POP POP POP JUMPDEST POP POP POP POP POP POP JUMP JUMPDEST PUSH3 0x853 DUP2 PUSH3 0x3D0 JUMP JUMPDEST DUP3 MSTORE POP POP JUMP JUMPDEST PUSH0 PUSH1 0x20 DUP3 ADD SWAP1 POP PUSH3 0x86E PUSH0 DUP4 ADD DUP5 PUSH3 0x848 JUMP JUMPDEST SWAP3 SWAP2 POP POP JUMP JUMPDEST PUSH2 0x5A97 DUP1 PUSH3 0x882 PUSH0 CODECOPY PUSH0 RETURN INVALID PUSH1 0x80 PUSH1 0x40 MSTORE CALLVALUE DUP1 ISZERO PUSH2 0xF JUMPI PUSH0 DUP1 REVERT JUMPDEST POP PUSH1 0x4 CALLDATASIZE LT PUSH2 0x230 JUMPI PUSH0 CALLDATALOAD PUSH1 0xE0 SHR DUP1 PUSH4 0x715018A6 GT PUSH2 0x12E JUMPI DUP1 PUSH4 0xC5762EF7 GT PUSH2 0xB6 JUMPI DUP1 PUSH4 0xE985E9C5 GT PUSH2 0x7A JUMPI DUP1 PUSH4 0xE985E9C5 EQ PUSH2 0x6AA JUMPI DUP1 PUSH4 0xF08F4F64 EQ PUSH2 0x6DA JUMPI DUP1 PUSH4 0xF2FDE38B EQ PUSH2 0x70A JUMPI DUP1 PUSH4 0xFA528649 EQ PUSH2 0x726 JUMPI DUP1 PUSH4 0xFF6A0BFF EQ PUSH2 0x742 JUMPI PUSH2 0x230 JUMP JUMPDEST DUP1 PUSH4 0xC5762EF7 EQ PUSH2 0x5E0 JUMPI DUP1 PUSH4 0xC87B56DD EQ PUSH2 0x5FE JUMPI DUP1 PUSH4 0xDC390450 EQ PUSH2 0x62E JUMPI DUP1 PUSH4 0xE16C0652 EQ PUSH2 0x64A JUMPI DUP1 PUSH4 0xE2A0E9F2 EQ PUSH2 0x67A JUMPI PUSH2 0x230 JUMP JUMPDEST DUP1 PUSH4 0x998DFBB2 GT PUSH2 0xFD JUMPI DUP1 PUSH4 0x998DFBB2 EQ PUSH2 0x52A JUMPI DUP1 PUSH4 0xA22CB465 EQ PUSH2 0x55A JUMPI DUP1 PUSH4 0xB88D4FDE EQ PUSH2 0x576 JUMPI DUP1 PUSH4 0xC048BC13 EQ PUSH2 0x592 JUMPI DUP1 PUSH4 0xC3135E1A EQ PUSH2 0x5B0 JUMPI PUSH2 0x230 JUMP JUMPDEST DUP1 PUSH4 0x715018A6 EQ PUSH2 0x4C8 JUMPI DUP1 PUSH4 0x898CDB86 EQ PUSH2 0x4D2 JUMPI DUP1 PUSH4 0x8DA5CB5B EQ PUSH2 0x4EE JUMPI DUP1 PUSH4 0x95D89B41 EQ PUSH2 0x50C JUMPI PUSH2 0x230 JUMP JUMPDEST DUP1 PUSH4 0x23B872DD GT PUSH2 0x1BC JUMPI DUP1 PUSH4 0x5F13E97C GT PUSH2 0x180 JUMPI DUP1 PUSH4 0x5F13E97C EQ PUSH2 0x424 JUMPI DUP1 PUSH4 0x62EC9354 EQ PUSH2 0x42E JUMPI DUP1 PUSH4 0x6352211E EQ PUSH2 0x44A JUMPI DUP1 PUSH4 0x65D65E86 EQ PUSH2 0x47A JUMPI DUP1 PUSH4 0x70A08231 EQ PUSH2 0x498 JUMPI PUSH2 0x230 JUMP JUMPDEST DUP1 PUSH4 0x23B872DD EQ PUSH2 0x384 JUMPI DUP1 PUSH4 0x42842E0E EQ PUSH2 0x3A0 JUMPI DUP1 PUSH4 0x43E91F48 EQ PUSH2 0x3BC JUMPI DUP1 PUSH4 0x522BEC8D EQ PUSH2 0x3D8 JUMPI DUP1 PUSH4 0x55F804B3 EQ PUSH2 0x408 JUMPI PUSH2 0x230 JUMP JUMPDEST DUP1 PUSH4 0xFA12160 GT PUSH2 0x203 JUMPI DUP1 PUSH4 0xFA12160 EQ PUSH2 0x2CE JUMPI DUP1 PUSH4 0x13036808 EQ PUSH2 0x2FE JUMPI DUP1 PUSH4 0x18160DDD EQ PUSH2 0x31A JUMPI DUP1 PUSH4 0x1830F737 EQ PUSH2 0x338 JUMPI DUP1 PUSH4 0x1D638F8C EQ PUSH2 0x354 JUMPI PUSH2 0x230 JUMP JUMPDEST DUP1 PUSH4 0x1FFC9A7 EQ PUSH2 0x234 JUMPI DUP1 PUSH4 0x6FDDE03 EQ PUSH2 0x264 JUMPI DUP1 PUSH4 0x81812FC EQ PUSH2 0x282 JUMPI DUP1 PUSH4 0x95EA7B3 EQ PUSH2 0x2B2 JUMPI JUMPDEST PUSH0 DUP1 REVERT JUMPDEST PUSH2 0x24E PUSH1 0x4 DUP1 CALLDATASIZE SUB DUP2 ADD SWAP1 PUSH2 0x249 SWAP2 SWAP1 PUSH2 0x453A JUMP JUMPDEST PUSH2 0x772 JUMP JUMPDEST PUSH1 0x40 MLOAD PUSH2 0x25B SWAP2 SWAP1 PUSH2 0x457F JUMP JUMPDEST PUSH1 0x40 MLOAD DUP1 SWAP2 SUB SWAP1 RETURN JUMPDEST PUSH2 0x26C PUSH2 0x853 JUMP JUMPDEST PUSH1 0x40 MLOAD PUSH2 0x279 SWAP2 SWAP1 PUSH2 0x4622 JUMP JUMPDEST PUSH1 0x40 MLOAD DUP1 SWAP2 SUB SWAP1 RETURN JUMPDEST PUSH2 0x29C PUSH1 0x4 DUP1 CALLDATASIZE SUB DUP2 ADD SWAP1 PUSH2 0x297 SWAP2 SWAP1 PUSH2 0x4675 JUMP JUMPDEST PUSH2 0x8E2 JUMP JUMPDEST PUSH1 0x40 MLOAD PUSH2 0x2A9 SWAP2 SWAP1 PUSH2 0x46DF JUMP JUMPDEST PUSH1 0x40 MLOAD DUP1 SWAP2 SUB SWAP1 RETURN JUMPDEST PUSH2 0x2CC PUSH1 0x4 DUP1 CALLDATASIZE SUB DUP2 ADD SWAP1 PUSH2 0x2C7 SWAP2 SWAP1 PUSH2 0x4722 JUMP JUMPDEST PUSH2 0x8FD JUMP JUMPDEST STOP JUMPDEST PUSH2 0x2E8 PUSH1 0x4 DUP1 CALLDATASIZE SUB DUP2 ADD SWAP1 PUSH2 0x2E3 SWAP2 SWAP1 PUSH2 0x4760 JUMP JUMPDEST PUSH2 0x938 JUMP JUMPDEST PUSH1 0x40 MLOAD PUSH2 0x2F5 SWAP2 SWAP1 PUSH2 0x4899 JUMP JUMPDEST PUSH1 0x40 MLOAD DUP1 SWAP2 SUB SWAP1 RETURN JUMPDEST PUSH2 0x318 PUSH1 0x4 DUP1 CALLDATASIZE SUB DUP2 ADD SWAP1 PUSH2 0x313 SWAP2 SWAP1 PUSH2 0x491A JUMP JUMPDEST PUSH2 0xB7E JUMP JUMPDEST STOP JUMPDEST PUSH2 0x322 PUSH2 0xEAC JUMP JUMPDEST PUSH1 0x40 MLOAD PUSH2 0x32F SWAP2 SWAP1 PUSH2 0x4974 JUMP JUMPDEST PUSH1 0x40 MLOAD DUP1 SWAP2 SUB SWAP1 RETURN JUMPDEST PUSH2 0x352 PUSH1 0x4 DUP1 CALLDATASIZE SUB DUP2 ADD SWAP1 PUSH2 0x34D SWAP2 SWAP1 PUSH2 0x49B7 JUMP JUMPDEST PUSH2 0xEB5 JUMP JUMPDEST STOP JUMPDEST PUSH2 0x36E PUSH1 0x4 DUP1 CALLDATASIZE SUB DUP2 ADD SWAP1 PUSH2 0x369 SWAP2 SWAP1 PUSH2 0x4760 JUMP JUMPDEST PUSH2 0xFCB JUMP JUMPDEST PUSH1 0x40 MLOAD PUSH2 0x37B SWAP2 SWAP1 PUSH2 0x4974 JUMP JUMPDEST PUSH1 0x40 MLOAD DUP1 SWAP2 SUB SWAP1 RETURN JUMPDEST PUSH2 0x39E PUSH1 0x4 DUP1 CALLDATASIZE SUB DUP2 ADD SWAP1 PUSH2 0x399 SWAP2 SWAP1 PUSH2 0x49E2 JUMP JUMPDEST PUSH2 0x1011 JUMP JUMPDEST STOP JUMPDEST PUSH2 0x3BA PUSH1 0x4 DUP1 CALLDATASIZE SUB DUP2 ADD SWAP1 PUSH2 0x3B5 SWAP2 SWAP1 PUSH2 0x49E2 JUMP JUMPDEST PUSH2 0x1110 JUMP JUMPDEST STOP JUMPDEST PUSH2 0x3D6 PUSH1 0x4 DUP1 CALLDATASIZE SUB DUP2 ADD SWAP1 PUSH2 0x3D1 SWAP2 SWAP1 PUSH2 0x4A87 JUMP JUMPDEST PUSH2 0x112F JUMP JUMPDEST STOP JUMPDEST PUSH2 0x3F2 PUSH1 0x4 DUP1 CALLDATASIZE SUB DUP2 ADD SWAP1 PUSH2 0x3ED SWAP2 SWAP1 PUSH2 0x4675 JUMP JUMPDEST PUSH2 0x14C2 JUMP JUMPDEST PUSH1 0x40 MLOAD PUSH2 0x3FF SWAP2 SWAP1 PUSH2 0x457F JUMP JUMPDEST PUSH1 0x40 MLOAD DUP1 SWAP2 SUB SWAP1 RETURN JUMPDEST PUSH2 0x422 PUSH1 0x4 DUP1 CALLDATASIZE SUB DUP2 ADD SWAP1 PUSH2 0x41D SWAP2 SWAP1 PUSH2 0x4C2D JUMP JUMPDEST PUSH2 0x14E8 JUMP JUMPDEST STOP JUMPDEST PUSH2 0x42C PUSH2 0x1503 JUMP JUMPDEST STOP JUMPDEST PUSH2 0x448 PUSH1 0x4 DUP1 CALLDATASIZE SUB DUP2 ADD SWAP1 PUSH2 0x443 SWAP2 SWAP1 PUSH2 0x4C74 JUMP JUMPDEST PUSH2 0x1619 JUMP JUMPDEST STOP JUMPDEST PUSH2 0x464 PUSH1 0x4 DUP1 CALLDATASIZE SUB DUP2 ADD SWAP1 PUSH2 0x45F SWAP2 SWAP1 PUSH2 0x4675 JUMP JUMPDEST PUSH2 0x1F02 JUMP JUMPDEST PUSH1 0x40 MLOAD PUSH2 0x471 SWAP2 SWAP1 PUSH2 0x46DF JUMP JUMPDEST PUSH1 0x40 MLOAD DUP1 SWAP2 SUB SWAP1 RETURN JUMPDEST PUSH2 0x482 PUSH2 0x1F13 JUMP JUMPDEST PUSH1 0x40 MLOAD PUSH2 0x48F SWAP2 SWAP1 PUSH2 0x46DF JUMP JUMPDEST PUSH1 0x40 MLOAD DUP1 SWAP2 SUB SWAP1 RETURN JUMPDEST PUSH2 0x4B2 PUSH1 0x4 DUP1 CALLDATASIZE SUB DUP2 ADD SWAP1 PUSH2 0x4AD SWAP2 SWAP1 PUSH2 0x4760 JUMP JUMPDEST PUSH2 0x1F38 JUMP JUMPDEST PUSH1 0x40 MLOAD PUSH2 0x4BF SWAP2 SWAP1 PUSH2 0x4974 JUMP JUMPDEST PUSH1 0x40 MLOAD DUP1 SWAP2 SUB SWAP1 RETURN JUMPDEST PUSH2 0x4D0 PUSH2 0x1FEE JUMP JUMPDEST STOP JUMPDEST PUSH2 0x4EC PUSH1 0x4 DUP1 CALLDATASIZE SUB DUP2 ADD SWAP1 PUSH2 0x4E7 SWAP2 SWAP1 PUSH2 0x4760 JUMP JUMPDEST PUSH2 0x2001 JUMP JUMPDEST STOP JUMPDEST PUSH2 0x4F6 PUSH2 0x20FD JUMP JUMPDEST PUSH1 0x40 MLOAD PUSH2 0x503 SWAP2 SWAP1 PUSH2 0x46DF JUMP JUMPDEST PUSH1 0x40 MLOAD DUP1 SWAP2 SUB SWAP1 RETURN JUMPDEST PUSH2 0x514 PUSH2 0x2125 JUMP JUMPDEST PUSH1 0x40 MLOAD PUSH2 0x521 SWAP2 SWAP1 PUSH2 0x4622 JUMP JUMPDEST PUSH1 0x40 MLOAD DUP1 SWAP2 SUB SWAP1 RETURN JUMPDEST PUSH2 0x544 PUSH1 0x4 DUP1 CALLDATASIZE SUB DUP2 ADD SWAP1 PUSH2 0x53F SWAP2 SWAP1 PUSH2 0x4760 JUMP JUMPDEST PUSH2 0x21B5 JUMP JUMPDEST PUSH1 0x40 MLOAD PUSH2 0x551 SWAP2 SWAP1 PUSH2 0x4D0C JUMP JUMPDEST PUSH1 0x40 MLOAD DUP1 SWAP2 SUB SWAP1 RETURN JUMPDEST PUSH2 0x574 PUSH1 0x4 DUP1 CALLDATASIZE SUB DUP2 ADD SWAP1 PUSH2 0x56F SWAP2 SWAP1 PUSH2 0x4D2C JUMP JUMPDEST PUSH2 0x2324 JUMP JUMPDEST STOP JUMPDEST PUSH2 0x590 PUSH1 0x4 DUP1 CALLDATASIZE SUB DUP2 ADD SWAP1 PUSH2 0x58B SWAP2 SWAP1 PUSH2 0x4E08 JUMP JUMPDEST PUSH2 0x235F JUMP JUMPDEST STOP JUMPDEST PUSH2 0x59A PUSH2 0x2384 JUMP JUMPDEST PUSH1 0x40 MLOAD PUSH2 0x5A7 SWAP2 SWAP1 PUSH2 0x4974 JUMP JUMPDEST PUSH1 0x40 MLOAD DUP1 SWAP2 SUB SWAP1 RETURN JUMPDEST PUSH2 0x5CA PUSH1 0x4 DUP1 CALLDATASIZE SUB DUP2 ADD SWAP1 PUSH2 0x5C5 SWAP2 SWAP1 PUSH2 0x4760 JUMP JUMPDEST PUSH2 0x26BC JUMP JUMPDEST PUSH1 0x40 MLOAD PUSH2 0x5D7 SWAP2 SWAP1 PUSH2 0x457F JUMP JUMPDEST PUSH1 0x40 MLOAD DUP1 SWAP2 SUB SWAP1 RETURN JUMPDEST PUSH2 0x5E8 PUSH2 0x270E JUMP JUMPDEST PUSH1 0x40 MLOAD PUSH2 0x5F5 SWAP2 SWAP1 PUSH2 0x457F JUMP JUMPDEST PUSH1 0x40 MLOAD DUP1 SWAP2 SUB SWAP1 RETURN JUMPDEST PUSH2 0x618 PUSH1 0x4 DUP1 CALLDATASIZE SUB DUP2 ADD SWAP1 PUSH2 0x613 SWAP2 SWAP1 PUSH2 0x4675 JUMP JUMPDEST PUSH2 0x2721 JUMP JUMPDEST PUSH1 0x40 MLOAD PUSH2 0x625 SWAP2 SWAP1 PUSH2 0x4622 JUMP JUMPDEST PUSH1 0x40 MLOAD DUP1 SWAP2 SUB SWAP1 RETURN JUMPDEST PUSH2 0x648 PUSH1 0x4 DUP1 CALLDATASIZE SUB DUP2 ADD SWAP1 PUSH2 0x643 SWAP2 SWAP1 PUSH2 0x4E88 JUMP JUMPDEST PUSH2 0x2787 JUMP JUMPDEST STOP JUMPDEST PUSH2 0x664 PUSH1 0x4 DUP1 CALLDATASIZE SUB DUP2 ADD SWAP1 PUSH2 0x65F SWAP2 SWAP1 PUSH2 0x4760 JUMP JUMPDEST PUSH2 0x2AA3 JUMP JUMPDEST PUSH1 0x40 MLOAD PUSH2 0x671 SWAP2 SWAP1 PUSH2 0x457F JUMP JUMPDEST PUSH1 0x40 MLOAD DUP1 SWAP2 SUB SWAP1 RETURN JUMPDEST PUSH2 0x694 PUSH1 0x4 DUP1 CALLDATASIZE SUB DUP2 ADD SWAP1 PUSH2 0x68F SWAP2 SWAP1 PUSH2 0x4760 JUMP JUMPDEST PUSH2 0x2B62 JUMP JUMPDEST PUSH1 0x40 MLOAD PUSH2 0x6A1 SWAP2 SWAP1 PUSH2 0x4974 JUMP JUMPDEST PUSH1 0x40 MLOAD DUP1 SWAP2 SUB SWAP1 RETURN JUMPDEST PUSH2 0x6C4 PUSH1 0x4 DUP1 CALLDATASIZE SUB DUP2 ADD SWAP1 PUSH2 0x6BF SWAP2 SWAP1 PUSH2 0x4ED3 JUMP JUMPDEST PUSH2 0x2F9E JUMP JUMPDEST PUSH1 0x40 MLOAD PUSH2 0x6D1 SWAP2 SWAP1 PUSH2 0x457F JUMP JUMPDEST PUSH1 0x40 MLOAD DUP1 SWAP2 SUB SWAP1 RETURN JUMPDEST PUSH2 0x6F4 PUSH1 0x4 DUP1 CALLDATASIZE SUB DUP2 ADD SWAP1 PUSH2 0x6EF SWAP2 SWAP1 PUSH2 0x4675 JUMP JUMPDEST PUSH2 0x302C JUMP JUMPDEST PUSH1 0x40 MLOAD PUSH2 0x701 SWAP2 SWAP1 PUSH2 0x4899 JUMP JUMPDEST PUSH1 0x40 MLOAD DUP1 SWAP2 SUB SWAP1 RETURN JUMPDEST PUSH2 0x724 PUSH1 0x4 DUP1 CALLDATASIZE SUB DUP2 ADD SWAP1 PUSH2 0x71F SWAP2 SWAP1 PUSH2 0x4760 JUMP JUMPDEST PUSH2 0x31EF JUMP JUMPDEST STOP JUMPDEST PUSH2 0x740 PUSH1 0x4 DUP1 CALLDATASIZE SUB DUP2 ADD SWAP1 PUSH2 0x73B SWAP2 SWAP1 PUSH2 0x49B7 JUMP JUMPDEST PUSH2 0x3273 JUMP JUMPDEST STOP JUMPDEST PUSH2 0x75C PUSH1 0x4 DUP1 CALLDATASIZE SUB DUP2 ADD SWAP1 PUSH2 0x757 SWAP2 SWAP1 PUSH2 0x4760 JUMP JUMPDEST PUSH2 0x32CF JUMP JUMPDEST PUSH1 0x40 MLOAD PUSH2 0x769 SWAP2 SWAP1 PUSH2 0x4F20 JUMP JUMPDEST PUSH1 0x40 MLOAD DUP1 SWAP2 SUB SWAP1 RETURN JUMPDEST PUSH0 PUSH32 0x80AC58CD00000000000000000000000000000000000000000000000000000000 PUSH28 0xFFFFFFFFFFFFFFFFFFFFFFFFFFFFFFFFFFFFFFFFFFFFFFFFFFFFFFFF NOT AND DUP3 PUSH28 0xFFFFFFFFFFFFFFFFFFFFFFFFFFFFFFFFFFFFFFFFFFFFFFFFFFFFFFFF NOT AND EQ DUP1 PUSH2 0x83C JUMPI POP PUSH32 0x5B5E139F00000000000000000000000000000000000000000000000000000000 PUSH28 0xFFFFFFFFFFFFFFFFFFFFFFFFFFFFFFFFFFFFFFFFFFFFFFFFFFFFFFFF NOT AND DUP3 PUSH28 0xFFFFFFFFFFFFFFFFFFFFFFFFFFFFFFFFFFFFFFFFFFFFFFFFFFFFFFFF NOT AND EQ JUMPDEST DUP1 PUSH2 0x84C JUMPI POP PUSH2 0x84B DUP3 PUSH2 0x33B7 JUMP JUMPDEST JUMPDEST SWAP1 POP SWAP2 SWAP1 POP JUMP JUMPDEST PUSH1 0x60 PUSH0 DUP1 SLOAD PUSH2 0x861 SWAP1 PUSH2 0x4F66 JUMP JUMPDEST DUP1 PUSH1 0x1F ADD PUSH1 0x20 DUP1 SWAP2 DIV MUL PUSH1 0x20 ADD PUSH1 0x40 MLOAD SWAP1 DUP2 ADD PUSH1 0x40 MSTORE DUP1 SWAP3 SWAP2 SWAP1 DUP2 DUP2 MSTORE PUSH1 0x20 ADD DUP3 DUP1 SLOAD PUSH2 0x88D SWAP1 PUSH2 0x4F66 JUMP JUMPDEST DUP1 ISZERO PUSH2 0x8D8 JUMPI DUP1 PUSH1 0x1F LT PUSH2 0x8AF JUMPI PUSH2 0x100 DUP1 DUP4 SLOAD DIV MUL DUP4 MSTORE SWAP2 PUSH1 0x20 ADD SWAP2 PUSH2 0x8D8 JUMP JUMPDEST DUP3 ADD SWAP2 SWAP1 PUSH0 MSTORE PUSH1 0x20 PUSH0 KECCAK256 SWAP1 JUMPDEST DUP2 SLOAD DUP2 MSTORE SWAP1 PUSH1 0x1 ADD SWAP1 PUSH1 0x20 ADD DUP1 DUP4 GT PUSH2 0x8BB JUMPI DUP3 SWAP1 SUB PUSH1 0x1F AND DUP3 ADD SWAP2 JUMPDEST POP POP POP POP POP SWAP1 POP SWAP1 JUMP JUMPDEST PUSH0 PUSH2 0x8EC DUP3 PUSH2 0x3420 JUMP JUMPDEST POP PUSH2 0x8F6 DUP3 PUSH2 0x34A6 JUMP JUMPDEST SWAP1 POP SWAP2 SWAP1 POP JUMP JUMPDEST PUSH1 0x40 MLOAD PUSH32 0x8C379A000000000000000000000000000000000000000000000000000000000 DUP2 MSTORE PUSH1 0x4 ADD PUSH2 0x92F SWAP1 PUSH2 0x4FE0 JUMP JUMPDEST PUSH1 0x40 MLOAD DUP1 SWAP2 SUB SWAP1 REVERT JUMPDEST PUSH2 0x940 PUSH2 0x447C JUMP JUMPDEST PUSH1 0xA PUSH0 DUP4 PUSH20 0xFFFFFFFFFFFFFFFFFFFFFFFFFFFFFFFFFFFFFFFF AND PUSH20 0xFFFFFFFFFFFFFFFFFFFFFFFFFFFFFFFFFFFFFFFF AND DUP2 MSTORE PUSH1 0x20 ADD SWAP1 DUP2 MSTORE PUSH1 0x20 ADD PUSH0 KECCAK256 PUSH0 SWAP1 SLOAD SWAP1 PUSH2 0x100 EXP SWAP1 DIV PUSH1 0xFF AND PUSH2 0x9C9 JUMPI PUSH1 0x40 MLOAD PUSH32 0x8C379A000000000000000000000000000000000000000000000000000000000 DUP2 MSTORE PUSH1 0x4 ADD PUSH2 0x9C0 SWAP1 PUSH2 0x5048 JUMP JUMPDEST PUSH1 0x40 MLOAD DUP1 SWAP2 SUB SWAP1 REVERT JUMPDEST PUSH0 PUSH1 0x9 PUSH0 DUP5 PUSH20 0xFFFFFFFFFFFFFFFFFFFFFFFFFFFFFFFFFFFFFFFF AND PUSH20 0xFFFFFFFFFFFFFFFFFFFFFFFFFFFFFFFFFFFFFFFF AND DUP2 MSTORE PUSH1 0x20 ADD SWAP1 DUP2 MSTORE PUSH1 0x20 ADD PUSH0 KECCAK256 SLOAD SWAP1 POP PUSH1 0x8 PUSH0 DUP3 DUP2 MSTORE PUSH1 0x20 ADD SWAP1 DUP2 MSTORE PUSH1 0x20 ADD PUSH0 KECCAK256 PUSH1 0x40 MLOAD DUP1 PUSH1 0xA0 ADD PUSH1 0x40 MSTORE SWAP1 DUP2 PUSH0 DUP3 ADD PUSH0 SWAP1 SLOAD SWAP1 PUSH2 0x100 EXP SWAP1 DIV PUSH20 0xFFFFFFFFFFFFFFFFFFFFFFFFFFFFFFFFFFFFFFFF AND PUSH20 0xFFFFFFFFFFFFFFFFFFFFFFFFFFFFFFFFFFFFFFFF AND PUSH20 0xFFFFFFFFFFFFFFFFFFFFFFFFFFFFFFFFFFFFFFFF AND DUP2 MSTORE PUSH1 0x20 ADD PUSH0 DUP3 ADD PUSH1 0x14 SWAP1 SLOAD SWAP1 PUSH2 0x100 EXP SWAP1 DIV PUSH8 0xFFFFFFFFFFFFFFFF AND PUSH8 0xFFFFFFFFFFFFFFFF AND PUSH8 0xFFFFFFFFFFFFFFFF AND DUP2 MSTORE PUSH1 0x20 ADD PUSH1 0x1 DUP3 ADD PUSH0 SWAP1 SLOAD SWAP1 PUSH2 0x100 EXP SWAP1 DIV PUSH8 0xFFFFFFFFFFFFFFFF AND PUSH8 0xFFFFFFFFFFFFFFFF AND PUSH8 0xFFFFFFFFFFFFFFFF AND DUP2 MSTORE PUSH1 0x20 ADD PUSH1 0x2 DUP3 ADD SLOAD DUP2 MSTORE PUSH1 0x20 ADD PUSH1 0x3 DUP3 ADD DUP1 SLOAD PUSH2 0xAF6 SWAP1 PUSH2 0x4F66 JUMP JUMPDEST DUP1 PUSH1 0x1F ADD PUSH1 0x20 DUP1 SWAP2 DIV MUL PUSH1 0x20 ADD PUSH1 0x40 MLOAD SWAP1 DUP2 ADD PUSH1 0x40 MSTORE DUP1 SWAP3 SWAP2 SWAP1 DUP2 DUP2 MSTORE PUSH1 0x20 ADD DUP3 DUP1 SLOAD PUSH2 0xB22 SWAP1 PUSH2 0x4F66 JUMP JUMPDEST DUP1 ISZERO PUSH2 0xB6D JUMPI DUP1 PUSH1 0x1F LT PUSH2 0xB44 JUMPI PUSH2 0x100 DUP1 DUP4 SLOAD DIV MUL DUP4 MSTORE SWAP2 PUSH1 0x20 ADD SWAP2 PUSH2 0xB6D JUMP JUMPDEST DUP3 ADD SWAP2 SWAP1 PUSH0 MSTORE PUSH1 0x20 PUSH0 KECCAK256 SWAP1 JUMPDEST DUP2 SLOAD DUP2 MSTORE SWAP1 PUSH1 0x1 ADD SWAP1 PUSH1 0x20 ADD DUP1 DUP4 GT PUSH2 0xB50 JUMPI DUP3 SWAP1 SUB PUSH1 0x1F AND DUP3 ADD SWAP2 JUMPDEST POP POP POP POP POP DUP2 MSTORE POP POP SWAP2 POP POP SWAP2 SWAP1 POP JUMP JUMPDEST CALLER PUSH1 0xA PUSH0 DUP3 PUSH20 0xFFFFFFFFFFFFFFFFFFFFFFFFFFFFFFFFFFFFFFFF AND PUSH20 0xFFFFFFFFFFFFFFFFFFFFFFFFFFFFFFFFFFFFFFFF AND DUP2 MSTORE PUSH1 0x20 ADD SWAP1 DUP2 MSTORE PUSH1 0x20 ADD PUSH0 KECCAK256 PUSH0 SWAP1 SLOAD SWAP1 PUSH2 0x100 EXP SWAP1 DIV PUSH1 0xFF AND PUSH2 0xC08 JUMPI PUSH1 0x40 MLOAD PUSH32 0x8C379A000000000000000000000000000000000000000000000000000000000 DUP2 MSTORE PUSH1 0x4 ADD PUSH2 0xBFF SWAP1 PUSH2 0x5048 JUMP JUMPDEST PUSH1 0x40 MLOAD DUP1 SWAP2 SUB SWAP1 REVERT JUMPDEST DUP1 PUSH20 0xFFFFFFFFFFFFFFFFFFFFFFFFFFFFFFFFFFFFFFFF AND CALLER PUSH20 0xFFFFFFFFFFFFFFFFFFFFFFFFFFFFFFFFFFFFFFFF AND EQ PUSH2 0xC76 JUMPI PUSH1 0x40 MLOAD PUSH32 0x8C379A000000000000000000000000000000000000000000000000000000000 DUP2 MSTORE PUSH1 0x4 ADD PUSH2 0xC6D SWAP1 PUSH2 0x50B0 JUMP JUMPDEST PUSH1 0x40 MLOAD DUP1 SWAP2 SUB SWAP1 REVERT JUMPDEST CALLER PUSH1 0xA PUSH0 DUP3 PUSH20 0xFFFFFFFFFFFFFFFFFFFFFFFFFFFFFFFFFFFFFFFF AND PUSH20 0xFFFFFFFFFFFFFFFFFFFFFFFFFFFFFFFFFFFFFFFF AND DUP2 MSTORE PUSH1 0x20 ADD SWAP1 DUP2 MSTORE PUSH1 0x20 ADD PUSH0 KECCAK256 PUSH0 SWAP1 SLOAD SWAP1 PUSH2 0x100 EXP SWAP1 DIV PUSH1 0xFF AND PUSH2 0xD00 JUMPI PUSH1 0x40 MLOAD PUSH32 0x8C379A000000000000000000000000000000000000000000000000000000000 DUP2 MSTORE PUSH1 0x4 ADD PUSH2 0xCF7 SWAP1 PUSH2 0x5048 JUMP JUMPDEST PUSH1 0x40 MLOAD DUP1 SWAP2 SUB SWAP1 REVERT JUMPDEST PUSH0 PUSH1 0x9 PUSH0 DUP4 PUSH20 0xFFFFFFFFFFFFFFFFFFFFFFFFFFFFFFFFFFFFFFFF AND PUSH20 0xFFFFFFFFFFFFFFFFFFFFFFFFFFFFFFFFFFFFFFFF AND DUP2 MSTORE PUSH1 0x20 ADD SWAP1 DUP2 MSTORE PUSH1 0x20 ADD PUSH0 KECCAK256 SLOAD SWAP1 POP PUSH1 0xB PUSH0 DUP3 DUP2 MSTORE PUSH1 0x20 ADD SWAP1 DUP2 MSTORE PUSH1 0x20 ADD PUSH0 KECCAK256 PUSH0 SWAP1 SLOAD SWAP1 PUSH2 0x100 EXP SWAP1 DIV PUSH1 0xFF AND ISZERO PUSH2 0xD9F JUMPI PUSH1 0x40 MLOAD PUSH32 0x8C379A000000000000000000000000000000000000000000000000000000000 DUP2 MSTORE PUSH1 0x4 ADD PUSH2 0xD96 SWAP1 PUSH2 0x5118 JUMP JUMPDEST PUSH1 0x40 MLOAD DUP1 SWAP2 SUB SWAP1 REVERT JUMPDEST PUSH2 0xDA7 PUSH2 0x34DF JUMP JUMPDEST PUSH0 PUSH1 0x9 PUSH0 CALLER PUSH20 0xFFFFFFFFFFFFFFFFFFFFFFFFFFFFFFFFFFFFFFFF AND PUSH20 0xFFFFFFFFFFFFFFFFFFFFFFFFFFFFFFFFFFFFFFFF AND DUP2 MSTORE PUSH1 0x20 ADD SWAP1 DUP2 MSTORE PUSH1 0x20 ADD PUSH0 KECCAK256 SLOAD SWAP1 POP PUSH0 PUSH1 0x8 PUSH0 DUP4 DUP2 MSTORE PUSH1 0x20 ADD SWAP1 DUP2 MSTORE PUSH1 0x20 ADD PUSH0 KECCAK256 SWAP1 POP PUSH0 DUP8 DUP8 PUSH1 0x40 MLOAD PUSH2 0xE0D SWAP3 SWAP2 SWAP1 PUSH2 0x5164 JUMP JUMPDEST PUSH1 0x40 MLOAD DUP1 SWAP2 SUB SWAP1 KECCAK256 SWAP1 POP DUP1 DUP3 PUSH1 0x2 ADD DUP2 SWAP1 SSTORE POP TIMESTAMP DUP3 PUSH1 0x1 ADD PUSH0 PUSH2 0x100 EXP DUP2 SLOAD DUP2 PUSH8 0xFFFFFFFFFFFFFFFF MUL NOT AND SWAP1 DUP4 PUSH8 0xFFFFFFFFFFFFFFFF AND MUL OR SWAP1 SSTORE POP DUP1 DUP4 CALLER PUSH20 0xFFFFFFFFFFFFFFFFFFFFFFFFFFFFFFFFFFFFFFFF AND PUSH32 0x8280FD7BBDEB2364E894D403DB429C0FB8E57A385D0F2EC1F7926ACF32847726 TIMESTAMP PUSH1 0x40 MLOAD PUSH2 0xE92 SWAP2 SWAP1 PUSH2 0x518B JUMP JUMPDEST PUSH1 0x40 MLOAD DUP1 SWAP2 SUB SWAP1 LOG4 POP POP POP PUSH2 0xEA5 PUSH2 0x3525 JUMP JUMPDEST POP POP POP POP POP JUMP JUMPDEST PUSH0 PUSH1 0xD SLOAD SWAP1 POP SWAP1 JUMP JUMPDEST CALLER PUSH1 0xA PUSH0 DUP3 PUSH20 0xFFFFFFFFFFFFFFFFFFFFFFFFFFFFFFFFFFFFFFFF AND PUSH20 0xFFFFFFFFFFFFFFFFFFFFFFFFFFFFFFFFFFFFFFFF AND DUP2 MSTORE PUSH1 0x20 ADD SWAP1 DUP2 MSTORE PUSH1 0x20 ADD PUSH0 KECCAK256 PUSH0 SWAP1 SLOAD SWAP1 PUSH2 0x100 EXP SWAP1 DIV PUSH1 0xFF AND PUSH2 0xF3F JUMPI PUSH1 0x40 MLOAD PUSH32 0x8C379A000000000000000000000000000000000000000000000000000000000 DUP2 MSTORE PUSH1 0x4 ADD PUSH2 0xF36 SWAP1 PUSH2 0x5048 JUMP JUMPDEST PUSH1 0x40 MLOAD DUP1 SWAP2 SUB SWAP1 REVERT JUMPDEST DUP1 PUSH20 0xFFFFFFFFFFFFFFFFFFFFFFFFFFFFFFFFFFFFFFFF AND CALLER PUSH20 0xFFFFFFFFFFFFFFFFFFFFFFFFFFFFFFFFFFFFFFFF AND EQ PUSH2 0xFAD JUMPI PUSH1 0x40 MLOAD PUSH32 0x8C379A000000000000000000000000000000000000000000000000000000000 DUP2 MSTORE PUSH1 0x4 ADD PUSH2 0xFA4 SWAP1 PUSH2 0x50B0 JUMP JUMPDEST PUSH1 0x40 MLOAD DUP1 SWAP2 SUB SWAP1 REVERT JUMPDEST PUSH2 0xFB5 PUSH2 0x34DF JUMP JUMPDEST PUSH2 0xFBF CALLER DUP4 PUSH2 0x352F JUMP JUMPDEST PUSH2 0xFC7 PUSH2 0x3525 JUMP JUMPDEST POP POP JUMP JUMPDEST PUSH0 PUSH1 0x9 PUSH0 DUP4 PUSH20 0xFFFFFFFFFFFFFFFFFFFFFFFFFFFFFFFFFFFFFFFF AND PUSH20 0xFFFFFFFFFFFFFFFFFFFFFFFFFFFFFFFFFFFFFFFF AND DUP2 MSTORE PUSH1 0x20 ADD SWAP1 DUP2 MSTORE PUSH1 0x20 ADD PUSH0 KECCAK256 SLOAD SWAP1 POP SWAP2 SWAP1 POP JUMP JUMPDEST PUSH0 PUSH20 0xFFFFFFFFFFFFFFFFFFFFFFFFFFFFFFFFFFFFFFFF AND DUP3 PUSH20 0xFFFFFFFFFFFFFFFFFFFFFFFFFFFFFFFFFFFFFFFF AND SUB PUSH2 0x1081 JUMPI PUSH0 PUSH1 0x40 MLOAD PUSH32 0x64A0AE9200000000000000000000000000000000000000000000000000000000 DUP2 MSTORE PUSH1 0x4 ADD PUSH2 0x1078 SWAP2 SWAP1 PUSH2 0x46DF JUMP JUMPDEST PUSH1 0x40 MLOAD DUP1 SWAP2 SUB SWAP1 REVERT JUMPDEST PUSH0 PUSH2 0x1094 DUP4 DUP4 PUSH2 0x108F PUSH2 0x3711 JUMP JUMPDEST PUSH2 0x3718 JUMP JUMPDEST SWAP1 POP DUP4 PUSH20 0xFFFFFFFFFFFFFFFFFFFFFFFFFFFFFFFFFFFFFFFF AND DUP2 PUSH20 0xFFFFFFFFFFFFFFFFFFFFFFFFFFFFFFFFFFFFFFFF AND EQ PUSH2 0x110A JUMPI DUP4 DUP3 DUP3 PUSH1 0x40 MLOAD PUSH32 0x64283D7B00000000000000000000000000000000000000000000000000000000 DUP2 MSTORE PUSH1 0x4 ADD PUSH2 0x1101 SWAP4 SWAP3 SWAP2 SWAP1 PUSH2 0x51A4 JUMP JUMPDEST PUSH1 0x40 MLOAD DUP1 SWAP2 SUB SWAP1 REVERT JUMPDEST POP POP POP POP JUMP JUMPDEST PUSH2 0x112A DUP4 DUP4 DUP4 PUSH1 0x40 MLOAD DUP1 PUSH1 0x20 ADD PUSH1 0x40 MSTORE DUP1 PUSH0 DUP2 MSTORE POP PUSH2 0x235F JUMP JUMPDEST POP POP POP JUMP JUMPDEST CALLER PUSH1 0xA PUSH0 DUP3 PUSH20 0xFFFFFFFFFFFFFFFFFFFFFFFFFFFFFFFFFFFFFFFF AND PUSH20 0xFFFFFFFFFFFFFFFFFFFFFFFFFFFFFFFFFFFFFFFF AND DUP2 MSTORE PUSH1 0x20 ADD SWAP1 DUP2 MSTORE PUSH1 0x20 ADD PUSH0 KECCAK256 PUSH0 SWAP1 SLOAD SWAP1 PUSH2 0x100 EXP SWAP1 DIV PUSH1 0xFF AND PUSH2 0x11B9 JUMPI PUSH1 0x40 MLOAD PUSH32 0x8C379A000000000000000000000000000000000000000000000000000000000 DUP2 MSTORE PUSH1 0x4 ADD PUSH2 0x11B0 SWAP1 PUSH2 0x5048 JUMP JUMPDEST PUSH1 0x40 MLOAD DUP1 SWAP2 SUB SWAP1 REVERT JUMPDEST DUP1 PUSH20 0xFFFFFFFFFFFFFFFFFFFFFFFFFFFFFFFFFFFFFFFF AND CALLER PUSH20 0xFFFFFFFFFFFFFFFFFFFFFFFFFFFFFFFFFFFFFFFF AND EQ PUSH2 0x1227 JUMPI PUSH1 0x40 MLOAD PUSH32 0x8C379A000000000000000000000000000000000000000000000000000000000 DUP2 MSTORE PUSH1 0x4 ADD PUSH2 0x121E SWAP1 PUSH2 0x50B0 JUMP JUMPDEST PUSH1 0x40 MLOAD DUP1 SWAP2 SUB SWAP1 REVERT JUMPDEST CALLER PUSH1 0xA PUSH0 DUP3 PUSH20 0xFFFFFFFFFFFFFFFFFFFFFFFFFFFFFFFFFFFFFFFF AND PUSH20 0xFFFFFFFFFFFFFFFFFFFFFFFFFFFFFFFFFFFFFFFF AND DUP2 MSTORE PUSH1 0x20 ADD SWAP1 DUP2 MSTORE PUSH1 0x20 ADD PUSH0 KECCAK256 PUSH0 SWAP1 SLOAD SWAP1 PUSH2 0x100 EXP SWAP1 DIV PUSH1 0xFF AND PUSH2 0x12B1 JUMPI PUSH1 0x40 MLOAD PUSH32 0x8C379A000000000000000000000000000000000000000000000000000000000 DUP2 MSTORE PUSH1 0x4 ADD PUSH2 0x12A8 SWAP1 PUSH2 0x5048 JUMP JUMPDEST PUSH1 0x40 MLOAD DUP1 SWAP2 SUB SWAP1 REVERT JUMPDEST PUSH0 PUSH1 0x9 PUSH0 DUP4 PUSH20 0xFFFFFFFFFFFFFFFFFFFFFFFFFFFFFFFFFFFFFFFF AND PUSH20 0xFFFFFFFFFFFFFFFFFFFFFFFFFFFFFFFFFFFFFFFF AND DUP2 MSTORE PUSH1 0x20 ADD SWAP1 DUP2 MSTORE PUSH1 0x20 ADD PUSH0 KECCAK256 SLOAD SWAP1 POP PUSH1 0xB PUSH0 DUP3 DUP2 MSTORE PUSH1 0x20 ADD SWAP1 DUP2 MSTORE PUSH1 0x20 ADD PUSH0 KECCAK256 PUSH0 SWAP1 SLOAD SWAP1 PUSH2 0x100 EXP SWAP1 DIV PUSH1 0xFF AND ISZERO PUSH2 0x1350 JUMPI PUSH1 0x40 MLOAD PUSH32 0x8C379A000000000000000000000000000000000000000000000000000000000 DUP2 MSTORE PUSH1 0x4 ADD PUSH2 0x1347 SWAP1 PUSH2 0x5118 JUMP JUMPDEST PUSH1 0x40 MLOAD DUP1 SWAP2 SUB SWAP1 REVERT JUMPDEST PUSH2 0x1358 PUSH2 0x34DF JUMP JUMPDEST PUSH0 PUSH1 0x9 PUSH0 CALLER PUSH20 0xFFFFFFFFFFFFFFFFFFFFFFFFFFFFFFFFFFFFFFFF AND PUSH20 0xFFFFFFFFFFFFFFFFFFFFFFFFFFFFFFFFFFFFFFFF AND DUP2 MSTORE PUSH1 0x20 ADD SWAP1 DUP2 MSTORE PUSH1 0x20 ADD PUSH0 KECCAK256 SLOAD SWAP1 POP PUSH0 PUSH1 0x8 PUSH0 DUP4 DUP2 MSTORE PUSH1 0x20 ADD SWAP1 DUP2 MSTORE PUSH1 0x20 ADD PUSH0 KECCAK256 SWAP1 POP PUSH0 DUP10 DUP10 PUSH1 0x40 MLOAD PUSH2 0x13BE SWAP3 SWAP2 SWAP1 PUSH2 0x5164 JUMP JUMPDEST PUSH1 0x40 MLOAD DUP1 SWAP2 SUB SWAP1 KECCAK256 SWAP1 POP DUP1 DUP3 PUSH1 0x2 ADD DUP2 SWAP1 SSTORE POP DUP8 DUP8 DUP4 PUSH1 0x3 ADD SWAP2 DUP3 PUSH2 0x13E4 SWAP3 SWAP2 SWAP1 PUSH2 0x5380 JUMP JUMPDEST POP TIMESTAMP DUP3 PUSH1 0x1 ADD PUSH0 PUSH2 0x100 EXP DUP2 SLOAD DUP2 PUSH8 0xFFFFFFFFFFFFFFFF MUL NOT AND SWAP1 DUP4 PUSH8 0xFFFFFFFFFFFFFFFF AND MUL OR SWAP1 SSTORE POP DUP1 DUP4 CALLER PUSH20 0xFFFFFFFFFFFFFFFFFFFFFFFFFFFFFFFFFFFFFFFF AND PUSH32 0x8280FD7BBDEB2364E894D403DB429C0FB8E57A385D0F2EC1F7926ACF32847726 TIMESTAMP PUSH1 0x40 MLOAD PUSH2 0x1457 SWAP2 SWAP1 PUSH2 0x518B JUMP JUMPDEST PUSH1 0x40 MLOAD DUP1 SWAP2 SUB SWAP1 LOG4 DUP3 CALLER PUSH20 0xFFFFFFFFFFFFFFFFFFFFFFFFFFFFFFFFFFFFFFFF AND PUSH32 0xEEA13EC8B49FB404F99B1BF8FD2589A5B2FCC7EB6D17E9A0768D55148A807157 TIMESTAMP PUSH1 0x40 MLOAD PUSH2 0x14A6 SWAP2 SWAP1 PUSH2 0x518B JUMP JUMPDEST PUSH1 0x40 MLOAD DUP1 SWAP2 SUB SWAP1 LOG3 POP POP POP PUSH2 0x14B9 PUSH2 0x3525 JUMP JUMPDEST POP POP POP POP POP POP POP JUMP JUMPDEST PUSH0 PUSH1 0xB PUSH0 DUP4 DUP2 MSTORE PUSH1 0x20 ADD SWAP1 DUP2 MSTORE PUSH1 0x20 ADD PUSH0 KECCAK256 PUSH0 SWAP1 SLOAD SWAP1 PUSH2 0x100 EXP SWAP1 DIV PUSH1 0xFF AND SWAP1 POP SWAP2 SWAP1 POP JUMP JUMPDEST PUSH2 0x14F0 PUSH2 0x37E2 JUMP JUMPDEST DUP1 PUSH1 0xF SWAP1 DUP2 PUSH2 0x14FF SWAP2 SWAP1 PUSH2 0x54A5 JUMP JUMPDEST POP POP JUMP JUMPDEST CALLER PUSH1 0xA PUSH0 DUP3 PUSH20 0xFFFFFFFFFFFFFFFFFFFFFFFFFFFFFFFFFFFFFFFF AND PUSH20 0xFFFFFFFFFFFFFFFFFFFFFFFFFFFFFFFFFFFFFFFF AND DUP2 MSTORE PUSH1 0x20 ADD SWAP1 DUP2 MSTORE PUSH1 0x20 ADD PUSH0 KECCAK256 PUSH0 SWAP1 SLOAD SWAP1 PUSH2 0x100 EXP SWAP1 DIV PUSH1 0xFF AND PUSH2 0x158D JUMPI PUSH1 0x40 MLOAD PUSH32 0x8C379A000000000000000000000000000000000000000000000000000000000 DUP2 MSTORE PUSH1 0x4 ADD PUSH2 0x1584 SWAP1 PUSH2 0x5048 JUMP JUMPDEST PUSH1 0x40 MLOAD DUP1 SWAP2 SUB SWAP1 REVERT JUMPDEST DUP1 PUSH20 0xFFFFFFFFFFFFFFFFFFFFFFFFFFFFFFFFFFFFFFFF AND CALLER PUSH20 0xFFFFFFFFFFFFFFFFFFFFFFFFFFFFFFFFFFFFFFFF AND EQ PUSH2 0x15FB JUMPI PUSH1 0x40 MLOAD PUSH32 0x8C379A000000000000000000000000000000000000000000000000000000000 DUP2 MSTORE PUSH1 0x4 ADD PUSH2 0x15F2 SWAP1 PUSH2 0x50B0 JUMP JUMPDEST PUSH1 0x40 MLOAD DUP1 SWAP2 SUB SWAP1 REVERT JUMPDEST PUSH2 0x1603 PUSH2 0x34DF JUMP JUMPDEST PUSH2 0x160E CALLER PUSH1 0x1 PUSH2 0x352F JUMP JUMPDEST PUSH2 0x1616 PUSH2 0x3525 JUMP JUMPDEST POP JUMP JUMPDEST PUSH2 0x1621 PUSH2 0x34DF JUMP JUMPDEST PUSH2 0x1629 PUSH2 0x20FD JUMP JUMPDEST PUSH20 0xFFFFFFFFFFFFFFFFFFFFFFFFFFFFFFFFFFFFFFFF AND CALLER PUSH20 0xFFFFFFFFFFFFFFFFFFFFFFFFFFFFFFFFFFFFFFFF AND EQ DUP1 PUSH2 0x16AE JUMPI POP PUSH1 0xE PUSH0 SWAP1 SLOAD SWAP1 PUSH2 0x100 EXP SWAP1 DIV PUSH20 0xFFFFFFFFFFFFFFFFFFFFFFFFFFFFFFFFFFFFFFFF AND PUSH20 0xFFFFFFFFFFFFFFFFFFFFFFFFFFFFFFFFFFFFFFFF AND CALLER PUSH20 0xFFFFFFFFFFFFFFFFFFFFFFFFFFFFFFFFFFFFFFFF AND EQ JUMPDEST PUSH2 0x16ED JUMPI PUSH1 0x40 MLOAD PUSH32 0x8C379A000000000000000000000000000000000000000000000000000000000 DUP2 MSTORE PUSH1 0x4 ADD PUSH2 0x16E4 SWAP1 PUSH2 0x55BE JUMP JUMPDEST PUSH1 0x40 MLOAD DUP1 SWAP2 SUB SWAP1 REVERT JUMPDEST PUSH0 PUSH20 0xFFFFFFFFFFFFFFFFFFFFFFFFFFFFFFFFFFFFFFFF AND DUP4 PUSH20 0xFFFFFFFFFFFFFFFFFFFFFFFFFFFFFFFFFFFFFFFF AND SUB PUSH2 0x175B JUMPI PUSH1 0x40 MLOAD PUSH32 0x8C379A000000000000000000000000000000000000000000000000000000000 DUP2 MSTORE PUSH1 0x4 ADD PUSH2 0x1752 SWAP1 PUSH2 0x5626 JUMP JUMPDEST PUSH1 0x40 MLOAD DUP1 SWAP2 SUB SWAP1 REVERT JUMPDEST PUSH0 PUSH20 0xFFFFFFFFFFFFFFFFFFFFFFFFFFFFFFFFFFFFFFFF AND DUP3 PUSH20 0xFFFFFFFFFFFFFFFFFFFFFFFFFFFFFFFFFFFFFFFF AND SUB PUSH2 0x17C9 JUMPI PUSH1 0x40 MLOAD PUSH32 0x8C379A000000000000000000000000000000000000000000000000000000000 DUP2 MSTORE PUSH1 0x4 ADD PUSH2 0x17C0 SWAP1 PUSH2 0x5626 JUMP JUMPDEST PUSH1 0x40 MLOAD DUP1 SWAP2 SUB SWAP1 REVERT JUMPDEST DUP2 PUSH20 0xFFFFFFFFFFFFFFFFFFFFFFFFFFFFFFFFFFFFFFFF AND DUP4 PUSH20 0xFFFFFFFFFFFFFFFFFFFFFFFFFFFFFFFFFFFFFFFF AND SUB PUSH2 0x1837 JUMPI PUSH1 0x40 MLOAD PUSH32 0x8C379A000000000000000000000000000000000000000000000000000000000 DUP2 MSTORE PUSH1 0x4 ADD PUSH2 0x182E SWAP1 PUSH2 0x568E JUMP JUMPDEST PUSH1 0x40 MLOAD DUP1 SWAP2 SUB SWAP1 REVERT JUMPDEST PUSH1 0xA PUSH0 DUP5 PUSH20 0xFFFFFFFFFFFFFFFFFFFFFFFFFFFFFFFFFFFFFFFF AND PUSH20 0xFFFFFFFFFFFFFFFFFFFFFFFFFFFFFFFFFFFFFFFF AND DUP2 MSTORE PUSH1 0x20 ADD SWAP1 DUP2 MSTORE PUSH1 0x20 ADD PUSH0 KECCAK256 PUSH0 SWAP1 SLOAD SWAP1 PUSH2 0x100 EXP SWAP1 DIV PUSH1 0xFF AND PUSH2 0x18C0 JUMPI PUSH1 0x40 MLOAD PUSH32 0x8C379A000000000000000000000000000000000000000000000000000000000 DUP2 MSTORE PUSH1 0x4 ADD PUSH2 0x18B7 SWAP1 PUSH2 0x5048 JUMP JUMPDEST PUSH1 0x40 MLOAD DUP1 SWAP2 SUB SWAP1 REVERT JUMPDEST PUSH1 0xA PUSH0 DUP4 PUSH20 0xFFFFFFFFFFFFFFFFFFFFFFFFFFFFFFFFFFFFFFFF AND PUSH20 0xFFFFFFFFFFFFFFFFFFFFFFFFFFFFFFFFFFFFFFFF AND DUP2 MSTORE PUSH1 0x20 ADD SWAP1 DUP2 MSTORE PUSH1 0x20 ADD PUSH0 KECCAK256 PUSH0 SWAP1 SLOAD SWAP1 PUSH2 0x100 EXP SWAP1 DIV PUSH1 0xFF AND ISZERO PUSH2 0x194A JUMPI PUSH1 0x40 MLOAD PUSH32 0x8C379A000000000000000000000000000000000000000000000000000000000 DUP2 MSTORE PUSH1 0x4 ADD PUSH2 0x1941 SWAP1 PUSH2 0x56F6 JUMP JUMPDEST PUSH1 0x40 MLOAD DUP1 SWAP2 SUB SWAP1 REVERT JUMPDEST PUSH0 PUSH1 0x9 PUSH0 DUP6 PUSH20 0xFFFFFFFFFFFFFFFFFFFFFFFFFFFFFFFFFFFFFFFF AND PUSH20 0xFFFFFFFFFFFFFFFFFFFFFFFFFFFFFFFFFFFFFFFF AND DUP2 MSTORE PUSH1 0x20 ADD SWAP1 DUP2 MSTORE PUSH1 0x20 ADD PUSH0 KECCAK256 SLOAD SWAP1 POP PUSH1 0xB PUSH0 DUP3 DUP2 MSTORE PUSH1 0x20 ADD SWAP1 DUP2 MSTORE PUSH1 0x20 ADD PUSH0 KECCAK256 PUSH0 SWAP1 SLOAD SWAP1 PUSH2 0x100 EXP SWAP1 DIV PUSH1 0xFF AND ISZERO PUSH2 0x19E9 JUMPI PUSH1 0x40 MLOAD PUSH32 0x8C379A000000000000000000000000000000000000000000000000000000000 DUP2 MSTORE PUSH1 0x4 ADD PUSH2 0x19E0 SWAP1 PUSH2 0x5118 JUMP JUMPDEST PUSH1 0x40 MLOAD DUP1 SWAP2 SUB SWAP1 REVERT JUMPDEST PUSH1 0x1 PUSH1 0xB PUSH0 DUP4 DUP2 MSTORE PUSH1 0x20 ADD SWAP1 DUP2 MSTORE PUSH1 0x20 ADD PUSH0 KECCAK256 PUSH0 PUSH2 0x100 EXP DUP2 SLOAD DUP2 PUSH1 0xFF MUL NOT AND SWAP1 DUP4 ISZERO ISZERO MUL OR SWAP1 SSTORE POP PUSH1 0x1 PUSH1 0xC PUSH0 DUP7 PUSH20 0xFFFFFFFFFFFFFFFFFFFFFFFFFFFFFFFFFFFFFFFF AND PUSH20 0xFFFFFFFFFFFFFFFFFFFFFFFFFFFFFFFFFFFFFFFF AND DUP2 MSTORE PUSH1 0x20 ADD SWAP1 DUP2 MSTORE PUSH1 0x20 ADD PUSH0 KECCAK256 PUSH0 PUSH2 0x100 EXP DUP2 SLOAD DUP2 PUSH1 0xFF MUL NOT AND SWAP1 DUP4 ISZERO ISZERO MUL OR SWAP1 SSTORE POP PUSH1 0xD PUSH0 DUP2 SLOAD DUP1 SWAP3 SWAP2 SWAP1 PUSH2 0x1A79 SWAP1 PUSH2 0x5741 JUMP JUMPDEST SWAP2 SWAP1 POP SSTORE POP PUSH0 PUSH1 0xD SLOAD SWAP1 POP PUSH0 PUSH1 0x8 PUSH0 DUP5 DUP2 MSTORE PUSH1 0x20 ADD SWAP1 DUP2 MSTORE PUSH1 0x20 ADD PUSH0 KECCAK256 PUSH1 0x40 MLOAD DUP1 PUSH1 0xA0 ADD PUSH1 0x40 MSTORE SWAP1 DUP2 PUSH0 DUP3 ADD PUSH0 SWAP1 SLOAD SWAP1 PUSH2 0x100 EXP SWAP1 DIV PUSH20 0xFFFFFFFFFFFFFFFFFFFFFFFFFFFFFFFFFFFFFFFF AND PUSH20 0xFFFFFFFFFFFFFFFFFFFFFFFFFFFFFFFFFFFFFFFF AND PUSH20 0xFFFFFFFFFFFFFFFFFFFFFFFFFFFFFFFFFFFFFFFF AND DUP2 MSTORE PUSH1 0x20 ADD PUSH0 DUP3 ADD PUSH1 0x14 SWAP1 SLOAD SWAP1 PUSH2 0x100 EXP SWAP1 DIV PUSH8 0xFFFFFFFFFFFFFFFF AND PUSH8 0xFFFFFFFFFFFFFFFF AND PUSH8 0xFFFFFFFFFFFFFFFF AND DUP2 MSTORE PUSH1 0x20 ADD PUSH1 0x1 DUP3 ADD PUSH0 SWAP1 SLOAD SWAP1 PUSH2 0x100 EXP SWAP1 DIV PUSH8 0xFFFFFFFFFFFFFFFF AND PUSH8 0xFFFFFFFFFFFFFFFF AND PUSH8 0xFFFFFFFFFFFFFFFF AND DUP2 MSTORE PUSH1 0x20 ADD PUSH1 0x2 DUP3 ADD SLOAD DUP2 MSTORE PUSH1 0x20 ADD PUSH1 0x3 DUP3 ADD DUP1 SLOAD PUSH2 0x1B71 SWAP1 PUSH2 0x4F66 JUMP JUMPDEST DUP1 PUSH1 0x1F ADD PUSH1 0x20 DUP1 SWAP2 DIV MUL PUSH1 0x20 ADD PUSH1 0x40 MLOAD SWAP1 DUP2 ADD PUSH1 0x40 MSTORE DUP1 SWAP3 SWAP2 SWAP1 DUP2 DUP2 MSTORE PUSH1 0x20 ADD DUP3 DUP1 SLOAD PUSH2 0x1B9D SWAP1 PUSH2 0x4F66 JUMP JUMPDEST DUP1 ISZERO PUSH2 0x1BE8 JUMPI DUP1 PUSH1 0x1F LT PUSH2 0x1BBF JUMPI PUSH2 0x100 DUP1 DUP4 SLOAD DIV MUL DUP4 MSTORE SWAP2 PUSH1 0x20 ADD SWAP2 PUSH2 0x1BE8 JUMP JUMPDEST DUP3 ADD SWAP2 SWAP1 PUSH0 MSTORE PUSH1 0x20 PUSH0 KECCAK256 SWAP1 JUMPDEST DUP2 SLOAD DUP2 MSTORE SWAP1 PUSH1 0x1 ADD SWAP1 PUSH1 0x20 ADD DUP1 DUP4 GT PUSH2 0x1BCB JUMPI DUP3 SWAP1 SUB PUSH1 0x1F AND DUP3 ADD SWAP2 JUMPDEST POP POP POP POP POP DUP2 MSTORE POP POP SWAP1 POP PUSH0 PUSH1 0x40 MLOAD DUP1 PUSH1 0xA0 ADD PUSH1 0x40 MSTORE DUP1 DUP8 PUSH20 0xFFFFFFFFFFFFFFFFFFFFFFFFFFFFFFFFFFFFFFFF AND DUP2 MSTORE PUSH1 0x20 ADD TIMESTAMP PUSH8 0xFFFFFFFFFFFFFFFF AND DUP2 MSTORE PUSH1 0x20 ADD TIMESTAMP PUSH8 0xFFFFFFFFFFFFFFFF AND DUP2 MSTORE PUSH1 0x20 ADD DUP7 PUSH2 0x1C4A JUMPI DUP4 PUSH1 0x60 ADD MLOAD PUSH2 0x1C4E JUMP JUMPDEST PUSH0 DUP1 SHL JUMPDEST DUP2 MSTORE PUSH1 0x20 ADD DUP7 PUSH2 0x1C62 JUMPI DUP4 PUSH1 0x80 ADD MLOAD PUSH2 0x1C72 JUMP JUMPDEST PUSH1 0x40 MLOAD DUP1 PUSH1 0x20 ADD PUSH1 0x40 MSTORE DUP1 PUSH0 DUP2 MSTORE POP JUMPDEST DUP2 MSTORE POP SWAP1 POP DUP1 PUSH1 0x8 PUSH0 DUP6 DUP2 MSTORE PUSH1 0x20 ADD SWAP1 DUP2 MSTORE PUSH1 0x20 ADD PUSH0 KECCAK256 PUSH0 DUP3 ADD MLOAD DUP2 PUSH0 ADD PUSH0 PUSH2 0x100 EXP DUP2 SLOAD DUP2 PUSH20 0xFFFFFFFFFFFFFFFFFFFFFFFFFFFFFFFFFFFFFFFF MUL NOT AND SWAP1 DUP4 PUSH20 0xFFFFFFFFFFFFFFFFFFFFFFFFFFFFFFFFFFFFFFFF AND MUL OR SWAP1 SSTORE POP PUSH1 0x20 DUP3 ADD MLOAD DUP2 PUSH0 ADD PUSH1 0x14 PUSH2 0x100 EXP DUP2 SLOAD DUP2 PUSH8 0xFFFFFFFFFFFFFFFF MUL NOT AND SWAP1 DUP4 PUSH8 0xFFFFFFFFFFFFFFFF AND MUL OR SWAP1 SSTORE POP PUSH1 0x40 DUP3 ADD MLOAD DUP2 PUSH1 0x1 ADD PUSH0 PUSH2 0x100 EXP DUP2 SLOAD DUP2 PUSH8 0xFFFFFFFFFFFFFFFF MUL NOT AND SWAP1 DUP4 PUSH8 0xFFFFFFFFFFFFFFFF AND MUL OR SWAP1 SSTORE POP PUSH1 0x60 DUP3 ADD MLOAD DUP2 PUSH1 0x2 ADD SSTORE PUSH1 0x80 DUP3 ADD MLOAD DUP2 PUSH1 0x3 ADD SWAP1 DUP2 PUSH2 0x1D48 SWAP2 SWAP1 PUSH2 0x5788 JUMP JUMPDEST POP SWAP1 POP POP DUP3 PUSH1 0x9 PUSH0 DUP9 PUSH20 0xFFFFFFFFFFFFFFFFFFFFFFFFFFFFFFFFFFFFFFFF AND PUSH20 0xFFFFFFFFFFFFFFFFFFFFFFFFFFFFFFFFFFFFFFFF AND DUP2 MSTORE PUSH1 0x20 ADD SWAP1 DUP2 MSTORE PUSH1 0x20 ADD PUSH0 KECCAK256 DUP2 SWAP1 SSTORE POP PUSH1 0x1 PUSH1 0xA PUSH0 DUP9 PUSH20 0xFFFFFFFFFFFFFFFFFFFFFFFFFFFFFFFFFFFFFFFF AND PUSH20 0xFFFFFFFFFFFFFFFFFFFFFFFFFFFFFFFFFFFFFFFF AND DUP2 MSTORE PUSH1 0x20 ADD SWAP1 DUP2 MSTORE PUSH1 0x20 ADD PUSH0 KECCAK256 PUSH0 PUSH2 0x100 EXP DUP2 SLOAD DUP2 PUSH1 0xFF MUL NOT AND SWAP1 DUP4 ISZERO ISZERO MUL OR SWAP1 SSTORE POP PUSH2 0x1DED DUP7 DUP5 PUSH2 0x3869 JUMP JUMPDEST DUP4 DUP8 PUSH20 0xFFFFFFFFFFFFFFFFFFFFFFFFFFFFFFFFFFFFFFFF AND PUSH32 0xE8CCF73831B7F096110633FC510FB0D4E739D5DF4DA47CB20FDBCD06711DD6F5 TIMESTAMP PUSH1 0x40 MLOAD PUSH2 0x1E34 SWAP2 SWAP1 PUSH2 0x518B JUMP JUMPDEST PUSH1 0x40 MLOAD DUP1 SWAP2 SUB SWAP1 LOG3 DUP3 DUP7 PUSH20 0xFFFFFFFFFFFFFFFFFFFFFFFFFFFFFFFFFFFFFFFF AND PUSH32 0xFD0C93BE4723CB4C74010465B445D5F99EEF0354F49EE7C247FA9EF9093AA8ED TIMESTAMP PUSH1 0x40 MLOAD PUSH2 0x1E83 SWAP2 SWAP1 PUSH2 0x518B JUMP JUMPDEST PUSH1 0x40 MLOAD DUP1 SWAP2 SUB SWAP1 LOG3 DUP3 DUP7 PUSH20 0xFFFFFFFFFFFFFFFFFFFFFFFFFFFFFFFFFFFFFFFF AND DUP9 PUSH20 0xFFFFFFFFFFFFFFFFFFFFFFFFFFFFFFFFFFFFFFFF AND PUSH32 0x38F96748528AE3C7B2848A2BBD3E1F25EC23D6B0B0205522893A20C45BB4AAED TIMESTAMP PUSH1 0x40 MLOAD PUSH2 0x1EE9 SWAP2 SWAP1 PUSH2 0x518B JUMP JUMPDEST PUSH1 0x40 MLOAD DUP1 SWAP2 SUB SWAP1 LOG4 POP POP POP POP PUSH2 0x1EFD PUSH2 0x3525 JUMP JUMPDEST POP POP POP JUMP JUMPDEST PUSH0 PUSH2 0x1F0C DUP3 PUSH2 0x3420 JUMP JUMPDEST SWAP1 POP SWAP2 SWAP1 POP JUMP JUMPDEST PUSH1 0xE PUSH0 SWAP1 SLOAD SWAP1 PUSH2 0x100 EXP SWAP1 DIV PUSH20 0xFFFFFFFFFFFFFFFFFFFFFFFFFFFFFFFFFFFFFFFF AND DUP2 JUMP JUMPDEST PUSH0 DUP1 PUSH20 0xFFFFFFFFFFFFFFFFFFFFFFFFFFFFFFFFFFFFFFFF AND DUP3 PUSH20 0xFFFFFFFFFFFFFFFFFFFFFFFFFFFFFFFFFFFFFFFF AND SUB PUSH2 0x1FA9 JUMPI PUSH0 PUSH1 0x40 MLOAD PUSH32 0x89C62B6400000000000000000000000000000000000000000000000000000000 DUP2 MSTORE PUSH1 0x4 ADD PUSH2 0x1FA0 SWAP2 SWAP1 PUSH2 0x46DF JUMP JUMPDEST PUSH1 0x40 MLOAD DUP1 SWAP2 SUB SWAP1 REVERT JUMPDEST PUSH1 0x3 PUSH0 DUP4 PUSH20 0xFFFFFFFFFFFFFFFFFFFFFFFFFFFFFFFFFFFFFFFF AND PUSH20 0xFFFFFFFFFFFFFFFFFFFFFFFFFFFFFFFFFFFFFFFF AND DUP2 MSTORE PUSH1 0x20 ADD SWAP1 DUP2 MSTORE PUSH1 0x20 ADD PUSH0 KECCAK256 SLOAD SWAP1 POP SWAP2 SWAP1 POP JUMP JUMPDEST PUSH2 0x1FF6 PUSH2 0x37E2 JUMP JUMPDEST PUSH2 0x1FFF PUSH0 PUSH2 0x3886 JUMP JUMPDEST JUMP JUMPDEST PUSH2 0x2009 PUSH2 0x37E2 JUMP JUMPDEST PUSH0 PUSH20 0xFFFFFFFFFFFFFFFFFFFFFFFFFFFFFFFFFFFFFFFF AND DUP2 PUSH20 0xFFFFFFFFFFFFFFFFFFFFFFFFFFFFFFFFFFFFFFFF AND SUB PUSH2 0x2077 JUMPI PUSH1 0x40 MLOAD PUSH32 0x8C379A000000000000000000000000000000000000000000000000000000000 DUP2 MSTORE PUSH1 0x4 ADD PUSH2 0x206E SWAP1 PUSH2 0x5626 JUMP JUMPDEST PUSH1 0x40 MLOAD DUP1 SWAP2 SUB SWAP1 REVERT JUMPDEST DUP1 PUSH1 0xE PUSH0 PUSH2 0x100 EXP DUP2 SLOAD DUP2 PUSH20 0xFFFFFFFFFFFFFFFFFFFFFFFFFFFFFFFFFFFFFFFF MUL NOT AND SWAP1 DUP4 PUSH20 0xFFFFFFFFFFFFFFFFFFFFFFFFFFFFFFFFFFFFFFFF AND MUL OR SWAP1 SSTORE POP DUP1 PUSH20 0xFFFFFFFFFFFFFFFFFFFFFFFFFFFFFFFFFFFFFFFF AND PUSH32 0xBF1B7F0EA3D9F70F4A9732008ADF3ED3AACAA8E1D290ACE363B8A009A0D9C09E PUSH1 0x40 MLOAD PUSH1 0x40 MLOAD DUP1 SWAP2 SUB SWAP1 LOG2 POP JUMP JUMPDEST PUSH0 PUSH1 0x6 PUSH0 SWAP1 SLOAD SWAP1 PUSH2 0x100 EXP SWAP1 DIV PUSH20 0xFFFFFFFFFFFFFFFFFFFFFFFFFFFFFFFFFFFFFFFF AND SWAP1 POP SWAP1 JUMP JUMPDEST PUSH1 0x60 PUSH1 0x1 DUP1 SLOAD PUSH2 0x2134 SWAP1 PUSH2 0x4F66 JUMP JUMPDEST DUP1 PUSH1 0x1F ADD PUSH1 0x20 DUP1 SWAP2 DIV MUL PUSH1 0x20 ADD PUSH1 0x40 MLOAD SWAP1 DUP2 ADD PUSH1 0x40 MSTORE DUP1 SWAP3 SWAP2 SWAP1 DUP2 DUP2 MSTORE PUSH1 0x20 ADD DUP3 DUP1 SLOAD PUSH2 0x2160 SWAP1 PUSH2 0x4F66 JUMP JUMPDEST DUP1 ISZERO PUSH2 0x21AB JUMPI DUP1 PUSH1 0x1F LT PUSH2 0x2182 JUMPI PUSH2 0x100 DUP1 DUP4 SLOAD DIV MUL DUP4 MSTORE SWAP2 PUSH1 0x20 ADD SWAP2 PUSH2 0x21AB JUMP JUMPDEST DUP3 ADD SWAP2 SWAP1 PUSH0 MSTORE PUSH1 0x20 PUSH0 KECCAK256 SWAP1 JUMPDEST DUP2 SLOAD DUP2 MSTORE SWAP1 PUSH1 0x1 ADD SWAP1 PUSH1 0x20 ADD DUP1 DUP4 GT PUSH2 0x218E JUMPI DUP3 SWAP1 SUB PUSH1 0x1F AND DUP3 ADD SWAP2 JUMPDEST POP POP POP POP POP SWAP1 POP SWAP1 JUMP JUMPDEST PUSH1 0x60 PUSH1 0xA PUSH0 DUP4 PUSH20 0xFFFFFFFFFFFFFFFFFFFFFFFFFFFFFFFFFFFFFFFF AND PUSH20 0xFFFFFFFFFFFFFFFFFFFFFFFFFFFFFFFFFFFFFFFF AND DUP2 MSTORE PUSH1 0x20 ADD SWAP1 DUP2 MSTORE PUSH1 0x20 ADD PUSH0 KECCAK256 PUSH0 SWAP1 SLOAD SWAP1 PUSH2 0x100 EXP SWAP1 DIV PUSH1 0xFF AND PUSH2 0x2240 JUMPI PUSH1 0x40 MLOAD PUSH32 0x8C379A000000000000000000000000000000000000000000000000000000000 DUP2 MSTORE PUSH1 0x4 ADD PUSH2 0x2237 SWAP1 PUSH2 0x5048 JUMP JUMPDEST PUSH1 0x40 MLOAD DUP1 SWAP2 SUB SWAP1 REVERT JUMPDEST PUSH0 PUSH1 0x9 PUSH0 DUP5 PUSH20 0xFFFFFFFFFFFFFFFFFFFFFFFFFFFFFFFFFFFFFFFF AND PUSH20 0xFFFFFFFFFFFFFFFFFFFFFFFFFFFFFFFFFFFFFFFF AND DUP2 MSTORE PUSH1 0x20 ADD SWAP1 DUP2 MSTORE PUSH1 0x20 ADD PUSH0 KECCAK256 SLOAD SWAP1 POP PUSH1 0x8 PUSH0 DUP3 DUP2 MSTORE PUSH1 0x20 ADD SWAP1 DUP2 MSTORE PUSH1 0x20 ADD PUSH0 KECCAK256 PUSH1 0x3 ADD DUP1 SLOAD PUSH2 0x22A0 SWAP1 PUSH2 0x4F66 JUMP JUMPDEST DUP1 PUSH1 0x1F ADD PUSH1 0x20 DUP1 SWAP2 DIV MUL PUSH1 0x20 ADD PUSH1 0x40 MLOAD SWAP1 DUP2 ADD PUSH1 0x40 MSTORE DUP1 SWAP3 SWAP2 SWAP1 DUP2 DUP2 MSTORE PUSH1 0x20 ADD DUP3 DUP1 SLOAD PUSH2 0x22CC SWAP1 PUSH2 0x4F66 JUMP JUMPDEST DUP1 ISZERO PUSH2 0x2317 JUMPI DUP1 PUSH1 0x1F LT PUSH2 0x22EE JUMPI PUSH2 0x100 DUP1 DUP4 SLOAD DIV MUL DUP4 MSTORE SWAP2 PUSH1 0x20 ADD SWAP2 PUSH2 0x2317 JUMP JUMPDEST DUP3 ADD SWAP2 SWAP1 PUSH0 MSTORE PUSH1 0x20 PUSH0 KECCAK256 SWAP1 JUMPDEST DUP2 SLOAD DUP2 MSTORE SWAP1 PUSH1 0x1 ADD SWAP1 PUSH1 0x20 ADD DUP1 DUP4 GT PUSH2 0x22FA JUMPI DUP3 SWAP1 SUB PUSH1 0x1F AND DUP3 ADD SWAP2 JUMPDEST POP POP POP POP POP SWAP2 POP POP SWAP2 SWAP1 POP JUMP JUMPDEST PUSH1 0x40 MLOAD PUSH32 0x8C379A000000000000000000000000000000000000000000000000000000000 DUP2 MSTORE PUSH1 0x4 ADD PUSH2 0x2356 SWAP1 PUSH2 0x4FE0 JUMP JUMPDEST PUSH1 0x40 MLOAD DUP1 SWAP2 SUB SWAP1 REVERT JUMPDEST PUSH2 0x236A DUP5 DUP5 DUP5 PUSH2 0x1011 JUMP JUMPDEST PUSH2 0x237E PUSH2 0x2375 PUSH2 0x3711 JUMP JUMPDEST DUP6 DUP6 DUP6 DUP6 PUSH2 0x3949 JUMP JUMPDEST POP POP POP POP JUMP JUMPDEST PUSH0 PUSH2 0x238D PUSH2 0x34DF JUMP JUMPDEST PUSH1 0xE PUSH1 0x14 SWAP1 SLOAD SWAP1 PUSH2 0x100 EXP SWAP1 DIV PUSH1 0xFF AND PUSH2 0x23DC JUMPI PUSH1 0x40 MLOAD PUSH32 0x8C379A000000000000000000000000000000000000000000000000000000000 DUP2 MSTORE PUSH1 0x4 ADD PUSH2 0x23D3 SWAP1 PUSH2 0x58A1 JUMP JUMPDEST PUSH1 0x40 MLOAD DUP1 SWAP2 SUB SWAP1 REVERT JUMPDEST PUSH1 0xA PUSH0 CALLER PUSH20 0xFFFFFFFFFFFFFFFFFFFFFFFFFFFFFFFFFFFFFFFF AND PUSH20 0xFFFFFFFFFFFFFFFFFFFFFFFFFFFFFFFFFFFFFFFF AND DUP2 MSTORE PUSH1 0x20 ADD SWAP1 DUP2 MSTORE PUSH1 0x20 ADD PUSH0 KECCAK256 PUSH0 SWAP1 SLOAD SWAP1 PUSH2 0x100 EXP SWAP1 DIV PUSH1 0xFF AND ISZERO PUSH2 0x2466 JUMPI PUSH1 0x40 MLOAD PUSH32 0x8C379A000000000000000000000000000000000000000000000000000000000 DUP2 MSTORE PUSH1 0x4 ADD PUSH2 0x245D SWAP1 PUSH2 0x56F6 JUMP JUMPDEST PUSH1 0x40 MLOAD DUP1 SWAP2 SUB SWAP1 REVERT JUMPDEST PUSH1 0xD PUSH0 DUP2 SLOAD DUP1 SWAP3 SWAP2 SWAP1 PUSH2 0x2478 SWAP1 PUSH2 0x5741 JUMP JUMPDEST SWAP2 SWAP1 POP SSTORE POP PUSH0 PUSH1 0xD SLOAD SWAP1 POP PUSH0 PUSH1 0x40 MLOAD DUP1 PUSH1 0xA0 ADD PUSH1 0x40 MSTORE DUP1 CALLER PUSH20 0xFFFFFFFFFFFFFFFFFFFFFFFFFFFFFFFFFFFFFFFF AND DUP2 MSTORE PUSH1 0x20 ADD TIMESTAMP PUSH8 0xFFFFFFFFFFFFFFFF AND DUP2 MSTORE PUSH1 0x20 ADD TIMESTAMP PUSH8 0xFFFFFFFFFFFFFFFF AND DUP2 MSTORE PUSH1 0x20 ADD PUSH0 DUP1 SHL DUP2 MSTORE PUSH1 0x20 ADD PUSH1 0x40 MLOAD DUP1 PUSH1 0x20 ADD PUSH1 0x40 MSTORE DUP1 PUSH0 DUP2 MSTORE POP DUP2 MSTORE POP SWAP1 POP DUP1 PUSH1 0x8 PUSH0 DUP5 DUP2 MSTORE PUSH1 0x20 ADD SWAP1 DUP2 MSTORE PUSH1 0x20 ADD PUSH0 KECCAK256 PUSH0 DUP3 ADD MLOAD DUP2 PUSH0 ADD PUSH0 PUSH2 0x100 EXP DUP2 SLOAD DUP2 PUSH20 0xFFFFFFFFFFFFFFFFFFFFFFFFFFFFFFFFFFFFFFFF MUL NOT AND SWAP1 DUP4 PUSH20 0xFFFFFFFFFFFFFFFFFFFFFFFFFFFFFFFFFFFFFFFF AND MUL OR SWAP1 SSTORE POP PUSH1 0x20 DUP3 ADD MLOAD DUP2 PUSH0 ADD PUSH1 0x14 PUSH2 0x100 EXP DUP2 SLOAD DUP2 PUSH8 0xFFFFFFFFFFFFFFFF MUL NOT AND SWAP1 DUP4 PUSH8 0xFFFFFFFFFFFFFFFF AND MUL OR SWAP1 SSTORE POP PUSH1 0x40 DUP3 ADD MLOAD DUP2 PUSH1 0x1 ADD PUSH0 PUSH2 0x100 EXP DUP2 SLOAD DUP2 PUSH8 0xFFFFFFFFFFFFFFFF MUL NOT AND SWAP1 DUP4 PUSH8 0xFFFFFFFFFFFFFFFF AND MUL OR SWAP1 SSTORE POP PUSH1 0x60 DUP3 ADD MLOAD DUP2 PUSH1 0x2 ADD SSTORE PUSH1 0x80 DUP3 ADD MLOAD DUP2 PUSH1 0x3 ADD SWAP1 DUP2 PUSH2 0x25B8 SWAP2 SWAP1 PUSH2 0x5788 JUMP JUMPDEST POP SWAP1 POP POP DUP2 PUSH1 0x9 PUSH0 CALLER PUSH20 0xFFFFFFFFFFFFFFFFFFFFFFFFFFFFFFFFFFFFFFFF AND PUSH20 0xFFFFFFFFFFFFFFFFFFFFFFFFFFFFFFFFFFFFFFFF AND DUP2 MSTORE PUSH1 0x20 ADD SWAP1 DUP2 MSTORE PUSH1 0x20 ADD PUSH0 KECCAK256 DUP2 SWAP1 SSTORE POP PUSH1 0x1 PUSH1 0xA PUSH0 CALLER PUSH20 0xFFFFFFFFFFFFFFFFFFFFFFFFFFFFFFFFFFFFFFFF AND PUSH20 0xFFFFFFFFFFFFFFFFFFFFFFFFFFFFFFFFFFFFFFFF AND DUP2 MSTORE PUSH1 0x20 ADD SWAP1 DUP2 MSTORE PUSH1 0x20 ADD PUSH0 KECCAK256 PUSH0 PUSH2 0x100 EXP DUP2 SLOAD DUP2 PUSH1 0xFF MUL NOT AND SWAP1 DUP4 ISZERO ISZERO MUL OR SWAP1 SSTORE POP PUSH2 0x265D CALLER DUP4 PUSH2 0x3869 JUMP JUMPDEST DUP2 CALLER PUSH20 0xFFFFFFFFFFFFFFFFFFFFFFFFFFFFFFFFFFFFFFFF AND PUSH32 0xFD0C93BE4723CB4C74010465B445D5F99EEF0354F49EE7C247FA9EF9093AA8ED TIMESTAMP PUSH1 0x40 MLOAD PUSH2 0x26A4 SWAP2 SWAP1 PUSH2 0x518B JUMP JUMPDEST PUSH1 0x40 MLOAD DUP1 SWAP2 SUB SWAP1 LOG3 DUP2 SWAP3 POP POP POP PUSH2 0x26B9 PUSH2 0x3525 JUMP JUMPDEST SWAP1 JUMP JUMPDEST PUSH0 PUSH1 0xA PUSH0 DUP4 PUSH20 0xFFFFFFFFFFFFFFFFFFFFFFFFFFFFFFFFFFFFFFFF AND PUSH20 0xFFFFFFFFFFFFFFFFFFFFFFFFFFFFFFFFFFFFFFFF AND DUP2 MSTORE PUSH1 0x20 ADD SWAP1 DUP2 MSTORE PUSH1 0x20 ADD PUSH0 KECCAK256 PUSH0 SWAP1 SLOAD SWAP1 PUSH2 0x100 EXP SWAP1 DIV PUSH1 0xFF AND SWAP1 POP SWAP2 SWAP1 POP JUMP JUMPDEST PUSH1 0xE PUSH1 0x14 SWAP1 SLOAD SWAP1 PUSH2 0x100 EXP SWAP1 DIV PUSH1 0xFF AND DUP2 JUMP JUMPDEST PUSH1 0x60 PUSH2 0x272C DUP3 PUSH2 0x3420 JUMP JUMPDEST POP PUSH0 PUSH2 0x2736 PUSH2 0x3AF5 JUMP JUMPDEST SWAP1 POP PUSH0 DUP2 MLOAD GT PUSH2 0x2754 JUMPI PUSH1 0x40 MLOAD DUP1 PUSH1 0x20 ADD PUSH1 0x40 MSTORE DUP1 PUSH0 DUP2 MSTORE POP PUSH2 0x277F JUMP JUMPDEST DUP1 PUSH2 0x275E DUP5 PUSH2 0x3B85 JUMP JUMPDEST PUSH1 0x40 MLOAD PUSH1 0x20 ADD PUSH2 0x276F SWAP3 SWAP2 SWAP1 PUSH2 0x58F9 JUMP JUMPDEST PUSH1 0x40 MLOAD PUSH1 0x20 DUP2 DUP4 SUB SUB DUP2 MSTORE SWAP1 PUSH1 0x40 MSTORE JUMPDEST SWAP2 POP POP SWAP2 SWAP1 POP JUMP JUMPDEST CALLER PUSH1 0xA PUSH0 DUP3 PUSH20 0xFFFFFFFFFFFFFFFFFFFFFFFFFFFFFFFFFFFFFFFF AND PUSH20 0xFFFFFFFFFFFFFFFFFFFFFFFFFFFFFFFFFFFFFFFF AND DUP2 MSTORE PUSH1 0x20 ADD SWAP1 DUP2 MSTORE PUSH1 0x20 ADD PUSH0 KECCAK256 PUSH0 SWAP1 SLOAD SWAP1 PUSH2 0x100 EXP SWAP1 DIV PUSH1 0xFF AND PUSH2 0x2811 JUMPI PUSH1 0x40 MLOAD PUSH32 0x8C379A000000000000000000000000000000000000000000000000000000000 DUP2 MSTORE PUSH1 0x4 ADD PUSH2 0x2808 SWAP1 PUSH2 0x5048 JUMP JUMPDEST PUSH1 0x40 MLOAD DUP1 SWAP2 SUB SWAP1 REVERT JUMPDEST DUP1 PUSH20 0xFFFFFFFFFFFFFFFFFFFFFFFFFFFFFFFFFFFFFFFF AND CALLER PUSH20 0xFFFFFFFFFFFFFFFFFFFFFFFFFFFFFFFFFFFFFFFF AND EQ PUSH2 0x287F JUMPI PUSH1 0x40 MLOAD PUSH32 0x8C379A000000000000000000000000000000000000000000000000000000000 DUP2 MSTORE PUSH1 0x4 ADD PUSH2 0x2876 SWAP1 PUSH2 0x50B0 JUMP JUMPDEST PUSH1 0x40 MLOAD DUP1 SWAP2 SUB SWAP1 REVERT JUMPDEST CALLER PUSH1 0xA PUSH0 DUP3 PUSH20 0xFFFFFFFFFFFFFFFFFFFFFFFFFFFFFFFFFFFFFFFF AND PUSH20 0xFFFFFFFFFFFFFFFFFFFFFFFFFFFFFFFFFFFFFFFF AND DUP2 MSTORE PUSH1 0x20 ADD SWAP1 DUP2 MSTORE PUSH1 0x20 ADD PUSH0 KECCAK256 PUSH0 SWAP1 SLOAD SWAP1 PUSH2 0x100 EXP SWAP1 DIV PUSH1 0xFF AND PUSH2 0x2909 JUMPI PUSH1 0x40 MLOAD PUSH32 0x8C379A000000000000000000000000000000000000000000000000000000000 DUP2 MSTORE PUSH1 0x4 ADD PUSH2 0x2900 SWAP1 PUSH2 0x5048 JUMP JUMPDEST PUSH1 0x40 MLOAD DUP1 SWAP2 SUB SWAP1 REVERT JUMPDEST PUSH0 PUSH1 0x9 PUSH0 DUP4 PUSH20 0xFFFFFFFFFFFFFFFFFFFFFFFFFFFFFFFFFFFFFFFF AND PUSH20 0xFFFFFFFFFFFFFFFFFFFFFFFFFFFFFFFFFFFFFFFF AND DUP2 MSTORE PUSH1 0x20 ADD SWAP1 DUP2 MSTORE PUSH1 0x20 ADD PUSH0 KECCAK256 SLOAD SWAP1 POP PUSH1 0xB PUSH0 DUP3 DUP2 MSTORE PUSH1 0x20 ADD SWAP1 DUP2 MSTORE PUSH1 0x20 ADD PUSH0 KECCAK256 PUSH0 SWAP1 SLOAD SWAP1 PUSH2 0x100 EXP SWAP1 DIV PUSH1 0xFF AND ISZERO PUSH2 0x29A8 JUMPI PUSH1 0x40 MLOAD PUSH32 0x8C379A000000000000000000000000000000000000000000000000000000000 DUP2 MSTORE PUSH1 0x4 ADD PUSH2 0x299F SWAP1 PUSH2 0x5118 JUMP JUMPDEST PUSH1 0x40 MLOAD DUP1 SWAP2 SUB SWAP1 REVERT JUMPDEST PUSH2 0x29B0 PUSH2 0x34DF JUMP JUMPDEST PUSH0 PUSH1 0x9 PUSH0 CALLER PUSH20 0xFFFFFFFFFFFFFFFFFFFFFFFFFFFFFFFFFFFFFFFF AND PUSH20 0xFFFFFFFFFFFFFFFFFFFFFFFFFFFFFFFFFFFFFFFF AND DUP2 MSTORE PUSH1 0x20 ADD SWAP1 DUP2 MSTORE PUSH1 0x20 ADD PUSH0 KECCAK256 SLOAD SWAP1 POP PUSH0 PUSH1 0x8 PUSH0 DUP4 DUP2 MSTORE PUSH1 0x20 ADD SWAP1 DUP2 MSTORE PUSH1 0x20 ADD PUSH0 KECCAK256 SWAP1 POP DUP7 DUP7 DUP3 PUSH1 0x3 ADD SWAP2 DUP3 PUSH2 0x2A18 SWAP3 SWAP2 SWAP1 PUSH2 0x5380 JUMP JUMPDEST POP TIMESTAMP DUP2 PUSH1 0x1 ADD PUSH0 PUSH2 0x100 EXP DUP2 SLOAD DUP2 PUSH8 0xFFFFFFFFFFFFFFFF MUL NOT AND SWAP1 DUP4 PUSH8 0xFFFFFFFFFFFFFFFF AND MUL OR SWAP1 SSTORE POP DUP2 CALLER PUSH20 0xFFFFFFFFFFFFFFFFFFFFFFFFFFFFFFFFFFFFFFFF AND PUSH32 0xEEA13EC8B49FB404F99B1BF8FD2589A5B2FCC7EB6D17E9A0768D55148A807157 TIMESTAMP PUSH1 0x40 MLOAD PUSH2 0x2A8A SWAP2 SWAP1 PUSH2 0x518B JUMP JUMPDEST PUSH1 0x40 MLOAD DUP1 SWAP2 SUB SWAP1 LOG3 POP POP PUSH2 0x2A9C PUSH2 0x3525 JUMP JUMPDEST POP POP POP POP POP JUMP JUMPDEST PUSH0 PUSH1 0xA PUSH0 DUP4 PUSH20 0xFFFFFFFFFFFFFFFFFFFFFFFFFFFFFFFFFFFFFFFF AND PUSH20 0xFFFFFFFFFFFFFFFFFFFFFFFFFFFFFFFFFFFFFFFF AND DUP2 MSTORE PUSH1 0x20 ADD SWAP1 DUP2 MSTORE PUSH1 0x20 ADD PUSH0 KECCAK256 PUSH0 SWAP1 SLOAD SWAP1 PUSH2 0x100 EXP SWAP1 DIV PUSH1 0xFF AND PUSH2 0x2AFA JUMPI PUSH0 SWAP1 POP PUSH2 0x2B5D JUMP JUMPDEST PUSH0 PUSH1 0x9 PUSH0 DUP5 PUSH20 0xFFFFFFFFFFFFFFFFFFFFFFFFFFFFFFFFFFFFFFFF AND PUSH20 0xFFFFFFFFFFFFFFFFFFFFFFFFFFFFFFFFFFFFFFFF AND DUP2 MSTORE PUSH1 0x20 ADD SWAP1 DUP2 MSTORE PUSH1 0x20 ADD PUSH0 KECCAK256 SLOAD SWAP1 POP PUSH1 0xB PUSH0 DUP3 DUP2 MSTORE PUSH1 0x20 ADD SWAP1 DUP2 MSTORE PUSH1 0x20 ADD PUSH0 KECCAK256 PUSH0 SWAP1 SLOAD SWAP1 PUSH2 0x100 EXP SWAP1 DIV PUSH1 0xFF AND SWAP2 POP POP JUMPDEST SWAP2 SWAP1 POP JUMP JUMPDEST PUSH0 PUSH1 0xE PUSH0 SWAP1 SLOAD SWAP1 PUSH2 0x100 EXP SWAP1 DIV PUSH20 0xFFFFFFFFFFFFFFFFFFFFFFFFFFFFFFFFFFFFFFFF AND PUSH20 0xFFFFFFFFFFFFFFFFFFFFFFFFFFFFFFFFFFFFFFFF AND CALLER PUSH20 0xFFFFFFFFFFFFFFFFFFFFFFFFFFFFFFFFFFFFFFFF AND EQ DUP1 PUSH2 0x2BCA JUMPI POP PUSH1 0xE PUSH1 0x14 SWAP1 SLOAD SWAP1 PUSH2 0x100 EXP SWAP1 DIV PUSH1 0xFF AND JUMPDEST DUP1 PUSH2 0x2C07 JUMPI POP PUSH2 0x2BD8 PUSH2 0x20FD JUMP JUMPDEST PUSH20 0xFFFFFFFFFFFFFFFFFFFFFFFFFFFFFFFFFFFFFFFF AND CALLER PUSH20 0xFFFFFFFFFFFFFFFFFFFFFFFFFFFFFFFFFFFFFFFF AND EQ JUMPDEST PUSH2 0x2C46 JUMPI PUSH1 0x40 MLOAD PUSH32 0x8C379A000000000000000000000000000000000000000000000000000000000 DUP2 MSTORE PUSH1 0x4 ADD PUSH2 0x2C3D SWAP1 PUSH2 0x55BE JUMP JUMPDEST PUSH1 0x40 MLOAD DUP1 SWAP2 SUB SWAP1 REVERT JUMPDEST PUSH2 0x2C4E PUSH2 0x34DF JUMP JUMPDEST PUSH1 0xA PUSH0 DUP4 PUSH20 0xFFFFFFFFFFFFFFFFFFFFFFFFFFFFFFFFFFFFFFFF AND PUSH20 0xFFFFFFFFFFFFFFFFFFFFFFFFFFFFFFFFFFFFFFFF AND DUP2 MSTORE PUSH1 0x20 ADD SWAP1 DUP2 MSTORE PUSH1 0x20 ADD PUSH0 KECCAK256 PUSH0 SWAP1 SLOAD SWAP1 PUSH2 0x100 EXP SWAP1 DIV PUSH1 0xFF AND ISZERO PUSH2 0x2CD8 JUMPI PUSH1 0x40 MLOAD PUSH32 0x8C379A000000000000000000000000000000000000000000000000000000000 DUP2 MSTORE PUSH1 0x4 ADD PUSH2 0x2CCF SWAP1 PUSH2 0x56F6 JUMP JUMPDEST PUSH1 0x40 MLOAD DUP1 SWAP2 SUB SWAP1 REVERT JUMPDEST PUSH0 PUSH20 0xFFFFFFFFFFFFFFFFFFFFFFFFFFFFFFFFFFFFFFFF AND DUP3 PUSH20 0xFFFFFFFFFFFFFFFFFFFFFFFFFFFFFFFFFFFFFFFF AND SUB PUSH2 0x2D46 JUMPI PUSH1 0x40 MLOAD PUSH32 0x8C379A000000000000000000000000000000000000000000000000000000000 DUP2 MSTORE PUSH1 0x4 ADD PUSH2 0x2D3D SWAP1 PUSH2 0x5626 JUMP JUMPDEST PUSH1 0x40 MLOAD DUP1 SWAP2 SUB SWAP1 REVERT JUMPDEST PUSH1 0xD PUSH0 DUP2 SLOAD DUP1 SWAP3 SWAP2 SWAP1 PUSH2 0x2D58 SWAP1 PUSH2 0x5741 JUMP JUMPDEST SWAP2 SWAP1 POP SSTORE POP PUSH0 PUSH1 0xD SLOAD SWAP1 POP PUSH0 PUSH1 0x40 MLOAD DUP1 PUSH1 0xA0 ADD PUSH1 0x40 MSTORE DUP1 DUP6 PUSH20 0xFFFFFFFFFFFFFFFFFFFFFFFFFFFFFFFFFFFFFFFF AND DUP2 MSTORE PUSH1 0x20 ADD TIMESTAMP PUSH8 0xFFFFFFFFFFFFFFFF AND DUP2 MSTORE PUSH1 0x20 ADD TIMESTAMP PUSH8 0xFFFFFFFFFFFFFFFF AND DUP2 MSTORE PUSH1 0x20 ADD PUSH0 DUP1 SHL DUP2 MSTORE PUSH1 0x20 ADD PUSH1 0x40 MLOAD DUP1 PUSH1 0x20 ADD PUSH1 0x40 MSTORE DUP1 PUSH0 DUP2 MSTORE POP DUP2 MSTORE POP SWAP1 POP DUP1 PUSH1 0x8 PUSH0 DUP5 DUP2 MSTORE PUSH1 0x20 ADD SWAP1 DUP2 MSTORE PUSH1 0x20 ADD PUSH0 KECCAK256 PUSH0 DUP3 ADD MLOAD DUP2 PUSH0 ADD PUSH0 PUSH2 0x100 EXP DUP2 SLOAD DUP2 PUSH20 0xFFFFFFFFFFFFFFFFFFFFFFFFFFFFFFFFFFFFFFFF MUL NOT AND SWAP1 DUP4 PUSH20 0xFFFFFFFFFFFFFFFFFFFFFFFFFFFFFFFFFFFFFFFF AND MUL OR SWAP1 SSTORE POP PUSH1 0x20 DUP3 ADD MLOAD DUP2 PUSH0 ADD PUSH1 0x14 PUSH2 0x100 EXP DUP2 SLOAD DUP2 PUSH8 0xFFFFFFFFFFFFFFFF MUL NOT AND SWAP1 DUP4 PUSH8 0xFFFFFFFFFFFFFFFF AND MUL OR SWAP1 SSTORE POP PUSH1 0x40 DUP3 ADD MLOAD DUP2 PUSH1 0x1 ADD PUSH0 PUSH2 0x100 EXP DUP2 SLOAD DUP2 PUSH8 0xFFFFFFFFFFFFFFFF MUL NOT AND SWAP1 DUP4 PUSH8 0xFFFFFFFFFFFFFFFF AND MUL OR SWAP1 SSTORE POP PUSH1 0x60 DUP3 ADD MLOAD DUP2 PUSH1 0x2 ADD SSTORE PUSH1 0x80 DUP3 ADD MLOAD DUP2 PUSH1 0x3 ADD SWAP1 DUP2 PUSH2 0x2E98 SWAP2 SWAP1 PUSH2 0x5788 JUMP JUMPDEST POP SWAP1 POP POP DUP2 PUSH1 0x9 PUSH0 DUP7 PUSH20 0xFFFFFFFFFFFFFFFFFFFFFFFFFFFFFFFFFFFFFFFF AND PUSH20 0xFFFFFFFFFFFFFFFFFFFFFFFFFFFFFFFFFFFFFFFF AND DUP2 MSTORE PUSH1 0x20 ADD SWAP1 DUP2 MSTORE PUSH1 0x20 ADD PUSH0 KECCAK256 DUP2 SWAP1 SSTORE POP PUSH1 0x1 PUSH1 0xA PUSH0 DUP7 PUSH20 0xFFFFFFFFFFFFFFFFFFFFFFFFFFFFFFFFFFFFFFFF AND PUSH20 0xFFFFFFFFFFFFFFFFFFFFFFFFFFFFFFFFFFFFFFFF AND DUP2 MSTORE PUSH1 0x20 ADD SWAP1 DUP2 MSTORE PUSH1 0x20 ADD PUSH0 KECCAK256 PUSH0 PUSH2 0x100 EXP DUP2 SLOAD DUP2 PUSH1 0xFF MUL NOT AND SWAP1 DUP4 ISZERO ISZERO MUL OR SWAP1 SSTORE POP PUSH2 0x2F3D DUP5 DUP4 PUSH2 0x3869 JUMP JUMPDEST DUP2 DUP5 PUSH20 0xFFFFFFFFFFFFFFFFFFFFFFFFFFFFFFFFFFFFFFFF AND PUSH32 0xFD0C93BE4723CB4C74010465B445D5F99EEF0354F49EE7C247FA9EF9093AA8ED TIMESTAMP PUSH1 0x40 MLOAD PUSH2 0x2F84 SWAP2 SWAP1 PUSH2 0x518B JUMP JUMPDEST PUSH1 0x40 MLOAD DUP1 SWAP2 SUB SWAP1 LOG3 DUP2 SWAP3 POP POP POP PUSH2 0x2F99 PUSH2 0x3525 JUMP JUMPDEST SWAP2 SWAP1 POP JUMP JUMPDEST PUSH0 PUSH1 0x5 PUSH0 DUP5 PUSH20 0xFFFFFFFFFFFFFFFFFFFFFFFFFFFFFFFFFFFFFFFF AND PUSH20 0xFFFFFFFFFFFFFFFFFFFFFFFFFFFFFFFFFFFFFFFF AND DUP2 MSTORE PUSH1 0x20 ADD SWAP1 DUP2 MSTORE PUSH1 0x20 ADD PUSH0 KECCAK256 PUSH0 DUP4 PUSH20 0xFFFFFFFFFFFFFFFFFFFFFFFFFFFFFFFFFFFFFFFF AND PUSH20 0xFFFFFFFFFFFFFFFFFFFFFFFFFFFFFFFFFFFFFFFF AND DUP2 MSTORE PUSH1 0x20 ADD SWAP1 DUP2 MSTORE PUSH1 0x20 ADD PUSH0 KECCAK256 PUSH0 SWAP1 SLOAD SWAP1 PUSH2 0x100 EXP SWAP1 DIV PUSH1 0xFF AND SWAP1 POP SWAP3 SWAP2 POP POP JUMP JUMPDEST PUSH2 0x3034 PUSH2 0x447C JUMP JUMPDEST PUSH2 0x303D DUP3 PUSH2 0x3C4F JUMP JUMPDEST PUSH2 0x307C JUMPI PUSH1 0x40 MLOAD PUSH32 0x8C379A000000000000000000000000000000000000000000000000000000000 DUP2 MSTORE PUSH1 0x4 ADD PUSH2 0x3073 SWAP1 PUSH2 0x5966 JUMP JUMPDEST PUSH1 0x40 MLOAD DUP1 SWAP2 SUB SWAP1 REVERT JUMPDEST PUSH1 0x8 PUSH0 DUP4 DUP2 MSTORE PUSH1 0x20 ADD SWAP1 DUP2 MSTORE PUSH1 0x20 ADD PUSH0 KECCAK256 PUSH1 0x40 MLOAD DUP1 PUSH1 0xA0 ADD PUSH1 0x40 MSTORE SWAP1 DUP2 PUSH0 DUP3 ADD PUSH0 SWAP1 SLOAD SWAP1 PUSH2 0x100 EXP SWAP1 DIV PUSH20 0xFFFFFFFFFFFFFFFFFFFFFFFFFFFFFFFFFFFFFFFF AND PUSH20 0xFFFFFFFFFFFFFFFFFFFFFFFFFFFFFFFFFFFFFFFF AND PUSH20 0xFFFFFFFFFFFFFFFFFFFFFFFFFFFFFFFFFFFFFFFF AND DUP2 MSTORE PUSH1 0x20 ADD PUSH0 DUP3 ADD PUSH1 0x14 SWAP1 SLOAD SWAP1 PUSH2 0x100 EXP SWAP1 DIV PUSH8 0xFFFFFFFFFFFFFFFF AND PUSH8 0xFFFFFFFFFFFFFFFF AND PUSH8 0xFFFFFFFFFFFFFFFF AND DUP2 MSTORE PUSH1 0x20 ADD PUSH1 0x1 DUP3 ADD PUSH0 SWAP1 SLOAD SWAP1 PUSH2 0x100 EXP SWAP1 DIV PUSH8 0xFFFFFFFFFFFFFFFF AND PUSH8 0xFFFFFFFFFFFFFFFF AND PUSH8 0xFFFFFFFFFFFFFFFF AND DUP2 MSTORE PUSH1 0x20 ADD PUSH1 0x2 DUP3 ADD SLOAD DUP2 MSTORE PUSH1 0x20 ADD PUSH1 0x3 DUP3 ADD DUP1 SLOAD PUSH2 0x3168 SWAP1 PUSH2 0x4F66 JUMP JUMPDEST DUP1 PUSH1 0x1F ADD PUSH1 0x20 DUP1 SWAP2 DIV MUL PUSH1 0x20 ADD PUSH1 0x40 MLOAD SWAP1 DUP2 ADD PUSH1 0x40 MSTORE DUP1 SWAP3 SWAP2 SWAP1 DUP2 DUP2 MSTORE PUSH1 0x20 ADD DUP3 DUP1 SLOAD PUSH2 0x3194 SWAP1 PUSH2 0x4F66 JUMP JUMPDEST DUP1 ISZERO PUSH2 0x31DF JUMPI DUP1 PUSH1 0x1F LT PUSH2 0x31B6 JUMPI PUSH2 0x100 DUP1 DUP4 SLOAD DIV MUL DUP4 MSTORE SWAP2 PUSH1 0x20 ADD SWAP2 PUSH2 0x31DF JUMP JUMPDEST DUP3 ADD SWAP2 SWAP1 PUSH0 MSTORE PUSH1 0x20 PUSH0 KECCAK256 SWAP1 JUMPDEST DUP2 SLOAD DUP2 MSTORE SWAP1 PUSH1 0x1 ADD SWAP1 PUSH1 0x20 ADD DUP1 DUP4 GT PUSH2 0x31C2 JUMPI DUP3 SWAP1 SUB PUSH1 0x1F AND DUP3 ADD SWAP2 JUMPDEST POP POP POP POP POP DUP2 MSTORE POP POP SWAP1 POP SWAP2 SWAP1 POP JUMP JUMPDEST PUSH2 0x31F7 PUSH2 0x37E2 JUMP JUMPDEST PUSH0 PUSH20 0xFFFFFFFFFFFFFFFFFFFFFFFFFFFFFFFFFFFFFFFF AND DUP2 PUSH20 0xFFFFFFFFFFFFFFFFFFFFFFFFFFFFFFFFFFFFFFFF AND SUB PUSH2 0x3267 JUMPI PUSH0 PUSH1 0x40 MLOAD PUSH32 0x1E4FBDF700000000000000000000000000000000000000000000000000000000 DUP2 MSTORE PUSH1 0x4 ADD PUSH2 0x325E SWAP2 SWAP1 PUSH2 0x46DF JUMP JUMPDEST PUSH1 0x40 MLOAD DUP1 SWAP2 SUB SWAP1 REVERT JUMPDEST PUSH2 0x3270 DUP2 PUSH2 0x3886 JUMP JUMPDEST POP JUMP JUMPDEST PUSH2 0x327B PUSH2 0x37E2 JUMP JUMPDEST DUP1 PUSH1 0xE PUSH1 0x14 PUSH2 0x100 EXP DUP2 SLOAD DUP2 PUSH1 0xFF MUL NOT AND SWAP1 DUP4 ISZERO ISZERO MUL OR SWAP1 SSTORE POP PUSH32 0xC977AF333CF8813C2D0975C679D4FACE4E304C8F859030B4379C4B21C84963A2 DUP2 PUSH1 0x40 MLOAD PUSH2 0x32C4 SWAP2 SWAP1 PUSH2 0x457F JUMP JUMPDEST PUSH1 0x40 MLOAD DUP1 SWAP2 SUB SWAP1 LOG1 POP JUMP JUMPDEST PUSH0 PUSH1 0xA PUSH0 DUP4 PUSH20 0xFFFFFFFFFFFFFFFFFFFFFFFFFFFFFFFFFFFFFFFF AND PUSH20 0xFFFFFFFFFFFFFFFFFFFFFFFFFFFFFFFFFFFFFFFF AND DUP2 MSTORE PUSH1 0x20 ADD SWAP1 DUP2 MSTORE PUSH1 0x20 ADD PUSH0 KECCAK256 PUSH0 SWAP1 SLOAD SWAP1 PUSH2 0x100 EXP SWAP1 DIV PUSH1 0xFF AND PUSH2 0x3359 JUMPI PUSH1 0x40 MLOAD PUSH32 0x8C379A000000000000000000000000000000000000000000000000000000000 DUP2 MSTORE PUSH1 0x4 ADD PUSH2 0x3350 SWAP1 PUSH2 0x5048 JUMP JUMPDEST PUSH1 0x40 MLOAD DUP1 SWAP2 SUB SWAP1 REVERT JUMPDEST PUSH0 PUSH1 0x9 PUSH0 DUP5 PUSH20 0xFFFFFFFFFFFFFFFFFFFFFFFFFFFFFFFFFFFFFFFF AND PUSH20 0xFFFFFFFFFFFFFFFFFFFFFFFFFFFFFFFFFFFFFFFF AND DUP2 MSTORE PUSH1 0x20 ADD SWAP1 DUP2 MSTORE PUSH1 0x20 ADD PUSH0 KECCAK256 SLOAD SWAP1 POP PUSH1 0x8 PUSH0 DUP3 DUP2 MSTORE PUSH1 0x20 ADD SWAP1 DUP2 MSTORE PUSH1 0x20 ADD PUSH0 KECCAK256 PUSH1 0x2 ADD SLOAD SWAP2 POP POP SWAP2 SWAP1 POP JUMP JUMPDEST PUSH0 PUSH32 0x1FFC9A700000000000000000000000000000000000000000000000000000000 PUSH28 0xFFFFFFFFFFFFFFFFFFFFFFFFFFFFFFFFFFFFFFFFFFFFFFFFFFFFFFFF NOT AND DUP3 PUSH28 0xFFFFFFFFFFFFFFFFFFFFFFFFFFFFFFFFFFFFFFFFFFFFFFFFFFFFFFFF NOT AND EQ SWAP1 POP SWAP2 SWAP1 POP JUMP JUMPDEST PUSH0 DUP1 PUSH2 0x342B DUP4 PUSH2 0x3C8F JUMP JUMPDEST SWAP1 POP PUSH0 PUSH20 0xFFFFFFFFFFFFFFFFFFFFFFFFFFFFFFFFFFFFFFFF AND DUP2 PUSH20 0xFFFFFFFFFFFFFFFFFFFFFFFFFFFFFFFFFFFFFFFF AND SUB PUSH2 0x349D JUMPI DUP3 PUSH1 0x40 MLOAD PUSH32 0x7E27328900000000000000000000000000000000000000000000000000000000 DUP2 MSTORE PUSH1 0x4 ADD PUSH2 0x3494 SWAP2 SWAP1 PUSH2 0x4974 JUMP JUMPDEST PUSH1 0x40 MLOAD DUP1 SWAP2 SUB SWAP1 REVERT JUMPDEST DUP1 SWAP2 POP POP SWAP2 SWAP1 POP JUMP JUMPDEST PUSH0 PUSH1 0x4 PUSH0 DUP4 DUP2 MSTORE PUSH1 0x20 ADD SWAP1 DUP2 MSTORE PUSH1 0x20 ADD PUSH0 KECCAK256 PUSH0 SWAP1 SLOAD SWAP1 PUSH2 0x100 EXP SWAP1 DIV PUSH20 0xFFFFFFFFFFFFFFFFFFFFFFFFFFFFFFFFFFFFFFFF AND SWAP1 POP SWAP2 SWAP1 POP JUMP JUMPDEST PUSH1 0x2 PUSH1 0x7 SLOAD SUB PUSH2 0x351B JUMPI PUSH1 0x40 MLOAD PUSH32 0x3EE5AEB500000000000000000000000000000000000000000000000000000000 DUP2 MSTORE PUSH1 0x4 ADD PUSH1 0x40 MLOAD DUP1 SWAP2 SUB SWAP1 REVERT JUMPDEST PUSH1 0x2 PUSH1 0x7 DUP2 SWAP1 SSTORE POP JUMP JUMPDEST PUSH1 0x1 PUSH1 0x7 DUP2 SWAP1 SSTORE POP JUMP JUMPDEST PUSH0 PUSH1 0x9 PUSH0 DUP5 PUSH20 0xFFFFFFFFFFFFFFFFFFFFFFFFFFFFFFFFFFFFFFFF AND PUSH20 0xFFFFFFFFFFFFFFFFFFFFFFFFFFFFFFFFFFFFFFFF AND DUP2 MSTORE PUSH1 0x20 ADD SWAP1 DUP2 MSTORE PUSH1 0x20 ADD PUSH0 KECCAK256 SLOAD SWAP1 POP PUSH1 0xB PUSH0 DUP3 DUP2 MSTORE PUSH1 0x20 ADD SWAP1 DUP2 MSTORE PUSH1 0x20 ADD PUSH0 KECCAK256 PUSH0 SWAP1 SLOAD SWAP1 PUSH2 0x100 EXP SWAP1 DIV PUSH1 0xFF AND ISZERO PUSH2 0x35CE JUMPI PUSH1 0x40 MLOAD PUSH32 0x8C379A000000000000000000000000000000000000000000000000000000000 DUP2 MSTORE PUSH1 0x4 ADD PUSH2 0x35C5 SWAP1 PUSH2 0x5118 JUMP JUMPDEST PUSH1 0x40 MLOAD DUP1 SWAP2 SUB SWAP1 REVERT JUMPDEST PUSH1 0x1 PUSH1 0xB PUSH0 DUP4 DUP2 MSTORE PUSH1 0x20 ADD SWAP1 DUP2 MSTORE PUSH1 0x20 ADD PUSH0 KECCAK256 PUSH0 PUSH2 0x100 EXP DUP2 SLOAD DUP2 PUSH1 0xFF MUL NOT AND SWAP1 DUP4 ISZERO ISZERO MUL OR SWAP1 SSTORE POP PUSH1 0x1 PUSH1 0xC PUSH0 DUP6 PUSH20 0xFFFFFFFFFFFFFFFFFFFFFFFFFFFFFFFFFFFFFFFF AND PUSH20 0xFFFFFFFFFFFFFFFFFFFFFFFFFFFFFFFFFFFFFFFF AND DUP2 MSTORE PUSH1 0x20 ADD SWAP1 DUP2 MSTORE PUSH1 0x20 ADD PUSH0 KECCAK256 PUSH0 PUSH2 0x100 EXP DUP2 SLOAD DUP2 PUSH1 0xFF MUL NOT AND SWAP1 DUP4 ISZERO ISZERO MUL OR SWAP1 SSTORE POP DUP2 ISZERO PUSH2 0x36BD JUMPI PUSH0 PUSH1 0x8 PUSH0 DUP4 DUP2 MSTORE PUSH1 0x20 ADD SWAP1 DUP2 MSTORE PUSH1 0x20 ADD PUSH0 KECCAK256 SWAP1 POP PUSH0 DUP1 SHL DUP2 PUSH1 0x2 ADD DUP2 SWAP1 SSTORE POP PUSH1 0x40 MLOAD DUP1 PUSH1 0x20 ADD PUSH1 0x40 MSTORE DUP1 PUSH0 DUP2 MSTORE POP DUP2 PUSH1 0x3 ADD SWAP1 DUP2 PUSH2 0x3690 SWAP2 SWAP1 PUSH2 0x5788 JUMP JUMPDEST POP TIMESTAMP DUP2 PUSH1 0x1 ADD PUSH0 PUSH2 0x100 EXP DUP2 SLOAD DUP2 PUSH8 0xFFFFFFFFFFFFFFFF MUL NOT AND SWAP1 DUP4 PUSH8 0xFFFFFFFFFFFFFFFF AND MUL OR SWAP1 SSTORE POP POP JUMPDEST DUP1 DUP4 PUSH20 0xFFFFFFFFFFFFFFFFFFFFFFFFFFFFFFFFFFFFFFFF AND PUSH32 0xE8CCF73831B7F096110633FC510FB0D4E739D5DF4DA47CB20FDBCD06711DD6F5 TIMESTAMP PUSH1 0x40 MLOAD PUSH2 0x3704 SWAP2 SWAP1 PUSH2 0x518B JUMP JUMPDEST PUSH1 0x40 MLOAD DUP1 SWAP2 SUB SWAP1 LOG3 POP POP POP JUMP JUMPDEST PUSH0 CALLER SWAP1 POP SWAP1 JUMP JUMPDEST PUSH0 DUP1 PUSH2 0x3723 DUP5 PUSH2 0x3C8F JUMP JUMPDEST SWAP1 POP PUSH0 PUSH20 0xFFFFFFFFFFFFFFFFFFFFFFFFFFFFFFFFFFFFFFFF AND DUP2 PUSH20 0xFFFFFFFFFFFFFFFFFFFFFFFFFFFFFFFFFFFFFFFF AND EQ ISZERO DUP1 ISZERO PUSH2 0x378D JUMPI POP PUSH0 PUSH20 0xFFFFFFFFFFFFFFFFFFFFFFFFFFFFFFFFFFFFFFFF AND DUP6 PUSH20 0xFFFFFFFFFFFFFFFFFFFFFFFFFFFFFFFFFFFFFFFF AND EQ ISZERO JUMPDEST ISZERO PUSH2 0x37CD JUMPI PUSH1 0x40 MLOAD PUSH32 0x8C379A000000000000000000000000000000000000000000000000000000000 DUP2 MSTORE PUSH1 0x4 ADD PUSH2 0x37C4 SWAP1 PUSH2 0x4FE0 JUMP JUMPDEST PUSH1 0x40 MLOAD DUP1 SWAP2 SUB SWAP1 REVERT JUMPDEST PUSH2 0x37D8 DUP6 DUP6 DUP6 PUSH2 0x3CC8 JUMP JUMPDEST SWAP2 POP POP SWAP4 SWAP3 POP POP POP JUMP JUMPDEST PUSH2 0x37EA PUSH2 0x3711 JUMP JUMPDEST PUSH20 0xFFFFFFFFFFFFFFFFFFFFFFFFFFFFFFFFFFFFFFFF AND PUSH2 0x3808 PUSH2 0x20FD JUMP JUMPDEST PUSH20 0xFFFFFFFFFFFFFFFFFFFFFFFFFFFFFFFFFFFFFFFF AND EQ PUSH2 0x3867 JUMPI PUSH2 0x382B PUSH2 0x3711 JUMP JUMPDEST PUSH1 0x40 MLOAD PUSH32 0x118CDAA700000000000000000000000000000000000000000000000000000000 DUP2 MSTORE PUSH1 0x4 ADD PUSH2 0x385E SWAP2 SWAP1 PUSH2 0x46DF JUMP JUMPDEST PUSH1 0x40 MLOAD DUP1 SWAP2 SUB SWAP1 REVERT JUMPDEST JUMP JUMPDEST PUSH2 0x3882 DUP3 DUP3 PUSH1 0x40 MLOAD DUP1 PUSH1 0x20 ADD PUSH1 0x40 MSTORE DUP1 PUSH0 DUP2 MSTORE POP PUSH2 0x3ED3 JUMP JUMPDEST POP POP JUMP JUMPDEST PUSH0 PUSH1 0x6 PUSH0 SWAP1 SLOAD SWAP1 PUSH2 0x100 EXP SWAP1 DIV PUSH20 0xFFFFFFFFFFFFFFFFFFFFFFFFFFFFFFFFFFFFFFFF AND SWAP1 POP DUP2 PUSH1 0x6 PUSH0 PUSH2 0x100 EXP DUP2 SLOAD DUP2 PUSH20 0xFFFFFFFFFFFFFFFFFFFFFFFFFFFFFFFFFFFFFFFF MUL NOT AND SWAP1 DUP4 PUSH20 0xFFFFFFFFFFFFFFFFFFFFFFFFFFFFFFFFFFFFFFFF AND MUL OR SWAP1 SSTORE POP DUP2 PUSH20 0xFFFFFFFFFFFFFFFFFFFFFFFFFFFFFFFFFFFFFFFF AND DUP2 PUSH20 0xFFFFFFFFFFFFFFFFFFFFFFFFFFFFFFFFFFFFFFFF AND PUSH32 0x8BE0079C531659141344CD1FD0A4F28419497F9722A3DAAFE3B4186F6B6457E0 PUSH1 0x40 MLOAD PUSH1 0x40 MLOAD DUP1 SWAP2 SUB SWAP1 LOG3 POP POP JUMP JUMPDEST PUSH0 DUP4 PUSH20 0xFFFFFFFFFFFFFFFFFFFFFFFFFFFFFFFFFFFFFFFF AND EXTCODESIZE GT ISZERO PUSH2 0x3AEE JUMPI DUP3 PUSH20 0xFFFFFFFFFFFFFFFFFFFFFFFFFFFFFFFFFFFFFFFF AND PUSH4 0x150B7A02 DUP7 DUP7 DUP6 DUP6 PUSH1 0x40 MLOAD DUP6 PUSH4 0xFFFFFFFF AND PUSH1 0xE0 SHL DUP2 MSTORE PUSH1 0x4 ADD PUSH2 0x39A7 SWAP5 SWAP4 SWAP3 SWAP2 SWAP1 PUSH2 0x5984 JUMP JUMPDEST PUSH1 0x20 PUSH1 0x40 MLOAD DUP1 DUP4 SUB DUP2 PUSH0 DUP8 GAS CALL SWAP3 POP POP POP DUP1 ISZERO PUSH2 0x39E2 JUMPI POP PUSH1 0x40 MLOAD RETURNDATASIZE PUSH1 0x1F NOT PUSH1 0x1F DUP3 ADD AND DUP3 ADD DUP1 PUSH1 0x40 MSTORE POP DUP2 ADD SWAP1 PUSH2 0x39DF SWAP2 SWAP1 PUSH2 0x59E2 JUMP JUMPDEST PUSH1 0x1 JUMPDEST PUSH2 0x3A63 JUMPI RETURNDATASIZE DUP1 PUSH0 DUP2 EQ PUSH2 0x3A10 JUMPI PUSH1 0x40 MLOAD SWAP2 POP PUSH1 0x1F NOT PUSH1 0x3F RETURNDATASIZE ADD AND DUP3 ADD PUSH1 0x40 MSTORE RETURNDATASIZE DUP3 MSTORE RETURNDATASIZE PUSH0 PUSH1 0x20 DUP5 ADD RETURNDATACOPY PUSH2 0x3A15 JUMP JUMPDEST PUSH1 0x60 SWAP2 POP JUMPDEST POP PUSH0 DUP2 MLOAD SUB PUSH2 0x3A5B JUMPI DUP4 PUSH1 0x40 MLOAD PUSH32 0x64A0AE9200000000000000000000000000000000000000000000000000000000 DUP2 MSTORE PUSH1 0x4 ADD PUSH2 0x3A52 SWAP2 SWAP1 PUSH2 0x46DF JUMP JUMPDEST PUSH1 0x40 MLOAD DUP1 SWAP2 SUB SWAP1 REVERT JUMPDEST DUP1 MLOAD PUSH1 0x20 DUP3 ADD REVERT JUMPDEST PUSH4 0x150B7A02 PUSH1 0xE0 SHL PUSH28 0xFFFFFFFFFFFFFFFFFFFFFFFFFFFFFFFFFFFFFFFFFFFFFFFFFFFFFFFF NOT AND DUP2 PUSH28 0xFFFFFFFFFFFFFFFFFFFFFFFFFFFFFFFFFFFFFFFFFFFFFFFFFFFFFFFF NOT AND EQ PUSH2 0x3AEC JUMPI DUP4 PUSH1 0x40 MLOAD PUSH32 0x64A0AE9200000000000000000000000000000000000000000000000000000000 DUP2 MSTORE PUSH1 0x4 ADD PUSH2 0x3AE3 SWAP2 SWAP1 PUSH2 0x46DF JUMP JUMPDEST PUSH1 0x40 MLOAD DUP1 SWAP2 SUB SWAP1 REVERT JUMPDEST POP JUMPDEST POP POP POP POP POP JUMP JUMPDEST PUSH1 0x60 PUSH1 0xF DUP1 SLOAD PUSH2 0x3B04 SWAP1 PUSH2 0x4F66 JUMP JUMPDEST DUP1 PUSH1 0x1F ADD PUSH1 0x20 DUP1 SWAP2 DIV MUL PUSH1 0x20 ADD PUSH1 0x40 MLOAD SWAP1 DUP2 ADD PUSH1 0x40 MSTORE DUP1 SWAP3 SWAP2 SWAP1 DUP2 DUP2 MSTORE PUSH1 0x20 ADD DUP3 DUP1 SLOAD PUSH2 0x3B30 SWAP1 PUSH2 0x4F66 JUMP JUMPDEST DUP1 ISZERO PUSH2 0x3B7B JUMPI DUP1 PUSH1 0x1F LT PUSH2 0x3B52 JUMPI PUSH2 0x100 DUP1 DUP4 SLOAD DIV MUL DUP4 MSTORE SWAP2 PUSH1 0x20 ADD SWAP2 PUSH2 0x3B7B JUMP JUMPDEST DUP3 ADD SWAP2 SWAP1 PUSH0 MSTORE PUSH1 0x20 PUSH0 KECCAK256 SWAP1 JUMPDEST DUP2 SLOAD DUP2 MSTORE SWAP1 PUSH1 0x1 ADD SWAP1 PUSH1 0x20 ADD DUP1 DUP4 GT PUSH2 0x3B5E JUMPI DUP3 SWAP1 SUB PUSH1 0x1F AND DUP3 ADD SWAP2 JUMPDEST POP POP POP POP POP SWAP1 POP SWAP1 JUMP JUMPDEST PUSH1 0x60 PUSH0 PUSH1 0x1 PUSH2 0x3B93 DUP5 PUSH2 0x3EF6 JUMP JUMPDEST ADD SWAP1 POP PUSH0 DUP2 PUSH8 0xFFFFFFFFFFFFFFFF DUP2 GT ISZERO PUSH2 0x3BB1 JUMPI PUSH2 0x3BB0 PUSH2 0x4B09 JUMP JUMPDEST JUMPDEST PUSH1 0x40 MLOAD SWAP1 DUP1 DUP3 MSTORE DUP1 PUSH1 0x1F ADD PUSH1 0x1F NOT AND PUSH1 0x20 ADD DUP3 ADD PUSH1 0x40 MSTORE DUP1 ISZERO PUSH2 0x3BE3 JUMPI DUP2 PUSH1 0x20 ADD PUSH1 0x1 DUP3 MUL DUP1 CALLDATASIZE DUP4 CALLDATACOPY DUP1 DUP3 ADD SWAP2 POP POP SWAP1 POP JUMPDEST POP SWAP1 POP PUSH0 DUP3 PUSH1 0x20 DUP4 ADD ADD SWAP1 POP JUMPDEST PUSH1 0x1 ISZERO PUSH2 0x3C44 JUMPI DUP1 DUP1 PUSH1 0x1 SWAP1 SUB SWAP2 POP POP PUSH32 0x3031323334353637383961626364656600000000000000000000000000000000 PUSH1 0xA DUP7 MOD BYTE DUP2 MSTORE8 PUSH1 0xA DUP6 DUP2 PUSH2 0x3C39 JUMPI PUSH2 0x3C38 PUSH2 0x5A0D JUMP JUMPDEST JUMPDEST DIV SWAP5 POP PUSH0 DUP6 SUB PUSH2 0x3BF0 JUMPI JUMPDEST DUP2 SWAP4 POP POP POP POP SWAP2 SWAP1 POP JUMP JUMPDEST PUSH0 DUP1 PUSH20 0xFFFFFFFFFFFFFFFFFFFFFFFFFFFFFFFFFFFFFFFF AND PUSH2 0x3C70 DUP4 PUSH2 0x3C8F JUMP JUMPDEST PUSH20 0xFFFFFFFFFFFFFFFFFFFFFFFFFFFFFFFFFFFFFFFF AND EQ ISZERO SWAP1 POP SWAP2 SWAP1 POP JUMP JUMPDEST PUSH0 PUSH1 0x2 PUSH0 DUP4 DUP2 MSTORE PUSH1 0x20 ADD SWAP1 DUP2 MSTORE PUSH1 0x20 ADD PUSH0 KECCAK256 PUSH0 SWAP1 SLOAD SWAP1 PUSH2 0x100 EXP SWAP1 DIV PUSH20 0xFFFFFFFFFFFFFFFFFFFFFFFFFFFFFFFFFFFFFFFF AND SWAP1 POP SWAP2 SWAP1 POP JUMP JUMPDEST PUSH0 DUP1 PUSH2 0x3CD3 DUP5 PUSH2 0x3C8F JUMP JUMPDEST SWAP1 POP PUSH0 PUSH20 0xFFFFFFFFFFFFFFFFFFFFFFFFFFFFFFFFFFFFFFFF AND DUP4 PUSH20 0xFFFFFFFFFFFFFFFFFFFFFFFFFFFFFFFFFFFFFFFF AND EQ PUSH2 0x3D14 JUMPI PUSH2 0x3D13 DUP2 DUP5 DUP7 PUSH2 0x4047 JUMP JUMPDEST JUMPDEST PUSH0 PUSH20 0xFFFFFFFFFFFFFFFFFFFFFFFFFFFFFFFFFFFFFFFF AND DUP2 PUSH20 0xFFFFFFFFFFFFFFFFFFFFFFFFFFFFFFFFFFFFFFFF AND EQ PUSH2 0x3D9F JUMPI PUSH2 0x3D53 PUSH0 DUP6 PUSH0 DUP1 PUSH2 0x410A JUMP JUMPDEST PUSH1 0x1 PUSH1 0x3 PUSH0 DUP4 PUSH20 0xFFFFFFFFFFFFFFFFFFFFFFFFFFFFFFFFFFFFFFFF AND PUSH20 0xFFFFFFFFFFFFFFFFFFFFFFFFFFFFFFFFFFFFFFFF AND DUP2 MSTORE PUSH1 0x20 ADD SWAP1 DUP2 MSTORE PUSH1 0x20 ADD PUSH0 KECCAK256 PUSH0 DUP3 DUP3 SLOAD SUB SWAP3 POP POP DUP2 SWAP1 SSTORE POP JUMPDEST PUSH0 PUSH20 0xFFFFFFFFFFFFFFFFFFFFFFFFFFFFFFFFFFFFFFFF AND DUP6 PUSH20 0xFFFFFFFFFFFFFFFFFFFFFFFFFFFFFFFFFFFFFFFF AND EQ PUSH2 0x3E1E JUMPI PUSH1 0x1 PUSH1 0x3 PUSH0 DUP8 PUSH20 0xFFFFFFFFFFFFFFFFFFFFFFFFFFFFFFFFFFFFFFFF AND PUSH20 0xFFFFFFFFFFFFFFFFFFFFFFFFFFFFFFFFFFFFFFFF AND DUP2 MSTORE PUSH1 0x20 ADD SWAP1 DUP2 MSTORE PUSH1 0x20 ADD PUSH0 KECCAK256 PUSH0 DUP3 DUP3 SLOAD ADD SWAP3 POP POP DUP2 SWAP1 SSTORE POP JUMPDEST DUP5 PUSH1 0x2 PUSH0 DUP7 DUP2 MSTORE PUSH1 0x20 ADD SWAP1 DUP2 MSTORE PUSH1 0x20 ADD PUSH0 KECCAK256 PUSH0 PUSH2 0x100 EXP DUP2 SLOAD DUP2 PUSH20 0xFFFFFFFFFFFFFFFFFFFFFFFFFFFFFFFFFFFFFFFF MUL NOT AND SWAP1 DUP4 PUSH20 0xFFFFFFFFFFFFFFFFFFFFFFFFFFFFFFFFFFFFFFFF AND MUL OR SWAP1 SSTORE POP DUP4 DUP6 PUSH20 0xFFFFFFFFFFFFFFFFFFFFFFFFFFFFFFFFFFFFFFFF AND DUP3 PUSH20 0xFFFFFFFFFFFFFFFFFFFFFFFFFFFFFFFFFFFFFFFF AND PUSH32 0xDDF252AD1BE2C89B69C2B068FC378DAA952BA7F163C4A11628F55A4DF523B3EF PUSH1 0x40 MLOAD PUSH1 0x40 MLOAD DUP1 SWAP2 SUB SWAP1 LOG4 DUP1 SWAP2 POP POP SWAP4 SWAP3 POP POP POP JUMP JUMPDEST PUSH2 0x3EDD DUP4 DUP4 PUSH2 0x42C9 JUMP JUMPDEST PUSH2 0x3EF1 PUSH2 0x3EE8 PUSH2 0x3711 JUMP JUMPDEST PUSH0 DUP6 DUP6 DUP6 PUSH2 0x3949 JUMP JUMPDEST POP POP POP JUMP JUMPDEST PUSH0 DUP1 PUSH0 SWAP1 POP PUSH27 0x184F03E93FF9F4DAA797ED6E38ED64BF6A1F010000000000000000 DUP4 LT PUSH2 0x3F52 JUMPI PUSH27 0x184F03E93FF9F4DAA797ED6E38ED64BF6A1F010000000000000000 DUP4 DUP2 PUSH2 0x3F48 JUMPI PUSH2 0x3F47 PUSH2 0x5A0D JUMP JUMPDEST JUMPDEST DIV SWAP3 POP PUSH1 0x40 DUP2 ADD SWAP1 POP JUMPDEST PUSH14 0x4EE2D6D415B85ACEF8100000000 DUP4 LT PUSH2 0x3F8F JUMPI PUSH14 0x4EE2D6D415B85ACEF8100000000 DUP4 DUP2 PUSH2 0x3F85 JUMPI PUSH2 0x3F84 PUSH2 0x5A0D JUMP JUMPDEST JUMPDEST DIV SWAP3 POP PUSH1 0x20 DUP2 ADD SWAP1 POP JUMPDEST PUSH7 0x2386F26FC10000 DUP4 LT PUSH2 0x3FBE JUMPI PUSH7 0x2386F26FC10000 DUP4 DUP2 PUSH2 0x3FB4 JUMPI PUSH2 0x3FB3 PUSH2 0x5A0D JUMP JUMPDEST JUMPDEST DIV SWAP3 POP PUSH1 0x10 DUP2 ADD SWAP1 POP JUMPDEST PUSH4 0x5F5E100 DUP4 LT PUSH2 0x3FE7 JUMPI PUSH4 0x5F5E100 DUP4 DUP2 PUSH2 0x3FDD JUMPI PUSH2 0x3FDC PUSH2 0x5A0D JUMP JUMPDEST JUMPDEST DIV SWAP3 POP PUSH1 0x8 DUP2 ADD SWAP1 POP JUMPDEST PUSH2 0x2710 DUP4 LT PUSH2 0x400C JUMPI PUSH2 0x2710 DUP4 DUP2 PUSH2 0x4002 JUMPI PUSH2 0x4001 PUSH2 0x5A0D JUMP JUMPDEST JUMPDEST DIV SWAP3 POP PUSH1 0x4 DUP2 ADD SWAP1 POP JUMPDEST PUSH1 0x64 DUP4 LT PUSH2 0x402F JUMPI PUSH1 0x64 DUP4 DUP2 PUSH2 0x4025 JUMPI PUSH2 0x4024 PUSH2 0x5A0D JUMP JUMPDEST JUMPDEST DIV SWAP3 POP PUSH1 0x2 DUP2 ADD SWAP1 POP JUMPDEST PUSH1 0xA DUP4 LT PUSH2 0x403E JUMPI PUSH1 0x1 DUP2 ADD SWAP1 POP JUMPDEST DUP1 SWAP2 POP POP SWAP2 SWAP1 POP JUMP JUMPDEST PUSH2 0x4052 DUP4 DUP4 DUP4 PUSH2 0x43BC JUMP JUMPDEST PUSH2 0x4105 JUMPI PUSH0 PUSH20 0xFFFFFFFFFFFFFFFFFFFFFFFFFFFFFFFFFFFFFFFF AND DUP4 PUSH20 0xFFFFFFFFFFFFFFFFFFFFFFFFFFFFFFFFFFFFFFFF AND SUB PUSH2 0x40C6 JUMPI DUP1 PUSH1 0x40 MLOAD PUSH32 0x7E27328900000000000000000000000000000000000000000000000000000000 DUP2 MSTORE PUSH1 0x4 ADD PUSH2 0x40BD SWAP2 SWAP1 PUSH2 0x4974 JUMP JUMPDEST PUSH1 0x40 MLOAD DUP1 SWAP2 SUB SWAP1 REVERT JUMPDEST DUP2 DUP2 PUSH1 0x40 MLOAD PUSH32 0x177E802F00000000000000000000000000000000000000000000000000000000 DUP2 MSTORE PUSH1 0x4 ADD PUSH2 0x40FC SWAP3 SWAP2 SWAP1 PUSH2 0x5A3A JUMP JUMPDEST PUSH1 0x40 MLOAD DUP1 SWAP2 SUB SWAP1 REVERT JUMPDEST POP POP POP JUMP JUMPDEST DUP1 DUP1 PUSH2 0x4142 JUMPI POP PUSH0 PUSH20 0xFFFFFFFFFFFFFFFFFFFFFFFFFFFFFFFFFFFFFFFF AND DUP3 PUSH20 0xFFFFFFFFFFFFFFFFFFFFFFFFFFFFFFFFFFFFFFFF AND EQ ISZERO JUMPDEST ISZERO PUSH2 0x4274 JUMPI PUSH0 PUSH2 0x4151 DUP5 PUSH2 0x3420 JUMP JUMPDEST SWAP1 POP PUSH0 PUSH20 0xFFFFFFFFFFFFFFFFFFFFFFFFFFFFFFFFFFFFFFFF AND DUP4 PUSH20 0xFFFFFFFFFFFFFFFFFFFFFFFFFFFFFFFFFFFFFFFF AND EQ ISZERO DUP1 ISZERO PUSH2 0x41BB JUMPI POP DUP3 PUSH20 0xFFFFFFFFFFFFFFFFFFFFFFFFFFFFFFFFFFFFFFFF AND DUP2 PUSH20 0xFFFFFFFFFFFFFFFFFFFFFFFFFFFFFFFFFFFFFFFF AND EQ ISZERO JUMPDEST DUP1 ISZERO PUSH2 0x41CE JUMPI POP PUSH2 0x41CC DUP2 DUP5 PUSH2 0x2F9E JUMP JUMPDEST ISZERO JUMPDEST ISZERO PUSH2 0x4210 JUMPI DUP3 PUSH1 0x40 MLOAD PUSH32 0xA9FBF51F00000000000000000000000000000000000000000000000000000000 DUP2 MSTORE PUSH1 0x4 ADD PUSH2 0x4207 SWAP2 SWAP1 PUSH2 0x46DF JUMP JUMPDEST PUSH1 0x40 MLOAD DUP1 SWAP2 SUB SWAP1 REVERT JUMPDEST DUP2 ISZERO PUSH2 0x4272 JUMPI DUP4 DUP6 PUSH20 0xFFFFFFFFFFFFFFFFFFFFFFFFFFFFFFFFFFFFFFFF AND DUP3 PUSH20 0xFFFFFFFFFFFFFFFFFFFFFFFFFFFFFFFFFFFFFFFF AND PUSH32 0x8C5BE1E5EBEC7D5BD14F71427D1E84F3DD0314C0F7B2291E5B200AC8C7C3B925 PUSH1 0x40 MLOAD PUSH1 0x40 MLOAD DUP1 SWAP2 SUB SWAP1 LOG4 JUMPDEST POP JUMPDEST DUP4 PUSH1 0x4 PUSH0 DUP6 DUP2 MSTORE PUSH1 0x20 ADD SWAP1 DUP2 MSTORE PUSH1 0x20 ADD PUSH0 KECCAK256 PUSH0 PUSH2 0x100 EXP DUP2 SLOAD DUP2 PUSH20 0xFFFFFFFFFFFFFFFFFFFFFFFFFFFFFFFFFFFFFFFF MUL NOT AND SWAP1 DUP4 PUSH20 0xFFFFFFFFFFFFFFFFFFFFFFFFFFFFFFFFFFFFFFFF AND MUL OR SWAP1 SSTORE POP POP POP POP POP JUMP JUMPDEST PUSH0 PUSH20 0xFFFFFFFFFFFFFFFFFFFFFFFFFFFFFFFFFFFFFFFF AND DUP3 PUSH20 0xFFFFFFFFFFFFFFFFFFFFFFFFFFFFFFFFFFFFFFFF AND SUB PUSH2 0x4339 JUMPI PUSH0 PUSH1 0x40 MLOAD PUSH32 0x64A0AE9200000000000000000000000000000000000000000000000000000000 DUP2 MSTORE PUSH1 0x4 ADD PUSH2 0x4330 SWAP2 SWAP1 PUSH2 0x46DF JUMP JUMPDEST PUSH1 0x40 MLOAD DUP1 SWAP2 SUB SWAP1 REVERT JUMPDEST PUSH0 PUSH2 0x4345 DUP4 DUP4 PUSH0 PUSH2 0x3718 JUMP JUMPDEST SWAP1 POP PUSH0 PUSH20 0xFFFFFFFFFFFFFFFFFFFFFFFFFFFFFFFFFFFFFFFF AND DUP2 PUSH20 0xFFFFFFFFFFFFFFFFFFFFFFFFFFFFFFFFFFFFFFFF AND EQ PUSH2 0x43B7 JUMPI PUSH0 PUSH1 0x40 MLOAD PUSH32 0x73C6AC6E00000000000000000000000000000000000000000000000000000000 DUP2 MSTORE PUSH1 0x4 ADD PUSH2 0x43AE SWAP2 SWAP1 PUSH2 0x46DF JUMP JUMPDEST PUSH1 0x40 MLOAD DUP1 SWAP2 SUB SWAP1 REVERT JUMPDEST POP POP POP JUMP JUMPDEST PUSH0 DUP1 PUSH20 0xFFFFFFFFFFFFFFFFFFFFFFFFFFFFFFFFFFFFFFFF AND DUP4 PUSH20 0xFFFFFFFFFFFFFFFFFFFFFFFFFFFFFFFFFFFFFFFF AND EQ ISZERO DUP1 ISZERO PUSH2 0x4473 JUMPI POP DUP3 PUSH20 0xFFFFFFFFFFFFFFFFFFFFFFFFFFFFFFFFFFFFFFFF AND DUP5 PUSH20 0xFFFFFFFFFFFFFFFFFFFFFFFFFFFFFFFFFFFFFFFF AND EQ DUP1 PUSH2 0x4434 JUMPI POP PUSH2 0x4433 DUP5 DUP5 PUSH2 0x2F9E JUMP JUMPDEST JUMPDEST DUP1 PUSH2 0x4472 JUMPI POP DUP3 PUSH20 0xFFFFFFFFFFFFFFFFFFFFFFFFFFFFFFFFFFFFFFFF AND PUSH2 0x445A DUP4 PUSH2 0x34A6 JUMP JUMPDEST PUSH20 0xFFFFFFFFFFFFFFFFFFFFFFFFFFFFFFFFFFFFFFFF AND EQ JUMPDEST JUMPDEST SWAP1 POP SWAP4 SWAP3 POP POP POP JUMP JUMPDEST PUSH1 0x40 MLOAD DUP1 PUSH1 0xA0 ADD PUSH1 0x40 MSTORE DUP1 PUSH0 PUSH20 0xFFFFFFFFFFFFFFFFFFFFFFFFFFFFFFFFFFFFFFFF AND DUP2 MSTORE PUSH1 0x20 ADD PUSH0 PUSH8 0xFFFFFFFFFFFFFFFF AND DUP2 MSTORE PUSH1 0x20 ADD PUSH0 PUSH8 0xFFFFFFFFFFFFFFFF AND DUP2 MSTORE PUSH1 0x20 ADD PUSH0 DUP1 NOT AND DUP2 MSTORE PUSH1 0x20 ADD PUSH1 0x60 DUP2 MSTORE POP SWAP1 JUMP JUMPDEST PUSH0 PUSH1 0x40 MLOAD SWAP1 POP SWAP1 JUMP JUMPDEST PUSH0 DUP1 REVERT JUMPDEST PUSH0 DUP1 REVERT JUMPDEST PUSH0 PUSH32 0xFFFFFFFF00000000000000000000000000000000000000000000000000000000 DUP3 AND SWAP1 POP SWAP2 SWAP1 POP JUMP JUMPDEST PUSH2 0x4519 DUP2 PUSH2 0x44E5 JUMP JUMPDEST DUP2 EQ PUSH2 0x4523 JUMPI PUSH0 DUP1 REVERT JUMPDEST POP JUMP JUMPDEST PUSH0 DUP2 CALLDATALOAD SWAP1 POP PUSH2 0x4534 DUP2 PUSH2 0x4510 JUMP JUMPDEST SWAP3 SWAP2 POP POP JUMP JUMPDEST PUSH0 PUSH1 0x20 DUP3 DUP5 SUB SLT ISZERO PUSH2 0x454F JUMPI PUSH2 0x454E PUSH2 0x44DD JUMP JUMPDEST JUMPDEST PUSH0 PUSH2 0x455C DUP5 DUP3 DUP6 ADD PUSH2 0x4526 JUMP JUMPDEST SWAP2 POP POP SWAP3 SWAP2 POP POP JUMP JUMPDEST PUSH0 DUP2 ISZERO ISZERO SWAP1 POP SWAP2 SWAP1 POP JUMP JUMPDEST PUSH2 0x4579 DUP2 PUSH2 0x4565 JUMP JUMPDEST DUP3 MSTORE POP POP JUMP JUMPDEST PUSH0 PUSH1 0x20 DUP3 ADD SWAP1 POP PUSH2 0x4592 PUSH0 DUP4 ADD DUP5 PUSH2 0x4570 JUMP JUMPDEST SWAP3 SWAP2 POP POP JUMP JUMPDEST PUSH0 DUP2 MLOAD SWAP1 POP SWAP2 SWAP1 POP JUMP JUMPDEST PUSH0 DUP3 DUP3 MSTORE PUSH1 0x20 DUP3 ADD SWAP1 POP SWAP3 SWAP2 POP POP JUMP JUMPDEST PUSH0 JUMPDEST DUP4 DUP2 LT ISZERO PUSH2 0x45CF JUMPI DUP1 DUP3 ADD MLOAD DUP2 DUP5 ADD MSTORE PUSH1 0x20 DUP2 ADD SWAP1 POP PUSH2 0x45B4 JUMP JUMPDEST PUSH0 DUP5 DUP5 ADD MSTORE POP POP POP POP JUMP JUMPDEST PUSH0 PUSH1 0x1F NOT PUSH1 0x1F DUP4 ADD AND SWAP1 POP SWAP2 SWAP1 POP JUMP JUMPDEST PUSH0 PUSH2 0x45F4 DUP3 PUSH2 0x4598 JUMP JUMPDEST PUSH2 0x45FE DUP2 DUP6 PUSH2 0x45A2 JUMP JUMPDEST SWAP4 POP PUSH2 0x460E DUP2 DUP6 PUSH1 0x20 DUP7 ADD PUSH2 0x45B2 JUMP JUMPDEST PUSH2 0x4617 DUP2 PUSH2 0x45DA JUMP JUMPDEST DUP5 ADD SWAP2 POP POP SWAP3 SWAP2 POP POP JUMP JUMPDEST PUSH0 PUSH1 0x20 DUP3 ADD SWAP1 POP DUP2 DUP2 SUB PUSH0 DUP4 ADD MSTORE PUSH2 0x463A DUP2 DUP5 PUSH2 0x45EA JUMP JUMPDEST SWAP1 POP SWAP3 SWAP2 POP POP JUMP JUMPDEST PUSH0 DUP2 SWAP1 POP SWAP2 SWAP1 POP JUMP JUMPDEST PUSH2 0x4654 DUP2 PUSH2 0x4642 JUMP JUMPDEST DUP2 EQ PUSH2 0x465E JUMPI PUSH0 DUP1 REVERT JUMPDEST POP JUMP JUMPDEST PUSH0 DUP2 CALLDATALOAD SWAP1 POP PUSH2 0x466F DUP2 PUSH2 0x464B JUMP JUMPDEST SWAP3 SWAP2 POP POP JUMP JUMPDEST PUSH0 PUSH1 0x20 DUP3 DUP5 SUB SLT ISZERO PUSH2 0x468A JUMPI PUSH2 0x4689 PUSH2 0x44DD JUMP JUMPDEST JUMPDEST PUSH0 PUSH2 0x4697 DUP5 DUP3 DUP6 ADD PUSH2 0x4661 JUMP JUMPDEST SWAP2 POP POP SWAP3 SWAP2 POP POP JUMP JUMPDEST PUSH0 PUSH20 0xFFFFFFFFFFFFFFFFFFFFFFFFFFFFFFFFFFFFFFFF DUP3 AND SWAP1 POP SWAP2 SWAP1 POP JUMP JUMPDEST PUSH0 PUSH2 0x46C9 DUP3 PUSH2 0x46A0 JUMP JUMPDEST SWAP1 POP SWAP2 SWAP1 POP JUMP JUMPDEST PUSH2 0x46D9 DUP2 PUSH2 0x46BF JUMP JUMPDEST DUP3 MSTORE POP POP JUMP JUMPDEST PUSH0 PUSH1 0x20 DUP3 ADD SWAP1 POP PUSH2 0x46F2 PUSH0 DUP4 ADD DUP5 PUSH2 0x46D0 JUMP JUMPDEST SWAP3 SWAP2 POP POP JUMP JUMPDEST PUSH2 0x4701 DUP2 PUSH2 0x46BF JUMP JUMPDEST DUP2 EQ PUSH2 0x470B JUMPI PUSH0 DUP1 REVERT JUMPDEST POP JUMP JUMPDEST PUSH0 DUP2 CALLDATALOAD SWAP1 POP PUSH2 0x471C DUP2 PUSH2 0x46F8 JUMP JUMPDEST SWAP3 SWAP2 POP POP JUMP JUMPDEST PUSH0 DUP1 PUSH1 0x40 DUP4 DUP6 SUB SLT ISZERO PUSH2 0x4738 JUMPI PUSH2 0x4737 PUSH2 0x44DD JUMP JUMPDEST JUMPDEST PUSH0 PUSH2 0x4745 DUP6 DUP3 DUP7 ADD PUSH2 0x470E JUMP JUMPDEST SWAP3 POP POP PUSH1 0x20 PUSH2 0x4756 DUP6 DUP3 DUP7 ADD PUSH2 0x4661 JUMP JUMPDEST SWAP2 POP POP SWAP3 POP SWAP3 SWAP1 POP JUMP JUMPDEST PUSH0 PUSH1 0x20 DUP3 DUP5 SUB SLT ISZERO PUSH2 0x4775 JUMPI PUSH2 0x4774 PUSH2 0x44DD JUMP JUMPDEST JUMPDEST PUSH0 PUSH2 0x4782 DUP5 DUP3 DUP6 ADD PUSH2 0x470E JUMP JUMPDEST SWAP2 POP POP SWAP3 SWAP2 POP POP JUMP JUMPDEST PUSH2 0x4794 DUP2 PUSH2 0x46BF JUMP JUMPDEST DUP3 MSTORE POP POP JUMP JUMPDEST PUSH0 PUSH8 0xFFFFFFFFFFFFFFFF DUP3 AND SWAP1 POP SWAP2 SWAP1 POP JUMP JUMPDEST PUSH2 0x47B6 DUP2 PUSH2 0x479A JUMP JUMPDEST DUP3 MSTORE POP POP JUMP JUMPDEST PUSH0 DUP2 SWAP1 POP SWAP2 SWAP1 POP JUMP JUMPDEST PUSH2 0x47CE DUP2 PUSH2 0x47BC JUMP JUMPDEST DUP3 MSTORE POP POP JUMP JUMPDEST PUSH0 DUP2 MLOAD SWAP1 POP SWAP2 SWAP1 POP JUMP JUMPDEST PUSH0 DUP3 DUP3 MSTORE PUSH1 0x20 DUP3 ADD SWAP1 POP SWAP3 SWAP2 POP POP JUMP JUMPDEST PUSH0 PUSH2 0x47F8 DUP3 PUSH2 0x47D4 JUMP JUMPDEST PUSH2 0x4802 DUP2 DUP6 PUSH2 0x47DE JUMP JUMPDEST SWAP4 POP PUSH2 0x4812 DUP2 DUP6 PUSH1 0x20 DUP7 ADD PUSH2 0x45B2 JUMP JUMPDEST PUSH2 0x481B DUP2 PUSH2 0x45DA JUMP JUMPDEST DUP5 ADD SWAP2 POP POP SWAP3 SWAP2 POP POP JUMP JUMPDEST PUSH0 PUSH1 0xA0 DUP4 ADD PUSH0 DUP4 ADD MLOAD PUSH2 0x483B PUSH0 DUP7 ADD DUP3 PUSH2 0x478B JUMP JUMPDEST POP PUSH1 0x20 DUP4 ADD MLOAD PUSH2 0x484E PUSH1 0x20 DUP7 ADD DUP3 PUSH2 0x47AD JUMP JUMPDEST POP PUSH1 0x40 DUP4 ADD MLOAD PUSH2 0x4861 PUSH1 0x40 DUP7 ADD DUP3 PUSH2 0x47AD JUMP JUMPDEST POP PUSH1 0x60 DUP4 ADD MLOAD PUSH2 0x4874 PUSH1 0x60 DUP7 ADD DUP3 PUSH2 0x47C5 JUMP JUMPDEST POP PUSH1 0x80 DUP4 ADD MLOAD DUP5 DUP3 SUB PUSH1 0x80 DUP7 ADD MSTORE PUSH2 0x488C DUP3 DUP3 PUSH2 0x47EE JUMP JUMPDEST SWAP2 POP POP DUP1 SWAP2 POP POP SWAP3 SWAP2 POP POP JUMP JUMPDEST PUSH0 PUSH1 0x20 DUP3 ADD SWAP1 POP DUP2 DUP2 SUB PUSH0 DUP4 ADD MSTORE PUSH2 0x48B1 DUP2 DUP5 PUSH2 0x4826 JUMP JUMPDEST SWAP1 POP SWAP3 SWAP2 POP POP JUMP JUMPDEST PUSH0 DUP1 REVERT JUMPDEST PUSH0 DUP1 REVERT JUMPDEST PUSH0 DUP1 REVERT JUMPDEST PUSH0 DUP1 DUP4 PUSH1 0x1F DUP5 ADD SLT PUSH2 0x48DA JUMPI PUSH2 0x48D9 PUSH2 0x48B9 JUMP JUMPDEST JUMPDEST DUP3 CALLDATALOAD SWAP1 POP PUSH8 0xFFFFFFFFFFFFFFFF DUP2 GT ISZERO PUSH2 0x48F7 JUMPI PUSH2 0x48F6 PUSH2 0x48BD JUMP JUMPDEST JUMPDEST PUSH1 0x20 DUP4 ADD SWAP2 POP DUP4 PUSH1 0x1 DUP3 MUL DUP4 ADD GT ISZERO PUSH2 0x4913 JUMPI PUSH2 0x4912 PUSH2 0x48C1 JUMP JUMPDEST JUMPDEST SWAP3 POP SWAP3 SWAP1 POP JUMP JUMPDEST PUSH0 DUP1 PUSH1 0x20 DUP4 DUP6 SUB SLT ISZERO PUSH2 0x4930 JUMPI PUSH2 0x492F PUSH2 0x44DD JUMP JUMPDEST JUMPDEST PUSH0 DUP4 ADD CALLDATALOAD PUSH8 0xFFFFFFFFFFFFFFFF DUP2 GT ISZERO PUSH2 0x494D JUMPI PUSH2 0x494C PUSH2 0x44E1 JUMP JUMPDEST JUMPDEST PUSH2 0x4959 DUP6 DUP3 DUP7 ADD PUSH2 0x48C5 JUMP JUMPDEST SWAP3 POP SWAP3 POP POP SWAP3 POP SWAP3 SWAP1 POP JUMP JUMPDEST PUSH2 0x496E DUP2 PUSH2 0x4642 JUMP JUMPDEST DUP3 MSTORE POP POP JUMP JUMPDEST PUSH0 PUSH1 0x20 DUP3 ADD SWAP1 POP PUSH2 0x4987 PUSH0 DUP4 ADD DUP5 PUSH2 0x4965 JUMP JUMPDEST SWAP3 SWAP2 POP POP JUMP JUMPDEST PUSH2 0x4996 DUP2 PUSH2 0x4565 JUMP JUMPDEST DUP2 EQ PUSH2 0x49A0 JUMPI PUSH0 DUP1 REVERT JUMPDEST POP JUMP JUMPDEST PUSH0 DUP2 CALLDATALOAD SWAP1 POP PUSH2 0x49B1 DUP2 PUSH2 0x498D JUMP JUMPDEST SWAP3 SWAP2 POP POP JUMP JUMPDEST PUSH0 PUSH1 0x20 DUP3 DUP5 SUB SLT ISZERO PUSH2 0x49CC JUMPI PUSH2 0x49CB PUSH2 0x44DD JUMP JUMPDEST JUMPDEST PUSH0 PUSH2 0x49D9 DUP5 DUP3 DUP6 ADD PUSH2 0x49A3 JUMP JUMPDEST SWAP2 POP POP SWAP3 SWAP2 POP POP JUMP JUMPDEST PUSH0 DUP1 PUSH0 PUSH1 0x60 DUP5 DUP7 SUB SLT ISZERO PUSH2 0x49F9 JUMPI PUSH2 0x49F8 PUSH2 0x44DD JUMP JUMPDEST JUMPDEST PUSH0 PUSH2 0x4A06 DUP7 DUP3 DUP8 ADD PUSH2 0x470E JUMP JUMPDEST SWAP4 POP POP PUSH1 0x20 PUSH2 0x4A17 DUP7 DUP3 DUP8 ADD PUSH2 0x470E JUMP JUMPDEST SWAP3 POP POP PUSH1 0x40 PUSH2 0x4A28 DUP7 DUP3 DUP8 ADD PUSH2 0x4661 JUMP JUMPDEST SWAP2 POP POP SWAP3 POP SWAP3 POP SWAP3 JUMP JUMPDEST PUSH0 DUP1 DUP4 PUSH1 0x1F DUP5 ADD SLT PUSH2 0x4A47 JUMPI PUSH2 0x4A46 PUSH2 0x48B9 JUMP JUMPDEST JUMPDEST DUP3 CALLDATALOAD SWAP1 POP PUSH8 0xFFFFFFFFFFFFFFFF DUP2 GT ISZERO PUSH2 0x4A64 JUMPI PUSH2 0x4A63 PUSH2 0x48BD JUMP JUMPDEST JUMPDEST PUSH1 0x20 DUP4 ADD SWAP2 POP DUP4 PUSH1 0x1 DUP3 MUL DUP4 ADD GT ISZERO PUSH2 0x4A80 JUMPI PUSH2 0x4A7F PUSH2 0x48C1 JUMP JUMPDEST JUMPDEST SWAP3 POP SWAP3 SWAP1 POP JUMP JUMPDEST PUSH0 DUP1 PUSH0 DUP1 PUSH1 0x40 DUP6 DUP8 SUB SLT ISZERO PUSH2 0x4A9F JUMPI PUSH2 0x4A9E PUSH2 0x44DD JUMP JUMPDEST JUMPDEST PUSH0 DUP6 ADD CALLDATALOAD PUSH8 0xFFFFFFFFFFFFFFFF DUP2 GT ISZERO PUSH2 0x4ABC JUMPI PUSH2 0x4ABB PUSH2 0x44E1 JUMP JUMPDEST JUMPDEST PUSH2 0x4AC8 DUP8 DUP3 DUP9 ADD PUSH2 0x48C5 JUMP JUMPDEST SWAP5 POP SWAP5 POP POP PUSH1 0x20 DUP6 ADD CALLDATALOAD PUSH8 0xFFFFFFFFFFFFFFFF DUP2 GT ISZERO PUSH2 0x4AEB JUMPI PUSH2 0x4AEA PUSH2 0x44E1 JUMP JUMPDEST JUMPDEST PUSH2 0x4AF7 DUP8 DUP3 DUP9 ADD PUSH2 0x4A32 JUMP JUMPDEST SWAP3 POP SWAP3 POP POP SWAP3 SWAP6 SWAP2 SWAP5 POP SWAP3 POP JUMP JUMPDEST PUSH0 DUP1 REVERT JUMPDEST PUSH32 0x4E487B7100000000000000000000000000000000000000000000000000000000 PUSH0 MSTORE PUSH1 0x41 PUSH1 0x4 MSTORE PUSH1 0x24 PUSH0 REVERT JUMPDEST PUSH2 0x4B3F DUP3 PUSH2 0x45DA JUMP JUMPDEST DUP2 ADD DUP2 DUP2 LT PUSH8 0xFFFFFFFFFFFFFFFF DUP3 GT OR ISZERO PUSH2 0x4B5E JUMPI PUSH2 0x4B5D PUSH2 0x4B09 JUMP JUMPDEST JUMPDEST DUP1 PUSH1 0x40 MSTORE POP POP POP JUMP JUMPDEST PUSH0 PUSH2 0x4B70 PUSH2 0x44D4 JUMP JUMPDEST SWAP1 POP PUSH2 0x4B7C DUP3 DUP3 PUSH2 0x4B36 JUMP JUMPDEST SWAP2 SWAP1 POP JUMP JUMPDEST PUSH0 PUSH8 0xFFFFFFFFFFFFFFFF DUP3 GT ISZERO PUSH2 0x4B9B JUMPI PUSH2 0x4B9A PUSH2 0x4B09 JUMP JUMPDEST JUMPDEST PUSH2 0x4BA4 DUP3 PUSH2 0x45DA JUMP JUMPDEST SWAP1 POP PUSH1 0x20 DUP2 ADD SWAP1 POP SWAP2 SWAP1 POP JUMP JUMPDEST DUP3 DUP2 DUP4 CALLDATACOPY PUSH0 DUP4 DUP4 ADD MSTORE POP POP POP JUMP JUMPDEST PUSH0 PUSH2 0x4BD1 PUSH2 0x4BCC DUP5 PUSH2 0x4B81 JUMP JUMPDEST PUSH2 0x4B67 JUMP JUMPDEST SWAP1 POP DUP3 DUP2 MSTORE PUSH1 0x20 DUP2 ADD DUP5 DUP5 DUP5 ADD GT ISZERO PUSH2 0x4BED JUMPI PUSH2 0x4BEC PUSH2 0x4B05 JUMP JUMPDEST JUMPDEST PUSH2 0x4BF8 DUP5 DUP3 DUP6 PUSH2 0x4BB1 JUMP JUMPDEST POP SWAP4 SWAP3 POP POP POP JUMP JUMPDEST PUSH0 DUP3 PUSH1 0x1F DUP4 ADD SLT PUSH2 0x4C14 JUMPI PUSH2 0x4C13 PUSH2 0x48B9 JUMP JUMPDEST JUMPDEST DUP2 CALLDATALOAD PUSH2 0x4C24 DUP5 DUP3 PUSH1 0x20 DUP7 ADD PUSH2 0x4BBF JUMP JUMPDEST SWAP2 POP POP SWAP3 SWAP2 POP POP JUMP JUMPDEST PUSH0 PUSH1 0x20 DUP3 DUP5 SUB SLT ISZERO PUSH2 0x4C42 JUMPI PUSH2 0x4C41 PUSH2 0x44DD JUMP JUMPDEST JUMPDEST PUSH0 DUP3 ADD CALLDATALOAD PUSH8 0xFFFFFFFFFFFFFFFF DUP2 GT ISZERO PUSH2 0x4C5F JUMPI PUSH2 0x4C5E PUSH2 0x44E1 JUMP JUMPDEST JUMPDEST PUSH2 0x4C6B DUP5 DUP3 DUP6 ADD PUSH2 0x4C00 JUMP JUMPDEST SWAP2 POP POP SWAP3 SWAP2 POP POP JUMP JUMPDEST PUSH0 DUP1 PUSH0 PUSH1 0x60 DUP5 DUP7 SUB SLT ISZERO PUSH2 0x4C8B JUMPI PUSH2 0x4C8A PUSH2 0x44DD JUMP JUMPDEST JUMPDEST PUSH0 PUSH2 0x4C98 DUP7 DUP3 DUP8 ADD PUSH2 0x470E JUMP JUMPDEST SWAP4 POP POP PUSH1 0x20 PUSH2 0x4CA9 DUP7 DUP3 DUP8 ADD PUSH2 0x470E JUMP JUMPDEST SWAP3 POP POP PUSH1 0x40 PUSH2 0x4CBA DUP7 DUP3 DUP8 ADD PUSH2 0x49A3 JUMP JUMPDEST SWAP2 POP POP SWAP3 POP SWAP3 POP SWAP3 JUMP JUMPDEST PUSH0 DUP3 DUP3 MSTORE PUSH1 0x20 DUP3 ADD SWAP1 POP SWAP3 SWAP2 POP POP JUMP JUMPDEST PUSH0 PUSH2 0x4CDE DUP3 PUSH2 0x47D4 JUMP JUMPDEST PUSH2 0x4CE8 DUP2 DUP6 PUSH2 0x4CC4 JUMP JUMPDEST SWAP4 POP PUSH2 0x4CF8 DUP2 DUP6 PUSH1 0x20 DUP7 ADD PUSH2 0x45B2 JUMP JUMPDEST PUSH2 0x4D01 DUP2 PUSH2 0x45DA JUMP JUMPDEST DUP5 ADD SWAP2 POP POP SWAP3 SWAP2 POP POP JUMP JUMPDEST PUSH0 PUSH1 0x20 DUP3 ADD SWAP1 POP DUP2 DUP2 SUB PUSH0 DUP4 ADD MSTORE PUSH2 0x4D24 DUP2 DUP5 PUSH2 0x4CD4 JUMP JUMPDEST SWAP1 POP SWAP3 SWAP2 POP POP JUMP JUMPDEST PUSH0 DUP1 PUSH1 0x40 DUP4 DUP6 SUB SLT ISZERO PUSH2 0x4D42 JUMPI PUSH2 0x4D41 PUSH2 0x44DD JUMP JUMPDEST JUMPDEST PUSH0 PUSH2 0x4D4F DUP6 DUP3 DUP7 ADD PUSH2 0x470E JUMP JUMPDEST SWAP3 POP POP PUSH1 0x20 PUSH2 0x4D60 DUP6 DUP3 DUP7 ADD PUSH2 0x49A3 JUMP JUMPDEST SWAP2 POP POP SWAP3 POP SWAP3 SWAP1 POP JUMP JUMPDEST PUSH0 PUSH8 0xFFFFFFFFFFFFFFFF DUP3 GT ISZERO PUSH2 0x4D84 JUMPI PUSH2 0x4D83 PUSH2 0x4B09 JUMP JUMPDEST JUMPDEST PUSH2 0x4D8D DUP3 PUSH2 0x45DA JUMP JUMPDEST SWAP1 POP PUSH1 0x20 DUP2 ADD SWAP1 POP SWAP2 SWAP1 POP JUMP JUMPDEST PUSH0 PUSH2 0x4DAC PUSH2 0x4DA7 DUP5 PUSH2 0x4D6A JUMP JUMPDEST PUSH2 0x4B67 JUMP JUMPDEST SWAP1 POP DUP3 DUP2 MSTORE PUSH1 0x20 DUP2 ADD DUP5 DUP5 DUP5 ADD GT ISZERO PUSH2 0x4DC8 JUMPI PUSH2 0x4DC7 PUSH2 0x4B05 JUMP JUMPDEST JUMPDEST PUSH2 0x4DD3 DUP5 DUP3 DUP6 PUSH2 0x4BB1 JUMP JUMPDEST POP SWAP4 SWAP3 POP POP POP JUMP JUMPDEST PUSH0 DUP3 PUSH1 0x1F DUP4 ADD SLT PUSH2 0x4DEF JUMPI PUSH2 0x4DEE PUSH2 0x48B9 JUMP JUMPDEST JUMPDEST DUP2 CALLDATALOAD PUSH2 0x4DFF DUP5 DUP3 PUSH1 0x20 DUP7 ADD PUSH2 0x4D9A JUMP JUMPDEST SWAP2 POP POP SWAP3 SWAP2 POP POP JUMP JUMPDEST PUSH0 DUP1 PUSH0 DUP1 PUSH1 0x80 DUP6 DUP8 SUB SLT ISZERO PUSH2 0x4E20 JUMPI PUSH2 0x4E1F PUSH2 0x44DD JUMP JUMPDEST JUMPDEST PUSH0 PUSH2 0x4E2D DUP8 DUP3 DUP9 ADD PUSH2 0x470E JUMP JUMPDEST SWAP5 POP POP PUSH1 0x20 PUSH2 0x4E3E DUP8 DUP3 DUP9 ADD PUSH2 0x470E JUMP JUMPDEST SWAP4 POP POP PUSH1 0x40 PUSH2 0x4E4F DUP8 DUP3 DUP9 ADD PUSH2 0x4661 JUMP JUMPDEST SWAP3 POP POP PUSH1 0x60 DUP6 ADD CALLDATALOAD PUSH8 0xFFFFFFFFFFFFFFFF DUP2 GT ISZERO PUSH2 0x4E70 JUMPI PUSH2 0x4E6F PUSH2 0x44E1 JUMP JUMPDEST JUMPDEST PUSH2 0x4E7C DUP8 DUP3 DUP9 ADD PUSH2 0x4DDB JUMP JUMPDEST SWAP2 POP POP SWAP3 SWAP6 SWAP2 SWAP5 POP SWAP3 POP JUMP JUMPDEST PUSH0 DUP1 PUSH1 0x20 DUP4 DUP6 SUB SLT ISZERO PUSH2 0x4E9E JUMPI PUSH2 0x4E9D PUSH2 0x44DD JUMP JUMPDEST JUMPDEST PUSH0 DUP4 ADD CALLDATALOAD PUSH8 0xFFFFFFFFFFFFFFFF DUP2 GT ISZERO PUSH2 0x4EBB JUMPI PUSH2 0x4EBA PUSH2 0x44E1 JUMP JUMPDEST JUMPDEST PUSH2 0x4EC7 DUP6 DUP3 DUP7 ADD PUSH2 0x4A32 JUMP JUMPDEST SWAP3 POP SWAP3 POP POP SWAP3 POP SWAP3 SWAP1 POP JUMP JUMPDEST PUSH0 DUP1 PUSH1 0x40 DUP4 DUP6 SUB SLT ISZERO PUSH2 0x4EE9 JUMPI PUSH2 0x4EE8 PUSH2 0x44DD JUMP JUMPDEST JUMPDEST PUSH0 PUSH2 0x4EF6 DUP6 DUP3 DUP7 ADD PUSH2 0x470E JUMP JUMPDEST SWAP3 POP POP PUSH1 0x20 PUSH2 0x4F07 DUP6 DUP3 DUP7 ADD PUSH2 0x470E JUMP JUMPDEST SWAP2 POP POP SWAP3 POP SWAP3 SWAP1 POP JUMP JUMPDEST PUSH2 0x4F1A DUP2 PUSH2 0x47BC JUMP JUMPDEST DUP3 MSTORE POP POP JUMP JUMPDEST PUSH0 PUSH1 0x20 DUP3 ADD SWAP1 POP PUSH2 0x4F33 PUSH0 DUP4 ADD DUP5 PUSH2 0x4F11 JUMP JUMPDEST SWAP3 SWAP2 POP POP JUMP JUMPDEST PUSH32 0x4E487B7100000000000000000000000000000000000000000000000000000000 PUSH0 MSTORE PUSH1 0x22 PUSH1 0x4 MSTORE PUSH1 0x24 PUSH0 REVERT JUMPDEST PUSH0 PUSH1 0x2 DUP3 DIV SWAP1 POP PUSH1 0x1 DUP3 AND DUP1 PUSH2 0x4F7D JUMPI PUSH1 0x7F DUP3 AND SWAP2 POP JUMPDEST PUSH1 0x20 DUP3 LT DUP2 SUB PUSH2 0x4F90 JUMPI PUSH2 0x4F8F PUSH2 0x4F39 JUMP JUMPDEST JUMPDEST POP SWAP2 SWAP1 POP JUMP JUMPDEST PUSH32 0x536F756C626F756E640000000000000000000000000000000000000000000000 PUSH0 DUP3 ADD MSTORE POP JUMP JUMPDEST PUSH0 PUSH2 0x4FCA PUSH1 0x9 DUP4 PUSH2 0x45A2 JUMP JUMPDEST SWAP2 POP PUSH2 0x4FD5 DUP3 PUSH2 0x4F96 JUMP JUMPDEST PUSH1 0x20 DUP3 ADD SWAP1 POP SWAP2 SWAP1 POP JUMP JUMPDEST PUSH0 PUSH1 0x20 DUP3 ADD SWAP1 POP DUP2 DUP2 SUB PUSH0 DUP4 ADD MSTORE PUSH2 0x4FF7 DUP2 PUSH2 0x4FBE JUMP JUMPDEST SWAP1 POP SWAP2 SWAP1 POP JUMP JUMPDEST PUSH32 0x4E6F204449440000000000000000000000000000000000000000000000000000 PUSH0 DUP3 ADD MSTORE POP JUMP JUMPDEST PUSH0 PUSH2 0x5032 PUSH1 0x6 DUP4 PUSH2 0x45A2 JUMP JUMPDEST SWAP2 POP PUSH2 0x503D DUP3 PUSH2 0x4FFE JUMP JUMPDEST PUSH1 0x20 DUP3 ADD SWAP1 POP SWAP2 SWAP1 POP JUMP JUMPDEST PUSH0 PUSH1 0x20 DUP3 ADD SWAP1 POP DUP2 DUP2 SUB PUSH0 DUP4 ADD MSTORE PUSH2 0x505F DUP2 PUSH2 0x5026 JUMP JUMPDEST SWAP1 POP SWAP2 SWAP1 POP JUMP JUMPDEST PUSH32 0x4E6F74206F776E65720000000000000000000000000000000000000000000000 PUSH0 DUP3 ADD MSTORE POP JUMP JUMPDEST PUSH0 PUSH2 0x509A PUSH1 0x9 DUP4 PUSH2 0x45A2 JUMP JUMPDEST SWAP2 POP PUSH2 0x50A5 DUP3 PUSH2 0x5066 JUMP JUMPDEST PUSH1 0x20 DUP3 ADD SWAP1 POP SWAP2 SWAP1 POP JUMP JUMPDEST PUSH0 PUSH1 0x20 DUP3 ADD SWAP1 POP DUP2 DUP2 SUB PUSH0 DUP4 ADD MSTORE PUSH2 0x50C7 DUP2 PUSH2 0x508E JUMP JUMPDEST SWAP1 POP SWAP2 SWAP1 POP JUMP JUMPDEST PUSH32 0x5265766F6B656400000000000000000000000000000000000000000000000000 PUSH0 DUP3 ADD MSTORE POP JUMP JUMPDEST PUSH0 PUSH2 0x5102 PUSH1 0x7 DUP4 PUSH2 0x45A2 JUMP JUMPDEST SWAP2 POP PUSH2 0x510D DUP3 PUSH2 0x50CE JUMP JUMPDEST PUSH1 0x20 DUP3 ADD SWAP1 POP SWAP2 SWAP1 POP JUMP JUMPDEST PUSH0 PUSH1 0x20 DUP3 ADD SWAP1 POP DUP2 DUP2 SUB PUSH0 DUP4 ADD MSTORE PUSH2 0x512F DUP2 PUSH2 0x50F6 JUMP JUMPDEST SWAP1 POP SWAP2 SWAP1 POP JUMP JUMPDEST PUSH0 DUP2 SWAP1 POP SWAP3 SWAP2 POP POP JUMP JUMPDEST PUSH0 PUSH2 0x514B DUP4 DUP6 PUSH2 0x5136 JUMP JUMPDEST SWAP4 POP PUSH2 0x5158 DUP4 DUP6 DUP5 PUSH2 0x4BB1 JUMP JUMPDEST DUP3 DUP5 ADD SWAP1 POP SWAP4 SWAP3 POP POP POP JUMP JUMPDEST PUSH0 PUSH2 0x5170 DUP3 DUP5 DUP7 PUSH2 0x5140 JUMP JUMPDEST SWAP2 POP DUP2 SWAP1 POP SWAP4 SWAP3 POP POP POP JUMP JUMPDEST PUSH2 0x5185 DUP2 PUSH2 0x479A JUMP JUMPDEST DUP3 MSTORE POP POP JUMP JUMPDEST PUSH0 PUSH1 0x20 DUP3 ADD SWAP1 POP PUSH2 0x519E PUSH0 DUP4 ADD DUP5 PUSH2 0x517C JUMP JUMPDEST SWAP3 SWAP2 POP POP JUMP JUMPDEST PUSH0 PUSH1 0x60 DUP3 ADD SWAP1 POP PUSH2 0x51B7 PUSH0 DUP4 ADD DUP7 PUSH2 0x46D0 JUMP JUMPDEST PUSH2 0x51C4 PUSH1 0x20 DUP4 ADD DUP6 PUSH2 0x4965 JUMP JUMPDEST PUSH2 0x51D1 PUSH1 0x40 DUP4 ADD DUP5 PUSH2 0x46D0 JUMP JUMPDEST SWAP5 SWAP4 POP POP POP POP JUMP JUMPDEST PUSH0 DUP3 SWAP1 POP SWAP3 SWAP2 POP POP JUMP JUMPDEST PUSH0 DUP2 SWAP1 POP DUP2 PUSH0 MSTORE PUSH1 0x20 PUSH0 KECCAK256 SWAP1 POP SWAP2 SWAP1 POP JUMP JUMPDEST PUSH0 PUSH1 0x20 PUSH1 0x1F DUP4 ADD DIV SWAP1 POP SWAP2 SWAP1 POP JUMP JUMPDEST PUSH0 DUP3 DUP3 SHL SWAP1 POP SWAP3 SWAP2 POP POP JUMP JUMPDEST PUSH0 PUSH1 0x8 DUP4 MUL PUSH2 0x523F PUSH32 0xFFFFFFFFFFFFFFFFFFFFFFFFFFFFFFFFFFFFFFFFFFFFFFFFFFFFFFFFFFFFFFFF DUP3 PUSH2 0x5204 JUMP JUMPDEST PUSH2 0x5249 DUP7 DUP4 PUSH2 0x5204 JUMP JUMPDEST SWAP6 POP DUP1 NOT DUP5 AND SWAP4 POP DUP1 DUP7 AND DUP5 OR SWAP3 POP POP POP SWAP4 SWAP3 POP POP POP JUMP JUMPDEST PUSH0 DUP2 SWAP1 POP SWAP2 SWAP1 POP JUMP JUMPDEST PUSH0 PUSH2 0x5284 PUSH2 0x527F PUSH2 0x527A DUP5 PUSH2 0x4642 JUMP JUMPDEST PUSH2 0x5261 JUMP JUMPDEST PUSH2 0x4642 JUMP JUMPDEST SWAP1 POP SWAP2 SWAP1 POP JUMP JUMPDEST PUSH0 DUP2 SWAP1 POP SWAP2 SWAP1 POP JUMP JUMPDEST PUSH2 0x529D DUP4 PUSH2 0x526A JUMP JUMPDEST PUSH2 0x52B1 PUSH2 0x52A9 DUP3 PUSH2 0x528B JUMP JUMPDEST DUP5 DUP5 SLOAD PUSH2 0x5210 JUMP JUMPDEST DUP3 SSTORE POP POP POP POP JUMP JUMPDEST PUSH0 SWAP1 JUMP JUMPDEST PUSH2 0x52C5 PUSH2 0x52B9 JUMP JUMPDEST PUSH2 0x52D0 DUP2 DUP5 DUP5 PUSH2 0x5294 JUMP JUMPDEST POP POP POP JUMP JUMPDEST JUMPDEST DUP2 DUP2 LT ISZERO PUSH2 0x52F3 JUMPI PUSH2 0x52E8 PUSH0 DUP3 PUSH2 0x52BD JUMP JUMPDEST PUSH1 0x1 DUP2 ADD SWAP1 POP PUSH2 0x52D6 JUMP JUMPDEST POP POP JUMP JUMPDEST PUSH1 0x1F DUP3 GT ISZERO PUSH2 0x5338 JUMPI PUSH2 0x5309 DUP2 PUSH2 0x51E3 JUMP JUMPDEST PUSH2 0x5312 DUP5 PUSH2 0x51F5 JUMP JUMPDEST DUP2 ADD PUSH1 0x20 DUP6 LT ISZERO PUSH2 0x5321 JUMPI DUP2 SWAP1 POP JUMPDEST PUSH2 0x5335 PUSH2 0x532D DUP6 PUSH2 0x51F5 JUMP JUMPDEST DUP4 ADD DUP3 PUSH2 0x52D5 JUMP JUMPDEST POP POP JUMPDEST POP POP POP JUMP JUMPDEST PUSH0 DUP3 DUP3 SHR SWAP1 POP SWAP3 SWAP2 POP POP JUMP JUMPDEST PUSH0 PUSH2 0x5358 PUSH0 NOT DUP5 PUSH1 0x8 MUL PUSH2 0x533D JUMP JUMPDEST NOT DUP1 DUP4 AND SWAP2 POP POP SWAP3 SWAP2 POP POP JUMP JUMPDEST PUSH0 PUSH2 0x5370 DUP4 DUP4 PUSH2 0x5349 JUMP JUMPDEST SWAP2 POP DUP3 PUSH1 0x2 MUL DUP3 OR SWAP1 POP SWAP3 SWAP2 POP POP JUMP JUMPDEST PUSH2 0x538A DUP4 DUP4 PUSH2 0x51D9 JUMP JUMPDEST PUSH8 0xFFFFFFFFFFFFFFFF DUP2 GT ISZERO PUSH2 0x53A3 JUMPI PUSH2 0x53A2 PUSH2 0x4B09 JUMP JUMPDEST JUMPDEST PUSH2 0x53AD DUP3 SLOAD PUSH2 0x4F66 JUMP JUMPDEST PUSH2 0x53B8 DUP3 DUP3 DUP6 PUSH2 0x52F7 JUMP JUMPDEST PUSH0 PUSH1 0x1F DUP4 GT PUSH1 0x1 DUP2 EQ PUSH2 0x53E5 JUMPI PUSH0 DUP5 ISZERO PUSH2 0x53D3 JUMPI DUP3 DUP8 ADD CALLDATALOAD SWAP1 POP JUMPDEST PUSH2 0x53DD DUP6 DUP3 PUSH2 0x5365 JUMP JUMPDEST DUP7 SSTORE POP PUSH2 0x5444 JUMP JUMPDEST PUSH1 0x1F NOT DUP5 AND PUSH2 0x53F3 DUP7 PUSH2 0x51E3 JUMP JUMPDEST PUSH0 JUMPDEST DUP3 DUP2 LT ISZERO PUSH2 0x541A JUMPI DUP5 DUP10 ADD CALLDATALOAD DUP3 SSTORE PUSH1 0x1 DUP3 ADD SWAP2 POP PUSH1 0x20 DUP6 ADD SWAP5 POP PUSH1 0x20 DUP2 ADD SWAP1 POP PUSH2 0x53F5 JUMP JUMPDEST DUP7 DUP4 LT ISZERO PUSH2 0x5437 JUMPI DUP5 DUP10 ADD CALLDATALOAD PUSH2 0x5433 PUSH1 0x1F DUP10 AND DUP3 PUSH2 0x5349 JUMP JUMPDEST DUP4 SSTORE POP JUMPDEST PUSH1 0x1 PUSH1 0x2 DUP9 MUL ADD DUP9 SSTORE POP POP POP JUMPDEST POP POP POP POP POP POP POP JUMP JUMPDEST PUSH0 DUP2 SWAP1 POP DUP2 PUSH0 MSTORE PUSH1 0x20 PUSH0 KECCAK256 SWAP1 POP SWAP2 SWAP1 POP JUMP JUMPDEST PUSH1 0x1F DUP3 GT ISZERO PUSH2 0x54A0 JUMPI PUSH2 0x5471 DUP2 PUSH2 0x544D JUMP JUMPDEST PUSH2 0x547A DUP5 PUSH2 0x51F5 JUMP JUMPDEST DUP2 ADD PUSH1 0x20 DUP6 LT ISZERO PUSH2 0x5489 JUMPI DUP2 SWAP1 POP JUMPDEST PUSH2 0x549D PUSH2 0x5495 DUP6 PUSH2 0x51F5 JUMP JUMPDEST DUP4 ADD DUP3 PUSH2 0x52D5 JUMP JUMPDEST POP POP JUMPDEST POP POP POP JUMP JUMPDEST PUSH2 0x54AE DUP3 PUSH2 0x4598 JUMP JUMPDEST PUSH8 0xFFFFFFFFFFFFFFFF DUP2 GT ISZERO PUSH2 0x54C7 JUMPI PUSH2 0x54C6 PUSH2 0x4B09 JUMP JUMPDEST JUMPDEST PUSH2 0x54D1 DUP3 SLOAD PUSH2 0x4F66 JUMP JUMPDEST PUSH2 0x54DC DUP3 DUP3 DUP6 PUSH2 0x545F JUMP JUMPDEST PUSH0 PUSH1 0x20 SWAP1 POP PUSH1 0x1F DUP4 GT PUSH1 0x1 DUP2 EQ PUSH2 0x550D JUMPI PUSH0 DUP5 ISZERO PUSH2 0x54FB JUMPI DUP3 DUP8 ADD MLOAD SWAP1 POP JUMPDEST PUSH2 0x5505 DUP6 DUP3 PUSH2 0x5365 JUMP JUMPDEST DUP7 SSTORE POP PUSH2 0x556C JUMP JUMPDEST PUSH1 0x1F NOT DUP5 AND PUSH2 0x551B DUP7 PUSH2 0x544D JUMP JUMPDEST PUSH0 JUMPDEST DUP3 DUP2 LT ISZERO PUSH2 0x5542 JUMPI DUP5 DUP10 ADD MLOAD DUP3 SSTORE PUSH1 0x1 DUP3 ADD SWAP2 POP PUSH1 0x20 DUP6 ADD SWAP5 POP PUSH1 0x20 DUP2 ADD SWAP1 POP PUSH2 0x551D JUMP JUMPDEST DUP7 DUP4 LT ISZERO PUSH2 0x555F JUMPI DUP5 DUP10 ADD MLOAD PUSH2 0x555B PUSH1 0x1F DUP10 AND DUP3 PUSH2 0x5349 JUMP JUMPDEST DUP4 SSTORE POP JUMPDEST PUSH1 0x1 PUSH1 0x2 DUP9 MUL ADD DUP9 SSTORE POP POP POP JUMPDEST POP POP POP POP POP POP JUMP JUMPDEST PUSH32 0x4E6F7420617574686F72697A6564000000000000000000000000000000000000 PUSH0 DUP3 ADD MSTORE POP JUMP JUMPDEST PUSH0 PUSH2 0x55A8 PUSH1 0xE DUP4 PUSH2 0x45A2 JUMP JUMPDEST SWAP2 POP PUSH2 0x55B3 DUP3 PUSH2 0x5574 JUMP JUMPDEST PUSH1 0x20 DUP3 ADD SWAP1 POP SWAP2 SWAP1 POP JUMP JUMPDEST PUSH0 PUSH1 0x20 DUP3 ADD SWAP1 POP DUP2 DUP2 SUB PUSH0 DUP4 ADD MSTORE PUSH2 0x55D5 DUP2 PUSH2 0x559C JUMP JUMPDEST SWAP1 POP SWAP2 SWAP1 POP JUMP JUMPDEST PUSH32 0x5A65726F20616464720000000000000000000000000000000000000000000000 PUSH0 DUP3 ADD MSTORE POP JUMP JUMPDEST PUSH0 PUSH2 0x5610 PUSH1 0x9 DUP4 PUSH2 0x45A2 JUMP JUMPDEST SWAP2 POP PUSH2 0x561B DUP3 PUSH2 0x55DC JUMP JUMPDEST PUSH1 0x20 DUP3 ADD SWAP1 POP SWAP2 SWAP1 POP JUMP JUMPDEST PUSH0 PUSH1 0x20 DUP3 ADD SWAP1 POP DUP2 DUP2 SUB PUSH0 DUP4 ADD MSTORE PUSH2 0x563D DUP2 PUSH2 0x5604 JUMP JUMPDEST SWAP1 POP SWAP2 SWAP1 POP JUMP JUMPDEST PUSH32 0x53616D652077616C6C6574000000000000000000000000000000000000000000 PUSH0 DUP3 ADD MSTORE POP JUMP JUMPDEST PUSH0 PUSH2 0x5678 PUSH1 0xB DUP4 PUSH2 0x45A2 JUMP JUMPDEST SWAP2 POP PUSH2 0x5683 DUP3 PUSH2 0x5644 JUMP JUMPDEST PUSH1 0x20 DUP3 ADD SWAP1 POP SWAP2 SWAP1 POP JUMP JUMPDEST PUSH0 PUSH1 0x20 DUP3 ADD SWAP1 POP DUP2 DUP2 SUB PUSH0 DUP4 ADD MSTORE PUSH2 0x56A5 DUP2 PUSH2 0x566C JUMP JUMPDEST SWAP1 POP SWAP2 SWAP1 POP JUMP JUMPDEST PUSH32 0x4861732044494400000000000000000000000000000000000000000000000000 PUSH0 DUP3 ADD MSTORE POP JUMP JUMPDEST PUSH0 PUSH2 0x56E0 PUSH1 0x7 DUP4 PUSH2 0x45A2 JUMP JUMPDEST SWAP2 POP PUSH2 0x56EB DUP3 PUSH2 0x56AC JUMP JUMPDEST PUSH1 0x20 DUP3 ADD SWAP1 POP SWAP2 SWAP1 POP JUMP JUMPDEST PUSH0 PUSH1 0x20 DUP3 ADD SWAP1 POP DUP2 DUP2 SUB PUSH0 DUP4 ADD MSTORE PUSH2 0x570D DUP2 PUSH2 0x56D4 JUMP JUMPDEST SWAP1 POP SWAP2 SWAP1 POP JUMP JUMPDEST PUSH32 0x4E487B7100000000000000000000000000000000000000000000000000000000 PUSH0 MSTORE PUSH1 0x11 PUSH1 0x4 MSTORE PUSH1 0x24 PUSH0 REVERT JUMPDEST PUSH0 PUSH2 0x574B DUP3 PUSH2 0x4642 JUMP JUMPDEST SWAP2 POP PUSH32 0xFFFFFFFFFFFFFFFFFFFFFFFFFFFFFFFFFFFFFFFFFFFFFFFFFFFFFFFFFFFFFFFF DUP3 SUB PUSH2 0x577D JUMPI PUSH2 0x577C PUSH2 0x5714 JUMP JUMPDEST JUMPDEST PUSH1 0x1 DUP3 ADD SWAP1 POP SWAP2 SWAP1 POP JUMP JUMPDEST PUSH2 0x5791 DUP3 PUSH2 0x47D4 JUMP JUMPDEST PUSH8 0xFFFFFFFFFFFFFFFF DUP2 GT ISZERO PUSH2 0x57AA JUMPI PUSH2 0x57A9 PUSH2 0x4B09 JUMP JUMPDEST JUMPDEST PUSH2 0x57B4 DUP3 SLOAD PUSH2 0x4F66 JUMP JUMPDEST PUSH2 0x57BF DUP3 DUP3 DUP6 PUSH2 0x52F7 JUMP JUMPDEST PUSH0 PUSH1 0x20 SWAP1 POP PUSH1 0x1F DUP4 GT PUSH1 0x1 DUP2 EQ PUSH2 0x57F0 JUMPI PUSH0 DUP5 ISZERO PUSH2 0x57DE JUMPI DUP3 DUP8 ADD MLOAD SWAP1 POP JUMPDEST PUSH2 0x57E8 DUP6 DUP3 PUSH2 0x5365 JUMP JUMPDEST DUP7 SSTORE POP PUSH2 0x584F JUMP JUMPDEST PUSH1 0x1F NOT DUP5 AND PUSH2 0x57FE DUP7 PUSH2 0x51E3 JUMP JUMPDEST PUSH0 JUMPDEST DUP3 DUP2 LT ISZERO PUSH2 0x5825 JUMPI DUP5 DUP10 ADD MLOAD DUP3 SSTORE PUSH1 0x1 DUP3 ADD SWAP2 POP PUSH1 0x20 DUP6 ADD SWAP5 POP PUSH1 0x20 DUP2 ADD SWAP1 POP PUSH2 0x5800 JUMP JUMPDEST DUP7 DUP4 LT ISZERO PUSH2 0x5842 JUMPI DUP5 DUP10 ADD MLOAD PUSH2 0x583E PUSH1 0x1F DUP10 AND DUP3 PUSH2 0x5349 JUMP JUMPDEST DUP4 SSTORE POP JUMPDEST PUSH1 0x1 PUSH1 0x2 DUP9 MUL ADD DUP9 SSTORE POP POP POP JUMPDEST POP POP POP POP POP POP JUMP JUMPDEST PUSH32 0x4E6F207075626C6963206D696E74000000000000000000000000000000000000 PUSH0 DUP3 ADD MSTORE POP JUMP JUMPDEST PUSH0 PUSH2 0x588B PUSH1 0xE DUP4 PUSH2 0x45A2 JUMP JUMPDEST SWAP2 POP PUSH2 0x5896 DUP3 PUSH2 0x5857 JUMP JUMPDEST PUSH1 0x20 DUP3 ADD SWAP1 POP SWAP2 SWAP1 POP JUMP JUMPDEST PUSH0 PUSH1 0x20 DUP3 ADD SWAP1 POP DUP2 DUP2 SUB PUSH0 DUP4 ADD MSTORE PUSH2 0x58B8 DUP2 PUSH2 0x587F JUMP JUMPDEST SWAP1 POP SWAP2 SWAP1 POP JUMP JUMPDEST PUSH0 DUP2 SWAP1 POP SWAP3 SWAP2 POP POP JUMP JUMPDEST PUSH0 PUSH2 0x58D3 DUP3 PUSH2 0x4598 JUMP JUMPDEST PUSH2 0x58DD DUP2 DUP6 PUSH2 0x58BF JUMP JUMPDEST SWAP4 POP PUSH2 0x58ED DUP2 DUP6 PUSH1 0x20 DUP7 ADD PUSH2 0x45B2 JUMP JUMPDEST DUP1 DUP5 ADD SWAP2 POP POP SWAP3 SWAP2 POP POP JUMP JUMPDEST PUSH0 PUSH2 0x5904 DUP3 DUP6 PUSH2 0x58C9 JUMP JUMPDEST SWAP2 POP PUSH2 0x5910 DUP3 DUP5 PUSH2 0x58C9 JUMP JUMPDEST SWAP2 POP DUP2 SWAP1 POP SWAP4 SWAP3 POP POP POP JUMP JUMPDEST PUSH32 0x4E6F20746F6B656E000000000000000000000000000000000000000000000000 PUSH0 DUP3 ADD MSTORE POP JUMP JUMPDEST PUSH0 PUSH2 0x5950 PUSH1 0x8 DUP4 PUSH2 0x45A2 JUMP JUMPDEST SWAP2 POP PUSH2 0x595B DUP3 PUSH2 0x591C JUMP JUMPDEST PUSH1 0x20 DUP3 ADD SWAP1 POP SWAP2 SWAP1 POP JUMP JUMPDEST PUSH0 PUSH1 0x20 DUP3 ADD SWAP1 POP DUP2 DUP2 SUB PUSH0 DUP4 ADD MSTORE PUSH2 0x597D DUP2 PUSH2 0x5944 JUMP JUMPDEST SWAP1 POP SWAP2 SWAP1 POP JUMP JUMPDEST PUSH0 PUSH1 0x80 DUP3 ADD SWAP1 POP PUSH2 0x5997 PUSH0 DUP4 ADD DUP8 PUSH2 0x46D0 JUMP JUMPDEST PUSH2 0x59A4 PUSH1 0x20 DUP4 ADD DUP7 PUSH2 0x46D0 JUMP JUMPDEST PUSH2 0x59B1 PUSH1 0x40 DUP4 ADD DUP6 PUSH2 0x4965 JUMP JUMPDEST DUP2 DUP2 SUB PUSH1 0x60 DUP4 ADD MSTORE PUSH2 0x59C3 DUP2 DUP5 PUSH2 0x4CD4 JUMP JUMPDEST SWAP1 POP SWAP6 SWAP5 POP POP POP POP POP JUMP JUMPDEST PUSH0 DUP2 MLOAD SWAP1 POP PUSH2 0x59DC DUP2 PUSH2 0x4510 JUMP JUMPDEST SWAP3 SWAP2 POP POP JUMP JUMPDEST PUSH0 PUSH1 0x20 DUP3 DUP5 SUB SLT ISZERO PUSH2 0x59F7 JUMPI PUSH2 0x59F6 PUSH2 0x44DD JUMP JUMPDEST JUMPDEST PUSH0 PUSH2 0x5A04 DUP5 DUP3 DUP6 ADD PUSH2 0x59CE JUMP JUMPDEST SWAP2 POP POP SWAP3 SWAP2 POP POP JUMP JUMPDEST PUSH32 0x4E487B7100000000000000000000000000000000000000000000000000000000 PUSH0 MSTORE PUSH1 0x12 PUSH1 0x4 MSTORE PUSH1 0x24 PUSH0 REVERT JUMPDEST PUSH0 PUSH1 0x40 DUP3 ADD SWAP1 POP PUSH2 0x5A4D PUSH0 DUP4 ADD DUP6 PUSH2 0x46D0 JUMP JUMPDEST PUSH2 0x5A5A PUSH1 0x20 DUP4 ADD DUP5 PUSH2 0x4965 JUMP JUMPDEST SWAP4 SWAP3 POP POP POP JUMP INVALID LOG2 PUSH5 0x6970667358 0x22 SLT KECCAK256 SWAP11 MSTORE 0x5D 0x23 SDIV XOR 0xC8 PUSH12 0x8B95BBDFC842F60BD8AA75AB TIMESTAMP 0xE6 0xC1 0xA6 0x1E SWAP4 0xD2 MULMOD 0x2D 0x5E SMOD DUP4 PUSH5 0x736F6C6343 STOP ADDMOD EQ STOP CALLER "
	},
	"abi": [
		{
			"inputs": [
				{
					"internalType": "string",
					"name": "name",
					"type": "string"
				},
				{
					"internalType": "string",
					"name": "symbol",
					"type": "string"
				},
				{
					"internalType": "string",
					"name": "baseURI",
					"type": "string"
				},
				{
					"internalType": "address",
					"name": "_backendSigner",
					"type": "address"
				},
				{
					"internalType": "bool",
					"name": "_allowPublicMinting",
					"type": "bool"
				}
			],
			"stateMutability": "nonpayable",
			"type": "constructor"
		},
		{
			"inputs": [
				{
					"internalType": "address",
					"name": "sender",
					"type": "address"
				},
				{
					"internalType": "uint256",
					"name": "tokenId",
					"type": "uint256"
				},
				{
					"internalType": "address",
					"name": "owner",
					"type": "address"
				}
			],
			"name": "ERC721IncorrectOwner",
			"type": "error"
		},
		{
			"inputs": [
				{
					"internalType": "address",
					"name": "operator",
					"type": "address"
				},
				{
					"internalType": "uint256",
					"name": "tokenId",
					"type": "uint256"
				}
			],
			"name": "ERC721InsufficientApproval",
			"type": "error"
		},
		{
			"inputs": [
				{
					"internalType": "address",
					"name": "approver",
					"type": "address"
				}
			],
			"name": "ERC721InvalidApprover",
			"type": "error"
		},
		{
			"inputs": [
				{
					"internalType": "address",
					"name": "operator",
					"type": "address"
				}
			],
			"name": "ERC721InvalidOperator",
			"type": "error"
		},
		{
			"inputs": [
				{
					"internalType": "address",
					"name": "owner",
					"type": "address"
				}
			],
			"name": "ERC721InvalidOwner",
			"type": "error"
		},
		{
			"inputs": [
				{
					"internalType": "address",
					"name": "receiver",
					"type": "address"
				}
			],
			"name": "ERC721InvalidReceiver",
			"type": "error"
		},
		{
			"inputs": [
				{
					"internalType": "address",
					"name": "sender",
					"type": "address"
				}
			],
			"name": "ERC721InvalidSender",
			"type": "error"
		},
		{
			"inputs": [
				{
					"internalType": "uint256",
					"name": "tokenId",
					"type": "uint256"
				}
			],
			"name": "ERC721NonexistentToken",
			"type": "error"
		},
		{
			"inputs": [
				{
					"internalType": "address",
					"name": "owner",
					"type": "address"
				}
			],
			"name": "OwnableInvalidOwner",
			"type": "error"
		},
		{
			"inputs": [
				{
					"internalType": "address",
					"name": "account",
					"type": "address"
				}
			],
			"name": "OwnableUnauthorizedAccount",
			"type": "error"
		},
		{
			"inputs": [],
			"name": "ReentrancyGuardReentrantCall",
			"type": "error"
		},
		{
			"anonymous": false,
			"inputs": [
				{
					"indexed": true,
					"internalType": "address",
					"name": "owner",
					"type": "address"
				},
				{
					"indexed": true,
					"internalType": "address",
					"name": "approved",
					"type": "address"
				},
				{
					"indexed": true,
					"internalType": "uint256",
					"name": "tokenId",
					"type": "uint256"
				}
			],
			"name": "Approval",
			"type": "event"
		},
		{
			"anonymous": false,
			"inputs": [
				{
					"indexed": true,
					"internalType": "address",
					"name": "owner",
					"type": "address"
				},
				{
					"indexed": true,
					"internalType": "address",
					"name": "operator",
					"type": "address"
				},
				{
					"indexed": false,
					"internalType": "bool",
					"name": "approved",
					"type": "bool"
				}
			],
			"name": "ApprovalForAll",
			"type": "event"
		},
		{
			"anonymous": false,
			"inputs": [
				{
					"indexed": true,
					"internalType": "address",
					"name": "newSigner",
					"type": "address"
				}
			],
			"name": "BackendSignerUpdated",
			"type": "event"
		},
		{
			"anonymous": false,
			"inputs": [
				{
					"indexed": true,
					"internalType": "address",
					"name": "user",
					"type": "address"
				},
				{
					"indexed": true,
					"internalType": "uint256",
					"name": "tokenId",
					"type": "uint256"
				},
				{
					"indexed": true,
					"internalType": "bytes32",
					"name": "chatDataReference",
					"type": "bytes32"
				},
				{
					"indexed": false,
					"internalType": "uint64",
					"name": "timestamp",
					"type": "uint64"
				}
			],
			"name": "DidChatReferenceUpdated",
			"type": "event"
		},
		{
			"anonymous": false,
			"inputs": [
				{
					"indexed": true,
					"internalType": "address",
					"name": "user",
					"type": "address"
				},
				{
					"indexed": true,
					"internalType": "uint256",
					"name": "tokenId",
					"type": "uint256"
				},
				{
					"indexed": false,
					"internalType": "uint64",
					"name": "timestamp",
					"type": "uint64"
				}
			],
			"name": "DidCreated",
			"type": "event"
		},
		{
			"anonymous": false,
			"inputs": [
				{
					"indexed": true,
					"internalType": "address",
					"name": "user",
					"type": "address"
				},
				{
					"indexed": true,
					"internalType": "uint256",
					"name": "tokenId",
					"type": "uint256"
				},
				{
					"indexed": false,
					"internalType": "uint64",
					"name": "timestamp",
					"type": "uint64"
				}
			],
			"name": "DidKeyMetadataUpdated",
			"type": "event"
		},
		{
			"anonymous": false,
			"inputs": [
				{
					"indexed": true,
					"internalType": "address",
					"name": "oldWallet",
					"type": "address"
				},
				{
					"indexed": true,
					"internalType": "address",
					"name": "newWallet",
					"type": "address"
				},
				{
					"indexed": true,
					"internalType": "uint256",
					"name": "tokenId",
					"type": "uint256"
				},
				{
					"indexed": false,
					"internalType": "uint64",
					"name": "timestamp",
					"type": "uint64"
				}
			],
			"name": "DidMigrated",
			"type": "event"
		},
		{
			"anonymous": false,
			"inputs": [
				{
					"indexed": true,
					"internalType": "address",
					"name": "user",
					"type": "address"
				},
				{
					"indexed": true,
					"internalType": "uint256",
					"name": "tokenId",
					"type": "uint256"
				},
				{
					"indexed": false,
					"internalType": "uint64",
					"name": "timestamp",
					"type": "uint64"
				}
			],
			"name": "DidRevoked",
			"type": "event"
		},
		{
			"anonymous": false,
			"inputs": [
				{
					"indexed": true,
					"internalType": "address",
					"name": "previousOwner",
					"type": "address"
				},
				{
					"indexed": true,
					"internalType": "address",
					"name": "newOwner",
					"type": "address"
				}
			],
			"name": "OwnershipTransferred",
			"type": "event"
		},
		{
			"anonymous": false,
			"inputs": [
				{
					"indexed": false,
					"internalType": "bool",
					"name": "enabled",
					"type": "bool"
				}
			],
			"name": "PublicMintingToggled",
			"type": "event"
		},
		{
			"anonymous": false,
			"inputs": [
				{
					"indexed": true,
					"internalType": "address",
					"name": "from",
					"type": "address"
				},
				{
					"indexed": true,
					"internalType": "address",
					"name": "to",
					"type": "address"
				},
				{
					"indexed": true,
					"internalType": "uint256",
					"name": "tokenId",
					"type": "uint256"
				}
			],
			"name": "Transfer",
			"type": "event"
		},
		{
			"inputs": [],
			"name": "allowPublicMinting",
			"outputs": [
				{
					"internalType": "bool",
					"name": "",
					"type": "bool"
				}
			],
			"stateMutability": "view",
			"type": "function"
		},
		{
			"inputs": [
				{
					"internalType": "address",
					"name": "",
					"type": "address"
				},
				{
					"internalType": "uint256",
					"name": "",
					"type": "uint256"
				}
			],
			"name": "approve",
			"outputs": [],
			"stateMutability": "pure",
			"type": "function"
		},
		{
			"inputs": [],
			"name": "backendSigner",
			"outputs": [
				{
					"internalType": "address",
					"name": "",
					"type": "address"
				}
			],
			"stateMutability": "view",
			"type": "function"
		},
		{
			"inputs": [
				{
					"internalType": "address",
					"name": "owner",
					"type": "address"
				}
			],
			"name": "balanceOf",
			"outputs": [
				{
					"internalType": "uint256",
					"name": "",
					"type": "uint256"
				}
			],
			"stateMutability": "view",
			"type": "function"
		},
		{
			"inputs": [
				{
					"internalType": "address",
					"name": "user",
					"type": "address"
				}
			],
			"name": "createDid",
			"outputs": [
				{
					"internalType": "uint256",
					"name": "",
					"type": "uint256"
				}
			],
			"stateMutability": "nonpayable",
			"type": "function"
		},
		{
			"inputs": [],
			"name": "createMyDid",
			"outputs": [
				{
					"internalType": "uint256",
					"name": "",
					"type": "uint256"
				}
			],
			"stateMutability": "nonpayable",
			"type": "function"
		},
		{
			"inputs": [
				{
					"internalType": "uint256",
					"name": "tokenId",
					"type": "uint256"
				}
			],
			"name": "getApproved",
			"outputs": [
				{
					"internalType": "address",
					"name": "",
					"type": "address"
				}
			],
			"stateMutability": "view",
			"type": "function"
		},
		{
			"inputs": [
				{
					"internalType": "address",
					"name": "user",
					"type": "address"
				}
			],
			"name": "getChatDataReference",
			"outputs": [
				{
					"internalType": "bytes32",
					"name": "",
					"type": "bytes32"
				}
			],
			"stateMutability": "view",
			"type": "function"
		},
		{
			"inputs": [
				{
					"internalType": "address",
					"name": "user",
					"type": "address"
				}
			],
			"name": "getDidId",
			"outputs": [
				{
					"internalType": "uint256",
					"name": "",
					"type": "uint256"
				}
			],
			"stateMutability": "view",
			"type": "function"
		},
		{
			"inputs": [
				{
					"internalType": "address",
					"name": "user",
					"type": "address"
				}
			],
			"name": "getEncryptedKeyMetadata",
			"outputs": [
				{
					"internalType": "bytes",
					"name": "",
					"type": "bytes"
				}
			],
			"stateMutability": "view",
			"type": "function"
		},
		{
			"inputs": [
				{
					"internalType": "uint256",
					"name": "tokenId",
					"type": "uint256"
				}
			],
			"name": "getProfile",
			"outputs": [
				{
					"components": [
						{
							"internalType": "address",
							"name": "owner",
							"type": "address"
						},
						{
							"internalType": "uint64",
							"name": "createdAt",
							"type": "uint64"
						},
						{
							"internalType": "uint64",
							"name": "lastUpdatedAt",
							"type": "uint64"
						},
						{
							"internalType": "bytes32",
							"name": "chatDataReference",
							"type": "bytes32"
						},
						{
							"internalType": "bytes",
							"name": "encryptedKeyMetadata",
							"type": "bytes"
						}
					],
					"internalType": "struct DIDIdentityToken.DidProfile",
					"name": "",
					"type": "tuple"
				}
			],
			"stateMutability": "view",
			"type": "function"
		},
		{
			"inputs": [
				{
					"internalType": "address",
					"name": "user",
					"type": "address"
				}
			],
			"name": "getProfileByOwner",
			"outputs": [
				{
					"components": [
						{
							"internalType": "address",
							"name": "owner",
							"type": "address"
						},
						{
							"internalType": "uint64",
							"name": "createdAt",
							"type": "uint64"
						},
						{
							"internalType": "uint64",
							"name": "lastUpdatedAt",
							"type": "uint64"
						},
						{
							"internalType": "bytes32",
							"name": "chatDataReference",
							"type": "bytes32"
						},
						{
							"internalType": "bytes",
							"name": "encryptedKeyMetadata",
							"type": "bytes"
						}
					],
					"internalType": "struct DIDIdentityToken.DidProfile",
					"name": "",
					"type": "tuple"
				}
			],
			"stateMutability": "view",
			"type": "function"
		},
		{
			"inputs": [
				{
					"internalType": "address",
					"name": "user",
					"type": "address"
				}
			],
			"name": "hasDid",
			"outputs": [
				{
					"internalType": "bool",
					"name": "",
					"type": "bool"
				}
			],
			"stateMutability": "view",
			"type": "function"
		},
		{
			"inputs": [
				{
					"internalType": "address",
					"name": "owner",
					"type": "address"
				},
				{
					"internalType": "address",
					"name": "operator",
					"type": "address"
				}
			],
			"name": "isApprovedForAll",
			"outputs": [
				{
					"internalType": "bool",
					"name": "",
					"type": "bool"
				}
			],
			"stateMutability": "view",
			"type": "function"
		},
		{
			"inputs": [
				{
					"internalType": "address",
					"name": "user",
					"type": "address"
				}
			],
			"name": "isRevoked",
			"outputs": [
				{
					"internalType": "bool",
					"name": "",
					"type": "bool"
				}
			],
			"stateMutability": "view",
			"type": "function"
		},
		{
			"inputs": [
				{
					"internalType": "uint256",
					"name": "tokenId",
					"type": "uint256"
				}
			],
			"name": "isRevokedById",
			"outputs": [
				{
					"internalType": "bool",
					"name": "",
					"type": "bool"
				}
			],
			"stateMutability": "view",
			"type": "function"
		},
		{
			"inputs": [
				{
					"internalType": "address",
					"name": "oldWallet",
					"type": "address"
				},
				{
					"internalType": "address",
					"name": "newWallet",
					"type": "address"
				},
				{
					"internalType": "bool",
					"name": "clearChatReference",
					"type": "bool"
				}
			],
			"name": "migrateDid",
			"outputs": [],
			"stateMutability": "nonpayable",
			"type": "function"
		},
		{
			"inputs": [],
			"name": "name",
			"outputs": [
				{
					"internalType": "string",
					"name": "",
					"type": "string"
				}
			],
			"stateMutability": "view",
			"type": "function"
		},
		{
			"inputs": [],
			"name": "owner",
			"outputs": [
				{
					"internalType": "address",
					"name": "",
					"type": "address"
				}
			],
			"stateMutability": "view",
			"type": "function"
		},
		{
			"inputs": [
				{
					"internalType": "uint256",
					"name": "tokenId",
					"type": "uint256"
				}
			],
			"name": "ownerOf",
			"outputs": [
				{
					"internalType": "address",
					"name": "",
					"type": "address"
				}
			],
			"stateMutability": "view",
			"type": "function"
		},
		{
			"inputs": [],
			"name": "renounceOwnership",
			"outputs": [],
			"stateMutability": "nonpayable",
			"type": "function"
		},
		{
			"inputs": [
				{
					"internalType": "bool",
					"name": "clearChatReference",
					"type": "bool"
				}
			],
			"name": "revokeDid",
			"outputs": [],
			"stateMutability": "nonpayable",
			"type": "function"
		},
		{
			"inputs": [],
			"name": "revokeDid",
			"outputs": [],
			"stateMutability": "nonpayable",
			"type": "function"
		},
		{
			"inputs": [
				{
					"internalType": "address",
					"name": "from",
					"type": "address"
				},
				{
					"internalType": "address",
					"name": "to",
					"type": "address"
				},
				{
					"internalType": "uint256",
					"name": "tokenId",
					"type": "uint256"
				}
			],
			"name": "safeTransferFrom",
			"outputs": [],
			"stateMutability": "nonpayable",
			"type": "function"
		},
		{
			"inputs": [
				{
					"internalType": "address",
					"name": "from",
					"type": "address"
				},
				{
					"internalType": "address",
					"name": "to",
					"type": "address"
				},
				{
					"internalType": "uint256",
					"name": "tokenId",
					"type": "uint256"
				},
				{
					"internalType": "bytes",
					"name": "data",
					"type": "bytes"
				}
			],
			"name": "safeTransferFrom",
			"outputs": [],
			"stateMutability": "nonpayable",
			"type": "function"
		},
		{
			"inputs": [
				{
					"internalType": "bool",
					"name": "_allow",
					"type": "bool"
				}
			],
			"name": "setAllowPublicMinting",
			"outputs": [],
			"stateMutability": "nonpayable",
			"type": "function"
		},
		{
			"inputs": [
				{
					"internalType": "address",
					"name": "",
					"type": "address"
				},
				{
					"internalType": "bool",
					"name": "",
					"type": "bool"
				}
			],
			"name": "setApprovalForAll",
			"outputs": [],
			"stateMutability": "pure",
			"type": "function"
		},
		{
			"inputs": [
				{
					"internalType": "string",
					"name": "baseURI",
					"type": "string"
				}
			],
			"name": "setBaseURI",
			"outputs": [],
			"stateMutability": "nonpayable",
			"type": "function"
		},
		{
			"inputs": [
				{
					"internalType": "bytes4",
					"name": "interfaceId",
					"type": "bytes4"
				}
			],
			"name": "supportsInterface",
			"outputs": [
				{
					"internalType": "bool",
					"name": "",
					"type": "bool"
				}
			],
			"stateMutability": "view",
			"type": "function"
		},
		{
			"inputs": [],
			"name": "symbol",
			"outputs": [
				{
					"internalType": "string",
					"name": "",
					"type": "string"
				}
			],
			"stateMutability": "view",
			"type": "function"
		},
		{
			"inputs": [
				{
					"internalType": "uint256",
					"name": "tokenId",
					"type": "uint256"
				}
			],
			"name": "tokenURI",
			"outputs": [
				{
					"internalType": "string",
					"name": "",
					"type": "string"
				}
			],
			"stateMutability": "view",
			"type": "function"
		},
		{
			"inputs": [],
			"name": "totalSupply",
			"outputs": [
				{
					"internalType": "uint256",
					"name": "",
					"type": "uint256"
				}
			],
			"stateMutability": "view",
			"type": "function"
		},
		{
			"inputs": [
				{
					"internalType": "address",
					"name": "from",
					"type": "address"
				},
				{
					"internalType": "address",
					"name": "to",
					"type": "address"
				},
				{
					"internalType": "uint256",
					"name": "tokenId",
					"type": "uint256"
				}
			],
			"name": "transferFrom",
			"outputs": [],
			"stateMutability": "nonpayable",
			"type": "function"
		},
		{
			"inputs": [
				{
					"internalType": "address",
					"name": "newOwner",
					"type": "address"
				}
			],
			"name": "transferOwnership",
			"outputs": [],
			"stateMutability": "nonpayable",
			"type": "function"
		},
		{
			"inputs": [
				{
					"internalType": "address",
					"name": "newSigner",
					"type": "address"
				}
			],
			"name": "updateBackendSigner",
			"outputs": [],
			"stateMutability": "nonpayable",
			"type": "function"
		},
		{
			"inputs": [
				{
					"internalType": "string",
					"name": "newRef",
					"type": "string"
				}
			],
			"name": "updateChatDataReference",
			"outputs": [],
			"stateMutability": "nonpayable",
			"type": "function"
		},
		{
			"inputs": [
				{
					"internalType": "string",
					"name": "newRef",
					"type": "string"
				},
				{
					"internalType": "bytes",
					"name": "newEncryptedKeyMetadata",
					"type": "bytes"
				}
			],
			"name": "updateChatReference",
			"outputs": [],
			"stateMutability": "nonpayable",
			"type": "function"
		},
		{
			"inputs": [
				{
					"internalType": "bytes",
					"name": "newEncryptedKeyMetadata",
					"type": "bytes"
				}
			],
			"name": "updateEncryptedKeyMetadata",
			"outputs": [],
			"stateMutability": "nonpayable",
			"type": "function"
		}
	],
	"storageLayout": {
		"storage": [
			{
				"astId": 317,
				"contract": "DIDIdentityToken.sol:DIDIdentityToken",
				"label": "_name",
				"offset": 0,
				"slot": "0",
				"type": "t_string_storage"
			},
			{
				"astId": 319,
				"contract": "DIDIdentityToken.sol:DIDIdentityToken",
				"label": "_symbol",
				"offset": 0,
				"slot": "1",
				"type": "t_string_storage"
			},
			{
				"astId": 323,
				"contract": "DIDIdentityToken.sol:DIDIdentityToken",
				"label": "_owners",
				"offset": 0,
				"slot": "2",
				"type": "t_mapping(t_uint256,t_address)"
			},
			{
				"astId": 327,
				"contract": "DIDIdentityToken.sol:DIDIdentityToken",
				"label": "_balances",
				"offset": 0,
				"slot": "3",
				"type": "t_mapping(t_address,t_uint256)"
			},
			{
				"astId": 331,
				"contract": "DIDIdentityToken.sol:DIDIdentityToken",
				"label": "_tokenApprovals",
				"offset": 0,
				"slot": "4",
				"type": "t_mapping(t_uint256,t_address)"
			},
			{
				"astId": 337,
				"contract": "DIDIdentityToken.sol:DIDIdentityToken",
				"label": "_operatorApprovals",
				"offset": 0,
				"slot": "5",
				"type": "t_mapping(t_address,t_mapping(t_address,t_bool))"
			},
			{
				"astId": 8,
				"contract": "DIDIdentityToken.sol:DIDIdentityToken",
				"label": "_owner",
				"offset": 0,
				"slot": "6",
				"type": "t_address"
			},
			{
				"astId": 1574,
				"contract": "DIDIdentityToken.sol:DIDIdentityToken",
				"label": "_status",
				"offset": 0,
				"slot": "7",
				"type": "t_uint256"
			},
			{
				"astId": 6629,
				"contract": "DIDIdentityToken.sol:DIDIdentityToken",
				"label": "_tokenProfiles",
				"offset": 0,
				"slot": "8",
				"type": "t_mapping(t_uint256,t_struct(DidProfile)6624_storage)"
			},
			{
				"astId": 6633,
				"contract": "DIDIdentityToken.sol:DIDIdentityToken",
				"label": "_ownerToTokenId",
				"offset": 0,
				"slot": "9",
				"type": "t_mapping(t_address,t_uint256)"
			},
			{
				"astId": 6637,
				"contract": "DIDIdentityToken.sol:DIDIdentityToken",
				"label": "_hasDid",
				"offset": 0,
				"slot": "10",
				"type": "t_mapping(t_address,t_bool)"
			},
			{
				"astId": 6641,
				"contract": "DIDIdentityToken.sol:DIDIdentityToken",
				"label": "_revokedTokens",
				"offset": 0,
				"slot": "11",
				"type": "t_mapping(t_uint256,t_bool)"
			},
			{
				"astId": 6645,
				"contract": "DIDIdentityToken.sol:DIDIdentityToken",
				"label": "_revokedAddresses",
				"offset": 0,
				"slot": "12",
				"type": "t_mapping(t_address,t_bool)"
			},
			{
				"astId": 6647,
				"contract": "DIDIdentityToken.sol:DIDIdentityToken",
				"label": "_tokenCounter",
				"offset": 0,
				"slot": "13",
				"type": "t_uint256"
			},
			{
				"astId": 6649,
				"contract": "DIDIdentityToken.sol:DIDIdentityToken",
				"label": "backendSigner",
				"offset": 0,
				"slot": "14",
				"type": "t_address"
			},
			{
				"astId": 6651,
				"contract": "DIDIdentityToken.sol:DIDIdentityToken",
				"label": "allowPublicMinting",
				"offset": 20,
				"slot": "14",
				"type": "t_bool"
			},
			{
				"astId": 6653,
				"contract": "DIDIdentityToken.sol:DIDIdentityToken",
				"label": "_baseTokenURI",
				"offset": 0,
				"slot": "15",
				"type": "t_string_storage"
			}
		],
		"types": {
			"t_address": {
				"encoding": "inplace",
				"label": "address",
				"numberOfBytes": "20"
			},
			"t_bool": {
				"encoding": "inplace",
				"label": "bool",
				"numberOfBytes": "1"
			},
			"t_bytes32": {
				"encoding": "inplace",
				"label": "bytes32",
				"numberOfBytes": "32"
			},
			"t_bytes_storage": {
				"encoding": "bytes",
				"label": "bytes",
				"numberOfBytes": "32"
			},
			"t_mapping(t_address,t_bool)": {
				"encoding": "mapping",
				"key": "t_address",
				"label": "mapping(address => bool)",
				"numberOfBytes": "32",
				"value": "t_bool"
			},
			"t_mapping(t_address,t_mapping(t_address,t_bool))": {
				"encoding": "mapping",
				"key": "t_address",
				"label": "mapping(address => mapping(address => bool))",
				"numberOfBytes": "32",
				"value": "t_mapping(t_address,t_bool)"
			},
			"t_mapping(t_address,t_uint256)": {
				"encoding": "mapping",
				"key": "t_address",
				"label": "mapping(address => uint256)",
				"numberOfBytes": "32",
				"value": "t_uint256"
			},
			"t_mapping(t_uint256,t_address)": {
				"encoding": "mapping",
				"key": "t_uint256",
				"label": "mapping(uint256 => address)",
				"numberOfBytes": "32",
				"value": "t_address"
			},
			"t_mapping(t_uint256,t_bool)": {
				"encoding": "mapping",
				"key": "t_uint256",
				"label": "mapping(uint256 => bool)",
				"numberOfBytes": "32",
				"value": "t_bool"
			},
			"t_mapping(t_uint256,t_struct(DidProfile)6624_storage)": {
				"encoding": "mapping",
				"key": "t_uint256",
				"label": "mapping(uint256 => struct DIDIdentityToken.DidProfile)",
				"numberOfBytes": "32",
				"value": "t_struct(DidProfile)6624_storage"
			},
			"t_string_storage": {
				"encoding": "bytes",
				"label": "string",
				"numberOfBytes": "32"
			},
			"t_struct(DidProfile)6624_storage": {
				"encoding": "inplace",
				"label": "struct DIDIdentityToken.DidProfile",
				"members": [
					{
						"astId": 6615,
						"contract": "DIDIdentityToken.sol:DIDIdentityToken",
						"label": "owner",
						"offset": 0,
						"slot": "0",
						"type": "t_address"
					},
					{
						"astId": 6617,
						"contract": "DIDIdentityToken.sol:DIDIdentityToken",
						"label": "createdAt",
						"offset": 20,
						"slot": "0",
						"type": "t_uint64"
					},
					{
						"astId": 6619,
						"contract": "DIDIdentityToken.sol:DIDIdentityToken",
						"label": "lastUpdatedAt",
						"offset": 0,
						"slot": "1",
						"type": "t_uint64"
					},
					{
						"astId": 6621,
						"contract": "DIDIdentityToken.sol:DIDIdentityToken",
						"label": "chatDataReference",
						"offset": 0,
						"slot": "2",
						"type": "t_bytes32"
					},
					{
						"astId": 6623,
						"contract": "DIDIdentityToken.sol:DIDIdentityToken",
						"label": "encryptedKeyMetadata",
						"offset": 0,
						"slot": "3",
						"type": "t_bytes_storage"
					}
				],
				"numberOfBytes": "128"
			},
			"t_uint256": {
				"encoding": "inplace",
				"label": "uint256",
				"numberOfBytes": "32"
			},
			"t_uint64": {
				"encoding": "inplace",
				"label": "uint64",
				"numberOfBytes": "8"
			}
		}
	},
	"web3Deploy": "var name = /* var of type string here */ ;\nvar symbol = /* var of type string here */ ;\nvar baseURI = /* var of type string here */ ;\nvar _backendSigner = /* var of type address here */ ;\nvar _allowPublicMinting = /* var of type bool here */ ;\nvar dididentitytokenContract = new web3.eth.Contract([{\"inputs\":[{\"internalType\":\"string\",\"name\":\"name\",\"type\":\"string\"},{\"internalType\":\"string\",\"name\":\"symbol\",\"type\":\"string\"},{\"internalType\":\"string\",\"name\":\"baseURI\",\"type\":\"string\"},{\"internalType\":\"address\",\"name\":\"_backendSigner\",\"type\":\"address\"},{\"internalType\":\"bool\",\"name\":\"_allowPublicMinting\",\"type\":\"bool\"}],\"stateMutability\":\"nonpayable\",\"type\":\"constructor\"},{\"inputs\":[{\"internalType\":\"address\",\"name\":\"sender\",\"type\":\"address\"},{\"internalType\":\"uint256\",\"name\":\"tokenId\",\"type\":\"uint256\"},{\"internalType\":\"address\",\"name\":\"owner\",\"type\":\"address\"}],\"name\":\"ERC721IncorrectOwner\",\"type\":\"error\"},{\"inputs\":[{\"internalType\":\"address\",\"name\":\"operator\",\"type\":\"address\"},{\"internalType\":\"uint256\",\"name\":\"tokenId\",\"type\":\"uint256\"}],\"name\":\"ERC721InsufficientApproval\",\"type\":\"error\"},{\"inputs\":[{\"internalType\":\"address\",\"name\":\"approver\",\"type\":\"address\"}],\"name\":\"ERC721InvalidApprover\",\"type\":\"error\"},{\"inputs\":[{\"internalType\":\"address\",\"name\":\"operator\",\"type\":\"address\"}],\"name\":\"ERC721InvalidOperator\",\"type\":\"error\"},{\"inputs\":[{\"internalType\":\"address\",\"name\":\"owner\",\"type\":\"address\"}],\"name\":\"ERC721InvalidOwner\",\"type\":\"error\"},{\"inputs\":[{\"internalType\":\"address\",\"name\":\"receiver\",\"type\":\"address\"}],\"name\":\"ERC721InvalidReceiver\",\"type\":\"error\"},{\"inputs\":[{\"internalType\":\"address\",\"name\":\"sender\",\"type\":\"address\"}],\"name\":\"ERC721InvalidSender\",\"type\":\"error\"},{\"inputs\":[{\"internalType\":\"uint256\",\"name\":\"tokenId\",\"type\":\"uint256\"}],\"name\":\"ERC721NonexistentToken\",\"type\":\"error\"},{\"inputs\":[{\"internalType\":\"address\",\"name\":\"owner\",\"type\":\"address\"}],\"name\":\"OwnableInvalidOwner\",\"type\":\"error\"},{\"inputs\":[{\"internalType\":\"address\",\"name\":\"account\",\"type\":\"address\"}],\"name\":\"OwnableUnauthorizedAccount\",\"type\":\"error\"},{\"inputs\":[],\"name\":\"ReentrancyGuardReentrantCall\",\"type\":\"error\"},{\"anonymous\":false,\"inputs\":[{\"indexed\":true,\"internalType\":\"address\",\"name\":\"owner\",\"type\":\"address\"},{\"indexed\":true,\"internalType\":\"address\",\"name\":\"approved\",\"type\":\"address\"},{\"indexed\":true,\"internalType\":\"uint256\",\"name\":\"tokenId\",\"type\":\"uint256\"}],\"name\":\"Approval\",\"type\":\"event\"},{\"anonymous\":false,\"inputs\":[{\"indexed\":true,\"internalType\":\"address\",\"name\":\"owner\",\"type\":\"address\"},{\"indexed\":true,\"internalType\":\"address\",\"name\":\"operator\",\"type\":\"address\"},{\"indexed\":false,\"internalType\":\"bool\",\"name\":\"approved\",\"type\":\"bool\"}],\"name\":\"ApprovalForAll\",\"type\":\"event\"},{\"anonymous\":false,\"inputs\":[{\"indexed\":true,\"internalType\":\"address\",\"name\":\"newSigner\",\"type\":\"address\"}],\"name\":\"BackendSignerUpdated\",\"type\":\"event\"},{\"anonymous\":false,\"inputs\":[{\"indexed\":true,\"internalType\":\"address\",\"name\":\"user\",\"type\":\"address\"},{\"indexed\":true,\"internalType\":\"uint256\",\"name\":\"tokenId\",\"type\":\"uint256\"},{\"indexed\":true,\"internalType\":\"bytes32\",\"name\":\"chatDataReference\",\"type\":\"bytes32\"},{\"indexed\":false,\"internalType\":\"uint64\",\"name\":\"timestamp\",\"type\":\"uint64\"}],\"name\":\"DidChatReferenceUpdated\",\"type\":\"event\"},{\"anonymous\":false,\"inputs\":[{\"indexed\":true,\"internalType\":\"address\",\"name\":\"user\",\"type\":\"address\"},{\"indexed\":true,\"internalType\":\"uint256\",\"name\":\"tokenId\",\"type\":\"uint256\"},{\"indexed\":false,\"internalType\":\"uint64\",\"name\":\"timestamp\",\"type\":\"uint64\"}],\"name\":\"DidCreated\",\"type\":\"event\"},{\"anonymous\":false,\"inputs\":[{\"indexed\":true,\"internalType\":\"address\",\"name\":\"user\",\"type\":\"address\"},{\"indexed\":true,\"internalType\":\"uint256\",\"name\":\"tokenId\",\"type\":\"uint256\"},{\"indexed\":false,\"internalType\":\"uint64\",\"name\":\"timestamp\",\"type\":\"uint64\"}],\"name\":\"DidKeyMetadataUpdated\",\"type\":\"event\"},{\"anonymous\":false,\"inputs\":[{\"indexed\":true,\"internalType\":\"address\",\"name\":\"oldWallet\",\"type\":\"address\"},{\"indexed\":true,\"internalType\":\"address\",\"name\":\"newWallet\",\"type\":\"address\"},{\"indexed\":true,\"internalType\":\"uint256\",\"name\":\"tokenId\",\"type\":\"uint256\"},{\"indexed\":false,\"internalType\":\"uint64\",\"name\":\"timestamp\",\"type\":\"uint64\"}],\"name\":\"DidMigrated\",\"type\":\"event\"},{\"anonymous\":false,\"inputs\":[{\"indexed\":true,\"internalType\":\"address\",\"name\":\"user\",\"type\":\"address\"},{\"indexed\":true,\"internalType\":\"uint256\",\"name\":\"tokenId\",\"type\":\"uint256\"},{\"indexed\":false,\"internalType\":\"uint64\",\"name\":\"timestamp\",\"type\":\"uint64\"}],\"name\":\"DidRevoked\",\"type\":\"event\"},{\"anonymous\":false,\"inputs\":[{\"indexed\":true,\"internalType\":\"address\",\"name\":\"previousOwner\",\"type\":\"address\"},{\"indexed\":true,\"internalType\":\"address\",\"name\":\"newOwner\",\"type\":\"address\"}],\"name\":\"OwnershipTransferred\",\"type\":\"event\"},{\"anonymous\":false,\"inputs\":[{\"indexed\":false,\"internalType\":\"bool\",\"name\":\"enabled\",\"type\":\"bool\"}],\"name\":\"PublicMintingToggled\",\"type\":\"event\"},{\"anonymous\":false,\"inputs\":[{\"indexed\":true,\"internalType\":\"address\",\"name\":\"from\",\"type\":\"address\"},{\"indexed\":true,\"internalType\":\"address\",\"name\":\"to\",\"type\":\"address\"},{\"indexed\":true,\"internalType\":\"uint256\",\"name\":\"tokenId\",\"type\":\"uint256\"}],\"name\":\"Transfer\",\"type\":\"event\"},{\"inputs\":[],\"name\":\"allowPublicMinting\",\"outputs\":[{\"internalType\":\"bool\",\"name\":\"\",\"type\":\"bool\"}],\"stateMutability\":\"view\",\"type\":\"function\"},{\"inputs\":[{\"internalType\":\"address\",\"name\":\"\",\"type\":\"address\"},{\"internalType\":\"uint256\",\"name\":\"\",\"type\":\"uint256\"}],\"name\":\"approve\",\"outputs\":[],\"stateMutability\":\"pure\",\"type\":\"function\"},{\"inputs\":[],\"name\":\"backendSigner\",\"outputs\":[{\"internalType\":\"address\",\"name\":\"\",\"type\":\"address\"}],\"stateMutability\":\"view\",\"type\":\"function\"},{\"inputs\":[{\"internalType\":\"address\",\"name\":\"owner\",\"type\":\"address\"}],\"name\":\"balanceOf\",\"outputs\":[{\"internalType\":\"uint256\",\"name\":\"\",\"type\":\"uint256\"}],\"stateMutability\":\"view\",\"type\":\"function\"},{\"inputs\":[{\"internalType\":\"address\",\"name\":\"user\",\"type\":\"address\"}],\"name\":\"createDid\",\"outputs\":[{\"internalType\":\"uint256\",\"name\":\"\",\"type\":\"uint256\"}],\"stateMutability\":\"nonpayable\",\"type\":\"function\"},{\"inputs\":[],\"name\":\"createMyDid\",\"outputs\":[{\"internalType\":\"uint256\",\"name\":\"\",\"type\":\"uint256\"}],\"stateMutability\":\"nonpayable\",\"type\":\"function\"},{\"inputs\":[{\"internalType\":\"uint256\",\"name\":\"tokenId\",\"type\":\"uint256\"}],\"name\":\"getApproved\",\"outputs\":[{\"internalType\":\"address\",\"name\":\"\",\"type\":\"address\"}],\"stateMutability\":\"view\",\"type\":\"function\"},{\"inputs\":[{\"internalType\":\"address\",\"name\":\"user\",\"type\":\"address\"}],\"name\":\"getChatDataReference\",\"outputs\":[{\"internalType\":\"bytes32\",\"name\":\"\",\"type\":\"bytes32\"}],\"stateMutability\":\"view\",\"type\":\"function\"},{\"inputs\":[{\"internalType\":\"address\",\"name\":\"user\",\"type\":\"address\"}],\"name\":\"getDidId\",\"outputs\":[{\"internalType\":\"uint256\",\"name\":\"\",\"type\":\"uint256\"}],\"stateMutability\":\"view\",\"type\":\"function\"},{\"inputs\":[{\"internalType\":\"address\",\"name\":\"user\",\"type\":\"address\"}],\"name\":\"getEncryptedKeyMetadata\",\"outputs\":[{\"internalType\":\"bytes\",\"name\":\"\",\"type\":\"bytes\"}],\"stateMutability\":\"view\",\"type\":\"function\"},{\"inputs\":[{\"internalType\":\"uint256\",\"name\":\"tokenId\",\"type\":\"uint256\"}],\"name\":\"getProfile\",\"outputs\":[{\"components\":[{\"internalType\":\"address\",\"name\":\"owner\",\"type\":\"address\"},{\"internalType\":\"uint64\",\"name\":\"createdAt\",\"type\":\"uint64\"},{\"internalType\":\"uint64\",\"name\":\"lastUpdatedAt\",\"type\":\"uint64\"},{\"internalType\":\"bytes32\",\"name\":\"chatDataReference\",\"type\":\"bytes32\"},{\"internalType\":\"bytes\",\"name\":\"encryptedKeyMetadata\",\"type\":\"bytes\"}],\"internalType\":\"struct DIDIdentityToken.DidProfile\",\"name\":\"\",\"type\":\"tuple\"}],\"stateMutability\":\"view\",\"type\":\"function\"},{\"inputs\":[{\"internalType\":\"address\",\"name\":\"user\",\"type\":\"address\"}],\"name\":\"getProfileByOwner\",\"outputs\":[{\"components\":[{\"internalType\":\"address\",\"name\":\"owner\",\"type\":\"address\"},{\"internalType\":\"uint64\",\"name\":\"createdAt\",\"type\":\"uint64\"},{\"internalType\":\"uint64\",\"name\":\"lastUpdatedAt\",\"type\":\"uint64\"},{\"internalType\":\"bytes32\",\"name\":\"chatDataReference\",\"type\":\"bytes32\"},{\"internalType\":\"bytes\",\"name\":\"encryptedKeyMetadata\",\"type\":\"bytes\"}],\"internalType\":\"struct DIDIdentityToken.DidProfile\",\"name\":\"\",\"type\":\"tuple\"}],\"stateMutability\":\"view\",\"type\":\"function\"},{\"inputs\":[{\"internalType\":\"address\",\"name\":\"user\",\"type\":\"address\"}],\"name\":\"hasDid\",\"outputs\":[{\"internalType\":\"bool\",\"name\":\"\",\"type\":\"bool\"}],\"stateMutability\":\"view\",\"type\":\"function\"},{\"inputs\":[{\"internalType\":\"address\",\"name\":\"owner\",\"type\":\"address\"},{\"internalType\":\"address\",\"name\":\"operator\",\"type\":\"address\"}],\"name\":\"isApprovedForAll\",\"outputs\":[{\"internalType\":\"bool\",\"name\":\"\",\"type\":\"bool\"}],\"stateMutability\":\"view\",\"type\":\"function\"},{\"inputs\":[{\"internalType\":\"address\",\"name\":\"user\",\"type\":\"address\"}],\"name\":\"isRevoked\",\"outputs\":[{\"internalType\":\"bool\",\"name\":\"\",\"type\":\"bool\"}],\"stateMutability\":\"view\",\"type\":\"function\"},{\"inputs\":[{\"internalType\":\"uint256\",\"name\":\"tokenId\",\"type\":\"uint256\"}],\"name\":\"isRevokedById\",\"outputs\":[{\"internalType\":\"bool\",\"name\":\"\",\"type\":\"bool\"}],\"stateMutability\":\"view\",\"type\":\"function\"},{\"inputs\":[{\"internalType\":\"address\",\"name\":\"oldWallet\",\"type\":\"address\"},{\"internalType\":\"address\",\"name\":\"newWallet\",\"type\":\"address\"},{\"internalType\":\"bool\",\"name\":\"clearChatReference\",\"type\":\"bool\"}],\"name\":\"migrateDid\",\"outputs\":[],\"stateMutability\":\"nonpayable\",\"type\":\"function\"},{\"inputs\":[],\"name\":\"name\",\"outputs\":[{\"internalType\":\"string\",\"name\":\"\",\"type\":\"string\"}],\"stateMutability\":\"view\",\"type\":\"function\"},{\"inputs\":[],\"name\":\"owner\",\"outputs\":[{\"internalType\":\"address\",\"name\":\"\",\"type\":\"address\"}],\"stateMutability\":\"view\",\"type\":\"function\"},{\"inputs\":[{\"internalType\":\"uint256\",\"name\":\"tokenId\",\"type\":\"uint256\"}],\"name\":\"ownerOf\",\"outputs\":[{\"internalType\":\"address\",\"name\":\"\",\"type\":\"address\"}],\"stateMutability\":\"view\",\"type\":\"function\"},{\"inputs\":[],\"name\":\"renounceOwnership\",\"outputs\":[],\"stateMutability\":\"nonpayable\",\"type\":\"function\"},{\"inputs\":[{\"internalType\":\"bool\",\"name\":\"clearChatReference\",\"type\":\"bool\"}],\"name\":\"revokeDid\",\"outputs\":[],\"stateMutability\":\"nonpayable\",\"type\":\"function\"},{\"inputs\":[],\"name\":\"revokeDid\",\"outputs\":[],\"stateMutability\":\"nonpayable\",\"type\":\"function\"},{\"inputs\":[{\"internalType\":\"address\",\"name\":\"from\",\"type\":\"address\"},{\"internalType\":\"address\",\"name\":\"to\",\"type\":\"address\"},{\"internalType\":\"uint256\",\"name\":\"tokenId\",\"type\":\"uint256\"}],\"name\":\"safeTransferFrom\",\"outputs\":[],\"stateMutability\":\"nonpayable\",\"type\":\"function\"},{\"inputs\":[{\"internalType\":\"address\",\"name\":\"from\",\"type\":\"address\"},{\"internalType\":\"address\",\"name\":\"to\",\"type\":\"address\"},{\"internalType\":\"uint256\",\"name\":\"tokenId\",\"type\":\"uint256\"},{\"internalType\":\"bytes\",\"name\":\"data\",\"type\":\"bytes\"}],\"name\":\"safeTransferFrom\",\"outputs\":[],\"stateMutability\":\"nonpayable\",\"type\":\"function\"},{\"inputs\":[{\"internalType\":\"bool\",\"name\":\"_allow\",\"type\":\"bool\"}],\"name\":\"setAllowPublicMinting\",\"outputs\":[],\"stateMutability\":\"nonpayable\",\"type\":\"function\"},{\"inputs\":[{\"internalType\":\"address\",\"name\":\"\",\"type\":\"address\"},{\"internalType\":\"bool\",\"name\":\"\",\"type\":\"bool\"}],\"name\":\"setApprovalForAll\",\"outputs\":[],\"stateMutability\":\"pure\",\"type\":\"function\"},{\"inputs\":[{\"internalType\":\"string\",\"name\":\"baseURI\",\"type\":\"string\"}],\"name\":\"setBaseURI\",\"outputs\":[],\"stateMutability\":\"nonpayable\",\"type\":\"function\"},{\"inputs\":[{\"internalType\":\"bytes4\",\"name\":\"interfaceId\",\"type\":\"bytes4\"}],\"name\":\"supportsInterface\",\"outputs\":[{\"internalType\":\"bool\",\"name\":\"\",\"type\":\"bool\"}],\"stateMutability\":\"view\",\"type\":\"function\"},{\"inputs\":[],\"name\":\"symbol\",\"outputs\":[{\"internalType\":\"string\",\"name\":\"\",\"type\":\"string\"}],\"stateMutability\":\"view\",\"type\":\"function\"},{\"inputs\":[{\"internalType\":\"uint256\",\"name\":\"tokenId\",\"type\":\"uint256\"}],\"name\":\"tokenURI\",\"outputs\":[{\"internalType\":\"string\",\"name\":\"\",\"type\":\"string\"}],\"stateMutability\":\"view\",\"type\":\"function\"},{\"inputs\":[],\"name\":\"totalSupply\",\"outputs\":[{\"internalType\":\"uint256\",\"name\":\"\",\"type\":\"uint256\"}],\"stateMutability\":\"view\",\"type\":\"function\"},{\"inputs\":[{\"internalType\":\"address\",\"name\":\"from\",\"type\":\"address\"},{\"internalType\":\"address\",\"name\":\"to\",\"type\":\"address\"},{\"internalType\":\"uint256\",\"name\":\"tokenId\",\"type\":\"uint256\"}],\"name\":\"transferFrom\",\"outputs\":[],\"stateMutability\":\"nonpayable\",\"type\":\"function\"},{\"inputs\":[{\"internalType\":\"address\",\"name\":\"newOwner\",\"type\":\"address\"}],\"name\":\"transferOwnership\",\"outputs\":[],\"stateMutability\":\"nonpayable\",\"type\":\"function\"},{\"inputs\":[{\"internalType\":\"address\",\"name\":\"newSigner\",\"type\":\"address\"}],\"name\":\"updateBackendSigner\",\"outputs\":[],\"stateMutability\":\"nonpayable\",\"type\":\"function\"},{\"inputs\":[{\"internalType\":\"string\",\"name\":\"newRef\",\"type\":\"string\"}],\"name\":\"updateChatDataReference\",\"outputs\":[],\"stateMutability\":\"nonpayable\",\"type\":\"function\"},{\"inputs\":[{\"internalType\":\"string\",\"name\":\"newRef\",\"type\":\"string\"},{\"internalType\":\"bytes\",\"name\":\"newEncryptedKeyMetadata\",\"type\":\"bytes\"}],\"name\":\"updateChatReference\",\"outputs\":[],\"stateMutability\":\"nonpayable\",\"type\":\"function\"},{\"inputs\":[{\"internalType\":\"bytes\",\"name\":\"newEncryptedKeyMetadata\",\"type\":\"bytes\"}],\"name\":\"updateEncryptedKeyMetadata\",\"outputs\":[],\"stateMutability\":\"nonpayable\",\"type\":\"function\"}]);\nvar dididentitytoken = dididentitytokenContract.deploy({\n     data: '0x608060405234801562000010575f80fd5b50604051620063193803806200631983398181016040528101906200003691906200044c565b338585815f908162000049919062000764565b5080600190816200005b919062000764565b5050505f73ffffffffffffffffffffffffffffffffffffffff168173ffffffffffffffffffffffffffffffffffffffff1603620000d1575f6040517f1e4fbdf7000000000000000000000000000000000000000000000000000000008152600401620000c8919062000859565b60405180910390fd5b620000e2816200016960201b60201c565b50600160078190555082600f9081620000fc919062000764565b5081600e5f6101000a81548173ffffffffffffffffffffffffffffffffffffffff021916908373ffffffffffffffffffffffffffffffffffffffff16021790555080600e60146101000a81548160ff0219169083151502179055505f600d81905550505050505062000874565b5f60065f9054906101000a900473ffffffffffffffffffffffffffffffffffffffff1690508160065f6101000a81548173ffffffffffffffffffffffffffffffffffffffff021916908373ffffffffffffffffffffffffffffffffffffffff1602179055508173ffffffffffffffffffffffffffffffffffffffff168173ffffffffffffffffffffffffffffffffffffffff167f8be0079c531659141344cd1fd0a4f28419497f9722a3daafe3b4186f6b6457e060405160405180910390a35050565b5f604051905090565b5f80fd5b5f80fd5b5f80fd5b5f80fd5b5f601f19601f8301169050919050565b7f4e487b71000000000000000000000000000000000000000000000000000000005f52604160045260245ffd5b6200028d8262000245565b810181811067ffffffffffffffff82111715620002af57620002ae62000255565b5b80604052505050565b5f620002c36200022c565b9050620002d1828262000282565b919050565b5f67ffffffffffffffff821115620002f357620002f262000255565b5b620002fe8262000245565b9050602081019050919050565b5f5b838110156200032a5780820151818401526020810190506200030d565b5f8484015250505050565b5f6200034b6200034584620002d6565b620002b8565b9050828152602081018484840111156200036a576200036962000241565b5b620003778482856200030b565b509392505050565b5f82601f8301126200039657620003956200023d565b5b8151620003a884826020860162000335565b91505092915050565b5f73ffffffffffffffffffffffffffffffffffffffff82169050919050565b5f620003dc82620003b1565b9050919050565b620003ee81620003d0565b8114620003f9575f80fd5b50565b5f815190506200040c81620003e3565b92915050565b5f8115159050919050565b620004288162000412565b811462000433575f80fd5b50565b5f8151905062000446816200041d565b92915050565b5f805f805f60a0868803121562000468576200046762000235565b5b5f86015167ffffffffffffffff81111562000488576200048762000239565b5b62000496888289016200037f565b955050602086015167ffffffffffffffff811115620004ba57620004b962000239565b5b620004c8888289016200037f565b945050604086015167ffffffffffffffff811115620004ec57620004eb62000239565b5b620004fa888289016200037f565b93505060606200050d88828901620003fc565b9250506080620005208882890162000436565b9150509295509295909350565b5f81519050919050565b7f4e487b71000000000000000000000000000000000000000000000000000000005f52602260045260245ffd5b5f60028204905060018216806200057c57607f821691505b60208210810362000592576200059162000537565b5b50919050565b5f819050815f5260205f209050919050565b5f6020601f8301049050919050565b5f82821b905092915050565b5f60088302620005f67fffffffffffffffffffffffffffffffffffffffffffffffffffffffffffffffff82620005b9565b620006028683620005b9565b95508019841693508086168417925050509392505050565b5f819050919050565b5f819050919050565b5f6200064c6200064662000640846200061a565b62000623565b6200061a565b9050919050565b5f819050919050565b62000667836200062c565b6200067f620006768262000653565b848454620005c5565b825550505050565b5f90565b6200069562000687565b620006a28184846200065c565b505050565b5b81811015620006c957620006bd5f826200068b565b600181019050620006a8565b5050565b601f8211156200071857620006e28162000598565b620006ed84620005aa565b81016020851015620006fd578190505b620007156200070c85620005aa565b830182620006a7565b50505b505050565b5f82821c905092915050565b5f6200073a5f19846008026200071d565b1980831691505092915050565b5f62000754838362000729565b9150826002028217905092915050565b6200076f826200052d565b67ffffffffffffffff8111156200078b576200078a62000255565b5b62000797825462000564565b620007a4828285620006cd565b5f60209050601f831160018114620007da575f8415620007c5578287015190505b620007d1858262000747565b86555062000840565b601f198416620007ea8662000598565b5f5b828110156200081357848901518255600182019150602085019450602081019050620007ec565b868310156200083357848901516200082f601f89168262000729565b8355505b6001600288020188555050505b505050505050565b6200085381620003d0565b82525050565b5f6020820190506200086e5f83018462000848565b92915050565b615a9780620008825f395ff3fe608060405234801561000f575f80fd5b5060043610610230575f3560e01c8063715018a61161012e578063c5762ef7116100b6578063e985e9c51161007a578063e985e9c5146106aa578063f08f4f64146106da578063f2fde38b1461070a578063fa52864914610726578063ff6a0bff1461074257610230565b8063c5762ef7146105e0578063c87b56dd146105fe578063dc3904501461062e578063e16c06521461064a578063e2a0e9f21461067a57610230565b8063998dfbb2116100fd578063998dfbb21461052a578063a22cb4651461055a578063b88d4fde14610576578063c048bc1314610592578063c3135e1a146105b057610230565b8063715018a6146104c8578063898cdb86146104d25780638da5cb5b146104ee57806395d89b411461050c57610230565b806323b872dd116101bc5780635f13e97c116101805780635f13e97c1461042457806362ec93541461042e5780636352211e1461044a57806365d65e861461047a57806370a082311461049857610230565b806323b872dd1461038457806342842e0e146103a057806343e91f48146103bc578063522bec8d146103d857806355f804b31461040857610230565b80630fa12160116102035780630fa12160146102ce57806313036808146102fe57806318160ddd1461031a5780631830f737146103385780631d638f8c1461035457610230565b806301ffc9a71461023457806306fdde0314610264578063081812fc14610282578063095ea7b3146102b2575b5f80fd5b61024e6004803603810190610249919061453a565b610772565b60405161025b919061457f565b60405180910390f35b61026c610853565b6040516102799190614622565b60405180910390f35b61029c60048036038101906102979190614675565b6108e2565b6040516102a991906146df565b60405180910390f35b6102cc60048036038101906102c79190614722565b6108fd565b005b6102e860048036038101906102e39190614760565b610938565b6040516102f59190614899565b60405180910390f35b6103186004803603810190610313919061491a565b610b7e565b005b610322610eac565b60405161032f9190614974565b60405180910390f35b610352600480360381019061034d91906149b7565b610eb5565b005b61036e60048036038101906103699190614760565b610fcb565b60405161037b9190614974565b60405180910390f35b61039e600480360381019061039991906149e2565b611011565b005b6103ba60048036038101906103b591906149e2565b611110565b005b6103d660048036038101906103d19190614a87565b61112f565b005b6103f260048036038101906103ed9190614675565b6114c2565b6040516103ff919061457f565b60405180910390f35b610422600480360381019061041d9190614c2d565b6114e8565b005b61042c611503565b005b61044860048036038101906104439190614c74565b611619565b005b610464600480360381019061045f9190614675565b611f02565b60405161047191906146df565b60405180910390f35b610482611f13565b60405161048f91906146df565b60405180910390f35b6104b260048036038101906104ad9190614760565b611f38565b6040516104bf9190614974565b60405180910390f35b6104d0611fee565b005b6104ec60048036038101906104e79190614760565b612001565b005b6104f66120fd565b60405161050391906146df565b60405180910390f35b610514612125565b6040516105219190614622565b60405180910390f35b610544600480360381019061053f9190614760565b6121b5565b6040516105519190614d0c565b60405180910390f35b610574600480360381019061056f9190614d2c565b612324565b005b610590600480360381019061058b9190614e08565b61235f565b005b61059a612384565b6040516105a79190614974565b60405180910390f35b6105ca60048036038101906105c59190614760565b6126bc565b6040516105d7919061457f565b60405180910390f35b6105e861270e565b6040516105f5919061457f565b60405180910390f35b61061860048036038101906106139190614675565b612721565b6040516106259190614622565b60405180910390f35b61064860048036038101906106439190614e88565b612787565b005b610664600480360381019061065f9190614760565b612aa3565b604051610671919061457f565b60405180910390f35b610694600480360381019061068f9190614760565b612b62565b6040516106a19190614974565b60405180910390f35b6106c460048036038101906106bf9190614ed3565b612f9e565b6040516106d1919061457f565b60405180910390f35b6106f460048036038101906106ef9190614675565b61302c565b6040516107019190614899565b60405180910390f35b610724600480360381019061071f9190614760565b6131ef565b005b610740600480360381019061073b91906149b7565b613273565b005b61075c60048036038101906107579190614760565b6132cf565b6040516107699190614f20565b60405180910390f35b5f7f80ac58cd000000000000000000000000000000000000000000000000000000007bffffffffffffffffffffffffffffffffffffffffffffffffffffffff1916827bffffffffffffffffffffffffffffffffffffffffffffffffffffffff1916148061083c57507f5b5e139f000000000000000000000000000000000000000000000000000000007bffffffffffffffffffffffffffffffffffffffffffffffffffffffff1916827bffffffffffffffffffffffffffffffffffffffffffffffffffffffff1916145b8061084c575061084b826133b7565b5b9050919050565b60605f805461086190614f66565b80601f016020809104026020016040519081016040528092919081815260200182805461088d90614f66565b80156108d85780601f106108af576101008083540402835291602001916108d8565b820191905f5260205f20905b8154815290600101906020018083116108bb57829003601f168201915b5050505050905090565b5f6108ec82613420565b506108f6826134a6565b9050919050565b6040517f08c379a000000000000000000000000000000000000000000000000000000000815260040161092f90614fe0565b60405180910390fd5b61094061447c565b600a5f8373ffffffffffffffffffffffffffffffffffffffff1673ffffffffffffffffffffffffffffffffffffffff1681526020019081526020015f205f9054906101000a900460ff166109c9576040517f08c379a00000000000000000000000000000000000000000000000000000000081526004016109c090615048565b60405180910390fd5b5f60095f8473ffffffffffffffffffffffffffffffffffffffff1673ffffffffffffffffffffffffffffffffffffffff1681526020019081526020015f2054905060085f8281526020019081526020015f206040518060a00160405290815f82015f9054906101000a900473ffffffffffffffffffffffffffffffffffffffff1673ffffffffffffffffffffffffffffffffffffffff1673ffffffffffffffffffffffffffffffffffffffff1681526020015f820160149054906101000a900467ffffffffffffffff1667ffffffffffffffff1667ffffffffffffffff168152602001600182015f9054906101000a900467ffffffffffffffff1667ffffffffffffffff1667ffffffffffffffff16815260200160028201548152602001600382018054610af690614f66565b80601f0160208091040260200160405190810160405280929190818152602001828054610b2290614f66565b8015610b6d5780601f10610b4457610100808354040283529160200191610b6d565b820191905f5260205f20905b815481529060010190602001808311610b5057829003601f168201915b505050505081525050915050919050565b33600a5f8273ffffffffffffffffffffffffffffffffffffffff1673ffffffffffffffffffffffffffffffffffffffff1681526020019081526020015f205f9054906101000a900460ff16610c08576040517f08c379a0000000000000000000000000000000000000000000000000000000008152600401610bff90615048565b60405180910390fd5b8073ffffffffffffffffffffffffffffffffffffffff163373ffffffffffffffffffffffffffffffffffffffff1614610c76576040517f08c379a0000000000000000000000000000000000000000000000000000000008152600401610c6d906150b0565b60405180910390fd5b33600a5f8273ffffffffffffffffffffffffffffffffffffffff1673ffffffffffffffffffffffffffffffffffffffff1681526020019081526020015f205f9054906101000a900460ff16610d00576040517f08c379a0000000000000000000000000000000000000000000000000000000008152600401610cf790615048565b60405180910390fd5b5f60095f8373ffffffffffffffffffffffffffffffffffffffff1673ffffffffffffffffffffffffffffffffffffffff1681526020019081526020015f20549050600b5f8281526020019081526020015f205f9054906101000a900460ff1615610d9f576040517f08c379a0000000000000000000000000000000000000000000000000000000008152600401610d9690615118565b60405180910390fd5b610da76134df565b5f60095f3373ffffffffffffffffffffffffffffffffffffffff1673ffffffffffffffffffffffffffffffffffffffff1681526020019081526020015f205490505f60085f8381526020019081526020015f2090505f8787604051610e0d929190615164565b6040518091039020905080826002018190555042826001015f6101000a81548167ffffffffffffffff021916908367ffffffffffffffff16021790555080833373ffffffffffffffffffffffffffffffffffffffff167f8280fd7bbdeb2364e894d403db429c0fb8e57a385d0f2ec1f7926acf3284772642604051610e92919061518b565b60405180910390a4505050610ea5613525565b5050505050565b5f600d54905090565b33600a5f8273ffffffffffffffffffffffffffffffffffffffff1673ffffffffffffffffffffffffffffffffffffffff1681526020019081526020015f205f9054906101000a900460ff16610f3f576040517f08c379a0000000000000000000000000000000000000000000000000000000008152600401610f3690615048565b60405180910390fd5b8073ffffffffffffffffffffffffffffffffffffffff163373ffffffffffffffffffffffffffffffffffffffff1614610fad576040517f08c379a0000000000000000000000000000000000000000000000000000000008152600401610fa4906150b0565b60405180910390fd5b610fb56134df565b610fbf338361352f565b610fc7613525565b5050565b5f60095f8373ffffffffffffffffffffffffffffffffffffffff1673ffffffffffffffffffffffffffffffffffffffff1681526020019081526020015f20549050919050565b5f73ffffffffffffffffffffffffffffffffffffffff168273ffffffffffffffffffffffffffffffffffffffff1603611081575f6040517f64a0ae9200000000000000000000000000000000000000000000000000000000815260040161107891906146df565b60405180910390fd5b5f611094838361108f613711565b613718565b90508373ffffffffffffffffffffffffffffffffffffffff168173ffffffffffffffffffffffffffffffffffffffff161461110a578382826040517f64283d7b000000000000000000000000000000000000000000000000000000008152600401611101939291906151a4565b60405180910390fd5b50505050565b61112a83838360405180602001604052805f81525061235f565b505050565b33600a5f8273ffffffffffffffffffffffffffffffffffffffff1673ffffffffffffffffffffffffffffffffffffffff1681526020019081526020015f205f9054906101000a900460ff166111b9576040517f08c379a00000000000000000000000000000000000000000000000000000000081526004016111b090615048565b60405180910390fd5b8073ffffffffffffffffffffffffffffffffffffffff163373ffffffffffffffffffffffffffffffffffffffff1614611227576040517f08c379a000000000000000000000000000000000000000000000000000000000815260040161121e906150b0565b60405180910390fd5b33600a5f8273ffffffffffffffffffffffffffffffffffffffff1673ffffffffffffffffffffffffffffffffffffffff1681526020019081526020015f205f9054906101000a900460ff166112b1576040517f08c379a00000000000000000000000000000000000000000000000000000000081526004016112a890615048565b60405180910390fd5b5f60095f8373ffffffffffffffffffffffffffffffffffffffff1673ffffffffffffffffffffffffffffffffffffffff1681526020019081526020015f20549050600b5f8281526020019081526020015f205f9054906101000a900460ff1615611350576040517f08c379a000000000000000000000000000000000000000000000000000000000815260040161134790615118565b60405180910390fd5b6113586134df565b5f60095f3373ffffffffffffffffffffffffffffffffffffffff1673ffffffffffffffffffffffffffffffffffffffff1681526020019081526020015f205490505f60085f8381526020019081526020015f2090505f89896040516113be929190615164565b6040518091039020905080826002018190555087878360030191826113e4929190615380565b5042826001015f6101000a81548167ffffffffffffffff021916908367ffffffffffffffff16021790555080833373ffffffffffffffffffffffffffffffffffffffff167f8280fd7bbdeb2364e894d403db429c0fb8e57a385d0f2ec1f7926acf3284772642604051611457919061518b565b60405180910390a4823373ffffffffffffffffffffffffffffffffffffffff167feea13ec8b49fb404f99b1bf8fd2589a5b2fcc7eb6d17e9a0768d55148a807157426040516114a6919061518b565b60405180910390a35050506114b9613525565b50505050505050565b5f600b5f8381526020019081526020015f205f9054906101000a900460ff169050919050565b6114f06137e2565b80600f90816114ff91906154a5565b5050565b33600a5f8273ffffffffffffffffffffffffffffffffffffffff1673ffffffffffffffffffffffffffffffffffffffff1681526020019081526020015f205f9054906101000a900460ff1661158d576040517f08c379a000000000000000000000000000000000000000000000000000000000815260040161158490615048565b60405180910390fd5b8073ffffffffffffffffffffffffffffffffffffffff163373ffffffffffffffffffffffffffffffffffffffff16146115fb576040517f08c379a00000000000000000000000000000000000000000000000000000000081526004016115f2906150b0565b60405180910390fd5b6116036134df565b61160e33600161352f565b611616613525565b50565b6116216134df565b6116296120fd565b73ffffffffffffffffffffffffffffffffffffffff163373ffffffffffffffffffffffffffffffffffffffff1614806116ae5750600e5f9054906101000a900473ffffffffffffffffffffffffffffffffffffffff1673ffffffffffffffffffffffffffffffffffffffff163373ffffffffffffffffffffffffffffffffffffffff16145b6116ed576040517f08c379a00000000000000000000000000000000000000000000000000000000081526004016116e4906155be565b60405180910390fd5b5f73ffffffffffffffffffffffffffffffffffffffff168373ffffffffffffffffffffffffffffffffffffffff160361175b576040517f08c379a000000000000000000000000000000000000000000000000000000000815260040161175290615626565b60405180910390fd5b5f73ffffffffffffffffffffffffffffffffffffffff168273ffffffffffffffffffffffffffffffffffffffff16036117c9576040517f08c379a00000000000000000000000000000000000000000000000000000000081526004016117c090615626565b60405180910390fd5b8173ffffffffffffffffffffffffffffffffffffffff168373ffffffffffffffffffffffffffffffffffffffff1603611837576040517f08c379a000000000000000000000000000000000000000000000000000000000815260040161182e9061568e565b60405180910390fd5b600a5f8473ffffffffffffffffffffffffffffffffffffffff1673ffffffffffffffffffffffffffffffffffffffff1681526020019081526020015f205f9054906101000a900460ff166118c0576040517f08c379a00000000000000000000000000000000000000000000000000000000081526004016118b790615048565b60405180910390fd5b600a5f8373ffffffffffffffffffffffffffffffffffffffff1673ffffffffffffffffffffffffffffffffffffffff1681526020019081526020015f205f9054906101000a900460ff161561194a576040517f08c379a0000000000000000000000000000000000000000000000000000000008152600401611941906156f6565b60405180910390fd5b5f60095f8573ffffffffffffffffffffffffffffffffffffffff1673ffffffffffffffffffffffffffffffffffffffff1681526020019081526020015f20549050600b5f8281526020019081526020015f205f9054906101000a900460ff16156119e9576040517f08c379a00000000000000000000000000000000000000000000000000000000081526004016119e090615118565b60405180910390fd5b6001600b5f8381526020019081526020015f205f6101000a81548160ff0219169083151502179055506001600c5f8673ffffffffffffffffffffffffffffffffffffffff1673ffffffffffffffffffffffffffffffffffffffff1681526020019081526020015f205f6101000a81548160ff021916908315150217905550600d5f815480929190611a7990615741565b91905055505f600d5490505f60085f8481526020019081526020015f206040518060a00160405290815f82015f9054906101000a900473ffffffffffffffffffffffffffffffffffffffff1673ffffffffffffffffffffffffffffffffffffffff1673ffffffffffffffffffffffffffffffffffffffff1681526020015f820160149054906101000a900467ffffffffffffffff1667ffffffffffffffff1667ffffffffffffffff168152602001600182015f9054906101000a900467ffffffffffffffff1667ffffffffffffffff1667ffffffffffffffff16815260200160028201548152602001600382018054611b7190614f66565b80601f0160208091040260200160405190810160405280929190818152602001828054611b9d90614f66565b8015611be85780601f10611bbf57610100808354040283529160200191611be8565b820191905f5260205f20905b815481529060010190602001808311611bcb57829003601f168201915b50505050508152505090505f6040518060a001604052808773ffffffffffffffffffffffffffffffffffffffff1681526020014267ffffffffffffffff1681526020014267ffffffffffffffff16815260200186611c4a578360600151611c4e565b5f801b5b815260200186611c62578360800151611c72565b60405180602001604052805f8152505b81525090508060085f8581526020019081526020015f205f820151815f015f6101000a81548173ffffffffffffffffffffffffffffffffffffffff021916908373ffffffffffffffffffffffffffffffffffffffff1602179055506020820151815f0160146101000a81548167ffffffffffffffff021916908367ffffffffffffffff1602179055506040820151816001015f6101000a81548167ffffffffffffffff021916908367ffffffffffffffff160217905550606082015181600201556080820151816003019081611d489190615788565b509050508260095f8873ffffffffffffffffffffffffffffffffffffffff1673ffffffffffffffffffffffffffffffffffffffff1681526020019081526020015f20819055506001600a5f8873ffffffffffffffffffffffffffffffffffffffff1673ffffffffffffffffffffffffffffffffffffffff1681526020019081526020015f205f6101000a81548160ff021916908315150217905550611ded8684613869565b838773ffffffffffffffffffffffffffffffffffffffff167fe8ccf73831b7f096110633fc510fb0d4e739d5df4da47cb20fdbcd06711dd6f542604051611e34919061518b565b60405180910390a3828673ffffffffffffffffffffffffffffffffffffffff167ffd0c93be4723cb4c74010465b445d5f99eef0354f49ee7c247fa9ef9093aa8ed42604051611e83919061518b565b60405180910390a3828673ffffffffffffffffffffffffffffffffffffffff168873ffffffffffffffffffffffffffffffffffffffff167f38f96748528ae3c7b2848a2bbd3e1f25ec23d6b0b0205522893a20c45bb4aaed42604051611ee9919061518b565b60405180910390a450505050611efd613525565b505050565b5f611f0c82613420565b9050919050565b600e5f9054906101000a900473ffffffffffffffffffffffffffffffffffffffff1681565b5f8073ffffffffffffffffffffffffffffffffffffffff168273ffffffffffffffffffffffffffffffffffffffff1603611fa9575f6040517f89c62b64000000000000000000000000000000000000000000000000000000008152600401611fa091906146df565b60405180910390fd5b60035f8373ffffffffffffffffffffffffffffffffffffffff1673ffffffffffffffffffffffffffffffffffffffff1681526020019081526020015f20549050919050565b611ff66137e2565b611fff5f613886565b565b6120096137e2565b5f73ffffffffffffffffffffffffffffffffffffffff168173ffffffffffffffffffffffffffffffffffffffff1603612077576040517f08c379a000000000000000000000000000000000000000000000000000000000815260040161206e90615626565b60405180910390fd5b80600e5f6101000a81548173ffffffffffffffffffffffffffffffffffffffff021916908373ffffffffffffffffffffffffffffffffffffffff1602179055508073ffffffffffffffffffffffffffffffffffffffff167fbf1b7f0ea3d9f70f4a9732008adf3ed3aacaa8e1d290ace363b8a009a0d9c09e60405160405180910390a250565b5f60065f9054906101000a900473ffffffffffffffffffffffffffffffffffffffff16905090565b60606001805461213490614f66565b80601f016020809104026020016040519081016040528092919081815260200182805461216090614f66565b80156121ab5780601f10612182576101008083540402835291602001916121ab565b820191905f5260205f20905b81548152906001019060200180831161218e57829003601f168201915b5050505050905090565b6060600a5f8373ffffffffffffffffffffffffffffffffffffffff1673ffffffffffffffffffffffffffffffffffffffff1681526020019081526020015f205f9054906101000a900460ff16612240576040517f08c379a000000000000000000000000000000000000000000000000000000000815260040161223790615048565b60405180910390fd5b5f60095f8473ffffffffffffffffffffffffffffffffffffffff1673ffffffffffffffffffffffffffffffffffffffff1681526020019081526020015f2054905060085f8281526020019081526020015f2060030180546122a090614f66565b80601f01602080910402602001604051908101604052809291908181526020018280546122cc90614f66565b80156123175780601f106122ee57610100808354040283529160200191612317565b820191905f5260205f20905b8154815290600101906020018083116122fa57829003601f168201915b5050505050915050919050565b6040517f08c379a000000000000000000000000000000000000000000000000000000000815260040161235690614fe0565b60405180910390fd5b61236a848484611011565b61237e612375613711565b85858585613949565b50505050565b5f61238d6134df565b600e60149054906101000a900460ff166123dc576040517f08c379a00000000000000000000000000000000000000000000000000000000081526004016123d3906158a1565b60405180910390fd5b600a5f3373ffffffffffffffffffffffffffffffffffffffff1673ffffffffffffffffffffffffffffffffffffffff1681526020019081526020015f205f9054906101000a900460ff1615612466576040517f08c379a000000000000000000000000000000000000000000000000000000000815260040161245d906156f6565b60405180910390fd5b600d5f81548092919061247890615741565b91905055505f600d5490505f6040518060a001604052803373ffffffffffffffffffffffffffffffffffffffff1681526020014267ffffffffffffffff1681526020014267ffffffffffffffff1681526020015f801b815260200160405180602001604052805f81525081525090508060085f8481526020019081526020015f205f820151815f015f6101000a81548173ffffffffffffffffffffffffffffffffffffffff021916908373ffffffffffffffffffffffffffffffffffffffff1602179055506020820151815f0160146101000a81548167ffffffffffffffff021916908367ffffffffffffffff1602179055506040820151816001015f6101000a81548167ffffffffffffffff021916908367ffffffffffffffff1602179055506060820151816002015560808201518160030190816125b89190615788565b509050508160095f3373ffffffffffffffffffffffffffffffffffffffff1673ffffffffffffffffffffffffffffffffffffffff1681526020019081526020015f20819055506001600a5f3373ffffffffffffffffffffffffffffffffffffffff1673ffffffffffffffffffffffffffffffffffffffff1681526020019081526020015f205f6101000a81548160ff02191690831515021790555061265d3383613869565b813373ffffffffffffffffffffffffffffffffffffffff167ffd0c93be4723cb4c74010465b445d5f99eef0354f49ee7c247fa9ef9093aa8ed426040516126a4919061518b565b60405180910390a381925050506126b9613525565b90565b5f600a5f8373ffffffffffffffffffffffffffffffffffffffff1673ffffffffffffffffffffffffffffffffffffffff1681526020019081526020015f205f9054906101000a900460ff169050919050565b600e60149054906101000a900460ff1681565b606061272c82613420565b505f612736613af5565b90505f8151116127545760405180602001604052805f81525061277f565b8061275e84613b85565b60405160200161276f9291906158f9565b6040516020818303038152906040525b915050919050565b33600a5f8273ffffffffffffffffffffffffffffffffffffffff1673ffffffffffffffffffffffffffffffffffffffff1681526020019081526020015f205f9054906101000a900460ff16612811576040517f08c379a000000000000000000000000000000000000000000000000000000000815260040161280890615048565b60405180910390fd5b8073ffffffffffffffffffffffffffffffffffffffff163373ffffffffffffffffffffffffffffffffffffffff161461287f576040517f08c379a0000000000000000000000000000000000000000000000000000000008152600401612876906150b0565b60405180910390fd5b33600a5f8273ffffffffffffffffffffffffffffffffffffffff1673ffffffffffffffffffffffffffffffffffffffff1681526020019081526020015f205f9054906101000a900460ff16612909576040517f08c379a000000000000000000000000000000000000000000000000000000000815260040161290090615048565b60405180910390fd5b5f60095f8373ffffffffffffffffffffffffffffffffffffffff1673ffffffffffffffffffffffffffffffffffffffff1681526020019081526020015f20549050600b5f8281526020019081526020015f205f9054906101000a900460ff16156129a8576040517f08c379a000000000000000000000000000000000000000000000000000000000815260040161299f90615118565b60405180910390fd5b6129b06134df565b5f60095f3373ffffffffffffffffffffffffffffffffffffffff1673ffffffffffffffffffffffffffffffffffffffff1681526020019081526020015f205490505f60085f8381526020019081526020015f2090508686826003019182612a18929190615380565b5042816001015f6101000a81548167ffffffffffffffff021916908367ffffffffffffffff160217905550813373ffffffffffffffffffffffffffffffffffffffff167feea13ec8b49fb404f99b1bf8fd2589a5b2fcc7eb6d17e9a0768d55148a80715742604051612a8a919061518b565b60405180910390a35050612a9c613525565b5050505050565b5f600a5f8373ffffffffffffffffffffffffffffffffffffffff1673ffffffffffffffffffffffffffffffffffffffff1681526020019081526020015f205f9054906101000a900460ff16612afa575f9050612b5d565b5f60095f8473ffffffffffffffffffffffffffffffffffffffff1673ffffffffffffffffffffffffffffffffffffffff1681526020019081526020015f20549050600b5f8281526020019081526020015f205f9054906101000a900460ff169150505b919050565b5f600e5f9054906101000a900473ffffffffffffffffffffffffffffffffffffffff1673ffffffffffffffffffffffffffffffffffffffff163373ffffffffffffffffffffffffffffffffffffffff161480612bca5750600e60149054906101000a900460ff165b80612c075750612bd86120fd565b73ffffffffffffffffffffffffffffffffffffffff163373ffffffffffffffffffffffffffffffffffffffff16145b612c46576040517f08c379a0000000000000000000000000000000000000000000000000000000008152600401612c3d906155be565b60405180910390fd5b612c4e6134df565b600a5f8373ffffffffffffffffffffffffffffffffffffffff1673ffffffffffffffffffffffffffffffffffffffff1681526020019081526020015f205f9054906101000a900460ff1615612cd8576040517f08c379a0000000000000000000000000000000000000000000000000000000008152600401612ccf906156f6565b60405180910390fd5b5f73ffffffffffffffffffffffffffffffffffffffff168273ffffffffffffffffffffffffffffffffffffffff1603612d46576040517f08c379a0000000000000000000000000000000000000000000000000000000008152600401612d3d90615626565b60405180910390fd5b600d5f815480929190612d5890615741565b91905055505f600d5490505f6040518060a001604052808573ffffffffffffffffffffffffffffffffffffffff1681526020014267ffffffffffffffff1681526020014267ffffffffffffffff1681526020015f801b815260200160405180602001604052805f81525081525090508060085f8481526020019081526020015f205f820151815f015f6101000a81548173ffffffffffffffffffffffffffffffffffffffff021916908373ffffffffffffffffffffffffffffffffffffffff1602179055506020820151815f0160146101000a81548167ffffffffffffffff021916908367ffffffffffffffff1602179055506040820151816001015f6101000a81548167ffffffffffffffff021916908367ffffffffffffffff160217905550606082015181600201556080820151816003019081612e989190615788565b509050508160095f8673ffffffffffffffffffffffffffffffffffffffff1673ffffffffffffffffffffffffffffffffffffffff1681526020019081526020015f20819055506001600a5f8673ffffffffffffffffffffffffffffffffffffffff1673ffffffffffffffffffffffffffffffffffffffff1681526020019081526020015f205f6101000a81548160ff021916908315150217905550612f3d8483613869565b818473ffffffffffffffffffffffffffffffffffffffff167ffd0c93be4723cb4c74010465b445d5f99eef0354f49ee7c247fa9ef9093aa8ed42604051612f84919061518b565b60405180910390a38192505050612f99613525565b919050565b5f60055f8473ffffffffffffffffffffffffffffffffffffffff1673ffffffffffffffffffffffffffffffffffffffff1681526020019081526020015f205f8373ffffffffffffffffffffffffffffffffffffffff1673ffffffffffffffffffffffffffffffffffffffff1681526020019081526020015f205f9054906101000a900460ff16905092915050565b61303461447c565b61303d82613c4f565b61307c576040517f08c379a000000000000000000000000000000000000000000000000000000000815260040161307390615966565b60405180910390fd5b60085f8381526020019081526020015f206040518060a00160405290815f82015f9054906101000a900473ffffffffffffffffffffffffffffffffffffffff1673ffffffffffffffffffffffffffffffffffffffff1673ffffffffffffffffffffffffffffffffffffffff1681526020015f820160149054906101000a900467ffffffffffffffff1667ffffffffffffffff1667ffffffffffffffff168152602001600182015f9054906101000a900467ffffffffffffffff1667ffffffffffffffff1667ffffffffffffffff1681526020016002820154815260200160038201805461316890614f66565b80601f016020809104026020016040519081016040528092919081815260200182805461319490614f66565b80156131df5780601f106131b6576101008083540402835291602001916131df565b820191905f5260205f20905b8154815290600101906020018083116131c257829003601f168201915b5050505050815250509050919050565b6131f76137e2565b5f73ffffffffffffffffffffffffffffffffffffffff168173ffffffffffffffffffffffffffffffffffffffff1603613267575f6040517f1e4fbdf700000000000000000000000000000000000000000000000000000000815260040161325e91906146df565b60405180910390fd5b61327081613886565b50565b61327b6137e2565b80600e60146101000a81548160ff0219169083151502179055507fc977af333cf8813c2d0975c679d4face4e304c8f859030b4379c4b21c84963a2816040516132c4919061457f565b60405180910390a150565b5f600a5f8373ffffffffffffffffffffffffffffffffffffffff1673ffffffffffffffffffffffffffffffffffffffff1681526020019081526020015f205f9054906101000a900460ff16613359576040517f08c379a000000000000000000000000000000000000000000000000000000000815260040161335090615048565b60405180910390fd5b5f60095f8473ffffffffffffffffffffffffffffffffffffffff1673ffffffffffffffffffffffffffffffffffffffff1681526020019081526020015f2054905060085f8281526020019081526020015f2060020154915050919050565b5f7f01ffc9a7000000000000000000000000000000000000000000000000000000007bffffffffffffffffffffffffffffffffffffffffffffffffffffffff1916827bffffffffffffffffffffffffffffffffffffffffffffffffffffffff1916149050919050565b5f8061342b83613c8f565b90505f73ffffffffffffffffffffffffffffffffffffffff168173ffffffffffffffffffffffffffffffffffffffff160361349d57826040517f7e2732890000000000000000000000000000000000000000000000000000000081526004016134949190614974565b60405180910390fd5b80915050919050565b5f60045f8381526020019081526020015f205f9054906101000a900473ffffffffffffffffffffffffffffffffffffffff169050919050565b60026007540361351b576040517f3ee5aeb500000000000000000000000000000000000000000000000000000000815260040160405180910390fd5b6002600781905550565b6001600781905550565b5f60095f8473ffffffffffffffffffffffffffffffffffffffff1673ffffffffffffffffffffffffffffffffffffffff1681526020019081526020015f20549050600b5f8281526020019081526020015f205f9054906101000a900460ff16156135ce576040517f08c379a00000000000000000000000000000000000000000000000000000000081526004016135c590615118565b60405180910390fd5b6001600b5f8381526020019081526020015f205f6101000a81548160ff0219169083151502179055506001600c5f8573ffffffffffffffffffffffffffffffffffffffff1673ffffffffffffffffffffffffffffffffffffffff1681526020019081526020015f205f6101000a81548160ff02191690831515021790555081156136bd575f60085f8381526020019081526020015f2090505f801b816002018190555060405180602001604052805f8152508160030190816136909190615788565b5042816001015f6101000a81548167ffffffffffffffff021916908367ffffffffffffffff160217905550505b808373ffffffffffffffffffffffffffffffffffffffff167fe8ccf73831b7f096110633fc510fb0d4e739d5df4da47cb20fdbcd06711dd6f542604051613704919061518b565b60405180910390a3505050565b5f33905090565b5f8061372384613c8f565b90505f73ffffffffffffffffffffffffffffffffffffffff168173ffffffffffffffffffffffffffffffffffffffff161415801561378d57505f73ffffffffffffffffffffffffffffffffffffffff168573ffffffffffffffffffffffffffffffffffffffff1614155b156137cd576040517f08c379a00000000000000000000000000000000000000000000000000000000081526004016137c490614fe0565b60405180910390fd5b6137d8858585613cc8565b9150509392505050565b6137ea613711565b73ffffffffffffffffffffffffffffffffffffffff166138086120fd565b73ffffffffffffffffffffffffffffffffffffffff16146138675761382b613711565b6040517f118cdaa700000000000000000000000000000000000000000000000000000000815260040161385e91906146df565b60405180910390fd5b565b613882828260405180602001604052805f815250613ed3565b5050565b5f60065f9054906101000a900473ffffffffffffffffffffffffffffffffffffffff1690508160065f6101000a81548173ffffffffffffffffffffffffffffffffffffffff021916908373ffffffffffffffffffffffffffffffffffffffff1602179055508173ffffffffffffffffffffffffffffffffffffffff168173ffffffffffffffffffffffffffffffffffffffff167f8be0079c531659141344cd1fd0a4f28419497f9722a3daafe3b4186f6b6457e060405160405180910390a35050565b5f8373ffffffffffffffffffffffffffffffffffffffff163b1115613aee578273ffffffffffffffffffffffffffffffffffffffff1663150b7a02868685856040518563ffffffff1660e01b81526004016139a79493929190615984565b6020604051808303815f875af19250505080156139e257506040513d601f19601f820116820180604052508101906139df91906159e2565b60015b613a63573d805f8114613a10576040519150601f19603f3d011682016040523d82523d5f602084013e613a15565b606091505b505f815103613a5b57836040517f64a0ae92000000000000000000000000000000000000000000000000000000008152600401613a5291906146df565b60405180910390fd5b805160208201fd5b63150b7a0260e01b7bffffffffffffffffffffffffffffffffffffffffffffffffffffffff1916817bffffffffffffffffffffffffffffffffffffffffffffffffffffffff191614613aec57836040517f64a0ae92000000000000000000000000000000000000000000000000000000008152600401613ae391906146df565b60405180910390fd5b505b5050505050565b6060600f8054613b0490614f66565b80601f0160208091040260200160405190810160405280929190818152602001828054613b3090614f66565b8015613b7b5780601f10613b5257610100808354040283529160200191613b7b565b820191905f5260205f20905b815481529060010190602001808311613b5e57829003601f168201915b5050505050905090565b60605f6001613b9384613ef6565b0190505f8167ffffffffffffffff811115613bb157613bb0614b09565b5b6040519080825280601f01601f191660200182016040528015613be35781602001600182028036833780820191505090505b5090505f82602083010190505b600115613c44578080600190039150507f3031323334353637383961626364656600000000000000000000000000000000600a86061a8153600a8581613c3957613c38615a0d565b5b0494505f8503613bf0575b819350505050919050565b5f8073ffffffffffffffffffffffffffffffffffffffff16613c7083613c8f565b73ffffffffffffffffffffffffffffffffffffffff1614159050919050565b5f60025f8381526020019081526020015f205f9054906101000a900473ffffffffffffffffffffffffffffffffffffffff169050919050565b5f80613cd384613c8f565b90505f73ffffffffffffffffffffffffffffffffffffffff168373ffffffffffffffffffffffffffffffffffffffff1614613d1457613d13818486614047565b5b5f73ffffffffffffffffffffffffffffffffffffffff168173ffffffffffffffffffffffffffffffffffffffff1614613d9f57613d535f855f8061410a565b600160035f8373ffffffffffffffffffffffffffffffffffffffff1673ffffffffffffffffffffffffffffffffffffffff1681526020019081526020015f205f82825403925050819055505b5f73ffffffffffffffffffffffffffffffffffffffff168573ffffffffffffffffffffffffffffffffffffffff1614613e1e57600160035f8773ffffffffffffffffffffffffffffffffffffffff1673ffffffffffffffffffffffffffffffffffffffff1681526020019081526020015f205f82825401925050819055505b8460025f8681526020019081526020015f205f6101000a81548173ffffffffffffffffffffffffffffffffffffffff021916908373ffffffffffffffffffffffffffffffffffffffff160217905550838573ffffffffffffffffffffffffffffffffffffffff168273ffffffffffffffffffffffffffffffffffffffff167fddf252ad1be2c89b69c2b068fc378daa952ba7f163c4a11628f55a4df523b3ef60405160405180910390a4809150509392505050565b613edd83836142c9565b613ef1613ee8613711565b5f858585613949565b505050565b5f805f90507a184f03e93ff9f4daa797ed6e38ed64bf6a1f0100000000000000008310613f52577a184f03e93ff9f4daa797ed6e38ed64bf6a1f0100000000000000008381613f4857613f47615a0d565b5b0492506040810190505b6d04ee2d6d415b85acef81000000008310613f8f576d04ee2d6d415b85acef81000000008381613f8557613f84615a0d565b5b0492506020810190505b662386f26fc100008310613fbe57662386f26fc100008381613fb457613fb3615a0d565b5b0492506010810190505b6305f5e1008310613fe7576305f5e1008381613fdd57613fdc615a0d565b5b0492506008810190505b612710831061400c57612710838161400257614001615a0d565b5b0492506004810190505b6064831061402f576064838161402557614024615a0d565b5b0492506002810190505b600a831061403e576001810190505b80915050919050565b6140528383836143bc565b614105575f73ffffffffffffffffffffffffffffffffffffffff168373ffffffffffffffffffffffffffffffffffffffff16036140c657806040517f7e2732890000000000000000000000000000000000000000000000000000000081526004016140bd9190614974565b60405180910390fd5b81816040517f177e802f0000000000000000000000000000000000000000000000000000000081526004016140fc929190615a3a565b60405180910390fd5b505050565b808061414257505f73ffffffffffffffffffffffffffffffffffffffff168273ffffffffffffffffffffffffffffffffffffffff1614155b15614274575f61415184613420565b90505f73ffffffffffffffffffffffffffffffffffffffff168373ffffffffffffffffffffffffffffffffffffffff16141580156141bb57508273ffffffffffffffffffffffffffffffffffffffff168173ffffffffffffffffffffffffffffffffffffffff1614155b80156141ce57506141cc8184612f9e565b155b1561421057826040517fa9fbf51f00000000000000000000000000000000000000000000000000000000815260040161420791906146df565b60405180910390fd5b811561427257838573ffffffffffffffffffffffffffffffffffffffff168273ffffffffffffffffffffffffffffffffffffffff167f8c5be1e5ebec7d5bd14f71427d1e84f3dd0314c0f7b2291e5b200ac8c7c3b92560405160405180910390a45b505b8360045f8581526020019081526020015f205f6101000a81548173ffffffffffffffffffffffffffffffffffffffff021916908373ffffffffffffffffffffffffffffffffffffffff16021790555050505050565b5f73ffffffffffffffffffffffffffffffffffffffff168273ffffffffffffffffffffffffffffffffffffffff1603614339575f6040517f64a0ae9200000000000000000000000000000000000000000000000000000000815260040161433091906146df565b60405180910390fd5b5f61434583835f613718565b90505f73ffffffffffffffffffffffffffffffffffffffff168173ffffffffffffffffffffffffffffffffffffffff16146143b7575f6040517f73c6ac6e0000000000000000000000000000000000000000000000000000000081526004016143ae91906146df565b60405180910390fd5b505050565b5f8073ffffffffffffffffffffffffffffffffffffffff168373ffffffffffffffffffffffffffffffffffffffff161415801561447357508273ffffffffffffffffffffffffffffffffffffffff168473ffffffffffffffffffffffffffffffffffffffff16148061443457506144338484612f9e565b5b8061447257508273ffffffffffffffffffffffffffffffffffffffff1661445a836134a6565b73ffffffffffffffffffffffffffffffffffffffff16145b5b90509392505050565b6040518060a001604052805f73ffffffffffffffffffffffffffffffffffffffff1681526020015f67ffffffffffffffff1681526020015f67ffffffffffffffff1681526020015f8019168152602001606081525090565b5f604051905090565b5f80fd5b5f80fd5b5f7fffffffff0000000000000000000000000000000000000000000000000000000082169050919050565b614519816144e5565b8114614523575f80fd5b50565b5f8135905061453481614510565b92915050565b5f6020828403121561454f5761454e6144dd565b5b5f61455c84828501614526565b91505092915050565b5f8115159050919050565b61457981614565565b82525050565b5f6020820190506145925f830184614570565b92915050565b5f81519050919050565b5f82825260208201905092915050565b5f5b838110156145cf5780820151818401526020810190506145b4565b5f8484015250505050565b5f601f19601f8301169050919050565b5f6145f482614598565b6145fe81856145a2565b935061460e8185602086016145b2565b614617816145da565b840191505092915050565b5f6020820190508181035f83015261463a81846145ea565b905092915050565b5f819050919050565b61465481614642565b811461465e575f80fd5b50565b5f8135905061466f8161464b565b92915050565b5f6020828403121561468a576146896144dd565b5b5f61469784828501614661565b91505092915050565b5f73ffffffffffffffffffffffffffffffffffffffff82169050919050565b5f6146c9826146a0565b9050919050565b6146d9816146bf565b82525050565b5f6020820190506146f25f8301846146d0565b92915050565b614701816146bf565b811461470b575f80fd5b50565b5f8135905061471c816146f8565b92915050565b5f8060408385031215614738576147376144dd565b5b5f6147458582860161470e565b925050602061475685828601614661565b9150509250929050565b5f60208284031215614775576147746144dd565b5b5f6147828482850161470e565b91505092915050565b614794816146bf565b82525050565b5f67ffffffffffffffff82169050919050565b6147b68161479a565b82525050565b5f819050919050565b6147ce816147bc565b82525050565b5f81519050919050565b5f82825260208201905092915050565b5f6147f8826147d4565b61480281856147de565b93506148128185602086016145b2565b61481b816145da565b840191505092915050565b5f60a083015f83015161483b5f86018261478b565b50602083015161484e60208601826147ad565b50604083015161486160408601826147ad565b50606083015161487460608601826147c5565b506080830151848203608086015261488c82826147ee565b9150508091505092915050565b5f6020820190508181035f8301526148b18184614826565b905092915050565b5f80fd5b5f80fd5b5f80fd5b5f8083601f8401126148da576148d96148b9565b5b8235905067ffffffffffffffff8111156148f7576148f66148bd565b5b602083019150836001820283011115614913576149126148c1565b5b9250929050565b5f80602083850312156149305761492f6144dd565b5b5f83013567ffffffffffffffff81111561494d5761494c6144e1565b5b614959858286016148c5565b92509250509250929050565b61496e81614642565b82525050565b5f6020820190506149875f830184614965565b92915050565b61499681614565565b81146149a0575f80fd5b50565b5f813590506149b18161498d565b92915050565b5f602082840312156149cc576149cb6144dd565b5b5f6149d9848285016149a3565b91505092915050565b5f805f606084860312156149f9576149f86144dd565b5b5f614a068682870161470e565b9350506020614a178682870161470e565b9250506040614a2886828701614661565b9150509250925092565b5f8083601f840112614a4757614a466148b9565b5b8235905067ffffffffffffffff811115614a6457614a636148bd565b5b602083019150836001820283011115614a8057614a7f6148c1565b5b9250929050565b5f805f8060408587031215614a9f57614a9e6144dd565b5b5f85013567ffffffffffffffff811115614abc57614abb6144e1565b5b614ac8878288016148c5565b9450945050602085013567ffffffffffffffff811115614aeb57614aea6144e1565b5b614af787828801614a32565b925092505092959194509250565b5f80fd5b7f4e487b71000000000000000000000000000000000000000000000000000000005f52604160045260245ffd5b614b3f826145da565b810181811067ffffffffffffffff82111715614b5e57614b5d614b09565b5b80604052505050565b5f614b706144d4565b9050614b7c8282614b36565b919050565b5f67ffffffffffffffff821115614b9b57614b9a614b09565b5b614ba4826145da565b9050602081019050919050565b828183375f83830152505050565b5f614bd1614bcc84614b81565b614b67565b905082815260208101848484011115614bed57614bec614b05565b5b614bf8848285614bb1565b509392505050565b5f82601f830112614c1457614c136148b9565b5b8135614c24848260208601614bbf565b91505092915050565b5f60208284031215614c4257614c416144dd565b5b5f82013567ffffffffffffffff811115614c5f57614c5e6144e1565b5b614c6b84828501614c00565b91505092915050565b5f805f60608486031215614c8b57614c8a6144dd565b5b5f614c988682870161470e565b9350506020614ca98682870161470e565b9250506040614cba868287016149a3565b9150509250925092565b5f82825260208201905092915050565b5f614cde826147d4565b614ce88185614cc4565b9350614cf88185602086016145b2565b614d01816145da565b840191505092915050565b5f6020820190508181035f830152614d248184614cd4565b905092915050565b5f8060408385031215614d4257614d416144dd565b5b5f614d4f8582860161470e565b9250506020614d60858286016149a3565b9150509250929050565b5f67ffffffffffffffff821115614d8457614d83614b09565b5b614d8d826145da565b9050602081019050919050565b5f614dac614da784614d6a565b614b67565b905082815260208101848484011115614dc857614dc7614b05565b5b614dd3848285614bb1565b509392505050565b5f82601f830112614def57614dee6148b9565b5b8135614dff848260208601614d9a565b91505092915050565b5f805f8060808587031215614e2057614e1f6144dd565b5b5f614e2d8782880161470e565b9450506020614e3e8782880161470e565b9350506040614e4f87828801614661565b925050606085013567ffffffffffffffff811115614e7057614e6f6144e1565b5b614e7c87828801614ddb565b91505092959194509250565b5f8060208385031215614e9e57614e9d6144dd565b5b5f83013567ffffffffffffffff811115614ebb57614eba6144e1565b5b614ec785828601614a32565b92509250509250929050565b5f8060408385031215614ee957614ee86144dd565b5b5f614ef68582860161470e565b9250506020614f078582860161470e565b9150509250929050565b614f1a816147bc565b82525050565b5f602082019050614f335f830184614f11565b92915050565b7f4e487b71000000000000000000000000000000000000000000000000000000005f52602260045260245ffd5b5f6002820490506001821680614f7d57607f821691505b602082108103614f9057614f8f614f39565b5b50919050565b7f536f756c626f756e6400000000000000000000000000000000000000000000005f82015250565b5f614fca6009836145a2565b9150614fd582614f96565b602082019050919050565b5f6020820190508181035f830152614ff781614fbe565b9050919050565b7f4e6f2044494400000000000000000000000000000000000000000000000000005f82015250565b5f6150326006836145a2565b915061503d82614ffe565b602082019050919050565b5f6020820190508181035f83015261505f81615026565b9050919050565b7f4e6f74206f776e657200000000000000000000000000000000000000000000005f82015250565b5f61509a6009836145a2565b91506150a582615066565b602082019050919050565b5f6020820190508181035f8301526150c78161508e565b9050919050565b7f5265766f6b6564000000000000000000000000000000000000000000000000005f82015250565b5f6151026007836145a2565b915061510d826150ce565b602082019050919050565b5f6020820190508181035f83015261512f816150f6565b9050919050565b5f81905092915050565b5f61514b8385615136565b9350615158838584614bb1565b82840190509392505050565b5f615170828486615140565b91508190509392505050565b6151858161479a565b82525050565b5f60208201905061519e5f83018461517c565b92915050565b5f6060820190506151b75f8301866146d0565b6151c46020830185614965565b6151d160408301846146d0565b949350505050565b5f82905092915050565b5f819050815f5260205f209050919050565b5f6020601f8301049050919050565b5f82821b905092915050565b5f6008830261523f7fffffffffffffffffffffffffffffffffffffffffffffffffffffffffffffffff82615204565b6152498683615204565b95508019841693508086168417925050509392505050565b5f819050919050565b5f61528461527f61527a84614642565b615261565b614642565b9050919050565b5f819050919050565b61529d8361526a565b6152b16152a98261528b565b848454615210565b825550505050565b5f90565b6152c56152b9565b6152d0818484615294565b505050565b5b818110156152f3576152e85f826152bd565b6001810190506152d6565b5050565b601f82111561533857615309816151e3565b615312846151f5565b81016020851015615321578190505b61533561532d856151f5565b8301826152d5565b50505b505050565b5f82821c905092915050565b5f6153585f198460080261533d565b1980831691505092915050565b5f6153708383615349565b9150826002028217905092915050565b61538a83836151d9565b67ffffffffffffffff8111156153a3576153a2614b09565b5b6153ad8254614f66565b6153b88282856152f7565b5f601f8311600181146153e5575f84156153d3578287013590505b6153dd8582615365565b865550615444565b601f1984166153f3866151e3565b5f5b8281101561541a578489013582556001820191506020850194506020810190506153f5565b868310156154375784890135615433601f891682615349565b8355505b6001600288020188555050505b50505050505050565b5f819050815f5260205f209050919050565b601f8211156154a0576154718161544d565b61547a846151f5565b81016020851015615489578190505b61549d615495856151f5565b8301826152d5565b50505b505050565b6154ae82614598565b67ffffffffffffffff8111156154c7576154c6614b09565b5b6154d18254614f66565b6154dc82828561545f565b5f60209050601f83116001811461550d575f84156154fb578287015190505b6155058582615365565b86555061556c565b601f19841661551b8661544d565b5f5b828110156155425784890151825560018201915060208501945060208101905061551d565b8683101561555f578489015161555b601f891682615349565b8355505b6001600288020188555050505b505050505050565b7f4e6f7420617574686f72697a65640000000000000000000000000000000000005f82015250565b5f6155a8600e836145a2565b91506155b382615574565b602082019050919050565b5f6020820190508181035f8301526155d58161559c565b9050919050565b7f5a65726f206164647200000000000000000000000000000000000000000000005f82015250565b5f6156106009836145a2565b915061561b826155dc565b602082019050919050565b5f6020820190508181035f83015261563d81615604565b9050919050565b7f53616d652077616c6c65740000000000000000000000000000000000000000005f82015250565b5f615678600b836145a2565b915061568382615644565b602082019050919050565b5f6020820190508181035f8301526156a58161566c565b9050919050565b7f48617320444944000000000000000000000000000000000000000000000000005f82015250565b5f6156e06007836145a2565b91506156eb826156ac565b602082019050919050565b5f6020820190508181035f83015261570d816156d4565b9050919050565b7f4e487b71000000000000000000000000000000000000000000000000000000005f52601160045260245ffd5b5f61574b82614642565b91507fffffffffffffffffffffffffffffffffffffffffffffffffffffffffffffffff820361577d5761577c615714565b5b600182019050919050565b615791826147d4565b67ffffffffffffffff8111156157aa576157a9614b09565b5b6157b48254614f66565b6157bf8282856152f7565b5f60209050601f8311600181146157f0575f84156157de578287015190505b6157e88582615365565b86555061584f565b601f1984166157fe866151e3565b5f5b8281101561582557848901518255600182019150602085019450602081019050615800565b86831015615842578489015161583e601f891682615349565b8355505b6001600288020188555050505b505050505050565b7f4e6f207075626c6963206d696e740000000000000000000000000000000000005f82015250565b5f61588b600e836145a2565b915061589682615857565b602082019050919050565b5f6020820190508181035f8301526158b88161587f565b9050919050565b5f81905092915050565b5f6158d382614598565b6158dd81856158bf565b93506158ed8185602086016145b2565b80840191505092915050565b5f61590482856158c9565b915061591082846158c9565b91508190509392505050565b7f4e6f20746f6b656e0000000000000000000000000000000000000000000000005f82015250565b5f6159506008836145a2565b915061595b8261591c565b602082019050919050565b5f6020820190508181035f83015261597d81615944565b9050919050565b5f6080820190506159975f8301876146d0565b6159a460208301866146d0565b6159b16040830185614965565b81810360608301526159c38184614cd4565b905095945050505050565b5f815190506159dc81614510565b92915050565b5f602082840312156159f7576159f66144dd565b5b5f615a04848285016159ce565b91505092915050565b7f4e487b71000000000000000000000000000000000000000000000000000000005f52601260045260245ffd5b5f604082019050615a4d5f8301856146d0565b615a5a6020830184614965565b939250505056fea26469706673582212209a525d230518c86b8b95bbdfc842f60bd8aa75ab42e6c1a61e93d2092d5e078364736f6c63430008140033', \n     arguments: [\n          name,\n          symbol,\n          baseURI,\n          _backendSigner,\n          _allowPublicMinting,\n     ]\n}).send({\n     from: web3.eth.accounts[0], \n     gas: '4700000'\n   }, function (e, contract){\n    console.log(e, contract);\n    if (typeof contract.address !== 'undefined') {\n         console.log('Contract mined! address: ' + contract.address + ' transactionHash: ' + contract.transactionHash);\n    }\n })",
	"functionHashes": {
		"13036808": "updateChatDataReference(string)",
		"c5762ef7": "allowPublicMinting()",
		"095ea7b3": "approve(address,uint256)",
		"65d65e86": "backendSigner()",
		"70a08231": "balanceOf(address)",
		"e2a0e9f2": "createDid(address)",
		"c048bc13": "createMyDid()",
		"081812fc": "getApproved(uint256)",
		"ff6a0bff": "getChatDataReference(address)",
		"1d638f8c": "getDidId(address)",
		"998dfbb2": "getEncryptedKeyMetadata(address)",
		"f08f4f64": "getProfile(uint256)",
		"0fa12160": "getProfileByOwner(address)",
		"c3135e1a": "hasDid(address)",
		"e985e9c5": "isApprovedForAll(address,address)",
		"e16c0652": "isRevoked(address)",
		"522bec8d": "isRevokedById(uint256)",
		"62ec9354": "migrateDid(address,address,bool)",
		"06fdde03": "name()",
		"8da5cb5b": "owner()",
		"6352211e": "ownerOf(uint256)",
		"715018a6": "renounceOwnership()",
		"5f13e97c": "revokeDid()",
		"1830f737": "revokeDid(bool)",
		"42842e0e": "safeTransferFrom(address,address,uint256)",
		"b88d4fde": "safeTransferFrom(address,address,uint256,bytes)",
		"fa528649": "setAllowPublicMinting(bool)",
		"a22cb465": "setApprovalForAll(address,bool)",
		"55f804b3": "setBaseURI(string)",
		"01ffc9a7": "supportsInterface(bytes4)",
		"95d89b41": "symbol()",
		"c87b56dd": "tokenURI(uint256)",
		"18160ddd": "totalSupply()",
		"23b872dd": "transferFrom(address,address,uint256)",
		"f2fde38b": "transferOwnership(address)",
		"898cdb86": "updateBackendSigner(address)",
		"43e91f48": "updateChatReference(string,bytes)",
		"dc390450": "updateEncryptedKeyMetadata(bytes)"
	},
	"gasEstimates": {
		"Creation": {
			"codeDepositCost": "4638200",
			"executionCost": "infinite",
			"totalCost": "infinite"
		},
		"External": {
			"allowPublicMinting()": "2562",
			"approve(address,uint256)": "1014",
			"backendSigner()": "2619",
			"balanceOf(address)": "infinite",
			"createDid(address)": "infinite",
			"createMyDid()": "infinite",
			"getApproved(uint256)": "infinite",
			"getChatDataReference(address)": "7395",
			"getDidId(address)": "2963",
			"getEncryptedKeyMetadata(address)": "infinite",
			"getProfile(uint256)": "infinite",
			"getProfileByOwner(address)": "infinite",
			"hasDid(address)": "3003",
			"isApprovedForAll(address,address)": "infinite",
			"isRevoked(address)": "7410",
			"isRevokedById(uint256)": "2922",
			"migrateDid(address,address,bool)": "infinite",
			"name()": "infinite",
			"owner()": "2605",
			"ownerOf(uint256)": "infinite",
			"renounceOwnership()": "infinite",
			"revokeDid()": "infinite",
			"revokeDid(bool)": "infinite",
			"safeTransferFrom(address,address,uint256)": "infinite",
			"safeTransferFrom(address,address,uint256,bytes)": "infinite",
			"setAllowPublicMinting(bool)": "infinite",
			"setApprovalForAll(address,bool)": "974",
			"setBaseURI(string)": "infinite",
			"supportsInterface(bytes4)": "810",
			"symbol()": "infinite",
			"tokenURI(uint256)": "infinite",
			"totalSupply()": "2522",
			"transferFrom(address,address,uint256)": "infinite",
			"transferOwnership(address)": "infinite",
			"updateBackendSigner(address)": "infinite",
			"updateChatDataReference(string)": "infinite",
			"updateChatReference(string,bytes)": "infinite",
			"updateEncryptedKeyMetadata(bytes)": "infinite"
		},
		"Internal": {
			"_baseURI()": "infinite",
			"_exists(uint256)": "2307",
			"_revokeDidInternal(address,bool)": "infinite",
			"_update(address,uint256,address)": "infinite"
		}
	},
	"devdoc": {
		"details": "Soulbound ERC-721 token for SafePsy DID identities",
		"errors": {
			"ERC721IncorrectOwner(address,uint256,address)": [
				{
					"details": "Indicates an error related to the ownership over a particular token. Used in transfers.",
					"params": {
						"owner": "Address of the current owner of a token.",
						"sender": "Address whose tokens are being transferred.",
						"tokenId": "Identifier number of a token."
					}
				}
			],
			"ERC721InsufficientApproval(address,uint256)": [
				{
					"details": "Indicates a failure with the `operator`’s approval. Used in transfers.",
					"params": {
						"operator": "Address that may be allowed to operate on tokens without being their owner.",
						"tokenId": "Identifier number of a token."
					}
				}
			],
			"ERC721InvalidApprover(address)": [
				{
					"details": "Indicates a failure with the `approver` of a token to be approved. Used in approvals.",
					"params": {
						"approver": "Address initiating an approval operation."
					}
				}
			],
			"ERC721InvalidOperator(address)": [
				{
					"details": "Indicates a failure with the `operator` to be approved. Used in approvals.",
					"params": {
						"operator": "Address that may be allowed to operate on tokens without being their owner."
					}
				}
			],
			"ERC721InvalidOwner(address)": [
				{
					"details": "Indicates that an address can't be an owner. For example, `address(0)` is a forbidden owner in ERC-20. Used in balance queries.",
					"params": {
						"owner": "Address of the current owner of a token."
					}
				}
			],
			"ERC721InvalidReceiver(address)": [
				{
					"details": "Indicates a failure with the token `receiver`. Used in transfers.",
					"params": {
						"receiver": "Address to which tokens are being transferred."
					}
				}
			],
			"ERC721InvalidSender(address)": [
				{
					"details": "Indicates a failure with the token `sender`. Used in transfers.",
					"params": {
						"sender": "Address whose tokens are being transferred."
					}
				}
			],
			"ERC721NonexistentToken(uint256)": [
				{
					"details": "Indicates a `tokenId` whose `owner` is the zero address.",
					"params": {
						"tokenId": "Identifier number of a token."
					}
				}
			],
			"OwnableInvalidOwner(address)": [
				{
					"details": "The owner is not a valid owner account. (eg. `address(0)`)"
				}
			],
			"OwnableUnauthorizedAccount(address)": [
				{
					"details": "The caller account is not authorized to perform an operation."
				}
			],
			"ReentrancyGuardReentrantCall()": [
				{
					"details": "Unauthorized reentrant call."
				}
			]
		},
		"events": {
			"Approval(address,address,uint256)": {
				"details": "Emitted when `owner` enables `approved` to manage the `tokenId` token."
			},
			"ApprovalForAll(address,address,bool)": {
				"details": "Emitted when `owner` enables or disables (`approved`) `operator` to manage all of its assets."
			},
			"BackendSignerUpdated(address)": {
				"details": "Emitted when backend signer is updated"
			},
			"DidChatReferenceUpdated(address,uint256,bytes32,uint64)": {
				"details": "Emitted when chat data reference is updated"
			},
			"DidCreated(address,uint256,uint64)": {
				"details": "Emitted when a DID is created"
			},
			"DidKeyMetadataUpdated(address,uint256,uint64)": {
				"details": "Emitted when encrypted key metadata is updated"
			},
			"DidMigrated(address,address,uint256,uint64)": {
				"details": "Emitted when a DID is migrated to a new wallet"
			},
			"DidRevoked(address,uint256,uint64)": {
				"details": "Emitted when a DID is revoked"
			},
			"PublicMintingToggled(bool)": {
				"details": "Emitted when public minting is toggled"
			},
			"Transfer(address,address,uint256)": {
				"details": "Emitted when `tokenId` token is transferred from `from` to `to`."
			}
		},
		"kind": "dev",
		"methods": {
			"approve(address,uint256)": {
				"details": "Override approve to prevent approvals (token is non-transferable)"
			},
			"balanceOf(address)": {
				"details": "Returns the number of tokens in ``owner``'s account."
			},
			"constructor": {
				"details": "Constructor",
				"params": {
					"_allowPublicMinting": "Whether to allow public minting",
					"_backendSigner": "Address of backend signer (can be zero address)",
					"baseURI": "Base URI for token metadata",
					"name": "Token name (e.g., \"SafePsy DID Identity\")",
					"symbol": "Token symbol (e.g., \"SAFEPSY-DID\")"
				}
			},
			"createDid(address)": {
				"details": "Create a DID for a user (backend signer or owner only, or public if enabled)",
				"params": {
					"user": "The wallet address to create DID for"
				},
				"returns": {
					"_0": "tokenId The created token ID"
				}
			},
			"createMyDid()": {
				"details": "Create a DID for the caller (public minting)",
				"returns": {
					"_0": "tokenId The created token ID"
				}
			},
			"getApproved(uint256)": {
				"details": "Returns the account approved for `tokenId` token. Requirements: - `tokenId` must exist."
			},
			"getChatDataReference(address)": {
				"details": "Get chat data reference for a wallet",
				"params": {
					"user": "The wallet address"
				},
				"returns": {
					"_0": "The chat data reference (bytes32)"
				}
			},
			"getDidId(address)": {
				"details": "Get token ID for a wallet address",
				"params": {
					"user": "The wallet address"
				},
				"returns": {
					"_0": "tokenId The token ID (0 if no DID)"
				}
			},
			"getEncryptedKeyMetadata(address)": {
				"details": "Get encrypted key metadata for a wallet",
				"params": {
					"user": "The wallet address"
				},
				"returns": {
					"_0": "The encrypted key metadata (bytes)"
				}
			},
			"getProfile(uint256)": {
				"details": "Get profile by token ID",
				"params": {
					"tokenId": "The token ID"
				},
				"returns": {
					"_0": "profile The DidProfile struct"
				}
			},
			"getProfileByOwner(address)": {
				"details": "Get profile by owner address (efficient lookup)",
				"params": {
					"user": "The wallet address"
				},
				"returns": {
					"_0": "profile The DidProfile struct"
				}
			},
			"hasDid(address)": {
				"details": "Check if a wallet has a DID",
				"params": {
					"user": "The wallet address"
				},
				"returns": {
					"_0": "Whether the wallet has a DID"
				}
			},
			"isApprovedForAll(address,address)": {
				"details": "Returns if the `operator` is allowed to manage all of the assets of `owner`. See {setApprovalForAll}"
			},
			"isRevoked(address)": {
				"details": "Check if a DID is revoked",
				"params": {
					"user": "The wallet address"
				},
				"returns": {
					"_0": "Whether the DID is revoked"
				}
			},
			"isRevokedById(uint256)": {
				"details": "Check if a DID is revoked by token ID",
				"params": {
					"tokenId": "The token ID"
				},
				"returns": {
					"_0": "Whether the DID is revoked"
				}
			},
			"migrateDid(address,address,bool)": {
				"details": "Migrate DID from old wallet to new wallet (admin/backend only)",
				"params": {
					"clearChatReference": "Whether to clear chat reference during migration",
					"newWallet": "The new wallet address",
					"oldWallet": "The old wallet address"
				}
			},
			"name()": {
				"details": "Returns the token collection name."
			},
			"owner()": {
				"details": "Returns the address of the current owner."
			},
			"ownerOf(uint256)": {
				"details": "Returns the owner of the `tokenId` token. Requirements: - `tokenId` must exist."
			},
			"renounceOwnership()": {
				"details": "Leaves the contract without owner. It will not be possible to call `onlyOwner` functions. Can only be called by the current owner. NOTE: Renouncing ownership will leave the contract without an owner, thereby disabling any functionality that is only available to the owner."
			},
			"revokeDid()": {
				"details": "Revoke a DID (convenience function, clears chat reference by default)"
			},
			"revokeDid(bool)": {
				"details": "Revoke a DID (mark as revoked, optionally clear chat reference)",
				"params": {
					"clearChatReference": "Whether to clear the chat data reference"
				}
			},
			"safeTransferFrom(address,address,uint256)": {
				"details": "Safely transfers `tokenId` token from `from` to `to`, checking first that contract recipients are aware of the ERC-721 protocol to prevent tokens from being forever locked. Requirements: - `from` cannot be the zero address. - `to` cannot be the zero address. - `tokenId` token must exist and be owned by `from`. - If the caller is not `from`, it must have been allowed to move this token by either {approve} or   {setApprovalForAll}. - If `to` refers to a smart contract, it must implement {IERC721Receiver-onERC721Received}, which is called upon   a safe transfer. Emits a {Transfer} event."
			},
			"safeTransferFrom(address,address,uint256,bytes)": {
				"details": "Safely transfers `tokenId` token from `from` to `to`. Requirements: - `from` cannot be the zero address. - `to` cannot be the zero address. - `tokenId` token must exist and be owned by `from`. - If the caller is not `from`, it must be approved to move this token by either {approve} or {setApprovalForAll}. - If `to` refers to a smart contract, it must implement {IERC721Receiver-onERC721Received}, which is called upon   a safe transfer. Emits a {Transfer} event."
			},
			"setAllowPublicMinting(bool)": {
				"details": "Toggle public minting (only owner)",
				"params": {
					"_allow": "Whether to allow public minting"
				}
			},
			"setApprovalForAll(address,bool)": {
				"details": "Override setApprovalForAll to prevent approvals (token is non-transferable)"
			},
			"setBaseURI(string)": {
				"details": "Set base URI (only owner)",
				"params": {
					"baseURI": "New base URI"
				}
			},
			"supportsInterface(bytes4)": {
				"details": "Returns true if this contract implements the interface defined by `interfaceId`. See the corresponding https://eips.ethereum.org/EIPS/eip-165#how-interfaces-are-identified[ERC section] to learn more about how these ids are created. This function call must use less than 30 000 gas."
			},
			"symbol()": {
				"details": "Returns the token collection symbol."
			},
			"tokenURI(uint256)": {
				"details": "Returns the Uniform Resource Identifier (URI) for `tokenId` token."
			},
			"totalSupply()": {
				"details": "Get total number of DIDs created",
				"returns": {
					"_0": "The total count"
				}
			},
			"transferFrom(address,address,uint256)": {
				"details": "Transfers `tokenId` token from `from` to `to`. WARNING: Note that the caller is responsible to confirm that the recipient is capable of receiving ERC-721 or else they may be permanently lost. Usage of {safeTransferFrom} prevents loss, though the caller must understand this adds an external call which potentially creates a reentrancy vulnerability. Requirements: - `from` cannot be the zero address. - `to` cannot be the zero address. - `tokenId` token must be owned by `from`. - If the caller is not `from`, it must be approved to move this token by either {approve} or {setApprovalForAll}. Emits a {Transfer} event."
			},
			"transferOwnership(address)": {
				"details": "Transfers ownership of the contract to a new account (`newOwner`). Can only be called by the current owner."
			},
			"updateBackendSigner(address)": {
				"details": "Update backend signer (only owner)",
				"params": {
					"newSigner": "New backend signer address"
				}
			},
			"updateChatDataReference(string)": {
				"details": "Update only chat data reference (preserve encrypted key)",
				"params": {
					"newRef": "New chat data reference"
				}
			},
			"updateChatReference(string,bytes)": {
				"details": "Update chat data reference and encrypted key metadata",
				"params": {
					"newEncryptedKeyMetadata": "New encrypted key metadata",
					"newRef": "New chat data reference (hash/CID/DB key)"
				}
			},
			"updateEncryptedKeyMetadata(bytes)": {
				"details": "Update only encrypted key metadata (preserve chat reference)",
				"params": {
					"newEncryptedKeyMetadata": "New encrypted key metadata"
				}
			}
		},
		"title": "DIDIdentityToken",
		"version": 1
	},
	"userdoc": {
		"kind": "user",
		"methods": {
			"approve(address,uint256)": {
				"notice": "This function always reverts to prevent approvals"
			},
			"migrateDid(address,address,bool)": {
				"notice": "This is a support-driven process for wallet migrationOnly callable by contract owner or backend signerOld wallet's DID is revoked, new wallet gets a new DID"
			},
			"revokeDid()": {
				"notice": "Only callable by DID owner"
			},
			"revokeDid(bool)": {
				"notice": "Only callable by DID ownerRevoked DIDs cannot be updated, but token remains in existence"
			},
			"setApprovalForAll(address,bool)": {
				"notice": "This function always reverts to prevent approvals"
			},
			"updateChatDataReference(string)": {
				"notice": "Only callable by DID owner, and DID must not be revoked"
			},
			"updateChatReference(string,bytes)": {
				"notice": "Only callable by DID owner, and DID must not be revoked"
			},
			"updateEncryptedKeyMetadata(bytes)": {
				"notice": "Only callable by DID owner, and DID must not be revoked"
			}
		},
		"notice": "Each wallet can have exactly one non-transferable identity token  Storage Model: - tokenId → DidProfile mapping - owner → tokenId mapping (for efficient lookup)  Gas Considerations: - Using uint64 for timestamps saves gas vs uint256 - bytes32 for chatDataReference is more gas-efficient than string - Single storage slot for DidProfile (packed struct) - Events are indexed for efficient filtering  Upgradeability: - Contract uses UUPS-compatible storage layout - Storage variables are grouped for proxy compatibility - Consider using UUPS proxy pattern for future upgrades",
		"version": 1
	},
	"Runtime Bytecode": {
		"immutableReferences": {},
		"linkReferences": {},
		"object": "608060405234801561000f575f80fd5b5060043610610230575f3560e01c8063715018a61161012e578063c5762ef7116100b6578063e985e9c51161007a578063e985e9c5146106aa578063f08f4f64146106da578063f2fde38b1461070a578063fa52864914610726578063ff6a0bff1461074257610230565b8063c5762ef7146105e0578063c87b56dd146105fe578063dc3904501461062e578063e16c06521461064a578063e2a0e9f21461067a57610230565b8063998dfbb2116100fd578063998dfbb21461052a578063a22cb4651461055a578063b88d4fde14610576578063c048bc1314610592578063c3135e1a146105b057610230565b8063715018a6146104c8578063898cdb86146104d25780638da5cb5b146104ee57806395d89b411461050c57610230565b806323b872dd116101bc5780635f13e97c116101805780635f13e97c1461042457806362ec93541461042e5780636352211e1461044a57806365d65e861461047a57806370a082311461049857610230565b806323b872dd1461038457806342842e0e146103a057806343e91f48146103bc578063522bec8d146103d857806355f804b31461040857610230565b80630fa12160116102035780630fa12160146102ce57806313036808146102fe57806318160ddd1461031a5780631830f737146103385780631d638f8c1461035457610230565b806301ffc9a71461023457806306fdde0314610264578063081812fc14610282578063095ea7b3146102b2575b5f80fd5b61024e6004803603810190610249919061453a565b610772565b60405161025b919061457f565b60405180910390f35b61026c610853565b6040516102799190614622565b60405180910390f35b61029c60048036038101906102979190614675565b6108e2565b6040516102a991906146df565b60405180910390f35b6102cc60048036038101906102c79190614722565b6108fd565b005b6102e860048036038101906102e39190614760565b610938565b6040516102f59190614899565b60405180910390f35b6103186004803603810190610313919061491a565b610b7e565b005b610322610eac565b60405161032f9190614974565b60405180910390f35b610352600480360381019061034d91906149b7565b610eb5565b005b61036e60048036038101906103699190614760565b610fcb565b60405161037b9190614974565b60405180910390f35b61039e600480360381019061039991906149e2565b611011565b005b6103ba60048036038101906103b591906149e2565b611110565b005b6103d660048036038101906103d19190614a87565b61112f565b005b6103f260048036038101906103ed9190614675565b6114c2565b6040516103ff919061457f565b60405180910390f35b610422600480360381019061041d9190614c2d565b6114e8565b005b61042c611503565b005b61044860048036038101906104439190614c74565b611619565b005b610464600480360381019061045f9190614675565b611f02565b60405161047191906146df565b60405180910390f35b610482611f13565b60405161048f91906146df565b60405180910390f35b6104b260048036038101906104ad9190614760565b611f38565b6040516104bf9190614974565b60405180910390f35b6104d0611fee565b005b6104ec60048036038101906104e79190614760565b612001565b005b6104f66120fd565b60405161050391906146df565b60405180910390f35b610514612125565b6040516105219190614622565b60405180910390f35b610544600480360381019061053f9190614760565b6121b5565b6040516105519190614d0c565b60405180910390f35b610574600480360381019061056f9190614d2c565b612324565b005b610590600480360381019061058b9190614e08565b61235f565b005b61059a612384565b6040516105a79190614974565b60405180910390f35b6105ca60048036038101906105c59190614760565b6126bc565b6040516105d7919061457f565b60405180910390f35b6105e861270e565b6040516105f5919061457f565b60405180910390f35b61061860048036038101906106139190614675565b612721565b6040516106259190614622565b60405180910390f35b61064860048036038101906106439190614e88565b612787565b005b610664600480360381019061065f9190614760565b612aa3565b604051610671919061457f565b60405180910390f35b610694600480360381019061068f9190614760565b612b62565b6040516106a19190614974565b60405180910390f35b6106c460048036038101906106bf9190614ed3565b612f9e565b6040516106d1919061457f565b60405180910390f35b6106f460048036038101906106ef9190614675565b61302c565b6040516107019190614899565b60405180910390f35b610724600480360381019061071f9190614760565b6131ef565b005b610740600480360381019061073b91906149b7565b613273565b005b61075c60048036038101906107579190614760565b6132cf565b6040516107699190614f20565b60405180910390f35b5f7f80ac58cd000000000000000000000000000000000000000000000000000000007bffffffffffffffffffffffffffffffffffffffffffffffffffffffff1916827bffffffffffffffffffffffffffffffffffffffffffffffffffffffff1916148061083c57507f5b5e139f000000000000000000000000000000000000000000000000000000007bffffffffffffffffffffffffffffffffffffffffffffffffffffffff1916827bffffffffffffffffffffffffffffffffffffffffffffffffffffffff1916145b8061084c575061084b826133b7565b5b9050919050565b60605f805461086190614f66565b80601f016020809104026020016040519081016040528092919081815260200182805461088d90614f66565b80156108d85780601f106108af576101008083540402835291602001916108d8565b820191905f5260205f20905b8154815290600101906020018083116108bb57829003601f168201915b5050505050905090565b5f6108ec82613420565b506108f6826134a6565b9050919050565b6040517f08c379a000000000000000000000000000000000000000000000000000000000815260040161092f90614fe0565b60405180910390fd5b61094061447c565b600a5f8373ffffffffffffffffffffffffffffffffffffffff1673ffffffffffffffffffffffffffffffffffffffff1681526020019081526020015f205f9054906101000a900460ff166109c9576040517f08c379a00000000000000000000000000000000000000000000000000000000081526004016109c090615048565b60405180910390fd5b5f60095f8473ffffffffffffffffffffffffffffffffffffffff1673ffffffffffffffffffffffffffffffffffffffff1681526020019081526020015f2054905060085f8281526020019081526020015f206040518060a00160405290815f82015f9054906101000a900473ffffffffffffffffffffffffffffffffffffffff1673ffffffffffffffffffffffffffffffffffffffff1673ffffffffffffffffffffffffffffffffffffffff1681526020015f820160149054906101000a900467ffffffffffffffff1667ffffffffffffffff1667ffffffffffffffff168152602001600182015f9054906101000a900467ffffffffffffffff1667ffffffffffffffff1667ffffffffffffffff16815260200160028201548152602001600382018054610af690614f66565b80601f0160208091040260200160405190810160405280929190818152602001828054610b2290614f66565b8015610b6d5780601f10610b4457610100808354040283529160200191610b6d565b820191905f5260205f20905b815481529060010190602001808311610b5057829003601f168201915b505050505081525050915050919050565b33600a5f8273ffffffffffffffffffffffffffffffffffffffff1673ffffffffffffffffffffffffffffffffffffffff1681526020019081526020015f205f9054906101000a900460ff16610c08576040517f08c379a0000000000000000000000000000000000000000000000000000000008152600401610bff90615048565b60405180910390fd5b8073ffffffffffffffffffffffffffffffffffffffff163373ffffffffffffffffffffffffffffffffffffffff1614610c76576040517f08c379a0000000000000000000000000000000000000000000000000000000008152600401610c6d906150b0565b60405180910390fd5b33600a5f8273ffffffffffffffffffffffffffffffffffffffff1673ffffffffffffffffffffffffffffffffffffffff1681526020019081526020015f205f9054906101000a900460ff16610d00576040517f08c379a0000000000000000000000000000000000000000000000000000000008152600401610cf790615048565b60405180910390fd5b5f60095f8373ffffffffffffffffffffffffffffffffffffffff1673ffffffffffffffffffffffffffffffffffffffff1681526020019081526020015f20549050600b5f8281526020019081526020015f205f9054906101000a900460ff1615610d9f576040517f08c379a0000000000000000000000000000000000000000000000000000000008152600401610d9690615118565b60405180910390fd5b610da76134df565b5f60095f3373ffffffffffffffffffffffffffffffffffffffff1673ffffffffffffffffffffffffffffffffffffffff1681526020019081526020015f205490505f60085f8381526020019081526020015f2090505f8787604051610e0d929190615164565b6040518091039020905080826002018190555042826001015f6101000a81548167ffffffffffffffff021916908367ffffffffffffffff16021790555080833373ffffffffffffffffffffffffffffffffffffffff167f8280fd7bbdeb2364e894d403db429c0fb8e57a385d0f2ec1f7926acf3284772642604051610e92919061518b565b60405180910390a4505050610ea5613525565b5050505050565b5f600d54905090565b33600a5f8273ffffffffffffffffffffffffffffffffffffffff1673ffffffffffffffffffffffffffffffffffffffff1681526020019081526020015f205f9054906101000a900460ff16610f3f576040517f08c379a0000000000000000000000000000000000000000000000000000000008152600401610f3690615048565b60405180910390fd5b8073ffffffffffffffffffffffffffffffffffffffff163373ffffffffffffffffffffffffffffffffffffffff1614610fad576040517f08c379a0000000000000000000000000000000000000000000000000000000008152600401610fa4906150b0565b60405180910390fd5b610fb56134df565b610fbf338361352f565b610fc7613525565b5050565b5f60095f8373ffffffffffffffffffffffffffffffffffffffff1673ffffffffffffffffffffffffffffffffffffffff1681526020019081526020015f20549050919050565b5f73ffffffffffffffffffffffffffffffffffffffff168273ffffffffffffffffffffffffffffffffffffffff1603611081575f6040517f64a0ae9200000000000000000000000000000000000000000000000000000000815260040161107891906146df565b60405180910390fd5b5f611094838361108f613711565b613718565b90508373ffffffffffffffffffffffffffffffffffffffff168173ffffffffffffffffffffffffffffffffffffffff161461110a578382826040517f64283d7b000000000000000000000000000000000000000000000000000000008152600401611101939291906151a4565b60405180910390fd5b50505050565b61112a83838360405180602001604052805f81525061235f565b505050565b33600a5f8273ffffffffffffffffffffffffffffffffffffffff1673ffffffffffffffffffffffffffffffffffffffff1681526020019081526020015f205f9054906101000a900460ff166111b9576040517f08c379a00000000000000000000000000000000000000000000000000000000081526004016111b090615048565b60405180910390fd5b8073ffffffffffffffffffffffffffffffffffffffff163373ffffffffffffffffffffffffffffffffffffffff1614611227576040517f08c379a000000000000000000000000000000000000000000000000000000000815260040161121e906150b0565b60405180910390fd5b33600a5f8273ffffffffffffffffffffffffffffffffffffffff1673ffffffffffffffffffffffffffffffffffffffff1681526020019081526020015f205f9054906101000a900460ff166112b1576040517f08c379a00000000000000000000000000000000000000000000000000000000081526004016112a890615048565b60405180910390fd5b5f60095f8373ffffffffffffffffffffffffffffffffffffffff1673ffffffffffffffffffffffffffffffffffffffff1681526020019081526020015f20549050600b5f8281526020019081526020015f205f9054906101000a900460ff1615611350576040517f08c379a000000000000000000000000000000000000000000000000000000000815260040161134790615118565b60405180910390fd5b6113586134df565b5f60095f3373ffffffffffffffffffffffffffffffffffffffff1673ffffffffffffffffffffffffffffffffffffffff1681526020019081526020015f205490505f60085f8381526020019081526020015f2090505f89896040516113be929190615164565b6040518091039020905080826002018190555087878360030191826113e4929190615380565b5042826001015f6101000a81548167ffffffffffffffff021916908367ffffffffffffffff16021790555080833373ffffffffffffffffffffffffffffffffffffffff167f8280fd7bbdeb2364e894d403db429c0fb8e57a385d0f2ec1f7926acf3284772642604051611457919061518b565b60405180910390a4823373ffffffffffffffffffffffffffffffffffffffff167feea13ec8b49fb404f99b1bf8fd2589a5b2fcc7eb6d17e9a0768d55148a807157426040516114a6919061518b565b60405180910390a35050506114b9613525565b50505050505050565b5f600b5f8381526020019081526020015f205f9054906101000a900460ff169050919050565b6114f06137e2565b80600f90816114ff91906154a5565b5050565b33600a5f8273ffffffffffffffffffffffffffffffffffffffff1673ffffffffffffffffffffffffffffffffffffffff1681526020019081526020015f205f9054906101000a900460ff1661158d576040517f08c379a000000000000000000000000000000000000000000000000000000000815260040161158490615048565b60405180910390fd5b8073ffffffffffffffffffffffffffffffffffffffff163373ffffffffffffffffffffffffffffffffffffffff16146115fb576040517f08c379a00000000000000000000000000000000000000000000000000000000081526004016115f2906150b0565b60405180910390fd5b6116036134df565b61160e33600161352f565b611616613525565b50565b6116216134df565b6116296120fd565b73ffffffffffffffffffffffffffffffffffffffff163373ffffffffffffffffffffffffffffffffffffffff1614806116ae5750600e5f9054906101000a900473ffffffffffffffffffffffffffffffffffffffff1673ffffffffffffffffffffffffffffffffffffffff163373ffffffffffffffffffffffffffffffffffffffff16145b6116ed576040517f08c379a00000000000000000000000000000000000000000000000000000000081526004016116e4906155be565b60405180910390fd5b5f73ffffffffffffffffffffffffffffffffffffffff168373ffffffffffffffffffffffffffffffffffffffff160361175b576040517f08c379a000000000000000000000000000000000000000000000000000000000815260040161175290615626565b60405180910390fd5b5f73ffffffffffffffffffffffffffffffffffffffff168273ffffffffffffffffffffffffffffffffffffffff16036117c9576040517f08c379a00000000000000000000000000000000000000000000000000000000081526004016117c090615626565b60405180910390fd5b8173ffffffffffffffffffffffffffffffffffffffff168373ffffffffffffffffffffffffffffffffffffffff1603611837576040517f08c379a000000000000000000000000000000000000000000000000000000000815260040161182e9061568e565b60405180910390fd5b600a5f8473ffffffffffffffffffffffffffffffffffffffff1673ffffffffffffffffffffffffffffffffffffffff1681526020019081526020015f205f9054906101000a900460ff166118c0576040517f08c379a00000000000000000000000000000000000000000000000000000000081526004016118b790615048565b60405180910390fd5b600a5f8373ffffffffffffffffffffffffffffffffffffffff1673ffffffffffffffffffffffffffffffffffffffff1681526020019081526020015f205f9054906101000a900460ff161561194a576040517f08c379a0000000000000000000000000000000000000000000000000000000008152600401611941906156f6565b60405180910390fd5b5f60095f8573ffffffffffffffffffffffffffffffffffffffff1673ffffffffffffffffffffffffffffffffffffffff1681526020019081526020015f20549050600b5f8281526020019081526020015f205f9054906101000a900460ff16156119e9576040517f08c379a00000000000000000000000000000000000000000000000000000000081526004016119e090615118565b60405180910390fd5b6001600b5f8381526020019081526020015f205f6101000a81548160ff0219169083151502179055506001600c5f8673ffffffffffffffffffffffffffffffffffffffff1673ffffffffffffffffffffffffffffffffffffffff1681526020019081526020015f205f6101000a81548160ff021916908315150217905550600d5f815480929190611a7990615741565b91905055505f600d5490505f60085f8481526020019081526020015f206040518060a00160405290815f82015f9054906101000a900473ffffffffffffffffffffffffffffffffffffffff1673ffffffffffffffffffffffffffffffffffffffff1673ffffffffffffffffffffffffffffffffffffffff1681526020015f820160149054906101000a900467ffffffffffffffff1667ffffffffffffffff1667ffffffffffffffff168152602001600182015f9054906101000a900467ffffffffffffffff1667ffffffffffffffff1667ffffffffffffffff16815260200160028201548152602001600382018054611b7190614f66565b80601f0160208091040260200160405190810160405280929190818152602001828054611b9d90614f66565b8015611be85780601f10611bbf57610100808354040283529160200191611be8565b820191905f5260205f20905b815481529060010190602001808311611bcb57829003601f168201915b50505050508152505090505f6040518060a001604052808773ffffffffffffffffffffffffffffffffffffffff1681526020014267ffffffffffffffff1681526020014267ffffffffffffffff16815260200186611c4a578360600151611c4e565b5f801b5b815260200186611c62578360800151611c72565b60405180602001604052805f8152505b81525090508060085f8581526020019081526020015f205f820151815f015f6101000a81548173ffffffffffffffffffffffffffffffffffffffff021916908373ffffffffffffffffffffffffffffffffffffffff1602179055506020820151815f0160146101000a81548167ffffffffffffffff021916908367ffffffffffffffff1602179055506040820151816001015f6101000a81548167ffffffffffffffff021916908367ffffffffffffffff160217905550606082015181600201556080820151816003019081611d489190615788565b509050508260095f8873ffffffffffffffffffffffffffffffffffffffff1673ffffffffffffffffffffffffffffffffffffffff1681526020019081526020015f20819055506001600a5f8873ffffffffffffffffffffffffffffffffffffffff1673ffffffffffffffffffffffffffffffffffffffff1681526020019081526020015f205f6101000a81548160ff021916908315150217905550611ded8684613869565b838773ffffffffffffffffffffffffffffffffffffffff167fe8ccf73831b7f096110633fc510fb0d4e739d5df4da47cb20fdbcd06711dd6f542604051611e34919061518b565b60405180910390a3828673ffffffffffffffffffffffffffffffffffffffff167ffd0c93be4723cb4c74010465b445d5f99eef0354f49ee7c247fa9ef9093aa8ed42604051611e83919061518b565b60405180910390a3828673ffffffffffffffffffffffffffffffffffffffff168873ffffffffffffffffffffffffffffffffffffffff167f38f96748528ae3c7b2848a2bbd3e1f25ec23d6b0b0205522893a20c45bb4aaed42604051611ee9919061518b565b60405180910390a450505050611efd613525565b505050565b5f611f0c82613420565b9050919050565b600e5f9054906101000a900473ffffffffffffffffffffffffffffffffffffffff1681565b5f8073ffffffffffffffffffffffffffffffffffffffff168273ffffffffffffffffffffffffffffffffffffffff1603611fa9575f6040517f89c62b64000000000000000000000000000000000000000000000000000000008152600401611fa091906146df565b60405180910390fd5b60035f8373ffffffffffffffffffffffffffffffffffffffff1673ffffffffffffffffffffffffffffffffffffffff1681526020019081526020015f20549050919050565b611ff66137e2565b611fff5f613886565b565b6120096137e2565b5f73ffffffffffffffffffffffffffffffffffffffff168173ffffffffffffffffffffffffffffffffffffffff1603612077576040517f08c379a000000000000000000000000000000000000000000000000000000000815260040161206e90615626565b60405180910390fd5b80600e5f6101000a81548173ffffffffffffffffffffffffffffffffffffffff021916908373ffffffffffffffffffffffffffffffffffffffff1602179055508073ffffffffffffffffffffffffffffffffffffffff167fbf1b7f0ea3d9f70f4a9732008adf3ed3aacaa8e1d290ace363b8a009a0d9c09e60405160405180910390a250565b5f60065f9054906101000a900473ffffffffffffffffffffffffffffffffffffffff16905090565b60606001805461213490614f66565b80601f016020809104026020016040519081016040528092919081815260200182805461216090614f66565b80156121ab5780601f10612182576101008083540402835291602001916121ab565b820191905f5260205f20905b81548152906001019060200180831161218e57829003601f168201915b5050505050905090565b6060600a5f8373ffffffffffffffffffffffffffffffffffffffff1673ffffffffffffffffffffffffffffffffffffffff1681526020019081526020015f205f9054906101000a900460ff16612240576040517f08c379a000000000000000000000000000000000000000000000000000000000815260040161223790615048565b60405180910390fd5b5f60095f8473ffffffffffffffffffffffffffffffffffffffff1673ffffffffffffffffffffffffffffffffffffffff1681526020019081526020015f2054905060085f8281526020019081526020015f2060030180546122a090614f66565b80601f01602080910402602001604051908101604052809291908181526020018280546122cc90614f66565b80156123175780601f106122ee57610100808354040283529160200191612317565b820191905f5260205f20905b8154815290600101906020018083116122fa57829003601f168201915b5050505050915050919050565b6040517f08c379a000000000000000000000000000000000000000000000000000000000815260040161235690614fe0565b60405180910390fd5b61236a848484611011565b61237e612375613711565b85858585613949565b50505050565b5f61238d6134df565b600e60149054906101000a900460ff166123dc576040517f08c379a00000000000000000000000000000000000000000000000000000000081526004016123d3906158a1565b60405180910390fd5b600a5f3373ffffffffffffffffffffffffffffffffffffffff1673ffffffffffffffffffffffffffffffffffffffff1681526020019081526020015f205f9054906101000a900460ff1615612466576040517f08c379a000000000000000000000000000000000000000000000000000000000815260040161245d906156f6565b60405180910390fd5b600d5f81548092919061247890615741565b91905055505f600d5490505f6040518060a001604052803373ffffffffffffffffffffffffffffffffffffffff1681526020014267ffffffffffffffff1681526020014267ffffffffffffffff1681526020015f801b815260200160405180602001604052805f81525081525090508060085f8481526020019081526020015f205f820151815f015f6101000a81548173ffffffffffffffffffffffffffffffffffffffff021916908373ffffffffffffffffffffffffffffffffffffffff1602179055506020820151815f0160146101000a81548167ffffffffffffffff021916908367ffffffffffffffff1602179055506040820151816001015f6101000a81548167ffffffffffffffff021916908367ffffffffffffffff1602179055506060820151816002015560808201518160030190816125b89190615788565b509050508160095f3373ffffffffffffffffffffffffffffffffffffffff1673ffffffffffffffffffffffffffffffffffffffff1681526020019081526020015f20819055506001600a5f3373ffffffffffffffffffffffffffffffffffffffff1673ffffffffffffffffffffffffffffffffffffffff1681526020019081526020015f205f6101000a81548160ff02191690831515021790555061265d3383613869565b813373ffffffffffffffffffffffffffffffffffffffff167ffd0c93be4723cb4c74010465b445d5f99eef0354f49ee7c247fa9ef9093aa8ed426040516126a4919061518b565b60405180910390a381925050506126b9613525565b90565b5f600a5f8373ffffffffffffffffffffffffffffffffffffffff1673ffffffffffffffffffffffffffffffffffffffff1681526020019081526020015f205f9054906101000a900460ff169050919050565b600e60149054906101000a900460ff1681565b606061272c82613420565b505f612736613af5565b90505f8151116127545760405180602001604052805f81525061277f565b8061275e84613b85565b60405160200161276f9291906158f9565b6040516020818303038152906040525b915050919050565b33600a5f8273ffffffffffffffffffffffffffffffffffffffff1673ffffffffffffffffffffffffffffffffffffffff1681526020019081526020015f205f9054906101000a900460ff16612811576040517f08c379a000000000000000000000000000000000000000000000000000000000815260040161280890615048565b60405180910390fd5b8073ffffffffffffffffffffffffffffffffffffffff163373ffffffffffffffffffffffffffffffffffffffff161461287f576040517f08c379a0000000000000000000000000000000000000000000000000000000008152600401612876906150b0565b60405180910390fd5b33600a5f8273ffffffffffffffffffffffffffffffffffffffff1673ffffffffffffffffffffffffffffffffffffffff1681526020019081526020015f205f9054906101000a900460ff16612909576040517f08c379a000000000000000000000000000000000000000000000000000000000815260040161290090615048565b60405180910390fd5b5f60095f8373ffffffffffffffffffffffffffffffffffffffff1673ffffffffffffffffffffffffffffffffffffffff1681526020019081526020015f20549050600b5f8281526020019081526020015f205f9054906101000a900460ff16156129a8576040517f08c379a000000000000000000000000000000000000000000000000000000000815260040161299f90615118565b60405180910390fd5b6129b06134df565b5f60095f3373ffffffffffffffffffffffffffffffffffffffff1673ffffffffffffffffffffffffffffffffffffffff1681526020019081526020015f205490505f60085f8381526020019081526020015f2090508686826003019182612a18929190615380565b5042816001015f6101000a81548167ffffffffffffffff021916908367ffffffffffffffff160217905550813373ffffffffffffffffffffffffffffffffffffffff167feea13ec8b49fb404f99b1bf8fd2589a5b2fcc7eb6d17e9a0768d55148a80715742604051612a8a919061518b565b60405180910390a35050612a9c613525565b5050505050565b5f600a5f8373ffffffffffffffffffffffffffffffffffffffff1673ffffffffffffffffffffffffffffffffffffffff1681526020019081526020015f205f9054906101000a900460ff16612afa575f9050612b5d565b5f60095f8473ffffffffffffffffffffffffffffffffffffffff1673ffffffffffffffffffffffffffffffffffffffff1681526020019081526020015f20549050600b5f8281526020019081526020015f205f9054906101000a900460ff169150505b919050565b5f600e5f9054906101000a900473ffffffffffffffffffffffffffffffffffffffff1673ffffffffffffffffffffffffffffffffffffffff163373ffffffffffffffffffffffffffffffffffffffff161480612bca5750600e60149054906101000a900460ff165b80612c075750612bd86120fd565b73ffffffffffffffffffffffffffffffffffffffff163373ffffffffffffffffffffffffffffffffffffffff16145b612c46576040517f08c379a0000000000000000000000000000000000000000000000000000000008152600401612c3d906155be565b60405180910390fd5b612c4e6134df565b600a5f8373ffffffffffffffffffffffffffffffffffffffff1673ffffffffffffffffffffffffffffffffffffffff1681526020019081526020015f205f9054906101000a900460ff1615612cd8576040517f08c379a0000000000000000000000000000000000000000000000000000000008152600401612ccf906156f6565b60405180910390fd5b5f73ffffffffffffffffffffffffffffffffffffffff168273ffffffffffffffffffffffffffffffffffffffff1603612d46576040517f08c379a0000000000000000000000000000000000000000000000000000000008152600401612d3d90615626565b60405180910390fd5b600d5f815480929190612d5890615741565b91905055505f600d5490505f6040518060a001604052808573ffffffffffffffffffffffffffffffffffffffff1681526020014267ffffffffffffffff1681526020014267ffffffffffffffff1681526020015f801b815260200160405180602001604052805f81525081525090508060085f8481526020019081526020015f205f820151815f015f6101000a81548173ffffffffffffffffffffffffffffffffffffffff021916908373ffffffffffffffffffffffffffffffffffffffff1602179055506020820151815f0160146101000a81548167ffffffffffffffff021916908367ffffffffffffffff1602179055506040820151816001015f6101000a81548167ffffffffffffffff021916908367ffffffffffffffff160217905550606082015181600201556080820151816003019081612e989190615788565b509050508160095f8673ffffffffffffffffffffffffffffffffffffffff1673ffffffffffffffffffffffffffffffffffffffff1681526020019081526020015f20819055506001600a5f8673ffffffffffffffffffffffffffffffffffffffff1673ffffffffffffffffffffffffffffffffffffffff1681526020019081526020015f205f6101000a81548160ff021916908315150217905550612f3d8483613869565b818473ffffffffffffffffffffffffffffffffffffffff167ffd0c93be4723cb4c74010465b445d5f99eef0354f49ee7c247fa9ef9093aa8ed42604051612f84919061518b565b60405180910390a38192505050612f99613525565b919050565b5f60055f8473ffffffffffffffffffffffffffffffffffffffff1673ffffffffffffffffffffffffffffffffffffffff1681526020019081526020015f205f8373ffffffffffffffffffffffffffffffffffffffff1673ffffffffffffffffffffffffffffffffffffffff1681526020019081526020015f205f9054906101000a900460ff16905092915050565b61303461447c565b61303d82613c4f565b61307c576040517f08c379a000000000000000000000000000000000000000000000000000000000815260040161307390615966565b60405180910390fd5b60085f8381526020019081526020015f206040518060a00160405290815f82015f9054906101000a900473ffffffffffffffffffffffffffffffffffffffff1673ffffffffffffffffffffffffffffffffffffffff1673ffffffffffffffffffffffffffffffffffffffff1681526020015f820160149054906101000a900467ffffffffffffffff1667ffffffffffffffff1667ffffffffffffffff168152602001600182015f9054906101000a900467ffffffffffffffff1667ffffffffffffffff1667ffffffffffffffff1681526020016002820154815260200160038201805461316890614f66565b80601f016020809104026020016040519081016040528092919081815260200182805461319490614f66565b80156131df5780601f106131b6576101008083540402835291602001916131df565b820191905f5260205f20905b8154815290600101906020018083116131c257829003601f168201915b5050505050815250509050919050565b6131f76137e2565b5f73ffffffffffffffffffffffffffffffffffffffff168173ffffffffffffffffffffffffffffffffffffffff1603613267575f6040517f1e4fbdf700000000000000000000000000000000000000000000000000000000815260040161325e91906146df565b60405180910390fd5b61327081613886565b50565b61327b6137e2565b80600e60146101000a81548160ff0219169083151502179055507fc977af333cf8813c2d0975c679d4face4e304c8f859030b4379c4b21c84963a2816040516132c4919061457f565b60405180910390a150565b5f600a5f8373ffffffffffffffffffffffffffffffffffffffff1673ffffffffffffffffffffffffffffffffffffffff1681526020019081526020015f205f9054906101000a900460ff16613359576040517f08c379a000000000000000000000000000000000000000000000000000000000815260040161335090615048565b60405180910390fd5b5f60095f8473ffffffffffffffffffffffffffffffffffffffff1673ffffffffffffffffffffffffffffffffffffffff1681526020019081526020015f2054905060085f8281526020019081526020015f2060020154915050919050565b5f7f01ffc9a7000000000000000000000000000000000000000000000000000000007bffffffffffffffffffffffffffffffffffffffffffffffffffffffff1916827bffffffffffffffffffffffffffffffffffffffffffffffffffffffff1916149050919050565b5f8061342b83613c8f565b90505f73ffffffffffffffffffffffffffffffffffffffff168173ffffffffffffffffffffffffffffffffffffffff160361349d57826040517f7e2732890000000000000000000000000000000000000000000000000000000081526004016134949190614974565b60405180910390fd5b80915050919050565b5f60045f8381526020019081526020015f205f9054906101000a900473ffffffffffffffffffffffffffffffffffffffff169050919050565b60026007540361351b576040517f3ee5aeb500000000000000000000000000000000000000000000000000000000815260040160405180910390fd5b6002600781905550565b6001600781905550565b5f60095f8473ffffffffffffffffffffffffffffffffffffffff1673ffffffffffffffffffffffffffffffffffffffff1681526020019081526020015f20549050600b5f8281526020019081526020015f205f9054906101000a900460ff16156135ce576040517f08c379a00000000000000000000000000000000000000000000000000000000081526004016135c590615118565b60405180910390fd5b6001600b5f8381526020019081526020015f205f6101000a81548160ff0219169083151502179055506001600c5f8573ffffffffffffffffffffffffffffffffffffffff1673ffffffffffffffffffffffffffffffffffffffff1681526020019081526020015f205f6101000a81548160ff02191690831515021790555081156136bd575f60085f8381526020019081526020015f2090505f801b816002018190555060405180602001604052805f8152508160030190816136909190615788565b5042816001015f6101000a81548167ffffffffffffffff021916908367ffffffffffffffff160217905550505b808373ffffffffffffffffffffffffffffffffffffffff167fe8ccf73831b7f096110633fc510fb0d4e739d5df4da47cb20fdbcd06711dd6f542604051613704919061518b565b60405180910390a3505050565b5f33905090565b5f8061372384613c8f565b90505f73ffffffffffffffffffffffffffffffffffffffff168173ffffffffffffffffffffffffffffffffffffffff161415801561378d57505f73ffffffffffffffffffffffffffffffffffffffff168573ffffffffffffffffffffffffffffffffffffffff1614155b156137cd576040517f08c379a00000000000000000000000000000000000000000000000000000000081526004016137c490614fe0565b60405180910390fd5b6137d8858585613cc8565b9150509392505050565b6137ea613711565b73ffffffffffffffffffffffffffffffffffffffff166138086120fd565b73ffffffffffffffffffffffffffffffffffffffff16146138675761382b613711565b6040517f118cdaa700000000000000000000000000000000000000000000000000000000815260040161385e91906146df565b60405180910390fd5b565b613882828260405180602001604052805f815250613ed3565b5050565b5f60065f9054906101000a900473ffffffffffffffffffffffffffffffffffffffff1690508160065f6101000a81548173ffffffffffffffffffffffffffffffffffffffff021916908373ffffffffffffffffffffffffffffffffffffffff1602179055508173ffffffffffffffffffffffffffffffffffffffff168173ffffffffffffffffffffffffffffffffffffffff167f8be0079c531659141344cd1fd0a4f28419497f9722a3daafe3b4186f6b6457e060405160405180910390a35050565b5f8373ffffffffffffffffffffffffffffffffffffffff163b1115613aee578273ffffffffffffffffffffffffffffffffffffffff1663150b7a02868685856040518563ffffffff1660e01b81526004016139a79493929190615984565b6020604051808303815f875af19250505080156139e257506040513d601f19601f820116820180604052508101906139df91906159e2565b60015b613a63573d805f8114613a10576040519150601f19603f3d011682016040523d82523d5f602084013e613a15565b606091505b505f815103613a5b57836040517f64a0ae92000000000000000000000000000000000000000000000000000000008152600401613a5291906146df565b60405180910390fd5b805160208201fd5b63150b7a0260e01b7bffffffffffffffffffffffffffffffffffffffffffffffffffffffff1916817bffffffffffffffffffffffffffffffffffffffffffffffffffffffff191614613aec57836040517f64a0ae92000000000000000000000000000000000000000000000000000000008152600401613ae391906146df565b60405180910390fd5b505b5050505050565b6060600f8054613b0490614f66565b80601f0160208091040260200160405190810160405280929190818152602001828054613b3090614f66565b8015613b7b5780601f10613b5257610100808354040283529160200191613b7b565b820191905f5260205f20905b815481529060010190602001808311613b5e57829003601f168201915b5050505050905090565b60605f6001613b9384613ef6565b0190505f8167ffffffffffffffff811115613bb157613bb0614b09565b5b6040519080825280601f01601f191660200182016040528015613be35781602001600182028036833780820191505090505b5090505f82602083010190505b600115613c44578080600190039150507f3031323334353637383961626364656600000000000000000000000000000000600a86061a8153600a8581613c3957613c38615a0d565b5b0494505f8503613bf0575b819350505050919050565b5f8073ffffffffffffffffffffffffffffffffffffffff16613c7083613c8f565b73ffffffffffffffffffffffffffffffffffffffff1614159050919050565b5f60025f8381526020019081526020015f205f9054906101000a900473ffffffffffffffffffffffffffffffffffffffff169050919050565b5f80613cd384613c8f565b90505f73ffffffffffffffffffffffffffffffffffffffff168373ffffffffffffffffffffffffffffffffffffffff1614613d1457613d13818486614047565b5b5f73ffffffffffffffffffffffffffffffffffffffff168173ffffffffffffffffffffffffffffffffffffffff1614613d9f57613d535f855f8061410a565b600160035f8373ffffffffffffffffffffffffffffffffffffffff1673ffffffffffffffffffffffffffffffffffffffff1681526020019081526020015f205f82825403925050819055505b5f73ffffffffffffffffffffffffffffffffffffffff168573ffffffffffffffffffffffffffffffffffffffff1614613e1e57600160035f8773ffffffffffffffffffffffffffffffffffffffff1673ffffffffffffffffffffffffffffffffffffffff1681526020019081526020015f205f82825401925050819055505b8460025f8681526020019081526020015f205f6101000a81548173ffffffffffffffffffffffffffffffffffffffff021916908373ffffffffffffffffffffffffffffffffffffffff160217905550838573ffffffffffffffffffffffffffffffffffffffff168273ffffffffffffffffffffffffffffffffffffffff167fddf252ad1be2c89b69c2b068fc378daa952ba7f163c4a11628f55a4df523b3ef60405160405180910390a4809150509392505050565b613edd83836142c9565b613ef1613ee8613711565b5f858585613949565b505050565b5f805f90507a184f03e93ff9f4daa797ed6e38ed64bf6a1f0100000000000000008310613f52577a184f03e93ff9f4daa797ed6e38ed64bf6a1f0100000000000000008381613f4857613f47615a0d565b5b0492506040810190505b6d04ee2d6d415b85acef81000000008310613f8f576d04ee2d6d415b85acef81000000008381613f8557613f84615a0d565b5b0492506020810190505b662386f26fc100008310613fbe57662386f26fc100008381613fb457613fb3615a0d565b5b0492506010810190505b6305f5e1008310613fe7576305f5e1008381613fdd57613fdc615a0d565b5b0492506008810190505b612710831061400c57612710838161400257614001615a0d565b5b0492506004810190505b6064831061402f576064838161402557614024615a0d565b5b0492506002810190505b600a831061403e576001810190505b80915050919050565b6140528383836143bc565b614105575f73ffffffffffffffffffffffffffffffffffffffff168373ffffffffffffffffffffffffffffffffffffffff16036140c657806040517f7e2732890000000000000000000000000000000000000000000000000000000081526004016140bd9190614974565b60405180910390fd5b81816040517f177e802f0000000000000000000000000000000000000000000000000000000081526004016140fc929190615a3a565b60405180910390fd5b505050565b808061414257505f73ffffffffffffffffffffffffffffffffffffffff168273ffffffffffffffffffffffffffffffffffffffff1614155b15614274575f61415184613420565b90505f73ffffffffffffffffffffffffffffffffffffffff168373ffffffffffffffffffffffffffffffffffffffff16141580156141bb57508273ffffffffffffffffffffffffffffffffffffffff168173ffffffffffffffffffffffffffffffffffffffff1614155b80156141ce57506141cc8184612f9e565b155b1561421057826040517fa9fbf51f00000000000000000000000000000000000000000000000000000000815260040161420791906146df565b60405180910390fd5b811561427257838573ffffffffffffffffffffffffffffffffffffffff168273ffffffffffffffffffffffffffffffffffffffff167f8c5be1e5ebec7d5bd14f71427d1e84f3dd0314c0f7b2291e5b200ac8c7c3b92560405160405180910390a45b505b8360045f8581526020019081526020015f205f6101000a81548173ffffffffffffffffffffffffffffffffffffffff021916908373ffffffffffffffffffffffffffffffffffffffff16021790555050505050565b5f73ffffffffffffffffffffffffffffffffffffffff168273ffffffffffffffffffffffffffffffffffffffff1603614339575f6040517f64a0ae9200000000000000000000000000000000000000000000000000000000815260040161433091906146df565b60405180910390fd5b5f61434583835f613718565b90505f73ffffffffffffffffffffffffffffffffffffffff168173ffffffffffffffffffffffffffffffffffffffff16146143b7575f6040517f73c6ac6e0000000000000000000000000000000000000000000000000000000081526004016143ae91906146df565b60405180910390fd5b505050565b5f8073ffffffffffffffffffffffffffffffffffffffff168373ffffffffffffffffffffffffffffffffffffffff161415801561447357508273ffffffffffffffffffffffffffffffffffffffff168473ffffffffffffffffffffffffffffffffffffffff16148061443457506144338484612f9e565b5b8061447257508273ffffffffffffffffffffffffffffffffffffffff1661445a836134a6565b73ffffffffffffffffffffffffffffffffffffffff16145b5b90509392505050565b6040518060a001604052805f73ffffffffffffffffffffffffffffffffffffffff1681526020015f67ffffffffffffffff1681526020015f67ffffffffffffffff1681526020015f8019168152602001606081525090565b5f604051905090565b5f80fd5b5f80fd5b5f7fffffffff0000000000000000000000000000000000000000000000000000000082169050919050565b614519816144e5565b8114614523575f80fd5b50565b5f8135905061453481614510565b92915050565b5f6020828403121561454f5761454e6144dd565b5b5f61455c84828501614526565b91505092915050565b5f8115159050919050565b61457981614565565b82525050565b5f6020820190506145925f830184614570565b92915050565b5f81519050919050565b5f82825260208201905092915050565b5f5b838110156145cf5780820151818401526020810190506145b4565b5f8484015250505050565b5f601f19601f8301169050919050565b5f6145f482614598565b6145fe81856145a2565b935061460e8185602086016145b2565b614617816145da565b840191505092915050565b5f6020820190508181035f83015261463a81846145ea565b905092915050565b5f819050919050565b61465481614642565b811461465e575f80fd5b50565b5f8135905061466f8161464b565b92915050565b5f6020828403121561468a576146896144dd565b5b5f61469784828501614661565b91505092915050565b5f73ffffffffffffffffffffffffffffffffffffffff82169050919050565b5f6146c9826146a0565b9050919050565b6146d9816146bf565b82525050565b5f6020820190506146f25f8301846146d0565b92915050565b614701816146bf565b811461470b575f80fd5b50565b5f8135905061471c816146f8565b92915050565b5f8060408385031215614738576147376144dd565b5b5f6147458582860161470e565b925050602061475685828601614661565b9150509250929050565b5f60208284031215614775576147746144dd565b5b5f6147828482850161470e565b91505092915050565b614794816146bf565b82525050565b5f67ffffffffffffffff82169050919050565b6147b68161479a565b82525050565b5f819050919050565b6147ce816147bc565b82525050565b5f81519050919050565b5f82825260208201905092915050565b5f6147f8826147d4565b61480281856147de565b93506148128185602086016145b2565b61481b816145da565b840191505092915050565b5f60a083015f83015161483b5f86018261478b565b50602083015161484e60208601826147ad565b50604083015161486160408601826147ad565b50606083015161487460608601826147c5565b506080830151848203608086015261488c82826147ee565b9150508091505092915050565b5f6020820190508181035f8301526148b18184614826565b905092915050565b5f80fd5b5f80fd5b5f80fd5b5f8083601f8401126148da576148d96148b9565b5b8235905067ffffffffffffffff8111156148f7576148f66148bd565b5b602083019150836001820283011115614913576149126148c1565b5b9250929050565b5f80602083850312156149305761492f6144dd565b5b5f83013567ffffffffffffffff81111561494d5761494c6144e1565b5b614959858286016148c5565b92509250509250929050565b61496e81614642565b82525050565b5f6020820190506149875f830184614965565b92915050565b61499681614565565b81146149a0575f80fd5b50565b5f813590506149b18161498d565b92915050565b5f602082840312156149cc576149cb6144dd565b5b5f6149d9848285016149a3565b91505092915050565b5f805f606084860312156149f9576149f86144dd565b5b5f614a068682870161470e565b9350506020614a178682870161470e565b9250506040614a2886828701614661565b9150509250925092565b5f8083601f840112614a4757614a466148b9565b5b8235905067ffffffffffffffff811115614a6457614a636148bd565b5b602083019150836001820283011115614a8057614a7f6148c1565b5b9250929050565b5f805f8060408587031215614a9f57614a9e6144dd565b5b5f85013567ffffffffffffffff811115614abc57614abb6144e1565b5b614ac8878288016148c5565b9450945050602085013567ffffffffffffffff811115614aeb57614aea6144e1565b5b614af787828801614a32565b925092505092959194509250565b5f80fd5b7f4e487b71000000000000000000000000000000000000000000000000000000005f52604160045260245ffd5b614b3f826145da565b810181811067ffffffffffffffff82111715614b5e57614b5d614b09565b5b80604052505050565b5f614b706144d4565b9050614b7c8282614b36565b919050565b5f67ffffffffffffffff821115614b9b57614b9a614b09565b5b614ba4826145da565b9050602081019050919050565b828183375f83830152505050565b5f614bd1614bcc84614b81565b614b67565b905082815260208101848484011115614bed57614bec614b05565b5b614bf8848285614bb1565b509392505050565b5f82601f830112614c1457614c136148b9565b5b8135614c24848260208601614bbf565b91505092915050565b5f60208284031215614c4257614c416144dd565b5b5f82013567ffffffffffffffff811115614c5f57614c5e6144e1565b5b614c6b84828501614c00565b91505092915050565b5f805f60608486031215614c8b57614c8a6144dd565b5b5f614c988682870161470e565b9350506020614ca98682870161470e565b9250506040614cba868287016149a3565b9150509250925092565b5f82825260208201905092915050565b5f614cde826147d4565b614ce88185614cc4565b9350614cf88185602086016145b2565b614d01816145da565b840191505092915050565b5f6020820190508181035f830152614d248184614cd4565b905092915050565b5f8060408385031215614d4257614d416144dd565b5b5f614d4f8582860161470e565b9250506020614d60858286016149a3565b9150509250929050565b5f67ffffffffffffffff821115614d8457614d83614b09565b5b614d8d826145da565b9050602081019050919050565b5f614dac614da784614d6a565b614b67565b905082815260208101848484011115614dc857614dc7614b05565b5b614dd3848285614bb1565b509392505050565b5f82601f830112614def57614dee6148b9565b5b8135614dff848260208601614d9a565b91505092915050565b5f805f8060808587031215614e2057614e1f6144dd565b5b5f614e2d8782880161470e565b9450506020614e3e8782880161470e565b9350506040614e4f87828801614661565b925050606085013567ffffffffffffffff811115614e7057614e6f6144e1565b5b614e7c87828801614ddb565b91505092959194509250565b5f8060208385031215614e9e57614e9d6144dd565b5b5f83013567ffffffffffffffff811115614ebb57614eba6144e1565b5b614ec785828601614a32565b92509250509250929050565b5f8060408385031215614ee957614ee86144dd565b5b5f614ef68582860161470e565b9250506020614f078582860161470e565b9150509250929050565b614f1a816147bc565b82525050565b5f602082019050614f335f830184614f11565b92915050565b7f4e487b71000000000000000000000000000000000000000000000000000000005f52602260045260245ffd5b5f6002820490506001821680614f7d57607f821691505b602082108103614f9057614f8f614f39565b5b50919050565b7f536f756c626f756e6400000000000000000000000000000000000000000000005f82015250565b5f614fca6009836145a2565b9150614fd582614f96565b602082019050919050565b5f6020820190508181035f830152614ff781614fbe565b9050919050565b7f4e6f2044494400000000000000000000000000000000000000000000000000005f82015250565b5f6150326006836145a2565b915061503d82614ffe565b602082019050919050565b5f6020820190508181035f83015261505f81615026565b9050919050565b7f4e6f74206f776e657200000000000000000000000000000000000000000000005f82015250565b5f61509a6009836145a2565b91506150a582615066565b602082019050919050565b5f6020820190508181035f8301526150c78161508e565b9050919050565b7f5265766f6b6564000000000000000000000000000000000000000000000000005f82015250565b5f6151026007836145a2565b915061510d826150ce565b602082019050919050565b5f6020820190508181035f83015261512f816150f6565b9050919050565b5f81905092915050565b5f61514b8385615136565b9350615158838584614bb1565b82840190509392505050565b5f615170828486615140565b91508190509392505050565b6151858161479a565b82525050565b5f60208201905061519e5f83018461517c565b92915050565b5f6060820190506151b75f8301866146d0565b6151c46020830185614965565b6151d160408301846146d0565b949350505050565b5f82905092915050565b5f819050815f5260205f209050919050565b5f6020601f8301049050919050565b5f82821b905092915050565b5f6008830261523f7fffffffffffffffffffffffffffffffffffffffffffffffffffffffffffffffff82615204565b6152498683615204565b95508019841693508086168417925050509392505050565b5f819050919050565b5f61528461527f61527a84614642565b615261565b614642565b9050919050565b5f819050919050565b61529d8361526a565b6152b16152a98261528b565b848454615210565b825550505050565b5f90565b6152c56152b9565b6152d0818484615294565b505050565b5b818110156152f3576152e85f826152bd565b6001810190506152d6565b5050565b601f82111561533857615309816151e3565b615312846151f5565b81016020851015615321578190505b61533561532d856151f5565b8301826152d5565b50505b505050565b5f82821c905092915050565b5f6153585f198460080261533d565b1980831691505092915050565b5f6153708383615349565b9150826002028217905092915050565b61538a83836151d9565b67ffffffffffffffff8111156153a3576153a2614b09565b5b6153ad8254614f66565b6153b88282856152f7565b5f601f8311600181146153e5575f84156153d3578287013590505b6153dd8582615365565b865550615444565b601f1984166153f3866151e3565b5f5b8281101561541a578489013582556001820191506020850194506020810190506153f5565b868310156154375784890135615433601f891682615349565b8355505b6001600288020188555050505b50505050505050565b5f819050815f5260205f209050919050565b601f8211156154a0576154718161544d565b61547a846151f5565b81016020851015615489578190505b61549d615495856151f5565b8301826152d5565b50505b505050565b6154ae82614598565b67ffffffffffffffff8111156154c7576154c6614b09565b5b6154d18254614f66565b6154dc82828561545f565b5f60209050601f83116001811461550d575f84156154fb578287015190505b6155058582615365565b86555061556c565b601f19841661551b8661544d565b5f5b828110156155425784890151825560018201915060208501945060208101905061551d565b8683101561555f578489015161555b601f891682615349565b8355505b6001600288020188555050505b505050505050565b7f4e6f7420617574686f72697a65640000000000000000000000000000000000005f82015250565b5f6155a8600e836145a2565b91506155b382615574565b602082019050919050565b5f6020820190508181035f8301526155d58161559c565b9050919050565b7f5a65726f206164647200000000000000000000000000000000000000000000005f82015250565b5f6156106009836145a2565b915061561b826155dc565b602082019050919050565b5f6020820190508181035f83015261563d81615604565b9050919050565b7f53616d652077616c6c65740000000000000000000000000000000000000000005f82015250565b5f615678600b836145a2565b915061568382615644565b602082019050919050565b5f6020820190508181035f8301526156a58161566c565b9050919050565b7f48617320444944000000000000000000000000000000000000000000000000005f82015250565b5f6156e06007836145a2565b91506156eb826156ac565b602082019050919050565b5f6020820190508181035f83015261570d816156d4565b9050919050565b7f4e487b71000000000000000000000000000000000000000000000000000000005f52601160045260245ffd5b5f61574b82614642565b91507fffffffffffffffffffffffffffffffffffffffffffffffffffffffffffffffff820361577d5761577c615714565b5b600182019050919050565b615791826147d4565b67ffffffffffffffff8111156157aa576157a9614b09565b5b6157b48254614f66565b6157bf8282856152f7565b5f60209050601f8311600181146157f0575f84156157de578287015190505b6157e88582615365565b86555061584f565b601f1984166157fe866151e3565b5f5b8281101561582557848901518255600182019150602085019450602081019050615800565b86831015615842578489015161583e601f891682615349565b8355505b6001600288020188555050505b505050505050565b7f4e6f207075626c6963206d696e740000000000000000000000000000000000005f82015250565b5f61588b600e836145a2565b915061589682615857565b602082019050919050565b5f6020820190508181035f8301526158b88161587f565b9050919050565b5f81905092915050565b5f6158d382614598565b6158dd81856158bf565b93506158ed8185602086016145b2565b80840191505092915050565b5f61590482856158c9565b915061591082846158c9565b91508190509392505050565b7f4e6f20746f6b656e0000000000000000000000000000000000000000000000005f82015250565b5f6159506008836145a2565b915061595b8261591c565b602082019050919050565b5f6020820190508181035f83015261597d81615944565b9050919050565b5f6080820190506159975f8301876146d0565b6159a460208301866146d0565b6159b16040830185614965565b81810360608301526159c38184614cd4565b905095945050505050565b5f815190506159dc81614510565b92915050565b5f602082840312156159f7576159f66144dd565b5b5f615a04848285016159ce565b91505092915050565b7f4e487b71000000000000000000000000000000000000000000000000000000005f52601260045260245ffd5b5f604082019050615a4d5f8301856146d0565b615a5a6020830184614965565b939250505056fea26469706673582212209a525d230518c86b8b95bbdfc842f60bd8aa75ab42e6c1a61e93d2092d5e078364736f6c63430008140033",
		"opcodes": "PUSH1 0x80 PUSH1 0x40 MSTORE CALLVALUE DUP1 ISZERO PUSH2 0xF JUMPI PUSH0 DUP1 REVERT JUMPDEST POP PUSH1 0x4 CALLDATASIZE LT PUSH2 0x230 JUMPI PUSH0 CALLDATALOAD PUSH1 0xE0 SHR DUP1 PUSH4 0x715018A6 GT PUSH2 0x12E JUMPI DUP1 PUSH4 0xC5762EF7 GT PUSH2 0xB6 JUMPI DUP1 PUSH4 0xE985E9C5 GT PUSH2 0x7A JUMPI DUP1 PUSH4 0xE985E9C5 EQ PUSH2 0x6AA JUMPI DUP1 PUSH4 0xF08F4F64 EQ PUSH2 0x6DA JUMPI DUP1 PUSH4 0xF2FDE38B EQ PUSH2 0x70A JUMPI DUP1 PUSH4 0xFA528649 EQ PUSH2 0x726 JUMPI DUP1 PUSH4 0xFF6A0BFF EQ PUSH2 0x742 JUMPI PUSH2 0x230 JUMP JUMPDEST DUP1 PUSH4 0xC5762EF7 EQ PUSH2 0x5E0 JUMPI DUP1 PUSH4 0xC87B56DD EQ PUSH2 0x5FE JUMPI DUP1 PUSH4 0xDC390450 EQ PUSH2 0x62E JUMPI DUP1 PUSH4 0xE16C0652 EQ PUSH2 0x64A JUMPI DUP1 PUSH4 0xE2A0E9F2 EQ PUSH2 0x67A JUMPI PUSH2 0x230 JUMP JUMPDEST DUP1 PUSH4 0x998DFBB2 GT PUSH2 0xFD JUMPI DUP1 PUSH4 0x998DFBB2 EQ PUSH2 0x52A JUMPI DUP1 PUSH4 0xA22CB465 EQ PUSH2 0x55A JUMPI DUP1 PUSH4 0xB88D4FDE EQ PUSH2 0x576 JUMPI DUP1 PUSH4 0xC048BC13 EQ PUSH2 0x592 JUMPI DUP1 PUSH4 0xC3135E1A EQ PUSH2 0x5B0 JUMPI PUSH2 0x230 JUMP JUMPDEST DUP1 PUSH4 0x715018A6 EQ PUSH2 0x4C8 JUMPI DUP1 PUSH4 0x898CDB86 EQ PUSH2 0x4D2 JUMPI DUP1 PUSH4 0x8DA5CB5B EQ PUSH2 0x4EE JUMPI DUP1 PUSH4 0x95D89B41 EQ PUSH2 0x50C JUMPI PUSH2 0x230 JUMP JUMPDEST DUP1 PUSH4 0x23B872DD GT PUSH2 0x1BC JUMPI DUP1 PUSH4 0x5F13E97C GT PUSH2 0x180 JUMPI DUP1 PUSH4 0x5F13E97C EQ PUSH2 0x424 JUMPI DUP1 PUSH4 0x62EC9354 EQ PUSH2 0x42E JUMPI DUP1 PUSH4 0x6352211E EQ PUSH2 0x44A JUMPI DUP1 PUSH4 0x65D65E86 EQ PUSH2 0x47A JUMPI DUP1 PUSH4 0x70A08231 EQ PUSH2 0x498 JUMPI PUSH2 0x230 JUMP JUMPDEST DUP1 PUSH4 0x23B872DD EQ PUSH2 0x384 JUMPI DUP1 PUSH4 0x42842E0E EQ PUSH2 0x3A0 JUMPI DUP1 PUSH4 0x43E91F48 EQ PUSH2 0x3BC JUMPI DUP1 PUSH4 0x522BEC8D EQ PUSH2 0x3D8 JUMPI DUP1 PUSH4 0x55F804B3 EQ PUSH2 0x408 JUMPI PUSH2 0x230 JUMP JUMPDEST DUP1 PUSH4 0xFA12160 GT PUSH2 0x203 JUMPI DUP1 PUSH4 0xFA12160 EQ PUSH2 0x2CE JUMPI DUP1 PUSH4 0x13036808 EQ PUSH2 0x2FE JUMPI DUP1 PUSH4 0x18160DDD EQ PUSH2 0x31A JUMPI DUP1 PUSH4 0x1830F737 EQ PUSH2 0x338 JUMPI DUP1 PUSH4 0x1D638F8C EQ PUSH2 0x354 JUMPI PUSH2 0x230 JUMP JUMPDEST DUP1 PUSH4 0x1FFC9A7 EQ PUSH2 0x234 JUMPI DUP1 PUSH4 0x6FDDE03 EQ PUSH2 0x264 JUMPI DUP1 PUSH4 0x81812FC EQ PUSH2 0x282 JUMPI DUP1 PUSH4 0x95EA7B3 EQ PUSH2 0x2B2 JUMPI JUMPDEST PUSH0 DUP1 REVERT JUMPDEST PUSH2 0x24E PUSH1 0x4 DUP1 CALLDATASIZE SUB DUP2 ADD SWAP1 PUSH2 0x249 SWAP2 SWAP1 PUSH2 0x453A JUMP JUMPDEST PUSH2 0x772 JUMP JUMPDEST PUSH1 0x40 MLOAD PUSH2 0x25B SWAP2 SWAP1 PUSH2 0x457F JUMP JUMPDEST PUSH1 0x40 MLOAD DUP1 SWAP2 SUB SWAP1 RETURN JUMPDEST PUSH2 0x26C PUSH2 0x853 JUMP JUMPDEST PUSH1 0x40 MLOAD PUSH2 0x279 SWAP2 SWAP1 PUSH2 0x4622 JUMP JUMPDEST PUSH1 0x40 MLOAD DUP1 SWAP2 SUB SWAP1 RETURN JUMPDEST PUSH2 0x29C PUSH1 0x4 DUP1 CALLDATASIZE SUB DUP2 ADD SWAP1 PUSH2 0x297 SWAP2 SWAP1 PUSH2 0x4675 JUMP JUMPDEST PUSH2 0x8E2 JUMP JUMPDEST PUSH1 0x40 MLOAD PUSH2 0x2A9 SWAP2 SWAP1 PUSH2 0x46DF JUMP JUMPDEST PUSH1 0x40 MLOAD DUP1 SWAP2 SUB SWAP1 RETURN JUMPDEST PUSH2 0x2CC PUSH1 0x4 DUP1 CALLDATASIZE SUB DUP2 ADD SWAP1 PUSH2 0x2C7 SWAP2 SWAP1 PUSH2 0x4722 JUMP JUMPDEST PUSH2 0x8FD JUMP JUMPDEST STOP JUMPDEST PUSH2 0x2E8 PUSH1 0x4 DUP1 CALLDATASIZE SUB DUP2 ADD SWAP1 PUSH2 0x2E3 SWAP2 SWAP1 PUSH2 0x4760 JUMP JUMPDEST PUSH2 0x938 JUMP JUMPDEST PUSH1 0x40 MLOAD PUSH2 0x2F5 SWAP2 SWAP1 PUSH2 0x4899 JUMP JUMPDEST PUSH1 0x40 MLOAD DUP1 SWAP2 SUB SWAP1 RETURN JUMPDEST PUSH2 0x318 PUSH1 0x4 DUP1 CALLDATASIZE SUB DUP2 ADD SWAP1 PUSH2 0x313 SWAP2 SWAP1 PUSH2 0x491A JUMP JUMPDEST PUSH2 0xB7E JUMP JUMPDEST STOP JUMPDEST PUSH2 0x322 PUSH2 0xEAC JUMP JUMPDEST PUSH1 0x40 MLOAD PUSH2 0x32F SWAP2 SWAP1 PUSH2 0x4974 JUMP JUMPDEST PUSH1 0x40 MLOAD DUP1 SWAP2 SUB SWAP1 RETURN JUMPDEST PUSH2 0x352 PUSH1 0x4 DUP1 CALLDATASIZE SUB DUP2 ADD SWAP1 PUSH2 0x34D SWAP2 SWAP1 PUSH2 0x49B7 JUMP JUMPDEST PUSH2 0xEB5 JUMP JUMPDEST STOP JUMPDEST PUSH2 0x36E PUSH1 0x4 DUP1 CALLDATASIZE SUB DUP2 ADD SWAP1 PUSH2 0x369 SWAP2 SWAP1 PUSH2 0x4760 JUMP JUMPDEST PUSH2 0xFCB JUMP JUMPDEST PUSH1 0x40 MLOAD PUSH2 0x37B SWAP2 SWAP1 PUSH2 0x4974 JUMP JUMPDEST PUSH1 0x40 MLOAD DUP1 SWAP2 SUB SWAP1 RETURN JUMPDEST PUSH2 0x39E PUSH1 0x4 DUP1 CALLDATASIZE SUB DUP2 ADD SWAP1 PUSH2 0x399 SWAP2 SWAP1 PUSH2 0x49E2 JUMP JUMPDEST PUSH2 0x1011 JUMP JUMPDEST STOP JUMPDEST PUSH2 0x3BA PUSH1 0x4 DUP1 CALLDATASIZE SUB DUP2 ADD SWAP1 PUSH2 0x3B5 SWAP2 SWAP1 PUSH2 0x49E2 JUMP JUMPDEST PUSH2 0x1110 JUMP JUMPDEST STOP JUMPDEST PUSH2 0x3D6 PUSH1 0x4 DUP1 CALLDATASIZE SUB DUP2 ADD SWAP1 PUSH2 0x3D1 SWAP2 SWAP1 PUSH2 0x4A87 JUMP JUMPDEST PUSH2 0x112F JUMP JUMPDEST STOP JUMPDEST PUSH2 0x3F2 PUSH1 0x4 DUP1 CALLDATASIZE SUB DUP2 ADD SWAP1 PUSH2 0x3ED SWAP2 SWAP1 PUSH2 0x4675 JUMP JUMPDEST PUSH2 0x14C2 JUMP JUMPDEST PUSH1 0x40 MLOAD PUSH2 0x3FF SWAP2 SWAP1 PUSH2 0x457F JUMP JUMPDEST PUSH1 0x40 MLOAD DUP1 SWAP2 SUB SWAP1 RETURN JUMPDEST PUSH2 0x422 PUSH1 0x4 DUP1 CALLDATASIZE SUB DUP2 ADD SWAP1 PUSH2 0x41D SWAP2 SWAP1 PUSH2 0x4C2D JUMP JUMPDEST PUSH2 0x14E8 JUMP JUMPDEST STOP JUMPDEST PUSH2 0x42C PUSH2 0x1503 JUMP JUMPDEST STOP JUMPDEST PUSH2 0x448 PUSH1 0x4 DUP1 CALLDATASIZE SUB DUP2 ADD SWAP1 PUSH2 0x443 SWAP2 SWAP1 PUSH2 0x4C74 JUMP JUMPDEST PUSH2 0x1619 JUMP JUMPDEST STOP JUMPDEST PUSH2 0x464 PUSH1 0x4 DUP1 CALLDATASIZE SUB DUP2 ADD SWAP1 PUSH2 0x45F SWAP2 SWAP1 PUSH2 0x4675 JUMP JUMPDEST PUSH2 0x1F02 JUMP JUMPDEST PUSH1 0x40 MLOAD PUSH2 0x471 SWAP2 SWAP1 PUSH2 0x46DF JUMP JUMPDEST PUSH1 0x40 MLOAD DUP1 SWAP2 SUB SWAP1 RETURN JUMPDEST PUSH2 0x482 PUSH2 0x1F13 JUMP JUMPDEST PUSH1 0x40 MLOAD PUSH2 0x48F SWAP2 SWAP1 PUSH2 0x46DF JUMP JUMPDEST PUSH1 0x40 MLOAD DUP1 SWAP2 SUB SWAP1 RETURN JUMPDEST PUSH2 0x4B2 PUSH1 0x4 DUP1 CALLDATASIZE SUB DUP2 ADD SWAP1 PUSH2 0x4AD SWAP2 SWAP1 PUSH2 0x4760 JUMP JUMPDEST PUSH2 0x1F38 JUMP JUMPDEST PUSH1 0x40 MLOAD PUSH2 0x4BF SWAP2 SWAP1 PUSH2 0x4974 JUMP JUMPDEST PUSH1 0x40 MLOAD DUP1 SWAP2 SUB SWAP1 RETURN JUMPDEST PUSH2 0x4D0 PUSH2 0x1FEE JUMP JUMPDEST STOP JUMPDEST PUSH2 0x4EC PUSH1 0x4 DUP1 CALLDATASIZE SUB DUP2 ADD SWAP1 PUSH2 0x4E7 SWAP2 SWAP1 PUSH2 0x4760 JUMP JUMPDEST PUSH2 0x2001 JUMP JUMPDEST STOP JUMPDEST PUSH2 0x4F6 PUSH2 0x20FD JUMP JUMPDEST PUSH1 0x40 MLOAD PUSH2 0x503 SWAP2 SWAP1 PUSH2 0x46DF JUMP JUMPDEST PUSH1 0x40 MLOAD DUP1 SWAP2 SUB SWAP1 RETURN JUMPDEST PUSH2 0x514 PUSH2 0x2125 JUMP JUMPDEST PUSH1 0x40 MLOAD PUSH2 0x521 SWAP2 SWAP1 PUSH2 0x4622 JUMP JUMPDEST PUSH1 0x40 MLOAD DUP1 SWAP2 SUB SWAP1 RETURN JUMPDEST PUSH2 0x544 PUSH1 0x4 DUP1 CALLDATASIZE SUB DUP2 ADD SWAP1 PUSH2 0x53F SWAP2 SWAP1 PUSH2 0x4760 JUMP JUMPDEST PUSH2 0x21B5 JUMP JUMPDEST PUSH1 0x40 MLOAD PUSH2 0x551 SWAP2 SWAP1 PUSH2 0x4D0C JUMP JUMPDEST PUSH1 0x40 MLOAD DUP1 SWAP2 SUB SWAP1 RETURN JUMPDEST PUSH2 0x574 PUSH1 0x4 DUP1 CALLDATASIZE SUB DUP2 ADD SWAP1 PUSH2 0x56F SWAP2 SWAP1 PUSH2 0x4D2C JUMP JUMPDEST PUSH2 0x2324 JUMP JUMPDEST STOP JUMPDEST PUSH2 0x590 PUSH1 0x4 DUP1 CALLDATASIZE SUB DUP2 ADD SWAP1 PUSH2 0x58B SWAP2 SWAP1 PUSH2 0x4E08 JUMP JUMPDEST PUSH2 0x235F JUMP JUMPDEST STOP JUMPDEST PUSH2 0x59A PUSH2 0x2384 JUMP JUMPDEST PUSH1 0x40 MLOAD PUSH2 0x5A7 SWAP2 SWAP1 PUSH2 0x4974 JUMP JUMPDEST PUSH1 0x40 MLOAD DUP1 SWAP2 SUB SWAP1 RETURN JUMPDEST PUSH2 0x5CA PUSH1 0x4 DUP1 CALLDATASIZE SUB DUP2 ADD SWAP1 PUSH2 0x5C5 SWAP2 SWAP1 PUSH2 0x4760 JUMP JUMPDEST PUSH2 0x26BC JUMP JUMPDEST PUSH1 0x40 MLOAD PUSH2 0x5D7 SWAP2 SWAP1 PUSH2 0x457F JUMP JUMPDEST PUSH1 0x40 MLOAD DUP1 SWAP2 SUB SWAP1 RETURN JUMPDEST PUSH2 0x5E8 PUSH2 0x270E JUMP JUMPDEST PUSH1 0x40 MLOAD PUSH2 0x5F5 SWAP2 SWAP1 PUSH2 0x457F JUMP JUMPDEST PUSH1 0x40 MLOAD DUP1 SWAP2 SUB SWAP1 RETURN JUMPDEST PUSH2 0x618 PUSH1 0x4 DUP1 CALLDATASIZE SUB DUP2 ADD SWAP1 PUSH2 0x613 SWAP2 SWAP1 PUSH2 0x4675 JUMP JUMPDEST PUSH2 0x2721 JUMP JUMPDEST PUSH1 0x40 MLOAD PUSH2 0x625 SWAP2 SWAP1 PUSH2 0x4622 JUMP JUMPDEST PUSH1 0x40 MLOAD DUP1 SWAP2 SUB SWAP1 RETURN JUMPDEST PUSH2 0x648 PUSH1 0x4 DUP1 CALLDATASIZE SUB DUP2 ADD SWAP1 PUSH2 0x643 SWAP2 SWAP1 PUSH2 0x4E88 JUMP JUMPDEST PUSH2 0x2787 JUMP JUMPDEST STOP JUMPDEST PUSH2 0x664 PUSH1 0x4 DUP1 CALLDATASIZE SUB DUP2 ADD SWAP1 PUSH2 0x65F SWAP2 SWAP1 PUSH2 0x4760 JUMP JUMPDEST PUSH2 0x2AA3 JUMP JUMPDEST PUSH1 0x40 MLOAD PUSH2 0x671 SWAP2 SWAP1 PUSH2 0x457F JUMP JUMPDEST PUSH1 0x40 MLOAD DUP1 SWAP2 SUB SWAP1 RETURN JUMPDEST PUSH2 0x694 PUSH1 0x4 DUP1 CALLDATASIZE SUB DUP2 ADD SWAP1 PUSH2 0x68F SWAP2 SWAP1 PUSH2 0x4760 JUMP JUMPDEST PUSH2 0x2B62 JUMP JUMPDEST PUSH1 0x40 MLOAD PUSH2 0x6A1 SWAP2 SWAP1 PUSH2 0x4974 JUMP JUMPDEST PUSH1 0x40 MLOAD DUP1 SWAP2 SUB SWAP1 RETURN JUMPDEST PUSH2 0x6C4 PUSH1 0x4 DUP1 CALLDATASIZE SUB DUP2 ADD SWAP1 PUSH2 0x6BF SWAP2 SWAP1 PUSH2 0x4ED3 JUMP JUMPDEST PUSH2 0x2F9E JUMP JUMPDEST PUSH1 0x40 MLOAD PUSH2 0x6D1 SWAP2 SWAP1 PUSH2 0x457F JUMP JUMPDEST PUSH1 0x40 MLOAD DUP1 SWAP2 SUB SWAP1 RETURN JUMPDEST PUSH2 0x6F4 PUSH1 0x4 DUP1 CALLDATASIZE SUB DUP2 ADD SWAP1 PUSH2 0x6EF SWAP2 SWAP1 PUSH2 0x4675 JUMP JUMPDEST PUSH2 0x302C JUMP JUMPDEST PUSH1 0x40 MLOAD PUSH2 0x701 SWAP2 SWAP1 PUSH2 0x4899 JUMP JUMPDEST PUSH1 0x40 MLOAD DUP1 SWAP2 SUB SWAP1 RETURN JUMPDEST PUSH2 0x724 PUSH1 0x4 DUP1 CALLDATASIZE SUB DUP2 ADD SWAP1 PUSH2 0x71F SWAP2 SWAP1 PUSH2 0x4760 JUMP JUMPDEST PUSH2 0x31EF JUMP JUMPDEST STOP JUMPDEST PUSH2 0x740 PUSH1 0x4 DUP1 CALLDATASIZE SUB DUP2 ADD SWAP1 PUSH2 0x73B SWAP2 SWAP1 PUSH2 0x49B7 JUMP JUMPDEST PUSH2 0x3273 JUMP JUMPDEST STOP JUMPDEST PUSH2 0x75C PUSH1 0x4 DUP1 CALLDATASIZE SUB DUP2 ADD SWAP1 PUSH2 0x757 SWAP2 SWAP1 PUSH2 0x4760 JUMP JUMPDEST PUSH2 0x32CF JUMP JUMPDEST PUSH1 0x40 MLOAD PUSH2 0x769 SWAP2 SWAP1 PUSH2 0x4F20 JUMP JUMPDEST PUSH1 0x40 MLOAD DUP1 SWAP2 SUB SWAP1 RETURN JUMPDEST PUSH0 PUSH32 0x80AC58CD00000000000000000000000000000000000000000000000000000000 PUSH28 0xFFFFFFFFFFFFFFFFFFFFFFFFFFFFFFFFFFFFFFFFFFFFFFFFFFFFFFFF NOT AND DUP3 PUSH28 0xFFFFFFFFFFFFFFFFFFFFFFFFFFFFFFFFFFFFFFFFFFFFFFFFFFFFFFFF NOT AND EQ DUP1 PUSH2 0x83C JUMPI POP PUSH32 0x5B5E139F00000000000000000000000000000000000000000000000000000000 PUSH28 0xFFFFFFFFFFFFFFFFFFFFFFFFFFFFFFFFFFFFFFFFFFFFFFFFFFFFFFFF NOT AND DUP3 PUSH28 0xFFFFFFFFFFFFFFFFFFFFFFFFFFFFFFFFFFFFFFFFFFFFFFFFFFFFFFFF NOT AND EQ JUMPDEST DUP1 PUSH2 0x84C JUMPI POP PUSH2 0x84B DUP3 PUSH2 0x33B7 JUMP JUMPDEST JUMPDEST SWAP1 POP SWAP2 SWAP1 POP JUMP JUMPDEST PUSH1 0x60 PUSH0 DUP1 SLOAD PUSH2 0x861 SWAP1 PUSH2 0x4F66 JUMP JUMPDEST DUP1 PUSH1 0x1F ADD PUSH1 0x20 DUP1 SWAP2 DIV MUL PUSH1 0x20 ADD PUSH1 0x40 MLOAD SWAP1 DUP2 ADD PUSH1 0x40 MSTORE DUP1 SWAP3 SWAP2 SWAP1 DUP2 DUP2 MSTORE PUSH1 0x20 ADD DUP3 DUP1 SLOAD PUSH2 0x88D SWAP1 PUSH2 0x4F66 JUMP JUMPDEST DUP1 ISZERO PUSH2 0x8D8 JUMPI DUP1 PUSH1 0x1F LT PUSH2 0x8AF JUMPI PUSH2 0x100 DUP1 DUP4 SLOAD DIV MUL DUP4 MSTORE SWAP2 PUSH1 0x20 ADD SWAP2 PUSH2 0x8D8 JUMP JUMPDEST DUP3 ADD SWAP2 SWAP1 PUSH0 MSTORE PUSH1 0x20 PUSH0 KECCAK256 SWAP1 JUMPDEST DUP2 SLOAD DUP2 MSTORE SWAP1 PUSH1 0x1 ADD SWAP1 PUSH1 0x20 ADD DUP1 DUP4 GT PUSH2 0x8BB JUMPI DUP3 SWAP1 SUB PUSH1 0x1F AND DUP3 ADD SWAP2 JUMPDEST POP POP POP POP POP SWAP1 POP SWAP1 JUMP JUMPDEST PUSH0 PUSH2 0x8EC DUP3 PUSH2 0x3420 JUMP JUMPDEST POP PUSH2 0x8F6 DUP3 PUSH2 0x34A6 JUMP JUMPDEST SWAP1 POP SWAP2 SWAP1 POP JUMP JUMPDEST PUSH1 0x40 MLOAD PUSH32 0x8C379A000000000000000000000000000000000000000000000000000000000 DUP2 MSTORE PUSH1 0x4 ADD PUSH2 0x92F SWAP1 PUSH2 0x4FE0 JUMP JUMPDEST PUSH1 0x40 MLOAD DUP1 SWAP2 SUB SWAP1 REVERT JUMPDEST PUSH2 0x940 PUSH2 0x447C JUMP JUMPDEST PUSH1 0xA PUSH0 DUP4 PUSH20 0xFFFFFFFFFFFFFFFFFFFFFFFFFFFFFFFFFFFFFFFF AND PUSH20 0xFFFFFFFFFFFFFFFFFFFFFFFFFFFFFFFFFFFFFFFF AND DUP2 MSTORE PUSH1 0x20 ADD SWAP1 DUP2 MSTORE PUSH1 0x20 ADD PUSH0 KECCAK256 PUSH0 SWAP1 SLOAD SWAP1 PUSH2 0x100 EXP SWAP1 DIV PUSH1 0xFF AND PUSH2 0x9C9 JUMPI PUSH1 0x40 MLOAD PUSH32 0x8C379A000000000000000000000000000000000000000000000000000000000 DUP2 MSTORE PUSH1 0x4 ADD PUSH2 0x9C0 SWAP1 PUSH2 0x5048 JUMP JUMPDEST PUSH1 0x40 MLOAD DUP1 SWAP2 SUB SWAP1 REVERT JUMPDEST PUSH0 PUSH1 0x9 PUSH0 DUP5 PUSH20 0xFFFFFFFFFFFFFFFFFFFFFFFFFFFFFFFFFFFFFFFF AND PUSH20 0xFFFFFFFFFFFFFFFFFFFFFFFFFFFFFFFFFFFFFFFF AND DUP2 MSTORE PUSH1 0x20 ADD SWAP1 DUP2 MSTORE PUSH1 0x20 ADD PUSH0 KECCAK256 SLOAD SWAP1 POP PUSH1 0x8 PUSH0 DUP3 DUP2 MSTORE PUSH1 0x20 ADD SWAP1 DUP2 MSTORE PUSH1 0x20 ADD PUSH0 KECCAK256 PUSH1 0x40 MLOAD DUP1 PUSH1 0xA0 ADD PUSH1 0x40 MSTORE SWAP1 DUP2 PUSH0 DUP3 ADD PUSH0 SWAP1 SLOAD SWAP1 PUSH2 0x100 EXP SWAP1 DIV PUSH20 0xFFFFFFFFFFFFFFFFFFFFFFFFFFFFFFFFFFFFFFFF AND PUSH20 0xFFFFFFFFFFFFFFFFFFFFFFFFFFFFFFFFFFFFFFFF AND PUSH20 0xFFFFFFFFFFFFFFFFFFFFFFFFFFFFFFFFFFFFFFFF AND DUP2 MSTORE PUSH1 0x20 ADD PUSH0 DUP3 ADD PUSH1 0x14 SWAP1 SLOAD SWAP1 PUSH2 0x100 EXP SWAP1 DIV PUSH8 0xFFFFFFFFFFFFFFFF AND PUSH8 0xFFFFFFFFFFFFFFFF AND PUSH8 0xFFFFFFFFFFFFFFFF AND DUP2 MSTORE PUSH1 0x20 ADD PUSH1 0x1 DUP3 ADD PUSH0 SWAP1 SLOAD SWAP1 PUSH2 0x100 EXP SWAP1 DIV PUSH8 0xFFFFFFFFFFFFFFFF AND PUSH8 0xFFFFFFFFFFFFFFFF AND PUSH8 0xFFFFFFFFFFFFFFFF AND DUP2 MSTORE PUSH1 0x20 ADD PUSH1 0x2 DUP3 ADD SLOAD DUP2 MSTORE PUSH1 0x20 ADD PUSH1 0x3 DUP3 ADD DUP1 SLOAD PUSH2 0xAF6 SWAP1 PUSH2 0x4F66 JUMP JUMPDEST DUP1 PUSH1 0x1F ADD PUSH1 0x20 DUP1 SWAP2 DIV MUL PUSH1 0x20 ADD PUSH1 0x40 MLOAD SWAP1 DUP2 ADD PUSH1 0x40 MSTORE DUP1 SWAP3 SWAP2 SWAP1 DUP2 DUP2 MSTORE PUSH1 0x20 ADD DUP3 DUP1 SLOAD PUSH2 0xB22 SWAP1 PUSH2 0x4F66 JUMP JUMPDEST DUP1 ISZERO PUSH2 0xB6D JUMPI DUP1 PUSH1 0x1F LT PUSH2 0xB44 JUMPI PUSH2 0x100 DUP1 DUP4 SLOAD DIV MUL DUP4 MSTORE SWAP2 PUSH1 0x20 ADD SWAP2 PUSH2 0xB6D JUMP JUMPDEST DUP3 ADD SWAP2 SWAP1 PUSH0 MSTORE PUSH1 0x20 PUSH0 KECCAK256 SWAP1 JUMPDEST DUP2 SLOAD DUP2 MSTORE SWAP1 PUSH1 0x1 ADD SWAP1 PUSH1 0x20 ADD DUP1 DUP4 GT PUSH2 0xB50 JUMPI DUP3 SWAP1 SUB PUSH1 0x1F AND DUP3 ADD SWAP2 JUMPDEST POP POP POP POP POP DUP2 MSTORE POP POP SWAP2 POP POP SWAP2 SWAP1 POP JUMP JUMPDEST CALLER PUSH1 0xA PUSH0 DUP3 PUSH20 0xFFFFFFFFFFFFFFFFFFFFFFFFFFFFFFFFFFFFFFFF AND PUSH20 0xFFFFFFFFFFFFFFFFFFFFFFFFFFFFFFFFFFFFFFFF AND DUP2 MSTORE PUSH1 0x20 ADD SWAP1 DUP2 MSTORE PUSH1 0x20 ADD PUSH0 KECCAK256 PUSH0 SWAP1 SLOAD SWAP1 PUSH2 0x100 EXP SWAP1 DIV PUSH1 0xFF AND PUSH2 0xC08 JUMPI PUSH1 0x40 MLOAD PUSH32 0x8C379A000000000000000000000000000000000000000000000000000000000 DUP2 MSTORE PUSH1 0x4 ADD PUSH2 0xBFF SWAP1 PUSH2 0x5048 JUMP JUMPDEST PUSH1 0x40 MLOAD DUP1 SWAP2 SUB SWAP1 REVERT JUMPDEST DUP1 PUSH20 0xFFFFFFFFFFFFFFFFFFFFFFFFFFFFFFFFFFFFFFFF AND CALLER PUSH20 0xFFFFFFFFFFFFFFFFFFFFFFFFFFFFFFFFFFFFFFFF AND EQ PUSH2 0xC76 JUMPI PUSH1 0x40 MLOAD PUSH32 0x8C379A000000000000000000000000000000000000000000000000000000000 DUP2 MSTORE PUSH1 0x4 ADD PUSH2 0xC6D SWAP1 PUSH2 0x50B0 JUMP JUMPDEST PUSH1 0x40 MLOAD DUP1 SWAP2 SUB SWAP1 REVERT JUMPDEST CALLER PUSH1 0xA PUSH0 DUP3 PUSH20 0xFFFFFFFFFFFFFFFFFFFFFFFFFFFFFFFFFFFFFFFF AND PUSH20 0xFFFFFFFFFFFFFFFFFFFFFFFFFFFFFFFFFFFFFFFF AND DUP2 MSTORE PUSH1 0x20 ADD SWAP1 DUP2 MSTORE PUSH1 0x20 ADD PUSH0 KECCAK256 PUSH0 SWAP1 SLOAD SWAP1 PUSH2 0x100 EXP SWAP1 DIV PUSH1 0xFF AND PUSH2 0xD00 JUMPI PUSH1 0x40 MLOAD PUSH32 0x8C379A000000000000000000000000000000000000000000000000000000000 DUP2 MSTORE PUSH1 0x4 ADD PUSH2 0xCF7 SWAP1 PUSH2 0x5048 JUMP JUMPDEST PUSH1 0x40 MLOAD DUP1 SWAP2 SUB SWAP1 REVERT JUMPDEST PUSH0 PUSH1 0x9 PUSH0 DUP4 PUSH20 0xFFFFFFFFFFFFFFFFFFFFFFFFFFFFFFFFFFFFFFFF AND PUSH20 0xFFFFFFFFFFFFFFFFFFFFFFFFFFFFFFFFFFFFFFFF AND DUP2 MSTORE PUSH1 0x20 ADD SWAP1 DUP2 MSTORE PUSH1 0x20 ADD PUSH0 KECCAK256 SLOAD SWAP1 POP PUSH1 0xB PUSH0 DUP3 DUP2 MSTORE PUSH1 0x20 ADD SWAP1 DUP2 MSTORE PUSH1 0x20 ADD PUSH0 KECCAK256 PUSH0 SWAP1 SLOAD SWAP1 PUSH2 0x100 EXP SWAP1 DIV PUSH1 0xFF AND ISZERO PUSH2 0xD9F JUMPI PUSH1 0x40 MLOAD PUSH32 0x8C379A000000000000000000000000000000000000000000000000000000000 DUP2 MSTORE PUSH1 0x4 ADD PUSH2 0xD96 SWAP1 PUSH2 0x5118 JUMP JUMPDEST PUSH1 0x40 MLOAD DUP1 SWAP2 SUB SWAP1 REVERT JUMPDEST PUSH2 0xDA7 PUSH2 0x34DF JUMP JUMPDEST PUSH0 PUSH1 0x9 PUSH0 CALLER PUSH20 0xFFFFFFFFFFFFFFFFFFFFFFFFFFFFFFFFFFFFFFFF AND PUSH20 0xFFFFFFFFFFFFFFFFFFFFFFFFFFFFFFFFFFFFFFFF AND DUP2 MSTORE PUSH1 0x20 ADD SWAP1 DUP2 MSTORE PUSH1 0x20 ADD PUSH0 KECCAK256 SLOAD SWAP1 POP PUSH0 PUSH1 0x8 PUSH0 DUP4 DUP2 MSTORE PUSH1 0x20 ADD SWAP1 DUP2 MSTORE PUSH1 0x20 ADD PUSH0 KECCAK256 SWAP1 POP PUSH0 DUP8 DUP8 PUSH1 0x40 MLOAD PUSH2 0xE0D SWAP3 SWAP2 SWAP1 PUSH2 0x5164 JUMP JUMPDEST PUSH1 0x40 MLOAD DUP1 SWAP2 SUB SWAP1 KECCAK256 SWAP1 POP DUP1 DUP3 PUSH1 0x2 ADD DUP2 SWAP1 SSTORE POP TIMESTAMP DUP3 PUSH1 0x1 ADD PUSH0 PUSH2 0x100 EXP DUP2 SLOAD DUP2 PUSH8 0xFFFFFFFFFFFFFFFF MUL NOT AND SWAP1 DUP4 PUSH8 0xFFFFFFFFFFFFFFFF AND MUL OR SWAP1 SSTORE POP DUP1 DUP4 CALLER PUSH20 0xFFFFFFFFFFFFFFFFFFFFFFFFFFFFFFFFFFFFFFFF AND PUSH32 0x8280FD7BBDEB2364E894D403DB429C0FB8E57A385D0F2EC1F7926ACF32847726 TIMESTAMP PUSH1 0x40 MLOAD PUSH2 0xE92 SWAP2 SWAP1 PUSH2 0x518B JUMP JUMPDEST PUSH1 0x40 MLOAD DUP1 SWAP2 SUB SWAP1 LOG4 POP POP POP PUSH2 0xEA5 PUSH2 0x3525 JUMP JUMPDEST POP POP POP POP POP JUMP JUMPDEST PUSH0 PUSH1 0xD SLOAD SWAP1 POP SWAP1 JUMP JUMPDEST CALLER PUSH1 0xA PUSH0 DUP3 PUSH20 0xFFFFFFFFFFFFFFFFFFFFFFFFFFFFFFFFFFFFFFFF AND PUSH20 0xFFFFFFFFFFFFFFFFFFFFFFFFFFFFFFFFFFFFFFFF AND DUP2 MSTORE PUSH1 0x20 ADD SWAP1 DUP2 MSTORE PUSH1 0x20 ADD PUSH0 KECCAK256 PUSH0 SWAP1 SLOAD SWAP1 PUSH2 0x100 EXP SWAP1 DIV PUSH1 0xFF AND PUSH2 0xF3F JUMPI PUSH1 0x40 MLOAD PUSH32 0x8C379A000000000000000000000000000000000000000000000000000000000 DUP2 MSTORE PUSH1 0x4 ADD PUSH2 0xF36 SWAP1 PUSH2 0x5048 JUMP JUMPDEST PUSH1 0x40 MLOAD DUP1 SWAP2 SUB SWAP1 REVERT JUMPDEST DUP1 PUSH20 0xFFFFFFFFFFFFFFFFFFFFFFFFFFFFFFFFFFFFFFFF AND CALLER PUSH20 0xFFFFFFFFFFFFFFFFFFFFFFFFFFFFFFFFFFFFFFFF AND EQ PUSH2 0xFAD JUMPI PUSH1 0x40 MLOAD PUSH32 0x8C379A000000000000000000000000000000000000000000000000000000000 DUP2 MSTORE PUSH1 0x4 ADD PUSH2 0xFA4 SWAP1 PUSH2 0x50B0 JUMP JUMPDEST PUSH1 0x40 MLOAD DUP1 SWAP2 SUB SWAP1 REVERT JUMPDEST PUSH2 0xFB5 PUSH2 0x34DF JUMP JUMPDEST PUSH2 0xFBF CALLER DUP4 PUSH2 0x352F JUMP JUMPDEST PUSH2 0xFC7 PUSH2 0x3525 JUMP JUMPDEST POP POP JUMP JUMPDEST PUSH0 PUSH1 0x9 PUSH0 DUP4 PUSH20 0xFFFFFFFFFFFFFFFFFFFFFFFFFFFFFFFFFFFFFFFF AND PUSH20 0xFFFFFFFFFFFFFFFFFFFFFFFFFFFFFFFFFFFFFFFF AND DUP2 MSTORE PUSH1 0x20 ADD SWAP1 DUP2 MSTORE PUSH1 0x20 ADD PUSH0 KECCAK256 SLOAD SWAP1 POP SWAP2 SWAP1 POP JUMP JUMPDEST PUSH0 PUSH20 0xFFFFFFFFFFFFFFFFFFFFFFFFFFFFFFFFFFFFFFFF AND DUP3 PUSH20 0xFFFFFFFFFFFFFFFFFFFFFFFFFFFFFFFFFFFFFFFF AND SUB PUSH2 0x1081 JUMPI PUSH0 PUSH1 0x40 MLOAD PUSH32 0x64A0AE9200000000000000000000000000000000000000000000000000000000 DUP2 MSTORE PUSH1 0x4 ADD PUSH2 0x1078 SWAP2 SWAP1 PUSH2 0x46DF JUMP JUMPDEST PUSH1 0x40 MLOAD DUP1 SWAP2 SUB SWAP1 REVERT JUMPDEST PUSH0 PUSH2 0x1094 DUP4 DUP4 PUSH2 0x108F PUSH2 0x3711 JUMP JUMPDEST PUSH2 0x3718 JUMP JUMPDEST SWAP1 POP DUP4 PUSH20 0xFFFFFFFFFFFFFFFFFFFFFFFFFFFFFFFFFFFFFFFF AND DUP2 PUSH20 0xFFFFFFFFFFFFFFFFFFFFFFFFFFFFFFFFFFFFFFFF AND EQ PUSH2 0x110A JUMPI DUP4 DUP3 DUP3 PUSH1 0x40 MLOAD PUSH32 0x64283D7B00000000000000000000000000000000000000000000000000000000 DUP2 MSTORE PUSH1 0x4 ADD PUSH2 0x1101 SWAP4 SWAP3 SWAP2 SWAP1 PUSH2 0x51A4 JUMP JUMPDEST PUSH1 0x40 MLOAD DUP1 SWAP2 SUB SWAP1 REVERT JUMPDEST POP POP POP POP JUMP JUMPDEST PUSH2 0x112A DUP4 DUP4 DUP4 PUSH1 0x40 MLOAD DUP1 PUSH1 0x20 ADD PUSH1 0x40 MSTORE DUP1 PUSH0 DUP2 MSTORE POP PUSH2 0x235F JUMP JUMPDEST POP POP POP JUMP JUMPDEST CALLER PUSH1 0xA PUSH0 DUP3 PUSH20 0xFFFFFFFFFFFFFFFFFFFFFFFFFFFFFFFFFFFFFFFF AND PUSH20 0xFFFFFFFFFFFFFFFFFFFFFFFFFFFFFFFFFFFFFFFF AND DUP2 MSTORE PUSH1 0x20 ADD SWAP1 DUP2 MSTORE PUSH1 0x20 ADD PUSH0 KECCAK256 PUSH0 SWAP1 SLOAD SWAP1 PUSH2 0x100 EXP SWAP1 DIV PUSH1 0xFF AND PUSH2 0x11B9 JUMPI PUSH1 0x40 MLOAD PUSH32 0x8C379A000000000000000000000000000000000000000000000000000000000 DUP2 MSTORE PUSH1 0x4 ADD PUSH2 0x11B0 SWAP1 PUSH2 0x5048 JUMP JUMPDEST PUSH1 0x40 MLOAD DUP1 SWAP2 SUB SWAP1 REVERT JUMPDEST DUP1 PUSH20 0xFFFFFFFFFFFFFFFFFFFFFFFFFFFFFFFFFFFFFFFF AND CALLER PUSH20 0xFFFFFFFFFFFFFFFFFFFFFFFFFFFFFFFFFFFFFFFF AND EQ PUSH2 0x1227 JUMPI PUSH1 0x40 MLOAD PUSH32 0x8C379A000000000000000000000000000000000000000000000000000000000 DUP2 MSTORE PUSH1 0x4 ADD PUSH2 0x121E SWAP1 PUSH2 0x50B0 JUMP JUMPDEST PUSH1 0x40 MLOAD DUP1 SWAP2 SUB SWAP1 REVERT JUMPDEST CALLER PUSH1 0xA PUSH0 DUP3 PUSH20 0xFFFFFFFFFFFFFFFFFFFFFFFFFFFFFFFFFFFFFFFF AND PUSH20 0xFFFFFFFFFFFFFFFFFFFFFFFFFFFFFFFFFFFFFFFF AND DUP2 MSTORE PUSH1 0x20 ADD SWAP1 DUP2 MSTORE PUSH1 0x20 ADD PUSH0 KECCAK256 PUSH0 SWAP1 SLOAD SWAP1 PUSH2 0x100 EXP SWAP1 DIV PUSH1 0xFF AND PUSH2 0x12B1 JUMPI PUSH1 0x40 MLOAD PUSH32 0x8C379A000000000000000000000000000000000000000000000000000000000 DUP2 MSTORE PUSH1 0x4 ADD PUSH2 0x12A8 SWAP1 PUSH2 0x5048 JUMP JUMPDEST PUSH1 0x40 MLOAD DUP1 SWAP2 SUB SWAP1 REVERT JUMPDEST PUSH0 PUSH1 0x9 PUSH0 DUP4 PUSH20 0xFFFFFFFFFFFFFFFFFFFFFFFFFFFFFFFFFFFFFFFF AND PUSH20 0xFFFFFFFFFFFFFFFFFFFFFFFFFFFFFFFFFFFFFFFF AND DUP2 MSTORE PUSH1 0x20 ADD SWAP1 DUP2 MSTORE PUSH1 0x20 ADD PUSH0 KECCAK256 SLOAD SWAP1 POP PUSH1 0xB PUSH0 DUP3 DUP2 MSTORE PUSH1 0x20 ADD SWAP1 DUP2 MSTORE PUSH1 0x20 ADD PUSH0 KECCAK256 PUSH0 SWAP1 SLOAD SWAP1 PUSH2 0x100 EXP SWAP1 DIV PUSH1 0xFF AND ISZERO PUSH2 0x1350 JUMPI PUSH1 0x40 MLOAD PUSH32 0x8C379A000000000000000000000000000000000000000000000000000000000 DUP2 MSTORE PUSH1 0x4 ADD PUSH2 0x1347 SWAP1 PUSH2 0x5118 JUMP JUMPDEST PUSH1 0x40 MLOAD DUP1 SWAP2 SUB SWAP1 REVERT JUMPDEST PUSH2 0x1358 PUSH2 0x34DF JUMP JUMPDEST PUSH0 PUSH1 0x9 PUSH0 CALLER PUSH20 0xFFFFFFFFFFFFFFFFFFFFFFFFFFFFFFFFFFFFFFFF AND PUSH20 0xFFFFFFFFFFFFFFFFFFFFFFFFFFFFFFFFFFFFFFFF AND DUP2 MSTORE PUSH1 0x20 ADD SWAP1 DUP2 MSTORE PUSH1 0x20 ADD PUSH0 KECCAK256 SLOAD SWAP1 POP PUSH0 PUSH1 0x8 PUSH0 DUP4 DUP2 MSTORE PUSH1 0x20 ADD SWAP1 DUP2 MSTORE PUSH1 0x20 ADD PUSH0 KECCAK256 SWAP1 POP PUSH0 DUP10 DUP10 PUSH1 0x40 MLOAD PUSH2 0x13BE SWAP3 SWAP2 SWAP1 PUSH2 0x5164 JUMP JUMPDEST PUSH1 0x40 MLOAD DUP1 SWAP2 SUB SWAP1 KECCAK256 SWAP1 POP DUP1 DUP3 PUSH1 0x2 ADD DUP2 SWAP1 SSTORE POP DUP8 DUP8 DUP4 PUSH1 0x3 ADD SWAP2 DUP3 PUSH2 0x13E4 SWAP3 SWAP2 SWAP1 PUSH2 0x5380 JUMP JUMPDEST POP TIMESTAMP DUP3 PUSH1 0x1 ADD PUSH0 PUSH2 0x100 EXP DUP2 SLOAD DUP2 PUSH8 0xFFFFFFFFFFFFFFFF MUL NOT AND SWAP1 DUP4 PUSH8 0xFFFFFFFFFFFFFFFF AND MUL OR SWAP1 SSTORE POP DUP1 DUP4 CALLER PUSH20 0xFFFFFFFFFFFFFFFFFFFFFFFFFFFFFFFFFFFFFFFF AND PUSH32 0x8280FD7BBDEB2364E894D403DB429C0FB8E57A385D0F2EC1F7926ACF32847726 TIMESTAMP PUSH1 0x40 MLOAD PUSH2 0x1457 SWAP2 SWAP1 PUSH2 0x518B JUMP JUMPDEST PUSH1 0x40 MLOAD DUP1 SWAP2 SUB SWAP1 LOG4 DUP3 CALLER PUSH20 0xFFFFFFFFFFFFFFFFFFFFFFFFFFFFFFFFFFFFFFFF AND PUSH32 0xEEA13EC8B49FB404F99B1BF8FD2589A5B2FCC7EB6D17E9A0768D55148A807157 TIMESTAMP PUSH1 0x40 MLOAD PUSH2 0x14A6 SWAP2 SWAP1 PUSH2 0x518B JUMP JUMPDEST PUSH1 0x40 MLOAD DUP1 SWAP2 SUB SWAP1 LOG3 POP POP POP PUSH2 0x14B9 PUSH2 0x3525 JUMP JUMPDEST POP POP POP POP POP POP POP JUMP JUMPDEST PUSH0 PUSH1 0xB PUSH0 DUP4 DUP2 MSTORE PUSH1 0x20 ADD SWAP1 DUP2 MSTORE PUSH1 0x20 ADD PUSH0 KECCAK256 PUSH0 SWAP1 SLOAD SWAP1 PUSH2 0x100 EXP SWAP1 DIV PUSH1 0xFF AND SWAP1 POP SWAP2 SWAP1 POP JUMP JUMPDEST PUSH2 0x14F0 PUSH2 0x37E2 JUMP JUMPDEST DUP1 PUSH1 0xF SWAP1 DUP2 PUSH2 0x14FF SWAP2 SWAP1 PUSH2 0x54A5 JUMP JUMPDEST POP POP JUMP JUMPDEST CALLER PUSH1 0xA PUSH0 DUP3 PUSH20 0xFFFFFFFFFFFFFFFFFFFFFFFFFFFFFFFFFFFFFFFF AND PUSH20 0xFFFFFFFFFFFFFFFFFFFFFFFFFFFFFFFFFFFFFFFF AND DUP2 MSTORE PUSH1 0x20 ADD SWAP1 DUP2 MSTORE PUSH1 0x20 ADD PUSH0 KECCAK256 PUSH0 SWAP1 SLOAD SWAP1 PUSH2 0x100 EXP SWAP1 DIV PUSH1 0xFF AND PUSH2 0x158D JUMPI PUSH1 0x40 MLOAD PUSH32 0x8C379A000000000000000000000000000000000000000000000000000000000 DUP2 MSTORE PUSH1 0x4 ADD PUSH2 0x1584 SWAP1 PUSH2 0x5048 JUMP JUMPDEST PUSH1 0x40 MLOAD DUP1 SWAP2 SUB SWAP1 REVERT JUMPDEST DUP1 PUSH20 0xFFFFFFFFFFFFFFFFFFFFFFFFFFFFFFFFFFFFFFFF AND CALLER PUSH20 0xFFFFFFFFFFFFFFFFFFFFFFFFFFFFFFFFFFFFFFFF AND EQ PUSH2 0x15FB JUMPI PUSH1 0x40 MLOAD PUSH32 0x8C379A000000000000000000000000000000000000000000000000000000000 DUP2 MSTORE PUSH1 0x4 ADD PUSH2 0x15F2 SWAP1 PUSH2 0x50B0 JUMP JUMPDEST PUSH1 0x40 MLOAD DUP1 SWAP2 SUB SWAP1 REVERT JUMPDEST PUSH2 0x1603 PUSH2 0x34DF JUMP JUMPDEST PUSH2 0x160E CALLER PUSH1 0x1 PUSH2 0x352F JUMP JUMPDEST PUSH2 0x1616 PUSH2 0x3525 JUMP JUMPDEST POP JUMP JUMPDEST PUSH2 0x1621 PUSH2 0x34DF JUMP JUMPDEST PUSH2 0x1629 PUSH2 0x20FD JUMP JUMPDEST PUSH20 0xFFFFFFFFFFFFFFFFFFFFFFFFFFFFFFFFFFFFFFFF AND CALLER PUSH20 0xFFFFFFFFFFFFFFFFFFFFFFFFFFFFFFFFFFFFFFFF AND EQ DUP1 PUSH2 0x16AE JUMPI POP PUSH1 0xE PUSH0 SWAP1 SLOAD SWAP1 PUSH2 0x100 EXP SWAP1 DIV PUSH20 0xFFFFFFFFFFFFFFFFFFFFFFFFFFFFFFFFFFFFFFFF AND PUSH20 0xFFFFFFFFFFFFFFFFFFFFFFFFFFFFFFFFFFFFFFFF AND CALLER PUSH20 0xFFFFFFFFFFFFFFFFFFFFFFFFFFFFFFFFFFFFFFFF AND EQ JUMPDEST PUSH2 0x16ED JUMPI PUSH1 0x40 MLOAD PUSH32 0x8C379A000000000000000000000000000000000000000000000000000000000 DUP2 MSTORE PUSH1 0x4 ADD PUSH2 0x16E4 SWAP1 PUSH2 0x55BE JUMP JUMPDEST PUSH1 0x40 MLOAD DUP1 SWAP2 SUB SWAP1 REVERT JUMPDEST PUSH0 PUSH20 0xFFFFFFFFFFFFFFFFFFFFFFFFFFFFFFFFFFFFFFFF AND DUP4 PUSH20 0xFFFFFFFFFFFFFFFFFFFFFFFFFFFFFFFFFFFFFFFF AND SUB PUSH2 0x175B JUMPI PUSH1 0x40 MLOAD PUSH32 0x8C379A000000000000000000000000000000000000000000000000000000000 DUP2 MSTORE PUSH1 0x4 ADD PUSH2 0x1752 SWAP1 PUSH2 0x5626 JUMP JUMPDEST PUSH1 0x40 MLOAD DUP1 SWAP2 SUB SWAP1 REVERT JUMPDEST PUSH0 PUSH20 0xFFFFFFFFFFFFFFFFFFFFFFFFFFFFFFFFFFFFFFFF AND DUP3 PUSH20 0xFFFFFFFFFFFFFFFFFFFFFFFFFFFFFFFFFFFFFFFF AND SUB PUSH2 0x17C9 JUMPI PUSH1 0x40 MLOAD PUSH32 0x8C379A000000000000000000000000000000000000000000000000000000000 DUP2 MSTORE PUSH1 0x4 ADD PUSH2 0x17C0 SWAP1 PUSH2 0x5626 JUMP JUMPDEST PUSH1 0x40 MLOAD DUP1 SWAP2 SUB SWAP1 REVERT JUMPDEST DUP2 PUSH20 0xFFFFFFFFFFFFFFFFFFFFFFFFFFFFFFFFFFFFFFFF AND DUP4 PUSH20 0xFFFFFFFFFFFFFFFFFFFFFFFFFFFFFFFFFFFFFFFF AND SUB PUSH2 0x1837 JUMPI PUSH1 0x40 MLOAD PUSH32 0x8C379A000000000000000000000000000000000000000000000000000000000 DUP2 MSTORE PUSH1 0x4 ADD PUSH2 0x182E SWAP1 PUSH2 0x568E JUMP JUMPDEST PUSH1 0x40 MLOAD DUP1 SWAP2 SUB SWAP1 REVERT JUMPDEST PUSH1 0xA PUSH0 DUP5 PUSH20 0xFFFFFFFFFFFFFFFFFFFFFFFFFFFFFFFFFFFFFFFF AND PUSH20 0xFFFFFFFFFFFFFFFFFFFFFFFFFFFFFFFFFFFFFFFF AND DUP2 MSTORE PUSH1 0x20 ADD SWAP1 DUP2 MSTORE PUSH1 0x20 ADD PUSH0 KECCAK256 PUSH0 SWAP1 SLOAD SWAP1 PUSH2 0x100 EXP SWAP1 DIV PUSH1 0xFF AND PUSH2 0x18C0 JUMPI PUSH1 0x40 MLOAD PUSH32 0x8C379A000000000000000000000000000000000000000000000000000000000 DUP2 MSTORE PUSH1 0x4 ADD PUSH2 0x18B7 SWAP1 PUSH2 0x5048 JUMP JUMPDEST PUSH1 0x40 MLOAD DUP1 SWAP2 SUB SWAP1 REVERT JUMPDEST PUSH1 0xA PUSH0 DUP4 PUSH20 0xFFFFFFFFFFFFFFFFFFFFFFFFFFFFFFFFFFFFFFFF AND PUSH20 0xFFFFFFFFFFFFFFFFFFFFFFFFFFFFFFFFFFFFFFFF AND DUP2 MSTORE PUSH1 0x20 ADD SWAP1 DUP2 MSTORE PUSH1 0x20 ADD PUSH0 KECCAK256 PUSH0 SWAP1 SLOAD SWAP1 PUSH2 0x100 EXP SWAP1 DIV PUSH1 0xFF AND ISZERO PUSH2 0x194A JUMPI PUSH1 0x40 MLOAD PUSH32 0x8C379A000000000000000000000000000000000000000000000000000000000 DUP2 MSTORE PUSH1 0x4 ADD PUSH2 0x1941 SWAP1 PUSH2 0x56F6 JUMP JUMPDEST PUSH1 0x40 MLOAD DUP1 SWAP2 SUB SWAP1 REVERT JUMPDEST PUSH0 PUSH1 0x9 PUSH0 DUP6 PUSH20 0xFFFFFFFFFFFFFFFFFFFFFFFFFFFFFFFFFFFFFFFF AND PUSH20 0xFFFFFFFFFFFFFFFFFFFFFFFFFFFFFFFFFFFFFFFF AND DUP2 MSTORE PUSH1 0x20 ADD SWAP1 DUP2 MSTORE PUSH1 0x20 ADD PUSH0 KECCAK256 SLOAD SWAP1 POP PUSH1 0xB PUSH0 DUP3 DUP2 MSTORE PUSH1 0x20 ADD SWAP1 DUP2 MSTORE PUSH1 0x20 ADD PUSH0 KECCAK256 PUSH0 SWAP1 SLOAD SWAP1 PUSH2 0x100 EXP SWAP1 DIV PUSH1 0xFF AND ISZERO PUSH2 0x19E9 JUMPI PUSH1 0x40 MLOAD PUSH32 0x8C379A000000000000000000000000000000000000000000000000000000000 DUP2 MSTORE PUSH1 0x4 ADD PUSH2 0x19E0 SWAP1 PUSH2 0x5118 JUMP JUMPDEST PUSH1 0x40 MLOAD DUP1 SWAP2 SUB SWAP1 REVERT JUMPDEST PUSH1 0x1 PUSH1 0xB PUSH0 DUP4 DUP2 MSTORE PUSH1 0x20 ADD SWAP1 DUP2 MSTORE PUSH1 0x20 ADD PUSH0 KECCAK256 PUSH0 PUSH2 0x100 EXP DUP2 SLOAD DUP2 PUSH1 0xFF MUL NOT AND SWAP1 DUP4 ISZERO ISZERO MUL OR SWAP1 SSTORE POP PUSH1 0x1 PUSH1 0xC PUSH0 DUP7 PUSH20 0xFFFFFFFFFFFFFFFFFFFFFFFFFFFFFFFFFFFFFFFF AND PUSH20 0xFFFFFFFFFFFFFFFFFFFFFFFFFFFFFFFFFFFFFFFF AND DUP2 MSTORE PUSH1 0x20 ADD SWAP1 DUP2 MSTORE PUSH1 0x20 ADD PUSH0 KECCAK256 PUSH0 PUSH2 0x100 EXP DUP2 SLOAD DUP2 PUSH1 0xFF MUL NOT AND SWAP1 DUP4 ISZERO ISZERO MUL OR SWAP1 SSTORE POP PUSH1 0xD PUSH0 DUP2 SLOAD DUP1 SWAP3 SWAP2 SWAP1 PUSH2 0x1A79 SWAP1 PUSH2 0x5741 JUMP JUMPDEST SWAP2 SWAP1 POP SSTORE POP PUSH0 PUSH1 0xD SLOAD SWAP1 POP PUSH0 PUSH1 0x8 PUSH0 DUP5 DUP2 MSTORE PUSH1 0x20 ADD SWAP1 DUP2 MSTORE PUSH1 0x20 ADD PUSH0 KECCAK256 PUSH1 0x40 MLOAD DUP1 PUSH1 0xA0 ADD PUSH1 0x40 MSTORE SWAP1 DUP2 PUSH0 DUP3 ADD PUSH0 SWAP1 SLOAD SWAP1 PUSH2 0x100 EXP SWAP1 DIV PUSH20 0xFFFFFFFFFFFFFFFFFFFFFFFFFFFFFFFFFFFFFFFF AND PUSH20 0xFFFFFFFFFFFFFFFFFFFFFFFFFFFFFFFFFFFFFFFF AND PUSH20 0xFFFFFFFFFFFFFFFFFFFFFFFFFFFFFFFFFFFFFFFF AND DUP2 MSTORE PUSH1 0x20 ADD PUSH0 DUP3 ADD PUSH1 0x14 SWAP1 SLOAD SWAP1 PUSH2 0x100 EXP SWAP1 DIV PUSH8 0xFFFFFFFFFFFFFFFF AND PUSH8 0xFFFFFFFFFFFFFFFF AND PUSH8 0xFFFFFFFFFFFFFFFF AND DUP2 MSTORE PUSH1 0x20 ADD PUSH1 0x1 DUP3 ADD PUSH0 SWAP1 SLOAD SWAP1 PUSH2 0x100 EXP SWAP1 DIV PUSH8 0xFFFFFFFFFFFFFFFF AND PUSH8 0xFFFFFFFFFFFFFFFF AND PUSH8 0xFFFFFFFFFFFFFFFF AND DUP2 MSTORE PUSH1 0x20 ADD PUSH1 0x2 DUP3 ADD SLOAD DUP2 MSTORE PUSH1 0x20 ADD PUSH1 0x3 DUP3 ADD DUP1 SLOAD PUSH2 0x1B71 SWAP1 PUSH2 0x4F66 JUMP JUMPDEST DUP1 PUSH1 0x1F ADD PUSH1 0x20 DUP1 SWAP2 DIV MUL PUSH1 0x20 ADD PUSH1 0x40 MLOAD SWAP1 DUP2 ADD PUSH1 0x40 MSTORE DUP1 SWAP3 SWAP2 SWAP1 DUP2 DUP2 MSTORE PUSH1 0x20 ADD DUP3 DUP1 SLOAD PUSH2 0x1B9D SWAP1 PUSH2 0x4F66 JUMP JUMPDEST DUP1 ISZERO PUSH2 0x1BE8 JUMPI DUP1 PUSH1 0x1F LT PUSH2 0x1BBF JUMPI PUSH2 0x100 DUP1 DUP4 SLOAD DIV MUL DUP4 MSTORE SWAP2 PUSH1 0x20 ADD SWAP2 PUSH2 0x1BE8 JUMP JUMPDEST DUP3 ADD SWAP2 SWAP1 PUSH0 MSTORE PUSH1 0x20 PUSH0 KECCAK256 SWAP1 JUMPDEST DUP2 SLOAD DUP2 MSTORE SWAP1 PUSH1 0x1 ADD SWAP1 PUSH1 0x20 ADD DUP1 DUP4 GT PUSH2 0x1BCB JUMPI DUP3 SWAP1 SUB PUSH1 0x1F AND DUP3 ADD SWAP2 JUMPDEST POP POP POP POP POP DUP2 MSTORE POP POP SWAP1 POP PUSH0 PUSH1 0x40 MLOAD DUP1 PUSH1 0xA0 ADD PUSH1 0x40 MSTORE DUP1 DUP8 PUSH20 0xFFFFFFFFFFFFFFFFFFFFFFFFFFFFFFFFFFFFFFFF AND DUP2 MSTORE PUSH1 0x20 ADD TIMESTAMP PUSH8 0xFFFFFFFFFFFFFFFF AND DUP2 MSTORE PUSH1 0x20 ADD TIMESTAMP PUSH8 0xFFFFFFFFFFFFFFFF AND DUP2 MSTORE PUSH1 0x20 ADD DUP7 PUSH2 0x1C4A JUMPI DUP4 PUSH1 0x60 ADD MLOAD PUSH2 0x1C4E JUMP JUMPDEST PUSH0 DUP1 SHL JUMPDEST DUP2 MSTORE PUSH1 0x20 ADD DUP7 PUSH2 0x1C62 JUMPI DUP4 PUSH1 0x80 ADD MLOAD PUSH2 0x1C72 JUMP JUMPDEST PUSH1 0x40 MLOAD DUP1 PUSH1 0x20 ADD PUSH1 0x40 MSTORE DUP1 PUSH0 DUP2 MSTORE POP JUMPDEST DUP2 MSTORE POP SWAP1 POP DUP1 PUSH1 0x8 PUSH0 DUP6 DUP2 MSTORE PUSH1 0x20 ADD SWAP1 DUP2 MSTORE PUSH1 0x20 ADD PUSH0 KECCAK256 PUSH0 DUP3 ADD MLOAD DUP2 PUSH0 ADD PUSH0 PUSH2 0x100 EXP DUP2 SLOAD DUP2 PUSH20 0xFFFFFFFFFFFFFFFFFFFFFFFFFFFFFFFFFFFFFFFF MUL NOT AND SWAP1 DUP4 PUSH20 0xFFFFFFFFFFFFFFFFFFFFFFFFFFFFFFFFFFFFFFFF AND MUL OR SWAP1 SSTORE POP PUSH1 0x20 DUP3 ADD MLOAD DUP2 PUSH0 ADD PUSH1 0x14 PUSH2 0x100 EXP DUP2 SLOAD DUP2 PUSH8 0xFFFFFFFFFFFFFFFF MUL NOT AND SWAP1 DUP4 PUSH8 0xFFFFFFFFFFFFFFFF AND MUL OR SWAP1 SSTORE POP PUSH1 0x40 DUP3 ADD MLOAD DUP2 PUSH1 0x1 ADD PUSH0 PUSH2 0x100 EXP DUP2 SLOAD DUP2 PUSH8 0xFFFFFFFFFFFFFFFF MUL NOT AND SWAP1 DUP4 PUSH8 0xFFFFFFFFFFFFFFFF AND MUL OR SWAP1 SSTORE POP PUSH1 0x60 DUP3 ADD MLOAD DUP2 PUSH1 0x2 ADD SSTORE PUSH1 0x80 DUP3 ADD MLOAD DUP2 PUSH1 0x3 ADD SWAP1 DUP2 PUSH2 0x1D48 SWAP2 SWAP1 PUSH2 0x5788 JUMP JUMPDEST POP SWAP1 POP POP DUP3 PUSH1 0x9 PUSH0 DUP9 PUSH20 0xFFFFFFFFFFFFFFFFFFFFFFFFFFFFFFFFFFFFFFFF AND PUSH20 0xFFFFFFFFFFFFFFFFFFFFFFFFFFFFFFFFFFFFFFFF AND DUP2 MSTORE PUSH1 0x20 ADD SWAP1 DUP2 MSTORE PUSH1 0x20 ADD PUSH0 KECCAK256 DUP2 SWAP1 SSTORE POP PUSH1 0x1 PUSH1 0xA PUSH0 DUP9 PUSH20 0xFFFFFFFFFFFFFFFFFFFFFFFFFFFFFFFFFFFFFFFF AND PUSH20 0xFFFFFFFFFFFFFFFFFFFFFFFFFFFFFFFFFFFFFFFF AND DUP2 MSTORE PUSH1 0x20 ADD SWAP1 DUP2 MSTORE PUSH1 0x20 ADD PUSH0 KECCAK256 PUSH0 PUSH2 0x100 EXP DUP2 SLOAD DUP2 PUSH1 0xFF MUL NOT AND SWAP1 DUP4 ISZERO ISZERO MUL OR SWAP1 SSTORE POP PUSH2 0x1DED DUP7 DUP5 PUSH2 0x3869 JUMP JUMPDEST DUP4 DUP8 PUSH20 0xFFFFFFFFFFFFFFFFFFFFFFFFFFFFFFFFFFFFFFFF AND PUSH32 0xE8CCF73831B7F096110633FC510FB0D4E739D5DF4DA47CB20FDBCD06711DD6F5 TIMESTAMP PUSH1 0x40 MLOAD PUSH2 0x1E34 SWAP2 SWAP1 PUSH2 0x518B JUMP JUMPDEST PUSH1 0x40 MLOAD DUP1 SWAP2 SUB SWAP1 LOG3 DUP3 DUP7 PUSH20 0xFFFFFFFFFFFFFFFFFFFFFFFFFFFFFFFFFFFFFFFF AND PUSH32 0xFD0C93BE4723CB4C74010465B445D5F99EEF0354F49EE7C247FA9EF9093AA8ED TIMESTAMP PUSH1 0x40 MLOAD PUSH2 0x1E83 SWAP2 SWAP1 PUSH2 0x518B JUMP JUMPDEST PUSH1 0x40 MLOAD DUP1 SWAP2 SUB SWAP1 LOG3 DUP3 DUP7 PUSH20 0xFFFFFFFFFFFFFFFFFFFFFFFFFFFFFFFFFFFFFFFF AND DUP9 PUSH20 0xFFFFFFFFFFFFFFFFFFFFFFFFFFFFFFFFFFFFFFFF AND PUSH32 0x38F96748528AE3C7B2848A2BBD3E1F25EC23D6B0B0205522893A20C45BB4AAED TIMESTAMP PUSH1 0x40 MLOAD PUSH2 0x1EE9 SWAP2 SWAP1 PUSH2 0x518B JUMP JUMPDEST PUSH1 0x40 MLOAD DUP1 SWAP2 SUB SWAP1 LOG4 POP POP POP POP PUSH2 0x1EFD PUSH2 0x3525 JUMP JUMPDEST POP POP POP JUMP JUMPDEST PUSH0 PUSH2 0x1F0C DUP3 PUSH2 0x3420 JUMP JUMPDEST SWAP1 POP SWAP2 SWAP1 POP JUMP JUMPDEST PUSH1 0xE PUSH0 SWAP1 SLOAD SWAP1 PUSH2 0x100 EXP SWAP1 DIV PUSH20 0xFFFFFFFFFFFFFFFFFFFFFFFFFFFFFFFFFFFFFFFF AND DUP2 JUMP JUMPDEST PUSH0 DUP1 PUSH20 0xFFFFFFFFFFFFFFFFFFFFFFFFFFFFFFFFFFFFFFFF AND DUP3 PUSH20 0xFFFFFFFFFFFFFFFFFFFFFFFFFFFFFFFFFFFFFFFF AND SUB PUSH2 0x1FA9 JUMPI PUSH0 PUSH1 0x40 MLOAD PUSH32 0x89C62B6400000000000000000000000000000000000000000000000000000000 DUP2 MSTORE PUSH1 0x4 ADD PUSH2 0x1FA0 SWAP2 SWAP1 PUSH2 0x46DF JUMP JUMPDEST PUSH1 0x40 MLOAD DUP1 SWAP2 SUB SWAP1 REVERT JUMPDEST PUSH1 0x3 PUSH0 DUP4 PUSH20 0xFFFFFFFFFFFFFFFFFFFFFFFFFFFFFFFFFFFFFFFF AND PUSH20 0xFFFFFFFFFFFFFFFFFFFFFFFFFFFFFFFFFFFFFFFF AND DUP2 MSTORE PUSH1 0x20 ADD SWAP1 DUP2 MSTORE PUSH1 0x20 ADD PUSH0 KECCAK256 SLOAD SWAP1 POP SWAP2 SWAP1 POP JUMP JUMPDEST PUSH2 0x1FF6 PUSH2 0x37E2 JUMP JUMPDEST PUSH2 0x1FFF PUSH0 PUSH2 0x3886 JUMP JUMPDEST JUMP JUMPDEST PUSH2 0x2009 PUSH2 0x37E2 JUMP JUMPDEST PUSH0 PUSH20 0xFFFFFFFFFFFFFFFFFFFFFFFFFFFFFFFFFFFFFFFF AND DUP2 PUSH20 0xFFFFFFFFFFFFFFFFFFFFFFFFFFFFFFFFFFFFFFFF AND SUB PUSH2 0x2077 JUMPI PUSH1 0x40 MLOAD PUSH32 0x8C379A000000000000000000000000000000000000000000000000000000000 DUP2 MSTORE PUSH1 0x4 ADD PUSH2 0x206E SWAP1 PUSH2 0x5626 JUMP JUMPDEST PUSH1 0x40 MLOAD DUP1 SWAP2 SUB SWAP1 REVERT JUMPDEST DUP1 PUSH1 0xE PUSH0 PUSH2 0x100 EXP DUP2 SLOAD DUP2 PUSH20 0xFFFFFFFFFFFFFFFFFFFFFFFFFFFFFFFFFFFFFFFF MUL NOT AND SWAP1 DUP4 PUSH20 0xFFFFFFFFFFFFFFFFFFFFFFFFFFFFFFFFFFFFFFFF AND MUL OR SWAP1 SSTORE POP DUP1 PUSH20 0xFFFFFFFFFFFFFFFFFFFFFFFFFFFFFFFFFFFFFFFF AND PUSH32 0xBF1B7F0EA3D9F70F4A9732008ADF3ED3AACAA8E1D290ACE363B8A009A0D9C09E PUSH1 0x40 MLOAD PUSH1 0x40 MLOAD DUP1 SWAP2 SUB SWAP1 LOG2 POP JUMP JUMPDEST PUSH0 PUSH1 0x6 PUSH0 SWAP1 SLOAD SWAP1 PUSH2 0x100 EXP SWAP1 DIV PUSH20 0xFFFFFFFFFFFFFFFFFFFFFFFFFFFFFFFFFFFFFFFF AND SWAP1 POP SWAP1 JUMP JUMPDEST PUSH1 0x60 PUSH1 0x1 DUP1 SLOAD PUSH2 0x2134 SWAP1 PUSH2 0x4F66 JUMP JUMPDEST DUP1 PUSH1 0x1F ADD PUSH1 0x20 DUP1 SWAP2 DIV MUL PUSH1 0x20 ADD PUSH1 0x40 MLOAD SWAP1 DUP2 ADD PUSH1 0x40 MSTORE DUP1 SWAP3 SWAP2 SWAP1 DUP2 DUP2 MSTORE PUSH1 0x20 ADD DUP3 DUP1 SLOAD PUSH2 0x2160 SWAP1 PUSH2 0x4F66 JUMP JUMPDEST DUP1 ISZERO PUSH2 0x21AB JUMPI DUP1 PUSH1 0x1F LT PUSH2 0x2182 JUMPI PUSH2 0x100 DUP1 DUP4 SLOAD DIV MUL DUP4 MSTORE SWAP2 PUSH1 0x20 ADD SWAP2 PUSH2 0x21AB JUMP JUMPDEST DUP3 ADD SWAP2 SWAP1 PUSH0 MSTORE PUSH1 0x20 PUSH0 KECCAK256 SWAP1 JUMPDEST DUP2 SLOAD DUP2 MSTORE SWAP1 PUSH1 0x1 ADD SWAP1 PUSH1 0x20 ADD DUP1 DUP4 GT PUSH2 0x218E JUMPI DUP3 SWAP1 SUB PUSH1 0x1F AND DUP3 ADD SWAP2 JUMPDEST POP POP POP POP POP SWAP1 POP SWAP1 JUMP JUMPDEST PUSH1 0x60 PUSH1 0xA PUSH0 DUP4 PUSH20 0xFFFFFFFFFFFFFFFFFFFFFFFFFFFFFFFFFFFFFFFF AND PUSH20 0xFFFFFFFFFFFFFFFFFFFFFFFFFFFFFFFFFFFFFFFF AND DUP2 MSTORE PUSH1 0x20 ADD SWAP1 DUP2 MSTORE PUSH1 0x20 ADD PUSH0 KECCAK256 PUSH0 SWAP1 SLOAD SWAP1 PUSH2 0x100 EXP SWAP1 DIV PUSH1 0xFF AND PUSH2 0x2240 JUMPI PUSH1 0x40 MLOAD PUSH32 0x8C379A000000000000000000000000000000000000000000000000000000000 DUP2 MSTORE PUSH1 0x4 ADD PUSH2 0x2237 SWAP1 PUSH2 0x5048 JUMP JUMPDEST PUSH1 0x40 MLOAD DUP1 SWAP2 SUB SWAP1 REVERT JUMPDEST PUSH0 PUSH1 0x9 PUSH0 DUP5 PUSH20 0xFFFFFFFFFFFFFFFFFFFFFFFFFFFFFFFFFFFFFFFF AND PUSH20 0xFFFFFFFFFFFFFFFFFFFFFFFFFFFFFFFFFFFFFFFF AND DUP2 MSTORE PUSH1 0x20 ADD SWAP1 DUP2 MSTORE PUSH1 0x20 ADD PUSH0 KECCAK256 SLOAD SWAP1 POP PUSH1 0x8 PUSH0 DUP3 DUP2 MSTORE PUSH1 0x20 ADD SWAP1 DUP2 MSTORE PUSH1 0x20 ADD PUSH0 KECCAK256 PUSH1 0x3 ADD DUP1 SLOAD PUSH2 0x22A0 SWAP1 PUSH2 0x4F66 JUMP JUMPDEST DUP1 PUSH1 0x1F ADD PUSH1 0x20 DUP1 SWAP2 DIV MUL PUSH1 0x20 ADD PUSH1 0x40 MLOAD SWAP1 DUP2 ADD PUSH1 0x40 MSTORE DUP1 SWAP3 SWAP2 SWAP1 DUP2 DUP2 MSTORE PUSH1 0x20 ADD DUP3 DUP1 SLOAD PUSH2 0x22CC SWAP1 PUSH2 0x4F66 JUMP JUMPDEST DUP1 ISZERO PUSH2 0x2317 JUMPI DUP1 PUSH1 0x1F LT PUSH2 0x22EE JUMPI PUSH2 0x100 DUP1 DUP4 SLOAD DIV MUL DUP4 MSTORE SWAP2 PUSH1 0x20 ADD SWAP2 PUSH2 0x2317 JUMP JUMPDEST DUP3 ADD SWAP2 SWAP1 PUSH0 MSTORE PUSH1 0x20 PUSH0 KECCAK256 SWAP1 JUMPDEST DUP2 SLOAD DUP2 MSTORE SWAP1 PUSH1 0x1 ADD SWAP1 PUSH1 0x20 ADD DUP1 DUP4 GT PUSH2 0x22FA JUMPI DUP3 SWAP1 SUB PUSH1 0x1F AND DUP3 ADD SWAP2 JUMPDEST POP POP POP POP POP SWAP2 POP POP SWAP2 SWAP1 POP JUMP JUMPDEST PUSH1 0x40 MLOAD PUSH32 0x8C379A000000000000000000000000000000000000000000000000000000000 DUP2 MSTORE PUSH1 0x4 ADD PUSH2 0x2356 SWAP1 PUSH2 0x4FE0 JUMP JUMPDEST PUSH1 0x40 MLOAD DUP1 SWAP2 SUB SWAP1 REVERT JUMPDEST PUSH2 0x236A DUP5 DUP5 DUP5 PUSH2 0x1011 JUMP JUMPDEST PUSH2 0x237E PUSH2 0x2375 PUSH2 0x3711 JUMP JUMPDEST DUP6 DUP6 DUP6 DUP6 PUSH2 0x3949 JUMP JUMPDEST POP POP POP POP JUMP JUMPDEST PUSH0 PUSH2 0x238D PUSH2 0x34DF JUMP JUMPDEST PUSH1 0xE PUSH1 0x14 SWAP1 SLOAD SWAP1 PUSH2 0x100 EXP SWAP1 DIV PUSH1 0xFF AND PUSH2 0x23DC JUMPI PUSH1 0x40 MLOAD PUSH32 0x8C379A000000000000000000000000000000000000000000000000000000000 DUP2 MSTORE PUSH1 0x4 ADD PUSH2 0x23D3 SWAP1 PUSH2 0x58A1 JUMP JUMPDEST PUSH1 0x40 MLOAD DUP1 SWAP2 SUB SWAP1 REVERT JUMPDEST PUSH1 0xA PUSH0 CALLER PUSH20 0xFFFFFFFFFFFFFFFFFFFFFFFFFFFFFFFFFFFFFFFF AND PUSH20 0xFFFFFFFFFFFFFFFFFFFFFFFFFFFFFFFFFFFFFFFF AND DUP2 MSTORE PUSH1 0x20 ADD SWAP1 DUP2 MSTORE PUSH1 0x20 ADD PUSH0 KECCAK256 PUSH0 SWAP1 SLOAD SWAP1 PUSH2 0x100 EXP SWAP1 DIV PUSH1 0xFF AND ISZERO PUSH2 0x2466 JUMPI PUSH1 0x40 MLOAD PUSH32 0x8C379A000000000000000000000000000000000000000000000000000000000 DUP2 MSTORE PUSH1 0x4 ADD PUSH2 0x245D SWAP1 PUSH2 0x56F6 JUMP JUMPDEST PUSH1 0x40 MLOAD DUP1 SWAP2 SUB SWAP1 REVERT JUMPDEST PUSH1 0xD PUSH0 DUP2 SLOAD DUP1 SWAP3 SWAP2 SWAP1 PUSH2 0x2478 SWAP1 PUSH2 0x5741 JUMP JUMPDEST SWAP2 SWAP1 POP SSTORE POP PUSH0 PUSH1 0xD SLOAD SWAP1 POP PUSH0 PUSH1 0x40 MLOAD DUP1 PUSH1 0xA0 ADD PUSH1 0x40 MSTORE DUP1 CALLER PUSH20 0xFFFFFFFFFFFFFFFFFFFFFFFFFFFFFFFFFFFFFFFF AND DUP2 MSTORE PUSH1 0x20 ADD TIMESTAMP PUSH8 0xFFFFFFFFFFFFFFFF AND DUP2 MSTORE PUSH1 0x20 ADD TIMESTAMP PUSH8 0xFFFFFFFFFFFFFFFF AND DUP2 MSTORE PUSH1 0x20 ADD PUSH0 DUP1 SHL DUP2 MSTORE PUSH1 0x20 ADD PUSH1 0x40 MLOAD DUP1 PUSH1 0x20 ADD PUSH1 0x40 MSTORE DUP1 PUSH0 DUP2 MSTORE POP DUP2 MSTORE POP SWAP1 POP DUP1 PUSH1 0x8 PUSH0 DUP5 DUP2 MSTORE PUSH1 0x20 ADD SWAP1 DUP2 MSTORE PUSH1 0x20 ADD PUSH0 KECCAK256 PUSH0 DUP3 ADD MLOAD DUP2 PUSH0 ADD PUSH0 PUSH2 0x100 EXP DUP2 SLOAD DUP2 PUSH20 0xFFFFFFFFFFFFFFFFFFFFFFFFFFFFFFFFFFFFFFFF MUL NOT AND SWAP1 DUP4 PUSH20 0xFFFFFFFFFFFFFFFFFFFFFFFFFFFFFFFFFFFFFFFF AND MUL OR SWAP1 SSTORE POP PUSH1 0x20 DUP3 ADD MLOAD DUP2 PUSH0 ADD PUSH1 0x14 PUSH2 0x100 EXP DUP2 SLOAD DUP2 PUSH8 0xFFFFFFFFFFFFFFFF MUL NOT AND SWAP1 DUP4 PUSH8 0xFFFFFFFFFFFFFFFF AND MUL OR SWAP1 SSTORE POP PUSH1 0x40 DUP3 ADD MLOAD DUP2 PUSH1 0x1 ADD PUSH0 PUSH2 0x100 EXP DUP2 SLOAD DUP2 PUSH8 0xFFFFFFFFFFFFFFFF MUL NOT AND SWAP1 DUP4 PUSH8 0xFFFFFFFFFFFFFFFF AND MUL OR SWAP1 SSTORE POP PUSH1 0x60 DUP3 ADD MLOAD DUP2 PUSH1 0x2 ADD SSTORE PUSH1 0x80 DUP3 ADD MLOAD DUP2 PUSH1 0x3 ADD SWAP1 DUP2 PUSH2 0x25B8 SWAP2 SWAP1 PUSH2 0x5788 JUMP JUMPDEST POP SWAP1 POP POP DUP2 PUSH1 0x9 PUSH0 CALLER PUSH20 0xFFFFFFFFFFFFFFFFFFFFFFFFFFFFFFFFFFFFFFFF AND PUSH20 0xFFFFFFFFFFFFFFFFFFFFFFFFFFFFFFFFFFFFFFFF AND DUP2 MSTORE PUSH1 0x20 ADD SWAP1 DUP2 MSTORE PUSH1 0x20 ADD PUSH0 KECCAK256 DUP2 SWAP1 SSTORE POP PUSH1 0x1 PUSH1 0xA PUSH0 CALLER PUSH20 0xFFFFFFFFFFFFFFFFFFFFFFFFFFFFFFFFFFFFFFFF AND PUSH20 0xFFFFFFFFFFFFFFFFFFFFFFFFFFFFFFFFFFFFFFFF AND DUP2 MSTORE PUSH1 0x20 ADD SWAP1 DUP2 MSTORE PUSH1 0x20 ADD PUSH0 KECCAK256 PUSH0 PUSH2 0x100 EXP DUP2 SLOAD DUP2 PUSH1 0xFF MUL NOT AND SWAP1 DUP4 ISZERO ISZERO MUL OR SWAP1 SSTORE POP PUSH2 0x265D CALLER DUP4 PUSH2 0x3869 JUMP JUMPDEST DUP2 CALLER PUSH20 0xFFFFFFFFFFFFFFFFFFFFFFFFFFFFFFFFFFFFFFFF AND PUSH32 0xFD0C93BE4723CB4C74010465B445D5F99EEF0354F49EE7C247FA9EF9093AA8ED TIMESTAMP PUSH1 0x40 MLOAD PUSH2 0x26A4 SWAP2 SWAP1 PUSH2 0x518B JUMP JUMPDEST PUSH1 0x40 MLOAD DUP1 SWAP2 SUB SWAP1 LOG3 DUP2 SWAP3 POP POP POP PUSH2 0x26B9 PUSH2 0x3525 JUMP JUMPDEST SWAP1 JUMP JUMPDEST PUSH0 PUSH1 0xA PUSH0 DUP4 PUSH20 0xFFFFFFFFFFFFFFFFFFFFFFFFFFFFFFFFFFFFFFFF AND PUSH20 0xFFFFFFFFFFFFFFFFFFFFFFFFFFFFFFFFFFFFFFFF AND DUP2 MSTORE PUSH1 0x20 ADD SWAP1 DUP2 MSTORE PUSH1 0x20 ADD PUSH0 KECCAK256 PUSH0 SWAP1 SLOAD SWAP1 PUSH2 0x100 EXP SWAP1 DIV PUSH1 0xFF AND SWAP1 POP SWAP2 SWAP1 POP JUMP JUMPDEST PUSH1 0xE PUSH1 0x14 SWAP1 SLOAD SWAP1 PUSH2 0x100 EXP SWAP1 DIV PUSH1 0xFF AND DUP2 JUMP JUMPDEST PUSH1 0x60 PUSH2 0x272C DUP3 PUSH2 0x3420 JUMP JUMPDEST POP PUSH0 PUSH2 0x2736 PUSH2 0x3AF5 JUMP JUMPDEST SWAP1 POP PUSH0 DUP2 MLOAD GT PUSH2 0x2754 JUMPI PUSH1 0x40 MLOAD DUP1 PUSH1 0x20 ADD PUSH1 0x40 MSTORE DUP1 PUSH0 DUP2 MSTORE POP PUSH2 0x277F JUMP JUMPDEST DUP1 PUSH2 0x275E DUP5 PUSH2 0x3B85 JUMP JUMPDEST PUSH1 0x40 MLOAD PUSH1 0x20 ADD PUSH2 0x276F SWAP3 SWAP2 SWAP1 PUSH2 0x58F9 JUMP JUMPDEST PUSH1 0x40 MLOAD PUSH1 0x20 DUP2 DUP4 SUB SUB DUP2 MSTORE SWAP1 PUSH1 0x40 MSTORE JUMPDEST SWAP2 POP POP SWAP2 SWAP1 POP JUMP JUMPDEST CALLER PUSH1 0xA PUSH0 DUP3 PUSH20 0xFFFFFFFFFFFFFFFFFFFFFFFFFFFFFFFFFFFFFFFF AND PUSH20 0xFFFFFFFFFFFFFFFFFFFFFFFFFFFFFFFFFFFFFFFF AND DUP2 MSTORE PUSH1 0x20 ADD SWAP1 DUP2 MSTORE PUSH1 0x20 ADD PUSH0 KECCAK256 PUSH0 SWAP1 SLOAD SWAP1 PUSH2 0x100 EXP SWAP1 DIV PUSH1 0xFF AND PUSH2 0x2811 JUMPI PUSH1 0x40 MLOAD PUSH32 0x8C379A000000000000000000000000000000000000000000000000000000000 DUP2 MSTORE PUSH1 0x4 ADD PUSH2 0x2808 SWAP1 PUSH2 0x5048 JUMP JUMPDEST PUSH1 0x40 MLOAD DUP1 SWAP2 SUB SWAP1 REVERT JUMPDEST DUP1 PUSH20 0xFFFFFFFFFFFFFFFFFFFFFFFFFFFFFFFFFFFFFFFF AND CALLER PUSH20 0xFFFFFFFFFFFFFFFFFFFFFFFFFFFFFFFFFFFFFFFF AND EQ PUSH2 0x287F JUMPI PUSH1 0x40 MLOAD PUSH32 0x8C379A000000000000000000000000000000000000000000000000000000000 DUP2 MSTORE PUSH1 0x4 ADD PUSH2 0x2876 SWAP1 PUSH2 0x50B0 JUMP JUMPDEST PUSH1 0x40 MLOAD DUP1 SWAP2 SUB SWAP1 REVERT JUMPDEST CALLER PUSH1 0xA PUSH0 DUP3 PUSH20 0xFFFFFFFFFFFFFFFFFFFFFFFFFFFFFFFFFFFFFFFF AND PUSH20 0xFFFFFFFFFFFFFFFFFFFFFFFFFFFFFFFFFFFFFFFF AND DUP2 MSTORE PUSH1 0x20 ADD SWAP1 DUP2 MSTORE PUSH1 0x20 ADD PUSH0 KECCAK256 PUSH0 SWAP1 SLOAD SWAP1 PUSH2 0x100 EXP SWAP1 DIV PUSH1 0xFF AND PUSH2 0x2909 JUMPI PUSH1 0x40 MLOAD PUSH32 0x8C379A000000000000000000000000000000000000000000000000000000000 DUP2 MSTORE PUSH1 0x4 ADD PUSH2 0x2900 SWAP1 PUSH2 0x5048 JUMP JUMPDEST PUSH1 0x40 MLOAD DUP1 SWAP2 SUB SWAP1 REVERT JUMPDEST PUSH0 PUSH1 0x9 PUSH0 DUP4 PUSH20 0xFFFFFFFFFFFFFFFFFFFFFFFFFFFFFFFFFFFFFFFF AND PUSH20 0xFFFFFFFFFFFFFFFFFFFFFFFFFFFFFFFFFFFFFFFF AND DUP2 MSTORE PUSH1 0x20 ADD SWAP1 DUP2 MSTORE PUSH1 0x20 ADD PUSH0 KECCAK256 SLOAD SWAP1 POP PUSH1 0xB PUSH0 DUP3 DUP2 MSTORE PUSH1 0x20 ADD SWAP1 DUP2 MSTORE PUSH1 0x20 ADD PUSH0 KECCAK256 PUSH0 SWAP1 SLOAD SWAP1 PUSH2 0x100 EXP SWAP1 DIV PUSH1 0xFF AND ISZERO PUSH2 0x29A8 JUMPI PUSH1 0x40 MLOAD PUSH32 0x8C379A000000000000000000000000000000000000000000000000000000000 DUP2 MSTORE PUSH1 0x4 ADD PUSH2 0x299F SWAP1 PUSH2 0x5118 JUMP JUMPDEST PUSH1 0x40 MLOAD DUP1 SWAP2 SUB SWAP1 REVERT JUMPDEST PUSH2 0x29B0 PUSH2 0x34DF JUMP JUMPDEST PUSH0 PUSH1 0x9 PUSH0 CALLER PUSH20 0xFFFFFFFFFFFFFFFFFFFFFFFFFFFFFFFFFFFFFFFF AND PUSH20 0xFFFFFFFFFFFFFFFFFFFFFFFFFFFFFFFFFFFFFFFF AND DUP2 MSTORE PUSH1 0x20 ADD SWAP1 DUP2 MSTORE PUSH1 0x20 ADD PUSH0 KECCAK256 SLOAD SWAP1 POP PUSH0 PUSH1 0x8 PUSH0 DUP4 DUP2 MSTORE PUSH1 0x20 ADD SWAP1 DUP2 MSTORE PUSH1 0x20 ADD PUSH0 KECCAK256 SWAP1 POP DUP7 DUP7 DUP3 PUSH1 0x3 ADD SWAP2 DUP3 PUSH2 0x2A18 SWAP3 SWAP2 SWAP1 PUSH2 0x5380 JUMP JUMPDEST POP TIMESTAMP DUP2 PUSH1 0x1 ADD PUSH0 PUSH2 0x100 EXP DUP2 SLOAD DUP2 PUSH8 0xFFFFFFFFFFFFFFFF MUL NOT AND SWAP1 DUP4 PUSH8 0xFFFFFFFFFFFFFFFF AND MUL OR SWAP1 SSTORE POP DUP2 CALLER PUSH20 0xFFFFFFFFFFFFFFFFFFFFFFFFFFFFFFFFFFFFFFFF AND PUSH32 0xEEA13EC8B49FB404F99B1BF8FD2589A5B2FCC7EB6D17E9A0768D55148A807157 TIMESTAMP PUSH1 0x40 MLOAD PUSH2 0x2A8A SWAP2 SWAP1 PUSH2 0x518B JUMP JUMPDEST PUSH1 0x40 MLOAD DUP1 SWAP2 SUB SWAP1 LOG3 POP POP PUSH2 0x2A9C PUSH2 0x3525 JUMP JUMPDEST POP POP POP POP POP JUMP JUMPDEST PUSH0 PUSH1 0xA PUSH0 DUP4 PUSH20 0xFFFFFFFFFFFFFFFFFFFFFFFFFFFFFFFFFFFFFFFF AND PUSH20 0xFFFFFFFFFFFFFFFFFFFFFFFFFFFFFFFFFFFFFFFF AND DUP2 MSTORE PUSH1 0x20 ADD SWAP1 DUP2 MSTORE PUSH1 0x20 ADD PUSH0 KECCAK256 PUSH0 SWAP1 SLOAD SWAP1 PUSH2 0x100 EXP SWAP1 DIV PUSH1 0xFF AND PUSH2 0x2AFA JUMPI PUSH0 SWAP1 POP PUSH2 0x2B5D JUMP JUMPDEST PUSH0 PUSH1 0x9 PUSH0 DUP5 PUSH20 0xFFFFFFFFFFFFFFFFFFFFFFFFFFFFFFFFFFFFFFFF AND PUSH20 0xFFFFFFFFFFFFFFFFFFFFFFFFFFFFFFFFFFFFFFFF AND DUP2 MSTORE PUSH1 0x20 ADD SWAP1 DUP2 MSTORE PUSH1 0x20 ADD PUSH0 KECCAK256 SLOAD SWAP1 POP PUSH1 0xB PUSH0 DUP3 DUP2 MSTORE PUSH1 0x20 ADD SWAP1 DUP2 MSTORE PUSH1 0x20 ADD PUSH0 KECCAK256 PUSH0 SWAP1 SLOAD SWAP1 PUSH2 0x100 EXP SWAP1 DIV PUSH1 0xFF AND SWAP2 POP POP JUMPDEST SWAP2 SWAP1 POP JUMP JUMPDEST PUSH0 PUSH1 0xE PUSH0 SWAP1 SLOAD SWAP1 PUSH2 0x100 EXP SWAP1 DIV PUSH20 0xFFFFFFFFFFFFFFFFFFFFFFFFFFFFFFFFFFFFFFFF AND PUSH20 0xFFFFFFFFFFFFFFFFFFFFFFFFFFFFFFFFFFFFFFFF AND CALLER PUSH20 0xFFFFFFFFFFFFFFFFFFFFFFFFFFFFFFFFFFFFFFFF AND EQ DUP1 PUSH2 0x2BCA JUMPI POP PUSH1 0xE PUSH1 0x14 SWAP1 SLOAD SWAP1 PUSH2 0x100 EXP SWAP1 DIV PUSH1 0xFF AND JUMPDEST DUP1 PUSH2 0x2C07 JUMPI POP PUSH2 0x2BD8 PUSH2 0x20FD JUMP JUMPDEST PUSH20 0xFFFFFFFFFFFFFFFFFFFFFFFFFFFFFFFFFFFFFFFF AND CALLER PUSH20 0xFFFFFFFFFFFFFFFFFFFFFFFFFFFFFFFFFFFFFFFF AND EQ JUMPDEST PUSH2 0x2C46 JUMPI PUSH1 0x40 MLOAD PUSH32 0x8C379A000000000000000000000000000000000000000000000000000000000 DUP2 MSTORE PUSH1 0x4 ADD PUSH2 0x2C3D SWAP1 PUSH2 0x55BE JUMP JUMPDEST PUSH1 0x40 MLOAD DUP1 SWAP2 SUB SWAP1 REVERT JUMPDEST PUSH2 0x2C4E PUSH2 0x34DF JUMP JUMPDEST PUSH1 0xA PUSH0 DUP4 PUSH20 0xFFFFFFFFFFFFFFFFFFFFFFFFFFFFFFFFFFFFFFFF AND PUSH20 0xFFFFFFFFFFFFFFFFFFFFFFFFFFFFFFFFFFFFFFFF AND DUP2 MSTORE PUSH1 0x20 ADD SWAP1 DUP2 MSTORE PUSH1 0x20 ADD PUSH0 KECCAK256 PUSH0 SWAP1 SLOAD SWAP1 PUSH2 0x100 EXP SWAP1 DIV PUSH1 0xFF AND ISZERO PUSH2 0x2CD8 JUMPI PUSH1 0x40 MLOAD PUSH32 0x8C379A000000000000000000000000000000000000000000000000000000000 DUP2 MSTORE PUSH1 0x4 ADD PUSH2 0x2CCF SWAP1 PUSH2 0x56F6 JUMP JUMPDEST PUSH1 0x40 MLOAD DUP1 SWAP2 SUB SWAP1 REVERT JUMPDEST PUSH0 PUSH20 0xFFFFFFFFFFFFFFFFFFFFFFFFFFFFFFFFFFFFFFFF AND DUP3 PUSH20 0xFFFFFFFFFFFFFFFFFFFFFFFFFFFFFFFFFFFFFFFF AND SUB PUSH2 0x2D46 JUMPI PUSH1 0x40 MLOAD PUSH32 0x8C379A000000000000000000000000000000000000000000000000000000000 DUP2 MSTORE PUSH1 0x4 ADD PUSH2 0x2D3D SWAP1 PUSH2 0x5626 JUMP JUMPDEST PUSH1 0x40 MLOAD DUP1 SWAP2 SUB SWAP1 REVERT JUMPDEST PUSH1 0xD PUSH0 DUP2 SLOAD DUP1 SWAP3 SWAP2 SWAP1 PUSH2 0x2D58 SWAP1 PUSH2 0x5741 JUMP JUMPDEST SWAP2 SWAP1 POP SSTORE POP PUSH0 PUSH1 0xD SLOAD SWAP1 POP PUSH0 PUSH1 0x40 MLOAD DUP1 PUSH1 0xA0 ADD PUSH1 0x40 MSTORE DUP1 DUP6 PUSH20 0xFFFFFFFFFFFFFFFFFFFFFFFFFFFFFFFFFFFFFFFF AND DUP2 MSTORE PUSH1 0x20 ADD TIMESTAMP PUSH8 0xFFFFFFFFFFFFFFFF AND DUP2 MSTORE PUSH1 0x20 ADD TIMESTAMP PUSH8 0xFFFFFFFFFFFFFFFF AND DUP2 MSTORE PUSH1 0x20 ADD PUSH0 DUP1 SHL DUP2 MSTORE PUSH1 0x20 ADD PUSH1 0x40 MLOAD DUP1 PUSH1 0x20 ADD PUSH1 0x40 MSTORE DUP1 PUSH0 DUP2 MSTORE POP DUP2 MSTORE POP SWAP1 POP DUP1 PUSH1 0x8 PUSH0 DUP5 DUP2 MSTORE PUSH1 0x20 ADD SWAP1 DUP2 MSTORE PUSH1 0x20 ADD PUSH0 KECCAK256 PUSH0 DUP3 ADD MLOAD DUP2 PUSH0 ADD PUSH0 PUSH2 0x100 EXP DUP2 SLOAD DUP2 PUSH20 0xFFFFFFFFFFFFFFFFFFFFFFFFFFFFFFFFFFFFFFFF MUL NOT AND SWAP1 DUP4 PUSH20 0xFFFFFFFFFFFFFFFFFFFFFFFFFFFFFFFFFFFFFFFF AND MUL OR SWAP1 SSTORE POP PUSH1 0x20 DUP3 ADD MLOAD DUP2 PUSH0 ADD PUSH1 0x14 PUSH2 0x100 EXP DUP2 SLOAD DUP2 PUSH8 0xFFFFFFFFFFFFFFFF MUL NOT AND SWAP1 DUP4 PUSH8 0xFFFFFFFFFFFFFFFF AND MUL OR SWAP1 SSTORE POP PUSH1 0x40 DUP3 ADD MLOAD DUP2 PUSH1 0x1 ADD PUSH0 PUSH2 0x100 EXP DUP2 SLOAD DUP2 PUSH8 0xFFFFFFFFFFFFFFFF MUL NOT AND SWAP1 DUP4 PUSH8 0xFFFFFFFFFFFFFFFF AND MUL OR SWAP1 SSTORE POP PUSH1 0x60 DUP3 ADD MLOAD DUP2 PUSH1 0x2 ADD SSTORE PUSH1 0x80 DUP3 ADD MLOAD DUP2 PUSH1 0x3 ADD SWAP1 DUP2 PUSH2 0x2E98 SWAP2 SWAP1 PUSH2 0x5788 JUMP JUMPDEST POP SWAP1 POP POP DUP2 PUSH1 0x9 PUSH0 DUP7 PUSH20 0xFFFFFFFFFFFFFFFFFFFFFFFFFFFFFFFFFFFFFFFF AND PUSH20 0xFFFFFFFFFFFFFFFFFFFFFFFFFFFFFFFFFFFFFFFF AND DUP2 MSTORE PUSH1 0x20 ADD SWAP1 DUP2 MSTORE PUSH1 0x20 ADD PUSH0 KECCAK256 DUP2 SWAP1 SSTORE POP PUSH1 0x1 PUSH1 0xA PUSH0 DUP7 PUSH20 0xFFFFFFFFFFFFFFFFFFFFFFFFFFFFFFFFFFFFFFFF AND PUSH20 0xFFFFFFFFFFFFFFFFFFFFFFFFFFFFFFFFFFFFFFFF AND DUP2 MSTORE PUSH1 0x20 ADD SWAP1 DUP2 MSTORE PUSH1 0x20 ADD PUSH0 KECCAK256 PUSH0 PUSH2 0x100 EXP DUP2 SLOAD DUP2 PUSH1 0xFF MUL NOT AND SWAP1 DUP4 ISZERO ISZERO MUL OR SWAP1 SSTORE POP PUSH2 0x2F3D DUP5 DUP4 PUSH2 0x3869 JUMP JUMPDEST DUP2 DUP5 PUSH20 0xFFFFFFFFFFFFFFFFFFFFFFFFFFFFFFFFFFFFFFFF AND PUSH32 0xFD0C93BE4723CB4C74010465B445D5F99EEF0354F49EE7C247FA9EF9093AA8ED TIMESTAMP PUSH1 0x40 MLOAD PUSH2 0x2F84 SWAP2 SWAP1 PUSH2 0x518B JUMP JUMPDEST PUSH1 0x40 MLOAD DUP1 SWAP2 SUB SWAP1 LOG3 DUP2 SWAP3 POP POP POP PUSH2 0x2F99 PUSH2 0x3525 JUMP JUMPDEST SWAP2 SWAP1 POP JUMP JUMPDEST PUSH0 PUSH1 0x5 PUSH0 DUP5 PUSH20 0xFFFFFFFFFFFFFFFFFFFFFFFFFFFFFFFFFFFFFFFF AND PUSH20 0xFFFFFFFFFFFFFFFFFFFFFFFFFFFFFFFFFFFFFFFF AND DUP2 MSTORE PUSH1 0x20 ADD SWAP1 DUP2 MSTORE PUSH1 0x20 ADD PUSH0 KECCAK256 PUSH0 DUP4 PUSH20 0xFFFFFFFFFFFFFFFFFFFFFFFFFFFFFFFFFFFFFFFF AND PUSH20 0xFFFFFFFFFFFFFFFFFFFFFFFFFFFFFFFFFFFFFFFF AND DUP2 MSTORE PUSH1 0x20 ADD SWAP1 DUP2 MSTORE PUSH1 0x20 ADD PUSH0 KECCAK256 PUSH0 SWAP1 SLOAD SWAP1 PUSH2 0x100 EXP SWAP1 DIV PUSH1 0xFF AND SWAP1 POP SWAP3 SWAP2 POP POP JUMP JUMPDEST PUSH2 0x3034 PUSH2 0x447C JUMP JUMPDEST PUSH2 0x303D DUP3 PUSH2 0x3C4F JUMP JUMPDEST PUSH2 0x307C JUMPI PUSH1 0x40 MLOAD PUSH32 0x8C379A000000000000000000000000000000000000000000000000000000000 DUP2 MSTORE PUSH1 0x4 ADD PUSH2 0x3073 SWAP1 PUSH2 0x5966 JUMP JUMPDEST PUSH1 0x40 MLOAD DUP1 SWAP2 SUB SWAP1 REVERT JUMPDEST PUSH1 0x8 PUSH0 DUP4 DUP2 MSTORE PUSH1 0x20 ADD SWAP1 DUP2 MSTORE PUSH1 0x20 ADD PUSH0 KECCAK256 PUSH1 0x40 MLOAD DUP1 PUSH1 0xA0 ADD PUSH1 0x40 MSTORE SWAP1 DUP2 PUSH0 DUP3 ADD PUSH0 SWAP1 SLOAD SWAP1 PUSH2 0x100 EXP SWAP1 DIV PUSH20 0xFFFFFFFFFFFFFFFFFFFFFFFFFFFFFFFFFFFFFFFF AND PUSH20 0xFFFFFFFFFFFFFFFFFFFFFFFFFFFFFFFFFFFFFFFF AND PUSH20 0xFFFFFFFFFFFFFFFFFFFFFFFFFFFFFFFFFFFFFFFF AND DUP2 MSTORE PUSH1 0x20 ADD PUSH0 DUP3 ADD PUSH1 0x14 SWAP1 SLOAD SWAP1 PUSH2 0x100 EXP SWAP1 DIV PUSH8 0xFFFFFFFFFFFFFFFF AND PUSH8 0xFFFFFFFFFFFFFFFF AND PUSH8 0xFFFFFFFFFFFFFFFF AND DUP2 MSTORE PUSH1 0x20 ADD PUSH1 0x1 DUP3 ADD PUSH0 SWAP1 SLOAD SWAP1 PUSH2 0x100 EXP SWAP1 DIV PUSH8 0xFFFFFFFFFFFFFFFF AND PUSH8 0xFFFFFFFFFFFFFFFF AND PUSH8 0xFFFFFFFFFFFFFFFF AND DUP2 MSTORE PUSH1 0x20 ADD PUSH1 0x2 DUP3 ADD SLOAD DUP2 MSTORE PUSH1 0x20 ADD PUSH1 0x3 DUP3 ADD DUP1 SLOAD PUSH2 0x3168 SWAP1 PUSH2 0x4F66 JUMP JUMPDEST DUP1 PUSH1 0x1F ADD PUSH1 0x20 DUP1 SWAP2 DIV MUL PUSH1 0x20 ADD PUSH1 0x40 MLOAD SWAP1 DUP2 ADD PUSH1 0x40 MSTORE DUP1 SWAP3 SWAP2 SWAP1 DUP2 DUP2 MSTORE PUSH1 0x20 ADD DUP3 DUP1 SLOAD PUSH2 0x3194 SWAP1 PUSH2 0x4F66 JUMP JUMPDEST DUP1 ISZERO PUSH2 0x31DF JUMPI DUP1 PUSH1 0x1F LT PUSH2 0x31B6 JUMPI PUSH2 0x100 DUP1 DUP4 SLOAD DIV MUL DUP4 MSTORE SWAP2 PUSH1 0x20 ADD SWAP2 PUSH2 0x31DF JUMP JUMPDEST DUP3 ADD SWAP2 SWAP1 PUSH0 MSTORE PUSH1 0x20 PUSH0 KECCAK256 SWAP1 JUMPDEST DUP2 SLOAD DUP2 MSTORE SWAP1 PUSH1 0x1 ADD SWAP1 PUSH1 0x20 ADD DUP1 DUP4 GT PUSH2 0x31C2 JUMPI DUP3 SWAP1 SUB PUSH1 0x1F AND DUP3 ADD SWAP2 JUMPDEST POP POP POP POP POP DUP2 MSTORE POP POP SWAP1 POP SWAP2 SWAP1 POP JUMP JUMPDEST PUSH2 0x31F7 PUSH2 0x37E2 JUMP JUMPDEST PUSH0 PUSH20 0xFFFFFFFFFFFFFFFFFFFFFFFFFFFFFFFFFFFFFFFF AND DUP2 PUSH20 0xFFFFFFFFFFFFFFFFFFFFFFFFFFFFFFFFFFFFFFFF AND SUB PUSH2 0x3267 JUMPI PUSH0 PUSH1 0x40 MLOAD PUSH32 0x1E4FBDF700000000000000000000000000000000000000000000000000000000 DUP2 MSTORE PUSH1 0x4 ADD PUSH2 0x325E SWAP2 SWAP1 PUSH2 0x46DF JUMP JUMPDEST PUSH1 0x40 MLOAD DUP1 SWAP2 SUB SWAP1 REVERT JUMPDEST PUSH2 0x3270 DUP2 PUSH2 0x3886 JUMP JUMPDEST POP JUMP JUMPDEST PUSH2 0x327B PUSH2 0x37E2 JUMP JUMPDEST DUP1 PUSH1 0xE PUSH1 0x14 PUSH2 0x100 EXP DUP2 SLOAD DUP2 PUSH1 0xFF MUL NOT AND SWAP1 DUP4 ISZERO ISZERO MUL OR SWAP1 SSTORE POP PUSH32 0xC977AF333CF8813C2D0975C679D4FACE4E304C8F859030B4379C4B21C84963A2 DUP2 PUSH1 0x40 MLOAD PUSH2 0x32C4 SWAP2 SWAP1 PUSH2 0x457F JUMP JUMPDEST PUSH1 0x40 MLOAD DUP1 SWAP2 SUB SWAP1 LOG1 POP JUMP JUMPDEST PUSH0 PUSH1 0xA PUSH0 DUP4 PUSH20 0xFFFFFFFFFFFFFFFFFFFFFFFFFFFFFFFFFFFFFFFF AND PUSH20 0xFFFFFFFFFFFFFFFFFFFFFFFFFFFFFFFFFFFFFFFF AND DUP2 MSTORE PUSH1 0x20 ADD SWAP1 DUP2 MSTORE PUSH1 0x20 ADD PUSH0 KECCAK256 PUSH0 SWAP1 SLOAD SWAP1 PUSH2 0x100 EXP SWAP1 DIV PUSH1 0xFF AND PUSH2 0x3359 JUMPI PUSH1 0x40 MLOAD PUSH32 0x8C379A000000000000000000000000000000000000000000000000000000000 DUP2 MSTORE PUSH1 0x4 ADD PUSH2 0x3350 SWAP1 PUSH2 0x5048 JUMP JUMPDEST PUSH1 0x40 MLOAD DUP1 SWAP2 SUB SWAP1 REVERT JUMPDEST PUSH0 PUSH1 0x9 PUSH0 DUP5 PUSH20 0xFFFFFFFFFFFFFFFFFFFFFFFFFFFFFFFFFFFFFFFF AND PUSH20 0xFFFFFFFFFFFFFFFFFFFFFFFFFFFFFFFFFFFFFFFF AND DUP2 MSTORE PUSH1 0x20 ADD SWAP1 DUP2 MSTORE PUSH1 0x20 ADD PUSH0 KECCAK256 SLOAD SWAP1 POP PUSH1 0x8 PUSH0 DUP3 DUP2 MSTORE PUSH1 0x20 ADD SWAP1 DUP2 MSTORE PUSH1 0x20 ADD PUSH0 KECCAK256 PUSH1 0x2 ADD SLOAD SWAP2 POP POP SWAP2 SWAP1 POP JUMP JUMPDEST PUSH0 PUSH32 0x1FFC9A700000000000000000000000000000000000000000000000000000000 PUSH28 0xFFFFFFFFFFFFFFFFFFFFFFFFFFFFFFFFFFFFFFFFFFFFFFFFFFFFFFFF NOT AND DUP3 PUSH28 0xFFFFFFFFFFFFFFFFFFFFFFFFFFFFFFFFFFFFFFFFFFFFFFFFFFFFFFFF NOT AND EQ SWAP1 POP SWAP2 SWAP1 POP JUMP JUMPDEST PUSH0 DUP1 PUSH2 0x342B DUP4 PUSH2 0x3C8F JUMP JUMPDEST SWAP1 POP PUSH0 PUSH20 0xFFFFFFFFFFFFFFFFFFFFFFFFFFFFFFFFFFFFFFFF AND DUP2 PUSH20 0xFFFFFFFFFFFFFFFFFFFFFFFFFFFFFFFFFFFFFFFF AND SUB PUSH2 0x349D JUMPI DUP3 PUSH1 0x40 MLOAD PUSH32 0x7E27328900000000000000000000000000000000000000000000000000000000 DUP2 MSTORE PUSH1 0x4 ADD PUSH2 0x3494 SWAP2 SWAP1 PUSH2 0x4974 JUMP JUMPDEST PUSH1 0x40 MLOAD DUP1 SWAP2 SUB SWAP1 REVERT JUMPDEST DUP1 SWAP2 POP POP SWAP2 SWAP1 POP JUMP JUMPDEST PUSH0 PUSH1 0x4 PUSH0 DUP4 DUP2 MSTORE PUSH1 0x20 ADD SWAP1 DUP2 MSTORE PUSH1 0x20 ADD PUSH0 KECCAK256 PUSH0 SWAP1 SLOAD SWAP1 PUSH2 0x100 EXP SWAP1 DIV PUSH20 0xFFFFFFFFFFFFFFFFFFFFFFFFFFFFFFFFFFFFFFFF AND SWAP1 POP SWAP2 SWAP1 POP JUMP JUMPDEST PUSH1 0x2 PUSH1 0x7 SLOAD SUB PUSH2 0x351B JUMPI PUSH1 0x40 MLOAD PUSH32 0x3EE5AEB500000000000000000000000000000000000000000000000000000000 DUP2 MSTORE PUSH1 0x4 ADD PUSH1 0x40 MLOAD DUP1 SWAP2 SUB SWAP1 REVERT JUMPDEST PUSH1 0x2 PUSH1 0x7 DUP2 SWAP1 SSTORE POP JUMP JUMPDEST PUSH1 0x1 PUSH1 0x7 DUP2 SWAP1 SSTORE POP JUMP JUMPDEST PUSH0 PUSH1 0x9 PUSH0 DUP5 PUSH20 0xFFFFFFFFFFFFFFFFFFFFFFFFFFFFFFFFFFFFFFFF AND PUSH20 0xFFFFFFFFFFFFFFFFFFFFFFFFFFFFFFFFFFFFFFFF AND DUP2 MSTORE PUSH1 0x20 ADD SWAP1 DUP2 MSTORE PUSH1 0x20 ADD PUSH0 KECCAK256 SLOAD SWAP1 POP PUSH1 0xB PUSH0 DUP3 DUP2 MSTORE PUSH1 0x20 ADD SWAP1 DUP2 MSTORE PUSH1 0x20 ADD PUSH0 KECCAK256 PUSH0 SWAP1 SLOAD SWAP1 PUSH2 0x100 EXP SWAP1 DIV PUSH1 0xFF AND ISZERO PUSH2 0x35CE JUMPI PUSH1 0x40 MLOAD PUSH32 0x8C379A000000000000000000000000000000000000000000000000000000000 DUP2 MSTORE PUSH1 0x4 ADD PUSH2 0x35C5 SWAP1 PUSH2 0x5118 JUMP JUMPDEST PUSH1 0x40 MLOAD DUP1 SWAP2 SUB SWAP1 REVERT JUMPDEST PUSH1 0x1 PUSH1 0xB PUSH0 DUP4 DUP2 MSTORE PUSH1 0x20 ADD SWAP1 DUP2 MSTORE PUSH1 0x20 ADD PUSH0 KECCAK256 PUSH0 PUSH2 0x100 EXP DUP2 SLOAD DUP2 PUSH1 0xFF MUL NOT AND SWAP1 DUP4 ISZERO ISZERO MUL OR SWAP1 SSTORE POP PUSH1 0x1 PUSH1 0xC PUSH0 DUP6 PUSH20 0xFFFFFFFFFFFFFFFFFFFFFFFFFFFFFFFFFFFFFFFF AND PUSH20 0xFFFFFFFFFFFFFFFFFFFFFFFFFFFFFFFFFFFFFFFF AND DUP2 MSTORE PUSH1 0x20 ADD SWAP1 DUP2 MSTORE PUSH1 0x20 ADD PUSH0 KECCAK256 PUSH0 PUSH2 0x100 EXP DUP2 SLOAD DUP2 PUSH1 0xFF MUL NOT AND SWAP1 DUP4 ISZERO ISZERO MUL OR SWAP1 SSTORE POP DUP2 ISZERO PUSH2 0x36BD JUMPI PUSH0 PUSH1 0x8 PUSH0 DUP4 DUP2 MSTORE PUSH1 0x20 ADD SWAP1 DUP2 MSTORE PUSH1 0x20 ADD PUSH0 KECCAK256 SWAP1 POP PUSH0 DUP1 SHL DUP2 PUSH1 0x2 ADD DUP2 SWAP1 SSTORE POP PUSH1 0x40 MLOAD DUP1 PUSH1 0x20 ADD PUSH1 0x40 MSTORE DUP1 PUSH0 DUP2 MSTORE POP DUP2 PUSH1 0x3 ADD SWAP1 DUP2 PUSH2 0x3690 SWAP2 SWAP1 PUSH2 0x5788 JUMP JUMPDEST POP TIMESTAMP DUP2 PUSH1 0x1 ADD PUSH0 PUSH2 0x100 EXP DUP2 SLOAD DUP2 PUSH8 0xFFFFFFFFFFFFFFFF MUL NOT AND SWAP1 DUP4 PUSH8 0xFFFFFFFFFFFFFFFF AND MUL OR SWAP1 SSTORE POP POP JUMPDEST DUP1 DUP4 PUSH20 0xFFFFFFFFFFFFFFFFFFFFFFFFFFFFFFFFFFFFFFFF AND PUSH32 0xE8CCF73831B7F096110633FC510FB0D4E739D5DF4DA47CB20FDBCD06711DD6F5 TIMESTAMP PUSH1 0x40 MLOAD PUSH2 0x3704 SWAP2 SWAP1 PUSH2 0x518B JUMP JUMPDEST PUSH1 0x40 MLOAD DUP1 SWAP2 SUB SWAP1 LOG3 POP POP POP JUMP JUMPDEST PUSH0 CALLER SWAP1 POP SWAP1 JUMP JUMPDEST PUSH0 DUP1 PUSH2 0x3723 DUP5 PUSH2 0x3C8F JUMP JUMPDEST SWAP1 POP PUSH0 PUSH20 0xFFFFFFFFFFFFFFFFFFFFFFFFFFFFFFFFFFFFFFFF AND DUP2 PUSH20 0xFFFFFFFFFFFFFFFFFFFFFFFFFFFFFFFFFFFFFFFF AND EQ ISZERO DUP1 ISZERO PUSH2 0x378D JUMPI POP PUSH0 PUSH20 0xFFFFFFFFFFFFFFFFFFFFFFFFFFFFFFFFFFFFFFFF AND DUP6 PUSH20 0xFFFFFFFFFFFFFFFFFFFFFFFFFFFFFFFFFFFFFFFF AND EQ ISZERO JUMPDEST ISZERO PUSH2 0x37CD JUMPI PUSH1 0x40 MLOAD PUSH32 0x8C379A000000000000000000000000000000000000000000000000000000000 DUP2 MSTORE PUSH1 0x4 ADD PUSH2 0x37C4 SWAP1 PUSH2 0x4FE0 JUMP JUMPDEST PUSH1 0x40 MLOAD DUP1 SWAP2 SUB SWAP1 REVERT JUMPDEST PUSH2 0x37D8 DUP6 DUP6 DUP6 PUSH2 0x3CC8 JUMP JUMPDEST SWAP2 POP POP SWAP4 SWAP3 POP POP POP JUMP JUMPDEST PUSH2 0x37EA PUSH2 0x3711 JUMP JUMPDEST PUSH20 0xFFFFFFFFFFFFFFFFFFFFFFFFFFFFFFFFFFFFFFFF AND PUSH2 0x3808 PUSH2 0x20FD JUMP JUMPDEST PUSH20 0xFFFFFFFFFFFFFFFFFFFFFFFFFFFFFFFFFFFFFFFF AND EQ PUSH2 0x3867 JUMPI PUSH2 0x382B PUSH2 0x3711 JUMP JUMPDEST PUSH1 0x40 MLOAD PUSH32 0x118CDAA700000000000000000000000000000000000000000000000000000000 DUP2 MSTORE PUSH1 0x4 ADD PUSH2 0x385E SWAP2 SWAP1 PUSH2 0x46DF JUMP JUMPDEST PUSH1 0x40 MLOAD DUP1 SWAP2 SUB SWAP1 REVERT JUMPDEST JUMP JUMPDEST PUSH2 0x3882 DUP3 DUP3 PUSH1 0x40 MLOAD DUP1 PUSH1 0x20 ADD PUSH1 0x40 MSTORE DUP1 PUSH0 DUP2 MSTORE POP PUSH2 0x3ED3 JUMP JUMPDEST POP POP JUMP JUMPDEST PUSH0 PUSH1 0x6 PUSH0 SWAP1 SLOAD SWAP1 PUSH2 0x100 EXP SWAP1 DIV PUSH20 0xFFFFFFFFFFFFFFFFFFFFFFFFFFFFFFFFFFFFFFFF AND SWAP1 POP DUP2 PUSH1 0x6 PUSH0 PUSH2 0x100 EXP DUP2 SLOAD DUP2 PUSH20 0xFFFFFFFFFFFFFFFFFFFFFFFFFFFFFFFFFFFFFFFF MUL NOT AND SWAP1 DUP4 PUSH20 0xFFFFFFFFFFFFFFFFFFFFFFFFFFFFFFFFFFFFFFFF AND MUL OR SWAP1 SSTORE POP DUP2 PUSH20 0xFFFFFFFFFFFFFFFFFFFFFFFFFFFFFFFFFFFFFFFF AND DUP2 PUSH20 0xFFFFFFFFFFFFFFFFFFFFFFFFFFFFFFFFFFFFFFFF AND PUSH32 0x8BE0079C531659141344CD1FD0A4F28419497F9722A3DAAFE3B4186F6B6457E0 PUSH1 0x40 MLOAD PUSH1 0x40 MLOAD DUP1 SWAP2 SUB SWAP1 LOG3 POP POP JUMP JUMPDEST PUSH0 DUP4 PUSH20 0xFFFFFFFFFFFFFFFFFFFFFFFFFFFFFFFFFFFFFFFF AND EXTCODESIZE GT ISZERO PUSH2 0x3AEE JUMPI DUP3 PUSH20 0xFFFFFFFFFFFFFFFFFFFFFFFFFFFFFFFFFFFFFFFF AND PUSH4 0x150B7A02 DUP7 DUP7 DUP6 DUP6 PUSH1 0x40 MLOAD DUP6 PUSH4 0xFFFFFFFF AND PUSH1 0xE0 SHL DUP2 MSTORE PUSH1 0x4 ADD PUSH2 0x39A7 SWAP5 SWAP4 SWAP3 SWAP2 SWAP1 PUSH2 0x5984 JUMP JUMPDEST PUSH1 0x20 PUSH1 0x40 MLOAD DUP1 DUP4 SUB DUP2 PUSH0 DUP8 GAS CALL SWAP3 POP POP POP DUP1 ISZERO PUSH2 0x39E2 JUMPI POP PUSH1 0x40 MLOAD RETURNDATASIZE PUSH1 0x1F NOT PUSH1 0x1F DUP3 ADD AND DUP3 ADD DUP1 PUSH1 0x40 MSTORE POP DUP2 ADD SWAP1 PUSH2 0x39DF SWAP2 SWAP1 PUSH2 0x59E2 JUMP JUMPDEST PUSH1 0x1 JUMPDEST PUSH2 0x3A63 JUMPI RETURNDATASIZE DUP1 PUSH0 DUP2 EQ PUSH2 0x3A10 JUMPI PUSH1 0x40 MLOAD SWAP2 POP PUSH1 0x1F NOT PUSH1 0x3F RETURNDATASIZE ADD AND DUP3 ADD PUSH1 0x40 MSTORE RETURNDATASIZE DUP3 MSTORE RETURNDATASIZE PUSH0 PUSH1 0x20 DUP5 ADD RETURNDATACOPY PUSH2 0x3A15 JUMP JUMPDEST PUSH1 0x60 SWAP2 POP JUMPDEST POP PUSH0 DUP2 MLOAD SUB PUSH2 0x3A5B JUMPI DUP4 PUSH1 0x40 MLOAD PUSH32 0x64A0AE9200000000000000000000000000000000000000000000000000000000 DUP2 MSTORE PUSH1 0x4 ADD PUSH2 0x3A52 SWAP2 SWAP1 PUSH2 0x46DF JUMP JUMPDEST PUSH1 0x40 MLOAD DUP1 SWAP2 SUB SWAP1 REVERT JUMPDEST DUP1 MLOAD PUSH1 0x20 DUP3 ADD REVERT JUMPDEST PUSH4 0x150B7A02 PUSH1 0xE0 SHL PUSH28 0xFFFFFFFFFFFFFFFFFFFFFFFFFFFFFFFFFFFFFFFFFFFFFFFFFFFFFFFF NOT AND DUP2 PUSH28 0xFFFFFFFFFFFFFFFFFFFFFFFFFFFFFFFFFFFFFFFFFFFFFFFFFFFFFFFF NOT AND EQ PUSH2 0x3AEC JUMPI DUP4 PUSH1 0x40 MLOAD PUSH32 0x64A0AE9200000000000000000000000000000000000000000000000000000000 DUP2 MSTORE PUSH1 0x4 ADD PUSH2 0x3AE3 SWAP2 SWAP1 PUSH2 0x46DF JUMP JUMPDEST PUSH1 0x40 MLOAD DUP1 SWAP2 SUB SWAP1 REVERT JUMPDEST POP JUMPDEST POP POP POP POP POP JUMP JUMPDEST PUSH1 0x60 PUSH1 0xF DUP1 SLOAD PUSH2 0x3B04 SWAP1 PUSH2 0x4F66 JUMP JUMPDEST DUP1 PUSH1 0x1F ADD PUSH1 0x20 DUP1 SWAP2 DIV MUL PUSH1 0x20 ADD PUSH1 0x40 MLOAD SWAP1 DUP2 ADD PUSH1 0x40 MSTORE DUP1 SWAP3 SWAP2 SWAP1 DUP2 DUP2 MSTORE PUSH1 0x20 ADD DUP3 DUP1 SLOAD PUSH2 0x3B30 SWAP1 PUSH2 0x4F66 JUMP JUMPDEST DUP1 ISZERO PUSH2 0x3B7B JUMPI DUP1 PUSH1 0x1F LT PUSH2 0x3B52 JUMPI PUSH2 0x100 DUP1 DUP4 SLOAD DIV MUL DUP4 MSTORE SWAP2 PUSH1 0x20 ADD SWAP2 PUSH2 0x3B7B JUMP JUMPDEST DUP3 ADD SWAP2 SWAP1 PUSH0 MSTORE PUSH1 0x20 PUSH0 KECCAK256 SWAP1 JUMPDEST DUP2 SLOAD DUP2 MSTORE SWAP1 PUSH1 0x1 ADD SWAP1 PUSH1 0x20 ADD DUP1 DUP4 GT PUSH2 0x3B5E JUMPI DUP3 SWAP1 SUB PUSH1 0x1F AND DUP3 ADD SWAP2 JUMPDEST POP POP POP POP POP SWAP1 POP SWAP1 JUMP JUMPDEST PUSH1 0x60 PUSH0 PUSH1 0x1 PUSH2 0x3B93 DUP5 PUSH2 0x3EF6 JUMP JUMPDEST ADD SWAP1 POP PUSH0 DUP2 PUSH8 0xFFFFFFFFFFFFFFFF DUP2 GT ISZERO PUSH2 0x3BB1 JUMPI PUSH2 0x3BB0 PUSH2 0x4B09 JUMP JUMPDEST JUMPDEST PUSH1 0x40 MLOAD SWAP1 DUP1 DUP3 MSTORE DUP1 PUSH1 0x1F ADD PUSH1 0x1F NOT AND PUSH1 0x20 ADD DUP3 ADD PUSH1 0x40 MSTORE DUP1 ISZERO PUSH2 0x3BE3 JUMPI DUP2 PUSH1 0x20 ADD PUSH1 0x1 DUP3 MUL DUP1 CALLDATASIZE DUP4 CALLDATACOPY DUP1 DUP3 ADD SWAP2 POP POP SWAP1 POP JUMPDEST POP SWAP1 POP PUSH0 DUP3 PUSH1 0x20 DUP4 ADD ADD SWAP1 POP JUMPDEST PUSH1 0x1 ISZERO PUSH2 0x3C44 JUMPI DUP1 DUP1 PUSH1 0x1 SWAP1 SUB SWAP2 POP POP PUSH32 0x3031323334353637383961626364656600000000000000000000000000000000 PUSH1 0xA DUP7 MOD BYTE DUP2 MSTORE8 PUSH1 0xA DUP6 DUP2 PUSH2 0x3C39 JUMPI PUSH2 0x3C38 PUSH2 0x5A0D JUMP JUMPDEST JUMPDEST DIV SWAP5 POP PUSH0 DUP6 SUB PUSH2 0x3BF0 JUMPI JUMPDEST DUP2 SWAP4 POP POP POP POP SWAP2 SWAP1 POP JUMP JUMPDEST PUSH0 DUP1 PUSH20 0xFFFFFFFFFFFFFFFFFFFFFFFFFFFFFFFFFFFFFFFF AND PUSH2 0x3C70 DUP4 PUSH2 0x3C8F JUMP JUMPDEST PUSH20 0xFFFFFFFFFFFFFFFFFFFFFFFFFFFFFFFFFFFFFFFF AND EQ ISZERO SWAP1 POP SWAP2 SWAP1 POP JUMP JUMPDEST PUSH0 PUSH1 0x2 PUSH0 DUP4 DUP2 MSTORE PUSH1 0x20 ADD SWAP1 DUP2 MSTORE PUSH1 0x20 ADD PUSH0 KECCAK256 PUSH0 SWAP1 SLOAD SWAP1 PUSH2 0x100 EXP SWAP1 DIV PUSH20 0xFFFFFFFFFFFFFFFFFFFFFFFFFFFFFFFFFFFFFFFF AND SWAP1 POP SWAP2 SWAP1 POP JUMP JUMPDEST PUSH0 DUP1 PUSH2 0x3CD3 DUP5 PUSH2 0x3C8F JUMP JUMPDEST SWAP1 POP PUSH0 PUSH20 0xFFFFFFFFFFFFFFFFFFFFFFFFFFFFFFFFFFFFFFFF AND DUP4 PUSH20 0xFFFFFFFFFFFFFFFFFFFFFFFFFFFFFFFFFFFFFFFF AND EQ PUSH2 0x3D14 JUMPI PUSH2 0x3D13 DUP2 DUP5 DUP7 PUSH2 0x4047 JUMP JUMPDEST JUMPDEST PUSH0 PUSH20 0xFFFFFFFFFFFFFFFFFFFFFFFFFFFFFFFFFFFFFFFF AND DUP2 PUSH20 0xFFFFFFFFFFFFFFFFFFFFFFFFFFFFFFFFFFFFFFFF AND EQ PUSH2 0x3D9F JUMPI PUSH2 0x3D53 PUSH0 DUP6 PUSH0 DUP1 PUSH2 0x410A JUMP JUMPDEST PUSH1 0x1 PUSH1 0x3 PUSH0 DUP4 PUSH20 0xFFFFFFFFFFFFFFFFFFFFFFFFFFFFFFFFFFFFFFFF AND PUSH20 0xFFFFFFFFFFFFFFFFFFFFFFFFFFFFFFFFFFFFFFFF AND DUP2 MSTORE PUSH1 0x20 ADD SWAP1 DUP2 MSTORE PUSH1 0x20 ADD PUSH0 KECCAK256 PUSH0 DUP3 DUP3 SLOAD SUB SWAP3 POP POP DUP2 SWAP1 SSTORE POP JUMPDEST PUSH0 PUSH20 0xFFFFFFFFFFFFFFFFFFFFFFFFFFFFFFFFFFFFFFFF AND DUP6 PUSH20 0xFFFFFFFFFFFFFFFFFFFFFFFFFFFFFFFFFFFFFFFF AND EQ PUSH2 0x3E1E JUMPI PUSH1 0x1 PUSH1 0x3 PUSH0 DUP8 PUSH20 0xFFFFFFFFFFFFFFFFFFFFFFFFFFFFFFFFFFFFFFFF AND PUSH20 0xFFFFFFFFFFFFFFFFFFFFFFFFFFFFFFFFFFFFFFFF AND DUP2 MSTORE PUSH1 0x20 ADD SWAP1 DUP2 MSTORE PUSH1 0x20 ADD PUSH0 KECCAK256 PUSH0 DUP3 DUP3 SLOAD ADD SWAP3 POP POP DUP2 SWAP1 SSTORE POP JUMPDEST DUP5 PUSH1 0x2 PUSH0 DUP7 DUP2 MSTORE PUSH1 0x20 ADD SWAP1 DUP2 MSTORE PUSH1 0x20 ADD PUSH0 KECCAK256 PUSH0 PUSH2 0x100 EXP DUP2 SLOAD DUP2 PUSH20 0xFFFFFFFFFFFFFFFFFFFFFFFFFFFFFFFFFFFFFFFF MUL NOT AND SWAP1 DUP4 PUSH20 0xFFFFFFFFFFFFFFFFFFFFFFFFFFFFFFFFFFFFFFFF AND MUL OR SWAP1 SSTORE POP DUP4 DUP6 PUSH20 0xFFFFFFFFFFFFFFFFFFFFFFFFFFFFFFFFFFFFFFFF AND DUP3 PUSH20 0xFFFFFFFFFFFFFFFFFFFFFFFFFFFFFFFFFFFFFFFF AND PUSH32 0xDDF252AD1BE2C89B69C2B068FC378DAA952BA7F163C4A11628F55A4DF523B3EF PUSH1 0x40 MLOAD PUSH1 0x40 MLOAD DUP1 SWAP2 SUB SWAP1 LOG4 DUP1 SWAP2 POP POP SWAP4 SWAP3 POP POP POP JUMP JUMPDEST PUSH2 0x3EDD DUP4 DUP4 PUSH2 0x42C9 JUMP JUMPDEST PUSH2 0x3EF1 PUSH2 0x3EE8 PUSH2 0x3711 JUMP JUMPDEST PUSH0 DUP6 DUP6 DUP6 PUSH2 0x3949 JUMP JUMPDEST POP POP POP JUMP JUMPDEST PUSH0 DUP1 PUSH0 SWAP1 POP PUSH27 0x184F03E93FF9F4DAA797ED6E38ED64BF6A1F010000000000000000 DUP4 LT PUSH2 0x3F52 JUMPI PUSH27 0x184F03E93FF9F4DAA797ED6E38ED64BF6A1F010000000000000000 DUP4 DUP2 PUSH2 0x3F48 JUMPI PUSH2 0x3F47 PUSH2 0x5A0D JUMP JUMPDEST JUMPDEST DIV SWAP3 POP PUSH1 0x40 DUP2 ADD SWAP1 POP JUMPDEST PUSH14 0x4EE2D6D415B85ACEF8100000000 DUP4 LT PUSH2 0x3F8F JUMPI PUSH14 0x4EE2D6D415B85ACEF8100000000 DUP4 DUP2 PUSH2 0x3F85 JUMPI PUSH2 0x3F84 PUSH2 0x5A0D JUMP JUMPDEST JUMPDEST DIV SWAP3 POP PUSH1 0x20 DUP2 ADD SWAP1 POP JUMPDEST PUSH7 0x2386F26FC10000 DUP4 LT PUSH2 0x3FBE JUMPI PUSH7 0x2386F26FC10000 DUP4 DUP2 PUSH2 0x3FB4 JUMPI PUSH2 0x3FB3 PUSH2 0x5A0D JUMP JUMPDEST JUMPDEST DIV SWAP3 POP PUSH1 0x10 DUP2 ADD SWAP1 POP JUMPDEST PUSH4 0x5F5E100 DUP4 LT PUSH2 0x3FE7 JUMPI PUSH4 0x5F5E100 DUP4 DUP2 PUSH2 0x3FDD JUMPI PUSH2 0x3FDC PUSH2 0x5A0D JUMP JUMPDEST JUMPDEST DIV SWAP3 POP PUSH1 0x8 DUP2 ADD SWAP1 POP JUMPDEST PUSH2 0x2710 DUP4 LT PUSH2 0x400C JUMPI PUSH2 0x2710 DUP4 DUP2 PUSH2 0x4002 JUMPI PUSH2 0x4001 PUSH2 0x5A0D JUMP JUMPDEST JUMPDEST DIV SWAP3 POP PUSH1 0x4 DUP2 ADD SWAP1 POP JUMPDEST PUSH1 0x64 DUP4 LT PUSH2 0x402F JUMPI PUSH1 0x64 DUP4 DUP2 PUSH2 0x4025 JUMPI PUSH2 0x4024 PUSH2 0x5A0D JUMP JUMPDEST JUMPDEST DIV SWAP3 POP PUSH1 0x2 DUP2 ADD SWAP1 POP JUMPDEST PUSH1 0xA DUP4 LT PUSH2 0x403E JUMPI PUSH1 0x1 DUP2 ADD SWAP1 POP JUMPDEST DUP1 SWAP2 POP POP SWAP2 SWAP1 POP JUMP JUMPDEST PUSH2 0x4052 DUP4 DUP4 DUP4 PUSH2 0x43BC JUMP JUMPDEST PUSH2 0x4105 JUMPI PUSH0 PUSH20 0xFFFFFFFFFFFFFFFFFFFFFFFFFFFFFFFFFFFFFFFF AND DUP4 PUSH20 0xFFFFFFFFFFFFFFFFFFFFFFFFFFFFFFFFFFFFFFFF AND SUB PUSH2 0x40C6 JUMPI DUP1 PUSH1 0x40 MLOAD PUSH32 0x7E27328900000000000000000000000000000000000000000000000000000000 DUP2 MSTORE PUSH1 0x4 ADD PUSH2 0x40BD SWAP2 SWAP1 PUSH2 0x4974 JUMP JUMPDEST PUSH1 0x40 MLOAD DUP1 SWAP2 SUB SWAP1 REVERT JUMPDEST DUP2 DUP2 PUSH1 0x40 MLOAD PUSH32 0x177E802F00000000000000000000000000000000000000000000000000000000 DUP2 MSTORE PUSH1 0x4 ADD PUSH2 0x40FC SWAP3 SWAP2 SWAP1 PUSH2 0x5A3A JUMP JUMPDEST PUSH1 0x40 MLOAD DUP1 SWAP2 SUB SWAP1 REVERT JUMPDEST POP POP POP JUMP JUMPDEST DUP1 DUP1 PUSH2 0x4142 JUMPI POP PUSH0 PUSH20 0xFFFFFFFFFFFFFFFFFFFFFFFFFFFFFFFFFFFFFFFF AND DUP3 PUSH20 0xFFFFFFFFFFFFFFFFFFFFFFFFFFFFFFFFFFFFFFFF AND EQ ISZERO JUMPDEST ISZERO PUSH2 0x4274 JUMPI PUSH0 PUSH2 0x4151 DUP5 PUSH2 0x3420 JUMP JUMPDEST SWAP1 POP PUSH0 PUSH20 0xFFFFFFFFFFFFFFFFFFFFFFFFFFFFFFFFFFFFFFFF AND DUP4 PUSH20 0xFFFFFFFFFFFFFFFFFFFFFFFFFFFFFFFFFFFFFFFF AND EQ ISZERO DUP1 ISZERO PUSH2 0x41BB JUMPI POP DUP3 PUSH20 0xFFFFFFFFFFFFFFFFFFFFFFFFFFFFFFFFFFFFFFFF AND DUP2 PUSH20 0xFFFFFFFFFFFFFFFFFFFFFFFFFFFFFFFFFFFFFFFF AND EQ ISZERO JUMPDEST DUP1 ISZERO PUSH2 0x41CE JUMPI POP PUSH2 0x41CC DUP2 DUP5 PUSH2 0x2F9E JUMP JUMPDEST ISZERO JUMPDEST ISZERO PUSH2 0x4210 JUMPI DUP3 PUSH1 0x40 MLOAD PUSH32 0xA9FBF51F00000000000000000000000000000000000000000000000000000000 DUP2 MSTORE PUSH1 0x4 ADD PUSH2 0x4207 SWAP2 SWAP1 PUSH2 0x46DF JUMP JUMPDEST PUSH1 0x40 MLOAD DUP1 SWAP2 SUB SWAP1 REVERT JUMPDEST DUP2 ISZERO PUSH2 0x4272 JUMPI DUP4 DUP6 PUSH20 0xFFFFFFFFFFFFFFFFFFFFFFFFFFFFFFFFFFFFFFFF AND DUP3 PUSH20 0xFFFFFFFFFFFFFFFFFFFFFFFFFFFFFFFFFFFFFFFF AND PUSH32 0x8C5BE1E5EBEC7D5BD14F71427D1E84F3DD0314C0F7B2291E5B200AC8C7C3B925 PUSH1 0x40 MLOAD PUSH1 0x40 MLOAD DUP1 SWAP2 SUB SWAP1 LOG4 JUMPDEST POP JUMPDEST DUP4 PUSH1 0x4 PUSH0 DUP6 DUP2 MSTORE PUSH1 0x20 ADD SWAP1 DUP2 MSTORE PUSH1 0x20 ADD PUSH0 KECCAK256 PUSH0 PUSH2 0x100 EXP DUP2 SLOAD DUP2 PUSH20 0xFFFFFFFFFFFFFFFFFFFFFFFFFFFFFFFFFFFFFFFF MUL NOT AND SWAP1 DUP4 PUSH20 0xFFFFFFFFFFFFFFFFFFFFFFFFFFFFFFFFFFFFFFFF AND MUL OR SWAP1 SSTORE POP POP POP POP POP JUMP JUMPDEST PUSH0 PUSH20 0xFFFFFFFFFFFFFFFFFFFFFFFFFFFFFFFFFFFFFFFF AND DUP3 PUSH20 0xFFFFFFFFFFFFFFFFFFFFFFFFFFFFFFFFFFFFFFFF AND SUB PUSH2 0x4339 JUMPI PUSH0 PUSH1 0x40 MLOAD PUSH32 0x64A0AE9200000000000000000000000000000000000000000000000000000000 DUP2 MSTORE PUSH1 0x4 ADD PUSH2 0x4330 SWAP2 SWAP1 PUSH2 0x46DF JUMP JUMPDEST PUSH1 0x40 MLOAD DUP1 SWAP2 SUB SWAP1 REVERT JUMPDEST PUSH0 PUSH2 0x4345 DUP4 DUP4 PUSH0 PUSH2 0x3718 JUMP JUMPDEST SWAP1 POP PUSH0 PUSH20 0xFFFFFFFFFFFFFFFFFFFFFFFFFFFFFFFFFFFFFFFF AND DUP2 PUSH20 0xFFFFFFFFFFFFFFFFFFFFFFFFFFFFFFFFFFFFFFFF AND EQ PUSH2 0x43B7 JUMPI PUSH0 PUSH1 0x40 MLOAD PUSH32 0x73C6AC6E00000000000000000000000000000000000000000000000000000000 DUP2 MSTORE PUSH1 0x4 ADD PUSH2 0x43AE SWAP2 SWAP1 PUSH2 0x46DF JUMP JUMPDEST PUSH1 0x40 MLOAD DUP1 SWAP2 SUB SWAP1 REVERT JUMPDEST POP POP POP JUMP JUMPDEST PUSH0 DUP1 PUSH20 0xFFFFFFFFFFFFFFFFFFFFFFFFFFFFFFFFFFFFFFFF AND DUP4 PUSH20 0xFFFFFFFFFFFFFFFFFFFFFFFFFFFFFFFFFFFFFFFF AND EQ ISZERO DUP1 ISZERO PUSH2 0x4473 JUMPI POP DUP3 PUSH20 0xFFFFFFFFFFFFFFFFFFFFFFFFFFFFFFFFFFFFFFFF AND DUP5 PUSH20 0xFFFFFFFFFFFFFFFFFFFFFFFFFFFFFFFFFFFFFFFF AND EQ DUP1 PUSH2 0x4434 JUMPI POP PUSH2 0x4433 DUP5 DUP5 PUSH2 0x2F9E JUMP JUMPDEST JUMPDEST DUP1 PUSH2 0x4472 JUMPI POP DUP3 PUSH20 0xFFFFFFFFFFFFFFFFFFFFFFFFFFFFFFFFFFFFFFFF AND PUSH2 0x445A DUP4 PUSH2 0x34A6 JUMP JUMPDEST PUSH20 0xFFFFFFFFFFFFFFFFFFFFFFFFFFFFFFFFFFFFFFFF AND EQ JUMPDEST JUMPDEST SWAP1 POP SWAP4 SWAP3 POP POP POP JUMP JUMPDEST PUSH1 0x40 MLOAD DUP1 PUSH1 0xA0 ADD PUSH1 0x40 MSTORE DUP1 PUSH0 PUSH20 0xFFFFFFFFFFFFFFFFFFFFFFFFFFFFFFFFFFFFFFFF AND DUP2 MSTORE PUSH1 0x20 ADD PUSH0 PUSH8 0xFFFFFFFFFFFFFFFF AND DUP2 MSTORE PUSH1 0x20 ADD PUSH0 PUSH8 0xFFFFFFFFFFFFFFFF AND DUP2 MSTORE PUSH1 0x20 ADD PUSH0 DUP1 NOT AND DUP2 MSTORE PUSH1 0x20 ADD PUSH1 0x60 DUP2 MSTORE POP SWAP1 JUMP JUMPDEST PUSH0 PUSH1 0x40 MLOAD SWAP1 POP SWAP1 JUMP JUMPDEST PUSH0 DUP1 REVERT JUMPDEST PUSH0 DUP1 REVERT JUMPDEST PUSH0 PUSH32 0xFFFFFFFF00000000000000000000000000000000000000000000000000000000 DUP3 AND SWAP1 POP SWAP2 SWAP1 POP JUMP JUMPDEST PUSH2 0x4519 DUP2 PUSH2 0x44E5 JUMP JUMPDEST DUP2 EQ PUSH2 0x4523 JUMPI PUSH0 DUP1 REVERT JUMPDEST POP JUMP JUMPDEST PUSH0 DUP2 CALLDATALOAD SWAP1 POP PUSH2 0x4534 DUP2 PUSH2 0x4510 JUMP JUMPDEST SWAP3 SWAP2 POP POP JUMP JUMPDEST PUSH0 PUSH1 0x20 DUP3 DUP5 SUB SLT ISZERO PUSH2 0x454F JUMPI PUSH2 0x454E PUSH2 0x44DD JUMP JUMPDEST JUMPDEST PUSH0 PUSH2 0x455C DUP5 DUP3 DUP6 ADD PUSH2 0x4526 JUMP JUMPDEST SWAP2 POP POP SWAP3 SWAP2 POP POP JUMP JUMPDEST PUSH0 DUP2 ISZERO ISZERO SWAP1 POP SWAP2 SWAP1 POP JUMP JUMPDEST PUSH2 0x4579 DUP2 PUSH2 0x4565 JUMP JUMPDEST DUP3 MSTORE POP POP JUMP JUMPDEST PUSH0 PUSH1 0x20 DUP3 ADD SWAP1 POP PUSH2 0x4592 PUSH0 DUP4 ADD DUP5 PUSH2 0x4570 JUMP JUMPDEST SWAP3 SWAP2 POP POP JUMP JUMPDEST PUSH0 DUP2 MLOAD SWAP1 POP SWAP2 SWAP1 POP JUMP JUMPDEST PUSH0 DUP3 DUP3 MSTORE PUSH1 0x20 DUP3 ADD SWAP1 POP SWAP3 SWAP2 POP POP JUMP JUMPDEST PUSH0 JUMPDEST DUP4 DUP2 LT ISZERO PUSH2 0x45CF JUMPI DUP1 DUP3 ADD MLOAD DUP2 DUP5 ADD MSTORE PUSH1 0x20 DUP2 ADD SWAP1 POP PUSH2 0x45B4 JUMP JUMPDEST PUSH0 DUP5 DUP5 ADD MSTORE POP POP POP POP JUMP JUMPDEST PUSH0 PUSH1 0x1F NOT PUSH1 0x1F DUP4 ADD AND SWAP1 POP SWAP2 SWAP1 POP JUMP JUMPDEST PUSH0 PUSH2 0x45F4 DUP3 PUSH2 0x4598 JUMP JUMPDEST PUSH2 0x45FE DUP2 DUP6 PUSH2 0x45A2 JUMP JUMPDEST SWAP4 POP PUSH2 0x460E DUP2 DUP6 PUSH1 0x20 DUP7 ADD PUSH2 0x45B2 JUMP JUMPDEST PUSH2 0x4617 DUP2 PUSH2 0x45DA JUMP JUMPDEST DUP5 ADD SWAP2 POP POP SWAP3 SWAP2 POP POP JUMP JUMPDEST PUSH0 PUSH1 0x20 DUP3 ADD SWAP1 POP DUP2 DUP2 SUB PUSH0 DUP4 ADD MSTORE PUSH2 0x463A DUP2 DUP5 PUSH2 0x45EA JUMP JUMPDEST SWAP1 POP SWAP3 SWAP2 POP POP JUMP JUMPDEST PUSH0 DUP2 SWAP1 POP SWAP2 SWAP1 POP JUMP JUMPDEST PUSH2 0x4654 DUP2 PUSH2 0x4642 JUMP JUMPDEST DUP2 EQ PUSH2 0x465E JUMPI PUSH0 DUP1 REVERT JUMPDEST POP JUMP JUMPDEST PUSH0 DUP2 CALLDATALOAD SWAP1 POP PUSH2 0x466F DUP2 PUSH2 0x464B JUMP JUMPDEST SWAP3 SWAP2 POP POP JUMP JUMPDEST PUSH0 PUSH1 0x20 DUP3 DUP5 SUB SLT ISZERO PUSH2 0x468A JUMPI PUSH2 0x4689 PUSH2 0x44DD JUMP JUMPDEST JUMPDEST PUSH0 PUSH2 0x4697 DUP5 DUP3 DUP6 ADD PUSH2 0x4661 JUMP JUMPDEST SWAP2 POP POP SWAP3 SWAP2 POP POP JUMP JUMPDEST PUSH0 PUSH20 0xFFFFFFFFFFFFFFFFFFFFFFFFFFFFFFFFFFFFFFFF DUP3 AND SWAP1 POP SWAP2 SWAP1 POP JUMP JUMPDEST PUSH0 PUSH2 0x46C9 DUP3 PUSH2 0x46A0 JUMP JUMPDEST SWAP1 POP SWAP2 SWAP1 POP JUMP JUMPDEST PUSH2 0x46D9 DUP2 PUSH2 0x46BF JUMP JUMPDEST DUP3 MSTORE POP POP JUMP JUMPDEST PUSH0 PUSH1 0x20 DUP3 ADD SWAP1 POP PUSH2 0x46F2 PUSH0 DUP4 ADD DUP5 PUSH2 0x46D0 JUMP JUMPDEST SWAP3 SWAP2 POP POP JUMP JUMPDEST PUSH2 0x4701 DUP2 PUSH2 0x46BF JUMP JUMPDEST DUP2 EQ PUSH2 0x470B JUMPI PUSH0 DUP1 REVERT JUMPDEST POP JUMP JUMPDEST PUSH0 DUP2 CALLDATALOAD SWAP1 POP PUSH2 0x471C DUP2 PUSH2 0x46F8 JUMP JUMPDEST SWAP3 SWAP2 POP POP JUMP JUMPDEST PUSH0 DUP1 PUSH1 0x40 DUP4 DUP6 SUB SLT ISZERO PUSH2 0x4738 JUMPI PUSH2 0x4737 PUSH2 0x44DD JUMP JUMPDEST JUMPDEST PUSH0 PUSH2 0x4745 DUP6 DUP3 DUP7 ADD PUSH2 0x470E JUMP JUMPDEST SWAP3 POP POP PUSH1 0x20 PUSH2 0x4756 DUP6 DUP3 DUP7 ADD PUSH2 0x4661 JUMP JUMPDEST SWAP2 POP POP SWAP3 POP SWAP3 SWAP1 POP JUMP JUMPDEST PUSH0 PUSH1 0x20 DUP3 DUP5 SUB SLT ISZERO PUSH2 0x4775 JUMPI PUSH2 0x4774 PUSH2 0x44DD JUMP JUMPDEST JUMPDEST PUSH0 PUSH2 0x4782 DUP5 DUP3 DUP6 ADD PUSH2 0x470E JUMP JUMPDEST SWAP2 POP POP SWAP3 SWAP2 POP POP JUMP JUMPDEST PUSH2 0x4794 DUP2 PUSH2 0x46BF JUMP JUMPDEST DUP3 MSTORE POP POP JUMP JUMPDEST PUSH0 PUSH8 0xFFFFFFFFFFFFFFFF DUP3 AND SWAP1 POP SWAP2 SWAP1 POP JUMP JUMPDEST PUSH2 0x47B6 DUP2 PUSH2 0x479A JUMP JUMPDEST DUP3 MSTORE POP POP JUMP JUMPDEST PUSH0 DUP2 SWAP1 POP SWAP2 SWAP1 POP JUMP JUMPDEST PUSH2 0x47CE DUP2 PUSH2 0x47BC JUMP JUMPDEST DUP3 MSTORE POP POP JUMP JUMPDEST PUSH0 DUP2 MLOAD SWAP1 POP SWAP2 SWAP1 POP JUMP JUMPDEST PUSH0 DUP3 DUP3 MSTORE PUSH1 0x20 DUP3 ADD SWAP1 POP SWAP3 SWAP2 POP POP JUMP JUMPDEST PUSH0 PUSH2 0x47F8 DUP3 PUSH2 0x47D4 JUMP JUMPDEST PUSH2 0x4802 DUP2 DUP6 PUSH2 0x47DE JUMP JUMPDEST SWAP4 POP PUSH2 0x4812 DUP2 DUP6 PUSH1 0x20 DUP7 ADD PUSH2 0x45B2 JUMP JUMPDEST PUSH2 0x481B DUP2 PUSH2 0x45DA JUMP JUMPDEST DUP5 ADD SWAP2 POP POP SWAP3 SWAP2 POP POP JUMP JUMPDEST PUSH0 PUSH1 0xA0 DUP4 ADD PUSH0 DUP4 ADD MLOAD PUSH2 0x483B PUSH0 DUP7 ADD DUP3 PUSH2 0x478B JUMP JUMPDEST POP PUSH1 0x20 DUP4 ADD MLOAD PUSH2 0x484E PUSH1 0x20 DUP7 ADD DUP3 PUSH2 0x47AD JUMP JUMPDEST POP PUSH1 0x40 DUP4 ADD MLOAD PUSH2 0x4861 PUSH1 0x40 DUP7 ADD DUP3 PUSH2 0x47AD JUMP JUMPDEST POP PUSH1 0x60 DUP4 ADD MLOAD PUSH2 0x4874 PUSH1 0x60 DUP7 ADD DUP3 PUSH2 0x47C5 JUMP JUMPDEST POP PUSH1 0x80 DUP4 ADD MLOAD DUP5 DUP3 SUB PUSH1 0x80 DUP7 ADD MSTORE PUSH2 0x488C DUP3 DUP3 PUSH2 0x47EE JUMP JUMPDEST SWAP2 POP POP DUP1 SWAP2 POP POP SWAP3 SWAP2 POP POP JUMP JUMPDEST PUSH0 PUSH1 0x20 DUP3 ADD SWAP1 POP DUP2 DUP2 SUB PUSH0 DUP4 ADD MSTORE PUSH2 0x48B1 DUP2 DUP5 PUSH2 0x4826 JUMP JUMPDEST SWAP1 POP SWAP3 SWAP2 POP POP JUMP JUMPDEST PUSH0 DUP1 REVERT JUMPDEST PUSH0 DUP1 REVERT JUMPDEST PUSH0 DUP1 REVERT JUMPDEST PUSH0 DUP1 DUP4 PUSH1 0x1F DUP5 ADD SLT PUSH2 0x48DA JUMPI PUSH2 0x48D9 PUSH2 0x48B9 JUMP JUMPDEST JUMPDEST DUP3 CALLDATALOAD SWAP1 POP PUSH8 0xFFFFFFFFFFFFFFFF DUP2 GT ISZERO PUSH2 0x48F7 JUMPI PUSH2 0x48F6 PUSH2 0x48BD JUMP JUMPDEST JUMPDEST PUSH1 0x20 DUP4 ADD SWAP2 POP DUP4 PUSH1 0x1 DUP3 MUL DUP4 ADD GT ISZERO PUSH2 0x4913 JUMPI PUSH2 0x4912 PUSH2 0x48C1 JUMP JUMPDEST JUMPDEST SWAP3 POP SWAP3 SWAP1 POP JUMP JUMPDEST PUSH0 DUP1 PUSH1 0x20 DUP4 DUP6 SUB SLT ISZERO PUSH2 0x4930 JUMPI PUSH2 0x492F PUSH2 0x44DD JUMP JUMPDEST JUMPDEST PUSH0 DUP4 ADD CALLDATALOAD PUSH8 0xFFFFFFFFFFFFFFFF DUP2 GT ISZERO PUSH2 0x494D JUMPI PUSH2 0x494C PUSH2 0x44E1 JUMP JUMPDEST JUMPDEST PUSH2 0x4959 DUP6 DUP3 DUP7 ADD PUSH2 0x48C5 JUMP JUMPDEST SWAP3 POP SWAP3 POP POP SWAP3 POP SWAP3 SWAP1 POP JUMP JUMPDEST PUSH2 0x496E DUP2 PUSH2 0x4642 JUMP JUMPDEST DUP3 MSTORE POP POP JUMP JUMPDEST PUSH0 PUSH1 0x20 DUP3 ADD SWAP1 POP PUSH2 0x4987 PUSH0 DUP4 ADD DUP5 PUSH2 0x4965 JUMP JUMPDEST SWAP3 SWAP2 POP POP JUMP JUMPDEST PUSH2 0x4996 DUP2 PUSH2 0x4565 JUMP JUMPDEST DUP2 EQ PUSH2 0x49A0 JUMPI PUSH0 DUP1 REVERT JUMPDEST POP JUMP JUMPDEST PUSH0 DUP2 CALLDATALOAD SWAP1 POP PUSH2 0x49B1 DUP2 PUSH2 0x498D JUMP JUMPDEST SWAP3 SWAP2 POP POP JUMP JUMPDEST PUSH0 PUSH1 0x20 DUP3 DUP5 SUB SLT ISZERO PUSH2 0x49CC JUMPI PUSH2 0x49CB PUSH2 0x44DD JUMP JUMPDEST JUMPDEST PUSH0 PUSH2 0x49D9 DUP5 DUP3 DUP6 ADD PUSH2 0x49A3 JUMP JUMPDEST SWAP2 POP POP SWAP3 SWAP2 POP POP JUMP JUMPDEST PUSH0 DUP1 PUSH0 PUSH1 0x60 DUP5 DUP7 SUB SLT ISZERO PUSH2 0x49F9 JUMPI PUSH2 0x49F8 PUSH2 0x44DD JUMP JUMPDEST JUMPDEST PUSH0 PUSH2 0x4A06 DUP7 DUP3 DUP8 ADD PUSH2 0x470E JUMP JUMPDEST SWAP4 POP POP PUSH1 0x20 PUSH2 0x4A17 DUP7 DUP3 DUP8 ADD PUSH2 0x470E JUMP JUMPDEST SWAP3 POP POP PUSH1 0x40 PUSH2 0x4A28 DUP7 DUP3 DUP8 ADD PUSH2 0x4661 JUMP JUMPDEST SWAP2 POP POP SWAP3 POP SWAP3 POP SWAP3 JUMP JUMPDEST PUSH0 DUP1 DUP4 PUSH1 0x1F DUP5 ADD SLT PUSH2 0x4A47 JUMPI PUSH2 0x4A46 PUSH2 0x48B9 JUMP JUMPDEST JUMPDEST DUP3 CALLDATALOAD SWAP1 POP PUSH8 0xFFFFFFFFFFFFFFFF DUP2 GT ISZERO PUSH2 0x4A64 JUMPI PUSH2 0x4A63 PUSH2 0x48BD JUMP JUMPDEST JUMPDEST PUSH1 0x20 DUP4 ADD SWAP2 POP DUP4 PUSH1 0x1 DUP3 MUL DUP4 ADD GT ISZERO PUSH2 0x4A80 JUMPI PUSH2 0x4A7F PUSH2 0x48C1 JUMP JUMPDEST JUMPDEST SWAP3 POP SWAP3 SWAP1 POP JUMP JUMPDEST PUSH0 DUP1 PUSH0 DUP1 PUSH1 0x40 DUP6 DUP8 SUB SLT ISZERO PUSH2 0x4A9F JUMPI PUSH2 0x4A9E PUSH2 0x44DD JUMP JUMPDEST JUMPDEST PUSH0 DUP6 ADD CALLDATALOAD PUSH8 0xFFFFFFFFFFFFFFFF DUP2 GT ISZERO PUSH2 0x4ABC JUMPI PUSH2 0x4ABB PUSH2 0x44E1 JUMP JUMPDEST JUMPDEST PUSH2 0x4AC8 DUP8 DUP3 DUP9 ADD PUSH2 0x48C5 JUMP JUMPDEST SWAP5 POP SWAP5 POP POP PUSH1 0x20 DUP6 ADD CALLDATALOAD PUSH8 0xFFFFFFFFFFFFFFFF DUP2 GT ISZERO PUSH2 0x4AEB JUMPI PUSH2 0x4AEA PUSH2 0x44E1 JUMP JUMPDEST JUMPDEST PUSH2 0x4AF7 DUP8 DUP3 DUP9 ADD PUSH2 0x4A32 JUMP JUMPDEST SWAP3 POP SWAP3 POP POP SWAP3 SWAP6 SWAP2 SWAP5 POP SWAP3 POP JUMP JUMPDEST PUSH0 DUP1 REVERT JUMPDEST PUSH32 0x4E487B7100000000000000000000000000000000000000000000000000000000 PUSH0 MSTORE PUSH1 0x41 PUSH1 0x4 MSTORE PUSH1 0x24 PUSH0 REVERT JUMPDEST PUSH2 0x4B3F DUP3 PUSH2 0x45DA JUMP JUMPDEST DUP2 ADD DUP2 DUP2 LT PUSH8 0xFFFFFFFFFFFFFFFF DUP3 GT OR ISZERO PUSH2 0x4B5E JUMPI PUSH2 0x4B5D PUSH2 0x4B09 JUMP JUMPDEST JUMPDEST DUP1 PUSH1 0x40 MSTORE POP POP POP JUMP JUMPDEST PUSH0 PUSH2 0x4B70 PUSH2 0x44D4 JUMP JUMPDEST SWAP1 POP PUSH2 0x4B7C DUP3 DUP3 PUSH2 0x4B36 JUMP JUMPDEST SWAP2 SWAP1 POP JUMP JUMPDEST PUSH0 PUSH8 0xFFFFFFFFFFFFFFFF DUP3 GT ISZERO PUSH2 0x4B9B JUMPI PUSH2 0x4B9A PUSH2 0x4B09 JUMP JUMPDEST JUMPDEST PUSH2 0x4BA4 DUP3 PUSH2 0x45DA JUMP JUMPDEST SWAP1 POP PUSH1 0x20 DUP2 ADD SWAP1 POP SWAP2 SWAP1 POP JUMP JUMPDEST DUP3 DUP2 DUP4 CALLDATACOPY PUSH0 DUP4 DUP4 ADD MSTORE POP POP POP JUMP JUMPDEST PUSH0 PUSH2 0x4BD1 PUSH2 0x4BCC DUP5 PUSH2 0x4B81 JUMP JUMPDEST PUSH2 0x4B67 JUMP JUMPDEST SWAP1 POP DUP3 DUP2 MSTORE PUSH1 0x20 DUP2 ADD DUP5 DUP5 DUP5 ADD GT ISZERO PUSH2 0x4BED JUMPI PUSH2 0x4BEC PUSH2 0x4B05 JUMP JUMPDEST JUMPDEST PUSH2 0x4BF8 DUP5 DUP3 DUP6 PUSH2 0x4BB1 JUMP JUMPDEST POP SWAP4 SWAP3 POP POP POP JUMP JUMPDEST PUSH0 DUP3 PUSH1 0x1F DUP4 ADD SLT PUSH2 0x4C14 JUMPI PUSH2 0x4C13 PUSH2 0x48B9 JUMP JUMPDEST JUMPDEST DUP2 CALLDATALOAD PUSH2 0x4C24 DUP5 DUP3 PUSH1 0x20 DUP7 ADD PUSH2 0x4BBF JUMP JUMPDEST SWAP2 POP POP SWAP3 SWAP2 POP POP JUMP JUMPDEST PUSH0 PUSH1 0x20 DUP3 DUP5 SUB SLT ISZERO PUSH2 0x4C42 JUMPI PUSH2 0x4C41 PUSH2 0x44DD JUMP JUMPDEST JUMPDEST PUSH0 DUP3 ADD CALLDATALOAD PUSH8 0xFFFFFFFFFFFFFFFF DUP2 GT ISZERO PUSH2 0x4C5F JUMPI PUSH2 0x4C5E PUSH2 0x44E1 JUMP JUMPDEST JUMPDEST PUSH2 0x4C6B DUP5 DUP3 DUP6 ADD PUSH2 0x4C00 JUMP JUMPDEST SWAP2 POP POP SWAP3 SWAP2 POP POP JUMP JUMPDEST PUSH0 DUP1 PUSH0 PUSH1 0x60 DUP5 DUP7 SUB SLT ISZERO PUSH2 0x4C8B JUMPI PUSH2 0x4C8A PUSH2 0x44DD JUMP JUMPDEST JUMPDEST PUSH0 PUSH2 0x4C98 DUP7 DUP3 DUP8 ADD PUSH2 0x470E JUMP JUMPDEST SWAP4 POP POP PUSH1 0x20 PUSH2 0x4CA9 DUP7 DUP3 DUP8 ADD PUSH2 0x470E JUMP JUMPDEST SWAP3 POP POP PUSH1 0x40 PUSH2 0x4CBA DUP7 DUP3 DUP8 ADD PUSH2 0x49A3 JUMP JUMPDEST SWAP2 POP POP SWAP3 POP SWAP3 POP SWAP3 JUMP JUMPDEST PUSH0 DUP3 DUP3 MSTORE PUSH1 0x20 DUP3 ADD SWAP1 POP SWAP3 SWAP2 POP POP JUMP JUMPDEST PUSH0 PUSH2 0x4CDE DUP3 PUSH2 0x47D4 JUMP JUMPDEST PUSH2 0x4CE8 DUP2 DUP6 PUSH2 0x4CC4 JUMP JUMPDEST SWAP4 POP PUSH2 0x4CF8 DUP2 DUP6 PUSH1 0x20 DUP7 ADD PUSH2 0x45B2 JUMP JUMPDEST PUSH2 0x4D01 DUP2 PUSH2 0x45DA JUMP JUMPDEST DUP5 ADD SWAP2 POP POP SWAP3 SWAP2 POP POP JUMP JUMPDEST PUSH0 PUSH1 0x20 DUP3 ADD SWAP1 POP DUP2 DUP2 SUB PUSH0 DUP4 ADD MSTORE PUSH2 0x4D24 DUP2 DUP5 PUSH2 0x4CD4 JUMP JUMPDEST SWAP1 POP SWAP3 SWAP2 POP POP JUMP JUMPDEST PUSH0 DUP1 PUSH1 0x40 DUP4 DUP6 SUB SLT ISZERO PUSH2 0x4D42 JUMPI PUSH2 0x4D41 PUSH2 0x44DD JUMP JUMPDEST JUMPDEST PUSH0 PUSH2 0x4D4F DUP6 DUP3 DUP7 ADD PUSH2 0x470E JUMP JUMPDEST SWAP3 POP POP PUSH1 0x20 PUSH2 0x4D60 DUP6 DUP3 DUP7 ADD PUSH2 0x49A3 JUMP JUMPDEST SWAP2 POP POP SWAP3 POP SWAP3 SWAP1 POP JUMP JUMPDEST PUSH0 PUSH8 0xFFFFFFFFFFFFFFFF DUP3 GT ISZERO PUSH2 0x4D84 JUMPI PUSH2 0x4D83 PUSH2 0x4B09 JUMP JUMPDEST JUMPDEST PUSH2 0x4D8D DUP3 PUSH2 0x45DA JUMP JUMPDEST SWAP1 POP PUSH1 0x20 DUP2 ADD SWAP1 POP SWAP2 SWAP1 POP JUMP JUMPDEST PUSH0 PUSH2 0x4DAC PUSH2 0x4DA7 DUP5 PUSH2 0x4D6A JUMP JUMPDEST PUSH2 0x4B67 JUMP JUMPDEST SWAP1 POP DUP3 DUP2 MSTORE PUSH1 0x20 DUP2 ADD DUP5 DUP5 DUP5 ADD GT ISZERO PUSH2 0x4DC8 JUMPI PUSH2 0x4DC7 PUSH2 0x4B05 JUMP JUMPDEST JUMPDEST PUSH2 0x4DD3 DUP5 DUP3 DUP6 PUSH2 0x4BB1 JUMP JUMPDEST POP SWAP4 SWAP3 POP POP POP JUMP JUMPDEST PUSH0 DUP3 PUSH1 0x1F DUP4 ADD SLT PUSH2 0x4DEF JUMPI PUSH2 0x4DEE PUSH2 0x48B9 JUMP JUMPDEST JUMPDEST DUP2 CALLDATALOAD PUSH2 0x4DFF DUP5 DUP3 PUSH1 0x20 DUP7 ADD PUSH2 0x4D9A JUMP JUMPDEST SWAP2 POP POP SWAP3 SWAP2 POP POP JUMP JUMPDEST PUSH0 DUP1 PUSH0 DUP1 PUSH1 0x80 DUP6 DUP8 SUB SLT ISZERO PUSH2 0x4E20 JUMPI PUSH2 0x4E1F PUSH2 0x44DD JUMP JUMPDEST JUMPDEST PUSH0 PUSH2 0x4E2D DUP8 DUP3 DUP9 ADD PUSH2 0x470E JUMP JUMPDEST SWAP5 POP POP PUSH1 0x20 PUSH2 0x4E3E DUP8 DUP3 DUP9 ADD PUSH2 0x470E JUMP JUMPDEST SWAP4 POP POP PUSH1 0x40 PUSH2 0x4E4F DUP8 DUP3 DUP9 ADD PUSH2 0x4661 JUMP JUMPDEST SWAP3 POP POP PUSH1 0x60 DUP6 ADD CALLDATALOAD PUSH8 0xFFFFFFFFFFFFFFFF DUP2 GT ISZERO PUSH2 0x4E70 JUMPI PUSH2 0x4E6F PUSH2 0x44E1 JUMP JUMPDEST JUMPDEST PUSH2 0x4E7C DUP8 DUP3 DUP9 ADD PUSH2 0x4DDB JUMP JUMPDEST SWAP2 POP POP SWAP3 SWAP6 SWAP2 SWAP5 POP SWAP3 POP JUMP JUMPDEST PUSH0 DUP1 PUSH1 0x20 DUP4 DUP6 SUB SLT ISZERO PUSH2 0x4E9E JUMPI PUSH2 0x4E9D PUSH2 0x44DD JUMP JUMPDEST JUMPDEST PUSH0 DUP4 ADD CALLDATALOAD PUSH8 0xFFFFFFFFFFFFFFFF DUP2 GT ISZERO PUSH2 0x4EBB JUMPI PUSH2 0x4EBA PUSH2 0x44E1 JUMP JUMPDEST JUMPDEST PUSH2 0x4EC7 DUP6 DUP3 DUP7 ADD PUSH2 0x4A32 JUMP JUMPDEST SWAP3 POP SWAP3 POP POP SWAP3 POP SWAP3 SWAP1 POP JUMP JUMPDEST PUSH0 DUP1 PUSH1 0x40 DUP4 DUP6 SUB SLT ISZERO PUSH2 0x4EE9 JUMPI PUSH2 0x4EE8 PUSH2 0x44DD JUMP JUMPDEST JUMPDEST PUSH0 PUSH2 0x4EF6 DUP6 DUP3 DUP7 ADD PUSH2 0x470E JUMP JUMPDEST SWAP3 POP POP PUSH1 0x20 PUSH2 0x4F07 DUP6 DUP3 DUP7 ADD PUSH2 0x470E JUMP JUMPDEST SWAP2 POP POP SWAP3 POP SWAP3 SWAP1 POP JUMP JUMPDEST PUSH2 0x4F1A DUP2 PUSH2 0x47BC JUMP JUMPDEST DUP3 MSTORE POP POP JUMP JUMPDEST PUSH0 PUSH1 0x20 DUP3 ADD SWAP1 POP PUSH2 0x4F33 PUSH0 DUP4 ADD DUP5 PUSH2 0x4F11 JUMP JUMPDEST SWAP3 SWAP2 POP POP JUMP JUMPDEST PUSH32 0x4E487B7100000000000000000000000000000000000000000000000000000000 PUSH0 MSTORE PUSH1 0x22 PUSH1 0x4 MSTORE PUSH1 0x24 PUSH0 REVERT JUMPDEST PUSH0 PUSH1 0x2 DUP3 DIV SWAP1 POP PUSH1 0x1 DUP3 AND DUP1 PUSH2 0x4F7D JUMPI PUSH1 0x7F DUP3 AND SWAP2 POP JUMPDEST PUSH1 0x20 DUP3 LT DUP2 SUB PUSH2 0x4F90 JUMPI PUSH2 0x4F8F PUSH2 0x4F39 JUMP JUMPDEST JUMPDEST POP SWAP2 SWAP1 POP JUMP JUMPDEST PUSH32 0x536F756C626F756E640000000000000000000000000000000000000000000000 PUSH0 DUP3 ADD MSTORE POP JUMP JUMPDEST PUSH0 PUSH2 0x4FCA PUSH1 0x9 DUP4 PUSH2 0x45A2 JUMP JUMPDEST SWAP2 POP PUSH2 0x4FD5 DUP3 PUSH2 0x4F96 JUMP JUMPDEST PUSH1 0x20 DUP3 ADD SWAP1 POP SWAP2 SWAP1 POP JUMP JUMPDEST PUSH0 PUSH1 0x20 DUP3 ADD SWAP1 POP DUP2 DUP2 SUB PUSH0 DUP4 ADD MSTORE PUSH2 0x4FF7 DUP2 PUSH2 0x4FBE JUMP JUMPDEST SWAP1 POP SWAP2 SWAP1 POP JUMP JUMPDEST PUSH32 0x4E6F204449440000000000000000000000000000000000000000000000000000 PUSH0 DUP3 ADD MSTORE POP JUMP JUMPDEST PUSH0 PUSH2 0x5032 PUSH1 0x6 DUP4 PUSH2 0x45A2 JUMP JUMPDEST SWAP2 POP PUSH2 0x503D DUP3 PUSH2 0x4FFE JUMP JUMPDEST PUSH1 0x20 DUP3 ADD SWAP1 POP SWAP2 SWAP1 POP JUMP JUMPDEST PUSH0 PUSH1 0x20 DUP3 ADD SWAP1 POP DUP2 DUP2 SUB PUSH0 DUP4 ADD MSTORE PUSH2 0x505F DUP2 PUSH2 0x5026 JUMP JUMPDEST SWAP1 POP SWAP2 SWAP1 POP JUMP JUMPDEST PUSH32 0x4E6F74206F776E65720000000000000000000000000000000000000000000000 PUSH0 DUP3 ADD MSTORE POP JUMP JUMPDEST PUSH0 PUSH2 0x509A PUSH1 0x9 DUP4 PUSH2 0x45A2 JUMP JUMPDEST SWAP2 POP PUSH2 0x50A5 DUP3 PUSH2 0x5066 JUMP JUMPDEST PUSH1 0x20 DUP3 ADD SWAP1 POP SWAP2 SWAP1 POP JUMP JUMPDEST PUSH0 PUSH1 0x20 DUP3 ADD SWAP1 POP DUP2 DUP2 SUB PUSH0 DUP4 ADD MSTORE PUSH2 0x50C7 DUP2 PUSH2 0x508E JUMP JUMPDEST SWAP1 POP SWAP2 SWAP1 POP JUMP JUMPDEST PUSH32 0x5265766F6B656400000000000000000000000000000000000000000000000000 PUSH0 DUP3 ADD MSTORE POP JUMP JUMPDEST PUSH0 PUSH2 0x5102 PUSH1 0x7 DUP4 PUSH2 0x45A2 JUMP JUMPDEST SWAP2 POP PUSH2 0x510D DUP3 PUSH2 0x50CE JUMP JUMPDEST PUSH1 0x20 DUP3 ADD SWAP1 POP SWAP2 SWAP1 POP JUMP JUMPDEST PUSH0 PUSH1 0x20 DUP3 ADD SWAP1 POP DUP2 DUP2 SUB PUSH0 DUP4 ADD MSTORE PUSH2 0x512F DUP2 PUSH2 0x50F6 JUMP JUMPDEST SWAP1 POP SWAP2 SWAP1 POP JUMP JUMPDEST PUSH0 DUP2 SWAP1 POP SWAP3 SWAP2 POP POP JUMP JUMPDEST PUSH0 PUSH2 0x514B DUP4 DUP6 PUSH2 0x5136 JUMP JUMPDEST SWAP4 POP PUSH2 0x5158 DUP4 DUP6 DUP5 PUSH2 0x4BB1 JUMP JUMPDEST DUP3 DUP5 ADD SWAP1 POP SWAP4 SWAP3 POP POP POP JUMP JUMPDEST PUSH0 PUSH2 0x5170 DUP3 DUP5 DUP7 PUSH2 0x5140 JUMP JUMPDEST SWAP2 POP DUP2 SWAP1 POP SWAP4 SWAP3 POP POP POP JUMP JUMPDEST PUSH2 0x5185 DUP2 PUSH2 0x479A JUMP JUMPDEST DUP3 MSTORE POP POP JUMP JUMPDEST PUSH0 PUSH1 0x20 DUP3 ADD SWAP1 POP PUSH2 0x519E PUSH0 DUP4 ADD DUP5 PUSH2 0x517C JUMP JUMPDEST SWAP3 SWAP2 POP POP JUMP JUMPDEST PUSH0 PUSH1 0x60 DUP3 ADD SWAP1 POP PUSH2 0x51B7 PUSH0 DUP4 ADD DUP7 PUSH2 0x46D0 JUMP JUMPDEST PUSH2 0x51C4 PUSH1 0x20 DUP4 ADD DUP6 PUSH2 0x4965 JUMP JUMPDEST PUSH2 0x51D1 PUSH1 0x40 DUP4 ADD DUP5 PUSH2 0x46D0 JUMP JUMPDEST SWAP5 SWAP4 POP POP POP POP JUMP JUMPDEST PUSH0 DUP3 SWAP1 POP SWAP3 SWAP2 POP POP JUMP JUMPDEST PUSH0 DUP2 SWAP1 POP DUP2 PUSH0 MSTORE PUSH1 0x20 PUSH0 KECCAK256 SWAP1 POP SWAP2 SWAP1 POP JUMP JUMPDEST PUSH0 PUSH1 0x20 PUSH1 0x1F DUP4 ADD DIV SWAP1 POP SWAP2 SWAP1 POP JUMP JUMPDEST PUSH0 DUP3 DUP3 SHL SWAP1 POP SWAP3 SWAP2 POP POP JUMP JUMPDEST PUSH0 PUSH1 0x8 DUP4 MUL PUSH2 0x523F PUSH32 0xFFFFFFFFFFFFFFFFFFFFFFFFFFFFFFFFFFFFFFFFFFFFFFFFFFFFFFFFFFFFFFFF DUP3 PUSH2 0x5204 JUMP JUMPDEST PUSH2 0x5249 DUP7 DUP4 PUSH2 0x5204 JUMP JUMPDEST SWAP6 POP DUP1 NOT DUP5 AND SWAP4 POP DUP1 DUP7 AND DUP5 OR SWAP3 POP POP POP SWAP4 SWAP3 POP POP POP JUMP JUMPDEST PUSH0 DUP2 SWAP1 POP SWAP2 SWAP1 POP JUMP JUMPDEST PUSH0 PUSH2 0x5284 PUSH2 0x527F PUSH2 0x527A DUP5 PUSH2 0x4642 JUMP JUMPDEST PUSH2 0x5261 JUMP JUMPDEST PUSH2 0x4642 JUMP JUMPDEST SWAP1 POP SWAP2 SWAP1 POP JUMP JUMPDEST PUSH0 DUP2 SWAP1 POP SWAP2 SWAP1 POP JUMP JUMPDEST PUSH2 0x529D DUP4 PUSH2 0x526A JUMP JUMPDEST PUSH2 0x52B1 PUSH2 0x52A9 DUP3 PUSH2 0x528B JUMP JUMPDEST DUP5 DUP5 SLOAD PUSH2 0x5210 JUMP JUMPDEST DUP3 SSTORE POP POP POP POP JUMP JUMPDEST PUSH0 SWAP1 JUMP JUMPDEST PUSH2 0x52C5 PUSH2 0x52B9 JUMP JUMPDEST PUSH2 0x52D0 DUP2 DUP5 DUP5 PUSH2 0x5294 JUMP JUMPDEST POP POP POP JUMP JUMPDEST JUMPDEST DUP2 DUP2 LT ISZERO PUSH2 0x52F3 JUMPI PUSH2 0x52E8 PUSH0 DUP3 PUSH2 0x52BD JUMP JUMPDEST PUSH1 0x1 DUP2 ADD SWAP1 POP PUSH2 0x52D6 JUMP JUMPDEST POP POP JUMP JUMPDEST PUSH1 0x1F DUP3 GT ISZERO PUSH2 0x5338 JUMPI PUSH2 0x5309 DUP2 PUSH2 0x51E3 JUMP JUMPDEST PUSH2 0x5312 DUP5 PUSH2 0x51F5 JUMP JUMPDEST DUP2 ADD PUSH1 0x20 DUP6 LT ISZERO PUSH2 0x5321 JUMPI DUP2 SWAP1 POP JUMPDEST PUSH2 0x5335 PUSH2 0x532D DUP6 PUSH2 0x51F5 JUMP JUMPDEST DUP4 ADD DUP3 PUSH2 0x52D5 JUMP JUMPDEST POP POP JUMPDEST POP POP POP JUMP JUMPDEST PUSH0 DUP3 DUP3 SHR SWAP1 POP SWAP3 SWAP2 POP POP JUMP JUMPDEST PUSH0 PUSH2 0x5358 PUSH0 NOT DUP5 PUSH1 0x8 MUL PUSH2 0x533D JUMP JUMPDEST NOT DUP1 DUP4 AND SWAP2 POP POP SWAP3 SWAP2 POP POP JUMP JUMPDEST PUSH0 PUSH2 0x5370 DUP4 DUP4 PUSH2 0x5349 JUMP JUMPDEST SWAP2 POP DUP3 PUSH1 0x2 MUL DUP3 OR SWAP1 POP SWAP3 SWAP2 POP POP JUMP JUMPDEST PUSH2 0x538A DUP4 DUP4 PUSH2 0x51D9 JUMP JUMPDEST PUSH8 0xFFFFFFFFFFFFFFFF DUP2 GT ISZERO PUSH2 0x53A3 JUMPI PUSH2 0x53A2 PUSH2 0x4B09 JUMP JUMPDEST JUMPDEST PUSH2 0x53AD DUP3 SLOAD PUSH2 0x4F66 JUMP JUMPDEST PUSH2 0x53B8 DUP3 DUP3 DUP6 PUSH2 0x52F7 JUMP JUMPDEST PUSH0 PUSH1 0x1F DUP4 GT PUSH1 0x1 DUP2 EQ PUSH2 0x53E5 JUMPI PUSH0 DUP5 ISZERO PUSH2 0x53D3 JUMPI DUP3 DUP8 ADD CALLDATALOAD SWAP1 POP JUMPDEST PUSH2 0x53DD DUP6 DUP3 PUSH2 0x5365 JUMP JUMPDEST DUP7 SSTORE POP PUSH2 0x5444 JUMP JUMPDEST PUSH1 0x1F NOT DUP5 AND PUSH2 0x53F3 DUP7 PUSH2 0x51E3 JUMP JUMPDEST PUSH0 JUMPDEST DUP3 DUP2 LT ISZERO PUSH2 0x541A JUMPI DUP5 DUP10 ADD CALLDATALOAD DUP3 SSTORE PUSH1 0x1 DUP3 ADD SWAP2 POP PUSH1 0x20 DUP6 ADD SWAP5 POP PUSH1 0x20 DUP2 ADD SWAP1 POP PUSH2 0x53F5 JUMP JUMPDEST DUP7 DUP4 LT ISZERO PUSH2 0x5437 JUMPI DUP5 DUP10 ADD CALLDATALOAD PUSH2 0x5433 PUSH1 0x1F DUP10 AND DUP3 PUSH2 0x5349 JUMP JUMPDEST DUP4 SSTORE POP JUMPDEST PUSH1 0x1 PUSH1 0x2 DUP9 MUL ADD DUP9 SSTORE POP POP POP JUMPDEST POP POP POP POP POP POP POP JUMP JUMPDEST PUSH0 DUP2 SWAP1 POP DUP2 PUSH0 MSTORE PUSH1 0x20 PUSH0 KECCAK256 SWAP1 POP SWAP2 SWAP1 POP JUMP JUMPDEST PUSH1 0x1F DUP3 GT ISZERO PUSH2 0x54A0 JUMPI PUSH2 0x5471 DUP2 PUSH2 0x544D JUMP JUMPDEST PUSH2 0x547A DUP5 PUSH2 0x51F5 JUMP JUMPDEST DUP2 ADD PUSH1 0x20 DUP6 LT ISZERO PUSH2 0x5489 JUMPI DUP2 SWAP1 POP JUMPDEST PUSH2 0x549D PUSH2 0x5495 DUP6 PUSH2 0x51F5 JUMP JUMPDEST DUP4 ADD DUP3 PUSH2 0x52D5 JUMP JUMPDEST POP POP JUMPDEST POP POP POP JUMP JUMPDEST PUSH2 0x54AE DUP3 PUSH2 0x4598 JUMP JUMPDEST PUSH8 0xFFFFFFFFFFFFFFFF DUP2 GT ISZERO PUSH2 0x54C7 JUMPI PUSH2 0x54C6 PUSH2 0x4B09 JUMP JUMPDEST JUMPDEST PUSH2 0x54D1 DUP3 SLOAD PUSH2 0x4F66 JUMP JUMPDEST PUSH2 0x54DC DUP3 DUP3 DUP6 PUSH2 0x545F JUMP JUMPDEST PUSH0 PUSH1 0x20 SWAP1 POP PUSH1 0x1F DUP4 GT PUSH1 0x1 DUP2 EQ PUSH2 0x550D JUMPI PUSH0 DUP5 ISZERO PUSH2 0x54FB JUMPI DUP3 DUP8 ADD MLOAD SWAP1 POP JUMPDEST PUSH2 0x5505 DUP6 DUP3 PUSH2 0x5365 JUMP JUMPDEST DUP7 SSTORE POP PUSH2 0x556C JUMP JUMPDEST PUSH1 0x1F NOT DUP5 AND PUSH2 0x551B DUP7 PUSH2 0x544D JUMP JUMPDEST PUSH0 JUMPDEST DUP3 DUP2 LT ISZERO PUSH2 0x5542 JUMPI DUP5 DUP10 ADD MLOAD DUP3 SSTORE PUSH1 0x1 DUP3 ADD SWAP2 POP PUSH1 0x20 DUP6 ADD SWAP5 POP PUSH1 0x20 DUP2 ADD SWAP1 POP PUSH2 0x551D JUMP JUMPDEST DUP7 DUP4 LT ISZERO PUSH2 0x555F JUMPI DUP5 DUP10 ADD MLOAD PUSH2 0x555B PUSH1 0x1F DUP10 AND DUP3 PUSH2 0x5349 JUMP JUMPDEST DUP4 SSTORE POP JUMPDEST PUSH1 0x1 PUSH1 0x2 DUP9 MUL ADD DUP9 SSTORE POP POP POP JUMPDEST POP POP POP POP POP POP JUMP JUMPDEST PUSH32 0x4E6F7420617574686F72697A6564000000000000000000000000000000000000 PUSH0 DUP3 ADD MSTORE POP JUMP JUMPDEST PUSH0 PUSH2 0x55A8 PUSH1 0xE DUP4 PUSH2 0x45A2 JUMP JUMPDEST SWAP2 POP PUSH2 0x55B3 DUP3 PUSH2 0x5574 JUMP JUMPDEST PUSH1 0x20 DUP3 ADD SWAP1 POP SWAP2 SWAP1 POP JUMP JUMPDEST PUSH0 PUSH1 0x20 DUP3 ADD SWAP1 POP DUP2 DUP2 SUB PUSH0 DUP4 ADD MSTORE PUSH2 0x55D5 DUP2 PUSH2 0x559C JUMP JUMPDEST SWAP1 POP SWAP2 SWAP1 POP JUMP JUMPDEST PUSH32 0x5A65726F20616464720000000000000000000000000000000000000000000000 PUSH0 DUP3 ADD MSTORE POP JUMP JUMPDEST PUSH0 PUSH2 0x5610 PUSH1 0x9 DUP4 PUSH2 0x45A2 JUMP JUMPDEST SWAP2 POP PUSH2 0x561B DUP3 PUSH2 0x55DC JUMP JUMPDEST PUSH1 0x20 DUP3 ADD SWAP1 POP SWAP2 SWAP1 POP JUMP JUMPDEST PUSH0 PUSH1 0x20 DUP3 ADD SWAP1 POP DUP2 DUP2 SUB PUSH0 DUP4 ADD MSTORE PUSH2 0x563D DUP2 PUSH2 0x5604 JUMP JUMPDEST SWAP1 POP SWAP2 SWAP1 POP JUMP JUMPDEST PUSH32 0x53616D652077616C6C6574000000000000000000000000000000000000000000 PUSH0 DUP3 ADD MSTORE POP JUMP JUMPDEST PUSH0 PUSH2 0x5678 PUSH1 0xB DUP4 PUSH2 0x45A2 JUMP JUMPDEST SWAP2 POP PUSH2 0x5683 DUP3 PUSH2 0x5644 JUMP JUMPDEST PUSH1 0x20 DUP3 ADD SWAP1 POP SWAP2 SWAP1 POP JUMP JUMPDEST PUSH0 PUSH1 0x20 DUP3 ADD SWAP1 POP DUP2 DUP2 SUB PUSH0 DUP4 ADD MSTORE PUSH2 0x56A5 DUP2 PUSH2 0x566C JUMP JUMPDEST SWAP1 POP SWAP2 SWAP1 POP JUMP JUMPDEST PUSH32 0x4861732044494400000000000000000000000000000000000000000000000000 PUSH0 DUP3 ADD MSTORE POP JUMP JUMPDEST PUSH0 PUSH2 0x56E0 PUSH1 0x7 DUP4 PUSH2 0x45A2 JUMP JUMPDEST SWAP2 POP PUSH2 0x56EB DUP3 PUSH2 0x56AC JUMP JUMPDEST PUSH1 0x20 DUP3 ADD SWAP1 POP SWAP2 SWAP1 POP JUMP JUMPDEST PUSH0 PUSH1 0x20 DUP3 ADD SWAP1 POP DUP2 DUP2 SUB PUSH0 DUP4 ADD MSTORE PUSH2 0x570D DUP2 PUSH2 0x56D4 JUMP JUMPDEST SWAP1 POP SWAP2 SWAP1 POP JUMP JUMPDEST PUSH32 0x4E487B7100000000000000000000000000000000000000000000000000000000 PUSH0 MSTORE PUSH1 0x11 PUSH1 0x4 MSTORE PUSH1 0x24 PUSH0 REVERT JUMPDEST PUSH0 PUSH2 0x574B DUP3 PUSH2 0x4642 JUMP JUMPDEST SWAP2 POP PUSH32 0xFFFFFFFFFFFFFFFFFFFFFFFFFFFFFFFFFFFFFFFFFFFFFFFFFFFFFFFFFFFFFFFF DUP3 SUB PUSH2 0x577D JUMPI PUSH2 0x577C PUSH2 0x5714 JUMP JUMPDEST JUMPDEST PUSH1 0x1 DUP3 ADD SWAP1 POP SWAP2 SWAP1 POP JUMP JUMPDEST PUSH2 0x5791 DUP3 PUSH2 0x47D4 JUMP JUMPDEST PUSH8 0xFFFFFFFFFFFFFFFF DUP2 GT ISZERO PUSH2 0x57AA JUMPI PUSH2 0x57A9 PUSH2 0x4B09 JUMP JUMPDEST JUMPDEST PUSH2 0x57B4 DUP3 SLOAD PUSH2 0x4F66 JUMP JUMPDEST PUSH2 0x57BF DUP3 DUP3 DUP6 PUSH2 0x52F7 JUMP JUMPDEST PUSH0 PUSH1 0x20 SWAP1 POP PUSH1 0x1F DUP4 GT PUSH1 0x1 DUP2 EQ PUSH2 0x57F0 JUMPI PUSH0 DUP5 ISZERO PUSH2 0x57DE JUMPI DUP3 DUP8 ADD MLOAD SWAP1 POP JUMPDEST PUSH2 0x57E8 DUP6 DUP3 PUSH2 0x5365 JUMP JUMPDEST DUP7 SSTORE POP PUSH2 0x584F JUMP JUMPDEST PUSH1 0x1F NOT DUP5 AND PUSH2 0x57FE DUP7 PUSH2 0x51E3 JUMP JUMPDEST PUSH0 JUMPDEST DUP3 DUP2 LT ISZERO PUSH2 0x5825 JUMPI DUP5 DUP10 ADD MLOAD DUP3 SSTORE PUSH1 0x1 DUP3 ADD SWAP2 POP PUSH1 0x20 DUP6 ADD SWAP5 POP PUSH1 0x20 DUP2 ADD SWAP1 POP PUSH2 0x5800 JUMP JUMPDEST DUP7 DUP4 LT ISZERO PUSH2 0x5842 JUMPI DUP5 DUP10 ADD MLOAD PUSH2 0x583E PUSH1 0x1F DUP10 AND DUP3 PUSH2 0x5349 JUMP JUMPDEST DUP4 SSTORE POP JUMPDEST PUSH1 0x1 PUSH1 0x2 DUP9 MUL ADD DUP9 SSTORE POP POP POP JUMPDEST POP POP POP POP POP POP JUMP JUMPDEST PUSH32 0x4E6F207075626C6963206D696E74000000000000000000000000000000000000 PUSH0 DUP3 ADD MSTORE POP JUMP JUMPDEST PUSH0 PUSH2 0x588B PUSH1 0xE DUP4 PUSH2 0x45A2 JUMP JUMPDEST SWAP2 POP PUSH2 0x5896 DUP3 PUSH2 0x5857 JUMP JUMPDEST PUSH1 0x20 DUP3 ADD SWAP1 POP SWAP2 SWAP1 POP JUMP JUMPDEST PUSH0 PUSH1 0x20 DUP3 ADD SWAP1 POP DUP2 DUP2 SUB PUSH0 DUP4 ADD MSTORE PUSH2 0x58B8 DUP2 PUSH2 0x587F JUMP JUMPDEST SWAP1 POP SWAP2 SWAP1 POP JUMP JUMPDEST PUSH0 DUP2 SWAP1 POP SWAP3 SWAP2 POP POP JUMP JUMPDEST PUSH0 PUSH2 0x58D3 DUP3 PUSH2 0x4598 JUMP JUMPDEST PUSH2 0x58DD DUP2 DUP6 PUSH2 0x58BF JUMP JUMPDEST SWAP4 POP PUSH2 0x58ED DUP2 DUP6 PUSH1 0x20 DUP7 ADD PUSH2 0x45B2 JUMP JUMPDEST DUP1 DUP5 ADD SWAP2 POP POP SWAP3 SWAP2 POP POP JUMP JUMPDEST PUSH0 PUSH2 0x5904 DUP3 DUP6 PUSH2 0x58C9 JUMP JUMPDEST SWAP2 POP PUSH2 0x5910 DUP3 DUP5 PUSH2 0x58C9 JUMP JUMPDEST SWAP2 POP DUP2 SWAP1 POP SWAP4 SWAP3 POP POP POP JUMP JUMPDEST PUSH32 0x4E6F20746F6B656E000000000000000000000000000000000000000000000000 PUSH0 DUP3 ADD MSTORE POP JUMP JUMPDEST PUSH0 PUSH2 0x5950 PUSH1 0x8 DUP4 PUSH2 0x45A2 JUMP JUMPDEST SWAP2 POP PUSH2 0x595B DUP3 PUSH2 0x591C JUMP JUMPDEST PUSH1 0x20 DUP3 ADD SWAP1 POP SWAP2 SWAP1 POP JUMP JUMPDEST PUSH0 PUSH1 0x20 DUP3 ADD SWAP1 POP DUP2 DUP2 SUB PUSH0 DUP4 ADD MSTORE PUSH2 0x597D DUP2 PUSH2 0x5944 JUMP JUMPDEST SWAP1 POP SWAP2 SWAP1 POP JUMP JUMPDEST PUSH0 PUSH1 0x80 DUP3 ADD SWAP1 POP PUSH2 0x5997 PUSH0 DUP4 ADD DUP8 PUSH2 0x46D0 JUMP JUMPDEST PUSH2 0x59A4 PUSH1 0x20 DUP4 ADD DUP7 PUSH2 0x46D0 JUMP JUMPDEST PUSH2 0x59B1 PUSH1 0x40 DUP4 ADD DUP6 PUSH2 0x4965 JUMP JUMPDEST DUP2 DUP2 SUB PUSH1 0x60 DUP4 ADD MSTORE PUSH2 0x59C3 DUP2 DUP5 PUSH2 0x4CD4 JUMP JUMPDEST SWAP1 POP SWAP6 SWAP5 POP POP POP POP POP JUMP JUMPDEST PUSH0 DUP2 MLOAD SWAP1 POP PUSH2 0x59DC DUP2 PUSH2 0x4510 JUMP JUMPDEST SWAP3 SWAP2 POP POP JUMP JUMPDEST PUSH0 PUSH1 0x20 DUP3 DUP5 SUB SLT ISZERO PUSH2 0x59F7 JUMPI PUSH2 0x59F6 PUSH2 0x44DD JUMP JUMPDEST JUMPDEST PUSH0 PUSH2 0x5A04 DUP5 DUP3 DUP6 ADD PUSH2 0x59CE JUMP JUMPDEST SWAP2 POP POP SWAP3 SWAP2 POP POP JUMP JUMPDEST PUSH32 0x4E487B7100000000000000000000000000000000000000000000000000000000 PUSH0 MSTORE PUSH1 0x12 PUSH1 0x4 MSTORE PUSH1 0x24 PUSH0 REVERT JUMPDEST PUSH0 PUSH1 0x40 DUP3 ADD SWAP1 POP PUSH2 0x5A4D PUSH0 DUP4 ADD DUP6 PUSH2 0x46D0 JUMP JUMPDEST PUSH2 0x5A5A PUSH1 0x20 DUP4 ADD DUP5 PUSH2 0x4965 JUMP JUMPDEST SWAP4 SWAP3 POP POP POP JUMP INVALID LOG2 PUSH5 0x6970667358 0x22 SLT KECCAK256 SWAP11 MSTORE 0x5D 0x23 SDIV XOR 0xC8 PUSH12 0x8B95BBDFC842F60BD8AA75AB TIMESTAMP 0xE6 0xC1 0xA6 0x1E SWAP4 0xD2 MULMOD 0x2D 0x5E SMOD DUP4 PUSH5 0x736F6C6343 STOP ADDMOD EQ STOP CALLER "
	},
	"Assembly": ".code\n  PUSH 80\t\t\tract DIDIdentityToken is ERC72...\n  PUSH 40\t\t\tract DIDIdentityToken is ERC72...\n  MSTORE \t\t\tract DIDIdentityToken is ERC72...\n  CALLVALUE \t\t\ttructor(\\n        string memor...\n  DUP1 \t\t\ttructor(\\n        string memor...\n  ISZERO \t\t\ttructor(\\n        string memor...\n  PUSH [tag] 1\t\t\ttructor(\\n        string memor...\n  JUMPI \t\t\ttructor(\\n        string memor...\n  PUSH 0\t\t\ttructor(\\n        string memor...\n  DUP1 \t\t\ttructor(\\n        string memor...\n  REVERT \t\t\ttructor(\\n        string memor...\ntag 1\t\t\ttructor(\\n        string memor...\n  JUMPDEST \t\t\ttructor(\\n        string memor...\n  POP \t\t\ttructor(\\n        string memor...\n  PUSH 40\t\t\ttructor(\\n        string memor...\n  MLOAD \t\t\ttructor(\\n        string memor...\n  PUSHSIZE \t\t\ttructor(\\n        string memor...\n  CODESIZE \t\t\ttructor(\\n        string memor...\n  SUB \t\t\ttructor(\\n        string memor...\n  DUP1 \t\t\ttructor(\\n        string memor...\n  PUSHSIZE \t\t\ttructor(\\n        string memor...\n  DUP4 \t\t\ttructor(\\n        string memor...\n  CODECOPY \t\t\ttructor(\\n        string memor...\n  DUP2 \t\t\ttructor(\\n        string memor...\n  DUP2 \t\t\ttructor(\\n        string memor...\n  ADD \t\t\ttructor(\\n        string memor...\n  PUSH 40\t\t\ttructor(\\n        string memor...\n  MSTORE \t\t\ttructor(\\n        string memor...\n  DUP2 \t\t\ttructor(\\n        string memor...\n  ADD \t\t\ttructor(\\n        string memor...\n  SWAP1 \t\t\ttructor(\\n        string memor...\n  PUSH [tag] 2\t\t\ttructor(\\n        string memor...\n  SWAP2 \t\t\ttructor(\\n        string memor...\n  SWAP1 \t\t\ttructor(\\n        string memor...\n  PUSH [tag] 3\t\t\ttructor(\\n        string memor...\n  JUMP \t\t\ttructor(\\n        string memor...\ntag 2\t\t\ttructor(\\n        string memor...\n  JUMPDEST \t\t\ttructor(\\n        string memor...\n  CALLER \t\t\tsender) {\\n\n  DUP6 \t\t\t, sy\n  DUP6 \t\t\tol) Ow\n  DUP2 \t\t\t// 20\n  PUSH 0\t\t\t     \n  SWAP1 \t\t\t        // 20\n  DUP2 \t\t\t        // 20\n  PUSH [tag] 9\t\t\t        // 20\n  SWAP2 \t\t\t        // 20\n  SWAP1 \t\t\t        // 20\n  PUSH [tag] 10\t\t\t        // 20\n  JUMP \t\t\t        // 20\ntag 9\t\t\t        // 20\n  JUMPDEST \t\t\t        // 20\n  POP \t\t\t        // 20\n  DUP1 \t\t\t    uin\n  PUSH 1\t\t\tot 1)\\n \n  SWAP1 \t\t\tot 1)\\n        uin\n  DUP2 \t\t\tot 1)\\n        uin\n  PUSH [tag] 11\t\t\tot 1)\\n        uin\n  SWAP2 \t\t\tot 1)\\n        uin\n  SWAP1 \t\t\tot 1)\\n        uin\n  PUSH [tag] 10\t\t\tot 1)\\n        uin\n  JUMP \t\t\tot 1)\\n        uin\ntag 11\t\t\tot 1)\\n        uin\n  JUMPDEST \t\t\tot 1)\\n        uin\n  POP \t\t\tot 1)\\n        uin\n  POP \t\t\t     */\\n    struct DidProfile...\n  POP \t\t\t     */\\n    struct DidProfile...\n  PUSH 0\t\t\t@\n  PUSH FFFFFFFFFFFFFFFFFFFFFFFFFFFFFFFFFFFFFFFF\t\t\t===\\n    \\n    /**\\n     * @d\n  AND \t\t\t===\\n    \\n    /**\\n     * @d\n  DUP2 \t\t\t===\\n    \\n   \n  PUSH FFFFFFFFFFFFFFFFFFFFFFFFFFFFFFFFFFFFFFFF\t\t\t===\\n    \\n    /**\\n     * @d\n  AND \t\t\t===\\n    \\n    /**\\n     * @d\n  SUB \t\t\t===\\n    \\n    /**\\n     * @d\n  PUSH [tag] 13\t\t\t=======\\n    \\n    /**\\n     *...\n  JUMPI \t\t\t=======\\n    \\n    /**\\n     *...\n  PUSH 0\t\t\tg\n  PUSH 40\t\t\te\\n     * Packed to optimize g...\n  MLOAD \t\t\te\\n     * Packed to optimize g...\n  PUSH 1E4FBDF700000000000000000000000000000000000000000000000000000000\t\t\te\\n     * Packed to optimize g...\n  DUP2 \t\t\te\\n     * Packed to optimize g...\n  MSTORE \t\t\te\\n     * Packed to optimize g...\n  PUSH 4\t\t\te\\n     * Packed to optimize g...\n  ADD \t\t\te\\n     * Packed to optimize g...\n  PUSH [tag] 14\t\t\te\\n     * Packed to optimize g...\n  SWAP2 \t\t\te\\n     * Packed to optimize g...\n  SWAP1 \t\t\te\\n     * Packed to optimize g...\n  PUSH [tag] 15\t\t\te\\n     * Packed to optimize g...\n  JUMP \t\t\te\\n     * Packed to optimize g...\ntag 14\t\t\te\\n     * Packed to optimize g...\n  JUMPDEST \t\t\te\\n     * Packed to optimize g...\n  PUSH 40\t\t\te\\n     * Packed to optimize g...\n  MLOAD \t\t\te\\n     * Packed to optimize g...\n  DUP1 \t\t\te\\n     * Packed to optimize g...\n  SWAP2 \t\t\te\\n     * Packed to optimize g...\n  SUB \t\t\te\\n     * Packed to optimize g...\n  SWAP1 \t\t\te\\n     * Packed to optimize g...\n  REVERT \t\t\te\\n     * Packed to optimize g...\ntag 13\t\t\t=======\\n    \\n    /**\\n     *...\n  JUMPDEST \t\t\t=======\\n    \\n    /**\\n     *...\n  PUSH [tag] 16\t\t\tslots)\\n     */\\n    struct Di...\n  DUP2 \t\t\tstruct DidPr\n  PUSH [tag] 17\t\t\tslots)\\n     */\\n   \n  PUSH 20\t\t\tslots)\\n     */\\n   \n  SHL \t\t\tslots)\\n     */\\n   \n  PUSH 20\t\t\tslots)\\n     */\\n    struct Di...\n  SHR \t\t\tslots)\\n     */\\n    struct Di...\n  JUMP \t\t\tslots)\\n     */\\n    struct Di...\ntag 16\t\t\tslots)\\n     */\\n    struct Di...\n  JUMPDEST \t\t\tslots)\\n     */\\n    struct Di...\n  POP \t\t\tncyGuard {\\n    // ===========...\n  PUSH 1\t\t\t \n  PUSH 7\t\t\tool) pr\n  DUP2 \t\t\tool) private _hasDid;\n  SWAP1 \t\t\tool) private _hasDid;\n  SSTORE \t\t\tool) private _hasDid;\n  POP \t\t\tool) private _hasDid;\n  DUP3 \t\t\tURI;\\n  \n  PUSH F\t\t\teTokenURI = b\n  SWAP1 \t\t\teTokenURI = baseURI;\\n  \n  DUP2 \t\t\teTokenURI = baseURI;\\n  \n  PUSH [tag] 20\t\t\teTokenURI = baseURI;\\n  \n  SWAP2 \t\t\teTokenURI = baseURI;\\n  \n  SWAP1 \t\t\teTokenURI = baseURI;\\n  \n  PUSH [tag] 10\t\t\teTokenURI = baseURI;\\n  \n  JUMP \t\t\teTokenURI = baseURI;\\n  \ntag 20\t\t\teTokenURI = baseURI;\\n  \n  JUMPDEST \t\t\teTokenURI = baseURI;\\n  \n  POP \t\t\teTokenURI = baseURI;\\n  \n  DUP2 \t\t\tkendSigner;\\n  \n  PUSH E\t\t\tendSigner = _\n  PUSH 0\t\t\tendSigner = _\n  PUSH 100\t\t\tendSigner = _backendSigner;\\n ...\n  EXP \t\t\tendSigner = _backendSigner;\\n ...\n  DUP2 \t\t\tendSigner = _backendSigner;\\n ...\n  SLOAD \t\t\tendSigner = _backendSigner;\\n ...\n  DUP2 \t\t\tendSigner = _backendSigner;\\n ...\n  PUSH FFFFFFFFFFFFFFFFFFFFFFFFFFFFFFFFFFFFFFFF\t\t\tendSigner = _backendSigner;\\n ...\n  MUL \t\t\tendSigner = _backendSigner;\\n ...\n  NOT \t\t\tendSigner = _backendSigner;\\n ...\n  AND \t\t\tendSigner = _backendSigner;\\n ...\n  SWAP1 \t\t\tendSigner = _backendSigner;\\n ...\n  DUP4 \t\t\tendSigner = _backendSigner;\\n ...\n  PUSH FFFFFFFFFFFFFFFFFFFFFFFFFFFFFFFFFFFFFFFF\t\t\tendSigner = _backendSigner;\\n ...\n  AND \t\t\tendSigner = _backendSigner;\\n ...\n  MUL \t\t\tendSigner = _backendSigner;\\n ...\n  OR \t\t\tendSigner = _backendSigner;\\n ...\n  SWAP1 \t\t\tendSigner = _backendSigner;\\n ...\n  SSTORE \t\t\tendSigner = _backendSigner;\\n ...\n  POP \t\t\tendSigner = _backendSigner;\\n ...\n  DUP1 \t\t\towPublicMinting;\\n  \n  PUSH E\t\t\twPublicMinting = _\n  PUSH 14\t\t\twPublicMinting = _\n  PUSH 100\t\t\twPublicMinting = _allowPublicM...\n  EXP \t\t\twPublicMinting = _allowPublicM...\n  DUP2 \t\t\twPublicMinting = _allowPublicM...\n  SLOAD \t\t\twPublicMinting = _allowPublicM...\n  DUP2 \t\t\twPublicMinting = _allowPublicM...\n  PUSH FF\t\t\twPublicMinting = _allowPublicM...\n  MUL \t\t\twPublicMinting = _allowPublicM...\n  NOT \t\t\twPublicMinting = _allowPublicM...\n  AND \t\t\twPublicMinting = _allowPublicM...\n  SWAP1 \t\t\twPublicMinting = _allowPublicM...\n  DUP4 \t\t\twPublicMinting = _allowPublicM...\n  ISZERO \t\t\twPublicMinting = _allowPublicM...\n  ISZERO \t\t\twPublicMinting = _allowPublicM...\n  MUL \t\t\twPublicMinting = _allowPublicM...\n  OR \t\t\twPublicMinting = _allowPublicM...\n  SWAP1 \t\t\twPublicMinting = _allowPublicM...\n  SSTORE \t\t\twPublicMinting = _allowPublicM...\n  POP \t\t\twPublicMinting = _allowPublicM...\n  PUSH 0\t\t\t/\n  PUSH D\t\t\tenCounter = 0\n  DUP2 \t\t\tenCounter = 0; //\n  SWAP1 \t\t\tenCounter = 0; //\n  SSTORE \t\t\tenCounter = 0; //\n  POP \t\t\tenCounter = 0; //\n  POP \t\t\ttructor(\\n        string memor...\n  POP \t\t\ttructor(\\n        string memor...\n  POP \t\t\ttructor(\\n        string memor...\n  POP \t\t\ttructor(\\n        string memor...\n  POP \t\t\ttructor(\\n        string memor...\n  PUSH [tag] 21\t\t\tract DIDIdentityToken is ERC72...\n  JUMP \t\t\tract DIDIdentityToken is ERC72...\ntag 17\t\t\tferenceUpdated(\\n        addre...\n  JUMPDEST \t\t\tferenceUpdated(\\n        addre...\n  PUSH 0\t\t\tenId,\\n        by\n  PUSH 6\t\t\t32 ind\n  PUSH 0\t\t\t32 ind\n  SWAP1 \t\t\t32 ind\n  SLOAD \t\t\t32 ind\n  SWAP1 \t\t\t32 ind\n  PUSH 100\t\t\t32 ind\n  EXP \t\t\t32 ind\n  SWAP1 \t\t\t32 ind\n  DIV \t\t\t32 ind\n  PUSH FFFFFFFFFFFFFFFFFFFFFFFFFFFFFFFFFFFFFFFF\t\t\t32 ind\n  AND \t\t\t32 ind\n  SWAP1 \t\t\tenId,\\n        bytes32 ind\n  POP \t\t\tenId,\\n        bytes32 ind\n  DUP2 \t\t\tnce,\\n   \n  PUSH 6\t\t\tataRef\n  PUSH 0\t\t\tataRef\n  PUSH 100\t\t\tataReference,\\n   \n  EXP \t\t\tataReference,\\n   \n  DUP2 \t\t\tataReference,\\n   \n  SLOAD \t\t\tataReference,\\n   \n  DUP2 \t\t\tataReference,\\n   \n  PUSH FFFFFFFFFFFFFFFFFFFFFFFFFFFFFFFFFFFFFFFF\t\t\tataReference,\\n   \n  MUL \t\t\tataReference,\\n   \n  NOT \t\t\tataReference,\\n   \n  AND \t\t\tataReference,\\n   \n  SWAP1 \t\t\tataReference,\\n   \n  DUP4 \t\t\tataReference,\\n   \n  PUSH FFFFFFFFFFFFFFFFFFFFFFFFFFFFFFFFFFFFFFFF\t\t\tataReference,\\n   \n  AND \t\t\tataReference,\\n   \n  MUL \t\t\tataReference,\\n   \n  OR \t\t\tataReference,\\n   \n  SWAP1 \t\t\tataReference,\\n   \n  SSTORE \t\t\tataReference,\\n   \n  POP \t\t\tataReference,\\n   \n  DUP2 \t\t\t * @dev \n  PUSH FFFFFFFFFFFFFFFFFFFFFFFFFFFFFFFFFFFFFFFF\t\t\testamp\\n    );\\n    \\n    /**\\...\n  AND \t\t\testamp\\n    );\\n    \\n    /**\\...\n  DUP2 \t\t\t  /**\\n  \n  PUSH FFFFFFFFFFFFFFFFFFFFFFFFFFFFFFFFFFFFFFFF\t\t\testamp\\n    );\\n    \\n    /**\\...\n  AND \t\t\testamp\\n    );\\n    \\n    /**\\...\n  PUSH 8BE0079C531659141344CD1FD0A4F28419497F9722A3DAAFE3B4186F6B6457E0\t\t\testamp\\n    );\\n    \\n    /**\\...\n  PUSH 40\t\t\testamp\\n    );\\n    \\n    /**\\...\n  MLOAD \t\t\testamp\\n    );\\n    \\n    /**\\...\n  PUSH 40\t\t\testamp\\n    );\\n    \\n    /**\\...\n  MLOAD \t\t\testamp\\n    );\\n    \\n    /**\\...\n  DUP1 \t\t\testamp\\n    );\\n    \\n    /**\\...\n  SWAP2 \t\t\testamp\\n    );\\n    \\n    /**\\...\n  SUB \t\t\testamp\\n    );\\n    \\n    /**\\...\n  SWAP1 \t\t\testamp\\n    );\\n    \\n    /**\\...\n  LOG3 \t\t\testamp\\n    );\\n    \\n    /**\\...\n  POP \t\t\tndexed tokenId,\\n        bytes...\n  POP \t\t\tferenceUpdated(\\n        addre...\n  JUMP \t\t\tferenceUpdated(\\n        addre...\ntag 23\t\t\t-License-Identifier: MIT\\nprag...\n  JUMPDEST \t\t\t-License-Identifier: MIT\\nprag...\n  PUSH 0\t\t\tolidit\n  PUSH 40\t\t\tti\n  MLOAD \t\t\ter settin\n  SWAP1 \t\t\t\\n// Compiler settin\n  POP \t\t\t\\n// Compiler settin\n  SWAP1 \t\t\t-License-Identifier: MIT\\nprag...\n  JUMP \t\t\t-License-Identifier: MIT\\nprag...\ntag 24\t\t\t IDE:\\n// - Enable optimizatio...\n  JUMPDEST \t\t\t IDE:\\n// - Enable optimizatio...\n  PUSH 0\t\t\t \n  DUP1 \t\t\tr\n  REVERT \t\t\tion: Paris (\ntag 25\t\t\t// This ensures the contract s...\n  JUMPDEST \t\t\t// This ensures the contract s...\n  PUSH 0\t\t\t1\n  DUP1 \t\t\tC\n  REVERT \t\t\token/ERC721/\ntag 26\t\t\t\\nimport \"@openzeppelin/contra...\n  JUMPDEST \t\t\t\\nimport \"@openzeppelin/contra...\n  PUSH 0\t\t\to\n  DUP1 \t\t\td\n  REVERT \t\t\tncyGuard.sol\ntag 27\t\t\ttitle DIDIdentityToken\\n * @de...\n  JUMPDEST \t\t\ttitle DIDIdentityToken\\n * @de...\n  PUSH 0\t\t\th\n  DUP1 \t\t\ta\n  REVERT \t\t\tallet can ha\ntag 28\t\t\tne non-transferable identity t...\n  JUMPDEST \t\t\tne non-transferable identity t...\n  PUSH 0\t\t\t Stora\n  PUSH 1F\t\t\t* \n  NOT \t\t\tng\\n * -\n  PUSH 1F\t\t\tma\n  DUP4 \t\t\trofil\n  ADD \t\t\tDidProfile map\n  AND \t\t\td → DidProfile mapping\\n * - \n  SWAP1 \t\t\t* - tokenId → DidProfile mappi...\n  POP \t\t\t* - tokenId → DidProfile mappi...\n  SWAP2 \t\t\tne non-transferable identity t...\n  SWAP1 \t\t\tne non-transferable identity t...\n  POP \t\t\tne non-transferable identity t...\n  JUMP \t\t\tne non-transferable identity t...\ntag 29\t\t\tnId mapping (for efficient loo...\n  JUMPDEST \t\t\tnId mapping (for efficient loo...\n  PUSH 4E487B7100000000000000000000000000000000000000000000000000000000\t\t\tnsiderations:\\n * - Using uint...\n  PUSH 0\t\t\t \n  MSTORE \t\t\t\\n * Gas Considerations:\\n * -...\n  PUSH 41\t\t\trenc\n  PUSH 4\t\t\te\n  MSTORE \t\t\tatDataReference\n  PUSH 24\t\t\tent \n  PUSH 0\t\t\ti\n  REVERT \t\t\tgas-efficient t\ntag 30\t\t\t* - Single storage slot for Di...\n  JUMPDEST \t\t\t* - Single storage slot for Di...\n  PUSH [tag] 72\t\t\tefficient filtering\\n * \\n * \n  DUP3 \t\t\t \\n *\n  PUSH [tag] 28\t\t\tefficient filtering\\n * \\n * \n  JUMP \t\t\tefficient filtering\\n * \\n * \ntag 72\t\t\tefficient filtering\\n * \\n * \n  JUMPDEST \t\t\tefficient filtering\\n * \\n * \n  DUP2 \t\t\txed fo\n  ADD \t\t\tindexed for efficient filterin...\n  DUP2 \t\t\tr prox\n  DUP2 \t\t\te grouped \n  LT \t\t\t are grouped for proxy\n  PUSH FFFFFFFFFFFFFFFF\t\t\t* - Storage variab\n  DUP3 \t\t\tage layout\n  GT \t\t\ttorage layout\\n * - Storage va...\n  OR \t\t\te storage layout\\n * - Storage...\n  ISZERO \t\t\tible storage layout\\n * - Stor...\n  PUSH [tag] 73\t\t\tible storage layout\\n * - Stor...\n  JUMPI \t\t\tible storage layout\\n * - Stor...\n  PUSH [tag] 74\t\t\tpatibility\\n * - Co\n  PUSH [tag] 29\t\t\tpatibility\\n * - Co\n  JUMP \t\t\tpatibility\\n * - Co\ntag 74\t\t\tpatibility\\n * - Co\n  JUMPDEST \t\t\tpatibility\\n * - Co\ntag 73\t\t\tible storage layout\\n * - Stor...\n  JUMPDEST \t\t\tible storage layout\\n * - Stor...\n  DUP1 \t\t\ty pattern \n  PUSH 40\t\t\tpr\n  MSTORE \t\t\tg UUPS proxy pattern f\n  POP \t\t\tked struct)\\n * - Events are i...\n  POP \t\t\t* - Single storage slot for Di...\n  POP \t\t\t* - Single storage slot for Di...\n  JUMP \t\t\t* - Single storage slot for Di...\ntag 31\t\t\tgrades\\n */\\ncontract DIDIdent...\n  JUMPDEST \t\t\tgrades\\n */\\ncontract DIDIdent...\n  PUSH 0\t\t\ten is \n  PUSH [tag] 76\t\t\ttrancyGuard {\\n    //\n  PUSH [tag] 23\t\t\ttrancyGuard {\\n    //\n  JUMP \t\t\ttrancyGuard {\\n    //\ntag 76\t\t\ttrancyGuard {\\n    //\n  JUMPDEST \t\t\ttrancyGuard {\\n    //\n  SWAP1 \t\t\table, ReentrancyGuard {\\n    /...\n  POP \t\t\table, ReentrancyGuard {\\n    /...\n  PUSH [tag] 77\t\t\t==== Storage ============\\n   ...\n  DUP3 \t\t\t  \\n \n  DUP3 \t\t\t=====\\n\n  PUSH [tag] 30\t\t\t==== Storage ============\\n   ...\n  JUMP \t\t\t==== Storage ============\\n   ...\ntag 77\t\t\t==== Storage ============\\n   ...\n  JUMPDEST \t\t\t==== Storage ============\\n   ...\n  SWAP2 \t\t\tgrades\\n */\\ncontract DIDIdent...\n  SWAP1 \t\t\tgrades\\n */\\ncontract DIDIdent...\n  POP \t\t\tgrades\\n */\\ncontract DIDIdent...\n  JUMP \t\t\tgrades\\n */\\ncontract DIDIdent...\ntag 32\t\t\t @dev DID Profile structure\\n ...\n  JUMPDEST \t\t\t @dev DID Profile structure\\n ...\n  PUSH 0\t\t\ts in\n  PUSH FFFFFFFFFFFFFFFF\t\t\t      // 20 bytes \n  DUP3 \t\t\t      \n  GT \t\t\t                 // 20 bytes (\n  ISZERO \t\t\t                    // 20 byte...\n  PUSH [tag] 79\t\t\t                    // 20 byte...\n  JUMPI \t\t\t                    // 20 byte...\n  PUSH [tag] 80\t\t\tt 1)\\n        uint6\n  PUSH [tag] 29\t\t\tt 1)\\n        uint6\n  JUMP \t\t\tt 1)\\n        uint6\ntag 80\t\t\tt 1)\\n        uint6\n  JUMPDEST \t\t\tt 1)\\n        uint6\ntag 79\t\t\t                    // 20 byte...\n  JUMPDEST \t\t\t                    // 20 byte...\n  PUSH [tag] 81\t\t\t         // 8 bytes (slot 1, \n  DUP3 \t\t\tlot 1,\n  PUSH [tag] 28\t\t\t         // 8 bytes (slot 1, \n  JUMP \t\t\t         // 8 bytes (slot 1, \ntag 81\t\t\t         // 8 bytes (slot 1, \n  JUMPDEST \t\t\t         // 8 bytes (slot 1, \n  SWAP1 \t\t\t                 // 8 bytes (s...\n  POP \t\t\t                 // 8 bytes (s...\n  PUSH 20\t\t\tbyte\n  DUP2 \t\t\t // \n  ADD \t\t\t     // 8 bytes\n  SWAP1 \t\t\t             // 8 bytes\n  POP \t\t\t             // 8 bytes\n  SWAP2 \t\t\t @dev DID Profile structure\\n ...\n  SWAP1 \t\t\t @dev DID Profile structure\\n ...\n  POP \t\t\t @dev DID Profile structure\\n ...\n  JUMP \t\t\t @dev DID Profile structure\\n ...\ntag 33\t\t\tked)\\n        bytes32 chatData...\n  JUMPDEST \t\t\tked)\\n        bytes32 chatData...\n  PUSH 0\t\t\t \ntag 83\t\t\tKeyMetadata;       // Variable...\n  JUMPDEST \t\t\tKeyMetadata;       // Variable...\n  DUP4 \t\t\t     /\n  DUP2 \t\t\t;\n  LT \t\t\tata;       //\n  ISZERO \t\t\tKeyMetadata;       // Variable...\n  PUSH [tag] 85\t\t\tKeyMetadata;       // Variable...\n  JUMPI \t\t\tKeyMetadata;       // Variable...\n  DUP1 \t\t\t \n  DUP3 \t\t\tle\\n\n  ADD \t\t\trofile\\n    \n  MLOAD \t\t\to DidProfile\\n    m\n  DUP2 \t\t\tI\n  DUP5 \t\t\ttok\n  ADD \t\t\trom tokenId\n  MSTORE \t\t\tpping from tokenId to DidProfi...\n  PUSH 20\t\t\th \n  DUP2 \t\t\tn\n  ADD \t\t\te length (\n  SWAP1 \t\t\triable length (\n  POP \t\t\triable length (\n  PUSH [tag] 83\t\t\tKeyMetadata;       // Variable...\n  JUMP \t\t\tKeyMetadata;       // Variable...\ntag 85\t\t\tKeyMetadata;       // Variable...\n  JUMPDEST \t\t\tKeyMetadata;       // Variable...\n  PUSH 0\t\t\tr\n  DUP5 \t\t\te _tok\n  DUP5 \t\t\triv\n  ADD \t\t\te) private _toke\n  MSTORE \t\t\tdProfile) private _tokenPro\n  POP \t\t\tot 2)\\n        bytes encrypted...\n  POP \t\t\tked)\\n        bytes32 chatData...\n  POP \t\t\tked)\\n        bytes32 chatData...\n  POP \t\t\tked)\\n        bytes32 chatData...\n  JUMP \t\t\tked)\\n        bytes32 chatData...\ntag 34\t\t\t    // Mapping from owner addr...\n  JUMPDEST \t\t\t    // Mapping from owner addr...\n  PUSH 0\t\t\t> uin\n  PUSH [tag] 87\t\t\tToTokenId;\\n    \\n    // Mappi...\n  PUSH [tag] 88\t\t\t    // Mapping to check if add...\n  DUP5 \t\t\tID\\n   \n  PUSH [tag] 32\t\t\t    // Mapping to check if add...\n  JUMP \t\t\t    // Mapping to check if add...\ntag 88\t\t\t    // Mapping to check if add...\n  JUMPDEST \t\t\t    // Mapping to check if add...\n  PUSH [tag] 31\t\t\tToTokenId;\\n    \\n    // Mappi...\n  JUMP \t\t\tToTokenId;\\n    \\n    // Mappi...\ntag 87\t\t\tToTokenId;\\n    \\n    // Mappi...\n  JUMPDEST \t\t\tToTokenId;\\n    \\n    // Mappi...\n  SWAP1 \t\t\tte _ownerToTokenId;\\n    \\n   ...\n  POP \t\t\tte _ownerToTokenId;\\n    \\n   ...\n  DUP3 \t\t\t priva\n  DUP2 \t\t\t> boo\n  MSTORE \t\t\tdress => bool) privat\n  PUSH 20\t\t\tto t\n  DUP2 \t\t\tappin\n  ADD \t\t\t// Mapping to tr\n  DUP5 \t\t\tg t\n  DUP5 \t\t\tte map\n  DUP5 \t\t\tepa\n  ADD \t\t\ts (separate mapp\n  GT \t\t\tDIDs (separate mapping to\n  ISZERO \t\t\ted DIDs (separate mapping to p...\n  PUSH [tag] 89\t\t\ted DIDs (separate mapping to p...\n  JUMPI \t\t\ted DIDs (separate mapping to p...\n  PUSH [tag] 90\t\t\teserve storage layout)\\n    ma...\n  PUSH [tag] 27\t\t\teserve storage layout)\\n    ma...\n  JUMP \t\t\teserve storage layout)\\n    ma...\ntag 90\t\t\teserve storage layout)\\n    ma...\n  JUMPDEST \t\t\teserve storage layout)\\n    ma...\ntag 89\t\t\ted DIDs (separate mapping to p...\n  JUMPDEST \t\t\ted DIDs (separate mapping to p...\n  PUSH [tag] 91\t\t\tdress => bool) private _revoke...\n  DUP5 \t\t\t \\n    \n  DUP3 \t\t\t;\\n \n  DUP6 \t\t\tess\n  PUSH [tag] 33\t\t\tdress => bool) private _revoke...\n  JUMP \t\t\tdress => bool) private _revoke...\ntag 91\t\t\tdress => bool) private _revoke...\n  JUMPDEST \t\t\tdress => bool) private _revoke...\n  POP \t\t\t256) private _ownerToTokenId;\\...\n  SWAP4 \t\t\t    // Mapping from owner addr...\n  SWAP3 \t\t\t    // Mapping from owner addr...\n  POP \t\t\t    // Mapping from owner addr...\n  POP \t\t\t    // Mapping from owner addr...\n  POP \t\t\t    // Mapping from owner addr...\n  JUMP \t\t\t    // Mapping from owner addr...\ntag 35\t\t\t 1)\\n    uint256 private _toke...\n  JUMPDEST \t\t\t 1)\\n    uint256 private _toke...\n  PUSH 0\t\t\tor mi\n  DUP3 \t\t\tign\n  PUSH 1F\t\t\tacke\n  DUP4 \t\t\tpublic\n  ADD \t\t\tess public backen\n  SLT \t\t\taddress public backendSigne\n  PUSH [tag] 93\t\t\tonal)\\n    address public back...\n  JUMPI \t\t\tonal)\\n    address public back...\n  PUSH [tag] 94\t\t\t   \\n    // Whether public min...\n  PUSH [tag] 26\t\t\t   \\n    // Whether public min...\n  JUMP \t\t\t   \\n    // Whether public min...\ntag 94\t\t\t   \\n    // Whether public min...\n  JUMPDEST \t\t\t   \\n    // Whether public min...\ntag 93\t\t\tonal)\\n    address public back...\n  JUMPDEST \t\t\tonal)\\n    address public back...\n  DUP2 \t\t\tn meta\n  MLOAD \t\t\tr token metad\n  PUSH [tag] 95\t\t\tvate _baseTokenURI;\\n\\n    // ...\n  DUP5 \t\t\tEmi\n  DUP3 \t\t\t * @de\n  PUSH 20\t\t\t**\\n \n  DUP7 \t\t\t  \\n   \n  ADD \t\t\t=\\n    \\n    /**\\n  \n  PUSH [tag] 34\t\t\tvate _baseTokenURI;\\n\\n    // ...\n  JUMP \t\t\tvate _baseTokenURI;\\n\\n    // ...\ntag 95\t\t\tvate _baseTokenURI;\\n\\n    // ...\n  JUMPDEST \t\t\tvate _baseTokenURI;\\n\\n    // ...\n  SWAP2 \t\t\ttring private _baseTokenURI;\\n...\n  POP \t\t\ttring private _baseTokenURI;\\n...\n  POP \t\t\tting (optional)\\n    address p...\n  SWAP3 \t\t\t 1)\\n    uint256 private _toke...\n  SWAP2 \t\t\t 1)\\n    uint256 private _toke...\n  POP \t\t\t 1)\\n    uint256 private _toke...\n  POP \t\t\t 1)\\n    uint256 private _toke...\n  JUMP \t\t\t 1)\\n    uint256 private _toke...\ntag 36\t\t\tID is created\\n     */\\n    ev...\n  JUMPDEST \t\t\tID is created\\n     */\\n    ev...\n  PUSH 0\t\t\teated(\\n\n  PUSH FFFFFFFFFFFFFFFFFFFFFFFFFFFFFFFFFFFFFFFF\t\t\t     uint256 indexed tokenId,\\...\n  DUP3 \t\t\ter,\\n \n  AND \t\t\td user,\\n        uint256 index...\n  SWAP1 \t\t\tress indexed user,\\n        ui...\n  POP \t\t\tress indexed user,\\n        ui...\n  SWAP2 \t\t\tID is created\\n     */\\n    ev...\n  SWAP1 \t\t\tID is created\\n     */\\n    ev...\n  POP \t\t\tID is created\\n     */\\n    ev...\n  JUMP \t\t\tID is created\\n     */\\n    ev...\ntag 37\t\t\t    );\\n    \\n    /**\\n     * ...\n  JUMPDEST \t\t\t    );\\n    \\n    /**\\n     * ...\n  PUSH 0\t\t\ted when\n  PUSH [tag] 98\t\t\ts updated\\n     */\\n    ev\n  DUP3 \t\t\t    e\n  PUSH [tag] 36\t\t\ts updated\\n     */\\n    ev\n  JUMP \t\t\ts updated\\n     */\\n    ev\ntag 98\t\t\ts updated\\n     */\\n    ev\n  JUMPDEST \t\t\ts updated\\n     */\\n    ev\n  SWAP1 \t\t\treference is updated\\n     */\\...\n  POP \t\t\treference is updated\\n     */\\...\n  SWAP2 \t\t\t    );\\n    \\n    /**\\n     * ...\n  SWAP1 \t\t\t    );\\n    \\n    /**\\n     * ...\n  POP \t\t\t    );\\n    \\n    /**\\n     * ...\n  JUMP \t\t\t    );\\n    \\n    /**\\n     * ...\ntag 38\t\t\teferenceUpdated(\\n        addr...\n  JUMPDEST \t\t\teferenceUpdated(\\n        addr...\n  PUSH [tag] 100\t\t\tkenId,\\n        bytes32 i\n  DUP2 \t\t\tes32 \n  PUSH [tag] 37\t\t\tkenId,\\n        bytes32 i\n  JUMP \t\t\tkenId,\\n        bytes32 i\ntag 100\t\t\tkenId,\\n        bytes32 i\n  JUMPDEST \t\t\tkenId,\\n        bytes32 i\n  DUP2 \t\t\texed \n  EQ \t\t\tindexed tokenId,\\n        byte...\n  PUSH [tag] 101\t\t\t  uint256 indexed tokenId,\\n  ...\n  JUMPI \t\t\t  uint256 indexed tokenId,\\n  ...\n  PUSH 0\t\t\tR\n  DUP1 \t\t\ta\n  REVERT \t\t\td chatDataRe\ntag 101\t\t\t  uint256 indexed tokenId,\\n  ...\n  JUMPDEST \t\t\t  uint256 indexed tokenId,\\n  ...\n  POP \t\t\teferenceUpdated(\\n        addr...\n  JUMP \t\t\teferenceUpdated(\\n        addr...\ntag 39\t\t\t   uint64 timestamp\\n    );\\n ...\n  JUMPDEST \t\t\t   uint64 timestamp\\n    );\\n ...\n  PUSH 0\t\t\ted wh\n  DUP2 \t\t\tis upd\n  MLOAD \t\t\tadata is upda\n  SWAP1 \t\t\td key metadata is upda\n  POP \t\t\td key metadata is upda\n  PUSH [tag] 103\t\t\t*/\\n    event DidKeyMetadataUp...\n  DUP2 \t\t\tUpdat\n  PUSH [tag] 38\t\t\t*/\\n    event DidKeyMetadataUp...\n  JUMP \t\t\t*/\\n    event DidKeyMetadataUp...\ntag 103\t\t\t*/\\n    event DidKeyMetadataUp...\n  JUMPDEST \t\t\t*/\\n    event DidKeyMetadataUp...\n  SWAP3 \t\t\t   uint64 timestamp\\n    );\\n ...\n  SWAP2 \t\t\t   uint64 timestamp\\n    );\\n ...\n  POP \t\t\t   uint64 timestamp\\n    );\\n ...\n  POP \t\t\t   uint64 timestamp\\n    );\\n ...\n  JUMP \t\t\t   uint64 timestamp\\n    );\\n ...\ntag 40\t\t\tddress indexed user,\\n        ...\n  JUMPDEST \t\t\tddress indexed user,\\n        ...\n  PUSH 0\t\t\t56 inde\n  DUP2 \t\t\tp\\n   \n  ISZERO \t\t\timestamp\\n    \n  ISZERO \t\t\tint64 timestamp\\n    )\n  SWAP1 \t\t\t,\\n        uint64 timestamp\\n ...\n  POP \t\t\t,\\n        uint64 timestamp\\n ...\n  SWAP2 \t\t\tddress indexed user,\\n        ...\n  SWAP1 \t\t\tddress indexed user,\\n        ...\n  POP \t\t\tddress indexed user,\\n        ...\n  JUMP \t\t\tddress indexed user,\\n        ...\ntag 41\t\t\t**\\n     * @dev Emitted when b...\n  JUMPDEST \t\t\t**\\n     * @dev Emitted when b...\n  PUSH [tag] 106\t\t\tt BackendSignerUpdate\n  DUP2 \t\t\tUpdat\n  PUSH [tag] 40\t\t\tt BackendSignerUpdate\n  JUMP \t\t\tt BackendSignerUpdate\ntag 106\t\t\tt BackendSignerUpdate\n  JUMPDEST \t\t\tt BackendSignerUpdate\n  DUP2 \t\t\t   ev\n  EQ \t\t\t/\\n    event BackendSignerUpda...\n  PUSH [tag] 107\t\t\tted\\n     */\\n    event Backen...\n  JUMPI \t\t\tted\\n     */\\n    event Backen...\n  PUSH 0\t\t\te\n  DUP1 \t\t\td\n  REVERT \t\t\tress indexed\ntag 107\t\t\tted\\n     */\\n    event Backen...\n  JUMPDEST \t\t\tted\\n     */\\n    event Backen...\n  POP \t\t\t**\\n     * @dev Emitted when b...\n  JUMP \t\t\t**\\n     * @dev Emitted when b...\ntag 42\t\t\t   \\n    /**\\n     * @dev Emit...\n  JUMPDEST \t\t\t   \\n    /**\\n     * @dev Emit...\n  PUSH 0\t\t\t togg\n  DUP2 \t\t\ticMint\n  MLOAD \t\t\tt PublicMinti\n  SWAP1 \t\t\t\\n    event PublicMinti\n  POP \t\t\t\\n    event PublicMinti\n  PUSH [tag] 109\t\t\t(bool enabled);\\n    \\n    /**...\n  DUP2 \t\t\t /**\\n\n  PUSH [tag] 41\t\t\t(bool enabled);\\n    \\n    /**...\n  JUMP \t\t\t(bool enabled);\\n    \\n    /**...\ntag 109\t\t\t(bool enabled);\\n    \\n    /**...\n  JUMPDEST \t\t\t(bool enabled);\\n    \\n    /**...\n  SWAP3 \t\t\t   \\n    /**\\n     * @dev Emit...\n  SWAP2 \t\t\t   \\n    /**\\n     * @dev Emit...\n  POP \t\t\t   \\n    /**\\n     * @dev Emit...\n  POP \t\t\t   \\n    /**\\n     * @dev Emit...\n  JUMP \t\t\t   \\n    /**\\n     * @dev Emit...\ntag 3\t\t\tmitted when a DID is revoked\\n...\n  JUMPDEST \t\t\tmitted when a DID is revoked\\n...\n  PUSH 0\t\t\tt64 ti\n  DUP1 \t\t\tstamp\\n\n  PUSH 0\t\t\t  );\\n \n  DUP1 \t\t\t \\n    \n  PUSH 0\t\t\t*\\n    \n  PUSH A0\t\t\t ne\n  DUP7 \t\t\tigrated t\n  DUP9 \t\t\t DID is\n  SUB \t\t\ten a DID is migrated to\n  SLT \t\t\td when a DID is migrated to a ...\n  ISZERO \t\t\ttted when a DID is migrated to...\n  PUSH [tag] 111\t\t\ttted when a DID is migrated to...\n  JUMPI \t\t\ttted when a DID is migrated to...\n  PUSH [tag] 112\t\t\tllet\\n     */\\n    event DidMi...\n  PUSH [tag] 24\t\t\tllet\\n     */\\n    event DidMi...\n  JUMP \t\t\tllet\\n     */\\n    event DidMi...\ntag 112\t\t\tllet\\n     */\\n    event DidMi...\n  JUMPDEST \t\t\tllet\\n     */\\n    event DidMi...\ntag 111\t\t\ttted when a DID is migrated to...\n  JUMPDEST \t\t\ttted when a DID is migrated to...\n  PUSH 0\t\t\t \n  DUP7 \t\t\ttokenId,\\n\n  ADD \t\t\txed tokenId,\\n    \n  MLOAD \t\t\t6 indexed tokenId,\\n     \n  PUSH FFFFFFFFFFFFFFFF\t\t\t\\n    // ==========\n  DUP2 \t\t\t\\n    )\n  GT \t\t\tamp\\n    );\\n\\n    // ========...\n  ISZERO \t\t\testamp\\n    );\\n\\n    // =====...\n  PUSH [tag] 113\t\t\testamp\\n    );\\n\\n    // =====...\n  JUMPI \t\t\testamp\\n    );\\n\\n    // =====...\n  PUSH [tag] 114\t\t\todifiers ============\\n    \\n ...\n  PUSH [tag] 25\t\t\todifiers ============\\n    \\n ...\n  JUMP \t\t\todifiers ============\\n    \\n ...\ntag 114\t\t\todifiers ============\\n    \\n ...\n  JUMPDEST \t\t\todifiers ============\\n    \\n ...\ntag 113\t\t\testamp\\n    );\\n\\n    // =====...\n  JUMPDEST \t\t\testamp\\n    );\\n\\n    // =====...\n  PUSH [tag] 115\t\t\tnting is allowed\\n     */\\n   ...\n  DUP9 \t\t\tre(\\n   \n  DUP3 \t\t\t    re\n  DUP10 \t\t\ter() {\\n  \n  ADD \t\t\tMinter() {\\n        req\n  PUSH [tag] 35\t\t\tnting is allowed\\n     */\\n   ...\n  JUMP \t\t\tnting is allowed\\n     */\\n   ...\ntag 115\t\t\tnting is allowed\\n     */\\n   ...\n  JUMPDEST \t\t\tnting is allowed\\n     */\\n   ...\n  SWAP6 \t\t\t public minting is allowed\\n  ...\n  POP \t\t\t public minting is allowed\\n  ...\n  POP \t\t\txed newWallet,\\n        uint25...\n  PUSH 20\t\t\tr \n  DUP7 \t\t\t| msg.sen\n  ADD \t\t\tng || msg.sender =\n  MLOAD \t\t\tcMinting || msg.sender ==\n  PUSH FFFFFFFFFFFFFFFF\t\t\tauthorized\"\\n      \n  DUP2 \t\t\t   \"No\n  GT \t\t\t      \"Not authorized\"\\n      ...\n  ISZERO \t\t\t         \"Not authorized\"\\n   ...\n  PUSH [tag] 116\t\t\t         \"Not authorized\"\\n   ...\n  JUMPI \t\t\t         \"Not authorized\"\\n   ...\n  PUSH [tag] 117\t\t\t\\n        _;\\n    }\\n    \\n   ...\n  PUSH [tag] 25\t\t\t\\n        _;\\n    }\\n    \\n   ...\n  JUMP \t\t\t\\n        _;\\n    }\\n    \\n   ...\ntag 117\t\t\t\\n        _;\\n    }\\n    \\n   ...\n  JUMPDEST \t\t\t\\n        _;\\n    }\\n    \\n   ...\ntag 116\t\t\t         \"Not authorized\"\\n   ...\n  JUMPDEST \t\t\t         \"Not authorized\"\\n   ...\n  PUSH [tag] 118\t\t\tidOwner(address user) {\\n     ...\n  DUP9 \t\t\t       \n  DUP3 \t\t\to DID\"\n  DUP10 \t\t\td[user], \n  ADD \t\t\tasDid[user], \"No DID\")\n  PUSH [tag] 35\t\t\tidOwner(address user) {\\n     ...\n  JUMP \t\t\tidOwner(address user) {\\n     ...\ntag 118\t\t\tidOwner(address user) {\\n     ...\n  JUMPDEST \t\t\tidOwner(address user) {\\n     ...\n  SWAP5 \t\t\tfier onlyDidOwner(address user...\n  POP \t\t\tfier onlyDidOwner(address user...\n  POP \t\t\t= backendSigner || allowPublic...\n  PUSH 40\t\t\t*\\n\n  DUP7 \t\t\t    \\n    \n  ADD \t\t\t  }\\n    \\n    /**\\n \n  MLOAD \t\t\t _;\\n    }\\n    \\n    /**\\n  \n  PUSH FFFFFFFFFFFFFFFF\t\t\t if DID is not rev\n  DUP2 \t\t\tto che\n  GT \t\t\ter to check if DID is not revo\n  ISZERO \t\t\tifier to check if DID is not r...\n  PUSH [tag] 119\t\t\tifier to check if DID is not r...\n  JUMPI \t\t\tifier to check if DID is not r...\n  PUSH [tag] 120\t\t\t\\n     */\\n    modifier notRev...\n  PUSH [tag] 25\t\t\t\\n     */\\n    modifier notRev...\n  JUMP \t\t\t\\n     */\\n    modifier notRev...\ntag 120\t\t\t\\n     */\\n    modifier notRev...\n  JUMPDEST \t\t\t\\n     */\\n    modifier notRev...\ntag 119\t\t\tifier to check if DID is not r...\n  JUMPDEST \t\t\tifier to check if DID is not r...\n  PUSH [tag] 121\t\t\t6 tokenId = _ownerToTokenId[us...\n  DUP9 \t\t\t[tokenI\n  DUP3 \t\t\tkedTok\n  DUP10 \t\t\tuire(!_re\n  ADD \t\t\t require(!_revokedToke\n  PUSH [tag] 35\t\t\t6 tokenId = _ownerToTokenId[us...\n  JUMP \t\t\t6 tokenId = _ownerToTokenId[us...\ntag 121\t\t\t6 tokenId = _ownerToTokenId[us...\n  JUMPDEST \t\t\t6 tokenId = _ownerToTokenId[us...\n  SWAP4 \t\t\t    uint256 tokenId = _ownerTo...\n  POP \t\t\t    uint256 tokenId = _ownerTo...\n  POP \t\t\t= user, \"Not owner\");\\n       ...\n  PUSH 60\t\t\t *\n  PUSH [tag] 122\t\t\tif DID is not revoked (by toke...\n  DUP9 \t\t\t notRev\n  DUP3 \t\t\t modif\n  DUP10 \t\t\t     */\\n \n  ADD \t\t\tID)\\n     */\\n    modifi\n  PUSH [tag] 39\t\t\tif DID is not revoked (by toke...\n  JUMP \t\t\tif DID is not revoked (by toke...\ntag 122\t\t\tif DID is not revoked (by toke...\n  JUMPDEST \t\t\tif DID is not revoked (by toke...\n  SWAP3 \t\t\t to check if DID is not revoke...\n  POP \t\t\t to check if DID is not revoke...\n  POP \t\t\t   _;\\n    }\\n    \\n    /**\\n ...\n  PUSH 80\t\t\ts(t\n  PUSH [tag] 123\t\t\t      require(!_revokedTokens[...\n  DUP9 \t\t\t       \n  DUP3 \t\t\toked\")\n  DUP10 \t\t\tenId], \"R\n  ADD \t\t\t[tokenId], \"Revoked\");\n  PUSH [tag] 42\t\t\t      require(!_revokedTokens[...\n  JUMP \t\t\t      require(!_revokedTokens[...\ntag 123\t\t\t      require(!_revokedTokens[...\n  JUMPDEST \t\t\t      require(!_revokedTokens[...\n  SWAP2 \t\t\token\");\\n        require(!_rev...\n  POP \t\t\token\");\\n        require(!_rev...\n  POP \t\t\tnId) {\\n        require(_exist...\n  SWAP3 \t\t\tmitted when a DID is revoked\\n...\n  SWAP6 \t\t\tmitted when a DID is revoked\\n...\n  POP \t\t\tmitted when a DID is revoked\\n...\n  SWAP3 \t\t\tmitted when a DID is revoked\\n...\n  SWAP6 \t\t\tmitted when a DID is revoked\\n...\n  SWAP1 \t\t\tmitted when a DID is revoked\\n...\n  SWAP4 \t\t\tmitted when a DID is revoked\\n...\n  POP \t\t\tmitted when a DID is revoked\\n...\n  JUMP \t\t\tmitted when a DID is revoked\\n...\ntag 43\t\t\t===== Constructor ============...\n  JUMPDEST \t\t\t===== Constructor ============...\n  PUSH 0\t\t\tdev Co\n  DUP2 \t\t\t Toke\n  MLOAD \t\t\tm name Token\n  SWAP1 \t\t\t   * @param name Token\n  POP \t\t\t   * @param name Token\n  SWAP2 \t\t\t===== Constructor ============...\n  SWAP1 \t\t\t===== Constructor ============...\n  POP \t\t\t===== Constructor ============...\n  JUMP \t\t\t===== Constructor ============...\ntag 44\t\t\t\"SafePsy DID Identity\")\\n     ...\n  JUMPDEST \t\t\t\"SafePsy DID Identity\")\\n     ...\n  PUSH 4E487B7100000000000000000000000000000000000000000000000000000000\t\t\ten symbol (e.g., \"SAFEPSY-DID\"...\n  PUSH 0\t\t\tT\n  MSTORE \t\t\tsymbol Token symbol (e.g., \"SA...\n  PUSH 22\t\t\tback\n  PUSH 4\t\t\tm\n  MSTORE \t\t\t* @param _backe\n  PUSH 24\t\t\t bac\n  PUSH 0\t\t\t \n  REVERT \t\t\tAddress of back\ntag 45\t\t\tcan be zero address)\\n     * @...\n  JUMPDEST \t\t\tcan be zero address)\\n     * @...\n  PUSH 0\t\t\tlicMin\n  PUSH 2\t\t\tn\n  DUP3 \t\t\tlic \n  DIV \t\t\t public mint\n  SWAP1 \t\t\tr to allow public mint\n  POP \t\t\tr to allow public mint\n  PUSH 1\t\t\te\n  DUP3 \t\t\tring\n  AND \t\t\t  string mem\n  DUP1 \t\t\ttring memory symbo\n  PUSH [tag] 127\t\t\t\\n        string memory symbol...\n  JUMPI \t\t\t\\n        string memory symbol...\n  PUSH 7F\t\t\t    \n  DUP3 \t\t\tRI,\\n  \n  AND \t\t\taseURI,\\n        a\n  SWAP2 \t\t\tg memory baseURI,\\n        a\n  POP \t\t\tg memory baseURI,\\n        a\ntag 127\t\t\t\\n        string memory symbol...\n  JUMPDEST \t\t\t\\n        string memory symbol...\n  PUSH 20\t\t\t  \n  DUP3 \t\t\tinting\n  LT \t\t\ticMinting\\n    \n  DUP2 \t\t\t     bool _allowPu\n  SUB \t\t\t        bool _allowPublicMinti...\n  PUSH [tag] 128\t\t\tr,\\n        bool _allowPublicM...\n  JUMPI \t\t\tr,\\n        bool _allowPublicM...\n  PUSH [tag] 129\t\t\tymbol) Ownable(msg\n  PUSH [tag] 44\t\t\tymbol) Ownable(msg\n  JUMP \t\t\tymbol) Ownable(msg\ntag 129\t\t\tymbol) Ownable(msg\n  JUMPDEST \t\t\tymbol) Ownable(msg\ntag 128\t\t\tr,\\n        bool _allowPublicM...\n  JUMPDEST \t\t\tr,\\n        bool _allowPublicM...\n  POP \t\t\ting Whether to allow public mi...\n  SWAP2 \t\t\tcan be zero address)\\n     * @...\n  SWAP1 \t\t\tcan be zero address)\\n     * @...\n  POP \t\t\tcan be zero address)\\n     * @...\n  JUMP \t\t\tcan be zero address)\\n     * @...\ntag 46\t\t\tseTokenURI = baseURI;\\n       ...\n  JUMPDEST \t\t\tseTokenURI = baseURI;\\n       ...\n  PUSH 0\t\t\tcken\n  DUP2 \t\t\tlow\n  SWAP1 \t\t\t      allow\n  POP \t\t\t      allow\n  DUP2 \t\t\towP\n  PUSH 0\t\t\ta\n  MSTORE \t\t\ting = _allowPu\n  PUSH 20\t\t\tnter\n  PUSH 0\t\t\tC\n  KECCAK256 \t\t\t    _tokenCounter \n  SWAP1 \t\t\tng;\\n        _tokenCounter \n  POP \t\t\tng;\\n        _tokenCounter \n  SWAP2 \t\t\tseTokenURI = baseURI;\\n       ...\n  SWAP1 \t\t\tseTokenURI = baseURI;\\n       ...\n  POP \t\t\tseTokenURI = baseURI;\\n       ...\n  JUMP \t\t\tseTokenURI = baseURI;\\n       ...\ntag 47\t\t\tstart at 1\\n    }\\n\\n    // ==...\n  JUMPDEST \t\t\tstart at 1\\n    }\\n\\n    // ==...\n  PUSH 0\t\t\t Soulb\n  PUSH 20\t\t\t /\n  PUSH 1F\t\t\t \\n\n  DUP4 \t\t\t===\\n \n  ADD \t\t\t=======\\n    \\n \n  DIV \t\t\t===========\\n    \\n    /*\n  SWAP1 \t\t\tentation ============\\n    \\n ...\n  POP \t\t\tentation ============\\n    \\n ...\n  SWAP2 \t\t\tstart at 1\\n    }\\n\\n    // ==...\n  SWAP1 \t\t\tstart at 1\\n    }\\n\\n    // ==...\n  POP \t\t\tstart at 1\\n    }\\n\\n    // ==...\n  JUMP \t\t\tstart at 1\\n    }\\n\\n    // ==...\ntag 48\t\t\tv Override _update to prevent ...\n  JUMPDEST \t\t\tv Override _update to prevent ...\n  PUSH 0\t\t\tlbound t\n  DUP3 \t\t\ty all\n  DUP3 \t\t\tlled\n  SHL \t\t\ts called by all \n  SWAP1 \t\t\t* @notice This hook is called ...\n  POP \t\t\t* @notice This hook is called ...\n  SWAP3 \t\t\tv Override _update to prevent ...\n  SWAP2 \t\t\tv Override _update to prevent ...\n  POP \t\t\tv Override _update to prevent ...\n  POP \t\t\tv Override _update to prevent ...\n  JUMP \t\t\tv Override _update to prevent ...\ntag 49\t\t\tations in OpenZeppelin v5\\n   ...\n  JUMPDEST \t\t\tations in OpenZeppelin v5\\n   ...\n  PUSH 0\t\t\tddress\n  PUSH 8\t\t\t \n  DUP4 \t\t\tburning)\\n \n  MUL \t\t\t0) (burning)\\n     \n  PUSH [tag] 134\t\t\tte(address to, uint256 tokenId...\n  PUSH FFFFFFFFFFFFFFFFFFFFFFFFFFFFFFFFFFFFFFFFFFFFFFFFFFFFFFFFFFFFFFFF\t\t\t, address auth) \\n        inte...\n  DUP3 \t\t\t256 token\n  PUSH [tag] 48\t\t\tte(address to, uint256 tokenId...\n  JUMP \t\t\tte(address to, uint256 tokenId...\ntag 134\t\t\tte(address to, uint256 tokenId...\n  JUMPDEST \t\t\tte(address to, uint256 tokenId...\n  PUSH [tag] 135\t\t\t      address from = _ownerOf(...\n  DUP7 \t\t\ttokenId)\n  DUP4 \t\t\t= _ownerO\n  PUSH [tag] 48\t\t\t      address from = _ownerOf(...\n  JUMP \t\t\t      address from = _ownerOf(...\ntag 135\t\t\t      address from = _ownerOf(...\n  JUMPDEST \t\t\t      address from = _ownerOf(...\n  SWAP6 \t\t\ts) \\n    {\\n        address fr...\n  POP \t\t\ts) \\n    {\\n        address fr...\n  DUP1 \t\t\tg (f\n  NOT \t\t\tnting (fr\n  DUP5 \t\t\tllow \n  AND \t\t\t// Allow minting (fro\n  SWAP4 \t\t\t\\n        // Allow minting (fr...\n  POP \t\t\t\\n        // Allow minting (fr...\n  DUP1 \t\t\t(0))\n  DUP7 \t\t\t== addre\n  AND \t\t\t(to == address(0))\\n\n  DUP5 \t\t\turnin\n  OR \t\t\td burning (to == address(0))\\n...\n  SWAP3 \t\t\tess(0)) and burning (to == add...\n  POP \t\t\tess(0)) and burning (to == add...\n  POP \t\t\t0) (minting) or to address(0) ...\n  POP \t\t\t0) (minting) or to address(0) ...\n  SWAP4 \t\t\tations in OpenZeppelin v5\\n   ...\n  SWAP3 \t\t\tations in OpenZeppelin v5\\n   ...\n  POP \t\t\tations in OpenZeppelin v5\\n   ...\n  POP \t\t\tations in OpenZeppelin v5\\n   ...\n  POP \t\t\tations in OpenZeppelin v5\\n   ...\n  JUMP \t\t\tations in OpenZeppelin v5\\n   ...\ntag 50\t\t\tt prevent all other transfers\\...\n  JUMPDEST \t\t\tt prevent all other transfers\\...\n  PUSH 0\t\t\t if (fr\n  DUP2 \t\t\t != a\n  SWAP1 \t\t\tss(0) && to != a\n  POP \t\t\tss(0) && to != a\n  SWAP2 \t\t\tt prevent all other transfers\\...\n  SWAP1 \t\t\tt prevent all other transfers\\...\n  POP \t\t\tt prevent all other transfers\\...\n  JUMP \t\t\tt prevent all other transfers\\...\ntag 51\t\t\t\\n            revert(\"Soulboun...\n  JUMPDEST \t\t\t\\n            revert(\"Soulboun...\n  PUSH 0\t\t\tnd\"\n  DUP2 \t\t\t   \\n \n  SWAP1 \t\t\t}\\n        \\n \n  POP \t\t\t}\\n        \\n \n  SWAP2 \t\t\t\\n            revert(\"Soulboun...\n  SWAP1 \t\t\t\\n            revert(\"Soulboun...\n  POP \t\t\t\\n            revert(\"Soulboun...\n  JUMP \t\t\t\\n            revert(\"Soulboun...\ntag 52\t\t\tn super._update(to, tokenId, a...\n  JUMPDEST \t\t\tn super._update(to, tokenId, a...\n  PUSH 0\t\t\t /**\\n    \n  PUSH [tag] 139\t\t\t to prevent approvals (token i...\n  PUSH [tag] 140\t\t\tals (token is non-transferable...\n  PUSH [tag] 141\t\t\tn is non-transferable)\\n \n  DUP5 \t\t\tble)\\n\n  PUSH [tag] 50\t\t\tn is non-transferable)\\n \n  JUMP \t\t\tn is non-transferable)\\n \ntag 141\t\t\tn is non-transferable)\\n \n  JUMPDEST \t\t\tn is non-transferable)\\n \n  PUSH [tag] 51\t\t\tals (token is non-transferable...\n  JUMP \t\t\tals (token is non-transferable...\ntag 140\t\t\tals (token is non-transferable...\n  JUMPDEST \t\t\tals (token is non-transferable...\n  PUSH [tag] 50\t\t\t to prevent approvals (token i...\n  JUMP \t\t\t to prevent approvals (token i...\ntag 139\t\t\t to prevent approvals (token i...\n  JUMPDEST \t\t\t to prevent approvals (token i...\n  SWAP1 \t\t\trride approve to prevent appro...\n  POP \t\t\trride approve to prevent appro...\n  SWAP2 \t\t\tn super._update(to, tokenId, a...\n  SWAP1 \t\t\tn super._update(to, tokenId, a...\n  POP \t\t\tn super._update(to, tokenId, a...\n  JUMP \t\t\tn super._update(to, tokenId, a...\ntag 53\t\t\tThis function always reverts t...\n  JUMPDEST \t\t\tThis function always reverts t...\n  PUSH 0\t\t\trov\n  DUP2 \t\t\tnctio\n  SWAP1 \t\t\t\\n    functio\n  POP \t\t\t\\n    functio\n  SWAP2 \t\t\tThis function always reverts t...\n  SWAP1 \t\t\tThis function always reverts t...\n  POP \t\t\tThis function always reverts t...\n  JUMP \t\t\tThis function always reverts t...\ntag 54\t\t\tdress, uint256) public pure ov...\n  JUMPDEST \t\t\tdress, uint256) public pure ov...\n  PUSH [tag] 144\t\t\ttApprovalForAll to prevent app...\n  DUP4 \t\t\tovals (\n  PUSH [tag] 52\t\t\ttApprovalForAll to prevent app...\n  JUMP \t\t\ttApprovalForAll to prevent app...\ntag 144\t\t\ttApprovalForAll to prevent app...\n  JUMPDEST \t\t\ttApprovalForAll to prevent app...\n  PUSH [tag] 145\t\t\tle)\\n     * @notice This funct...\n  PUSH [tag] 146\t\t\to prevent approvals\\n     */\\n...\n  DUP3 \t\t\t */\\n    function\n  PUSH [tag] 53\t\t\to prevent approvals\\n     */\\n...\n  JUMP \t\t\to prevent approvals\\n     */\\n...\ntag 146\t\t\to prevent approvals\\n     */\\n...\n  JUMPDEST \t\t\to prevent approvals\\n     */\\n...\n  DUP5 \t\t\teverts\n  DUP5 \t\t\tlway\n  SLOAD \t\t\ttion always\n  PUSH [tag] 49\t\t\tle)\\n     * @notice This funct...\n  JUMP \t\t\tle)\\n     * @notice This funct...\ntag 145\t\t\tle)\\n     * @notice This funct...\n  JUMPDEST \t\t\tle)\\n     * @notice This funct...\n  DUP3 \t\t\tsfer\n  SSTORE \t\t\ton-transferable)\\n     * @noti...\n  POP \t\t\t  \\n    /**\\n     * @dev Overr...\n  POP \t\t\tdress, uint256) public pure ov...\n  POP \t\t\tdress, uint256) public pure ov...\n  POP \t\t\tdress, uint256) public pure ov...\n  JUMP \t\t\tdress, uint256) public pure ov...\ntag 55\t\t\tAll(address, bool) public pure...\n  JUMPDEST \t\t\tAll(address, bool) public pure...\n  PUSH 0\t\t\t   \n  SWAP1 \t\t\tAll(address, bool) public pure...\n  JUMP \t\t\tAll(address, bool) public pure...\ntag 56\t\t\t   // ============ Minting Fun...\n  JUMPDEST \t\t\t   // ============ Minting Fun...\n  PUSH [tag] 149\t\t\teate a DID for a user (backend...\n  PUSH [tag] 55\t\t\teate a DID for a user (backend...\n  JUMP \t\t\teate a DID for a user (backend...\ntag 149\t\t\teate a DID for a user (backend...\n  JUMPDEST \t\t\teate a DID for a user (backend...\n  PUSH [tag] 150\t\t\towner only, or public if enabl...\n  DUP2 \t\t\tallet \n  DUP5 \t\t\ter The\n  DUP5 \t\t\tram \n  PUSH [tag] 54\t\t\towner only, or public if enabl...\n  JUMP \t\t\towner only, or public if enabl...\ntag 150\t\t\towner only, or public if enabl...\n  JUMPDEST \t\t\towner only, or public if enabl...\n  POP \t\t\t \\n    /**\\n     * @dev Create...\n  POP \t\t\t   // ============ Minting Fun...\n  POP \t\t\t   // ============ Minting Fun...\n  JUMP \t\t\t   // ============ Minting Fun...\ntag 57\t\t\teate DID for\\n     * @return t...\n  JUMPDEST \t\t\teate DID for\\n     * @return t...\ntag 152\t\t\t  */\\n    function createDid(a...\n  JUMPDEST \t\t\t  */\\n    function createDid(a...\n  DUP2 \t\t\t cr\n  DUP2 \t\t\tuncti\n  LT \t\t\t  function cre\n  ISZERO \t\t\t  */\\n    function createDid(a...\n  PUSH [tag] 154\t\t\t  */\\n    function createDid(a...\n  JUMPI \t\t\t  */\\n    function createDid(a...\n  PUSH [tag] 155\t\t\tant returns (uint256) {\\n     ...\n  PUSH 0\t\t\tr\n  DUP3 \t\t\t  req\n  PUSH [tag] 56\t\t\tant returns (uint256) {\\n     ...\n  JUMP \t\t\tant returns (uint256) {\\n     ...\ntag 155\t\t\tant returns (uint256) {\\n     ...\n  JUMPDEST \t\t\tant returns (uint256) {\\n     ...\n  PUSH 1\t\t\tt\n  DUP2 \t\t\tser) \n  ADD \t\t\tss user) exte\n  SWAP1 \t\t\tDid(address user) exte\n  POP \t\t\tDid(address user) exte\n  PUSH [tag] 152\t\t\t  */\\n    function createDid(a...\n  JUMP \t\t\t  */\\n    function createDid(a...\ntag 154\t\t\t  */\\n    function createDid(a...\n  JUMPDEST \t\t\t  */\\n    function createDid(a...\n  POP \t\t\teate DID for\\n     * @return t...\n  POP \t\t\teate DID for\\n     * @return t...\n  JUMP \t\t\teate DID for\\n     * @return t...\ntag 58\t\t\tDID\");\\n        require(user !...\n  JUMPDEST \t\t\tDID\");\\n        require(user !...\n  PUSH 1F\t\t\tke\n  DUP3 \t\t\t56 \n  GT \t\t\tnt256 token\n  ISZERO \t\t\t uint256 tokenId = _tokenCount...\n  PUSH [tag] 157\t\t\t uint256 tokenId = _tokenCount...\n  JUMPI \t\t\t uint256 tokenId = _tokenCount...\n  PUSH [tag] 158\t\t\t Create profile\\n        DidPr...\n  DUP2 \t\t\tle me\n  PUSH [tag] 46\t\t\t Create profile\\n        DidPr...\n  JUMP \t\t\t Create profile\\n        DidPr...\ntag 158\t\t\t Create profile\\n        DidPr...\n  JUMPDEST \t\t\t Create profile\\n        DidPr...\n  PUSH [tag] 159\t\t\tuser,\\n            createdAt: \n  DUP5 \t\t\tcreatedAt:\n  PUSH [tag] 47\t\t\tuser,\\n            createdAt: \n  JUMP \t\t\tuser,\\n            createdAt: \ntag 159\t\t\tuser,\\n            createdAt: \n  JUMPDEST \t\t\tuser,\\n            createdAt: \n  DUP2 \t\t\t   owner\n  ADD \t\t\t       owner: user,\\n         ...\n  PUSH 20\t\t\tby\n  DUP6 \t\t\teyMetadata\n  LT \t\t\tedKeyMetadata: byt\n  ISZERO \t\t\typtedKeyMetadata: bytes(\"\")\\n ...\n  PUSH [tag] 160\t\t\typtedKeyMetadata: bytes(\"\")\\n ...\n  JUMPI \t\t\typtedKeyMetadata: bytes(\"\")\\n ...\n  DUP2 \t\t\t\\n\\n      \n  SWAP1 \t\t\t\"\")\\n        });\\n\\n      \n  POP \t\t\t\"\")\\n        });\\n\\n      \ntag 160\t\t\typtedKeyMetadata: bytes(\"\")\\n ...\n  JUMPDEST \t\t\typtedKeyMetadata: bytes(\"\")\\n ...\n  PUSH [tag] 161\t\t\ts[tokenId] = profile;\\n       ...\n  PUSH [tag] 162\t\t\tkenId;\\n        _hasDid\n  DUP6 \t\t\tsDi\n  PUSH [tag] 47\t\t\tkenId;\\n        _hasDid\n  JUMP \t\t\tkenId;\\n        _hasDid\ntag 162\t\t\tkenId;\\n        _hasDid\n  JUMPDEST \t\t\tkenId;\\n        _hasDid\n  DUP4 \t\t\tuser] = \n  ADD \t\t\tnId[user] = tokenId;\\n        ...\n  DUP3 \t\t\t _ownerToTo\n  PUSH [tag] 57\t\t\ts[tokenId] = profile;\\n       ...\n  JUMP \t\t\ts[tokenId] = profile;\\n       ...\ntag 161\t\t\ts[tokenId] = profile;\\n       ...\n  JUMPDEST \t\t\ts[tokenId] = profile;\\n       ...\n  POP \t\t\td = _tokenCounter;\\n\\n        ...\n  POP \t\t\td = _tokenCounter;\\n\\n        ...\ntag 157\t\t\t uint256 tokenId = _tokenCount...\n  JUMPDEST \t\t\t uint256 tokenId = _tokenCount...\n  POP \t\t\tDID\");\\n        require(user !...\n  POP \t\t\tDID\");\\n        require(user !...\n  POP \t\t\tDID\");\\n        require(user !...\n  JUMP \t\t\tDID\");\\n        require(user !...\ntag 59\t\t\t/ Mint ERC-721 token\\n        ...\n  JUMPDEST \t\t\t/ Mint ERC-721 token\\n        ...\n  PUSH 0\t\t\t\\n\\n      \n  DUP3 \t\t\tock.t\n  DUP3 \t\t\tt64(\n  SHR \t\t\t uint64(block.ti\n  SWAP1 \t\t\treated(user, tokenId, uint64(b...\n  POP \t\t\treated(user, tokenId, uint64(b...\n  SWAP3 \t\t\t/ Mint ERC-721 token\\n        ...\n  SWAP2 \t\t\t/ Mint ERC-721 token\\n        ...\n  POP \t\t\t/ Mint ERC-721 token\\n        ...\n  POP \t\t\t/ Mint ERC-721 token\\n        ...\n  JUMP \t\t\t/ Mint ERC-721 token\\n        ...\ntag 60\t\t\t       return tokenId;\\n    }\\...\n  JUMPDEST \t\t\t       return tokenId;\\n    }\\...\n  PUSH 0\t\t\t   * @\n  PUSH [tag] 165\t\t\tller (public minting)\\n     * ...\n  PUSH 0\t\t\t \n  NOT \t\t\t The c\n  DUP5 \t\t\t toke\n  PUSH 8\t\t\tu\n  MUL \t\t\t@return token\n  PUSH [tag] 59\t\t\tller (public minting)\\n     * ...\n  JUMP \t\t\tller (public minting)\\n     * ...\ntag 165\t\t\tller (public minting)\\n     * ...\n  JUMPDEST \t\t\tller (public minting)\\n     * ...\n  NOT \t\t\te caller (public minting)\\n   ...\n  DUP1 \t\t\tctio\n  DUP4 \t\t\t   f\n  AND \t\t\t*/\\n    function\n  SWAP2 \t\t\tn ID\\n     */\\n    function\n  POP \t\t\tn ID\\n     */\\n    function\n  POP \t\t\tev Create a DID for the caller...\n  SWAP3 \t\t\t       return tokenId;\\n    }\\...\n  SWAP2 \t\t\t       return tokenId;\\n    }\\...\n  POP \t\t\t       return tokenId;\\n    }\\...\n  POP \t\t\t       return tokenId;\\n    }\\...\n  JUMP \t\t\t       return tokenId;\\n    }\\...\ntag 61\t\t\td() external nonReentrant retu...\n  JUMPDEST \t\t\td() external nonReentrant retu...\n  PUSH 0\t\t\tting\n  PUSH [tag] 167\t\t\t     // Create profile\\n      \n  DUP4 \t\t\t   \n  DUP4 \t\t\tile\\n\n  PUSH [tag] 60\t\t\t     // Create profile\\n      \n  JUMP \t\t\t     // Create profile\\n      \ntag 167\t\t\t     // Create profile\\n      \n  JUMPDEST \t\t\t     // Create profile\\n      \n  SWAP2 \t\t\ter;\\n\\n        // Create profi...\n  POP \t\t\ter;\\n\\n        // Create profi...\n  DUP3 \t\t\tPro\n  PUSH 2\t\t\tD\n  MUL \t\t\te = DidProf\n  DUP3 \t\t\tprof\n  OR \t\t\try profile = DidProfi\n  SWAP1 \t\t\tile memory profile = DidProfi\n  POP \t\t\tile memory profile = DidProfi\n  SWAP3 \t\t\td() external nonReentrant retu...\n  SWAP2 \t\t\td() external nonReentrant retu...\n  POP \t\t\td() external nonReentrant retu...\n  POP \t\t\td() external nonReentrant retu...\n  JUMP \t\t\td() external nonReentrant retu...\ntag 10\t\t\t      owner: msg.sender,\\n    ...\n  JUMPDEST \t\t\t      owner: msg.sender,\\n    ...\n  PUSH [tag] 169\t\t\tstamp),\\n            chatDataR...\n  DUP3 \t\t\tenc\n  PUSH [tag] 43\t\t\tstamp),\\n            chatDataR...\n  JUMP \t\t\tstamp),\\n            chatDataR...\ntag 169\t\t\tstamp),\\n            chatDataR...\n  JUMPDEST \t\t\tstamp),\\n            chatDataR...\n  PUSH FFFFFFFFFFFFFFFF\t\t\t });\\n\\n        _tok\n  DUP2 \t\t\t\\n     \n  GT \t\t\t\"\")\\n        });\\n\\n        _t...\n  ISZERO \t\t\tes(\"\")\\n        });\\n\\n       ...\n  PUSH [tag] 170\t\t\tes(\"\")\\n        });\\n\\n       ...\n  JUMPI \t\t\tes(\"\")\\n        });\\n\\n       ...\n  PUSH [tag] 171\t\t\tofiles[tokenId] = \n  PUSH [tag] 29\t\t\tofiles[tokenId] = \n  JUMP \t\t\tofiles[tokenId] = \ntag 171\t\t\tofiles[tokenId] = \n  JUMPDEST \t\t\tofiles[tokenId] = \ntag 170\t\t\tes(\"\")\\n        });\\n\\n       ...\n  JUMPDEST \t\t\tes(\"\")\\n        });\\n\\n       ...\n  PUSH [tag] 172\t\t\tokenId[msg.sender] = tokenId;\\...\n  DUP3 \t\t\t    \n  SLOAD \t\t\tId;\\n       \n  PUSH [tag] 45\t\t\tokenId[msg.sender] = tokenId;\\...\n  JUMP \t\t\tokenId[msg.sender] = tokenId;\\...\ntag 172\t\t\tokenId[msg.sender] = tokenId;\\...\n  JUMPDEST \t\t\tokenId[msg.sender] = tokenId;\\...\n  PUSH [tag] 173\t\t\tC-721 token\\n        _safeMint...\n  DUP3 \t\t\t emit \n  DUP3 \t\t\t\\n     \n  DUP6 \t\t\tnId)\n  PUSH [tag] 58\t\t\tC-721 token\\n        _safeMint...\n  JUMP \t\t\tC-721 token\\n        _safeMint...\ntag 173\t\t\tC-721 token\\n        _safeMint...\n  JUMPDEST \t\t\tC-721 token\\n        _safeMint...\n  PUSH 0\t\t\tI\n  PUSH 20\t\t\tmp))\n  SWAP1 \t\t\tblock.timestamp))\n  POP \t\t\tblock.timestamp))\n  PUSH 1F\t\t\t  \n  DUP4 \t\t\tkenId;\n  GT \t\t\t tokenId;\\n    \n  PUSH 1\t\t\t=\n  DUP2 \t\t\t ============ Profile Function...\n  EQ \t\t\t ============ Profile Function...\n  PUSH [tag] 175\t\t\t ============ Profile Function...\n  JUMPI \t\t\t ============ Profile Function...\n  PUSH 0\t\t\t \n  DUP5 \t\t\ts(toke\n  ISZERO \t\t\tists(tokenId), \"No token\");\\n ...\n  PUSH [tag] 176\t\t\tists(tokenId), \"No token\");\\n ...\n  JUMPI \t\t\tists(tokenId), \"No token\");\\n ...\n  DUP3 \t\t\tfiles[tok\n  DUP8 \t\t\tenP\n  ADD \t\t\t_tokenProfiles[toke\n  MLOAD \t\t\teturn _tokenProfiles[token\n  SWAP1 \t\t\t        return _tokenProfiles[...\n  POP \t\t\t        return _tokenProfiles[...\ntag 176\t\t\tists(tokenId), \"No token\");\\n ...\n  JUMPDEST \t\t\tists(tokenId), \"No token\");\\n ...\n  PUSH [tag] 177\t\t\tte chat data reference and enc...\n  DUP6 \t\t\tram ne\n  DUP3 \t\t\t  * @\n  PUSH [tag] 61\t\t\tte chat data reference and enc...\n  JUMP \t\t\tte chat data reference and enc...\ntag 177\t\t\tte chat data reference and enc...\n  JUMPDEST \t\t\tte chat data reference and enc...\n  DUP7 \t\t\tv Up\n  SSTORE \t\t\t  * @dev Update chat data refe...\n  POP \t\t\t(DidProfile memory) {\\n       ...\n  PUSH [tag] 174\t\t\t return tokenId;\\n    }\\n\\n   ...\n  JUMP \t\t\t return tokenId;\\n    }\\n\\n   ...\ntag 175\t\t\t ============ Profile Function...\n  JUMPDEST \t\t\t ============ Profile Function...\n  PUSH 1F\t\t\t  /*\n  NOT \t\t\t \\n    /**\n  DUP5 \t\t\t====\\n \n  AND \t\t\t========\\n    \\n    /**\\n\n  PUSH [tag] 178\t\t\twner address (efficient lookup...\n  DUP7 \t\t\t    \n  PUSH [tag] 46\t\t\twner address (efficient lookup...\n  JUMP \t\t\twner address (efficient lookup...\ntag 178\t\t\twner address (efficient lookup...\n  JUMPDEST \t\t\twner address (efficient lookup...\n  PUSH 0\t\t\te\ntag 179\t\t\t  * @return profile The DidPro...\n  JUMPDEST \t\t\t  * @return profile The DidPro...\n  DUP3 \t\t\tofile T\n  DUP2 \t\t\t \n  LT \t\t\turn profile Th\n  ISZERO \t\t\t  * @return profile The DidPro...\n  PUSH [tag] 181\t\t\t  * @return profile The DidPro...\n  JUMPI \t\t\t  * @return profile The DidPro...\n  DUP5 \t\t\t) externa\n  DUP10 \t\t\t us\n  ADD \t\t\tress user) external\n  MLOAD \t\t\ter(address user) external \n  DUP3 \t\t\tileByO\n  SSTORE \t\t\tgetProfileByOwner(address user...\n  PUSH 1\t\t\t \n  DUP3 \t\t\t {\\n   \n  ADD \t\t\tory) {\\n       \n  SWAP2 \t\t\trofile memory) {\\n       \n  POP \t\t\trofile memory) {\\n       \n  PUSH 20\t\t\tnt\n  DUP6 \t\t\t\\n        \n  ADD \t\t\tD\");\\n        uint2\n  SWAP5 \t\t\tuser], \"No DID\");\\n        uin...\n  POP \t\t\tuser], \"No DID\");\\n        uin...\n  PUSH 20\t\t\truct\n  DUP2 \t\t\t \n  ADD \t\t\tfile struct\\n\n  SWAP1 \t\t\tidProfile struct\\n\n  POP \t\t\tidProfile struct\\n\n  PUSH [tag] 179\t\t\t  * @return profile The DidPro...\n  JUMP \t\t\t  * @return profile The DidPro...\ntag 181\t\t\t  * @return profile The DidPro...\n  JUMPDEST \t\t\t  * @return profile The DidPro...\n  DUP7 \t\t\t  retu\n  DUP4 \t\t\t];\\n    \n  LT \t\t\tser];\\n        retur\n  ISZERO \t\t\td[user];\\n        return _toke...\n  PUSH [tag] 182\t\t\td[user];\\n        return _toke...\n  JUMPI \t\t\td[user];\\n        return _toke...\n  DUP5 \t\t\t* @dev Ge\n  DUP10 \t\t\t   \n  ADD \t\t\t/**\\n     * @dev Get\n  MLOAD \t\t\t \\n    /**\\n     * @dev Get \n  PUSH [tag] 183\t\t\tm tokenId The token ID\\n     *...\n  PUSH 1F\t\t\tile \n  DUP10 \t\t\turn pr\n  AND \t\t\t@return profile T\n  DUP3 \t\t\t ID\\n     \n  PUSH [tag] 60\t\t\tm tokenId The token ID\\n     *...\n  JUMP \t\t\tm tokenId The token ID\\n     *...\ntag 183\t\t\tm tokenId The token ID\\n     *...\n  JUMPDEST \t\t\tm tokenId The token ID\\n     *...\n  DUP4 \t\t\t * @pa\n  SSTORE \t\t\tID\\n     * @param tokenId The ...\n  POP \t\t\t _tokenProfiles[tokenId];\\n   ...\ntag 182\t\t\td[user];\\n        return _toke...\n  JUMPDEST \t\t\td[user];\\n        return _toke...\n  PUSH 1\t\t\to\n  PUSH 2\t\t\t5\n  DUP9 \t\t\tle(uin\n  MUL \t\t\trofile(uint256\n  ADD \t\t\tgetProfile(uint256 tok\n  DUP9 \t\t\tctio\n  SSTORE \t\t\t    function getProfile(uint25...\n  POP \t\t\t====== Profile Functions =====...\n  POP \t\t\t====== Profile Functions =====...\n  POP \t\t\t====== Profile Functions =====...\ntag 174\t\t\t return tokenId;\\n    }\\n\\n   ...\n  JUMPDEST \t\t\t return tokenId;\\n    }\\n\\n   ...\n  POP \t\t\t return tokenId;\\n    }\\n\\n   ...\n  POP \t\t\tatedAt: uint64(block.timestamp...\n  POP \t\t\tatedAt: uint64(block.timestamp...\n  POP \t\t\tatedAt: uint64(block.timestamp...\n  POP \t\t\t      owner: msg.sender,\\n    ...\n  POP \t\t\t      owner: msg.sender,\\n    ...\n  JUMP \t\t\t      owner: msg.sender,\\n    ...\ntag 62\t\t\tence (hash/CID/DB key)\\n     *...\n  JUMPDEST \t\t\tence (hash/CID/DB key)\\n     *...\n  PUSH [tag] 185\t\t\t\\n     * @notice Only cal\n  DUP2 \t\t\tly ca\n  PUSH [tag] 37\t\t\t\\n     * @notice Only cal\n  JUMP \t\t\t\\n     * @notice Only cal\ntag 185\t\t\t\\n     * @notice Only cal\n  JUMPDEST \t\t\t\\n     * @notice Only cal\n  DUP3 \t\t\tada\n  MSTORE \t\t\tkey metadata\\n     * @notice O...\n  POP \t\t\tence (hash/CID/DB key)\\n     *...\n  POP \t\t\tence (hash/CID/DB key)\\n     *...\n  JUMP \t\t\tence (hash/CID/DB key)\\n     *...\ntag 15\t\t\towner, and DID must not be rev...\n  JUMPDEST \t\t\towner, and DID must not be rev...\n  PUSH 0\t\t\talld\n  PUSH 20\t\t\t n\n  DUP3 \t\t\tes callda\n  ADD \t\t\t bytes calldata ne\n  SWAP1 \t\t\t\\n        bytes calldata ne\n  POP \t\t\t\\n        bytes calldata ne\n  PUSH [tag] 187\t\t\tKeyMetadata\\n    ) external on...\n  PUSH 0\t\t\te\n  DUP4 \t\t\tvoked(msg\n  ADD \t\t\totRevoked(msg.sen\n  DUP5 \t\t\tsender\n  PUSH [tag] 62\t\t\tKeyMetadata\\n    ) external on...\n  JUMP \t\t\tKeyMetadata\\n    ) external on...\ntag 187\t\t\tKeyMetadata\\n    ) external on...\n  JUMPDEST \t\t\tKeyMetadata\\n    ) external on...\n  SWAP3 \t\t\towner, and DID must not be rev...\n  SWAP2 \t\t\towner, and DID must not be rev...\n  POP \t\t\towner, and DID must not be rev...\n  POP \t\t\towner, and DID must not be rev...\n  JUMP \t\t\towner, and DID must not be rev...\ntag 21\t\t\tract DIDIdentityToken is ERC72...\n  JUMPDEST \t\t\tract DIDIdentityToken is ERC72...\n  PUSH #[$] 0000000000000000000000000000000000000000000000000000000000000000\t\t\tract DIDIdentityToken is ERC72...\n  DUP1 \t\t\tract DIDIdentityToken is ERC72...\n  PUSH [$] 0000000000000000000000000000000000000000000000000000000000000000\t\t\tract DIDIdentityToken is ERC72...\n  PUSH 0\t\t\tract DIDIdentityToken is ERC72...\n  CODECOPY \t\t\tract DIDIdentityToken is ERC72...\n  PUSH 0\t\t\tract DIDIdentityToken is ERC72...\n  RETURN \t\t\tract DIDIdentityToken is ERC72...\n.data\n  0:\n    .code\n      PUSH 80\t\t\tract DIDIdentityToken is ERC72...\n      PUSH 40\t\t\tract DIDIdentityToken is ERC72...\n      MSTORE \t\t\tract DIDIdentityToken is ERC72...\n      CALLVALUE \t\t\tract DIDIdentityToken is ERC72...\n      DUP1 \t\t\tract DIDIdentityToken is ERC72...\n      ISZERO \t\t\tract DIDIdentityToken is ERC72...\n      PUSH [tag] 1\t\t\tract DIDIdentityToken is ERC72...\n      JUMPI \t\t\tract DIDIdentityToken is ERC72...\n      PUSH 0\t\t\tract DIDIdentityToken is ERC72...\n      DUP1 \t\t\tract DIDIdentityToken is ERC72...\n      REVERT \t\t\tract DIDIdentityToken is ERC72...\n    tag 1\t\t\tract DIDIdentityToken is ERC72...\n      JUMPDEST \t\t\tract DIDIdentityToken is ERC72...\n      POP \t\t\tract DIDIdentityToken is ERC72...\n      PUSH 4\t\t\tract DIDIdentityToken is ERC72...\n      CALLDATASIZE \t\t\tract DIDIdentityToken is ERC72...\n      LT \t\t\tract DIDIdentityToken is ERC72...\n      PUSH [tag] 2\t\t\tract DIDIdentityToken is ERC72...\n      JUMPI \t\t\tract DIDIdentityToken is ERC72...\n      PUSH 0\t\t\tract DIDIdentityToken is ERC72...\n      CALLDATALOAD \t\t\tract DIDIdentityToken is ERC72...\n      PUSH E0\t\t\tract DIDIdentityToken is ERC72...\n      SHR \t\t\tract DIDIdentityToken is ERC72...\n      DUP1 \t\t\tract DIDIdentityToken is ERC72...\n      PUSH 715018A6\t\t\tract DIDIdentityToken is ERC72...\n      GT \t\t\tract DIDIdentityToken is ERC72...\n      PUSH [tag] 41\t\t\tract DIDIdentityToken is ERC72...\n      JUMPI \t\t\tract DIDIdentityToken is ERC72...\n      DUP1 \t\t\tract DIDIdentityToken is ERC72...\n      PUSH C5762EF7\t\t\tract DIDIdentityToken is ERC72...\n      GT \t\t\tract DIDIdentityToken is ERC72...\n      PUSH [tag] 42\t\t\tract DIDIdentityToken is ERC72...\n      JUMPI \t\t\tract DIDIdentityToken is ERC72...\n      DUP1 \t\t\tract DIDIdentityToken is ERC72...\n      PUSH E985E9C5\t\t\tract DIDIdentityToken is ERC72...\n      GT \t\t\tract DIDIdentityToken is ERC72...\n      PUSH [tag] 43\t\t\tract DIDIdentityToken is ERC72...\n      JUMPI \t\t\tract DIDIdentityToken is ERC72...\n      DUP1 \t\t\tract DIDIdentityToken is ERC72...\n      PUSH E985E9C5\t\t\tract DIDIdentityToken is ERC72...\n      EQ \t\t\tract DIDIdentityToken is ERC72...\n      PUSH [tag] 36\t\t\tract DIDIdentityToken is ERC72...\n      JUMPI \t\t\tract DIDIdentityToken is ERC72...\n      DUP1 \t\t\tract DIDIdentityToken is ERC72...\n      PUSH F08F4F64\t\t\tract DIDIdentityToken is ERC72...\n      EQ \t\t\tract DIDIdentityToken is ERC72...\n      PUSH [tag] 37\t\t\tract DIDIdentityToken is ERC72...\n      JUMPI \t\t\tract DIDIdentityToken is ERC72...\n      DUP1 \t\t\tract DIDIdentityToken is ERC72...\n      PUSH F2FDE38B\t\t\tract DIDIdentityToken is ERC72...\n      EQ \t\t\tract DIDIdentityToken is ERC72...\n      PUSH [tag] 38\t\t\tract DIDIdentityToken is ERC72...\n      JUMPI \t\t\tract DIDIdentityToken is ERC72...\n      DUP1 \t\t\tract DIDIdentityToken is ERC72...\n      PUSH FA528649\t\t\tract DIDIdentityToken is ERC72...\n      EQ \t\t\tract DIDIdentityToken is ERC72...\n      PUSH [tag] 39\t\t\tract DIDIdentityToken is ERC72...\n      JUMPI \t\t\tract DIDIdentityToken is ERC72...\n      DUP1 \t\t\tract DIDIdentityToken is ERC72...\n      PUSH FF6A0BFF\t\t\tract DIDIdentityToken is ERC72...\n      EQ \t\t\tract DIDIdentityToken is ERC72...\n      PUSH [tag] 40\t\t\tract DIDIdentityToken is ERC72...\n      JUMPI \t\t\tract DIDIdentityToken is ERC72...\n      PUSH [tag] 2\t\t\tract DIDIdentityToken is ERC72...\n      JUMP \t\t\tract DIDIdentityToken is ERC72...\n    tag 43\t\t\tract DIDIdentityToken is ERC72...\n      JUMPDEST \t\t\tract DIDIdentityToken is ERC72...\n      DUP1 \t\t\tract DIDIdentityToken is ERC72...\n      PUSH C5762EF7\t\t\tract DIDIdentityToken is ERC72...\n      EQ \t\t\tract DIDIdentityToken is ERC72...\n      PUSH [tag] 31\t\t\tract DIDIdentityToken is ERC72...\n      JUMPI \t\t\tract DIDIdentityToken is ERC72...\n      DUP1 \t\t\tract DIDIdentityToken is ERC72...\n      PUSH C87B56DD\t\t\tract DIDIdentityToken is ERC72...\n      EQ \t\t\tract DIDIdentityToken is ERC72...\n      PUSH [tag] 32\t\t\tract DIDIdentityToken is ERC72...\n      JUMPI \t\t\tract DIDIdentityToken is ERC72...\n      DUP1 \t\t\tract DIDIdentityToken is ERC72...\n      PUSH DC390450\t\t\tract DIDIdentityToken is ERC72...\n      EQ \t\t\tract DIDIdentityToken is ERC72...\n      PUSH [tag] 33\t\t\tract DIDIdentityToken is ERC72...\n      JUMPI \t\t\tract DIDIdentityToken is ERC72...\n      DUP1 \t\t\tract DIDIdentityToken is ERC72...\n      PUSH E16C0652\t\t\tract DIDIdentityToken is ERC72...\n      EQ \t\t\tract DIDIdentityToken is ERC72...\n      PUSH [tag] 34\t\t\tract DIDIdentityToken is ERC72...\n      JUMPI \t\t\tract DIDIdentityToken is ERC72...\n      DUP1 \t\t\tract DIDIdentityToken is ERC72...\n      PUSH E2A0E9F2\t\t\tract DIDIdentityToken is ERC72...\n      EQ \t\t\tract DIDIdentityToken is ERC72...\n      PUSH [tag] 35\t\t\tract DIDIdentityToken is ERC72...\n      JUMPI \t\t\tract DIDIdentityToken is ERC72...\n      PUSH [tag] 2\t\t\tract DIDIdentityToken is ERC72...\n      JUMP \t\t\tract DIDIdentityToken is ERC72...\n    tag 42\t\t\tract DIDIdentityToken is ERC72...\n      JUMPDEST \t\t\tract DIDIdentityToken is ERC72...\n      DUP1 \t\t\tract DIDIdentityToken is ERC72...\n      PUSH 998DFBB2\t\t\tract DIDIdentityToken is ERC72...\n      GT \t\t\tract DIDIdentityToken is ERC72...\n      PUSH [tag] 44\t\t\tract DIDIdentityToken is ERC72...\n      JUMPI \t\t\tract DIDIdentityToken is ERC72...\n      DUP1 \t\t\tract DIDIdentityToken is ERC72...\n      PUSH 998DFBB2\t\t\tract DIDIdentityToken is ERC72...\n      EQ \t\t\tract DIDIdentityToken is ERC72...\n      PUSH [tag] 26\t\t\tract DIDIdentityToken is ERC72...\n      JUMPI \t\t\tract DIDIdentityToken is ERC72...\n      DUP1 \t\t\tract DIDIdentityToken is ERC72...\n      PUSH A22CB465\t\t\tract DIDIdentityToken is ERC72...\n      EQ \t\t\tract DIDIdentityToken is ERC72...\n      PUSH [tag] 27\t\t\tract DIDIdentityToken is ERC72...\n      JUMPI \t\t\tract DIDIdentityToken is ERC72...\n      DUP1 \t\t\tract DIDIdentityToken is ERC72...\n      PUSH B88D4FDE\t\t\tract DIDIdentityToken is ERC72...\n      EQ \t\t\tract DIDIdentityToken is ERC72...\n      PUSH [tag] 28\t\t\tract DIDIdentityToken is ERC72...\n      JUMPI \t\t\tract DIDIdentityToken is ERC72...\n      DUP1 \t\t\tract DIDIdentityToken is ERC72...\n      PUSH C048BC13\t\t\tract DIDIdentityToken is ERC72...\n      EQ \t\t\tract DIDIdentityToken is ERC72...\n      PUSH [tag] 29\t\t\tract DIDIdentityToken is ERC72...\n      JUMPI \t\t\tract DIDIdentityToken is ERC72...\n      DUP1 \t\t\tract DIDIdentityToken is ERC72...\n      PUSH C3135E1A\t\t\tract DIDIdentityToken is ERC72...\n      EQ \t\t\tract DIDIdentityToken is ERC72...\n      PUSH [tag] 30\t\t\tract DIDIdentityToken is ERC72...\n      JUMPI \t\t\tract DIDIdentityToken is ERC72...\n      PUSH [tag] 2\t\t\tract DIDIdentityToken is ERC72...\n      JUMP \t\t\tract DIDIdentityToken is ERC72...\n    tag 44\t\t\tract DIDIdentityToken is ERC72...\n      JUMPDEST \t\t\tract DIDIdentityToken is ERC72...\n      DUP1 \t\t\tract DIDIdentityToken is ERC72...\n      PUSH 715018A6\t\t\tract DIDIdentityToken is ERC72...\n      EQ \t\t\tract DIDIdentityToken is ERC72...\n      PUSH [tag] 22\t\t\tract DIDIdentityToken is ERC72...\n      JUMPI \t\t\tract DIDIdentityToken is ERC72...\n      DUP1 \t\t\tract DIDIdentityToken is ERC72...\n      PUSH 898CDB86\t\t\tract DIDIdentityToken is ERC72...\n      EQ \t\t\tract DIDIdentityToken is ERC72...\n      PUSH [tag] 23\t\t\tract DIDIdentityToken is ERC72...\n      JUMPI \t\t\tract DIDIdentityToken is ERC72...\n      DUP1 \t\t\tract DIDIdentityToken is ERC72...\n      PUSH 8DA5CB5B\t\t\tract DIDIdentityToken is ERC72...\n      EQ \t\t\tract DIDIdentityToken is ERC72...\n      PUSH [tag] 24\t\t\tract DIDIdentityToken is ERC72...\n      JUMPI \t\t\tract DIDIdentityToken is ERC72...\n      DUP1 \t\t\tract DIDIdentityToken is ERC72...\n      PUSH 95D89B41\t\t\tract DIDIdentityToken is ERC72...\n      EQ \t\t\tract DIDIdentityToken is ERC72...\n      PUSH [tag] 25\t\t\tract DIDIdentityToken is ERC72...\n      JUMPI \t\t\tract DIDIdentityToken is ERC72...\n      PUSH [tag] 2\t\t\tract DIDIdentityToken is ERC72...\n      JUMP \t\t\tract DIDIdentityToken is ERC72...\n    tag 41\t\t\tract DIDIdentityToken is ERC72...\n      JUMPDEST \t\t\tract DIDIdentityToken is ERC72...\n      DUP1 \t\t\tract DIDIdentityToken is ERC72...\n      PUSH 23B872DD\t\t\tract DIDIdentityToken is ERC72...\n      GT \t\t\tract DIDIdentityToken is ERC72...\n      PUSH [tag] 45\t\t\tract DIDIdentityToken is ERC72...\n      JUMPI \t\t\tract DIDIdentityToken is ERC72...\n      DUP1 \t\t\tract DIDIdentityToken is ERC72...\n      PUSH 5F13E97C\t\t\tract DIDIdentityToken is ERC72...\n      GT \t\t\tract DIDIdentityToken is ERC72...\n      PUSH [tag] 46\t\t\tract DIDIdentityToken is ERC72...\n      JUMPI \t\t\tract DIDIdentityToken is ERC72...\n      DUP1 \t\t\tract DIDIdentityToken is ERC72...\n      PUSH 5F13E97C\t\t\tract DIDIdentityToken is ERC72...\n      EQ \t\t\tract DIDIdentityToken is ERC72...\n      PUSH [tag] 17\t\t\tract DIDIdentityToken is ERC72...\n      JUMPI \t\t\tract DIDIdentityToken is ERC72...\n      DUP1 \t\t\tract DIDIdentityToken is ERC72...\n      PUSH 62EC9354\t\t\tract DIDIdentityToken is ERC72...\n      EQ \t\t\tract DIDIdentityToken is ERC72...\n      PUSH [tag] 18\t\t\tract DIDIdentityToken is ERC72...\n      JUMPI \t\t\tract DIDIdentityToken is ERC72...\n      DUP1 \t\t\tract DIDIdentityToken is ERC72...\n      PUSH 6352211E\t\t\tract DIDIdentityToken is ERC72...\n      EQ \t\t\tract DIDIdentityToken is ERC72...\n      PUSH [tag] 19\t\t\tract DIDIdentityToken is ERC72...\n      JUMPI \t\t\tract DIDIdentityToken is ERC72...\n      DUP1 \t\t\tract DIDIdentityToken is ERC72...\n      PUSH 65D65E86\t\t\tract DIDIdentityToken is ERC72...\n      EQ \t\t\tract DIDIdentityToken is ERC72...\n      PUSH [tag] 20\t\t\tract DIDIdentityToken is ERC72...\n      JUMPI \t\t\tract DIDIdentityToken is ERC72...\n      DUP1 \t\t\tract DIDIdentityToken is ERC72...\n      PUSH 70A08231\t\t\tract DIDIdentityToken is ERC72...\n      EQ \t\t\tract DIDIdentityToken is ERC72...\n      PUSH [tag] 21\t\t\tract DIDIdentityToken is ERC72...\n      JUMPI \t\t\tract DIDIdentityToken is ERC72...\n      PUSH [tag] 2\t\t\tract DIDIdentityToken is ERC72...\n      JUMP \t\t\tract DIDIdentityToken is ERC72...\n    tag 46\t\t\tract DIDIdentityToken is ERC72...\n      JUMPDEST \t\t\tract DIDIdentityToken is ERC72...\n      DUP1 \t\t\tract DIDIdentityToken is ERC72...\n      PUSH 23B872DD\t\t\tract DIDIdentityToken is ERC72...\n      EQ \t\t\tract DIDIdentityToken is ERC72...\n      PUSH [tag] 12\t\t\tract DIDIdentityToken is ERC72...\n      JUMPI \t\t\tract DIDIdentityToken is ERC72...\n      DUP1 \t\t\tract DIDIdentityToken is ERC72...\n      PUSH 42842E0E\t\t\tract DIDIdentityToken is ERC72...\n      EQ \t\t\tract DIDIdentityToken is ERC72...\n      PUSH [tag] 13\t\t\tract DIDIdentityToken is ERC72...\n      JUMPI \t\t\tract DIDIdentityToken is ERC72...\n      DUP1 \t\t\tract DIDIdentityToken is ERC72...\n      PUSH 43E91F48\t\t\tract DIDIdentityToken is ERC72...\n      EQ \t\t\tract DIDIdentityToken is ERC72...\n      PUSH [tag] 14\t\t\tract DIDIdentityToken is ERC72...\n      JUMPI \t\t\tract DIDIdentityToken is ERC72...\n      DUP1 \t\t\tract DIDIdentityToken is ERC72...\n      PUSH 522BEC8D\t\t\tract DIDIdentityToken is ERC72...\n      EQ \t\t\tract DIDIdentityToken is ERC72...\n      PUSH [tag] 15\t\t\tract DIDIdentityToken is ERC72...\n      JUMPI \t\t\tract DIDIdentityToken is ERC72...\n      DUP1 \t\t\tract DIDIdentityToken is ERC72...\n      PUSH 55F804B3\t\t\tract DIDIdentityToken is ERC72...\n      EQ \t\t\tract DIDIdentityToken is ERC72...\n      PUSH [tag] 16\t\t\tract DIDIdentityToken is ERC72...\n      JUMPI \t\t\tract DIDIdentityToken is ERC72...\n      PUSH [tag] 2\t\t\tract DIDIdentityToken is ERC72...\n      JUMP \t\t\tract DIDIdentityToken is ERC72...\n    tag 45\t\t\tract DIDIdentityToken is ERC72...\n      JUMPDEST \t\t\tract DIDIdentityToken is ERC72...\n      DUP1 \t\t\tract DIDIdentityToken is ERC72...\n      PUSH FA12160\t\t\tract DIDIdentityToken is ERC72...\n      GT \t\t\tract DIDIdentityToken is ERC72...\n      PUSH [tag] 47\t\t\tract DIDIdentityToken is ERC72...\n      JUMPI \t\t\tract DIDIdentityToken is ERC72...\n      DUP1 \t\t\tract DIDIdentityToken is ERC72...\n      PUSH FA12160\t\t\tract DIDIdentityToken is ERC72...\n      EQ \t\t\tract DIDIdentityToken is ERC72...\n      PUSH [tag] 7\t\t\tract DIDIdentityToken is ERC72...\n      JUMPI \t\t\tract DIDIdentityToken is ERC72...\n      DUP1 \t\t\tract DIDIdentityToken is ERC72...\n      PUSH 13036808\t\t\tract DIDIdentityToken is ERC72...\n      EQ \t\t\tract DIDIdentityToken is ERC72...\n      PUSH [tag] 8\t\t\tract DIDIdentityToken is ERC72...\n      JUMPI \t\t\tract DIDIdentityToken is ERC72...\n      DUP1 \t\t\tract DIDIdentityToken is ERC72...\n      PUSH 18160DDD\t\t\tract DIDIdentityToken is ERC72...\n      EQ \t\t\tract DIDIdentityToken is ERC72...\n      PUSH [tag] 9\t\t\tract DIDIdentityToken is ERC72...\n      JUMPI \t\t\tract DIDIdentityToken is ERC72...\n      DUP1 \t\t\tract DIDIdentityToken is ERC72...\n      PUSH 1830F737\t\t\tract DIDIdentityToken is ERC72...\n      EQ \t\t\tract DIDIdentityToken is ERC72...\n      PUSH [tag] 10\t\t\tract DIDIdentityToken is ERC72...\n      JUMPI \t\t\tract DIDIdentityToken is ERC72...\n      DUP1 \t\t\tract DIDIdentityToken is ERC72...\n      PUSH 1D638F8C\t\t\tract DIDIdentityToken is ERC72...\n      EQ \t\t\tract DIDIdentityToken is ERC72...\n      PUSH [tag] 11\t\t\tract DIDIdentityToken is ERC72...\n      JUMPI \t\t\tract DIDIdentityToken is ERC72...\n      PUSH [tag] 2\t\t\tract DIDIdentityToken is ERC72...\n      JUMP \t\t\tract DIDIdentityToken is ERC72...\n    tag 47\t\t\tract DIDIdentityToken is ERC72...\n      JUMPDEST \t\t\tract DIDIdentityToken is ERC72...\n      DUP1 \t\t\tract DIDIdentityToken is ERC72...\n      PUSH 1FFC9A7\t\t\tract DIDIdentityToken is ERC72...\n      EQ \t\t\tract DIDIdentityToken is ERC72...\n      PUSH [tag] 3\t\t\tract DIDIdentityToken is ERC72...\n      JUMPI \t\t\tract DIDIdentityToken is ERC72...\n      DUP1 \t\t\tract DIDIdentityToken is ERC72...\n      PUSH 6FDDE03\t\t\tract DIDIdentityToken is ERC72...\n      EQ \t\t\tract DIDIdentityToken is ERC72...\n      PUSH [tag] 4\t\t\tract DIDIdentityToken is ERC72...\n      JUMPI \t\t\tract DIDIdentityToken is ERC72...\n      DUP1 \t\t\tract DIDIdentityToken is ERC72...\n      PUSH 81812FC\t\t\tract DIDIdentityToken is ERC72...\n      EQ \t\t\tract DIDIdentityToken is ERC72...\n      PUSH [tag] 5\t\t\tract DIDIdentityToken is ERC72...\n      JUMPI \t\t\tract DIDIdentityToken is ERC72...\n      DUP1 \t\t\tract DIDIdentityToken is ERC72...\n      PUSH 95EA7B3\t\t\tract DIDIdentityToken is ERC72...\n      EQ \t\t\tract DIDIdentityToken is ERC72...\n      PUSH [tag] 6\t\t\tract DIDIdentityToken is ERC72...\n      JUMPI \t\t\tract DIDIdentityToken is ERC72...\n    tag 2\t\t\tract DIDIdentityToken is ERC72...\n      JUMPDEST \t\t\tract DIDIdentityToken is ERC72...\n      PUSH 0\t\t\tract DIDIdentityToken is ERC72...\n      DUP1 \t\t\tract DIDIdentityToken is ERC72...\n      REVERT \t\t\tract DIDIdentityToken is ERC72...\n    tag 3\t\t\t (slot 1, packed)\\n        uin...\n      JUMPDEST \t\t\t (slot 1, packed)\\n        uin...\n      PUSH [tag] 48\t\t\t (slot 1, packed)\\n        uin...\n      PUSH 4\t\t\t (slot 1, packed)\\n        uin...\n      DUP1 \t\t\t (slot 1, packed)\\n        uin...\n      CALLDATASIZE \t\t\t (slot 1, packed)\\n        uin...\n      SUB \t\t\t (slot 1, packed)\\n        uin...\n      DUP2 \t\t\t (slot 1, packed)\\n        uin...\n      ADD \t\t\t (slot 1, packed)\\n        uin...\n      SWAP1 \t\t\t (slot 1, packed)\\n        uin...\n      PUSH [tag] 49\t\t\t (slot 1, packed)\\n        uin...\n      SWAP2 \t\t\t (slot 1, packed)\\n        uin...\n      SWAP1 \t\t\t (slot 1, packed)\\n        uin...\n      PUSH [tag] 50\t\t\t (slot 1, packed)\\n        uin...\n      JUMP \t\t\t (slot 1, packed)\\n        uin...\n    tag 49\t\t\t (slot 1, packed)\\n        uin...\n      JUMPDEST \t\t\t (slot 1, packed)\\n        uin...\n      PUSH [tag] 51\t\t\t (slot 1, packed)\\n        uin...\n      JUMP \t\t\t (slot 1, packed)\\n        uin...\n    tag 48\t\t\t (slot 1, packed)\\n        uin...\n      JUMPDEST \t\t\t (slot 1, packed)\\n        uin...\n      PUSH 40\t\t\t (slot 1, packed)\\n        uin...\n      MLOAD \t\t\t (slot 1, packed)\\n        uin...\n      PUSH [tag] 52\t\t\t (slot 1, packed)\\n        uin...\n      SWAP2 \t\t\t (slot 1, packed)\\n        uin...\n      SWAP1 \t\t\t (slot 1, packed)\\n        uin...\n      PUSH [tag] 53\t\t\t (slot 1, packed)\\n        uin...\n      JUMP \t\t\t (slot 1, packed)\\n        uin...\n    tag 52\t\t\t (slot 1, packed)\\n        uin...\n      JUMPDEST \t\t\t (slot 1, packed)\\n        uin...\n      PUSH 40\t\t\t (slot 1, packed)\\n        uin...\n      MLOAD \t\t\t (slot 1, packed)\\n        uin...\n      DUP1 \t\t\t (slot 1, packed)\\n        uin...\n      SWAP2 \t\t\t (slot 1, packed)\\n        uin...\n      SUB \t\t\t (slot 1, packed)\\n        uin...\n      SWAP1 \t\t\t (slot 1, packed)\\n        uin...\n      RETURN \t\t\t (slot 1, packed)\\n        uin...\n    tag 4\t\t\tevokedAddresses;\\n    \\n    //...\n      JUMPDEST \t\t\tevokedAddresses;\\n    \\n    //...\n      PUSH [tag] 54\t\t\tevokedAddresses;\\n    \\n    //...\n      PUSH [tag] 55\t\t\tevokedAddresses;\\n    \\n    //...\n      JUMP \t\t\tevokedAddresses;\\n    \\n    //...\n    tag 54\t\t\tevokedAddresses;\\n    \\n    //...\n      JUMPDEST \t\t\tevokedAddresses;\\n    \\n    //...\n      PUSH 40\t\t\tevokedAddresses;\\n    \\n    //...\n      MLOAD \t\t\tevokedAddresses;\\n    \\n    //...\n      PUSH [tag] 56\t\t\tevokedAddresses;\\n    \\n    //...\n      SWAP2 \t\t\tevokedAddresses;\\n    \\n    //...\n      SWAP1 \t\t\tevokedAddresses;\\n    \\n    //...\n      PUSH [tag] 57\t\t\tevokedAddresses;\\n    \\n    //...\n      JUMP \t\t\tevokedAddresses;\\n    \\n    //...\n    tag 56\t\t\tevokedAddresses;\\n    \\n    //...\n      JUMPDEST \t\t\tevokedAddresses;\\n    \\n    //...\n      PUSH 40\t\t\tevokedAddresses;\\n    \\n    //...\n      MLOAD \t\t\tevokedAddresses;\\n    \\n    //...\n      DUP1 \t\t\tevokedAddresses;\\n    \\n    //...\n      SWAP2 \t\t\tevokedAddresses;\\n    \\n    //...\n      SUB \t\t\tevokedAddresses;\\n    \\n    //...\n      SWAP1 \t\t\tevokedAddresses;\\n    \\n    //...\n      RETURN \t\t\tevokedAddresses;\\n    \\n    //...\n    tag 5\t\t\tEmitted when backend signer is...\n      JUMPDEST \t\t\tEmitted when backend signer is...\n      PUSH [tag] 58\t\t\tEmitted when backend signer is...\n      PUSH 4\t\t\tEmitted when backend signer is...\n      DUP1 \t\t\tEmitted when backend signer is...\n      CALLDATASIZE \t\t\tEmitted when backend signer is...\n      SUB \t\t\tEmitted when backend signer is...\n      DUP2 \t\t\tEmitted when backend signer is...\n      ADD \t\t\tEmitted when backend signer is...\n      SWAP1 \t\t\tEmitted when backend signer is...\n      PUSH [tag] 59\t\t\tEmitted when backend signer is...\n      SWAP2 \t\t\tEmitted when backend signer is...\n      SWAP1 \t\t\tEmitted when backend signer is...\n      PUSH [tag] 60\t\t\tEmitted when backend signer is...\n      JUMP \t\t\tEmitted when backend signer is...\n    tag 59\t\t\tEmitted when backend signer is...\n      JUMPDEST \t\t\tEmitted when backend signer is...\n      PUSH [tag] 61\t\t\tEmitted when backend signer is...\n      JUMP \t\t\tEmitted when backend signer is...\n    tag 58\t\t\tEmitted when backend signer is...\n      JUMPDEST \t\t\tEmitted when backend signer is...\n      PUSH 40\t\t\tEmitted when backend signer is...\n      MLOAD \t\t\tEmitted when backend signer is...\n      PUSH [tag] 62\t\t\tEmitted when backend signer is...\n      SWAP2 \t\t\tEmitted when backend signer is...\n      SWAP1 \t\t\tEmitted when backend signer is...\n      PUSH [tag] 63\t\t\tEmitted when backend signer is...\n      JUMP \t\t\tEmitted when backend signer is...\n    tag 62\t\t\tEmitted when backend signer is...\n      JUMPDEST \t\t\tEmitted when backend signer is...\n      PUSH 40\t\t\tEmitted when backend signer is...\n      MLOAD \t\t\tEmitted when backend signer is...\n      DUP1 \t\t\tEmitted when backend signer is...\n      SWAP2 \t\t\tEmitted when backend signer is...\n      SUB \t\t\tEmitted when backend signer is...\n      SWAP1 \t\t\tEmitted when backend signer is...\n      RETURN \t\t\tEmitted when backend signer is...\n    tag 6\t\t\ttion approve(address, uint256)...\n      JUMPDEST \t\t\ttion approve(address, uint256)...\n      PUSH [tag] 64\t\t\ttion approve(address, uint256)...\n      PUSH 4\t\t\ttion approve(address, uint256)...\n      DUP1 \t\t\ttion approve(address, uint256)...\n      CALLDATASIZE \t\t\ttion approve(address, uint256)...\n      SUB \t\t\ttion approve(address, uint256)...\n      DUP2 \t\t\ttion approve(address, uint256)...\n      ADD \t\t\ttion approve(address, uint256)...\n      SWAP1 \t\t\ttion approve(address, uint256)...\n      PUSH [tag] 65\t\t\ttion approve(address, uint256)...\n      SWAP2 \t\t\ttion approve(address, uint256)...\n      SWAP1 \t\t\ttion approve(address, uint256)...\n      PUSH [tag] 66\t\t\ttion approve(address, uint256)...\n      JUMP \t\t\ttion approve(address, uint256)...\n    tag 65\t\t\ttion approve(address, uint256)...\n      JUMPDEST \t\t\ttion approve(address, uint256)...\n      PUSH [tag] 67\t\t\ttion approve(address, uint256)...\n      JUMP \t\t\ttion approve(address, uint256)...\n    tag 64\t\t\ttion approve(address, uint256)...\n      JUMPDEST \t\t\ttion approve(address, uint256)...\n      STOP \t\t\ttion approve(address, uint256)...\n    tag 7\t\t\ttion getProfileByOwner(address...\n      JUMPDEST \t\t\ttion getProfileByOwner(address...\n      PUSH [tag] 68\t\t\ttion getProfileByOwner(address...\n      PUSH 4\t\t\ttion getProfileByOwner(address...\n      DUP1 \t\t\ttion getProfileByOwner(address...\n      CALLDATASIZE \t\t\ttion getProfileByOwner(address...\n      SUB \t\t\ttion getProfileByOwner(address...\n      DUP2 \t\t\ttion getProfileByOwner(address...\n      ADD \t\t\ttion getProfileByOwner(address...\n      SWAP1 \t\t\ttion getProfileByOwner(address...\n      PUSH [tag] 69\t\t\ttion getProfileByOwner(address...\n      SWAP2 \t\t\ttion getProfileByOwner(address...\n      SWAP1 \t\t\ttion getProfileByOwner(address...\n      PUSH [tag] 70\t\t\ttion getProfileByOwner(address...\n      JUMP \t\t\ttion getProfileByOwner(address...\n    tag 69\t\t\ttion getProfileByOwner(address...\n      JUMPDEST \t\t\ttion getProfileByOwner(address...\n      PUSH [tag] 71\t\t\ttion getProfileByOwner(address...\n      JUMP \t\t\ttion getProfileByOwner(address...\n    tag 68\t\t\ttion getProfileByOwner(address...\n      JUMPDEST \t\t\ttion getProfileByOwner(address...\n      PUSH 40\t\t\ttion getProfileByOwner(address...\n      MLOAD \t\t\ttion getProfileByOwner(address...\n      PUSH [tag] 72\t\t\ttion getProfileByOwner(address...\n      SWAP2 \t\t\ttion getProfileByOwner(address...\n      SWAP1 \t\t\ttion getProfileByOwner(address...\n      PUSH [tag] 73\t\t\ttion getProfileByOwner(address...\n      JUMP \t\t\ttion getProfileByOwner(address...\n    tag 72\t\t\ttion getProfileByOwner(address...\n      JUMPDEST \t\t\ttion getProfileByOwner(address...\n      PUSH 40\t\t\ttion getProfileByOwner(address...\n      MLOAD \t\t\ttion getProfileByOwner(address...\n      DUP1 \t\t\ttion getProfileByOwner(address...\n      SWAP2 \t\t\ttion getProfileByOwner(address...\n      SUB \t\t\ttion getProfileByOwner(address...\n      SWAP1 \t\t\ttion getProfileByOwner(address...\n      RETURN \t\t\ttion getProfileByOwner(address...\n    tag 8\t\t\ttion updateChatDataReference(\\...\n      JUMPDEST \t\t\ttion updateChatDataReference(\\...\n      PUSH [tag] 74\t\t\ttion updateChatDataReference(\\...\n      PUSH 4\t\t\ttion updateChatDataReference(\\...\n      DUP1 \t\t\ttion updateChatDataReference(\\...\n      CALLDATASIZE \t\t\ttion updateChatDataReference(\\...\n      SUB \t\t\ttion updateChatDataReference(\\...\n      DUP2 \t\t\ttion updateChatDataReference(\\...\n      ADD \t\t\ttion updateChatDataReference(\\...\n      SWAP1 \t\t\ttion updateChatDataReference(\\...\n      PUSH [tag] 75\t\t\ttion updateChatDataReference(\\...\n      SWAP2 \t\t\ttion updateChatDataReference(\\...\n      SWAP1 \t\t\ttion updateChatDataReference(\\...\n      PUSH [tag] 76\t\t\ttion updateChatDataReference(\\...\n      JUMP \t\t\ttion updateChatDataReference(\\...\n    tag 75\t\t\ttion updateChatDataReference(\\...\n      JUMPDEST \t\t\ttion updateChatDataReference(\\...\n      PUSH [tag] 77\t\t\ttion updateChatDataReference(\\...\n      JUMP \t\t\ttion updateChatDataReference(\\...\n    tag 74\t\t\ttion updateChatDataReference(\\...\n      JUMPDEST \t\t\ttion updateChatDataReference(\\...\n      STOP \t\t\ttion updateChatDataReference(\\...\n    tag 9\t\t\ttion totalSupply() external vi...\n      JUMPDEST \t\t\ttion totalSupply() external vi...\n      PUSH [tag] 78\t\t\ttion totalSupply() external vi...\n      PUSH [tag] 79\t\t\ttion totalSupply() external vi...\n      JUMP \t\t\ttion totalSupply() external vi...\n    tag 78\t\t\ttion totalSupply() external vi...\n      JUMPDEST \t\t\ttion totalSupply() external vi...\n      PUSH 40\t\t\ttion totalSupply() external vi...\n      MLOAD \t\t\ttion totalSupply() external vi...\n      PUSH [tag] 80\t\t\ttion totalSupply() external vi...\n      SWAP2 \t\t\ttion totalSupply() external vi...\n      SWAP1 \t\t\ttion totalSupply() external vi...\n      PUSH [tag] 81\t\t\ttion totalSupply() external vi...\n      JUMP \t\t\ttion totalSupply() external vi...\n    tag 80\t\t\ttion totalSupply() external vi...\n      JUMPDEST \t\t\ttion totalSupply() external vi...\n      PUSH 40\t\t\ttion totalSupply() external vi...\n      MLOAD \t\t\ttion totalSupply() external vi...\n      DUP1 \t\t\ttion totalSupply() external vi...\n      SWAP2 \t\t\ttion totalSupply() external vi...\n      SUB \t\t\ttion totalSupply() external vi...\n      SWAP1 \t\t\ttion totalSupply() external vi...\n      RETURN \t\t\ttion totalSupply() external vi...\n    tag 10\t\t\ttion revokeDid(bool clearChatR...\n      JUMPDEST \t\t\ttion revokeDid(bool clearChatR...\n      PUSH [tag] 82\t\t\ttion revokeDid(bool clearChatR...\n      PUSH 4\t\t\ttion revokeDid(bool clearChatR...\n      DUP1 \t\t\ttion revokeDid(bool clearChatR...\n      CALLDATASIZE \t\t\ttion revokeDid(bool clearChatR...\n      SUB \t\t\ttion revokeDid(bool clearChatR...\n      DUP2 \t\t\ttion revokeDid(bool clearChatR...\n      ADD \t\t\ttion revokeDid(bool clearChatR...\n      SWAP1 \t\t\ttion revokeDid(bool clearChatR...\n      PUSH [tag] 83\t\t\ttion revokeDid(bool clearChatR...\n      SWAP2 \t\t\ttion revokeDid(bool clearChatR...\n      SWAP1 \t\t\ttion revokeDid(bool clearChatR...\n      PUSH [tag] 84\t\t\ttion revokeDid(bool clearChatR...\n      JUMP \t\t\ttion revokeDid(bool clearChatR...\n    tag 83\t\t\ttion revokeDid(bool clearChatR...\n      JUMPDEST \t\t\ttion revokeDid(bool clearChatR...\n      PUSH [tag] 85\t\t\ttion revokeDid(bool clearChatR...\n      JUMP \t\t\ttion revokeDid(bool clearChatR...\n    tag 82\t\t\ttion revokeDid(bool clearChatR...\n      JUMPDEST \t\t\ttion revokeDid(bool clearChatR...\n      STOP \t\t\ttion revokeDid(bool clearChatR...\n    tag 11\t\t\ttion getDidId(address user) ex...\n      JUMPDEST \t\t\ttion getDidId(address user) ex...\n      PUSH [tag] 86\t\t\ttion getDidId(address user) ex...\n      PUSH 4\t\t\ttion getDidId(address user) ex...\n      DUP1 \t\t\ttion getDidId(address user) ex...\n      CALLDATASIZE \t\t\ttion getDidId(address user) ex...\n      SUB \t\t\ttion getDidId(address user) ex...\n      DUP2 \t\t\ttion getDidId(address user) ex...\n      ADD \t\t\ttion getDidId(address user) ex...\n      SWAP1 \t\t\ttion getDidId(address user) ex...\n      PUSH [tag] 87\t\t\ttion getDidId(address user) ex...\n      SWAP2 \t\t\ttion getDidId(address user) ex...\n      SWAP1 \t\t\ttion getDidId(address user) ex...\n      PUSH [tag] 70\t\t\ttion getDidId(address user) ex...\n      JUMP \t\t\ttion getDidId(address user) ex...\n    tag 87\t\t\ttion getDidId(address user) ex...\n      JUMPDEST \t\t\ttion getDidId(address user) ex...\n      PUSH [tag] 88\t\t\ttion getDidId(address user) ex...\n      JUMP \t\t\ttion getDidId(address user) ex...\n    tag 86\t\t\ttion getDidId(address user) ex...\n      JUMPDEST \t\t\ttion getDidId(address user) ex...\n      PUSH 40\t\t\ttion getDidId(address user) ex...\n      MLOAD \t\t\ttion getDidId(address user) ex...\n      PUSH [tag] 89\t\t\ttion getDidId(address user) ex...\n      SWAP2 \t\t\ttion getDidId(address user) ex...\n      SWAP1 \t\t\ttion getDidId(address user) ex...\n      PUSH [tag] 81\t\t\ttion getDidId(address user) ex...\n      JUMP \t\t\ttion getDidId(address user) ex...\n    tag 89\t\t\ttion getDidId(address user) ex...\n      JUMPDEST \t\t\ttion getDidId(address user) ex...\n      PUSH 40\t\t\ttion getDidId(address user) ex...\n      MLOAD \t\t\ttion getDidId(address user) ex...\n      DUP1 \t\t\ttion getDidId(address user) ex...\n      SWAP2 \t\t\ttion getDidId(address user) ex...\n      SUB \t\t\ttion getDidId(address user) ex...\n      SWAP1 \t\t\ttion getDidId(address user) ex...\n      RETURN \t\t\ttion getDidId(address user) ex...\n    tag 12\t\t\tress indexed newWallet,\\n     ...\n      JUMPDEST \t\t\tress indexed newWallet,\\n     ...\n      PUSH [tag] 90\t\t\tress indexed newWallet,\\n     ...\n      PUSH 4\t\t\tress indexed newWallet,\\n     ...\n      DUP1 \t\t\tress indexed newWallet,\\n     ...\n      CALLDATASIZE \t\t\tress indexed newWallet,\\n     ...\n      SUB \t\t\tress indexed newWallet,\\n     ...\n      DUP2 \t\t\tress indexed newWallet,\\n     ...\n      ADD \t\t\tress indexed newWallet,\\n     ...\n      SWAP1 \t\t\tress indexed newWallet,\\n     ...\n      PUSH [tag] 91\t\t\tress indexed newWallet,\\n     ...\n      SWAP2 \t\t\tress indexed newWallet,\\n     ...\n      SWAP1 \t\t\tress indexed newWallet,\\n     ...\n      PUSH [tag] 92\t\t\tress indexed newWallet,\\n     ...\n      JUMP \t\t\tress indexed newWallet,\\n     ...\n    tag 91\t\t\tress indexed newWallet,\\n     ...\n      JUMPDEST \t\t\tress indexed newWallet,\\n     ...\n      PUSH [tag] 93\t\t\tress indexed newWallet,\\n     ...\n      JUMP \t\t\tress indexed newWallet,\\n     ...\n    tag 90\t\t\tress indexed newWallet,\\n     ...\n      JUMPDEST \t\t\tress indexed newWallet,\\n     ...\n      STOP \t\t\tress indexed newWallet,\\n     ...\n    tag 13\t\t\t= user, \"Not owner\");\\n       ...\n      JUMPDEST \t\t\t= user, \"Not owner\");\\n       ...\n      PUSH [tag] 94\t\t\t= user, \"Not owner\");\\n       ...\n      PUSH 4\t\t\t= user, \"Not owner\");\\n       ...\n      DUP1 \t\t\t= user, \"Not owner\");\\n       ...\n      CALLDATASIZE \t\t\t= user, \"Not owner\");\\n       ...\n      SUB \t\t\t= user, \"Not owner\");\\n       ...\n      DUP2 \t\t\t= user, \"Not owner\");\\n       ...\n      ADD \t\t\t= user, \"Not owner\");\\n       ...\n      SWAP1 \t\t\t= user, \"Not owner\");\\n       ...\n      PUSH [tag] 95\t\t\t= user, \"Not owner\");\\n       ...\n      SWAP2 \t\t\t= user, \"Not owner\");\\n       ...\n      SWAP1 \t\t\t= user, \"Not owner\");\\n       ...\n      PUSH [tag] 92\t\t\t= user, \"Not owner\");\\n       ...\n      JUMP \t\t\t= user, \"Not owner\");\\n       ...\n    tag 95\t\t\t= user, \"Not owner\");\\n       ...\n      JUMPDEST \t\t\t= user, \"Not owner\");\\n       ...\n      PUSH [tag] 96\t\t\t= user, \"Not owner\");\\n       ...\n      JUMP \t\t\t= user, \"Not owner\");\\n       ...\n    tag 94\t\t\t= user, \"Not owner\");\\n       ...\n      JUMPDEST \t\t\t= user, \"Not owner\");\\n       ...\n      STOP \t\t\t= user, \"Not owner\");\\n       ...\n    tag 14\t\t\ttion updateChatReference(\\n   ...\n      JUMPDEST \t\t\ttion updateChatReference(\\n   ...\n      PUSH [tag] 97\t\t\ttion updateChatReference(\\n   ...\n      PUSH 4\t\t\ttion updateChatReference(\\n   ...\n      DUP1 \t\t\ttion updateChatReference(\\n   ...\n      CALLDATASIZE \t\t\ttion updateChatReference(\\n   ...\n      SUB \t\t\ttion updateChatReference(\\n   ...\n      DUP2 \t\t\ttion updateChatReference(\\n   ...\n      ADD \t\t\ttion updateChatReference(\\n   ...\n      SWAP1 \t\t\ttion updateChatReference(\\n   ...\n      PUSH [tag] 98\t\t\ttion updateChatReference(\\n   ...\n      SWAP2 \t\t\ttion updateChatReference(\\n   ...\n      SWAP1 \t\t\ttion updateChatReference(\\n   ...\n      PUSH [tag] 99\t\t\ttion updateChatReference(\\n   ...\n      JUMP \t\t\ttion updateChatReference(\\n   ...\n    tag 98\t\t\ttion updateChatReference(\\n   ...\n      JUMPDEST \t\t\ttion updateChatReference(\\n   ...\n      PUSH [tag] 100\t\t\ttion updateChatReference(\\n   ...\n      JUMP \t\t\ttion updateChatReference(\\n   ...\n    tag 97\t\t\ttion updateChatReference(\\n   ...\n      JUMPDEST \t\t\ttion updateChatReference(\\n   ...\n      STOP \t\t\ttion updateChatReference(\\n   ...\n    tag 15\t\t\ttion isRevokedById(uint256 tok...\n      JUMPDEST \t\t\ttion isRevokedById(uint256 tok...\n      PUSH [tag] 101\t\t\ttion isRevokedById(uint256 tok...\n      PUSH 4\t\t\ttion isRevokedById(uint256 tok...\n      DUP1 \t\t\ttion isRevokedById(uint256 tok...\n      CALLDATASIZE \t\t\ttion isRevokedById(uint256 tok...\n      SUB \t\t\ttion isRevokedById(uint256 tok...\n      DUP2 \t\t\ttion isRevokedById(uint256 tok...\n      ADD \t\t\ttion isRevokedById(uint256 tok...\n      SWAP1 \t\t\ttion isRevokedById(uint256 tok...\n      PUSH [tag] 102\t\t\ttion isRevokedById(uint256 tok...\n      SWAP2 \t\t\ttion isRevokedById(uint256 tok...\n      SWAP1 \t\t\ttion isRevokedById(uint256 tok...\n      PUSH [tag] 60\t\t\ttion isRevokedById(uint256 tok...\n      JUMP \t\t\ttion isRevokedById(uint256 tok...\n    tag 102\t\t\ttion isRevokedById(uint256 tok...\n      JUMPDEST \t\t\ttion isRevokedById(uint256 tok...\n      PUSH [tag] 103\t\t\ttion isRevokedById(uint256 tok...\n      JUMP \t\t\ttion isRevokedById(uint256 tok...\n    tag 101\t\t\ttion isRevokedById(uint256 tok...\n      JUMPDEST \t\t\ttion isRevokedById(uint256 tok...\n      PUSH 40\t\t\ttion isRevokedById(uint256 tok...\n      MLOAD \t\t\ttion isRevokedById(uint256 tok...\n      PUSH [tag] 104\t\t\ttion isRevokedById(uint256 tok...\n      SWAP2 \t\t\ttion isRevokedById(uint256 tok...\n      SWAP1 \t\t\ttion isRevokedById(uint256 tok...\n      PUSH [tag] 53\t\t\ttion isRevokedById(uint256 tok...\n      JUMP \t\t\ttion isRevokedById(uint256 tok...\n    tag 104\t\t\ttion isRevokedById(uint256 tok...\n      JUMPDEST \t\t\ttion isRevokedById(uint256 tok...\n      PUSH 40\t\t\ttion isRevokedById(uint256 tok...\n      MLOAD \t\t\ttion isRevokedById(uint256 tok...\n      DUP1 \t\t\ttion isRevokedById(uint256 tok...\n      SWAP2 \t\t\ttion isRevokedById(uint256 tok...\n      SUB \t\t\ttion isRevokedById(uint256 tok...\n      SWAP1 \t\t\ttion isRevokedById(uint256 tok...\n      RETURN \t\t\ttion isRevokedById(uint256 tok...\n    tag 16\t\t\ttion setBaseURI(string memory ...\n      JUMPDEST \t\t\ttion setBaseURI(string memory ...\n      PUSH [tag] 105\t\t\ttion setBaseURI(string memory ...\n      PUSH 4\t\t\ttion setBaseURI(string memory ...\n      DUP1 \t\t\ttion setBaseURI(string memory ...\n      CALLDATASIZE \t\t\ttion setBaseURI(string memory ...\n      SUB \t\t\ttion setBaseURI(string memory ...\n      DUP2 \t\t\ttion setBaseURI(string memory ...\n      ADD \t\t\ttion setBaseURI(string memory ...\n      SWAP1 \t\t\ttion setBaseURI(string memory ...\n      PUSH [tag] 106\t\t\ttion setBaseURI(string memory ...\n      SWAP2 \t\t\ttion setBaseURI(string memory ...\n      SWAP1 \t\t\ttion setBaseURI(string memory ...\n      PUSH [tag] 107\t\t\ttion setBaseURI(string memory ...\n      JUMP \t\t\ttion setBaseURI(string memory ...\n    tag 106\t\t\ttion setBaseURI(string memory ...\n      JUMPDEST \t\t\ttion setBaseURI(string memory ...\n      PUSH [tag] 108\t\t\ttion setBaseURI(string memory ...\n      JUMP \t\t\ttion setBaseURI(string memory ...\n    tag 105\t\t\ttion setBaseURI(string memory ...\n      JUMPDEST \t\t\ttion setBaseURI(string memory ...\n      STOP \t\t\ttion setBaseURI(string memory ...\n    tag 17\t\t\ttion revokeDid() external only...\n      JUMPDEST \t\t\ttion revokeDid() external only...\n      PUSH [tag] 109\t\t\ttion revokeDid() external only...\n      PUSH [tag] 110\t\t\ttion revokeDid() external only...\n      JUMP \t\t\ttion revokeDid() external only...\n    tag 109\t\t\ttion revokeDid() external only...\n      JUMPDEST \t\t\ttion revokeDid() external only...\n      STOP \t\t\ttion revokeDid() external only...\n    tag 18\t\t\ttion migrateDid(\\n        addr...\n      JUMPDEST \t\t\ttion migrateDid(\\n        addr...\n      PUSH [tag] 111\t\t\ttion migrateDid(\\n        addr...\n      PUSH 4\t\t\ttion migrateDid(\\n        addr...\n      DUP1 \t\t\ttion migrateDid(\\n        addr...\n      CALLDATASIZE \t\t\ttion migrateDid(\\n        addr...\n      SUB \t\t\ttion migrateDid(\\n        addr...\n      DUP2 \t\t\ttion migrateDid(\\n        addr...\n      ADD \t\t\ttion migrateDid(\\n        addr...\n      SWAP1 \t\t\ttion migrateDid(\\n        addr...\n      PUSH [tag] 112\t\t\ttion migrateDid(\\n        addr...\n      SWAP2 \t\t\ttion migrateDid(\\n        addr...\n      SWAP1 \t\t\ttion migrateDid(\\n        addr...\n      PUSH [tag] 113\t\t\ttion migrateDid(\\n        addr...\n      JUMP \t\t\ttion migrateDid(\\n        addr...\n    tag 112\t\t\ttion migrateDid(\\n        addr...\n      JUMPDEST \t\t\ttion migrateDid(\\n        addr...\n      PUSH [tag] 114\t\t\ttion migrateDid(\\n        addr...\n      JUMP \t\t\ttion migrateDid(\\n        addr...\n    tag 111\t\t\ttion migrateDid(\\n        addr...\n      JUMPDEST \t\t\ttion migrateDid(\\n        addr...\n      STOP \t\t\ttion migrateDid(\\n        addr...\n    tag 19\t\t\tto track revoked DIDs (separat...\n      JUMPDEST \t\t\tto track revoked DIDs (separat...\n      PUSH [tag] 115\t\t\tto track revoked DIDs (separat...\n      PUSH 4\t\t\tto track revoked DIDs (separat...\n      DUP1 \t\t\tto track revoked DIDs (separat...\n      CALLDATASIZE \t\t\tto track revoked DIDs (separat...\n      SUB \t\t\tto track revoked DIDs (separat...\n      DUP2 \t\t\tto track revoked DIDs (separat...\n      ADD \t\t\tto track revoked DIDs (separat...\n      SWAP1 \t\t\tto track revoked DIDs (separat...\n      PUSH [tag] 116\t\t\tto track revoked DIDs (separat...\n      SWAP2 \t\t\tto track revoked DIDs (separat...\n      SWAP1 \t\t\tto track revoked DIDs (separat...\n      PUSH [tag] 60\t\t\tto track revoked DIDs (separat...\n      JUMP \t\t\tto track revoked DIDs (separat...\n    tag 116\t\t\tto track revoked DIDs (separat...\n      JUMPDEST \t\t\tto track revoked DIDs (separat...\n      PUSH [tag] 117\t\t\tto track revoked DIDs (separat...\n      JUMP \t\t\tto track revoked DIDs (separat...\n    tag 115\t\t\tto track revoked DIDs (separat...\n      JUMPDEST \t\t\tto track revoked DIDs (separat...\n      PUSH 40\t\t\tto track revoked DIDs (separat...\n      MLOAD \t\t\tto track revoked DIDs (separat...\n      PUSH [tag] 118\t\t\tto track revoked DIDs (separat...\n      SWAP2 \t\t\tto track revoked DIDs (separat...\n      SWAP1 \t\t\tto track revoked DIDs (separat...\n      PUSH [tag] 63\t\t\tto track revoked DIDs (separat...\n      JUMP \t\t\tto track revoked DIDs (separat...\n    tag 118\t\t\tto track revoked DIDs (separat...\n      JUMPDEST \t\t\tto track revoked DIDs (separat...\n      PUSH 40\t\t\tto track revoked DIDs (separat...\n      MLOAD \t\t\tto track revoked DIDs (separat...\n      DUP1 \t\t\tto track revoked DIDs (separat...\n      SWAP2 \t\t\tto track revoked DIDs (separat...\n      SUB \t\t\tto track revoked DIDs (separat...\n      SWAP1 \t\t\tto track revoked DIDs (separat...\n      RETURN \t\t\tto track revoked DIDs (separat...\n    tag 20\t\t\tess public backendSigner;\\n  \n      JUMPDEST \t\t\tess public backendSigner;\\n  \n      PUSH [tag] 119\t\t\tess public backendSigner;\\n  \n      PUSH [tag] 120\t\t\tess public backendSigner;\\n  \n      JUMP \t\t\tess public backendSigner;\\n  \n    tag 119\t\t\tess public backendSigner;\\n  \n      JUMPDEST \t\t\tess public backendSigner;\\n  \n      PUSH 40\t\t\tess public backendSigner;\\n  \n      MLOAD \t\t\tess public backendSigner;\\n  \n      PUSH [tag] 121\t\t\tess public backendSigner;\\n  \n      SWAP2 \t\t\tess public backendSigner;\\n  \n      SWAP1 \t\t\tess public backendSigner;\\n  \n      PUSH [tag] 63\t\t\tess public backendSigner;\\n  \n      JUMP \t\t\tess public backendSigner;\\n  \n    tag 121\t\t\tess public backendSigner;\\n  \n      JUMPDEST \t\t\tess public backendSigner;\\n  \n      PUSH 40\t\t\tess public backendSigner;\\n  \n      MLOAD \t\t\tess public backendSigner;\\n  \n      DUP1 \t\t\tess public backendSigner;\\n  \n      SWAP2 \t\t\tess public backendSigner;\\n  \n      SUB \t\t\tess public backendSigner;\\n  \n      SWAP1 \t\t\tess public backendSigner;\\n  \n      RETURN \t\t\tess public backendSigner;\\n  \n    tag 21\t\t\t\\n    // Mapping from owner ad...\n      JUMPDEST \t\t\t\\n    // Mapping from owner ad...\n      PUSH [tag] 122\t\t\t\\n    // Mapping from owner ad...\n      PUSH 4\t\t\t\\n    // Mapping from owner ad...\n      DUP1 \t\t\t\\n    // Mapping from owner ad...\n      CALLDATASIZE \t\t\t\\n    // Mapping from owner ad...\n      SUB \t\t\t\\n    // Mapping from owner ad...\n      DUP2 \t\t\t\\n    // Mapping from owner ad...\n      ADD \t\t\t\\n    // Mapping from owner ad...\n      SWAP1 \t\t\t\\n    // Mapping from owner ad...\n      PUSH [tag] 123\t\t\t\\n    // Mapping from owner ad...\n      SWAP2 \t\t\t\\n    // Mapping from owner ad...\n      SWAP1 \t\t\t\\n    // Mapping from owner ad...\n      PUSH [tag] 70\t\t\t\\n    // Mapping from owner ad...\n      JUMP \t\t\t\\n    // Mapping from owner ad...\n    tag 123\t\t\t\\n    // Mapping from owner ad...\n      JUMPDEST \t\t\t\\n    // Mapping from owner ad...\n      PUSH [tag] 124\t\t\t\\n    // Mapping from owner ad...\n      JUMP \t\t\t\\n    // Mapping from owner ad...\n    tag 122\t\t\t\\n    // Mapping from owner ad...\n      JUMPDEST \t\t\t\\n    // Mapping from owner ad...\n      PUSH 40\t\t\t\\n    // Mapping from owner ad...\n      MLOAD \t\t\t\\n    // Mapping from owner ad...\n      PUSH [tag] 125\t\t\t\\n    // Mapping from owner ad...\n      SWAP2 \t\t\t\\n    // Mapping from owner ad...\n      SWAP1 \t\t\t\\n    // Mapping from owner ad...\n      PUSH [tag] 81\t\t\t\\n    // Mapping from owner ad...\n      JUMP \t\t\t\\n    // Mapping from owner ad...\n    tag 125\t\t\t\\n    // Mapping from owner ad...\n      JUMPDEST \t\t\t\\n    // Mapping from owner ad...\n      PUSH 40\t\t\t\\n    // Mapping from owner ad...\n      MLOAD \t\t\t\\n    // Mapping from owner ad...\n      DUP1 \t\t\t\\n    // Mapping from owner ad...\n      SWAP2 \t\t\t\\n    // Mapping from owner ad...\n      SUB \t\t\t\\n    // Mapping from owner ad...\n      SWAP1 \t\t\t\\n    // Mapping from owner ad...\n      RETURN \t\t\t\\n    // Mapping from owner ad...\n    tag 22\t\t\token counter (starts at 1)\\n  ...\n      JUMPDEST \t\t\token counter (starts at 1)\\n  ...\n      PUSH [tag] 126\t\t\token counter (starts at 1)\\n  ...\n      PUSH [tag] 127\t\t\token counter (starts at 1)\\n  ...\n      JUMP \t\t\token counter (starts at 1)\\n  ...\n    tag 126\t\t\token counter (starts at 1)\\n  ...\n      JUMPDEST \t\t\token counter (starts at 1)\\n  ...\n      STOP \t\t\token counter (starts at 1)\\n  ...\n    tag 23\t\t\ttion updateBackendSigner(addre...\n      JUMPDEST \t\t\ttion updateBackendSigner(addre...\n      PUSH [tag] 128\t\t\ttion updateBackendSigner(addre...\n      PUSH 4\t\t\ttion updateBackendSigner(addre...\n      DUP1 \t\t\ttion updateBackendSigner(addre...\n      CALLDATASIZE \t\t\ttion updateBackendSigner(addre...\n      SUB \t\t\ttion updateBackendSigner(addre...\n      DUP2 \t\t\ttion updateBackendSigner(addre...\n      ADD \t\t\ttion updateBackendSigner(addre...\n      SWAP1 \t\t\ttion updateBackendSigner(addre...\n      PUSH [tag] 129\t\t\ttion updateBackendSigner(addre...\n      SWAP2 \t\t\ttion updateBackendSigner(addre...\n      SWAP1 \t\t\ttion updateBackendSigner(addre...\n      PUSH [tag] 70\t\t\ttion updateBackendSigner(addre...\n      JUMP \t\t\ttion updateBackendSigner(addre...\n    tag 129\t\t\ttion updateBackendSigner(addre...\n      JUMPDEST \t\t\ttion updateBackendSigner(addre...\n      PUSH [tag] 130\t\t\ttion updateBackendSigner(addre...\n      JUMP \t\t\ttion updateBackendSigner(addre...\n    tag 128\t\t\ttion updateBackendSigner(addre...\n      JUMPDEST \t\t\ttion updateBackendSigner(addre...\n      STOP \t\t\ttion updateBackendSigner(addre...\n    tag 24\t\t\taReference;        // 32 bytes...\n      JUMPDEST \t\t\taReference;        // 32 bytes...\n      PUSH [tag] 131\t\t\taReference;        // 32 bytes...\n      PUSH [tag] 132\t\t\taReference;        // 32 bytes...\n      JUMP \t\t\taReference;        // 32 bytes...\n    tag 131\t\t\taReference;        // 32 bytes...\n      JUMPDEST \t\t\taReference;        // 32 bytes...\n      PUSH 40\t\t\taReference;        // 32 bytes...\n      MLOAD \t\t\taReference;        // 32 bytes...\n      PUSH [tag] 133\t\t\taReference;        // 32 bytes...\n      SWAP2 \t\t\taReference;        // 32 bytes...\n      SWAP1 \t\t\taReference;        // 32 bytes...\n      PUSH [tag] 63\t\t\taReference;        // 32 bytes...\n      JUMP \t\t\taReference;        // 32 bytes...\n    tag 133\t\t\taReference;        // 32 bytes...\n      JUMPDEST \t\t\taReference;        // 32 bytes...\n      PUSH 40\t\t\taReference;        // 32 bytes...\n      MLOAD \t\t\taReference;        // 32 bytes...\n      DUP1 \t\t\taReference;        // 32 bytes...\n      SWAP2 \t\t\taReference;        // 32 bytes...\n      SUB \t\t\taReference;        // 32 bytes...\n      SWAP1 \t\t\taReference;        // 32 bytes...\n      RETURN \t\t\taReference;        // 32 bytes...\n    tag 25\t\t\t(optional)\\n    address public...\n      JUMPDEST \t\t\t(optional)\\n    address public...\n      PUSH [tag] 134\t\t\t(optional)\\n    address public...\n      PUSH [tag] 135\t\t\t(optional)\\n    address public...\n      JUMP \t\t\t(optional)\\n    address public...\n    tag 134\t\t\t(optional)\\n    address public...\n      JUMPDEST \t\t\t(optional)\\n    address public...\n      PUSH 40\t\t\t(optional)\\n    address public...\n      MLOAD \t\t\t(optional)\\n    address public...\n      PUSH [tag] 136\t\t\t(optional)\\n    address public...\n      SWAP2 \t\t\t(optional)\\n    address public...\n      SWAP1 \t\t\t(optional)\\n    address public...\n      PUSH [tag] 57\t\t\t(optional)\\n    address public...\n      JUMP \t\t\t(optional)\\n    address public...\n    tag 136\t\t\t(optional)\\n    address public...\n      JUMPDEST \t\t\t(optional)\\n    address public...\n      PUSH 40\t\t\t(optional)\\n    address public...\n      MLOAD \t\t\t(optional)\\n    address public...\n      DUP1 \t\t\t(optional)\\n    address public...\n      SWAP2 \t\t\t(optional)\\n    address public...\n      SUB \t\t\t(optional)\\n    address public...\n      SWAP1 \t\t\t(optional)\\n    address public...\n      RETURN \t\t\t(optional)\\n    address public...\n    tag 26\t\t\ttion getEncryptedKeyMetadata(a...\n      JUMPDEST \t\t\ttion getEncryptedKeyMetadata(a...\n      PUSH [tag] 137\t\t\ttion getEncryptedKeyMetadata(a...\n      PUSH 4\t\t\ttion getEncryptedKeyMetadata(a...\n      DUP1 \t\t\ttion getEncryptedKeyMetadata(a...\n      CALLDATASIZE \t\t\ttion getEncryptedKeyMetadata(a...\n      SUB \t\t\ttion getEncryptedKeyMetadata(a...\n      DUP2 \t\t\ttion getEncryptedKeyMetadata(a...\n      ADD \t\t\ttion getEncryptedKeyMetadata(a...\n      SWAP1 \t\t\ttion getEncryptedKeyMetadata(a...\n      PUSH [tag] 138\t\t\ttion getEncryptedKeyMetadata(a...\n      SWAP2 \t\t\ttion getEncryptedKeyMetadata(a...\n      SWAP1 \t\t\ttion getEncryptedKeyMetadata(a...\n      PUSH [tag] 70\t\t\ttion getEncryptedKeyMetadata(a...\n      JUMP \t\t\ttion getEncryptedKeyMetadata(a...\n    tag 138\t\t\ttion getEncryptedKeyMetadata(a...\n      JUMPDEST \t\t\ttion getEncryptedKeyMetadata(a...\n      PUSH [tag] 139\t\t\ttion getEncryptedKeyMetadata(a...\n      JUMP \t\t\ttion getEncryptedKeyMetadata(a...\n    tag 137\t\t\ttion getEncryptedKeyMetadata(a...\n      JUMPDEST \t\t\ttion getEncryptedKeyMetadata(a...\n      PUSH 40\t\t\ttion getEncryptedKeyMetadata(a...\n      MLOAD \t\t\ttion getEncryptedKeyMetadata(a...\n      PUSH [tag] 140\t\t\ttion getEncryptedKeyMetadata(a...\n      SWAP2 \t\t\ttion getEncryptedKeyMetadata(a...\n      SWAP1 \t\t\ttion getEncryptedKeyMetadata(a...\n      PUSH [tag] 141\t\t\ttion getEncryptedKeyMetadata(a...\n      JUMP \t\t\ttion getEncryptedKeyMetadata(a...\n    tag 140\t\t\ttion getEncryptedKeyMetadata(a...\n      JUMPDEST \t\t\ttion getEncryptedKeyMetadata(a...\n      PUSH 40\t\t\ttion getEncryptedKeyMetadata(a...\n      MLOAD \t\t\ttion getEncryptedKeyMetadata(a...\n      DUP1 \t\t\ttion getEncryptedKeyMetadata(a...\n      SWAP2 \t\t\ttion getEncryptedKeyMetadata(a...\n      SUB \t\t\ttion getEncryptedKeyMetadata(a...\n      SWAP1 \t\t\ttion getEncryptedKeyMetadata(a...\n      RETURN \t\t\ttion getEncryptedKeyMetadata(a...\n    tag 27\t\t\ttion setApprovalForAll(address...\n      JUMPDEST \t\t\ttion setApprovalForAll(address...\n      PUSH [tag] 142\t\t\ttion setApprovalForAll(address...\n      PUSH 4\t\t\ttion setApprovalForAll(address...\n      DUP1 \t\t\ttion setApprovalForAll(address...\n      CALLDATASIZE \t\t\ttion setApprovalForAll(address...\n      SUB \t\t\ttion setApprovalForAll(address...\n      DUP2 \t\t\ttion setApprovalForAll(address...\n      ADD \t\t\ttion setApprovalForAll(address...\n      SWAP1 \t\t\ttion setApprovalForAll(address...\n      PUSH [tag] 143\t\t\ttion setApprovalForAll(address...\n      SWAP2 \t\t\ttion setApprovalForAll(address...\n      SWAP1 \t\t\ttion setApprovalForAll(address...\n      PUSH [tag] 144\t\t\ttion setApprovalForAll(address...\n      JUMP \t\t\ttion setApprovalForAll(address...\n    tag 143\t\t\ttion setApprovalForAll(address...\n      JUMPDEST \t\t\ttion setApprovalForAll(address...\n      PUSH [tag] 145\t\t\ttion setApprovalForAll(address...\n      JUMP \t\t\ttion setApprovalForAll(address...\n    tag 142\t\t\ttion setApprovalForAll(address...\n      JUMPDEST \t\t\ttion setApprovalForAll(address...\n      STOP \t\t\ttion setApprovalForAll(address...\n    tag 28\t\t\te(_hasDid[user], \"No DID\");\\n ...\n      JUMPDEST \t\t\te(_hasDid[user], \"No DID\");\\n ...\n      PUSH [tag] 146\t\t\te(_hasDid[user], \"No DID\");\\n ...\n      PUSH 4\t\t\te(_hasDid[user], \"No DID\");\\n ...\n      DUP1 \t\t\te(_hasDid[user], \"No DID\");\\n ...\n      CALLDATASIZE \t\t\te(_hasDid[user], \"No DID\");\\n ...\n      SUB \t\t\te(_hasDid[user], \"No DID\");\\n ...\n      DUP2 \t\t\te(_hasDid[user], \"No DID\");\\n ...\n      ADD \t\t\te(_hasDid[user], \"No DID\");\\n ...\n      SWAP1 \t\t\te(_hasDid[user], \"No DID\");\\n ...\n      PUSH [tag] 147\t\t\te(_hasDid[user], \"No DID\");\\n ...\n      SWAP2 \t\t\te(_hasDid[user], \"No DID\");\\n ...\n      SWAP1 \t\t\te(_hasDid[user], \"No DID\");\\n ...\n      PUSH [tag] 148\t\t\te(_hasDid[user], \"No DID\");\\n ...\n      JUMP \t\t\te(_hasDid[user], \"No DID\");\\n ...\n    tag 147\t\t\te(_hasDid[user], \"No DID\");\\n ...\n      JUMPDEST \t\t\te(_hasDid[user], \"No DID\");\\n ...\n      PUSH [tag] 149\t\t\te(_hasDid[user], \"No DID\");\\n ...\n      JUMP \t\t\te(_hasDid[user], \"No DID\");\\n ...\n    tag 146\t\t\te(_hasDid[user], \"No DID\");\\n ...\n      JUMPDEST \t\t\te(_hasDid[user], \"No DID\");\\n ...\n      STOP \t\t\te(_hasDid[user], \"No DID\");\\n ...\n    tag 29\t\t\ttion createMyDid() external no...\n      JUMPDEST \t\t\ttion createMyDid() external no...\n      PUSH [tag] 150\t\t\ttion createMyDid() external no...\n      PUSH [tag] 151\t\t\ttion createMyDid() external no...\n      JUMP \t\t\ttion createMyDid() external no...\n    tag 150\t\t\ttion createMyDid() external no...\n      JUMPDEST \t\t\ttion createMyDid() external no...\n      PUSH 40\t\t\ttion createMyDid() external no...\n      MLOAD \t\t\ttion createMyDid() external no...\n      PUSH [tag] 152\t\t\ttion createMyDid() external no...\n      SWAP2 \t\t\ttion createMyDid() external no...\n      SWAP1 \t\t\ttion createMyDid() external no...\n      PUSH [tag] 81\t\t\ttion createMyDid() external no...\n      JUMP \t\t\ttion createMyDid() external no...\n    tag 152\t\t\ttion createMyDid() external no...\n      JUMPDEST \t\t\ttion createMyDid() external no...\n      PUSH 40\t\t\ttion createMyDid() external no...\n      MLOAD \t\t\ttion createMyDid() external no...\n      DUP1 \t\t\ttion createMyDid() external no...\n      SWAP2 \t\t\ttion createMyDid() external no...\n      SUB \t\t\ttion createMyDid() external no...\n      SWAP1 \t\t\ttion createMyDid() external no...\n      RETURN \t\t\ttion createMyDid() external no...\n    tag 30\t\t\ttion hasDid(address user) exte...\n      JUMPDEST \t\t\ttion hasDid(address user) exte...\n      PUSH [tag] 153\t\t\ttion hasDid(address user) exte...\n      PUSH 4\t\t\ttion hasDid(address user) exte...\n      DUP1 \t\t\ttion hasDid(address user) exte...\n      CALLDATASIZE \t\t\ttion hasDid(address user) exte...\n      SUB \t\t\ttion hasDid(address user) exte...\n      DUP2 \t\t\ttion hasDid(address user) exte...\n      ADD \t\t\ttion hasDid(address user) exte...\n      SWAP1 \t\t\ttion hasDid(address user) exte...\n      PUSH [tag] 154\t\t\ttion hasDid(address user) exte...\n      SWAP2 \t\t\ttion hasDid(address user) exte...\n      SWAP1 \t\t\ttion hasDid(address user) exte...\n      PUSH [tag] 70\t\t\ttion hasDid(address user) exte...\n      JUMP \t\t\ttion hasDid(address user) exte...\n    tag 154\t\t\ttion hasDid(address user) exte...\n      JUMPDEST \t\t\ttion hasDid(address user) exte...\n      PUSH [tag] 155\t\t\ttion hasDid(address user) exte...\n      JUMP \t\t\ttion hasDid(address user) exte...\n    tag 153\t\t\ttion hasDid(address user) exte...\n      JUMPDEST \t\t\ttion hasDid(address user) exte...\n      PUSH 40\t\t\ttion hasDid(address user) exte...\n      MLOAD \t\t\ttion hasDid(address user) exte...\n      PUSH [tag] 156\t\t\ttion hasDid(address user) exte...\n      SWAP2 \t\t\ttion hasDid(address user) exte...\n      SWAP1 \t\t\ttion hasDid(address user) exte...\n      PUSH [tag] 53\t\t\ttion hasDid(address user) exte...\n      JUMP \t\t\ttion hasDid(address user) exte...\n    tag 156\t\t\ttion hasDid(address user) exte...\n      JUMPDEST \t\t\ttion hasDid(address user) exte...\n      PUSH 40\t\t\ttion hasDid(address user) exte...\n      MLOAD \t\t\ttion hasDid(address user) exte...\n      DUP1 \t\t\ttion hasDid(address user) exte...\n      SWAP2 \t\t\ttion hasDid(address user) exte...\n      SUB \t\t\ttion hasDid(address user) exte...\n      SWAP1 \t\t\ttion hasDid(address user) exte...\n      RETURN \t\t\ttion hasDid(address user) exte...\n    tag 31\t\t\t public allowPublicMinting;\\n ...\n      JUMPDEST \t\t\t public allowPublicMinting;\\n ...\n      PUSH [tag] 157\t\t\t public allowPublicMinting;\\n ...\n      PUSH [tag] 158\t\t\t public allowPublicMinting;\\n ...\n      JUMP \t\t\t public allowPublicMinting;\\n ...\n    tag 157\t\t\t public allowPublicMinting;\\n ...\n      JUMPDEST \t\t\t public allowPublicMinting;\\n ...\n      PUSH 40\t\t\t public allowPublicMinting;\\n ...\n      MLOAD \t\t\t public allowPublicMinting;\\n ...\n      PUSH [tag] 159\t\t\t public allowPublicMinting;\\n ...\n      SWAP2 \t\t\t public allowPublicMinting;\\n ...\n      SWAP1 \t\t\t public allowPublicMinting;\\n ...\n      PUSH [tag] 53\t\t\t public allowPublicMinting;\\n ...\n      JUMP \t\t\t public allowPublicMinting;\\n ...\n    tag 159\t\t\t public allowPublicMinting;\\n ...\n      JUMPDEST \t\t\t public allowPublicMinting;\\n ...\n      PUSH 40\t\t\t public allowPublicMinting;\\n ...\n      MLOAD \t\t\t public allowPublicMinting;\\n ...\n      DUP1 \t\t\t public allowPublicMinting;\\n ...\n      SWAP2 \t\t\t public allowPublicMinting;\\n ...\n      SUB \t\t\t public allowPublicMinting;\\n ...\n      SWAP1 \t\t\t public allowPublicMinting;\\n ...\n      RETURN \t\t\t public allowPublicMinting;\\n ...\n    tag 32\t\t\t // Base URI for token metadat...\n      JUMPDEST \t\t\t // Base URI for token metadat...\n      PUSH [tag] 160\t\t\t // Base URI for token metadat...\n      PUSH 4\t\t\t // Base URI for token metadat...\n      DUP1 \t\t\t // Base URI for token metadat...\n      CALLDATASIZE \t\t\t // Base URI for token metadat...\n      SUB \t\t\t // Base URI for token metadat...\n      DUP2 \t\t\t // Base URI for token metadat...\n      ADD \t\t\t // Base URI for token metadat...\n      SWAP1 \t\t\t // Base URI for token metadat...\n      PUSH [tag] 161\t\t\t // Base URI for token metadat...\n      SWAP2 \t\t\t // Base URI for token metadat...\n      SWAP1 \t\t\t // Base URI for token metadat...\n      PUSH [tag] 60\t\t\t // Base URI for token metadat...\n      JUMP \t\t\t // Base URI for token metadat...\n    tag 161\t\t\t // Base URI for token metadat...\n      JUMPDEST \t\t\t // Base URI for token metadat...\n      PUSH [tag] 162\t\t\t // Base URI for token metadat...\n      JUMP \t\t\t // Base URI for token metadat...\n    tag 160\t\t\t // Base URI for token metadat...\n      JUMPDEST \t\t\t // Base URI for token metadat...\n      PUSH 40\t\t\t // Base URI for token metadat...\n      MLOAD \t\t\t // Base URI for token metadat...\n      PUSH [tag] 163\t\t\t // Base URI for token metadat...\n      SWAP2 \t\t\t // Base URI for token metadat...\n      SWAP1 \t\t\t // Base URI for token metadat...\n      PUSH [tag] 57\t\t\t // Base URI for token metadat...\n      JUMP \t\t\t // Base URI for token metadat...\n    tag 163\t\t\t // Base URI for token metadat...\n      JUMPDEST \t\t\t // Base URI for token metadat...\n      PUSH 40\t\t\t // Base URI for token metadat...\n      MLOAD \t\t\t // Base URI for token metadat...\n      DUP1 \t\t\t // Base URI for token metadat...\n      SWAP2 \t\t\t // Base URI for token metadat...\n      SUB \t\t\t // Base URI for token metadat...\n      SWAP1 \t\t\t // Base URI for token metadat...\n      RETURN \t\t\t // Base URI for token metadat...\n    tag 33\t\t\ttion updateEncryptedKeyMetadat...\n      JUMPDEST \t\t\ttion updateEncryptedKeyMetadat...\n      PUSH [tag] 164\t\t\ttion updateEncryptedKeyMetadat...\n      PUSH 4\t\t\ttion updateEncryptedKeyMetadat...\n      DUP1 \t\t\ttion updateEncryptedKeyMetadat...\n      CALLDATASIZE \t\t\ttion updateEncryptedKeyMetadat...\n      SUB \t\t\ttion updateEncryptedKeyMetadat...\n      DUP2 \t\t\ttion updateEncryptedKeyMetadat...\n      ADD \t\t\ttion updateEncryptedKeyMetadat...\n      SWAP1 \t\t\ttion updateEncryptedKeyMetadat...\n      PUSH [tag] 165\t\t\ttion updateEncryptedKeyMetadat...\n      SWAP2 \t\t\ttion updateEncryptedKeyMetadat...\n      SWAP1 \t\t\ttion updateEncryptedKeyMetadat...\n      PUSH [tag] 166\t\t\ttion updateEncryptedKeyMetadat...\n      JUMP \t\t\ttion updateEncryptedKeyMetadat...\n    tag 165\t\t\ttion updateEncryptedKeyMetadat...\n      JUMPDEST \t\t\ttion updateEncryptedKeyMetadat...\n      PUSH [tag] 167\t\t\ttion updateEncryptedKeyMetadat...\n      JUMP \t\t\ttion updateEncryptedKeyMetadat...\n    tag 164\t\t\ttion updateEncryptedKeyMetadat...\n      JUMPDEST \t\t\ttion updateEncryptedKeyMetadat...\n      STOP \t\t\ttion updateEncryptedKeyMetadat...\n    tag 34\t\t\ttion isRevoked(address user) e...\n      JUMPDEST \t\t\ttion isRevoked(address user) e...\n      PUSH [tag] 168\t\t\ttion isRevoked(address user) e...\n      PUSH 4\t\t\ttion isRevoked(address user) e...\n      DUP1 \t\t\ttion isRevoked(address user) e...\n      CALLDATASIZE \t\t\ttion isRevoked(address user) e...\n      SUB \t\t\ttion isRevoked(address user) e...\n      DUP2 \t\t\ttion isRevoked(address user) e...\n      ADD \t\t\ttion isRevoked(address user) e...\n      SWAP1 \t\t\ttion isRevoked(address user) e...\n      PUSH [tag] 169\t\t\ttion isRevoked(address user) e...\n      SWAP2 \t\t\ttion isRevoked(address user) e...\n      SWAP1 \t\t\ttion isRevoked(address user) e...\n      PUSH [tag] 70\t\t\ttion isRevoked(address user) e...\n      JUMP \t\t\ttion isRevoked(address user) e...\n    tag 169\t\t\ttion isRevoked(address user) e...\n      JUMPDEST \t\t\ttion isRevoked(address user) e...\n      PUSH [tag] 170\t\t\ttion isRevoked(address user) e...\n      JUMP \t\t\ttion isRevoked(address user) e...\n    tag 168\t\t\ttion isRevoked(address user) e...\n      JUMPDEST \t\t\ttion isRevoked(address user) e...\n      PUSH 40\t\t\ttion isRevoked(address user) e...\n      MLOAD \t\t\ttion isRevoked(address user) e...\n      PUSH [tag] 171\t\t\ttion isRevoked(address user) e...\n      SWAP2 \t\t\ttion isRevoked(address user) e...\n      SWAP1 \t\t\ttion isRevoked(address user) e...\n      PUSH [tag] 53\t\t\ttion isRevoked(address user) e...\n      JUMP \t\t\ttion isRevoked(address user) e...\n    tag 171\t\t\ttion isRevoked(address user) e...\n      JUMPDEST \t\t\ttion isRevoked(address user) e...\n      PUSH 40\t\t\ttion isRevoked(address user) e...\n      MLOAD \t\t\ttion isRevoked(address user) e...\n      DUP1 \t\t\ttion isRevoked(address user) e...\n      SWAP2 \t\t\ttion isRevoked(address user) e...\n      SUB \t\t\ttion isRevoked(address user) e...\n      SWAP1 \t\t\ttion isRevoked(address user) e...\n      RETURN \t\t\ttion isRevoked(address user) e...\n    tag 35\t\t\ttion createDid(address user) e...\n      JUMPDEST \t\t\ttion createDid(address user) e...\n      PUSH [tag] 172\t\t\ttion createDid(address user) e...\n      PUSH 4\t\t\ttion createDid(address user) e...\n      DUP1 \t\t\ttion createDid(address user) e...\n      CALLDATASIZE \t\t\ttion createDid(address user) e...\n      SUB \t\t\ttion createDid(address user) e...\n      DUP2 \t\t\ttion createDid(address user) e...\n      ADD \t\t\ttion createDid(address user) e...\n      SWAP1 \t\t\ttion createDid(address user) e...\n      PUSH [tag] 173\t\t\ttion createDid(address user) e...\n      SWAP2 \t\t\ttion createDid(address user) e...\n      SWAP1 \t\t\ttion createDid(address user) e...\n      PUSH [tag] 70\t\t\ttion createDid(address user) e...\n      JUMP \t\t\ttion createDid(address user) e...\n    tag 173\t\t\ttion createDid(address user) e...\n      JUMPDEST \t\t\ttion createDid(address user) e...\n      PUSH [tag] 174\t\t\ttion createDid(address user) e...\n      JUMP \t\t\ttion createDid(address user) e...\n    tag 172\t\t\ttion createDid(address user) e...\n      JUMPDEST \t\t\ttion createDid(address user) e...\n      PUSH 40\t\t\ttion createDid(address user) e...\n      MLOAD \t\t\ttion createDid(address user) e...\n      PUSH [tag] 175\t\t\ttion createDid(address user) e...\n      SWAP2 \t\t\ttion createDid(address user) e...\n      SWAP1 \t\t\ttion createDid(address user) e...\n      PUSH [tag] 81\t\t\ttion createDid(address user) e...\n      JUMP \t\t\ttion createDid(address user) e...\n    tag 175\t\t\ttion createDid(address user) e...\n      JUMPDEST \t\t\ttion createDid(address user) e...\n      PUSH 40\t\t\ttion createDid(address user) e...\n      MLOAD \t\t\ttion createDid(address user) e...\n      DUP1 \t\t\ttion createDid(address user) e...\n      SWAP2 \t\t\ttion createDid(address user) e...\n      SUB \t\t\ttion createDid(address user) e...\n      SWAP1 \t\t\ttion createDid(address user) e...\n      RETURN \t\t\ttion createDid(address user) e...\n    tag 36\t\t\tenId,\\n        uint64 timestam...\n      JUMPDEST \t\t\tenId,\\n        uint64 timestam...\n      PUSH [tag] 176\t\t\tenId,\\n        uint64 timestam...\n      PUSH 4\t\t\tenId,\\n        uint64 timestam...\n      DUP1 \t\t\tenId,\\n        uint64 timestam...\n      CALLDATASIZE \t\t\tenId,\\n        uint64 timestam...\n      SUB \t\t\tenId,\\n        uint64 timestam...\n      DUP2 \t\t\tenId,\\n        uint64 timestam...\n      ADD \t\t\tenId,\\n        uint64 timestam...\n      SWAP1 \t\t\tenId,\\n        uint64 timestam...\n      PUSH [tag] 177\t\t\tenId,\\n        uint64 timestam...\n      SWAP2 \t\t\tenId,\\n        uint64 timestam...\n      SWAP1 \t\t\tenId,\\n        uint64 timestam...\n      PUSH [tag] 178\t\t\tenId,\\n        uint64 timestam...\n      JUMP \t\t\tenId,\\n        uint64 timestam...\n    tag 177\t\t\tenId,\\n        uint64 timestam...\n      JUMPDEST \t\t\tenId,\\n        uint64 timestam...\n      PUSH [tag] 179\t\t\tenId,\\n        uint64 timestam...\n      JUMP \t\t\tenId,\\n        uint64 timestam...\n    tag 176\t\t\tenId,\\n        uint64 timestam...\n      JUMPDEST \t\t\tenId,\\n        uint64 timestam...\n      PUSH 40\t\t\tenId,\\n        uint64 timestam...\n      MLOAD \t\t\tenId,\\n        uint64 timestam...\n      PUSH [tag] 180\t\t\tenId,\\n        uint64 timestam...\n      SWAP2 \t\t\tenId,\\n        uint64 timestam...\n      SWAP1 \t\t\tenId,\\n        uint64 timestam...\n      PUSH [tag] 53\t\t\tenId,\\n        uint64 timestam...\n      JUMP \t\t\tenId,\\n        uint64 timestam...\n    tag 180\t\t\tenId,\\n        uint64 timestam...\n      JUMPDEST \t\t\tenId,\\n        uint64 timestam...\n      PUSH 40\t\t\tenId,\\n        uint64 timestam...\n      MLOAD \t\t\tenId,\\n        uint64 timestam...\n      DUP1 \t\t\tenId,\\n        uint64 timestam...\n      SWAP2 \t\t\tenId,\\n        uint64 timestam...\n      SUB \t\t\tenId,\\n        uint64 timestam...\n      SWAP1 \t\t\tenId,\\n        uint64 timestam...\n      RETURN \t\t\tenId,\\n        uint64 timestam...\n    tag 37\t\t\ttion getProfile(uint256 tokenI...\n      JUMPDEST \t\t\ttion getProfile(uint256 tokenI...\n      PUSH [tag] 181\t\t\ttion getProfile(uint256 tokenI...\n      PUSH 4\t\t\ttion getProfile(uint256 tokenI...\n      DUP1 \t\t\ttion getProfile(uint256 tokenI...\n      CALLDATASIZE \t\t\ttion getProfile(uint256 tokenI...\n      SUB \t\t\ttion getProfile(uint256 tokenI...\n      DUP2 \t\t\ttion getProfile(uint256 tokenI...\n      ADD \t\t\ttion getProfile(uint256 tokenI...\n      SWAP1 \t\t\ttion getProfile(uint256 tokenI...\n      PUSH [tag] 182\t\t\ttion getProfile(uint256 tokenI...\n      SWAP2 \t\t\ttion getProfile(uint256 tokenI...\n      SWAP1 \t\t\ttion getProfile(uint256 tokenI...\n      PUSH [tag] 60\t\t\ttion getProfile(uint256 tokenI...\n      JUMP \t\t\ttion getProfile(uint256 tokenI...\n    tag 182\t\t\ttion getProfile(uint256 tokenI...\n      JUMPDEST \t\t\ttion getProfile(uint256 tokenI...\n      PUSH [tag] 183\t\t\ttion getProfile(uint256 tokenI...\n      JUMP \t\t\ttion getProfile(uint256 tokenI...\n    tag 181\t\t\ttion getProfile(uint256 tokenI...\n      JUMPDEST \t\t\ttion getProfile(uint256 tokenI...\n      PUSH 40\t\t\ttion getProfile(uint256 tokenI...\n      MLOAD \t\t\ttion getProfile(uint256 tokenI...\n      PUSH [tag] 184\t\t\ttion getProfile(uint256 tokenI...\n      SWAP2 \t\t\ttion getProfile(uint256 tokenI...\n      SWAP1 \t\t\ttion getProfile(uint256 tokenI...\n      PUSH [tag] 73\t\t\ttion getProfile(uint256 tokenI...\n      JUMP \t\t\ttion getProfile(uint256 tokenI...\n    tag 184\t\t\ttion getProfile(uint256 tokenI...\n      JUMPDEST \t\t\ttion getProfile(uint256 tokenI...\n      PUSH 40\t\t\ttion getProfile(uint256 tokenI...\n      MLOAD \t\t\ttion getProfile(uint256 tokenI...\n      DUP1 \t\t\ttion getProfile(uint256 tokenI...\n      SWAP2 \t\t\ttion getProfile(uint256 tokenI...\n      SUB \t\t\ttion getProfile(uint256 tokenI...\n      SWAP1 \t\t\ttion getProfile(uint256 tokenI...\n      RETURN \t\t\ttion getProfile(uint256 tokenI...\n    tag 38\t\t\tor token metadata\\n    string ...\n      JUMPDEST \t\t\tor token metadata\\n    string ...\n      PUSH [tag] 185\t\t\tor token metadata\\n    string ...\n      PUSH 4\t\t\tor token metadata\\n    string ...\n      DUP1 \t\t\tor token metadata\\n    string ...\n      CALLDATASIZE \t\t\tor token metadata\\n    string ...\n      SUB \t\t\tor token metadata\\n    string ...\n      DUP2 \t\t\tor token metadata\\n    string ...\n      ADD \t\t\tor token metadata\\n    string ...\n      SWAP1 \t\t\tor token metadata\\n    string ...\n      PUSH [tag] 186\t\t\tor token metadata\\n    string ...\n      SWAP2 \t\t\tor token metadata\\n    string ...\n      SWAP1 \t\t\tor token metadata\\n    string ...\n      PUSH [tag] 70\t\t\tor token metadata\\n    string ...\n      JUMP \t\t\tor token metadata\\n    string ...\n    tag 186\t\t\tor token metadata\\n    string ...\n      JUMPDEST \t\t\tor token metadata\\n    string ...\n      PUSH [tag] 187\t\t\tor token metadata\\n    string ...\n      JUMP \t\t\tor token metadata\\n    string ...\n    tag 185\t\t\tor token metadata\\n    string ...\n      JUMPDEST \t\t\tor token metadata\\n    string ...\n      STOP \t\t\tor token metadata\\n    string ...\n    tag 39\t\t\ttion setAllowPublicMinting(boo...\n      JUMPDEST \t\t\ttion setAllowPublicMinting(boo...\n      PUSH [tag] 188\t\t\ttion setAllowPublicMinting(boo...\n      PUSH 4\t\t\ttion setAllowPublicMinting(boo...\n      DUP1 \t\t\ttion setAllowPublicMinting(boo...\n      CALLDATASIZE \t\t\ttion setAllowPublicMinting(boo...\n      SUB \t\t\ttion setAllowPublicMinting(boo...\n      DUP2 \t\t\ttion setAllowPublicMinting(boo...\n      ADD \t\t\ttion setAllowPublicMinting(boo...\n      SWAP1 \t\t\ttion setAllowPublicMinting(boo...\n      PUSH [tag] 189\t\t\ttion setAllowPublicMinting(boo...\n      SWAP2 \t\t\ttion setAllowPublicMinting(boo...\n      SWAP1 \t\t\ttion setAllowPublicMinting(boo...\n      PUSH [tag] 84\t\t\ttion setAllowPublicMinting(boo...\n      JUMP \t\t\ttion setAllowPublicMinting(boo...\n    tag 189\t\t\ttion setAllowPublicMinting(boo...\n      JUMPDEST \t\t\ttion setAllowPublicMinting(boo...\n      PUSH [tag] 190\t\t\ttion setAllowPublicMinting(boo...\n      JUMP \t\t\ttion setAllowPublicMinting(boo...\n    tag 188\t\t\ttion setAllowPublicMinting(boo...\n      JUMPDEST \t\t\ttion setAllowPublicMinting(boo...\n      STOP \t\t\ttion setAllowPublicMinting(boo...\n    tag 40\t\t\ttion getChatDataReference(addr...\n      JUMPDEST \t\t\ttion getChatDataReference(addr...\n      PUSH [tag] 191\t\t\ttion getChatDataReference(addr...\n      PUSH 4\t\t\ttion getChatDataReference(addr...\n      DUP1 \t\t\ttion getChatDataReference(addr...\n      CALLDATASIZE \t\t\ttion getChatDataReference(addr...\n      SUB \t\t\ttion getChatDataReference(addr...\n      DUP2 \t\t\ttion getChatDataReference(addr...\n      ADD \t\t\ttion getChatDataReference(addr...\n      SWAP1 \t\t\ttion getChatDataReference(addr...\n      PUSH [tag] 192\t\t\ttion getChatDataReference(addr...\n      SWAP2 \t\t\ttion getChatDataReference(addr...\n      SWAP1 \t\t\ttion getChatDataReference(addr...\n      PUSH [tag] 70\t\t\ttion getChatDataReference(addr...\n      JUMP \t\t\ttion getChatDataReference(addr...\n    tag 192\t\t\ttion getChatDataReference(addr...\n      JUMPDEST \t\t\ttion getChatDataReference(addr...\n      PUSH [tag] 193\t\t\ttion getChatDataReference(addr...\n      JUMP \t\t\ttion getChatDataReference(addr...\n    tag 191\t\t\ttion getChatDataReference(addr...\n      JUMPDEST \t\t\ttion getChatDataReference(addr...\n      PUSH 40\t\t\ttion getChatDataReference(addr...\n      MLOAD \t\t\ttion getChatDataReference(addr...\n      PUSH [tag] 194\t\t\ttion getChatDataReference(addr...\n      SWAP2 \t\t\ttion getChatDataReference(addr...\n      SWAP1 \t\t\ttion getChatDataReference(addr...\n      PUSH [tag] 195\t\t\ttion getChatDataReference(addr...\n      JUMP \t\t\ttion getChatDataReference(addr...\n    tag 194\t\t\ttion getChatDataReference(addr...\n      JUMPDEST \t\t\ttion getChatDataReference(addr...\n      PUSH 40\t\t\ttion getChatDataReference(addr...\n      MLOAD \t\t\ttion getChatDataReference(addr...\n      DUP1 \t\t\ttion getChatDataReference(addr...\n      SWAP2 \t\t\ttion getChatDataReference(addr...\n      SUB \t\t\ttion getChatDataReference(addr...\n      SWAP1 \t\t\ttion getChatDataReference(addr...\n      RETURN \t\t\ttion getChatDataReference(addr...\n    tag 51\t\t\t (slot 1, packed)\\n        uin...\n      JUMPDEST \t\t\t (slot 1, packed)\\n        uin...\n      PUSH 0\t\t\t2 ch\n      PUSH 80AC58CD00000000000000000000000000000000000000000000000000000000\t\t\t       bytes encryptedKey\n      PUSH FFFFFFFFFFFFFFFFFFFFFFFFFFFFFFFFFFFFFFFFFFFFFFFFFFFFFFFF\t\t\tytes (slot 2)\\n        bytes e...\n      NOT \t\t\tytes (slot 2)\\n        bytes e...\n      AND \t\t\tytes (slot 2)\\n        bytes e...\n      DUP3 \t\t\tytes (slot \n      PUSH FFFFFFFFFFFFFFFFFFFFFFFFFFFFFFFFFFFFFFFFFFFFFFFFFFFFFFFF\t\t\tytes (slot 2)\\n        bytes e...\n      NOT \t\t\tytes (slot 2)\\n        bytes e...\n      AND \t\t\tytes (slot 2)\\n        bytes e...\n      EQ \t\t\tytes (slot 2)\\n        bytes e...\n      DUP1 \t\t\tytes (slot 2)\\n        bytes e...\n      PUSH [tag] 197\t\t\tytes (slot 2)\\n        bytes e...\n      JUMPI \t\t\tytes (slot 2)\\n        bytes e...\n      POP \t\t\tytes (slot 2)\\n        bytes e...\n      PUSH 5B5E139F00000000000000000000000000000000000000000000000000000000\t\t\tgth (slot 3+)\\n    }\\n\\n    //...\n      PUSH FFFFFFFFFFFFFFFFFFFFFFFFFFFFFFFFFFFFFFFFFFFFFFFFFFFFFFFF\t\t\t// Variable length (slot 3+)\\n...\n      NOT \t\t\t// Variable length (slot 3+)\\n...\n      AND \t\t\t// Variable length (slot 3+)\\n...\n      DUP3 \t\t\t// Variable\n      PUSH FFFFFFFFFFFFFFFFFFFFFFFFFFFFFFFFFFFFFFFFFFFFFFFFFFFFFFFF\t\t\t// Variable length (slot 3+)\\n...\n      NOT \t\t\t// Variable length (slot 3+)\\n...\n      AND \t\t\t// Variable length (slot 3+)\\n...\n      EQ \t\t\t// Variable length (slot 3+)\\n...\n    tag 197\t\t\tytes (slot 2)\\n        bytes e...\n      JUMPDEST \t\t\tytes (slot 2)\\n        bytes e...\n      DUP1 \t\t\tytes (slot 2)\\n        bytes e...\n      PUSH [tag] 198\t\t\tytes (slot 2)\\n        bytes e...\n      JUMPI \t\t\tytes (slot 2)\\n        bytes e...\n      POP \t\t\tytes (slot 2)\\n        bytes e...\n      PUSH [tag] 199\t\t\tto DidProfile\\n    mapping(uin...\n      DUP3 \t\t\tg(uint256 =\n      PUSH [tag] 200\t\t\tto DidProfile\\n    mappi\n      JUMP \t\t\tto DidProfile\\n    mapping(uin...\n    tag 199\t\t\tto DidProfile\\n    mapping(uin...\n      JUMPDEST \t\t\tto DidProfile\\n    mapping(uin...\n    tag 198\t\t\tytes (slot 2)\\n        bytes e...\n      JUMPDEST \t\t\tytes (slot 2)\\n        bytes e...\n      SWAP1 \t\t\tnce;        // 32 bytes (slot ...\n      POP \t\t\tnce;        // 32 bytes (slot ...\n      SWAP2 \t\t\t (slot 1, packed)\\n        uin...\n      SWAP1 \t\t\t (slot 1, packed)\\n        uin...\n      POP \t\t\t (slot 1, packed)\\n        uin...\n      JUMP \t\t\t (slot 1, packed)\\n        uin...\n    tag 55\t\t\tevokedAddresses;\\n    \\n    //...\n      JUMPDEST \t\t\tevokedAddresses;\\n    \\n    //...\n      PUSH 60\t\t\ttarts at 1)\\n \n      PUSH 0\t\t\t_toke\n      DUP1 \t\t\trivate _toke\n      SLOAD \t\t\trivate _toke\n      PUSH [tag] 202\t\t\trivate _toke\n      SWAP1 \t\t\trivate _toke\n      PUSH [tag] 203\t\t\trivate _toke\n      JUMP \t\t\trivate _toke\n    tag 202\t\t\trivate _toke\n      JUMPDEST \t\t\trivate _toke\n      DUP1 \t\t\trivate _toke\n      PUSH 1F\t\t\trivate _toke\n      ADD \t\t\trivate _toke\n      PUSH 20\t\t\trivate _toke\n      DUP1 \t\t\trivate _toke\n      SWAP2 \t\t\trivate _toke\n      DIV \t\t\trivate _toke\n      MUL \t\t\trivate _toke\n      PUSH 20\t\t\trivate _toke\n      ADD \t\t\trivate _toke\n      PUSH 40\t\t\trivate _toke\n      MLOAD \t\t\trivate _toke\n      SWAP1 \t\t\trivate _toke\n      DUP2 \t\t\trivate _toke\n      ADD \t\t\trivate _toke\n      PUSH 40\t\t\trivate _toke\n      MSTORE \t\t\trivate _toke\n      DUP1 \t\t\trivate _toke\n      SWAP3 \t\t\trivate _toke\n      SWAP2 \t\t\trivate _toke\n      SWAP1 \t\t\trivate _toke\n      DUP2 \t\t\trivate _toke\n      DUP2 \t\t\trivate _toke\n      MSTORE \t\t\trivate _toke\n      PUSH 20\t\t\trivate _toke\n      ADD \t\t\trivate _toke\n      DUP3 \t\t\trivate _toke\n      DUP1 \t\t\trivate _toke\n      SLOAD \t\t\trivate _toke\n      PUSH [tag] 204\t\t\trivate _toke\n      SWAP1 \t\t\trivate _toke\n      PUSH [tag] 203\t\t\trivate _toke\n      JUMP \t\t\trivate _toke\n    tag 204\t\t\trivate _toke\n      JUMPDEST \t\t\trivate _toke\n      DUP1 \t\t\trivate _toke\n      ISZERO \t\t\trivate _toke\n      PUSH [tag] 205\t\t\trivate _toke\n      JUMPI \t\t\trivate _toke\n      DUP1 \t\t\trivate _toke\n      PUSH 1F\t\t\trivate _toke\n      LT \t\t\trivate _toke\n      PUSH [tag] 206\t\t\trivate _toke\n      JUMPI \t\t\trivate _toke\n      PUSH 100\t\t\trivate _toke\n      DUP1 \t\t\trivate _toke\n      DUP4 \t\t\trivate _toke\n      SLOAD \t\t\trivate _toke\n      DIV \t\t\trivate _toke\n      MUL \t\t\trivate _toke\n      DUP4 \t\t\trivate _toke\n      MSTORE \t\t\trivate _toke\n      SWAP2 \t\t\trivate _toke\n      PUSH 20\t\t\trivate _toke\n      ADD \t\t\trivate _toke\n      SWAP2 \t\t\trivate _toke\n      PUSH [tag] 205\t\t\trivate _toke\n      JUMP \t\t\trivate _toke\n    tag 206\t\t\trivate _toke\n      JUMPDEST \t\t\trivate _toke\n      DUP3 \t\t\trivate _toke\n      ADD \t\t\trivate _toke\n      SWAP2 \t\t\trivate _toke\n      SWAP1 \t\t\trivate _toke\n      PUSH 0\t\t\trivate _toke\n      MSTORE \t\t\trivate _toke\n      PUSH 20\t\t\trivate _toke\n      PUSH 0\t\t\trivate _toke\n      KECCAK256 \t\t\trivate _toke\n      SWAP1 \t\t\trivate _toke\n    tag 207\t\t\trivate _toke\n      JUMPDEST \t\t\trivate _toke\n      DUP2 \t\t\trivate _toke\n      SLOAD \t\t\trivate _toke\n      DUP2 \t\t\trivate _toke\n      MSTORE \t\t\trivate _toke\n      SWAP1 \t\t\trivate _toke\n      PUSH 1\t\t\trivate _toke\n      ADD \t\t\trivate _toke\n      SWAP1 \t\t\trivate _toke\n      PUSH 20\t\t\trivate _toke\n      ADD \t\t\trivate _toke\n      DUP1 \t\t\trivate _toke\n      DUP4 \t\t\trivate _toke\n      GT \t\t\trivate _toke\n      PUSH [tag] 207\t\t\trivate _toke\n      JUMPI \t\t\trivate _toke\n      DUP3 \t\t\trivate _toke\n      SWAP1 \t\t\trivate _toke\n      SUB \t\t\trivate _toke\n      PUSH 1F\t\t\trivate _toke\n      AND \t\t\trivate _toke\n      DUP3 \t\t\trivate _toke\n      ADD \t\t\trivate _toke\n      SWAP2 \t\t\trivate _toke\n    tag 205\t\t\trivate _toke\n      JUMPDEST \t\t\trivate _toke\n      POP \t\t\trivate _toke\n      POP \t\t\trivate _toke\n      POP \t\t\trivate _toke\n      POP \t\t\trivate _toke\n      POP \t\t\trivate _toke\n      SWAP1 \t\t\trivate _toke\n      POP \t\t\trivate _toke\n      SWAP1 \t\t\tevokedAddresses;\\n    \\n    //...\n      JUMP \t\t\tevokedAddresses;\\n    \\n    //...\n    tag 61\t\t\tEmitted when backend signer is...\n      JUMPDEST \t\t\tEmitted when backend signer is...\n      PUSH 0\t\t\tnerUpda\n      PUSH [tag] 209\t\t\tindexed newSigner);\\n  \n      DUP3 \t\t\tner);\\n \n      PUSH [tag] 210\t\t\tindexed newSi\n      JUMP \t\t\tindexed newSigner);\\n  \n    tag 209\t\t\tindexed newSigner);\\n  \n      JUMPDEST \t\t\tindexed newSigner);\\n  \n      POP \t\t\tindexed newSigner);\\n  \n      PUSH [tag] 211\t\t\t@dev Emitted when pub\n      DUP3 \t\t\twhen pu\n      PUSH [tag] 212\t\t\t@dev Emitted\n      JUMP \t\t\t@dev Emitted when pub\n    tag 211\t\t\t@dev Emitted when pub\n      JUMPDEST \t\t\t@dev Emitted when pub\n      SWAP1 \t\t\t     * @dev Emitted when pub\n      POP \t\t\t     * @dev Emitted when pub\n      SWAP2 \t\t\tEmitted when backend signer is...\n      SWAP1 \t\t\tEmitted when backend signer is...\n      POP \t\t\tEmitted when backend signer is...\n      JUMP \t\t\tEmitted when backend signer is...\n    tag 67\t\t\ttion approve(address, uint256)...\n      JUMPDEST \t\t\ttion approve(address, uint256)...\n      PUSH 40\t\t\trt(\"Soulbound\");\\n  \n      MLOAD \t\t\trt(\"Soulbound\");\\n  \n      PUSH 8C379A000000000000000000000000000000000000000000000000000000000\t\t\trt(\"Soulbound\");\\n  \n      DUP2 \t\t\trt(\"Soulbound\");\\n  \n      MSTORE \t\t\trt(\"Soulbound\");\\n  \n      PUSH 4\t\t\trt(\"Soulbound\");\\n  \n      ADD \t\t\trt(\"Soulbound\");\\n  \n      PUSH [tag] 214\t\t\trt(\"Soulbound\");\\n  \n      SWAP1 \t\t\trt(\"Soulbound\");\\n  \n      PUSH [tag] 215\t\t\trt(\"Soulbound\");\\n  \n      JUMP \t\t\trt(\"Soulbound\");\\n  \n    tag 214\t\t\trt(\"Soulbound\");\\n  \n      JUMPDEST \t\t\trt(\"Soulbound\");\\n  \n      PUSH 40\t\t\trt(\"Soulbound\");\\n  \n      MLOAD \t\t\trt(\"Soulbound\");\\n  \n      DUP1 \t\t\trt(\"Soulbound\");\\n  \n      SWAP2 \t\t\trt(\"Soulbound\");\\n  \n      SUB \t\t\trt(\"Soulbound\");\\n  \n      SWAP1 \t\t\trt(\"Soulbound\");\\n  \n      REVERT \t\t\trt(\"Soulbound\");\\n  \n    tag 71\t\t\ttion getProfileByOwner(address...\n      JUMPDEST \t\t\ttion getProfileByOwner(address...\n      PUSH [tag] 216\t\t\trofile memory) {\\n\n      PUSH [tag] 217\t\t\trofile memory) {\\n\n      JUMP \t\t\trofile memory) {\\n\n    tag 216\t\t\trofile memory) {\\n\n      JUMPDEST \t\t\trofile memory) {\\n\n      PUSH A\t\t\tDid[use\n      PUSH 0\t\t\tDid[user], \"N\n      DUP4 \t\t\t], \"\n      PUSH FFFFFFFFFFFFFFFFFFFFFFFFFFFFFFFFFFFFFFFF\t\t\tDid[user], \"N\n      AND \t\t\tDid[user], \"N\n      PUSH FFFFFFFFFFFFFFFFFFFFFFFFFFFFFFFFFFFFFFFF\t\t\tDid[user], \"N\n      AND \t\t\tDid[user], \"N\n      DUP2 \t\t\tDid[user], \"N\n      MSTORE \t\t\tDid[user], \"N\n      PUSH 20\t\t\tDid[user], \"N\n      ADD \t\t\tDid[user], \"N\n      SWAP1 \t\t\tDid[user], \"N\n      DUP2 \t\t\tDid[user], \"N\n      MSTORE \t\t\tDid[user], \"N\n      PUSH 20\t\t\tDid[user], \"N\n      ADD \t\t\tDid[user], \"N\n      PUSH 0\t\t\tDid[user], \"N\n      KECCAK256 \t\t\tDid[user], \"N\n      PUSH 0\t\t\tDid[user], \"N\n      SWAP1 \t\t\tDid[user], \"N\n      SLOAD \t\t\tDid[user], \"N\n      SWAP1 \t\t\tDid[user], \"N\n      PUSH 100\t\t\tDid[user], \"N\n      EXP \t\t\tDid[user], \"N\n      SWAP1 \t\t\tDid[user], \"N\n      DIV \t\t\tDid[user], \"N\n      PUSH FF\t\t\tDid[user], \"N\n      AND \t\t\tDid[user], \"N\n      PUSH [tag] 219\t\t\tire(_hasDid[user], \"No DID\");\\...\n      JUMPI \t\t\tire(_hasDid[user], \"No DID\");\\...\n      PUSH 40\t\t\tire(_hasDid[user], \"No DID\");\\...\n      MLOAD \t\t\tire(_hasDid[user], \"No DID\");\\...\n      PUSH 8C379A000000000000000000000000000000000000000000000000000000000\t\t\tire(_hasDid[user], \"No DID\");\\...\n      DUP2 \t\t\tire(_hasDid[user], \"No DID\");\\...\n      MSTORE \t\t\tire(_hasDid[user], \"No DID\");\\...\n      PUSH 4\t\t\tire(_hasDid[user], \"No DID\");\\...\n      ADD \t\t\tire(_hasDid[user], \"No DID\");\\...\n      PUSH [tag] 220\t\t\tire(_hasDid[user], \"No DID\");\\...\n      SWAP1 \t\t\tire(_hasDid[user], \"No DID\");\\...\n      PUSH [tag] 221\t\t\tire(_hasDid[user], \"No DID\");\\...\n      JUMP \t\t\tire(_hasDid[user], \"No DID\");\\...\n    tag 220\t\t\tire(_hasDid[user], \"No DID\");\\...\n      JUMPDEST \t\t\tire(_hasDid[user], \"No DID\");\\...\n      PUSH 40\t\t\tire(_hasDid[user], \"No DID\");\\...\n      MLOAD \t\t\tire(_hasDid[user], \"No DID\");\\...\n      DUP1 \t\t\tire(_hasDid[user], \"No DID\");\\...\n      SWAP2 \t\t\tire(_hasDid[user], \"No DID\");\\...\n      SUB \t\t\tire(_hasDid[user], \"No DID\");\\...\n      SWAP1 \t\t\tire(_hasDid[user], \"No DID\");\\...\n      REVERT \t\t\tire(_hasDid[user], \"No DID\");\\...\n    tag 219\t\t\tire(_hasDid[user], \"No DID\");\\...\n      JUMPDEST \t\t\tire(_hasDid[user], \"No DID\");\\...\n      PUSH 0\t\t\t256 tokenId = _\n      PUSH 9\t\t\terToTokenId[use\n      PUSH 0\t\t\terToTokenId[user];\\n  \n      DUP5 \t\t\t];\\n \n      PUSH FFFFFFFFFFFFFFFFFFFFFFFFFFFFFFFFFFFFFFFF\t\t\terToTokenId[user];\\n  \n      AND \t\t\terToTokenId[user];\\n  \n      PUSH FFFFFFFFFFFFFFFFFFFFFFFFFFFFFFFFFFFFFFFF\t\t\terToTokenId[user];\\n  \n      AND \t\t\terToTokenId[user];\\n  \n      DUP2 \t\t\terToTokenId[user];\\n  \n      MSTORE \t\t\terToTokenId[user];\\n  \n      PUSH 20\t\t\terToTokenId[user];\\n  \n      ADD \t\t\terToTokenId[user];\\n  \n      SWAP1 \t\t\terToTokenId[user];\\n  \n      DUP2 \t\t\terToTokenId[user];\\n  \n      MSTORE \t\t\terToTokenId[user];\\n  \n      PUSH 20\t\t\terToTokenId[user];\\n  \n      ADD \t\t\terToTokenId[user];\\n  \n      PUSH 0\t\t\terToTokenId[user];\\n  \n      KECCAK256 \t\t\terToTokenId[user];\\n  \n      SLOAD \t\t\terToTokenId[user];\\n  \n      SWAP1 \t\t\t256 tokenId = _ownerToTokenId[...\n      POP \t\t\t256 tokenId = _ownerToTokenId[...\n      PUSH 8\t\t\tenProfiles[tok\n      PUSH 0\t\t\tenProfiles[tokenId];\\n  \n      DUP3 \t\t\tnId];\\n \n      DUP2 \t\t\tenProfiles[tokenId];\\n  \n      MSTORE \t\t\tenProfiles[tokenId];\\n  \n      PUSH 20\t\t\tenProfiles[tokenId];\\n  \n      ADD \t\t\tenProfiles[tokenId];\\n  \n      SWAP1 \t\t\tenProfiles[tokenId];\\n  \n      DUP2 \t\t\tenProfiles[tokenId];\\n  \n      MSTORE \t\t\tenProfiles[tokenId];\\n  \n      PUSH 20\t\t\tenProfiles[tokenId];\\n  \n      ADD \t\t\tenProfiles[tokenId];\\n  \n      PUSH 0\t\t\tenProfiles[tokenId];\\n  \n      KECCAK256 \t\t\tenProfiles[tokenId];\\n  \n      PUSH 40\t\t\trn _tokenProfiles[tokenId];\\n ...\n      MLOAD \t\t\trn _tokenProfiles[tokenId];\\n ...\n      DUP1 \t\t\trn _tokenProfiles[tokenId];\\n ...\n      PUSH A0\t\t\trn _tokenProfiles[tokenId];\\n ...\n      ADD \t\t\trn _tokenProfiles[tokenId];\\n ...\n      PUSH 40\t\t\trn _tokenProfiles[tokenId];\\n ...\n      MSTORE \t\t\trn _tokenProfiles[tokenId];\\n ...\n      SWAP1 \t\t\trn _tokenProfiles[tokenId];\\n ...\n      DUP2 \t\t\trn _tokenProfiles[tokenId];\\n ...\n      PUSH 0\t\t\trn _tokenProfiles[tokenId];\\n ...\n      DUP3 \t\t\trn _tokenProfiles[tokenId];\\n ...\n      ADD \t\t\trn _tokenProfiles[tokenId];\\n ...\n      PUSH 0\t\t\trn _tokenProfiles[tokenId];\\n ...\n      SWAP1 \t\t\trn _tokenProfiles[tokenId];\\n ...\n      SLOAD \t\t\trn _tokenProfiles[tokenId];\\n ...\n      SWAP1 \t\t\trn _tokenProfiles[tokenId];\\n ...\n      PUSH 100\t\t\trn _tokenProfiles[tokenId];\\n ...\n      EXP \t\t\trn _tokenProfiles[tokenId];\\n ...\n      SWAP1 \t\t\trn _tokenProfiles[tokenId];\\n ...\n      DIV \t\t\trn _tokenProfiles[tokenId];\\n ...\n      PUSH FFFFFFFFFFFFFFFFFFFFFFFFFFFFFFFFFFFFFFFF\t\t\trn _tokenProfiles[tokenId];\\n ...\n      AND \t\t\trn _tokenProfiles[tokenId];\\n ...\n      PUSH FFFFFFFFFFFFFFFFFFFFFFFFFFFFFFFFFFFFFFFF\t\t\trn _tokenProfiles[tokenId];\\n ...\n      AND \t\t\trn _tokenProfiles[tokenId];\\n ...\n      PUSH FFFFFFFFFFFFFFFFFFFFFFFFFFFFFFFFFFFFFFFF\t\t\trn _tokenProfiles[tokenId];\\n ...\n      AND \t\t\trn _tokenProfiles[tokenId];\\n ...\n      DUP2 \t\t\trn _tokenProfiles[tokenId];\\n ...\n      MSTORE \t\t\trn _tokenProfiles[tokenId];\\n ...\n      PUSH 20\t\t\trn _tokenProfiles[tokenId];\\n ...\n      ADD \t\t\trn _tokenProfiles[tokenId];\\n ...\n      PUSH 0\t\t\trn _tokenProfiles[tokenId];\\n ...\n      DUP3 \t\t\trn _tokenProfiles[tokenId];\\n ...\n      ADD \t\t\trn _tokenProfiles[tokenId];\\n ...\n      PUSH 14\t\t\trn _tokenProfiles[tokenId];\\n ...\n      SWAP1 \t\t\trn _tokenProfiles[tokenId];\\n ...\n      SLOAD \t\t\trn _tokenProfiles[tokenId];\\n ...\n      SWAP1 \t\t\trn _tokenProfiles[tokenId];\\n ...\n      PUSH 100\t\t\trn _tokenProfiles[tokenId];\\n ...\n      EXP \t\t\trn _tokenProfiles[tokenId];\\n ...\n      SWAP1 \t\t\trn _tokenProfiles[tokenId];\\n ...\n      DIV \t\t\trn _tokenProfiles[tokenId];\\n ...\n      PUSH FFFFFFFFFFFFFFFF\t\t\trn _tokenProfiles[tokenId];\\n ...\n      AND \t\t\trn _tokenProfiles[tokenId];\\n ...\n      PUSH FFFFFFFFFFFFFFFF\t\t\trn _tokenProfiles[tokenId];\\n ...\n      AND \t\t\trn _tokenProfiles[tokenId];\\n ...\n      PUSH FFFFFFFFFFFFFFFF\t\t\trn _tokenProfiles[tokenId];\\n ...\n      AND \t\t\trn _tokenProfiles[tokenId];\\n ...\n      DUP2 \t\t\trn _tokenProfiles[tokenId];\\n ...\n      MSTORE \t\t\trn _tokenProfiles[tokenId];\\n ...\n      PUSH 20\t\t\trn _tokenProfiles[tokenId];\\n ...\n      ADD \t\t\trn _tokenProfiles[tokenId];\\n ...\n      PUSH 1\t\t\trn _tokenProfiles[tokenId];\\n ...\n      DUP3 \t\t\trn _tokenProfiles[tokenId];\\n ...\n      ADD \t\t\trn _tokenProfiles[tokenId];\\n ...\n      PUSH 0\t\t\trn _tokenProfiles[tokenId];\\n ...\n      SWAP1 \t\t\trn _tokenProfiles[tokenId];\\n ...\n      SLOAD \t\t\trn _tokenProfiles[tokenId];\\n ...\n      SWAP1 \t\t\trn _tokenProfiles[tokenId];\\n ...\n      PUSH 100\t\t\trn _tokenProfiles[tokenId];\\n ...\n      EXP \t\t\trn _tokenProfiles[tokenId];\\n ...\n      SWAP1 \t\t\trn _tokenProfiles[tokenId];\\n ...\n      DIV \t\t\trn _tokenProfiles[tokenId];\\n ...\n      PUSH FFFFFFFFFFFFFFFF\t\t\trn _tokenProfiles[tokenId];\\n ...\n      AND \t\t\trn _tokenProfiles[tokenId];\\n ...\n      PUSH FFFFFFFFFFFFFFFF\t\t\trn _tokenProfiles[tokenId];\\n ...\n      AND \t\t\trn _tokenProfiles[tokenId];\\n ...\n      PUSH FFFFFFFFFFFFFFFF\t\t\trn _tokenProfiles[tokenId];\\n ...\n      AND \t\t\trn _tokenProfiles[tokenId];\\n ...\n      DUP2 \t\t\trn _tokenProfiles[tokenId];\\n ...\n      MSTORE \t\t\trn _tokenProfiles[tokenId];\\n ...\n      PUSH 20\t\t\trn _tokenProfiles[tokenId];\\n ...\n      ADD \t\t\trn _tokenProfiles[tokenId];\\n ...\n      PUSH 2\t\t\trn _tokenProfiles[tokenId];\\n ...\n      DUP3 \t\t\trn _tokenProfiles[tokenId];\\n ...\n      ADD \t\t\trn _tokenProfiles[tokenId];\\n ...\n      SLOAD \t\t\trn _tokenProfiles[tokenId];\\n ...\n      DUP2 \t\t\trn _tokenProfiles[tokenId];\\n ...\n      MSTORE \t\t\trn _tokenProfiles[tokenId];\\n ...\n      PUSH 20\t\t\trn _tokenProfiles[tokenId];\\n ...\n      ADD \t\t\trn _tokenProfiles[tokenId];\\n ...\n      PUSH 3\t\t\trn _tokenProfiles[tokenId];\\n ...\n      DUP3 \t\t\trn _tokenProfiles[tokenId];\\n ...\n      ADD \t\t\trn _tokenProfiles[tokenId];\\n ...\n      DUP1 \t\t\trn _tokenProfiles[tokenId];\\n ...\n      SLOAD \t\t\trn _tokenProfiles[tokenId];\\n ...\n      PUSH [tag] 222\t\t\trn _tokenProfiles[tokenId];\\n ...\n      SWAP1 \t\t\trn _tokenProfiles[tokenId];\\n ...\n      PUSH [tag] 203\t\t\trn _tokenProfiles[tokenId];\\n ...\n      JUMP \t\t\trn _tokenProfiles[tokenId];\\n ...\n    tag 222\t\t\trn _tokenProfiles[tokenId];\\n ...\n      JUMPDEST \t\t\trn _tokenProfiles[tokenId];\\n ...\n      DUP1 \t\t\trn _tokenProfiles[tokenId];\\n ...\n      PUSH 1F\t\t\trn _tokenProfiles[tokenId];\\n ...\n      ADD \t\t\trn _tokenProfiles[tokenId];\\n ...\n      PUSH 20\t\t\trn _tokenProfiles[tokenId];\\n ...\n      DUP1 \t\t\trn _tokenProfiles[tokenId];\\n ...\n      SWAP2 \t\t\trn _tokenProfiles[tokenId];\\n ...\n      DIV \t\t\trn _tokenProfiles[tokenId];\\n ...\n      MUL \t\t\trn _tokenProfiles[tokenId];\\n ...\n      PUSH 20\t\t\trn _tokenProfiles[tokenId];\\n ...\n      ADD \t\t\trn _tokenProfiles[tokenId];\\n ...\n      PUSH 40\t\t\trn _tokenProfiles[tokenId];\\n ...\n      MLOAD \t\t\trn _tokenProfiles[tokenId];\\n ...\n      SWAP1 \t\t\trn _tokenProfiles[tokenId];\\n ...\n      DUP2 \t\t\trn _tokenProfiles[tokenId];\\n ...\n      ADD \t\t\trn _tokenProfiles[tokenId];\\n ...\n      PUSH 40\t\t\trn _tokenProfiles[tokenId];\\n ...\n      MSTORE \t\t\trn _tokenProfiles[tokenId];\\n ...\n      DUP1 \t\t\trn _tokenProfiles[tokenId];\\n ...\n      SWAP3 \t\t\trn _tokenProfiles[tokenId];\\n ...\n      SWAP2 \t\t\trn _tokenProfiles[tokenId];\\n ...\n      SWAP1 \t\t\trn _tokenProfiles[tokenId];\\n ...\n      DUP2 \t\t\trn _tokenProfiles[tokenId];\\n ...\n      DUP2 \t\t\trn _tokenProfiles[tokenId];\\n ...\n      MSTORE \t\t\trn _tokenProfiles[tokenId];\\n ...\n      PUSH 20\t\t\trn _tokenProfiles[tokenId];\\n ...\n      ADD \t\t\trn _tokenProfiles[tokenId];\\n ...\n      DUP3 \t\t\trn _tokenProfiles[tokenId];\\n ...\n      DUP1 \t\t\trn _tokenProfiles[tokenId];\\n ...\n      SLOAD \t\t\trn _tokenProfiles[tokenId];\\n ...\n      PUSH [tag] 223\t\t\trn _tokenProfiles[tokenId];\\n ...\n      SWAP1 \t\t\trn _tokenProfiles[tokenId];\\n ...\n      PUSH [tag] 203\t\t\trn _tokenProfiles[tokenId];\\n ...\n      JUMP \t\t\trn _tokenProfiles[tokenId];\\n ...\n    tag 223\t\t\trn _tokenProfiles[tokenId];\\n ...\n      JUMPDEST \t\t\trn _tokenProfiles[tokenId];\\n ...\n      DUP1 \t\t\trn _tokenProfiles[tokenId];\\n ...\n      ISZERO \t\t\trn _tokenProfiles[tokenId];\\n ...\n      PUSH [tag] 224\t\t\trn _tokenProfiles[tokenId];\\n ...\n      JUMPI \t\t\trn _tokenProfiles[tokenId];\\n ...\n      DUP1 \t\t\trn _tokenProfiles[tokenId];\\n ...\n      PUSH 1F\t\t\trn _tokenProfiles[tokenId];\\n ...\n      LT \t\t\trn _tokenProfiles[tokenId];\\n ...\n      PUSH [tag] 225\t\t\trn _tokenProfiles[tokenId];\\n ...\n      JUMPI \t\t\trn _tokenProfiles[tokenId];\\n ...\n      PUSH 100\t\t\trn _tokenProfiles[tokenId];\\n ...\n      DUP1 \t\t\trn _tokenProfiles[tokenId];\\n ...\n      DUP4 \t\t\trn _tokenProfiles[tokenId];\\n ...\n      SLOAD \t\t\trn _tokenProfiles[tokenId];\\n ...\n      DIV \t\t\trn _tokenProfiles[tokenId];\\n ...\n      MUL \t\t\trn _tokenProfiles[tokenId];\\n ...\n      DUP4 \t\t\trn _tokenProfiles[tokenId];\\n ...\n      MSTORE \t\t\trn _tokenProfiles[tokenId];\\n ...\n      SWAP2 \t\t\trn _tokenProfiles[tokenId];\\n ...\n      PUSH 20\t\t\trn _tokenProfiles[tokenId];\\n ...\n      ADD \t\t\trn _tokenProfiles[tokenId];\\n ...\n      SWAP2 \t\t\trn _tokenProfiles[tokenId];\\n ...\n      PUSH [tag] 224\t\t\trn _tokenProfiles[tokenId];\\n ...\n      JUMP \t\t\trn _tokenProfiles[tokenId];\\n ...\n    tag 225\t\t\trn _tokenProfiles[tokenId];\\n ...\n      JUMPDEST \t\t\trn _tokenProfiles[tokenId];\\n ...\n      DUP3 \t\t\trn _tokenProfiles[tokenId];\\n ...\n      ADD \t\t\trn _tokenProfiles[tokenId];\\n ...\n      SWAP2 \t\t\trn _tokenProfiles[tokenId];\\n ...\n      SWAP1 \t\t\trn _tokenProfiles[tokenId];\\n ...\n      PUSH 0\t\t\trn _tokenProfiles[tokenId];\\n ...\n      MSTORE \t\t\trn _tokenProfiles[tokenId];\\n ...\n      PUSH 20\t\t\trn _tokenProfiles[tokenId];\\n ...\n      PUSH 0\t\t\trn _tokenProfiles[tokenId];\\n ...\n      KECCAK256 \t\t\trn _tokenProfiles[tokenId];\\n ...\n      SWAP1 \t\t\trn _tokenProfiles[tokenId];\\n ...\n    tag 226\t\t\trn _tokenProfiles[tokenId];\\n ...\n      JUMPDEST \t\t\trn _tokenProfiles[tokenId];\\n ...\n      DUP2 \t\t\trn _tokenProfiles[tokenId];\\n ...\n      SLOAD \t\t\trn _tokenProfiles[tokenId];\\n ...\n      DUP2 \t\t\trn _tokenProfiles[tokenId];\\n ...\n      MSTORE \t\t\trn _tokenProfiles[tokenId];\\n ...\n      SWAP1 \t\t\trn _tokenProfiles[tokenId];\\n ...\n      PUSH 1\t\t\trn _tokenProfiles[tokenId];\\n ...\n      ADD \t\t\trn _tokenProfiles[tokenId];\\n ...\n      SWAP1 \t\t\trn _tokenProfiles[tokenId];\\n ...\n      PUSH 20\t\t\trn _tokenProfiles[tokenId];\\n ...\n      ADD \t\t\trn _tokenProfiles[tokenId];\\n ...\n      DUP1 \t\t\trn _tokenProfiles[tokenId];\\n ...\n      DUP4 \t\t\trn _tokenProfiles[tokenId];\\n ...\n      GT \t\t\trn _tokenProfiles[tokenId];\\n ...\n      PUSH [tag] 226\t\t\trn _tokenProfiles[tokenId];\\n ...\n      JUMPI \t\t\trn _tokenProfiles[tokenId];\\n ...\n      DUP3 \t\t\trn _tokenProfiles[tokenId];\\n ...\n      SWAP1 \t\t\trn _tokenProfiles[tokenId];\\n ...\n      SUB \t\t\trn _tokenProfiles[tokenId];\\n ...\n      PUSH 1F\t\t\trn _tokenProfiles[tokenId];\\n ...\n      AND \t\t\trn _tokenProfiles[tokenId];\\n ...\n      DUP3 \t\t\trn _tokenProfiles[tokenId];\\n ...\n      ADD \t\t\trn _tokenProfiles[tokenId];\\n ...\n      SWAP2 \t\t\trn _tokenProfiles[tokenId];\\n ...\n    tag 224\t\t\trn _tokenProfiles[tokenId];\\n ...\n      JUMPDEST \t\t\trn _tokenProfiles[tokenId];\\n ...\n      POP \t\t\trn _tokenProfiles[tokenId];\\n ...\n      POP \t\t\trn _tokenProfiles[tokenId];\\n ...\n      POP \t\t\trn _tokenProfiles[tokenId];\\n ...\n      POP \t\t\trn _tokenProfiles[tokenId];\\n ...\n      POP \t\t\trn _tokenProfiles[tokenId];\\n ...\n      DUP2 \t\t\trn _tokenProfiles[tokenId];\\n ...\n      MSTORE \t\t\trn _tokenProfiles[tokenId];\\n ...\n      POP \t\t\trn _tokenProfiles[tokenId];\\n ...\n      POP \t\t\trn _tokenProfiles[tokenId];\\n ...\n      SWAP2 \t\t\trn _tokenProfiles[tokenId];\\n ...\n      POP \t\t\trn _tokenProfiles[tokenId];\\n ...\n      POP \t\t\trn _tokenProfiles[tokenId];\\n ...\n      SWAP2 \t\t\ttion getProfileByOwner(address...\n      SWAP1 \t\t\ttion getProfileByOwner(address...\n      POP \t\t\ttion getProfileByOwner(address...\n      JUMP \t\t\ttion getProfileByOwner(address...\n    tag 77\t\t\ttion updateChatDataReference(\\...\n      JUMPDEST \t\t\ttion updateChatDataReference(\\...\n      CALLER \t\t\tsender) no\n      PUSH A\t\t\tDid[use\n      PUSH 0\t\t\tDid[user], \"N\n      DUP3 \t\t\t], \"\n      PUSH FFFFFFFFFFFFFFFFFFFFFFFFFFFFFFFFFFFFFFFF\t\t\tDid[user], \"N\n      AND \t\t\tDid[user], \"N\n      PUSH FFFFFFFFFFFFFFFFFFFFFFFFFFFFFFFFFFFFFFFF\t\t\tDid[user], \"N\n      AND \t\t\tDid[user], \"N\n      DUP2 \t\t\tDid[user], \"N\n      MSTORE \t\t\tDid[user], \"N\n      PUSH 20\t\t\tDid[user], \"N\n      ADD \t\t\tDid[user], \"N\n      SWAP1 \t\t\tDid[user], \"N\n      DUP2 \t\t\tDid[user], \"N\n      MSTORE \t\t\tDid[user], \"N\n      PUSH 20\t\t\tDid[user], \"N\n      ADD \t\t\tDid[user], \"N\n      PUSH 0\t\t\tDid[user], \"N\n      KECCAK256 \t\t\tDid[user], \"N\n      PUSH 0\t\t\tDid[user], \"N\n      SWAP1 \t\t\tDid[user], \"N\n      SLOAD \t\t\tDid[user], \"N\n      SWAP1 \t\t\tDid[user], \"N\n      PUSH 100\t\t\tDid[user], \"N\n      EXP \t\t\tDid[user], \"N\n      SWAP1 \t\t\tDid[user], \"N\n      DIV \t\t\tDid[user], \"N\n      PUSH FF\t\t\tDid[user], \"N\n      AND \t\t\tDid[user], \"N\n      PUSH [tag] 228\t\t\tire(_hasDid[user], \"No DID\");\\...\n      JUMPI \t\t\tire(_hasDid[user], \"No DID\");\\...\n      PUSH 40\t\t\tire(_hasDid[user], \"No DID\");\\...\n      MLOAD \t\t\tire(_hasDid[user], \"No DID\");\\...\n      PUSH 8C379A000000000000000000000000000000000000000000000000000000000\t\t\tire(_hasDid[user], \"No DID\");\\...\n      DUP2 \t\t\tire(_hasDid[user], \"No DID\");\\...\n      MSTORE \t\t\tire(_hasDid[user], \"No DID\");\\...\n      PUSH 4\t\t\tire(_hasDid[user], \"No DID\");\\...\n      ADD \t\t\tire(_hasDid[user], \"No DID\");\\...\n      PUSH [tag] 229\t\t\tire(_hasDid[user], \"No DID\");\\...\n      SWAP1 \t\t\tire(_hasDid[user], \"No DID\");\\...\n      PUSH [tag] 221\t\t\tire(_hasDid[user], \"No DID\");\\...\n      JUMP \t\t\tire(_hasDid[user], \"No DID\");\\...\n    tag 229\t\t\tire(_hasDid[user], \"No DID\");\\...\n      JUMPDEST \t\t\tire(_hasDid[user], \"No DID\");\\...\n      PUSH 40\t\t\tire(_hasDid[user], \"No DID\");\\...\n      MLOAD \t\t\tire(_hasDid[user], \"No DID\");\\...\n      DUP1 \t\t\tire(_hasDid[user], \"No DID\");\\...\n      SWAP2 \t\t\tire(_hasDid[user], \"No DID\");\\...\n      SUB \t\t\tire(_hasDid[user], \"No DID\");\\...\n      SWAP1 \t\t\tire(_hasDid[user], \"No DID\");\\...\n      REVERT \t\t\tire(_hasDid[user], \"No DID\");\\...\n    tag 228\t\t\tire(_hasDid[user], \"No DID\");\\...\n      JUMPDEST \t\t\tire(_hasDid[user], \"No DID\");\\...\n      DUP1 \t\t\t, \"N\n      PUSH FFFFFFFFFFFFFFFFFFFFFFFFFFFFFFFFFFFFFFFF\t\t\tsender == user, \"N\n      AND \t\t\tsender == user, \"N\n      CALLER \t\t\tsender == \n      PUSH FFFFFFFFFFFFFFFFFFFFFFFFFFFFFFFFFFFFFFFF\t\t\tsender == user, \"N\n      AND \t\t\tsender == user, \"N\n      EQ \t\t\tsender == user, \"N\n      PUSH [tag] 230\t\t\tire(msg.sender == user, \"Not o...\n      JUMPI \t\t\tire(msg.sender == user, \"Not o...\n      PUSH 40\t\t\tire(msg.sender == user, \"Not o...\n      MLOAD \t\t\tire(msg.sender == user, \"Not o...\n      PUSH 8C379A000000000000000000000000000000000000000000000000000000000\t\t\tire(msg.sender == user, \"Not o...\n      DUP2 \t\t\tire(msg.sender == user, \"Not o...\n      MSTORE \t\t\tire(msg.sender == user, \"Not o...\n      PUSH 4\t\t\tire(msg.sender == user, \"Not o...\n      ADD \t\t\tire(msg.sender == user, \"Not o...\n      PUSH [tag] 231\t\t\tire(msg.sender == user, \"Not o...\n      SWAP1 \t\t\tire(msg.sender == user, \"Not o...\n      PUSH [tag] 232\t\t\tire(msg.sender == user, \"Not o...\n      JUMP \t\t\tire(msg.sender == user, \"Not o...\n    tag 231\t\t\tire(msg.sender == user, \"Not o...\n      JUMPDEST \t\t\tire(msg.sender == user, \"Not o...\n      PUSH 40\t\t\tire(msg.sender == user, \"Not o...\n      MLOAD \t\t\tire(msg.sender == user, \"Not o...\n      DUP1 \t\t\tire(msg.sender == user, \"Not o...\n      SWAP2 \t\t\tire(msg.sender == user, \"Not o...\n      SUB \t\t\tire(msg.sender == user, \"Not o...\n      SWAP1 \t\t\tire(msg.sender == user, \"Not o...\n      REVERT \t\t\tire(msg.sender == user, \"Not o...\n    tag 230\t\t\tire(msg.sender == user, \"Not o...\n      JUMPDEST \t\t\tire(msg.sender == user, \"Not o...\n      CALLER \t\t\tsender) no\n      PUSH A\t\t\tDid[use\n      PUSH 0\t\t\tDid[user], \"N\n      DUP3 \t\t\t], \"\n      PUSH FFFFFFFFFFFFFFFFFFFFFFFFFFFFFFFFFFFFFFFF\t\t\tDid[user], \"N\n      AND \t\t\tDid[user], \"N\n      PUSH FFFFFFFFFFFFFFFFFFFFFFFFFFFFFFFFFFFFFFFF\t\t\tDid[user], \"N\n      AND \t\t\tDid[user], \"N\n      DUP2 \t\t\tDid[user], \"N\n      MSTORE \t\t\tDid[user], \"N\n      PUSH 20\t\t\tDid[user], \"N\n      ADD \t\t\tDid[user], \"N\n      SWAP1 \t\t\tDid[user], \"N\n      DUP2 \t\t\tDid[user], \"N\n      MSTORE \t\t\tDid[user], \"N\n      PUSH 20\t\t\tDid[user], \"N\n      ADD \t\t\tDid[user], \"N\n      PUSH 0\t\t\tDid[user], \"N\n      KECCAK256 \t\t\tDid[user], \"N\n      PUSH 0\t\t\tDid[user], \"N\n      SWAP1 \t\t\tDid[user], \"N\n      SLOAD \t\t\tDid[user], \"N\n      SWAP1 \t\t\tDid[user], \"N\n      PUSH 100\t\t\tDid[user], \"N\n      EXP \t\t\tDid[user], \"N\n      SWAP1 \t\t\tDid[user], \"N\n      DIV \t\t\tDid[user], \"N\n      PUSH FF\t\t\tDid[user], \"N\n      AND \t\t\tDid[user], \"N\n      PUSH [tag] 234\t\t\tire(_hasDid[user], \"No DID\");\\...\n      JUMPI \t\t\tire(_hasDid[user], \"No DID\");\\...\n      PUSH 40\t\t\tire(_hasDid[user], \"No DID\");\\...\n      MLOAD \t\t\tire(_hasDid[user], \"No DID\");\\...\n      PUSH 8C379A000000000000000000000000000000000000000000000000000000000\t\t\tire(_hasDid[user], \"No DID\");\\...\n      DUP2 \t\t\tire(_hasDid[user], \"No DID\");\\...\n      MSTORE \t\t\tire(_hasDid[user], \"No DID\");\\...\n      PUSH 4\t\t\tire(_hasDid[user], \"No DID\");\\...\n      ADD \t\t\tire(_hasDid[user], \"No DID\");\\...\n      PUSH [tag] 235\t\t\tire(_hasDid[user], \"No DID\");\\...\n      SWAP1 \t\t\tire(_hasDid[user], \"No DID\");\\...\n      PUSH [tag] 221\t\t\tire(_hasDid[user], \"No DID\");\\...\n      JUMP \t\t\tire(_hasDid[user], \"No DID\");\\...\n    tag 235\t\t\tire(_hasDid[user], \"No DID\");\\...\n      JUMPDEST \t\t\tire(_hasDid[user], \"No DID\");\\...\n      PUSH 40\t\t\tire(_hasDid[user], \"No DID\");\\...\n      MLOAD \t\t\tire(_hasDid[user], \"No DID\");\\...\n      DUP1 \t\t\tire(_hasDid[user], \"No DID\");\\...\n      SWAP2 \t\t\tire(_hasDid[user], \"No DID\");\\...\n      SUB \t\t\tire(_hasDid[user], \"No DID\");\\...\n      SWAP1 \t\t\tire(_hasDid[user], \"No DID\");\\...\n      REVERT \t\t\tire(_hasDid[user], \"No DID\");\\...\n    tag 234\t\t\tire(_hasDid[user], \"No DID\");\\...\n      JUMPDEST \t\t\tire(_hasDid[user], \"No DID\");\\...\n      PUSH 0\t\t\t256 tokenId = _\n      PUSH 9\t\t\terToTokenId[use\n      PUSH 0\t\t\terToTokenId[user];\\n  \n      DUP4 \t\t\t];\\n \n      PUSH FFFFFFFFFFFFFFFFFFFFFFFFFFFFFFFFFFFFFFFF\t\t\terToTokenId[user];\\n  \n      AND \t\t\terToTokenId[user];\\n  \n      PUSH FFFFFFFFFFFFFFFFFFFFFFFFFFFFFFFFFFFFFFFF\t\t\terToTokenId[user];\\n  \n      AND \t\t\terToTokenId[user];\\n  \n      DUP2 \t\t\terToTokenId[user];\\n  \n      MSTORE \t\t\terToTokenId[user];\\n  \n      PUSH 20\t\t\terToTokenId[user];\\n  \n      ADD \t\t\terToTokenId[user];\\n  \n      SWAP1 \t\t\terToTokenId[user];\\n  \n      DUP2 \t\t\terToTokenId[user];\\n  \n      MSTORE \t\t\terToTokenId[user];\\n  \n      PUSH 20\t\t\terToTokenId[user];\\n  \n      ADD \t\t\terToTokenId[user];\\n  \n      PUSH 0\t\t\terToTokenId[user];\\n  \n      KECCAK256 \t\t\terToTokenId[user];\\n  \n      SLOAD \t\t\terToTokenId[user];\\n  \n      SWAP1 \t\t\t256 tokenId = _ownerToTokenId[...\n      POP \t\t\t256 tokenId = _ownerToTokenId[...\n      PUSH B\t\t\tokedTokens[tok\n      PUSH 0\t\t\tokedTokens[tokenId], \"R\n      DUP3 \t\t\tnId], \"\n      DUP2 \t\t\tokedTokens[tokenId], \"R\n      MSTORE \t\t\tokedTokens[tokenId], \"R\n      PUSH 20\t\t\tokedTokens[tokenId], \"R\n      ADD \t\t\tokedTokens[tokenId], \"R\n      SWAP1 \t\t\tokedTokens[tokenId], \"R\n      DUP2 \t\t\tokedTokens[tokenId], \"R\n      MSTORE \t\t\tokedTokens[tokenId], \"R\n      PUSH 20\t\t\tokedTokens[tokenId], \"R\n      ADD \t\t\tokedTokens[tokenId], \"R\n      PUSH 0\t\t\tokedTokens[tokenId], \"R\n      KECCAK256 \t\t\tokedTokens[tokenId], \"R\n      PUSH 0\t\t\tokedTokens[tokenId], \"R\n      SWAP1 \t\t\tokedTokens[tokenId], \"R\n      SLOAD \t\t\tokedTokens[tokenId], \"R\n      SWAP1 \t\t\tokedTokens[tokenId], \"R\n      PUSH 100\t\t\tokedTokens[tokenId], \"R\n      EXP \t\t\tokedTokens[tokenId], \"R\n      SWAP1 \t\t\tokedTokens[tokenId], \"R\n      DIV \t\t\tokedTokens[tokenId], \"R\n      PUSH FF\t\t\tokedTokens[tokenId], \"R\n      AND \t\t\tokedTokens[tokenId], \"R\n      ISZERO \t\t\tvokedTokens[tokenId], \"R\n      PUSH [tag] 236\t\t\tire(!_revokedTokens[tokenId], ...\n      JUMPI \t\t\tire(!_revokedTokens[tokenId], ...\n      PUSH 40\t\t\tire(!_revokedTokens[tokenId], ...\n      MLOAD \t\t\tire(!_revokedTokens[tokenId], ...\n      PUSH 8C379A000000000000000000000000000000000000000000000000000000000\t\t\tire(!_revokedTokens[tokenId], ...\n      DUP2 \t\t\tire(!_revokedTokens[tokenId], ...\n      MSTORE \t\t\tire(!_revokedTokens[tokenId], ...\n      PUSH 4\t\t\tire(!_revokedTokens[tokenId], ...\n      ADD \t\t\tire(!_revokedTokens[tokenId], ...\n      PUSH [tag] 237\t\t\tire(!_revokedTokens[tokenId], ...\n      SWAP1 \t\t\tire(!_revokedTokens[tokenId], ...\n      PUSH [tag] 238\t\t\tire(!_revokedTokens[tokenId], ...\n      JUMP \t\t\tire(!_revokedTokens[tokenId], ...\n    tag 237\t\t\tire(!_revokedTokens[tokenId], ...\n      JUMPDEST \t\t\tire(!_revokedTokens[tokenId], ...\n      PUSH 40\t\t\tire(!_revokedTokens[tokenId], ...\n      MLOAD \t\t\tire(!_revokedTokens[tokenId], ...\n      DUP1 \t\t\tire(!_revokedTokens[tokenId], ...\n      SWAP2 \t\t\tire(!_revokedTokens[tokenId], ...\n      SUB \t\t\tire(!_revokedTokens[tokenId], ...\n      SWAP1 \t\t\tire(!_revokedTokens[tokenId], ...\n      REVERT \t\t\tire(!_revokedTokens[tokenId], ...\n    tag 236\t\t\tire(!_revokedTokens[tokenId], ...\n      JUMPDEST \t\t\tire(!_revokedTokens[tokenId], ...\n      PUSH [tag] 240\t\t\t allowPublicMinting;\\n\n      PUSH [tag] 241\t\t\t allowPublicMinting\n      JUMP \t\t\t allowPublicMinting;\\n\n    tag 240\t\t\t allowPublicMinting;\\n\n      JUMPDEST \t\t\t allowPublicMinting;\\n\n      PUSH 0\t\t\t256 tokenId = _\n      PUSH 9\t\t\terToTokenId[msg\n      PUSH 0\t\t\terToTokenId[msg.sender];\\n  \n      CALLER \t\t\tsender];\\n \n      PUSH FFFFFFFFFFFFFFFFFFFFFFFFFFFFFFFFFFFFFFFF\t\t\terToTokenId[msg.sender];\\n  \n      AND \t\t\terToTokenId[msg.sender];\\n  \n      PUSH FFFFFFFFFFFFFFFFFFFFFFFFFFFFFFFFFFFFFFFF\t\t\terToTokenId[msg.sender];\\n  \n      AND \t\t\terToTokenId[msg.sender];\\n  \n      DUP2 \t\t\terToTokenId[msg.sender];\\n  \n      MSTORE \t\t\terToTokenId[msg.sender];\\n  \n      PUSH 20\t\t\terToTokenId[msg.sender];\\n  \n      ADD \t\t\terToTokenId[msg.sender];\\n  \n      SWAP1 \t\t\terToTokenId[msg.sender];\\n  \n      DUP2 \t\t\terToTokenId[msg.sender];\\n  \n      MSTORE \t\t\terToTokenId[msg.sender];\\n  \n      PUSH 20\t\t\terToTokenId[msg.sender];\\n  \n      ADD \t\t\terToTokenId[msg.sender];\\n  \n      PUSH 0\t\t\terToTokenId[msg.sender];\\n  \n      KECCAK256 \t\t\terToTokenId[msg.sender];\\n  \n      SLOAD \t\t\terToTokenId[msg.sender];\\n  \n      SWAP1 \t\t\t256 tokenId = _ownerToTokenId[...\n      POP \t\t\t256 tokenId = _ownerToTokenId[...\n      PUSH 0\t\t\trofile storage profile = _\n      PUSH 8\t\t\tenProfiles[tok\n      PUSH 0\t\t\tenProfiles[tokenId];\\n  \n      DUP4 \t\t\tnId];\\n \n      DUP2 \t\t\tenProfiles[tokenId];\\n  \n      MSTORE \t\t\tenProfiles[tokenId];\\n  \n      PUSH 20\t\t\tenProfiles[tokenId];\\n  \n      ADD \t\t\tenProfiles[tokenId];\\n  \n      SWAP1 \t\t\tenProfiles[tokenId];\\n  \n      DUP2 \t\t\tenProfiles[tokenId];\\n  \n      MSTORE \t\t\tenProfiles[tokenId];\\n  \n      PUSH 20\t\t\tenProfiles[tokenId];\\n  \n      ADD \t\t\tenProfiles[tokenId];\\n  \n      PUSH 0\t\t\tenProfiles[tokenId];\\n  \n      KECCAK256 \t\t\tenProfiles[tokenId];\\n  \n      SWAP1 \t\t\trofile storage profile = _toke...\n      POP \t\t\trofile storage profile = _toke...\n      PUSH 0\t\t\ts32 refHash = k\n      DUP8 \t\t\tef));\\n\n      DUP8 \t\t\tef));\\n\n      PUSH 40\t\t\tak256(bytes(newRef));\\n  \n      MLOAD \t\t\tak256(bytes(newRef));\\n  \n      PUSH [tag] 243\t\t\tak256(bytes(newRef));\\n  \n      SWAP3 \t\t\tak256(bytes(newRef));\\n  \n      SWAP2 \t\t\tak256(bytes(newRef));\\n  \n      SWAP1 \t\t\tak256(bytes(newRef));\\n  \n      PUSH [tag] 244\t\t\tak256(bytes(newRef));\\n  \n      JUMP \t\t\tak256(bytes(newRef));\\n  \n    tag 243\t\t\tak256(bytes(newRef));\\n  \n      JUMPDEST \t\t\tak256(bytes(newRef));\\n  \n      PUSH 40\t\t\tak256(bytes(newRef));\\n  \n      MLOAD \t\t\tak256(bytes(newRef));\\n  \n      DUP1 \t\t\tak256(bytes(newRef));\\n  \n      SWAP2 \t\t\tak256(bytes(newRef));\\n  \n      SUB \t\t\tak256(bytes(newRef));\\n  \n      SWAP1 \t\t\tak256(bytes(newRef));\\n  \n      KECCAK256 \t\t\tak256(bytes(newRef));\\n  \n      SWAP1 \t\t\ts32 refHash = keccak256(bytes(...\n      POP \t\t\ts32 refHash = keccak256(bytes(...\n      DUP1 \t\t\tash;\\n  \n      DUP3 \t\t\tile.cha\n      PUSH 2\t\t\tile.chatDataReference = r\n      ADD \t\t\tile.chatDataReference = r\n      DUP2 \t\t\tile.chatDataReference = refHas...\n      SWAP1 \t\t\tile.chatDataReference = refHas...\n      SSTORE \t\t\tile.chatDataReference = refHas...\n      POP \t\t\tile.chatDataReference = refHas...\n      TIMESTAMP \t\t\tk.timestamp);\\n \n      DUP3 \t\t\tile.las\n      PUSH 1\t\t\tile.lastUpdatedAt = u\n      ADD \t\t\tile.lastUpdatedAt = u\n      PUSH 0\t\t\tile.lastUpdatedAt = u\n      PUSH 100\t\t\tile.lastUpdatedAt = uint64(blo...\n      EXP \t\t\tile.lastUpdatedAt = uint64(blo...\n      DUP2 \t\t\tile.lastUpdatedAt = uint64(blo...\n      SLOAD \t\t\tile.lastUpdatedAt = uint64(blo...\n      DUP2 \t\t\tile.lastUpdatedAt = uint64(blo...\n      PUSH FFFFFFFFFFFFFFFF\t\t\tile.lastUpdatedAt = uint64(blo...\n      MUL \t\t\tile.lastUpdatedAt = uint64(blo...\n      NOT \t\t\tile.lastUpdatedAt = uint64(blo...\n      AND \t\t\tile.lastUpdatedAt = uint64(blo...\n      SWAP1 \t\t\tile.lastUpdatedAt = uint64(blo...\n      DUP4 \t\t\tile.lastUpdatedAt = uint64(blo...\n      PUSH FFFFFFFFFFFFFFFF\t\t\tile.lastUpdatedAt = uint64(blo...\n      AND \t\t\tile.lastUpdatedAt = uint64(blo...\n      MUL \t\t\tile.lastUpdatedAt = uint64(blo...\n      OR \t\t\tile.lastUpdatedAt = uint64(blo...\n      SWAP1 \t\t\tile.lastUpdatedAt = uint64(blo...\n      SSTORE \t\t\tile.lastUpdatedAt = uint64(blo...\n      POP \t\t\tile.lastUpdatedAt = uint64(blo...\n      DUP1 \t\t\tash, ui\n      DUP4 \t\t\tnId, re\n      CALLER \t\t\tsender, to\n      PUSH FFFFFFFFFFFFFFFFFFFFFFFFFFFFFFFFFFFFFFFF\t\t\thatReferenceUpdated(msg.sender...\n      AND \t\t\thatReferenceUpdated(msg.sender...\n      PUSH 8280FD7BBDEB2364E894D403DB429C0FB8E57A385D0F2EC1F7926ACF32847726\t\t\thatReferenceUpdated(msg.sender...\n      TIMESTAMP \t\t\tk.timestamp));\\n\n      PUSH 40\t\t\thatReferenceUpdated(msg.sender...\n      MLOAD \t\t\thatReferenceUpdated(msg.sender...\n      PUSH [tag] 245\t\t\thatReferenceUpdated(msg.sender...\n      SWAP2 \t\t\thatReferenceUpdated(msg.sender...\n      SWAP1 \t\t\thatReferenceUpdated(msg.sender...\n      PUSH [tag] 246\t\t\thatReferenceUpdated(msg.sender...\n      JUMP \t\t\thatReferenceUpdated(msg.sender...\n    tag 245\t\t\thatReferenceUpdated(msg.sender...\n      JUMPDEST \t\t\thatReferenceUpdated(msg.sender...\n      PUSH 40\t\t\thatReferenceUpdated(msg.sender...\n      MLOAD \t\t\thatReferenceUpdated(msg.sender...\n      DUP1 \t\t\thatReferenceUpdated(msg.sender...\n      SWAP2 \t\t\thatReferenceUpdated(msg.sender...\n      SUB \t\t\thatReferenceUpdated(msg.sender...\n      SWAP1 \t\t\thatReferenceUpdated(msg.sender...\n      LOG4 \t\t\thatReferenceUpdated(msg.sender...\n      POP \t\t\t      uint256 tokenId = _owner...\n      POP \t\t\t      uint256 tokenId = _owner...\n      POP \t\t\t      uint256 tokenId = _owner...\n      PUSH [tag] 247\t\t\tfor token metadata\\n \n      PUSH [tag] 248\t\t\tfor token metadata\n      JUMP \t\t\tfor token metadata\\n \n    tag 247\t\t\tfor token metadata\\n \n      JUMPDEST \t\t\tfor token metadata\\n \n      POP \t\t\t      require(_hasDid[user], \"...\n      POP \t\t\t \n      POP \t\t\ttion updateChatDataReference(\\...\n      POP \t\t\ttion updateChatDataReference(\\...\n      POP \t\t\ttion updateChatDataReference(\\...\n      JUMP \t\t\ttion updateChatDataReference(\\...\n    tag 79\t\t\ttion totalSupply() external vi...\n      JUMPDEST \t\t\ttion totalSupply() external vi...\n      PUSH 0\t\t\t256) {\\n\n      PUSH D\t\t\tenCounter;\\n  \n      SLOAD \t\t\tenCounter;\\n  \n      SWAP1 \t\t\trn _tokenCounter;\\n  \n      POP \t\t\trn _tokenCounter;\\n  \n      SWAP1 \t\t\ttion totalSupply() external vi...\n      JUMP \t\t\ttion totalSupply() external vi...\n    tag 85\t\t\ttion revokeDid(bool clearChatR...\n      JUMPDEST \t\t\ttion revokeDid(bool clearChatR...\n      CALLER \t\t\tsender) no\n      PUSH A\t\t\tDid[use\n      PUSH 0\t\t\tDid[user], \"N\n      DUP3 \t\t\t], \"\n      PUSH FFFFFFFFFFFFFFFFFFFFFFFFFFFFFFFFFFFFFFFF\t\t\tDid[user], \"N\n      AND \t\t\tDid[user], \"N\n      PUSH FFFFFFFFFFFFFFFFFFFFFFFFFFFFFFFFFFFFFFFF\t\t\tDid[user], \"N\n      AND \t\t\tDid[user], \"N\n      DUP2 \t\t\tDid[user], \"N\n      MSTORE \t\t\tDid[user], \"N\n      PUSH 20\t\t\tDid[user], \"N\n      ADD \t\t\tDid[user], \"N\n      SWAP1 \t\t\tDid[user], \"N\n      DUP2 \t\t\tDid[user], \"N\n      MSTORE \t\t\tDid[user], \"N\n      PUSH 20\t\t\tDid[user], \"N\n      ADD \t\t\tDid[user], \"N\n      PUSH 0\t\t\tDid[user], \"N\n      KECCAK256 \t\t\tDid[user], \"N\n      PUSH 0\t\t\tDid[user], \"N\n      SWAP1 \t\t\tDid[user], \"N\n      SLOAD \t\t\tDid[user], \"N\n      SWAP1 \t\t\tDid[user], \"N\n      PUSH 100\t\t\tDid[user], \"N\n      EXP \t\t\tDid[user], \"N\n      SWAP1 \t\t\tDid[user], \"N\n      DIV \t\t\tDid[user], \"N\n      PUSH FF\t\t\tDid[user], \"N\n      AND \t\t\tDid[user], \"N\n      PUSH [tag] 251\t\t\tire(_hasDid[user], \"No DID\");\\...\n      JUMPI \t\t\tire(_hasDid[user], \"No DID\");\\...\n      PUSH 40\t\t\tire(_hasDid[user], \"No DID\");\\...\n      MLOAD \t\t\tire(_hasDid[user], \"No DID\");\\...\n      PUSH 8C379A000000000000000000000000000000000000000000000000000000000\t\t\tire(_hasDid[user], \"No DID\");\\...\n      DUP2 \t\t\tire(_hasDid[user], \"No DID\");\\...\n      MSTORE \t\t\tire(_hasDid[user], \"No DID\");\\...\n      PUSH 4\t\t\tire(_hasDid[user], \"No DID\");\\...\n      ADD \t\t\tire(_hasDid[user], \"No DID\");\\...\n      PUSH [tag] 252\t\t\tire(_hasDid[user], \"No DID\");\\...\n      SWAP1 \t\t\tire(_hasDid[user], \"No DID\");\\...\n      PUSH [tag] 221\t\t\tire(_hasDid[user], \"No DID\");\\...\n      JUMP \t\t\tire(_hasDid[user], \"No DID\");\\...\n    tag 252\t\t\tire(_hasDid[user], \"No DID\");\\...\n      JUMPDEST \t\t\tire(_hasDid[user], \"No DID\");\\...\n      PUSH 40\t\t\tire(_hasDid[user], \"No DID\");\\...\n      MLOAD \t\t\tire(_hasDid[user], \"No DID\");\\...\n      DUP1 \t\t\tire(_hasDid[user], \"No DID\");\\...\n      SWAP2 \t\t\tire(_hasDid[user], \"No DID\");\\...\n      SUB \t\t\tire(_hasDid[user], \"No DID\");\\...\n      SWAP1 \t\t\tire(_hasDid[user], \"No DID\");\\...\n      REVERT \t\t\tire(_hasDid[user], \"No DID\");\\...\n    tag 251\t\t\tire(_hasDid[user], \"No DID\");\\...\n      JUMPDEST \t\t\tire(_hasDid[user], \"No DID\");\\...\n      DUP1 \t\t\t, \"N\n      PUSH FFFFFFFFFFFFFFFFFFFFFFFFFFFFFFFFFFFFFFFF\t\t\tsender == user, \"N\n      AND \t\t\tsender == user, \"N\n      CALLER \t\t\tsender == \n      PUSH FFFFFFFFFFFFFFFFFFFFFFFFFFFFFFFFFFFFFFFF\t\t\tsender == user, \"N\n      AND \t\t\tsender == user, \"N\n      EQ \t\t\tsender == user, \"N\n      PUSH [tag] 253\t\t\tire(msg.sender == user, \"Not o...\n      JUMPI \t\t\tire(msg.sender == user, \"Not o...\n      PUSH 40\t\t\tire(msg.sender == user, \"Not o...\n      MLOAD \t\t\tire(msg.sender == user, \"Not o...\n      PUSH 8C379A000000000000000000000000000000000000000000000000000000000\t\t\tire(msg.sender == user, \"Not o...\n      DUP2 \t\t\tire(msg.sender == user, \"Not o...\n      MSTORE \t\t\tire(msg.sender == user, \"Not o...\n      PUSH 4\t\t\tire(msg.sender == user, \"Not o...\n      ADD \t\t\tire(msg.sender == user, \"Not o...\n      PUSH [tag] 254\t\t\tire(msg.sender == user, \"Not o...\n      SWAP1 \t\t\tire(msg.sender == user, \"Not o...\n      PUSH [tag] 232\t\t\tire(msg.sender == user, \"Not o...\n      JUMP \t\t\tire(msg.sender == user, \"Not o...\n    tag 254\t\t\tire(msg.sender == user, \"Not o...\n      JUMPDEST \t\t\tire(msg.sender == user, \"Not o...\n      PUSH 40\t\t\tire(msg.sender == user, \"Not o...\n      MLOAD \t\t\tire(msg.sender == user, \"Not o...\n      DUP1 \t\t\tire(msg.sender == user, \"Not o...\n      SWAP2 \t\t\tire(msg.sender == user, \"Not o...\n      SUB \t\t\tire(msg.sender == user, \"Not o...\n      SWAP1 \t\t\tire(msg.sender == user, \"Not o...\n      REVERT \t\t\tire(msg.sender == user, \"Not o...\n    tag 253\t\t\tire(msg.sender == user, \"Not o...\n      JUMPDEST \t\t\tire(msg.sender == user, \"Not o...\n      PUSH [tag] 256\t\t\t allowPublicMinting;\\n\n      PUSH [tag] 241\t\t\t allowPublicMinting\n      JUMP \t\t\t allowPublicMinting;\\n\n    tag 256\t\t\t allowPublicMinting;\\n\n      JUMPDEST \t\t\t allowPublicMinting;\\n\n      PUSH [tag] 258\t\t\tokeDidInternal(msg.sender, cle...\n      CALLER \t\t\tsender, cl\n      DUP4 \t\t\trChatReference);\\n \n      PUSH [tag] 259\t\t\tokeDidInternal(msg\n      JUMP \t\t\tokeDidInternal(msg.sender, cle...\n    tag 258\t\t\tokeDidInternal(msg.sender, cle...\n      JUMPDEST \t\t\tokeDidInternal(msg.sender, cle...\n      PUSH [tag] 260\t\t\tfor token metadata\\n \n      PUSH [tag] 248\t\t\tfor token metadata\n      JUMP \t\t\tfor token metadata\\n \n    tag 260\t\t\tfor token metadata\\n \n      JUMPDEST \t\t\tfor token metadata\\n \n      POP \t\t\ttion revokeDid(bool clearChatR...\n      POP \t\t\ttion revokeDid(bool clearChatR...\n      JUMP \t\t\ttion revokeDid(bool clearChatR...\n    tag 88\t\t\ttion getDidId(address user) ex...\n      JUMPDEST \t\t\ttion getDidId(address user) ex...\n      PUSH 0\t\t\t256) {\\n\n      PUSH 9\t\t\terToTokenId[use\n      PUSH 0\t\t\terToTokenId[user];\\n  \n      DUP4 \t\t\t];\\n \n      PUSH FFFFFFFFFFFFFFFFFFFFFFFFFFFFFFFFFFFFFFFF\t\t\terToTokenId[user];\\n  \n      AND \t\t\terToTokenId[user];\\n  \n      PUSH FFFFFFFFFFFFFFFFFFFFFFFFFFFFFFFFFFFFFFFF\t\t\terToTokenId[user];\\n  \n      AND \t\t\terToTokenId[user];\\n  \n      DUP2 \t\t\terToTokenId[user];\\n  \n      MSTORE \t\t\terToTokenId[user];\\n  \n      PUSH 20\t\t\terToTokenId[user];\\n  \n      ADD \t\t\terToTokenId[user];\\n  \n      SWAP1 \t\t\terToTokenId[user];\\n  \n      DUP2 \t\t\terToTokenId[user];\\n  \n      MSTORE \t\t\terToTokenId[user];\\n  \n      PUSH 20\t\t\terToTokenId[user];\\n  \n      ADD \t\t\terToTokenId[user];\\n  \n      PUSH 0\t\t\terToTokenId[user];\\n  \n      KECCAK256 \t\t\terToTokenId[user];\\n  \n      SLOAD \t\t\terToTokenId[user];\\n  \n      SWAP1 \t\t\trn _ownerToTokenId[user];\\n  \n      POP \t\t\trn _ownerToTokenId[user];\\n  \n      SWAP2 \t\t\ttion getDidId(address user) ex...\n      SWAP1 \t\t\ttion getDidId(address user) ex...\n      POP \t\t\ttion getDidId(address user) ex...\n      JUMP \t\t\ttion getDidId(address user) ex...\n    tag 93\t\t\tress indexed newWallet,\\n     ...\n      JUMPDEST \t\t\tress indexed newWallet,\\n     ...\n      PUSH 0\t\t\t=\n      PUSH FFFFFFFFFFFFFFFFFFFFFFFFFFFFFFFFFFFFFFFF\t\t\t// ============ \n      AND \t\t\t// ============ \n      DUP3 \t\t\t//\n      PUSH FFFFFFFFFFFFFFFFFFFFFFFFFFFFFFFFFFFFFFFF\t\t\t// ============ \n      AND \t\t\t// ============ \n      SUB \t\t\t// ============ \n      PUSH [tag] 263\t\t\t    // ============ Modifiers ...\n      JUMPI \t\t\t    // ============ Modifiers ...\n      PUSH 0\t\t\ti\n      PUSH 40\t\t\t    \\n    /**\\n     * @dev Mod...\n      MLOAD \t\t\t    \\n    /**\\n     * @dev Mod...\n      PUSH 64A0AE9200000000000000000000000000000000000000000000000000000000\t\t\t    \\n    /**\\n     * @dev Mod...\n      DUP2 \t\t\t    \\n    /**\\n     * @dev Mod...\n      MSTORE \t\t\t    \\n    /**\\n     * @dev Mod...\n      PUSH 4\t\t\t    \\n    /**\\n     * @dev Mod...\n      ADD \t\t\t    \\n    /**\\n     * @dev Mod...\n      PUSH [tag] 264\t\t\t    \\n    /**\\n     * @dev Mod...\n      SWAP2 \t\t\t    \\n    /**\\n     * @dev Mod...\n      SWAP1 \t\t\t    \\n    /**\\n     * @dev Mod...\n      PUSH [tag] 63\t\t\t    \\n    /**\\n     * @dev Mod...\n      JUMP \t\t\t    \\n    /**\\n     * @dev Mod...\n    tag 264\t\t\t    \\n    /**\\n     * @dev Mod...\n      JUMPDEST \t\t\t    \\n    /**\\n     * @dev Mod...\n      PUSH 40\t\t\t    \\n    /**\\n     * @dev Mod...\n      MLOAD \t\t\t    \\n    /**\\n     * @dev Mod...\n      DUP1 \t\t\t    \\n    /**\\n     * @dev Mod...\n      SWAP2 \t\t\t    \\n    /**\\n     * @dev Mod...\n      SUB \t\t\t    \\n    /**\\n     * @dev Mod...\n      SWAP1 \t\t\t    \\n    /**\\n     * @dev Mod...\n      REVERT \t\t\t    \\n    /**\\n     * @dev Mod...\n    tag 263\t\t\t    // ============ Modifiers ...\n      JUMPDEST \t\t\t    // ============ Modifiers ...\n      PUSH 0\t\t\torized\"\\n        );\\n  \n      PUSH [tag] 265\t\t\t   _;\\n    }\\n    \\n    /**\\n ...\n      DUP4 \t\t\t  \n      DUP4 \t\t\t    \\n  \n      PUSH [tag] 266\t\t\t/**\\n     * @\n      PUSH [tag] 267\t\t\t/**\\n     *\n      JUMP \t\t\t/**\\n     * @\n    tag 266\t\t\t/**\\n     * @\n      JUMPDEST \t\t\t/**\\n     * @\n      PUSH [tag] 268\t\t\t   _;\\n \n      JUMP \t\t\t   _;\\n    }\\n    \\n    /**\\n ...\n    tag 265\t\t\t   _;\\n    }\\n    \\n    /**\\n ...\n      JUMPDEST \t\t\t   _;\\n    }\\n    \\n    /**\\n ...\n      SWAP1 \t\t\torized\"\\n        );\\n        _...\n      POP \t\t\torized\"\\n        );\\n        _...\n      DUP4 \t\t\ts a \n      PUSH FFFFFFFFFFFFFFFFFFFFFFFFFFFFFFFFFFFFFFFF\t\t\t check if user has a \n      AND \t\t\t check if user has a \n      DUP2 \t\t\t check if use\n      PUSH FFFFFFFFFFFFFFFFFFFFFFFFFFFFFFFFFFFFFFFF\t\t\t check if user has a \n      AND \t\t\t check if user has a \n      EQ \t\t\t check if user has a \n      PUSH [tag] 269\t\t\tr to check if user has a DID\\n...\n      JUMPI \t\t\tr to check if user has a DID\\n...\n      DUP4 \t\t\ts us\n      DUP3 \t\t\t) {\\n   \n      DUP3 \t\t\t   require(_h\n      PUSH 40\t\t\tr onlyDidOwner(address user) {...\n      MLOAD \t\t\tr onlyDidOwner(address user) {...\n      PUSH 64283D7B00000000000000000000000000000000000000000000000000000000\t\t\tr onlyDidOwner(address user) {...\n      DUP2 \t\t\tr onlyDidOwner(address user) {...\n      MSTORE \t\t\tr onlyDidOwner(address user) {...\n      PUSH 4\t\t\tr onlyDidOwner(address user) {...\n      ADD \t\t\tr onlyDidOwner(address user) {...\n      PUSH [tag] 270\t\t\tr onlyDidOwner(address user) {...\n      SWAP4 \t\t\tr onlyDidOwner(address user) {...\n      SWAP3 \t\t\tr onlyDidOwner(address user) {...\n      SWAP2 \t\t\tr onlyDidOwner(address user) {...\n      SWAP1 \t\t\tr onlyDidOwner(address user) {...\n      PUSH [tag] 271\t\t\tr onlyDidOwner(address user) {...\n      JUMP \t\t\tr onlyDidOwner(address user) {...\n    tag 270\t\t\tr onlyDidOwner(address user) {...\n      JUMPDEST \t\t\tr onlyDidOwner(address user) {...\n      PUSH 40\t\t\tr onlyDidOwner(address user) {...\n      MLOAD \t\t\tr onlyDidOwner(address user) {...\n      DUP1 \t\t\tr onlyDidOwner(address user) {...\n      SWAP2 \t\t\tr onlyDidOwner(address user) {...\n      SUB \t\t\tr onlyDidOwner(address user) {...\n      SWAP1 \t\t\tr onlyDidOwner(address user) {...\n      REVERT \t\t\tr onlyDidOwner(address user) {...\n    tag 269\t\t\tr to check if user has a DID\\n...\n      JUMPDEST \t\t\tr to check if user has a DID\\n...\n      POP \t\t\tp\\n    );\\n\\n    // ==========...\n      POP \t\t\tress indexed newWallet,\\n     ...\n      POP \t\t\tress indexed newWallet,\\n     ...\n      POP \t\t\tress indexed newWallet,\\n     ...\n      JUMP \t\t\tress indexed newWallet,\\n     ...\n    tag 96\t\t\t= user, \"Not owner\");\\n       ...\n      JUMPDEST \t\t\t= user, \"Not owner\");\\n       ...\n      PUSH [tag] 273\t\t\tID is not revoked\\n     */\\n  ...\n      DUP4 \t\t\t\\n   \n      DUP4 \t\t\t*/\n      DUP4 \t\t\t   modi\n      PUSH 40\t\t\tID is not revoked\\n     */\\n  ...\n      MLOAD \t\t\tID is not revoked\\n     */\\n  ...\n      DUP1 \t\t\tID is not revoked\\n     */\\n  ...\n      PUSH 20\t\t\tID is not revoked\\n     */\\n  ...\n      ADD \t\t\tID is not revoked\\n     */\\n  ...\n      PUSH 40\t\t\tID is not revoked\\n     */\\n  ...\n      MSTORE \t\t\tID is not revoked\\n     */\\n  ...\n      DUP1 \t\t\tID is not revoked\\n     */\\n  ...\n      PUSH 0\t\t\tID is not revoked\\n     */\\n  ...\n      DUP2 \t\t\tID is not revoked\\n     */\\n  ...\n      MSTORE \t\t\tID is not revoked\\n     */\\n  ...\n      POP \t\t\tID is not revoked\\n     */\\n  ...\n      PUSH [tag] 149\t\t\tID is not revoke\n      JUMP \t\t\tID is not revoked\\n     */\\n  ...\n    tag 273\t\t\tID is not revoked\\n     */\\n  ...\n      JUMPDEST \t\t\tID is not revoked\\n     */\\n  ...\n      POP \t\t\t= user, \"Not owner\");\\n       ...\n      POP \t\t\t= user, \"Not owner\");\\n       ...\n      POP \t\t\t= user, \"Not owner\");\\n       ...\n      JUMP \t\t\t= user, \"Not owner\");\\n       ...\n    tag 100\t\t\ttion updateChatReference(\\n   ...\n      JUMPDEST \t\t\ttion updateChatReference(\\n   ...\n      CALLER \t\t\tsender) no\n      PUSH A\t\t\tDid[use\n      PUSH 0\t\t\tDid[user], \"N\n      DUP3 \t\t\t], \"\n      PUSH FFFFFFFFFFFFFFFFFFFFFFFFFFFFFFFFFFFFFFFF\t\t\tDid[user], \"N\n      AND \t\t\tDid[user], \"N\n      PUSH FFFFFFFFFFFFFFFFFFFFFFFFFFFFFFFFFFFFFFFF\t\t\tDid[user], \"N\n      AND \t\t\tDid[user], \"N\n      DUP2 \t\t\tDid[user], \"N\n      MSTORE \t\t\tDid[user], \"N\n      PUSH 20\t\t\tDid[user], \"N\n      ADD \t\t\tDid[user], \"N\n      SWAP1 \t\t\tDid[user], \"N\n      DUP2 \t\t\tDid[user], \"N\n      MSTORE \t\t\tDid[user], \"N\n      PUSH 20\t\t\tDid[user], \"N\n      ADD \t\t\tDid[user], \"N\n      PUSH 0\t\t\tDid[user], \"N\n      KECCAK256 \t\t\tDid[user], \"N\n      PUSH 0\t\t\tDid[user], \"N\n      SWAP1 \t\t\tDid[user], \"N\n      SLOAD \t\t\tDid[user], \"N\n      SWAP1 \t\t\tDid[user], \"N\n      PUSH 100\t\t\tDid[user], \"N\n      EXP \t\t\tDid[user], \"N\n      SWAP1 \t\t\tDid[user], \"N\n      DIV \t\t\tDid[user], \"N\n      PUSH FF\t\t\tDid[user], \"N\n      AND \t\t\tDid[user], \"N\n      PUSH [tag] 275\t\t\tire(_hasDid[user], \"No DID\");\\...\n      JUMPI \t\t\tire(_hasDid[user], \"No DID\");\\...\n      PUSH 40\t\t\tire(_hasDid[user], \"No DID\");\\...\n      MLOAD \t\t\tire(_hasDid[user], \"No DID\");\\...\n      PUSH 8C379A000000000000000000000000000000000000000000000000000000000\t\t\tire(_hasDid[user], \"No DID\");\\...\n      DUP2 \t\t\tire(_hasDid[user], \"No DID\");\\...\n      MSTORE \t\t\tire(_hasDid[user], \"No DID\");\\...\n      PUSH 4\t\t\tire(_hasDid[user], \"No DID\");\\...\n      ADD \t\t\tire(_hasDid[user], \"No DID\");\\...\n      PUSH [tag] 276\t\t\tire(_hasDid[user], \"No DID\");\\...\n      SWAP1 \t\t\tire(_hasDid[user], \"No DID\");\\...\n      PUSH [tag] 221\t\t\tire(_hasDid[user], \"No DID\");\\...\n      JUMP \t\t\tire(_hasDid[user], \"No DID\");\\...\n    tag 276\t\t\tire(_hasDid[user], \"No DID\");\\...\n      JUMPDEST \t\t\tire(_hasDid[user], \"No DID\");\\...\n      PUSH 40\t\t\tire(_hasDid[user], \"No DID\");\\...\n      MLOAD \t\t\tire(_hasDid[user], \"No DID\");\\...\n      DUP1 \t\t\tire(_hasDid[user], \"No DID\");\\...\n      SWAP2 \t\t\tire(_hasDid[user], \"No DID\");\\...\n      SUB \t\t\tire(_hasDid[user], \"No DID\");\\...\n      SWAP1 \t\t\tire(_hasDid[user], \"No DID\");\\...\n      REVERT \t\t\tire(_hasDid[user], \"No DID\");\\...\n    tag 275\t\t\tire(_hasDid[user], \"No DID\");\\...\n      JUMPDEST \t\t\tire(_hasDid[user], \"No DID\");\\...\n      DUP1 \t\t\t, \"N\n      PUSH FFFFFFFFFFFFFFFFFFFFFFFFFFFFFFFFFFFFFFFF\t\t\tsender == user, \"N\n      AND \t\t\tsender == user, \"N\n      CALLER \t\t\tsender == \n      PUSH FFFFFFFFFFFFFFFFFFFFFFFFFFFFFFFFFFFFFFFF\t\t\tsender == user, \"N\n      AND \t\t\tsender == user, \"N\n      EQ \t\t\tsender == user, \"N\n      PUSH [tag] 277\t\t\tire(msg.sender == user, \"Not o...\n      JUMPI \t\t\tire(msg.sender == user, \"Not o...\n      PUSH 40\t\t\tire(msg.sender == user, \"Not o...\n      MLOAD \t\t\tire(msg.sender == user, \"Not o...\n      PUSH 8C379A000000000000000000000000000000000000000000000000000000000\t\t\tire(msg.sender == user, \"Not o...\n      DUP2 \t\t\tire(msg.sender == user, \"Not o...\n      MSTORE \t\t\tire(msg.sender == user, \"Not o...\n      PUSH 4\t\t\tire(msg.sender == user, \"Not o...\n      ADD \t\t\tire(msg.sender == user, \"Not o...\n      PUSH [tag] 278\t\t\tire(msg.sender == user, \"Not o...\n      SWAP1 \t\t\tire(msg.sender == user, \"Not o...\n      PUSH [tag] 232\t\t\tire(msg.sender == user, \"Not o...\n      JUMP \t\t\tire(msg.sender == user, \"Not o...\n    tag 278\t\t\tire(msg.sender == user, \"Not o...\n      JUMPDEST \t\t\tire(msg.sender == user, \"Not o...\n      PUSH 40\t\t\tire(msg.sender == user, \"Not o...\n      MLOAD \t\t\tire(msg.sender == user, \"Not o...\n      DUP1 \t\t\tire(msg.sender == user, \"Not o...\n      SWAP2 \t\t\tire(msg.sender == user, \"Not o...\n      SUB \t\t\tire(msg.sender == user, \"Not o...\n      SWAP1 \t\t\tire(msg.sender == user, \"Not o...\n      REVERT \t\t\tire(msg.sender == user, \"Not o...\n    tag 277\t\t\tire(msg.sender == user, \"Not o...\n      JUMPDEST \t\t\tire(msg.sender == user, \"Not o...\n      CALLER \t\t\tsender) no\n      PUSH A\t\t\tDid[use\n      PUSH 0\t\t\tDid[user], \"N\n      DUP3 \t\t\t], \"\n      PUSH FFFFFFFFFFFFFFFFFFFFFFFFFFFFFFFFFFFFFFFF\t\t\tDid[user], \"N\n      AND \t\t\tDid[user], \"N\n      PUSH FFFFFFFFFFFFFFFFFFFFFFFFFFFFFFFFFFFFFFFF\t\t\tDid[user], \"N\n      AND \t\t\tDid[user], \"N\n      DUP2 \t\t\tDid[user], \"N\n      MSTORE \t\t\tDid[user], \"N\n      PUSH 20\t\t\tDid[user], \"N\n      ADD \t\t\tDid[user], \"N\n      SWAP1 \t\t\tDid[user], \"N\n      DUP2 \t\t\tDid[user], \"N\n      MSTORE \t\t\tDid[user], \"N\n      PUSH 20\t\t\tDid[user], \"N\n      ADD \t\t\tDid[user], \"N\n      PUSH 0\t\t\tDid[user], \"N\n      KECCAK256 \t\t\tDid[user], \"N\n      PUSH 0\t\t\tDid[user], \"N\n      SWAP1 \t\t\tDid[user], \"N\n      SLOAD \t\t\tDid[user], \"N\n      SWAP1 \t\t\tDid[user], \"N\n      PUSH 100\t\t\tDid[user], \"N\n      EXP \t\t\tDid[user], \"N\n      SWAP1 \t\t\tDid[user], \"N\n      DIV \t\t\tDid[user], \"N\n      PUSH FF\t\t\tDid[user], \"N\n      AND \t\t\tDid[user], \"N\n      PUSH [tag] 280\t\t\tire(_hasDid[user], \"No DID\");\\...\n      JUMPI \t\t\tire(_hasDid[user], \"No DID\");\\...\n      PUSH 40\t\t\tire(_hasDid[user], \"No DID\");\\...\n      MLOAD \t\t\tire(_hasDid[user], \"No DID\");\\...\n      PUSH 8C379A000000000000000000000000000000000000000000000000000000000\t\t\tire(_hasDid[user], \"No DID\");\\...\n      DUP2 \t\t\tire(_hasDid[user], \"No DID\");\\...\n      MSTORE \t\t\tire(_hasDid[user], \"No DID\");\\...\n      PUSH 4\t\t\tire(_hasDid[user], \"No DID\");\\...\n      ADD \t\t\tire(_hasDid[user], \"No DID\");\\...\n      PUSH [tag] 281\t\t\tire(_hasDid[user], \"No DID\");\\...\n      SWAP1 \t\t\tire(_hasDid[user], \"No DID\");\\...\n      PUSH [tag] 221\t\t\tire(_hasDid[user], \"No DID\");\\...\n      JUMP \t\t\tire(_hasDid[user], \"No DID\");\\...\n    tag 281\t\t\tire(_hasDid[user], \"No DID\");\\...\n      JUMPDEST \t\t\tire(_hasDid[user], \"No DID\");\\...\n      PUSH 40\t\t\tire(_hasDid[user], \"No DID\");\\...\n      MLOAD \t\t\tire(_hasDid[user], \"No DID\");\\...\n      DUP1 \t\t\tire(_hasDid[user], \"No DID\");\\...\n      SWAP2 \t\t\tire(_hasDid[user], \"No DID\");\\...\n      SUB \t\t\tire(_hasDid[user], \"No DID\");\\...\n      SWAP1 \t\t\tire(_hasDid[user], \"No DID\");\\...\n      REVERT \t\t\tire(_hasDid[user], \"No DID\");\\...\n    tag 280\t\t\tire(_hasDid[user], \"No DID\");\\...\n      JUMPDEST \t\t\tire(_hasDid[user], \"No DID\");\\...\n      PUSH 0\t\t\t256 tokenId = _\n      PUSH 9\t\t\terToTokenId[use\n      PUSH 0\t\t\terToTokenId[user];\\n  \n      DUP4 \t\t\t];\\n \n      PUSH FFFFFFFFFFFFFFFFFFFFFFFFFFFFFFFFFFFFFFFF\t\t\terToTokenId[user];\\n  \n      AND \t\t\terToTokenId[user];\\n  \n      PUSH FFFFFFFFFFFFFFFFFFFFFFFFFFFFFFFFFFFFFFFF\t\t\terToTokenId[user];\\n  \n      AND \t\t\terToTokenId[user];\\n  \n      DUP2 \t\t\terToTokenId[user];\\n  \n      MSTORE \t\t\terToTokenId[user];\\n  \n      PUSH 20\t\t\terToTokenId[user];\\n  \n      ADD \t\t\terToTokenId[user];\\n  \n      SWAP1 \t\t\terToTokenId[user];\\n  \n      DUP2 \t\t\terToTokenId[user];\\n  \n      MSTORE \t\t\terToTokenId[user];\\n  \n      PUSH 20\t\t\terToTokenId[user];\\n  \n      ADD \t\t\terToTokenId[user];\\n  \n      PUSH 0\t\t\terToTokenId[user];\\n  \n      KECCAK256 \t\t\terToTokenId[user];\\n  \n      SLOAD \t\t\terToTokenId[user];\\n  \n      SWAP1 \t\t\t256 tokenId = _ownerToTokenId[...\n      POP \t\t\t256 tokenId = _ownerToTokenId[...\n      PUSH B\t\t\tokedTokens[tok\n      PUSH 0\t\t\tokedTokens[tokenId], \"R\n      DUP3 \t\t\tnId], \"\n      DUP2 \t\t\tokedTokens[tokenId], \"R\n      MSTORE \t\t\tokedTokens[tokenId], \"R\n      PUSH 20\t\t\tokedTokens[tokenId], \"R\n      ADD \t\t\tokedTokens[tokenId], \"R\n      SWAP1 \t\t\tokedTokens[tokenId], \"R\n      DUP2 \t\t\tokedTokens[tokenId], \"R\n      MSTORE \t\t\tokedTokens[tokenId], \"R\n      PUSH 20\t\t\tokedTokens[tokenId], \"R\n      ADD \t\t\tokedTokens[tokenId], \"R\n      PUSH 0\t\t\tokedTokens[tokenId], \"R\n      KECCAK256 \t\t\tokedTokens[tokenId], \"R\n      PUSH 0\t\t\tokedTokens[tokenId], \"R\n      SWAP1 \t\t\tokedTokens[tokenId], \"R\n      SLOAD \t\t\tokedTokens[tokenId], \"R\n      SWAP1 \t\t\tokedTokens[tokenId], \"R\n      PUSH 100\t\t\tokedTokens[tokenId], \"R\n      EXP \t\t\tokedTokens[tokenId], \"R\n      SWAP1 \t\t\tokedTokens[tokenId], \"R\n      DIV \t\t\tokedTokens[tokenId], \"R\n      PUSH FF\t\t\tokedTokens[tokenId], \"R\n      AND \t\t\tokedTokens[tokenId], \"R\n      ISZERO \t\t\tvokedTokens[tokenId], \"R\n      PUSH [tag] 282\t\t\tire(!_revokedTokens[tokenId], ...\n      JUMPI \t\t\tire(!_revokedTokens[tokenId], ...\n      PUSH 40\t\t\tire(!_revokedTokens[tokenId], ...\n      MLOAD \t\t\tire(!_revokedTokens[tokenId], ...\n      PUSH 8C379A000000000000000000000000000000000000000000000000000000000\t\t\tire(!_revokedTokens[tokenId], ...\n      DUP2 \t\t\tire(!_revokedTokens[tokenId], ...\n      MSTORE \t\t\tire(!_revokedTokens[tokenId], ...\n      PUSH 4\t\t\tire(!_revokedTokens[tokenId], ...\n      ADD \t\t\tire(!_revokedTokens[tokenId], ...\n      PUSH [tag] 283\t\t\tire(!_revokedTokens[tokenId], ...\n      SWAP1 \t\t\tire(!_revokedTokens[tokenId], ...\n      PUSH [tag] 238\t\t\tire(!_revokedTokens[tokenId], ...\n      JUMP \t\t\tire(!_revokedTokens[tokenId], ...\n    tag 283\t\t\tire(!_revokedTokens[tokenId], ...\n      JUMPDEST \t\t\tire(!_revokedTokens[tokenId], ...\n      PUSH 40\t\t\tire(!_revokedTokens[tokenId], ...\n      MLOAD \t\t\tire(!_revokedTokens[tokenId], ...\n      DUP1 \t\t\tire(!_revokedTokens[tokenId], ...\n      SWAP2 \t\t\tire(!_revokedTokens[tokenId], ...\n      SUB \t\t\tire(!_revokedTokens[tokenId], ...\n      SWAP1 \t\t\tire(!_revokedTokens[tokenId], ...\n      REVERT \t\t\tire(!_revokedTokens[tokenId], ...\n    tag 282\t\t\tire(!_revokedTokens[tokenId], ...\n      JUMPDEST \t\t\tire(!_revokedTokens[tokenId], ...\n      PUSH [tag] 285\t\t\t allowPublicMinting;\\n\n      PUSH [tag] 241\t\t\t allowPublicMinting\n      JUMP \t\t\t allowPublicMinting;\\n\n    tag 285\t\t\t allowPublicMinting;\\n\n      JUMPDEST \t\t\t allowPublicMinting;\\n\n      PUSH 0\t\t\t256 tokenId = _\n      PUSH 9\t\t\terToTokenId[msg\n      PUSH 0\t\t\terToTokenId[msg.sender];\\n  \n      CALLER \t\t\tsender];\\n \n      PUSH FFFFFFFFFFFFFFFFFFFFFFFFFFFFFFFFFFFFFFFF\t\t\terToTokenId[msg.sender];\\n  \n      AND \t\t\terToTokenId[msg.sender];\\n  \n      PUSH FFFFFFFFFFFFFFFFFFFFFFFFFFFFFFFFFFFFFFFF\t\t\terToTokenId[msg.sender];\\n  \n      AND \t\t\terToTokenId[msg.sender];\\n  \n      DUP2 \t\t\terToTokenId[msg.sender];\\n  \n      MSTORE \t\t\terToTokenId[msg.sender];\\n  \n      PUSH 20\t\t\terToTokenId[msg.sender];\\n  \n      ADD \t\t\terToTokenId[msg.sender];\\n  \n      SWAP1 \t\t\terToTokenId[msg.sender];\\n  \n      DUP2 \t\t\terToTokenId[msg.sender];\\n  \n      MSTORE \t\t\terToTokenId[msg.sender];\\n  \n      PUSH 20\t\t\terToTokenId[msg.sender];\\n  \n      ADD \t\t\terToTokenId[msg.sender];\\n  \n      PUSH 0\t\t\terToTokenId[msg.sender];\\n  \n      KECCAK256 \t\t\terToTokenId[msg.sender];\\n  \n      SLOAD \t\t\terToTokenId[msg.sender];\\n  \n      SWAP1 \t\t\t256 tokenId = _ownerToTokenId[...\n      POP \t\t\t256 tokenId = _ownerToTokenId[...\n      PUSH 0\t\t\trofile storage profile = _\n      PUSH 8\t\t\tenProfiles[tok\n      PUSH 0\t\t\tenProfiles[tokenId];\\n  \n      DUP4 \t\t\tnId];\\n \n      DUP2 \t\t\tenProfiles[tokenId];\\n  \n      MSTORE \t\t\tenProfiles[tokenId];\\n  \n      PUSH 20\t\t\tenProfiles[tokenId];\\n  \n      ADD \t\t\tenProfiles[tokenId];\\n  \n      SWAP1 \t\t\tenProfiles[tokenId];\\n  \n      DUP2 \t\t\tenProfiles[tokenId];\\n  \n      MSTORE \t\t\tenProfiles[tokenId];\\n  \n      PUSH 20\t\t\tenProfiles[tokenId];\\n  \n      ADD \t\t\tenProfiles[tokenId];\\n  \n      PUSH 0\t\t\tenProfiles[tokenId];\\n  \n      KECCAK256 \t\t\tenProfiles[tokenId];\\n  \n      SWAP1 \t\t\trofile storage profile = _toke...\n      POP \t\t\trofile storage profile = _toke...\n      PUSH 0\t\t\ts32 refHash = k\n      DUP10 \t\t\tef));\\n\n      DUP10 \t\t\tef));\\n\n      PUSH 40\t\t\tak256(bytes(newRef));\\n  \n      MLOAD \t\t\tak256(bytes(newRef));\\n  \n      PUSH [tag] 287\t\t\tak256(bytes(newRef));\\n  \n      SWAP3 \t\t\tak256(bytes(newRef));\\n  \n      SWAP2 \t\t\tak256(bytes(newRef));\\n  \n      SWAP1 \t\t\tak256(bytes(newRef));\\n  \n      PUSH [tag] 244\t\t\tak256(bytes(newRef));\\n  \n      JUMP \t\t\tak256(bytes(newRef));\\n  \n    tag 287\t\t\tak256(bytes(newRef));\\n  \n      JUMPDEST \t\t\tak256(bytes(newRef));\\n  \n      PUSH 40\t\t\tak256(bytes(newRef));\\n  \n      MLOAD \t\t\tak256(bytes(newRef));\\n  \n      DUP1 \t\t\tak256(bytes(newRef));\\n  \n      SWAP2 \t\t\tak256(bytes(newRef));\\n  \n      SUB \t\t\tak256(bytes(newRef));\\n  \n      SWAP1 \t\t\tak256(bytes(newRef));\\n  \n      KECCAK256 \t\t\tak256(bytes(newRef));\\n  \n      SWAP1 \t\t\ts32 refHash = keccak256(bytes(...\n      POP \t\t\ts32 refHash = keccak256(bytes(...\n      DUP1 \t\t\tash;\\n  \n      DUP3 \t\t\tile.cha\n      PUSH 2\t\t\tile.chatDataReference = r\n      ADD \t\t\tile.chatDataReference = r\n      DUP2 \t\t\tile.chatDataReference = refHas...\n      SWAP1 \t\t\tile.chatDataReference = refHas...\n      SSTORE \t\t\tile.chatDataReference = refHas...\n      POP \t\t\tile.chatDataReference = refHas...\n      DUP8 \t\t\tncryptedKeyMetadata;\\n  \n      DUP8 \t\t\tncryptedKeyMetadata;\\n  \n      DUP4 \t\t\tile.enc\n      PUSH 3\t\t\tile.encryptedKeyMetadata = n\n      ADD \t\t\tile.encryptedKeyMetadata = n\n      SWAP2 \t\t\tile.encryptedKeyMetadata = new...\n      DUP3 \t\t\tile.encryptedKeyMetadata = new...\n      PUSH [tag] 288\t\t\tile.encryptedKeyMetadata = new...\n      SWAP3 \t\t\tile.encryptedKeyMetadata = new...\n      SWAP2 \t\t\tile.encryptedKeyMetadata = new...\n      SWAP1 \t\t\tile.encryptedKeyMetadata = new...\n      PUSH [tag] 289\t\t\tile.encryptedKeyMetadata = new...\n      JUMP \t\t\tile.encryptedKeyMetadata = new...\n    tag 288\t\t\tile.encryptedKeyMetadata = new...\n      JUMPDEST \t\t\tile.encryptedKeyMetadata = new...\n      POP \t\t\tile.encryptedKeyMetadata = new...\n      TIMESTAMP \t\t\tk.timestamp);\\n \n      DUP3 \t\t\tile.las\n      PUSH 1\t\t\tile.lastUpdatedAt = u\n      ADD \t\t\tile.lastUpdatedAt = u\n      PUSH 0\t\t\tile.lastUpdatedAt = u\n      PUSH 100\t\t\tile.lastUpdatedAt = uint64(blo...\n      EXP \t\t\tile.lastUpdatedAt = uint64(blo...\n      DUP2 \t\t\tile.lastUpdatedAt = uint64(blo...\n      SLOAD \t\t\tile.lastUpdatedAt = uint64(blo...\n      DUP2 \t\t\tile.lastUpdatedAt = uint64(blo...\n      PUSH FFFFFFFFFFFFFFFF\t\t\tile.lastUpdatedAt = uint64(blo...\n      MUL \t\t\tile.lastUpdatedAt = uint64(blo...\n      NOT \t\t\tile.lastUpdatedAt = uint64(blo...\n      AND \t\t\tile.lastUpdatedAt = uint64(blo...\n      SWAP1 \t\t\tile.lastUpdatedAt = uint64(blo...\n      DUP4 \t\t\tile.lastUpdatedAt = uint64(blo...\n      PUSH FFFFFFFFFFFFFFFF\t\t\tile.lastUpdatedAt = uint64(blo...\n      AND \t\t\tile.lastUpdatedAt = uint64(blo...\n      MUL \t\t\tile.lastUpdatedAt = uint64(blo...\n      OR \t\t\tile.lastUpdatedAt = uint64(blo...\n      SWAP1 \t\t\tile.lastUpdatedAt = uint64(blo...\n      SSTORE \t\t\tile.lastUpdatedAt = uint64(blo...\n      POP \t\t\tile.lastUpdatedAt = uint64(blo...\n      DUP1 \t\t\tash, ui\n      DUP4 \t\t\tnId, re\n      CALLER \t\t\tsender, to\n      PUSH FFFFFFFFFFFFFFFFFFFFFFFFFFFFFFFFFFFFFFFF\t\t\thatReferenceUpdated(msg.sender...\n      AND \t\t\thatReferenceUpdated(msg.sender...\n      PUSH 8280FD7BBDEB2364E894D403DB429C0FB8E57A385D0F2EC1F7926ACF32847726\t\t\thatReferenceUpdated(msg.sender...\n      TIMESTAMP \t\t\tk.timestamp));\\n\n      PUSH 40\t\t\thatReferenceUpdated(msg.sender...\n      MLOAD \t\t\thatReferenceUpdated(msg.sender...\n      PUSH [tag] 290\t\t\thatReferenceUpdated(msg.sender...\n      SWAP2 \t\t\thatReferenceUpdated(msg.sender...\n      SWAP1 \t\t\thatReferenceUpdated(msg.sender...\n      PUSH [tag] 246\t\t\thatReferenceUpdated(msg.sender...\n      JUMP \t\t\thatReferenceUpdated(msg.sender...\n    tag 290\t\t\thatReferenceUpdated(msg.sender...\n      JUMPDEST \t\t\thatReferenceUpdated(msg.sender...\n      PUSH 40\t\t\thatReferenceUpdated(msg.sender...\n      MLOAD \t\t\thatReferenceUpdated(msg.sender...\n      DUP1 \t\t\thatReferenceUpdated(msg.sender...\n      SWAP2 \t\t\thatReferenceUpdated(msg.sender...\n      SUB \t\t\thatReferenceUpdated(msg.sender...\n      SWAP1 \t\t\thatReferenceUpdated(msg.sender...\n      LOG4 \t\t\thatReferenceUpdated(msg.sender...\n      DUP3 \t\t\tnId, ui\n      CALLER \t\t\tsender, to\n      PUSH FFFFFFFFFFFFFFFFFFFFFFFFFFFFFFFFFFFFFFFF\t\t\teyMetadataUpdated(msg.sender, ...\n      AND \t\t\teyMetadataUpdated(msg.sender, ...\n      PUSH EEA13EC8B49FB404F99B1BF8FD2589A5B2FCC7EB6D17E9A0768D55148A807157\t\t\teyMetadataUpdated(msg.sender, ...\n      TIMESTAMP \t\t\tk.timestamp));\\n\n      PUSH 40\t\t\teyMetadataUpdated(msg.sender, ...\n      MLOAD \t\t\teyMetadataUpdated(msg.sender, ...\n      PUSH [tag] 291\t\t\teyMetadataUpdated(msg.sender, ...\n      SWAP2 \t\t\teyMetadataUpdated(msg.sender, ...\n      SWAP1 \t\t\teyMetadataUpdated(msg.sender, ...\n      PUSH [tag] 246\t\t\teyMetadataUpdated(msg.sender, ...\n      JUMP \t\t\teyMetadataUpdated(msg.sender, ...\n    tag 291\t\t\teyMetadataUpdated(msg.sender, ...\n      JUMPDEST \t\t\teyMetadataUpdated(msg.sender, ...\n      PUSH 40\t\t\teyMetadataUpdated(msg.sender, ...\n      MLOAD \t\t\teyMetadataUpdated(msg.sender, ...\n      DUP1 \t\t\teyMetadataUpdated(msg.sender, ...\n      SWAP2 \t\t\teyMetadataUpdated(msg.sender, ...\n      SUB \t\t\teyMetadataUpdated(msg.sender, ...\n      SWAP1 \t\t\teyMetadataUpdated(msg.sender, ...\n      LOG3 \t\t\teyMetadataUpdated(msg.sender, ...\n      POP \t\t\t      uint256 tokenId = _owner...\n      POP \t\t\t      uint256 tokenId = _owner...\n      POP \t\t\t      uint256 tokenId = _owner...\n      PUSH [tag] 292\t\t\tfor token metadata\\n \n      PUSH [tag] 248\t\t\tfor token metadata\n      JUMP \t\t\tfor token metadata\\n \n    tag 292\t\t\tfor token metadata\\n \n      JUMPDEST \t\t\tfor token metadata\\n \n      POP \t\t\t      require(_hasDid[user], \"...\n      POP \t\t\t \n      POP \t\t\ttion updateChatReference(\\n   ...\n      POP \t\t\ttion updateChatReference(\\n   ...\n      POP \t\t\ttion updateChatReference(\\n   ...\n      POP \t\t\ttion updateChatReference(\\n   ...\n      POP \t\t\ttion updateChatReference(\\n   ...\n      JUMP \t\t\ttion updateChatReference(\\n   ...\n    tag 103\t\t\ttion isRevokedById(uint256 tok...\n      JUMPDEST \t\t\ttion isRevokedById(uint256 tok...\n      PUSH 0\t\t\t) {\\n\n      PUSH B\t\t\tokedTokens[tok\n      PUSH 0\t\t\tokedTokens[tokenId];\\n  \n      DUP4 \t\t\tnId];\\n \n      DUP2 \t\t\tokedTokens[tokenId];\\n  \n      MSTORE \t\t\tokedTokens[tokenId];\\n  \n      PUSH 20\t\t\tokedTokens[tokenId];\\n  \n      ADD \t\t\tokedTokens[tokenId];\\n  \n      SWAP1 \t\t\tokedTokens[tokenId];\\n  \n      DUP2 \t\t\tokedTokens[tokenId];\\n  \n      MSTORE \t\t\tokedTokens[tokenId];\\n  \n      PUSH 20\t\t\tokedTokens[tokenId];\\n  \n      ADD \t\t\tokedTokens[tokenId];\\n  \n      PUSH 0\t\t\tokedTokens[tokenId];\\n  \n      KECCAK256 \t\t\tokedTokens[tokenId];\\n  \n      PUSH 0\t\t\tokedTokens[tokenId];\\n  \n      SWAP1 \t\t\tokedTokens[tokenId];\\n  \n      SLOAD \t\t\tokedTokens[tokenId];\\n  \n      SWAP1 \t\t\tokedTokens[tokenId];\\n  \n      PUSH 100\t\t\tokedTokens[tokenId];\\n  \n      EXP \t\t\tokedTokens[tokenId];\\n  \n      SWAP1 \t\t\tokedTokens[tokenId];\\n  \n      DIV \t\t\tokedTokens[tokenId];\\n  \n      PUSH FF\t\t\tokedTokens[tokenId];\\n  \n      AND \t\t\tokedTokens[tokenId];\\n  \n      SWAP1 \t\t\trn _revokedTokens[tokenId];\\n ...\n      POP \t\t\trn _revokedTokens[tokenId];\\n ...\n      SWAP2 \t\t\ttion isRevokedById(uint256 tok...\n      SWAP1 \t\t\ttion isRevokedById(uint256 tok...\n      POP \t\t\ttion isRevokedById(uint256 tok...\n      JUMP \t\t\ttion isRevokedById(uint256 tok...\n    tag 108\t\t\ttion setBaseURI(string memory ...\n      JUMPDEST \t\t\ttion setBaseURI(string memory ...\n      PUSH [tag] 295\t\t\tot 1, packed)\n      PUSH [tag] 296\t\t\tot 1, packe\n      JUMP \t\t\tot 1, packed)\n    tag 295\t\t\tot 1, packed)\n      JUMPDEST \t\t\tot 1, packed)\n      DUP1 \t\t\tURI;\\n  \n      PUSH F\t\t\teTokenURI = b\n      SWAP1 \t\t\teTokenURI = baseURI;\\n  \n      DUP2 \t\t\teTokenURI = baseURI;\\n  \n      PUSH [tag] 298\t\t\teTokenURI = baseURI;\\n  \n      SWAP2 \t\t\teTokenURI = baseURI;\\n  \n      SWAP1 \t\t\teTokenURI = baseURI;\\n  \n      PUSH [tag] 299\t\t\teTokenURI = baseURI;\\n  \n      JUMP \t\t\teTokenURI = baseURI;\\n  \n    tag 298\t\t\teTokenURI = baseURI;\\n  \n      JUMPDEST \t\t\teTokenURI = baseURI;\\n  \n      POP \t\t\teTokenURI = baseURI;\\n  \n      POP \t\t\ttion setBaseURI(string memory ...\n      JUMP \t\t\ttion setBaseURI(string memory ...\n    tag 110\t\t\ttion revokeDid() external only...\n      JUMPDEST \t\t\ttion revokeDid() external only...\n      CALLER \t\t\tsender) no\n      PUSH A\t\t\tDid[use\n      PUSH 0\t\t\tDid[user], \"N\n      DUP3 \t\t\t], \"\n      PUSH FFFFFFFFFFFFFFFFFFFFFFFFFFFFFFFFFFFFFFFF\t\t\tDid[user], \"N\n      AND \t\t\tDid[user], \"N\n      PUSH FFFFFFFFFFFFFFFFFFFFFFFFFFFFFFFFFFFFFFFF\t\t\tDid[user], \"N\n      AND \t\t\tDid[user], \"N\n      DUP2 \t\t\tDid[user], \"N\n      MSTORE \t\t\tDid[user], \"N\n      PUSH 20\t\t\tDid[user], \"N\n      ADD \t\t\tDid[user], \"N\n      SWAP1 \t\t\tDid[user], \"N\n      DUP2 \t\t\tDid[user], \"N\n      MSTORE \t\t\tDid[user], \"N\n      PUSH 20\t\t\tDid[user], \"N\n      ADD \t\t\tDid[user], \"N\n      PUSH 0\t\t\tDid[user], \"N\n      KECCAK256 \t\t\tDid[user], \"N\n      PUSH 0\t\t\tDid[user], \"N\n      SWAP1 \t\t\tDid[user], \"N\n      SLOAD \t\t\tDid[user], \"N\n      SWAP1 \t\t\tDid[user], \"N\n      PUSH 100\t\t\tDid[user], \"N\n      EXP \t\t\tDid[user], \"N\n      SWAP1 \t\t\tDid[user], \"N\n      DIV \t\t\tDid[user], \"N\n      PUSH FF\t\t\tDid[user], \"N\n      AND \t\t\tDid[user], \"N\n      PUSH [tag] 301\t\t\tire(_hasDid[user], \"No DID\");\\...\n      JUMPI \t\t\tire(_hasDid[user], \"No DID\");\\...\n      PUSH 40\t\t\tire(_hasDid[user], \"No DID\");\\...\n      MLOAD \t\t\tire(_hasDid[user], \"No DID\");\\...\n      PUSH 8C379A000000000000000000000000000000000000000000000000000000000\t\t\tire(_hasDid[user], \"No DID\");\\...\n      DUP2 \t\t\tire(_hasDid[user], \"No DID\");\\...\n      MSTORE \t\t\tire(_hasDid[user], \"No DID\");\\...\n      PUSH 4\t\t\tire(_hasDid[user], \"No DID\");\\...\n      ADD \t\t\tire(_hasDid[user], \"No DID\");\\...\n      PUSH [tag] 302\t\t\tire(_hasDid[user], \"No DID\");\\...\n      SWAP1 \t\t\tire(_hasDid[user], \"No DID\");\\...\n      PUSH [tag] 221\t\t\tire(_hasDid[user], \"No DID\");\\...\n      JUMP \t\t\tire(_hasDid[user], \"No DID\");\\...\n    tag 302\t\t\tire(_hasDid[user], \"No DID\");\\...\n      JUMPDEST \t\t\tire(_hasDid[user], \"No DID\");\\...\n      PUSH 40\t\t\tire(_hasDid[user], \"No DID\");\\...\n      MLOAD \t\t\tire(_hasDid[user], \"No DID\");\\...\n      DUP1 \t\t\tire(_hasDid[user], \"No DID\");\\...\n      SWAP2 \t\t\tire(_hasDid[user], \"No DID\");\\...\n      SUB \t\t\tire(_hasDid[user], \"No DID\");\\...\n      SWAP1 \t\t\tire(_hasDid[user], \"No DID\");\\...\n      REVERT \t\t\tire(_hasDid[user], \"No DID\");\\...\n    tag 301\t\t\tire(_hasDid[user], \"No DID\");\\...\n      JUMPDEST \t\t\tire(_hasDid[user], \"No DID\");\\...\n      DUP1 \t\t\t, \"N\n      PUSH FFFFFFFFFFFFFFFFFFFFFFFFFFFFFFFFFFFFFFFF\t\t\tsender == user, \"N\n      AND \t\t\tsender == user, \"N\n      CALLER \t\t\tsender == \n      PUSH FFFFFFFFFFFFFFFFFFFFFFFFFFFFFFFFFFFFFFFF\t\t\tsender == user, \"N\n      AND \t\t\tsender == user, \"N\n      EQ \t\t\tsender == user, \"N\n      PUSH [tag] 303\t\t\tire(msg.sender == user, \"Not o...\n      JUMPI \t\t\tire(msg.sender == user, \"Not o...\n      PUSH 40\t\t\tire(msg.sender == user, \"Not o...\n      MLOAD \t\t\tire(msg.sender == user, \"Not o...\n      PUSH 8C379A000000000000000000000000000000000000000000000000000000000\t\t\tire(msg.sender == user, \"Not o...\n      DUP2 \t\t\tire(msg.sender == user, \"Not o...\n      MSTORE \t\t\tire(msg.sender == user, \"Not o...\n      PUSH 4\t\t\tire(msg.sender == user, \"Not o...\n      ADD \t\t\tire(msg.sender == user, \"Not o...\n      PUSH [tag] 304\t\t\tire(msg.sender == user, \"Not o...\n      SWAP1 \t\t\tire(msg.sender == user, \"Not o...\n      PUSH [tag] 232\t\t\tire(msg.sender == user, \"Not o...\n      JUMP \t\t\tire(msg.sender == user, \"Not o...\n    tag 304\t\t\tire(msg.sender == user, \"Not o...\n      JUMPDEST \t\t\tire(msg.sender == user, \"Not o...\n      PUSH 40\t\t\tire(msg.sender == user, \"Not o...\n      MLOAD \t\t\tire(msg.sender == user, \"Not o...\n      DUP1 \t\t\tire(msg.sender == user, \"Not o...\n      SWAP2 \t\t\tire(msg.sender == user, \"Not o...\n      SUB \t\t\tire(msg.sender == user, \"Not o...\n      SWAP1 \t\t\tire(msg.sender == user, \"Not o...\n      REVERT \t\t\tire(msg.sender == user, \"Not o...\n    tag 303\t\t\tire(msg.sender == user, \"Not o...\n      JUMPDEST \t\t\tire(msg.sender == user, \"Not o...\n      PUSH [tag] 306\t\t\t allowPublicMinting;\\n\n      PUSH [tag] 241\t\t\t allowPublicMinting\n      JUMP \t\t\t allowPublicMinting;\\n\n    tag 306\t\t\t allowPublicMinting;\\n\n      JUMPDEST \t\t\t allowPublicMinting;\\n\n      PUSH [tag] 308\t\t\tokeDidInternal(msg.sender, tru...\n      CALLER \t\t\tsender, tr\n      PUSH 1\t\t\t);\\n \n      PUSH [tag] 259\t\t\tokeDidInternal(msg\n      JUMP \t\t\tokeDidInternal(msg.sender, tru...\n    tag 308\t\t\tokeDidInternal(msg.sender, tru...\n      JUMPDEST \t\t\tokeDidInternal(msg.sender, tru...\n      PUSH [tag] 309\t\t\tfor token metadata\\n \n      PUSH [tag] 248\t\t\tfor token metadata\n      JUMP \t\t\tfor token metadata\\n \n    tag 309\t\t\tfor token metadata\\n \n      JUMPDEST \t\t\tfor token metadata\\n \n      POP \t\t\ttion revokeDid() external only...\n      JUMP \t\t\ttion revokeDid() external only...\n    tag 114\t\t\ttion migrateDid(\\n        addr...\n      JUMPDEST \t\t\ttion migrateDid(\\n        addr...\n      PUSH [tag] 311\t\t\t allowPublicMinting;\\n\n      PUSH [tag] 241\t\t\t allowPublicMinting\n      JUMP \t\t\t allowPublicMinting;\\n\n    tag 311\t\t\t allowPublicMinting;\\n\n      JUMPDEST \t\t\t allowPublicMinting;\\n\n      PUSH [tag] 313\t\t\tr() || \n      PUSH [tag] 132\t\t\tr() |\n      JUMP \t\t\tr() || \n    tag 313\t\t\tr() || \n      JUMPDEST \t\t\tr() || \n      PUSH FFFFFFFFFFFFFFFFFFFFFFFFFFFFFFFFFFFFFFFF\t\t\tsender == owner() || \n      AND \t\t\tsender == owner() || \n      CALLER \t\t\tsender == \n      PUSH FFFFFFFFFFFFFFFFFFFFFFFFFFFFFFFFFFFFFFFF\t\t\tsender == owner() || \n      AND \t\t\tsender == owner() || \n      EQ \t\t\tsender == owner() || \n      DUP1 \t\t\tsender == owner() || msg.sende...\n      PUSH [tag] 314\t\t\tsender == owner() || msg.sende...\n      JUMPI \t\t\tsender == owner() || msg.sende...\n      POP \t\t\tsender == owner() || msg.sende...\n      PUSH E\t\t\tendSigner,\\n  \n      PUSH 0\t\t\tendSigner,\\n  \n      SWAP1 \t\t\tendSigner,\\n  \n      SLOAD \t\t\tendSigner,\\n  \n      SWAP1 \t\t\tendSigner,\\n  \n      PUSH 100\t\t\tendSigner,\\n  \n      EXP \t\t\tendSigner,\\n  \n      SWAP1 \t\t\tendSigner,\\n  \n      DIV \t\t\tendSigner,\\n  \n      PUSH FFFFFFFFFFFFFFFFFFFFFFFFFFFFFFFFFFFFFFFF\t\t\tendSigner,\\n  \n      AND \t\t\tendSigner,\\n  \n      PUSH FFFFFFFFFFFFFFFFFFFFFFFFFFFFFFFFFFFFFFFF\t\t\tsender == backendSigner,\\n  \n      AND \t\t\tsender == backendSigner,\\n  \n      CALLER \t\t\tsender == \n      PUSH FFFFFFFFFFFFFFFFFFFFFFFFFFFFFFFFFFFFFFFF\t\t\tsender == backendSigner,\\n  \n      AND \t\t\tsender == backendSigner,\\n  \n      EQ \t\t\tsender == backendSigner,\\n  \n    tag 314\t\t\tsender == owner() || msg.sende...\n      JUMPDEST \t\t\tsender == owner() || msg.sende...\n      PUSH [tag] 315\t\t\tire(\\n            msg.sender =...\n      JUMPI \t\t\tire(\\n            msg.sender =...\n      PUSH 40\t\t\tire(\\n            msg.sender =...\n      MLOAD \t\t\tire(\\n            msg.sender =...\n      PUSH 8C379A000000000000000000000000000000000000000000000000000000000\t\t\tire(\\n            msg.sender =...\n      DUP2 \t\t\tire(\\n            msg.sender =...\n      MSTORE \t\t\tire(\\n            msg.sender =...\n      PUSH 4\t\t\tire(\\n            msg.sender =...\n      ADD \t\t\tire(\\n            msg.sender =...\n      PUSH [tag] 316\t\t\tire(\\n            msg.sender =...\n      SWAP1 \t\t\tire(\\n            msg.sender =...\n      PUSH [tag] 317\t\t\tire(\\n            msg.sender =...\n      JUMP \t\t\tire(\\n            msg.sender =...\n    tag 316\t\t\tire(\\n            msg.sender =...\n      JUMPDEST \t\t\tire(\\n            msg.sender =...\n      PUSH 40\t\t\tire(\\n            msg.sender =...\n      MLOAD \t\t\tire(\\n            msg.sender =...\n      DUP1 \t\t\tire(\\n            msg.sender =...\n      SWAP2 \t\t\tire(\\n            msg.sender =...\n      SUB \t\t\tire(\\n            msg.sender =...\n      SWAP1 \t\t\tire(\\n            msg.sender =...\n      REVERT \t\t\tire(\\n            msg.sender =...\n    tag 315\t\t\tire(\\n            msg.sender =...\n      JUMPDEST \t\t\tire(\\n            msg.sender =...\n      PUSH 0\t\t\t\"\n      PUSH FFFFFFFFFFFFFFFFFFFFFFFFFFFFFFFFFFFFFFFF\t\t\tallet != address(0), \"Z\n      AND \t\t\tallet != address(0), \"Z\n      DUP4 \t\t\tallet != \n      PUSH FFFFFFFFFFFFFFFFFFFFFFFFFFFFFFFFFFFFFFFF\t\t\tallet != address(0), \"Z\n      AND \t\t\tallet != address(0), \"Z\n      SUB \t\t\tallet != address(0), \"Z\n      PUSH [tag] 318\t\t\tire(oldWallet != address(0), \"...\n      JUMPI \t\t\tire(oldWallet != address(0), \"...\n      PUSH 40\t\t\tire(oldWallet != address(0), \"...\n      MLOAD \t\t\tire(oldWallet != address(0), \"...\n      PUSH 8C379A000000000000000000000000000000000000000000000000000000000\t\t\tire(oldWallet != address(0), \"...\n      DUP2 \t\t\tire(oldWallet != address(0), \"...\n      MSTORE \t\t\tire(oldWallet != address(0), \"...\n      PUSH 4\t\t\tire(oldWallet != address(0), \"...\n      ADD \t\t\tire(oldWallet != address(0), \"...\n      PUSH [tag] 319\t\t\tire(oldWallet != address(0), \"...\n      SWAP1 \t\t\tire(oldWallet != address(0), \"...\n      PUSH [tag] 320\t\t\tire(oldWallet != address(0), \"...\n      JUMP \t\t\tire(oldWallet != address(0), \"...\n    tag 319\t\t\tire(oldWallet != address(0), \"...\n      JUMPDEST \t\t\tire(oldWallet != address(0), \"...\n      PUSH 40\t\t\tire(oldWallet != address(0), \"...\n      MLOAD \t\t\tire(oldWallet != address(0), \"...\n      DUP1 \t\t\tire(oldWallet != address(0), \"...\n      SWAP2 \t\t\tire(oldWallet != address(0), \"...\n      SUB \t\t\tire(oldWallet != address(0), \"...\n      SWAP1 \t\t\tire(oldWallet != address(0), \"...\n      REVERT \t\t\tire(oldWallet != address(0), \"...\n    tag 318\t\t\tire(oldWallet != address(0), \"...\n      JUMPDEST \t\t\tire(oldWallet != address(0), \"...\n      PUSH 0\t\t\t\"\n      PUSH FFFFFFFFFFFFFFFFFFFFFFFFFFFFFFFFFFFFFFFF\t\t\tallet != address(0), \"Z\n      AND \t\t\tallet != address(0), \"Z\n      DUP3 \t\t\tallet != \n      PUSH FFFFFFFFFFFFFFFFFFFFFFFFFFFFFFFFFFFFFFFF\t\t\tallet != address(0), \"Z\n      AND \t\t\tallet != address(0), \"Z\n      SUB \t\t\tallet != address(0), \"Z\n      PUSH [tag] 321\t\t\tire(newWallet != address(0), \"...\n      JUMPI \t\t\tire(newWallet != address(0), \"...\n      PUSH 40\t\t\tire(newWallet != address(0), \"...\n      MLOAD \t\t\tire(newWallet != address(0), \"...\n      PUSH 8C379A000000000000000000000000000000000000000000000000000000000\t\t\tire(newWallet != address(0), \"...\n      DUP2 \t\t\tire(newWallet != address(0), \"...\n      MSTORE \t\t\tire(newWallet != address(0), \"...\n      PUSH 4\t\t\tire(newWallet != address(0), \"...\n      ADD \t\t\tire(newWallet != address(0), \"...\n      PUSH [tag] 322\t\t\tire(newWallet != address(0), \"...\n      SWAP1 \t\t\tire(newWallet != address(0), \"...\n      PUSH [tag] 320\t\t\tire(newWallet != address(0), \"...\n      JUMP \t\t\tire(newWallet != address(0), \"...\n    tag 322\t\t\tire(newWallet != address(0), \"...\n      JUMPDEST \t\t\tire(newWallet != address(0), \"...\n      PUSH 40\t\t\tire(newWallet != address(0), \"...\n      MLOAD \t\t\tire(newWallet != address(0), \"...\n      DUP1 \t\t\tire(newWallet != address(0), \"...\n      SWAP2 \t\t\tire(newWallet != address(0), \"...\n      SUB \t\t\tire(newWallet != address(0), \"...\n      SWAP1 \t\t\tire(newWallet != address(0), \"...\n      REVERT \t\t\tire(newWallet != address(0), \"...\n    tag 321\t\t\tire(newWallet != address(0), \"...\n      JUMPDEST \t\t\tire(newWallet != address(0), \"...\n      DUP2 \t\t\tallet, \"S\n      PUSH FFFFFFFFFFFFFFFFFFFFFFFFFFFFFFFFFFFFFFFF\t\t\tallet != newWallet, \"S\n      AND \t\t\tallet != newWallet, \"S\n      DUP4 \t\t\tallet != \n      PUSH FFFFFFFFFFFFFFFFFFFFFFFFFFFFFFFFFFFFFFFF\t\t\tallet != newWallet, \"S\n      AND \t\t\tallet != newWallet, \"S\n      SUB \t\t\tallet != newWallet, \"S\n      PUSH [tag] 323\t\t\tire(oldWallet != newWallet, \"S...\n      JUMPI \t\t\tire(oldWallet != newWallet, \"S...\n      PUSH 40\t\t\tire(oldWallet != newWallet, \"S...\n      MLOAD \t\t\tire(oldWallet != newWallet, \"S...\n      PUSH 8C379A000000000000000000000000000000000000000000000000000000000\t\t\tire(oldWallet != newWallet, \"S...\n      DUP2 \t\t\tire(oldWallet != newWallet, \"S...\n      MSTORE \t\t\tire(oldWallet != newWallet, \"S...\n      PUSH 4\t\t\tire(oldWallet != newWallet, \"S...\n      ADD \t\t\tire(oldWallet != newWallet, \"S...\n      PUSH [tag] 324\t\t\tire(oldWallet != newWallet, \"S...\n      SWAP1 \t\t\tire(oldWallet != newWallet, \"S...\n      PUSH [tag] 325\t\t\tire(oldWallet != newWallet, \"S...\n      JUMP \t\t\tire(oldWallet != newWallet, \"S...\n    tag 324\t\t\tire(oldWallet != newWallet, \"S...\n      JUMPDEST \t\t\tire(oldWallet != newWallet, \"S...\n      PUSH 40\t\t\tire(oldWallet != newWallet, \"S...\n      MLOAD \t\t\tire(oldWallet != newWallet, \"S...\n      DUP1 \t\t\tire(oldWallet != newWallet, \"S...\n      SWAP2 \t\t\tire(oldWallet != newWallet, \"S...\n      SUB \t\t\tire(oldWallet != newWallet, \"S...\n      SWAP1 \t\t\tire(oldWallet != newWallet, \"S...\n      REVERT \t\t\tire(oldWallet != newWallet, \"S...\n    tag 323\t\t\tire(oldWallet != newWallet, \"S...\n      JUMPDEST \t\t\tire(oldWallet != newWallet, \"S...\n      PUSH A\t\t\tDid[old\n      PUSH 0\t\t\tDid[oldWallet], \"N\n      DUP5 \t\t\tallet], \"\n      PUSH FFFFFFFFFFFFFFFFFFFFFFFFFFFFFFFFFFFFFFFF\t\t\tDid[oldWallet], \"N\n      AND \t\t\tDid[oldWallet], \"N\n      PUSH FFFFFFFFFFFFFFFFFFFFFFFFFFFFFFFFFFFFFFFF\t\t\tDid[oldWallet], \"N\n      AND \t\t\tDid[oldWallet], \"N\n      DUP2 \t\t\tDid[oldWallet], \"N\n      MSTORE \t\t\tDid[oldWallet], \"N\n      PUSH 20\t\t\tDid[oldWallet], \"N\n      ADD \t\t\tDid[oldWallet], \"N\n      SWAP1 \t\t\tDid[oldWallet], \"N\n      DUP2 \t\t\tDid[oldWallet], \"N\n      MSTORE \t\t\tDid[oldWallet], \"N\n      PUSH 20\t\t\tDid[oldWallet], \"N\n      ADD \t\t\tDid[oldWallet], \"N\n      PUSH 0\t\t\tDid[oldWallet], \"N\n      KECCAK256 \t\t\tDid[oldWallet], \"N\n      PUSH 0\t\t\tDid[oldWallet], \"N\n      SWAP1 \t\t\tDid[oldWallet], \"N\n      SLOAD \t\t\tDid[oldWallet], \"N\n      SWAP1 \t\t\tDid[oldWallet], \"N\n      PUSH 100\t\t\tDid[oldWallet], \"N\n      EXP \t\t\tDid[oldWallet], \"N\n      SWAP1 \t\t\tDid[oldWallet], \"N\n      DIV \t\t\tDid[oldWallet], \"N\n      PUSH FF\t\t\tDid[oldWallet], \"N\n      AND \t\t\tDid[oldWallet], \"N\n      PUSH [tag] 326\t\t\tire(_hasDid[oldWallet], \"No DI...\n      JUMPI \t\t\tire(_hasDid[oldWallet], \"No DI...\n      PUSH 40\t\t\tire(_hasDid[oldWallet], \"No DI...\n      MLOAD \t\t\tire(_hasDid[oldWallet], \"No DI...\n      PUSH 8C379A000000000000000000000000000000000000000000000000000000000\t\t\tire(_hasDid[oldWallet], \"No DI...\n      DUP2 \t\t\tire(_hasDid[oldWallet], \"No DI...\n      MSTORE \t\t\tire(_hasDid[oldWallet], \"No DI...\n      PUSH 4\t\t\tire(_hasDid[oldWallet], \"No DI...\n      ADD \t\t\tire(_hasDid[oldWallet], \"No DI...\n      PUSH [tag] 327\t\t\tire(_hasDid[oldWallet], \"No DI...\n      SWAP1 \t\t\tire(_hasDid[oldWallet], \"No DI...\n      PUSH [tag] 221\t\t\tire(_hasDid[oldWallet], \"No DI...\n      JUMP \t\t\tire(_hasDid[oldWallet], \"No DI...\n    tag 327\t\t\tire(_hasDid[oldWallet], \"No DI...\n      JUMPDEST \t\t\tire(_hasDid[oldWallet], \"No DI...\n      PUSH 40\t\t\tire(_hasDid[oldWallet], \"No DI...\n      MLOAD \t\t\tire(_hasDid[oldWallet], \"No DI...\n      DUP1 \t\t\tire(_hasDid[oldWallet], \"No DI...\n      SWAP2 \t\t\tire(_hasDid[oldWallet], \"No DI...\n      SUB \t\t\tire(_hasDid[oldWallet], \"No DI...\n      SWAP1 \t\t\tire(_hasDid[oldWallet], \"No DI...\n      REVERT \t\t\tire(_hasDid[oldWallet], \"No DI...\n    tag 326\t\t\tire(_hasDid[oldWallet], \"No DI...\n      JUMPDEST \t\t\tire(_hasDid[oldWallet], \"No DI...\n      PUSH A\t\t\tDid[new\n      PUSH 0\t\t\tDid[newWallet], \"H\n      DUP4 \t\t\tallet], \"\n      PUSH FFFFFFFFFFFFFFFFFFFFFFFFFFFFFFFFFFFFFFFF\t\t\tDid[newWallet], \"H\n      AND \t\t\tDid[newWallet], \"H\n      PUSH FFFFFFFFFFFFFFFFFFFFFFFFFFFFFFFFFFFFFFFF\t\t\tDid[newWallet], \"H\n      AND \t\t\tDid[newWallet], \"H\n      DUP2 \t\t\tDid[newWallet], \"H\n      MSTORE \t\t\tDid[newWallet], \"H\n      PUSH 20\t\t\tDid[newWallet], \"H\n      ADD \t\t\tDid[newWallet], \"H\n      SWAP1 \t\t\tDid[newWallet], \"H\n      DUP2 \t\t\tDid[newWallet], \"H\n      MSTORE \t\t\tDid[newWallet], \"H\n      PUSH 20\t\t\tDid[newWallet], \"H\n      ADD \t\t\tDid[newWallet], \"H\n      PUSH 0\t\t\tDid[newWallet], \"H\n      KECCAK256 \t\t\tDid[newWallet], \"H\n      PUSH 0\t\t\tDid[newWallet], \"H\n      SWAP1 \t\t\tDid[newWallet], \"H\n      SLOAD \t\t\tDid[newWallet], \"H\n      SWAP1 \t\t\tDid[newWallet], \"H\n      PUSH 100\t\t\tDid[newWallet], \"H\n      EXP \t\t\tDid[newWallet], \"H\n      SWAP1 \t\t\tDid[newWallet], \"H\n      DIV \t\t\tDid[newWallet], \"H\n      PUSH FF\t\t\tDid[newWallet], \"H\n      AND \t\t\tDid[newWallet], \"H\n      ISZERO \t\t\tsDid[newWallet], \"H\n      PUSH [tag] 328\t\t\tire(!_hasDid[newWallet], \"Has ...\n      JUMPI \t\t\tire(!_hasDid[newWallet], \"Has ...\n      PUSH 40\t\t\tire(!_hasDid[newWallet], \"Has ...\n      MLOAD \t\t\tire(!_hasDid[newWallet], \"Has ...\n      PUSH 8C379A000000000000000000000000000000000000000000000000000000000\t\t\tire(!_hasDid[newWallet], \"Has ...\n      DUP2 \t\t\tire(!_hasDid[newWallet], \"Has ...\n      MSTORE \t\t\tire(!_hasDid[newWallet], \"Has ...\n      PUSH 4\t\t\tire(!_hasDid[newWallet], \"Has ...\n      ADD \t\t\tire(!_hasDid[newWallet], \"Has ...\n      PUSH [tag] 329\t\t\tire(!_hasDid[newWallet], \"Has ...\n      SWAP1 \t\t\tire(!_hasDid[newWallet], \"Has ...\n      PUSH [tag] 330\t\t\tire(!_hasDid[newWallet], \"Has ...\n      JUMP \t\t\tire(!_hasDid[newWallet], \"Has ...\n    tag 329\t\t\tire(!_hasDid[newWallet], \"Has ...\n      JUMPDEST \t\t\tire(!_hasDid[newWallet], \"Has ...\n      PUSH 40\t\t\tire(!_hasDid[newWallet], \"Has ...\n      MLOAD \t\t\tire(!_hasDid[newWallet], \"Has ...\n      DUP1 \t\t\tire(!_hasDid[newWallet], \"Has ...\n      SWAP2 \t\t\tire(!_hasDid[newWallet], \"Has ...\n      SUB \t\t\tire(!_hasDid[newWallet], \"Has ...\n      SWAP1 \t\t\tire(!_hasDid[newWallet], \"Has ...\n      REVERT \t\t\tire(!_hasDid[newWallet], \"Has ...\n    tag 328\t\t\tire(!_hasDid[newWallet], \"Has ...\n      JUMPDEST \t\t\tire(!_hasDid[newWallet], \"Has ...\n      PUSH 0\t\t\t256 oldTokenId = _\n      PUSH 9\t\t\terToTokenId[old\n      PUSH 0\t\t\terToTokenId[oldWallet];\\n  \n      DUP6 \t\t\tallet];\\n \n      PUSH FFFFFFFFFFFFFFFFFFFFFFFFFFFFFFFFFFFFFFFF\t\t\terToTokenId[oldWallet];\\n  \n      AND \t\t\terToTokenId[oldWallet];\\n  \n      PUSH FFFFFFFFFFFFFFFFFFFFFFFFFFFFFFFFFFFFFFFF\t\t\terToTokenId[oldWallet];\\n  \n      AND \t\t\terToTokenId[oldWallet];\\n  \n      DUP2 \t\t\terToTokenId[oldWallet];\\n  \n      MSTORE \t\t\terToTokenId[oldWallet];\\n  \n      PUSH 20\t\t\terToTokenId[oldWallet];\\n  \n      ADD \t\t\terToTokenId[oldWallet];\\n  \n      SWAP1 \t\t\terToTokenId[oldWallet];\\n  \n      DUP2 \t\t\terToTokenId[oldWallet];\\n  \n      MSTORE \t\t\terToTokenId[oldWallet];\\n  \n      PUSH 20\t\t\terToTokenId[oldWallet];\\n  \n      ADD \t\t\terToTokenId[oldWallet];\\n  \n      PUSH 0\t\t\terToTokenId[oldWallet];\\n  \n      KECCAK256 \t\t\terToTokenId[oldWallet];\\n  \n      SLOAD \t\t\terToTokenId[oldWallet];\\n  \n      SWAP1 \t\t\t256 oldTokenId = _ownerToToken...\n      POP \t\t\t256 oldTokenId = _ownerToToken...\n      PUSH B\t\t\tokedTokens[old\n      PUSH 0\t\t\tokedTokens[oldTokenId], \"R\n      DUP3 \t\t\tokenId], \"\n      DUP2 \t\t\tokedTokens[oldTokenId], \"R\n      MSTORE \t\t\tokedTokens[oldTokenId], \"R\n      PUSH 20\t\t\tokedTokens[oldTokenId], \"R\n      ADD \t\t\tokedTokens[oldTokenId], \"R\n      SWAP1 \t\t\tokedTokens[oldTokenId], \"R\n      DUP2 \t\t\tokedTokens[oldTokenId], \"R\n      MSTORE \t\t\tokedTokens[oldTokenId], \"R\n      PUSH 20\t\t\tokedTokens[oldTokenId], \"R\n      ADD \t\t\tokedTokens[oldTokenId], \"R\n      PUSH 0\t\t\tokedTokens[oldTokenId], \"R\n      KECCAK256 \t\t\tokedTokens[oldTokenId], \"R\n      PUSH 0\t\t\tokedTokens[oldTokenId], \"R\n      SWAP1 \t\t\tokedTokens[oldTokenId], \"R\n      SLOAD \t\t\tokedTokens[oldTokenId], \"R\n      SWAP1 \t\t\tokedTokens[oldTokenId], \"R\n      PUSH 100\t\t\tokedTokens[oldTokenId], \"R\n      EXP \t\t\tokedTokens[oldTokenId], \"R\n      SWAP1 \t\t\tokedTokens[oldTokenId], \"R\n      DIV \t\t\tokedTokens[oldTokenId], \"R\n      PUSH FF\t\t\tokedTokens[oldTokenId], \"R\n      AND \t\t\tokedTokens[oldTokenId], \"R\n      ISZERO \t\t\tvokedTokens[oldTokenId], \"R\n      PUSH [tag] 331\t\t\tire(!_revokedTokens[oldTokenId...\n      JUMPI \t\t\tire(!_revokedTokens[oldTokenId...\n      PUSH 40\t\t\tire(!_revokedTokens[oldTokenId...\n      MLOAD \t\t\tire(!_revokedTokens[oldTokenId...\n      PUSH 8C379A000000000000000000000000000000000000000000000000000000000\t\t\tire(!_revokedTokens[oldTokenId...\n      DUP2 \t\t\tire(!_revokedTokens[oldTokenId...\n      MSTORE \t\t\tire(!_revokedTokens[oldTokenId...\n      PUSH 4\t\t\tire(!_revokedTokens[oldTokenId...\n      ADD \t\t\tire(!_revokedTokens[oldTokenId...\n      PUSH [tag] 332\t\t\tire(!_revokedTokens[oldTokenId...\n      SWAP1 \t\t\tire(!_revokedTokens[oldTokenId...\n      PUSH [tag] 238\t\t\tire(!_revokedTokens[oldTokenId...\n      JUMP \t\t\tire(!_revokedTokens[oldTokenId...\n    tag 332\t\t\tire(!_revokedTokens[oldTokenId...\n      JUMPDEST \t\t\tire(!_revokedTokens[oldTokenId...\n      PUSH 40\t\t\tire(!_revokedTokens[oldTokenId...\n      MLOAD \t\t\tire(!_revokedTokens[oldTokenId...\n      DUP1 \t\t\tire(!_revokedTokens[oldTokenId...\n      SWAP2 \t\t\tire(!_revokedTokens[oldTokenId...\n      SUB \t\t\tire(!_revokedTokens[oldTokenId...\n      SWAP1 \t\t\tire(!_revokedTokens[oldTokenId...\n      REVERT \t\t\tire(!_revokedTokens[oldTokenId...\n    tag 331\t\t\tire(!_revokedTokens[oldTokenId...\n      JUMPDEST \t\t\tire(!_revokedTokens[oldTokenId...\n      PUSH 1\t\t\t;\\n  \n      PUSH B\t\t\tokedTokens[old\n      PUSH 0\t\t\tokedTokens[oldTokenId] = t\n      DUP4 \t\t\tokenId] = \n      DUP2 \t\t\tokedTokens[oldTokenId] = t\n      MSTORE \t\t\tokedTokens[oldTokenId] = t\n      PUSH 20\t\t\tokedTokens[oldTokenId] = t\n      ADD \t\t\tokedTokens[oldTokenId] = t\n      SWAP1 \t\t\tokedTokens[oldTokenId] = t\n      DUP2 \t\t\tokedTokens[oldTokenId] = t\n      MSTORE \t\t\tokedTokens[oldTokenId] = t\n      PUSH 20\t\t\tokedTokens[oldTokenId] = t\n      ADD \t\t\tokedTokens[oldTokenId] = t\n      PUSH 0\t\t\tokedTokens[oldTokenId] = t\n      KECCAK256 \t\t\tokedTokens[oldTokenId] = t\n      PUSH 0\t\t\tokedTokens[oldTokenId] = t\n      PUSH 100\t\t\tokedTokens[oldTokenId] = true;...\n      EXP \t\t\tokedTokens[oldTokenId] = true;...\n      DUP2 \t\t\tokedTokens[oldTokenId] = true;...\n      SLOAD \t\t\tokedTokens[oldTokenId] = true;...\n      DUP2 \t\t\tokedTokens[oldTokenId] = true;...\n      PUSH FF\t\t\tokedTokens[oldTokenId] = true;...\n      MUL \t\t\tokedTokens[oldTokenId] = true;...\n      NOT \t\t\tokedTokens[oldTokenId] = true;...\n      AND \t\t\tokedTokens[oldTokenId] = true;...\n      SWAP1 \t\t\tokedTokens[oldTokenId] = true;...\n      DUP4 \t\t\tokedTokens[oldTokenId] = true;...\n      ISZERO \t\t\tokedTokens[oldTokenId] = true;...\n      ISZERO \t\t\tokedTokens[oldTokenId] = true;...\n      MUL \t\t\tokedTokens[oldTokenId] = true;...\n      OR \t\t\tokedTokens[oldTokenId] = true;...\n      SWAP1 \t\t\tokedTokens[oldTokenId] = true;...\n      SSTORE \t\t\tokedTokens[oldTokenId] = true;...\n      POP \t\t\tokedTokens[oldTokenId] = true;...\n      PUSH 1\t\t\t;\\n  \n      PUSH C\t\t\tokedAddresses[old\n      PUSH 0\t\t\tokedAddresses[oldWallet] = t\n      DUP7 \t\t\tallet] = \n      PUSH FFFFFFFFFFFFFFFFFFFFFFFFFFFFFFFFFFFFFFFF\t\t\tokedAddresses[oldWallet] = t\n      AND \t\t\tokedAddresses[oldWallet] = t\n      PUSH FFFFFFFFFFFFFFFFFFFFFFFFFFFFFFFFFFFFFFFF\t\t\tokedAddresses[oldWallet] = t\n      AND \t\t\tokedAddresses[oldWallet] = t\n      DUP2 \t\t\tokedAddresses[oldWallet] = t\n      MSTORE \t\t\tokedAddresses[oldWallet] = t\n      PUSH 20\t\t\tokedAddresses[oldWallet] = t\n      ADD \t\t\tokedAddresses[oldWallet] = t\n      SWAP1 \t\t\tokedAddresses[oldWallet] = t\n      DUP2 \t\t\tokedAddresses[oldWallet] = t\n      MSTORE \t\t\tokedAddresses[oldWallet] = t\n      PUSH 20\t\t\tokedAddresses[oldWallet] = t\n      ADD \t\t\tokedAddresses[oldWallet] = t\n      PUSH 0\t\t\tokedAddresses[oldWallet] = t\n      KECCAK256 \t\t\tokedAddresses[oldWallet] = t\n      PUSH 0\t\t\tokedAddresses[oldWallet] = t\n      PUSH 100\t\t\tokedAddresses[oldWallet] = tru...\n      EXP \t\t\tokedAddresses[oldWallet] = tru...\n      DUP2 \t\t\tokedAddresses[oldWallet] = tru...\n      SLOAD \t\t\tokedAddresses[oldWallet] = tru...\n      DUP2 \t\t\tokedAddresses[oldWallet] = tru...\n      PUSH FF\t\t\tokedAddresses[oldWallet] = tru...\n      MUL \t\t\tokedAddresses[oldWallet] = tru...\n      NOT \t\t\tokedAddresses[oldWallet] = tru...\n      AND \t\t\tokedAddresses[oldWallet] = tru...\n      SWAP1 \t\t\tokedAddresses[oldWallet] = tru...\n      DUP4 \t\t\tokedAddresses[oldWallet] = tru...\n      ISZERO \t\t\tokedAddresses[oldWallet] = tru...\n      ISZERO \t\t\tokedAddresses[oldWallet] = tru...\n      MUL \t\t\tokedAddresses[oldWallet] = tru...\n      OR \t\t\tokedAddresses[oldWallet] = tru...\n      SWAP1 \t\t\tokedAddresses[oldWallet] = tru...\n      SSTORE \t\t\tokedAddresses[oldWallet] = tru...\n      POP \t\t\tokedAddresses[oldWallet] = tru...\n      PUSH D\t\t\tenCounter++;\\n\n      PUSH 0\t\t\tenCounter++;\\n\n      DUP2 \t\t\tenCounter++;\\n  \n      SLOAD \t\t\tenCounter++;\\n  \n      DUP1 \t\t\tenCounter++;\\n  \n      SWAP3 \t\t\tenCounter++;\\n  \n      SWAP2 \t\t\tenCounter++;\\n  \n      SWAP1 \t\t\tenCounter++;\\n  \n      PUSH [tag] 333\t\t\tenCounter++;\\n  \n      SWAP1 \t\t\tenCounter++;\\n  \n      PUSH [tag] 334\t\t\tenCounter++;\\n  \n      JUMP \t\t\tenCounter++;\\n  \n    tag 333\t\t\tenCounter++;\\n  \n      JUMPDEST \t\t\tenCounter++;\\n  \n      SWAP2 \t\t\tenCounter++;\\n  \n      SWAP1 \t\t\tenCounter++;\\n  \n      POP \t\t\tenCounter++;\\n  \n      SSTORE \t\t\tenCounter++;\\n  \n      POP \t\t\tenCounter++;\\n  \n      PUSH 0\t\t\t256 newTokenId = _\n      PUSH D\t\t\tenCounter;\\n  \n      SLOAD \t\t\tenCounter;\\n  \n      SWAP1 \t\t\t256 newTokenId = _tokenCounter...\n      POP \t\t\t256 newTokenId = _tokenCounter...\n      PUSH 0\t\t\trofile memory oldProfile = _\n      PUSH 8\t\t\tenProfiles[old\n      PUSH 0\t\t\tenProfiles[oldTokenId];\\n  \n      DUP5 \t\t\tokenId];\\n \n      DUP2 \t\t\tenProfiles[oldTokenId];\\n  \n      MSTORE \t\t\tenProfiles[oldTokenId];\\n  \n      PUSH 20\t\t\tenProfiles[oldTokenId];\\n  \n      ADD \t\t\tenProfiles[oldTokenId];\\n  \n      SWAP1 \t\t\tenProfiles[oldTokenId];\\n  \n      DUP2 \t\t\tenProfiles[oldTokenId];\\n  \n      MSTORE \t\t\tenProfiles[oldTokenId];\\n  \n      PUSH 20\t\t\tenProfiles[oldTokenId];\\n  \n      ADD \t\t\tenProfiles[oldTokenId];\\n  \n      PUSH 0\t\t\tenProfiles[oldTokenId];\\n  \n      KECCAK256 \t\t\tenProfiles[oldTokenId];\\n  \n      PUSH 40\t\t\trofile memory oldProfile = _to...\n      MLOAD \t\t\trofile memory oldProfile = _to...\n      DUP1 \t\t\trofile memory oldProfile = _to...\n      PUSH A0\t\t\trofile memory oldProfile = _to...\n      ADD \t\t\trofile memory oldProfile = _to...\n      PUSH 40\t\t\trofile memory oldProfile = _to...\n      MSTORE \t\t\trofile memory oldProfile = _to...\n      SWAP1 \t\t\trofile memory oldProfile = _to...\n      DUP2 \t\t\trofile memory oldProfile = _to...\n      PUSH 0\t\t\trofile memory oldProfile = _to...\n      DUP3 \t\t\trofile memory oldProfile = _to...\n      ADD \t\t\trofile memory oldProfile = _to...\n      PUSH 0\t\t\trofile memory oldProfile = _to...\n      SWAP1 \t\t\trofile memory oldProfile = _to...\n      SLOAD \t\t\trofile memory oldProfile = _to...\n      SWAP1 \t\t\trofile memory oldProfile = _to...\n      PUSH 100\t\t\trofile memory oldProfile = _to...\n      EXP \t\t\trofile memory oldProfile = _to...\n      SWAP1 \t\t\trofile memory oldProfile = _to...\n      DIV \t\t\trofile memory oldProfile = _to...\n      PUSH FFFFFFFFFFFFFFFFFFFFFFFFFFFFFFFFFFFFFFFF\t\t\trofile memory oldProfile = _to...\n      AND \t\t\trofile memory oldProfile = _to...\n      PUSH FFFFFFFFFFFFFFFFFFFFFFFFFFFFFFFFFFFFFFFF\t\t\trofile memory oldProfile = _to...\n      AND \t\t\trofile memory oldProfile = _to...\n      PUSH FFFFFFFFFFFFFFFFFFFFFFFFFFFFFFFFFFFFFFFF\t\t\trofile memory oldProfile = _to...\n      AND \t\t\trofile memory oldProfile = _to...\n      DUP2 \t\t\trofile memory oldProfile = _to...\n      MSTORE \t\t\trofile memory oldProfile = _to...\n      PUSH 20\t\t\trofile memory oldProfile = _to...\n      ADD \t\t\trofile memory oldProfile = _to...\n      PUSH 0\t\t\trofile memory oldProfile = _to...\n      DUP3 \t\t\trofile memory oldProfile = _to...\n      ADD \t\t\trofile memory oldProfile = _to...\n      PUSH 14\t\t\trofile memory oldProfile = _to...\n      SWAP1 \t\t\trofile memory oldProfile = _to...\n      SLOAD \t\t\trofile memory oldProfile = _to...\n      SWAP1 \t\t\trofile memory oldProfile = _to...\n      PUSH 100\t\t\trofile memory oldProfile = _to...\n      EXP \t\t\trofile memory oldProfile = _to...\n      SWAP1 \t\t\trofile memory oldProfile = _to...\n      DIV \t\t\trofile memory oldProfile = _to...\n      PUSH FFFFFFFFFFFFFFFF\t\t\trofile memory oldProfile = _to...\n      AND \t\t\trofile memory oldProfile = _to...\n      PUSH FFFFFFFFFFFFFFFF\t\t\trofile memory oldProfile = _to...\n      AND \t\t\trofile memory oldProfile = _to...\n      PUSH FFFFFFFFFFFFFFFF\t\t\trofile memory oldProfile = _to...\n      AND \t\t\trofile memory oldProfile = _to...\n      DUP2 \t\t\trofile memory oldProfile = _to...\n      MSTORE \t\t\trofile memory oldProfile = _to...\n      PUSH 20\t\t\trofile memory oldProfile = _to...\n      ADD \t\t\trofile memory oldProfile = _to...\n      PUSH 1\t\t\trofile memory oldProfile = _to...\n      DUP3 \t\t\trofile memory oldProfile = _to...\n      ADD \t\t\trofile memory oldProfile = _to...\n      PUSH 0\t\t\trofile memory oldProfile = _to...\n      SWAP1 \t\t\trofile memory oldProfile = _to...\n      SLOAD \t\t\trofile memory oldProfile = _to...\n      SWAP1 \t\t\trofile memory oldProfile = _to...\n      PUSH 100\t\t\trofile memory oldProfile = _to...\n      EXP \t\t\trofile memory oldProfile = _to...\n      SWAP1 \t\t\trofile memory oldProfile = _to...\n      DIV \t\t\trofile memory oldProfile = _to...\n      PUSH FFFFFFFFFFFFFFFF\t\t\trofile memory oldProfile = _to...\n      AND \t\t\trofile memory oldProfile = _to...\n      PUSH FFFFFFFFFFFFFFFF\t\t\trofile memory oldProfile = _to...\n      AND \t\t\trofile memory oldProfile = _to...\n      PUSH FFFFFFFFFFFFFFFF\t\t\trofile memory oldProfile = _to...\n      AND \t\t\trofile memory oldProfile = _to...\n      DUP2 \t\t\trofile memory oldProfile = _to...\n      MSTORE \t\t\trofile memory oldProfile = _to...\n      PUSH 20\t\t\trofile memory oldProfile = _to...\n      ADD \t\t\trofile memory oldProfile = _to...\n      PUSH 2\t\t\trofile memory oldProfile = _to...\n      DUP3 \t\t\trofile memory oldProfile = _to...\n      ADD \t\t\trofile memory oldProfile = _to...\n      SLOAD \t\t\trofile memory oldProfile = _to...\n      DUP2 \t\t\trofile memory oldProfile = _to...\n      MSTORE \t\t\trofile memory oldProfile = _to...\n      PUSH 20\t\t\trofile memory oldProfile = _to...\n      ADD \t\t\trofile memory oldProfile = _to...\n      PUSH 3\t\t\trofile memory oldProfile = _to...\n      DUP3 \t\t\trofile memory oldProfile = _to...\n      ADD \t\t\trofile memory oldProfile = _to...\n      DUP1 \t\t\trofile memory oldProfile = _to...\n      SLOAD \t\t\trofile memory oldProfile = _to...\n      PUSH [tag] 335\t\t\trofile memory oldProfile = _to...\n      SWAP1 \t\t\trofile memory oldProfile = _to...\n      PUSH [tag] 203\t\t\trofile memory oldProfile = _to...\n      JUMP \t\t\trofile memory oldProfile = _to...\n    tag 335\t\t\trofile memory oldProfile = _to...\n      JUMPDEST \t\t\trofile memory oldProfile = _to...\n      DUP1 \t\t\trofile memory oldProfile = _to...\n      PUSH 1F\t\t\trofile memory oldProfile = _to...\n      ADD \t\t\trofile memory oldProfile = _to...\n      PUSH 20\t\t\trofile memory oldProfile = _to...\n      DUP1 \t\t\trofile memory oldProfile = _to...\n      SWAP2 \t\t\trofile memory oldProfile = _to...\n      DIV \t\t\trofile memory oldProfile = _to...\n      MUL \t\t\trofile memory oldProfile = _to...\n      PUSH 20\t\t\trofile memory oldProfile = _to...\n      ADD \t\t\trofile memory oldProfile = _to...\n      PUSH 40\t\t\trofile memory oldProfile = _to...\n      MLOAD \t\t\trofile memory oldProfile = _to...\n      SWAP1 \t\t\trofile memory oldProfile = _to...\n      DUP2 \t\t\trofile memory oldProfile = _to...\n      ADD \t\t\trofile memory oldProfile = _to...\n      PUSH 40\t\t\trofile memory oldProfile = _to...\n      MSTORE \t\t\trofile memory oldProfile = _to...\n      DUP1 \t\t\trofile memory oldProfile = _to...\n      SWAP3 \t\t\trofile memory oldProfile = _to...\n      SWAP2 \t\t\trofile memory oldProfile = _to...\n      SWAP1 \t\t\trofile memory oldProfile = _to...\n      DUP2 \t\t\trofile memory oldProfile = _to...\n      DUP2 \t\t\trofile memory oldProfile = _to...\n      MSTORE \t\t\trofile memory oldProfile = _to...\n      PUSH 20\t\t\trofile memory oldProfile = _to...\n      ADD \t\t\trofile memory oldProfile = _to...\n      DUP3 \t\t\trofile memory oldProfile = _to...\n      DUP1 \t\t\trofile memory oldProfile = _to...\n      SLOAD \t\t\trofile memory oldProfile = _to...\n      PUSH [tag] 336\t\t\trofile memory oldProfile = _to...\n      SWAP1 \t\t\trofile memory oldProfile = _to...\n      PUSH [tag] 203\t\t\trofile memory oldProfile = _to...\n      JUMP \t\t\trofile memory oldProfile = _to...\n    tag 336\t\t\trofile memory oldProfile = _to...\n      JUMPDEST \t\t\trofile memory oldProfile = _to...\n      DUP1 \t\t\trofile memory oldProfile = _to...\n      ISZERO \t\t\trofile memory oldProfile = _to...\n      PUSH [tag] 337\t\t\trofile memory oldProfile = _to...\n      JUMPI \t\t\trofile memory oldProfile = _to...\n      DUP1 \t\t\trofile memory oldProfile = _to...\n      PUSH 1F\t\t\trofile memory oldProfile = _to...\n      LT \t\t\trofile memory oldProfile = _to...\n      PUSH [tag] 338\t\t\trofile memory oldProfile = _to...\n      JUMPI \t\t\trofile memory oldProfile = _to...\n      PUSH 100\t\t\trofile memory oldProfile = _to...\n      DUP1 \t\t\trofile memory oldProfile = _to...\n      DUP4 \t\t\trofile memory oldProfile = _to...\n      SLOAD \t\t\trofile memory oldProfile = _to...\n      DIV \t\t\trofile memory oldProfile = _to...\n      MUL \t\t\trofile memory oldProfile = _to...\n      DUP4 \t\t\trofile memory oldProfile = _to...\n      MSTORE \t\t\trofile memory oldProfile = _to...\n      SWAP2 \t\t\trofile memory oldProfile = _to...\n      PUSH 20\t\t\trofile memory oldProfile = _to...\n      ADD \t\t\trofile memory oldProfile = _to...\n      SWAP2 \t\t\trofile memory oldProfile = _to...\n      PUSH [tag] 337\t\t\trofile memory oldProfile = _to...\n      JUMP \t\t\trofile memory oldProfile = _to...\n    tag 338\t\t\trofile memory oldProfile = _to...\n      JUMPDEST \t\t\trofile memory oldProfile = _to...\n      DUP3 \t\t\trofile memory oldProfile = _to...\n      ADD \t\t\trofile memory oldProfile = _to...\n      SWAP2 \t\t\trofile memory oldProfile = _to...\n      SWAP1 \t\t\trofile memory oldProfile = _to...\n      PUSH 0\t\t\trofile memory oldProfile = _to...\n      MSTORE \t\t\trofile memory oldProfile = _to...\n      PUSH 20\t\t\trofile memory oldProfile = _to...\n      PUSH 0\t\t\trofile memory oldProfile = _to...\n      KECCAK256 \t\t\trofile memory oldProfile = _to...\n      SWAP1 \t\t\trofile memory oldProfile = _to...\n    tag 339\t\t\trofile memory oldProfile = _to...\n      JUMPDEST \t\t\trofile memory oldProfile = _to...\n      DUP2 \t\t\trofile memory oldProfile = _to...\n      SLOAD \t\t\trofile memory oldProfile = _to...\n      DUP2 \t\t\trofile memory oldProfile = _to...\n      MSTORE \t\t\trofile memory oldProfile = _to...\n      SWAP1 \t\t\trofile memory oldProfile = _to...\n      PUSH 1\t\t\trofile memory oldProfile = _to...\n      ADD \t\t\trofile memory oldProfile = _to...\n      SWAP1 \t\t\trofile memory oldProfile = _to...\n      PUSH 20\t\t\trofile memory oldProfile = _to...\n      ADD \t\t\trofile memory oldProfile = _to...\n      DUP1 \t\t\trofile memory oldProfile = _to...\n      DUP4 \t\t\trofile memory oldProfile = _to...\n      GT \t\t\trofile memory oldProfile = _to...\n      PUSH [tag] 339\t\t\trofile memory oldProfile = _to...\n      JUMPI \t\t\trofile memory oldProfile = _to...\n      DUP3 \t\t\trofile memory oldProfile = _to...\n      SWAP1 \t\t\trofile memory oldProfile = _to...\n      SUB \t\t\trofile memory oldProfile = _to...\n      PUSH 1F\t\t\trofile memory oldProfile = _to...\n      AND \t\t\trofile memory oldProfile = _to...\n      DUP3 \t\t\trofile memory oldProfile = _to...\n      ADD \t\t\trofile memory oldProfile = _to...\n      SWAP2 \t\t\trofile memory oldProfile = _to...\n    tag 337\t\t\trofile memory oldProfile = _to...\n      JUMPDEST \t\t\trofile memory oldProfile = _to...\n      POP \t\t\trofile memory oldProfile = _to...\n      POP \t\t\trofile memory oldProfile = _to...\n      POP \t\t\trofile memory oldProfile = _to...\n      POP \t\t\trofile memory oldProfile = _to...\n      POP \t\t\trofile memory oldProfile = _to...\n      DUP2 \t\t\trofile memory oldProfile = _to...\n      MSTORE \t\t\trofile memory oldProfile = _to...\n      POP \t\t\trofile memory oldProfile = _to...\n      POP \t\t\trofile memory oldProfile = _to...\n      SWAP1 \t\t\trofile memory oldProfile = _to...\n      POP \t\t\trofile memory oldProfile = _to...\n      PUSH 0\t\t\trofile memory newProfile = D\n      PUSH 40\t\t\trofile({\\n            owner: n...\n      MLOAD \t\t\trofile({\\n            owner: n...\n      DUP1 \t\t\trofile({\\n            owner: n...\n      PUSH A0\t\t\trofile({\\n            owner: n...\n      ADD \t\t\trofile({\\n            owner: n...\n      PUSH 40\t\t\trofile({\\n            owner: n...\n      MSTORE \t\t\trofile({\\n            owner: n...\n      DUP1 \t\t\trofile({\\n            owner: n...\n      DUP8 \t\t\tallet,\\n  \n      PUSH FFFFFFFFFFFFFFFFFFFFFFFFFFFFFFFFFFFFFFFF\t\t\trofile({\\n            owner: n...\n      AND \t\t\trofile({\\n            owner: n...\n      DUP2 \t\t\trofile({\\n            owner: n...\n      MSTORE \t\t\trofile({\\n            owner: n...\n      PUSH 20\t\t\trofile({\\n            owner: n...\n      ADD \t\t\trofile({\\n            owner: n...\n      TIMESTAMP \t\t\tk.timestamp),\\n \n      PUSH FFFFFFFFFFFFFFFF\t\t\trofile({\\n            owner: n...\n      AND \t\t\trofile({\\n            owner: n...\n      DUP2 \t\t\trofile({\\n            owner: n...\n      MSTORE \t\t\trofile({\\n            owner: n...\n      PUSH 20\t\t\trofile({\\n            owner: n...\n      ADD \t\t\trofile({\\n            owner: n...\n      TIMESTAMP \t\t\tk.timestamp),\\n \n      PUSH FFFFFFFFFFFFFFFF\t\t\trofile({\\n            owner: n...\n      AND \t\t\trofile({\\n            owner: n...\n      DUP2 \t\t\trofile({\\n            owner: n...\n      MSTORE \t\t\trofile({\\n            owner: n...\n      PUSH 20\t\t\trofile({\\n            owner: n...\n      ADD \t\t\trofile({\\n            owner: n...\n      DUP7 \t\t\trChatReference ? b\n      PUSH [tag] 340\t\t\trChatReference ? bytes32(0) : ...\n      JUMPI \t\t\trChatReference ? bytes32(0) : ...\n      DUP4 \t\t\trofile.cha\n      PUSH 60\t\t\trofile.chatDataReference,\\n  \n      ADD \t\t\trofile.chatDataReference,\\n  \n      MLOAD \t\t\trofile.chatDataReference,\\n  \n      PUSH [tag] 341\t\t\trChatReference ? bytes32(0) : ...\n      JUMP \t\t\trChatReference ? bytes32(0) : ...\n    tag 340\t\t\trChatReference ? bytes32(0) : ...\n      JUMPDEST \t\t\trChatReference ? bytes32(0) : ...\n      PUSH 0\t\t\t \n      DUP1 \t\t\ts32(0) : o\n      SHL \t\t\ts32(0) : o\n    tag 341\t\t\trChatReference ? bytes32(0) : ...\n      JUMPDEST \t\t\trChatReference ? bytes32(0) : ...\n      DUP2 \t\t\trofile({\\n            owner: n...\n      MSTORE \t\t\trofile({\\n            owner: n...\n      PUSH 20\t\t\trofile({\\n            owner: n...\n      ADD \t\t\trofile({\\n            owner: n...\n      DUP7 \t\t\trChatReference ? b\n      PUSH [tag] 342\t\t\trChatReference ? bytes(\"\") : o...\n      JUMPI \t\t\trChatReference ? bytes(\"\") : o...\n      DUP4 \t\t\trofile.enc\n      PUSH 80\t\t\trofile.encryptedKeyMetadata\\n ...\n      ADD \t\t\trofile.encryptedKeyMetadata\\n ...\n      MLOAD \t\t\trofile.encryptedKeyMetadata\\n ...\n      PUSH [tag] 343\t\t\trChatReference ? bytes(\"\") : o...\n      JUMP \t\t\trChatReference ? bytes(\"\") : o...\n    tag 342\t\t\trChatReference ? bytes(\"\") : o...\n      JUMPDEST \t\t\trChatReference ? bytes(\"\") : o...\n      PUSH 40\t\t\ts(\"\") : o\n      MLOAD \t\t\ts(\"\") : o\n      DUP1 \t\t\ts(\"\") : o\n      PUSH 20\t\t\ts(\"\") : o\n      ADD \t\t\ts(\"\") : o\n      PUSH 40\t\t\ts(\"\") : o\n      MSTORE \t\t\ts(\"\") : o\n      DUP1 \t\t\ts(\"\") : o\n      PUSH 0\t\t\ts(\"\") : o\n      DUP2 \t\t\ts(\"\") : o\n      MSTORE \t\t\ts(\"\") : o\n      POP \t\t\ts(\"\") : o\n    tag 343\t\t\trChatReference ? bytes(\"\") : o...\n      JUMPDEST \t\t\trChatReference ? bytes(\"\") : o...\n      DUP2 \t\t\trofile({\\n            owner: n...\n      MSTORE \t\t\trofile({\\n            owner: n...\n      POP \t\t\trofile({\\n            owner: n...\n      SWAP1 \t\t\trofile memory newProfile = Did...\n      POP \t\t\trofile memory newProfile = Did...\n      DUP1 \t\t\trofile;\\n  \n      PUSH 8\t\t\tenProfiles[new\n      PUSH 0\t\t\tenProfiles[newTokenId] = n\n      DUP6 \t\t\tokenId] = \n      DUP2 \t\t\tenProfiles[newTokenId] = n\n      MSTORE \t\t\tenProfiles[newTokenId] = n\n      PUSH 20\t\t\tenProfiles[newTokenId] = n\n      ADD \t\t\tenProfiles[newTokenId] = n\n      SWAP1 \t\t\tenProfiles[newTokenId] = n\n      DUP2 \t\t\tenProfiles[newTokenId] = n\n      MSTORE \t\t\tenProfiles[newTokenId] = n\n      PUSH 20\t\t\tenProfiles[newTokenId] = n\n      ADD \t\t\tenProfiles[newTokenId] = n\n      PUSH 0\t\t\tenProfiles[newTokenId] = n\n      KECCAK256 \t\t\tenProfiles[newTokenId] = n\n      PUSH 0\t\t\tenProfiles[newTokenId] = newPr...\n      DUP3 \t\t\tenProfiles[newTokenId] = newPr...\n      ADD \t\t\tenProfiles[newTokenId] = newPr...\n      MLOAD \t\t\tenProfiles[newTokenId] = newPr...\n      DUP2 \t\t\tenProfiles[newTokenId] = newPr...\n      PUSH 0\t\t\tenProfiles[newTokenId] = newPr...\n      ADD \t\t\tenProfiles[newTokenId] = newPr...\n      PUSH 0\t\t\tenProfiles[newTokenId] = newPr...\n      PUSH 100\t\t\tenProfiles[newTokenId] = newPr...\n      EXP \t\t\tenProfiles[newTokenId] = newPr...\n      DUP2 \t\t\tenProfiles[newTokenId] = newPr...\n      SLOAD \t\t\tenProfiles[newTokenId] = newPr...\n      DUP2 \t\t\tenProfiles[newTokenId] = newPr...\n      PUSH FFFFFFFFFFFFFFFFFFFFFFFFFFFFFFFFFFFFFFFF\t\t\tenProfiles[newTokenId] = newPr...\n      MUL \t\t\tenProfiles[newTokenId] = newPr...\n      NOT \t\t\tenProfiles[newTokenId] = newPr...\n      AND \t\t\tenProfiles[newTokenId] = newPr...\n      SWAP1 \t\t\tenProfiles[newTokenId] = newPr...\n      DUP4 \t\t\tenProfiles[newTokenId] = newPr...\n      PUSH FFFFFFFFFFFFFFFFFFFFFFFFFFFFFFFFFFFFFFFF\t\t\tenProfiles[newTokenId] = newPr...\n      AND \t\t\tenProfiles[newTokenId] = newPr...\n      MUL \t\t\tenProfiles[newTokenId] = newPr...\n      OR \t\t\tenProfiles[newTokenId] = newPr...\n      SWAP1 \t\t\tenProfiles[newTokenId] = newPr...\n      SSTORE \t\t\tenProfiles[newTokenId] = newPr...\n      POP \t\t\tenProfiles[newTokenId] = newPr...\n      PUSH 20\t\t\tenProfiles[newTokenId] = newPr...\n      DUP3 \t\t\tenProfiles[newTokenId] = newPr...\n      ADD \t\t\tenProfiles[newTokenId] = newPr...\n      MLOAD \t\t\tenProfiles[newTokenId] = newPr...\n      DUP2 \t\t\tenProfiles[newTokenId] = newPr...\n      PUSH 0\t\t\tenProfiles[newTokenId] = newPr...\n      ADD \t\t\tenProfiles[newTokenId] = newPr...\n      PUSH 14\t\t\tenProfiles[newTokenId] = newPr...\n      PUSH 100\t\t\tenProfiles[newTokenId] = newPr...\n      EXP \t\t\tenProfiles[newTokenId] = newPr...\n      DUP2 \t\t\tenProfiles[newTokenId] = newPr...\n      SLOAD \t\t\tenProfiles[newTokenId] = newPr...\n      DUP2 \t\t\tenProfiles[newTokenId] = newPr...\n      PUSH FFFFFFFFFFFFFFFF\t\t\tenProfiles[newTokenId] = newPr...\n      MUL \t\t\tenProfiles[newTokenId] = newPr...\n      NOT \t\t\tenProfiles[newTokenId] = newPr...\n      AND \t\t\tenProfiles[newTokenId] = newPr...\n      SWAP1 \t\t\tenProfiles[newTokenId] = newPr...\n      DUP4 \t\t\tenProfiles[newTokenId] = newPr...\n      PUSH FFFFFFFFFFFFFFFF\t\t\tenProfiles[newTokenId] = newPr...\n      AND \t\t\tenProfiles[newTokenId] = newPr...\n      MUL \t\t\tenProfiles[newTokenId] = newPr...\n      OR \t\t\tenProfiles[newTokenId] = newPr...\n      SWAP1 \t\t\tenProfiles[newTokenId] = newPr...\n      SSTORE \t\t\tenProfiles[newTokenId] = newPr...\n      POP \t\t\tenProfiles[newTokenId] = newPr...\n      PUSH 40\t\t\tenProfiles[newTokenId] = newPr...\n      DUP3 \t\t\tenProfiles[newTokenId] = newPr...\n      ADD \t\t\tenProfiles[newTokenId] = newPr...\n      MLOAD \t\t\tenProfiles[newTokenId] = newPr...\n      DUP2 \t\t\tenProfiles[newTokenId] = newPr...\n      PUSH 1\t\t\tenProfiles[newTokenId] = newPr...\n      ADD \t\t\tenProfiles[newTokenId] = newPr...\n      PUSH 0\t\t\tenProfiles[newTokenId] = newPr...\n      PUSH 100\t\t\tenProfiles[newTokenId] = newPr...\n      EXP \t\t\tenProfiles[newTokenId] = newPr...\n      DUP2 \t\t\tenProfiles[newTokenId] = newPr...\n      SLOAD \t\t\tenProfiles[newTokenId] = newPr...\n      DUP2 \t\t\tenProfiles[newTokenId] = newPr...\n      PUSH FFFFFFFFFFFFFFFF\t\t\tenProfiles[newTokenId] = newPr...\n      MUL \t\t\tenProfiles[newTokenId] = newPr...\n      NOT \t\t\tenProfiles[newTokenId] = newPr...\n      AND \t\t\tenProfiles[newTokenId] = newPr...\n      SWAP1 \t\t\tenProfiles[newTokenId] = newPr...\n      DUP4 \t\t\tenProfiles[newTokenId] = newPr...\n      PUSH FFFFFFFFFFFFFFFF\t\t\tenProfiles[newTokenId] = newPr...\n      AND \t\t\tenProfiles[newTokenId] = newPr...\n      MUL \t\t\tenProfiles[newTokenId] = newPr...\n      OR \t\t\tenProfiles[newTokenId] = newPr...\n      SWAP1 \t\t\tenProfiles[newTokenId] = newPr...\n      SSTORE \t\t\tenProfiles[newTokenId] = newPr...\n      POP \t\t\tenProfiles[newTokenId] = newPr...\n      PUSH 60\t\t\tenProfiles[newTokenId] = newPr...\n      DUP3 \t\t\tenProfiles[newTokenId] = newPr...\n      ADD \t\t\tenProfiles[newTokenId] = newPr...\n      MLOAD \t\t\tenProfiles[newTokenId] = newPr...\n      DUP2 \t\t\tenProfiles[newTokenId] = newPr...\n      PUSH 2\t\t\tenProfiles[newTokenId] = newPr...\n      ADD \t\t\tenProfiles[newTokenId] = newPr...\n      SSTORE \t\t\tenProfiles[newTokenId] = newPr...\n      PUSH 80\t\t\tenProfiles[newTokenId] = newPr...\n      DUP3 \t\t\tenProfiles[newTokenId] = newPr...\n      ADD \t\t\tenProfiles[newTokenId] = newPr...\n      MLOAD \t\t\tenProfiles[newTokenId] = newPr...\n      DUP2 \t\t\tenProfiles[newTokenId] = newPr...\n      PUSH 3\t\t\tenProfiles[newTokenId] = newPr...\n      ADD \t\t\tenProfiles[newTokenId] = newPr...\n      SWAP1 \t\t\tenProfiles[newTokenId] = newPr...\n      DUP2 \t\t\tenProfiles[newTokenId] = newPr...\n      PUSH [tag] 344\t\t\tenProfiles[newTokenId] = newPr...\n      SWAP2 \t\t\tenProfiles[newTokenId] = newPr...\n      SWAP1 \t\t\tenProfiles[newTokenId] = newPr...\n      PUSH [tag] 345\t\t\tenProfiles[newTokenId] = newPr...\n      JUMP \t\t\tenProfiles[newTokenId] = newPr...\n    tag 344\t\t\tenProfiles[newTokenId] = newPr...\n      JUMPDEST \t\t\tenProfiles[newTokenId] = newPr...\n      POP \t\t\tenProfiles[newTokenId] = newPr...\n      SWAP1 \t\t\tenProfiles[newTokenId] = newPr...\n      POP \t\t\tenProfiles[newTokenId] = newPr...\n      POP \t\t\tenProfiles[newTokenId] = newPr...\n      DUP3 \t\t\tokenId;\\n  \n      PUSH 9\t\t\terToTokenId[new\n      PUSH 0\t\t\terToTokenId[newWallet] = n\n      DUP9 \t\t\tallet] = \n      PUSH FFFFFFFFFFFFFFFFFFFFFFFFFFFFFFFFFFFFFFFF\t\t\terToTokenId[newWallet] = n\n      AND \t\t\terToTokenId[newWallet] = n\n      PUSH FFFFFFFFFFFFFFFFFFFFFFFFFFFFFFFFFFFFFFFF\t\t\terToTokenId[newWallet] = n\n      AND \t\t\terToTokenId[newWallet] = n\n      DUP2 \t\t\terToTokenId[newWallet] = n\n      MSTORE \t\t\terToTokenId[newWallet] = n\n      PUSH 20\t\t\terToTokenId[newWallet] = n\n      ADD \t\t\terToTokenId[newWallet] = n\n      SWAP1 \t\t\terToTokenId[newWallet] = n\n      DUP2 \t\t\terToTokenId[newWallet] = n\n      MSTORE \t\t\terToTokenId[newWallet] = n\n      PUSH 20\t\t\terToTokenId[newWallet] = n\n      ADD \t\t\terToTokenId[newWallet] = n\n      PUSH 0\t\t\terToTokenId[newWallet] = n\n      KECCAK256 \t\t\terToTokenId[newWallet] = n\n      DUP2 \t\t\terToTokenId[newWallet] = newTo...\n      SWAP1 \t\t\terToTokenId[newWallet] = newTo...\n      SSTORE \t\t\terToTokenId[newWallet] = newTo...\n      POP \t\t\terToTokenId[newWallet] = newTo...\n      PUSH 1\t\t\t;\\n  \n      PUSH A\t\t\tDid[new\n      PUSH 0\t\t\tDid[newWallet] = t\n      DUP9 \t\t\tallet] = \n      PUSH FFFFFFFFFFFFFFFFFFFFFFFFFFFFFFFFFFFFFFFF\t\t\tDid[newWallet] = t\n      AND \t\t\tDid[newWallet] = t\n      PUSH FFFFFFFFFFFFFFFFFFFFFFFFFFFFFFFFFFFFFFFF\t\t\tDid[newWallet] = t\n      AND \t\t\tDid[newWallet] = t\n      DUP2 \t\t\tDid[newWallet] = t\n      MSTORE \t\t\tDid[newWallet] = t\n      PUSH 20\t\t\tDid[newWallet] = t\n      ADD \t\t\tDid[newWallet] = t\n      SWAP1 \t\t\tDid[newWallet] = t\n      DUP2 \t\t\tDid[newWallet] = t\n      MSTORE \t\t\tDid[newWallet] = t\n      PUSH 20\t\t\tDid[newWallet] = t\n      ADD \t\t\tDid[newWallet] = t\n      PUSH 0\t\t\tDid[newWallet] = t\n      KECCAK256 \t\t\tDid[newWallet] = t\n      PUSH 0\t\t\tDid[newWallet] = t\n      PUSH 100\t\t\tDid[newWallet] = true;\\n  \n      EXP \t\t\tDid[newWallet] = true;\\n  \n      DUP2 \t\t\tDid[newWallet] = true;\\n  \n      SLOAD \t\t\tDid[newWallet] = true;\\n  \n      DUP2 \t\t\tDid[newWallet] = true;\\n  \n      PUSH FF\t\t\tDid[newWallet] = true;\\n  \n      MUL \t\t\tDid[newWallet] = true;\\n  \n      NOT \t\t\tDid[newWallet] = true;\\n  \n      AND \t\t\tDid[newWallet] = true;\\n  \n      SWAP1 \t\t\tDid[newWallet] = true;\\n  \n      DUP4 \t\t\tDid[newWallet] = true;\\n  \n      ISZERO \t\t\tDid[newWallet] = true;\\n  \n      ISZERO \t\t\tDid[newWallet] = true;\\n  \n      MUL \t\t\tDid[newWallet] = true;\\n  \n      OR \t\t\tDid[newWallet] = true;\\n  \n      SWAP1 \t\t\tDid[newWallet] = true;\\n  \n      SSTORE \t\t\tDid[newWallet] = true;\\n  \n      POP \t\t\tDid[newWallet] = true;\\n  \n      PUSH [tag] 346\t\t\teMint(newWallet, newTokenId);\\...\n      DUP7 \t\t\tallet, ne\n      DUP5 \t\t\tokenId);\\n \n      PUSH [tag] 347\t\t\teMint(new\n      JUMP \t\t\teMint(newWallet, newTokenId);\\...\n    tag 346\t\t\teMint(newWallet, newTokenId);\\...\n      JUMPDEST \t\t\teMint(newWallet, newTokenId);\\...\n      DUP4 \t\t\tokenId, ui\n      DUP8 \t\t\tallet, ol\n      PUSH FFFFFFFFFFFFFFFFFFFFFFFFFFFFFFFFFFFFFFFF\t\t\tevoked(oldWallet, oldTokenId, ...\n      AND \t\t\tevoked(oldWallet, oldTokenId, ...\n      PUSH E8CCF73831B7F096110633FC510FB0D4E739D5DF4DA47CB20FDBCD06711DD6F5\t\t\tevoked(oldWallet, oldTokenId, ...\n      TIMESTAMP \t\t\tk.timestamp));\\n\n      PUSH 40\t\t\tevoked(oldWallet, oldTokenId, ...\n      MLOAD \t\t\tevoked(oldWallet, oldTokenId, ...\n      PUSH [tag] 348\t\t\tevoked(oldWallet, oldTokenId, ...\n      SWAP2 \t\t\tevoked(oldWallet, oldTokenId, ...\n      SWAP1 \t\t\tevoked(oldWallet, oldTokenId, ...\n      PUSH [tag] 246\t\t\tevoked(oldWallet, oldTokenId, ...\n      JUMP \t\t\tevoked(oldWallet, oldTokenId, ...\n    tag 348\t\t\tevoked(oldWallet, oldTokenId, ...\n      JUMPDEST \t\t\tevoked(oldWallet, oldTokenId, ...\n      PUSH 40\t\t\tevoked(oldWallet, oldTokenId, ...\n      MLOAD \t\t\tevoked(oldWallet, oldTokenId, ...\n      DUP1 \t\t\tevoked(oldWallet, oldTokenId, ...\n      SWAP2 \t\t\tevoked(oldWallet, oldTokenId, ...\n      SUB \t\t\tevoked(oldWallet, oldTokenId, ...\n      SWAP1 \t\t\tevoked(oldWallet, oldTokenId, ...\n      LOG3 \t\t\tevoked(oldWallet, oldTokenId, ...\n      DUP3 \t\t\tokenId, ui\n      DUP7 \t\t\tallet, ne\n      PUSH FFFFFFFFFFFFFFFFFFFFFFFFFFFFFFFFFFFFFFFF\t\t\treated(newWallet, newTokenId, ...\n      AND \t\t\treated(newWallet, newTokenId, ...\n      PUSH FD0C93BE4723CB4C74010465B445D5F99EEF0354F49EE7C247FA9EF9093AA8ED\t\t\treated(newWallet, newTokenId, ...\n      TIMESTAMP \t\t\tk.timestamp));\\n\n      PUSH 40\t\t\treated(newWallet, newTokenId, ...\n      MLOAD \t\t\treated(newWallet, newTokenId, ...\n      PUSH [tag] 349\t\t\treated(newWallet, newTokenId, ...\n      SWAP2 \t\t\treated(newWallet, newTokenId, ...\n      SWAP1 \t\t\treated(newWallet, newTokenId, ...\n      PUSH [tag] 246\t\t\treated(newWallet, newTokenId, ...\n      JUMP \t\t\treated(newWallet, newTokenId, ...\n    tag 349\t\t\treated(newWallet, newTokenId, ...\n      JUMPDEST \t\t\treated(newWallet, newTokenId, ...\n      PUSH 40\t\t\treated(newWallet, newTokenId, ...\n      MLOAD \t\t\treated(newWallet, newTokenId, ...\n      DUP1 \t\t\treated(newWallet, newTokenId, ...\n      SWAP2 \t\t\treated(newWallet, newTokenId, ...\n      SUB \t\t\treated(newWallet, newTokenId, ...\n      SWAP1 \t\t\treated(newWallet, newTokenId, ...\n      LOG3 \t\t\treated(newWallet, newTokenId, ...\n      DUP3 \t\t\tokenId, ui\n      DUP7 \t\t\tallet, ne\n      PUSH FFFFFFFFFFFFFFFFFFFFFFFFFFFFFFFFFFFFFFFF\t\t\tigrated(oldWallet, newWallet, ...\n      AND \t\t\tigrated(oldWallet, newWallet, ...\n      DUP9 \t\t\tallet, ne\n      PUSH FFFFFFFFFFFFFFFFFFFFFFFFFFFFFFFFFFFFFFFF\t\t\tigrated(oldWallet, newWallet, ...\n      AND \t\t\tigrated(oldWallet, newWallet, ...\n      PUSH 38F96748528AE3C7B2848A2BBD3E1F25EC23D6B0B0205522893A20C45BB4AAED\t\t\tigrated(oldWallet, newWallet, ...\n      TIMESTAMP \t\t\tk.timestamp));\\n\n      PUSH 40\t\t\tigrated(oldWallet, newWallet, ...\n      MLOAD \t\t\tigrated(oldWallet, newWallet, ...\n      PUSH [tag] 350\t\t\tigrated(oldWallet, newWallet, ...\n      SWAP2 \t\t\tigrated(oldWallet, newWallet, ...\n      SWAP1 \t\t\tigrated(oldWallet, newWallet, ...\n      PUSH [tag] 246\t\t\tigrated(oldWallet, newWallet, ...\n      JUMP \t\t\tigrated(oldWallet, newWallet, ...\n    tag 350\t\t\tigrated(oldWallet, newWallet, ...\n      JUMPDEST \t\t\tigrated(oldWallet, newWallet, ...\n      PUSH 40\t\t\tigrated(oldWallet, newWallet, ...\n      MLOAD \t\t\tigrated(oldWallet, newWallet, ...\n      DUP1 \t\t\tigrated(oldWallet, newWallet, ...\n      SWAP2 \t\t\tigrated(oldWallet, newWallet, ...\n      SUB \t\t\tigrated(oldWallet, newWallet, ...\n      SWAP1 \t\t\tigrated(oldWallet, newWallet, ...\n      LOG4 \t\t\tigrated(oldWallet, newWallet, ...\n      POP \t\t\t      require(\\n            ms...\n      POP \t\t\t      require(\\n            ms...\n      POP \t\t\t      require(\\n            ms...\n      POP \t\t\t      require(\\n            ms...\n      PUSH [tag] 351\t\t\tfor token metadata\\n \n      PUSH [tag] 248\t\t\tfor token metadata\n      JUMP \t\t\tfor token metadata\\n \n    tag 351\t\t\tfor token metadata\\n \n      JUMPDEST \t\t\tfor token metadata\\n \n      POP \t\t\ttion migrateDid(\\n        addr...\n      POP \t\t\ttion migrateDid(\\n        addr...\n      POP \t\t\ttion migrateDid(\\n        addr...\n      JUMP \t\t\ttion migrateDid(\\n        addr...\n    tag 117\t\t\tto track revoked DIDs (separat...\n      JUMPDEST \t\t\tto track revoked DIDs (separat...\n      PUSH 0\t\t\tout)\\n  \n      PUSH [tag] 353\t\t\t> bool) private _revok\n      DUP3 \t\t\te _revo\n      PUSH [tag] 210\t\t\t> bool) priva\n      JUMP \t\t\t> bool) private _revok\n    tag 353\t\t\t> bool) private _revok\n      JUMPDEST \t\t\t> bool) private _revok\n      SWAP1 \t\t\tnt256 => bool) private _revok\n      POP \t\t\tnt256 => bool) private _revok\n      SWAP2 \t\t\tto track revoked DIDs (separat...\n      SWAP1 \t\t\tto track revoked DIDs (separat...\n      POP \t\t\tto track revoked DIDs (separat...\n      JUMP \t\t\tto track revoked DIDs (separat...\n    tag 120\t\t\tess public backendSigner;\\n  \n      JUMPDEST \t\t\tess public backendSigner;\\n  \n      PUSH E\t\t\tess public backendSigner;\\n  \n      PUSH 0\t\t\tess public backendSigner;\\n  \n      SWAP1 \t\t\tess public backendSigner;\\n  \n      SLOAD \t\t\tess public backendSigner;\\n  \n      SWAP1 \t\t\tess public backendSigner;\\n  \n      PUSH 100\t\t\tess public backendSigner;\\n  \n      EXP \t\t\tess public backendSigner;\\n  \n      SWAP1 \t\t\tess public backendSigner;\\n  \n      DIV \t\t\tess public backendSigner;\\n  \n      PUSH FFFFFFFFFFFFFFFFFFFFFFFFFFFFFFFFFFFFFFFF\t\t\tess public backendSigner;\\n  \n      AND \t\t\tess public backendSigner;\\n  \n      DUP2 \t\t\tess public backendSigner;\\n  \n      JUMP \t\t\tess public backendSigner;\\n  \n    tag 124\t\t\t\\n    // Mapping from owner ad...\n      JUMPDEST \t\t\t\\n    // Mapping from owner ad...\n      PUSH 0\t\t\tokup)\\n \n      DUP1 \t\t\ti\n      PUSH FFFFFFFFFFFFFFFFFFFFFFFFFFFFFFFFFFFFFFFF\t\t\tss => uint256) priv\n      AND \t\t\tss => uint256) priv\n      DUP3 \t\t\tss =>\n      PUSH FFFFFFFFFFFFFFFFFFFFFFFFFFFFFFFFFFFFFFFF\t\t\tss => uint256) priv\n      AND \t\t\tss => uint256) priv\n      SUB \t\t\tss => uint256) priv\n      PUSH [tag] 355\t\t\tddress => uint256) private _ow...\n      JUMPI \t\t\tddress => uint256) private _ow...\n      PUSH 0\t\t\ti\n      PUSH 40\t\t\t  \\n    // Mapping to check if...\n      MLOAD \t\t\t  \\n    // Mapping to check if...\n      PUSH 89C62B6400000000000000000000000000000000000000000000000000000000\t\t\t  \\n    // Mapping to check if...\n      DUP2 \t\t\t  \\n    // Mapping to check if...\n      MSTORE \t\t\t  \\n    // Mapping to check if...\n      PUSH 4\t\t\t  \\n    // Mapping to check if...\n      ADD \t\t\t  \\n    // Mapping to check if...\n      PUSH [tag] 356\t\t\t  \\n    // Mapping to check if...\n      SWAP2 \t\t\t  \\n    // Mapping to check if...\n      SWAP1 \t\t\t  \\n    // Mapping to check if...\n      PUSH [tag] 63\t\t\t  \\n    // Mapping to check if...\n      JUMP \t\t\t  \\n    // Mapping to check if...\n    tag 356\t\t\t  \\n    // Mapping to check if...\n      JUMPDEST \t\t\t  \\n    // Mapping to check if...\n      PUSH 40\t\t\t  \\n    // Mapping to check if...\n      MLOAD \t\t\t  \\n    // Mapping to check if...\n      DUP1 \t\t\t  \\n    // Mapping to check if...\n      SWAP2 \t\t\t  \\n    // Mapping to check if...\n      SUB \t\t\t  \\n    // Mapping to check if...\n      SWAP1 \t\t\t  \\n    // Mapping to check if...\n      REVERT \t\t\t  \\n    // Mapping to check if...\n    tag 355\t\t\tddress => uint256) private _ow...\n      JUMPDEST \t\t\tddress => uint256) private _ow...\n      PUSH 3\t\t\tng(addres\n      PUSH 0\t\t\tng(address => bo\n      DUP4 \t\t\t => b\n      PUSH FFFFFFFFFFFFFFFFFFFFFFFFFFFFFFFFFFFFFFFF\t\t\tng(address => bo\n      AND \t\t\tng(address => bo\n      PUSH FFFFFFFFFFFFFFFFFFFFFFFFFFFFFFFFFFFFFFFF\t\t\tng(address => bo\n      AND \t\t\tng(address => bo\n      DUP2 \t\t\tng(address => bo\n      MSTORE \t\t\tng(address => bo\n      PUSH 20\t\t\tng(address => bo\n      ADD \t\t\tng(address => bo\n      SWAP1 \t\t\tng(address => bo\n      DUP2 \t\t\tng(address => bo\n      MSTORE \t\t\tng(address => bo\n      PUSH 20\t\t\tng(address => bo\n      ADD \t\t\tng(address => bo\n      PUSH 0\t\t\tng(address => bo\n      KECCAK256 \t\t\tng(address => bo\n      SLOAD \t\t\tng(address => bo\n      SWAP1 \t\t\t  mapping(address => bo\n      POP \t\t\t  mapping(address => bo\n      SWAP2 \t\t\t\\n    // Mapping from owner ad...\n      SWAP1 \t\t\t\\n    // Mapping from owner ad...\n      POP \t\t\t\\n    // Mapping from owner ad...\n      JUMP \t\t\t\\n    // Mapping from owner ad...\n    tag 127\t\t\token counter (starts at 1)\\n  ...\n      JUMPDEST \t\t\token counter (starts at 1)\\n  ...\n      PUSH [tag] 358\t\t\tot 1, packed)\n      PUSH [tag] 296\t\t\tot 1, packe\n      JUMP \t\t\tot 1, packed)\n    tag 358\t\t\tot 1, packed)\n      JUMPDEST \t\t\tot 1, packed)\n      PUSH [tag] 360\t\t\t  \\n    // Backend signer for ...\n      PUSH 0\t\t\tr\n      PUSH [tag] 361\t\t\t  \\n    // Backend \n      JUMP \t\t\t  \\n    // Backend signer for ...\n    tag 360\t\t\t  \\n    // Backend signer for ...\n      JUMPDEST \t\t\t  \\n    // Backend signer for ...\n      JUMP \t\t\token counter (starts at 1)\\n  ...\n    tag 130\t\t\ttion updateBackendSigner(addre...\n      JUMPDEST \t\t\ttion updateBackendSigner(addre...\n      PUSH [tag] 363\t\t\tot 1, packed)\n      PUSH [tag] 296\t\t\tot 1, packe\n      JUMP \t\t\tot 1, packed)\n    tag 363\t\t\tot 1, packed)\n      JUMPDEST \t\t\tot 1, packed)\n      PUSH 0\t\t\t\"\n      PUSH FFFFFFFFFFFFFFFFFFFFFFFFFFFFFFFFFFFFFFFF\t\t\tigner != address(0), \"Z\n      AND \t\t\tigner != address(0), \"Z\n      DUP2 \t\t\tigner != \n      PUSH FFFFFFFFFFFFFFFFFFFFFFFFFFFFFFFFFFFFFFFF\t\t\tigner != address(0), \"Z\n      AND \t\t\tigner != address(0), \"Z\n      SUB \t\t\tigner != address(0), \"Z\n      PUSH [tag] 365\t\t\tire(newSigner != address(0), \"...\n      JUMPI \t\t\tire(newSigner != address(0), \"...\n      PUSH 40\t\t\tire(newSigner != address(0), \"...\n      MLOAD \t\t\tire(newSigner != address(0), \"...\n      PUSH 8C379A000000000000000000000000000000000000000000000000000000000\t\t\tire(newSigner != address(0), \"...\n      DUP2 \t\t\tire(newSigner != address(0), \"...\n      MSTORE \t\t\tire(newSigner != address(0), \"...\n      PUSH 4\t\t\tire(newSigner != address(0), \"...\n      ADD \t\t\tire(newSigner != address(0), \"...\n      PUSH [tag] 366\t\t\tire(newSigner != address(0), \"...\n      SWAP1 \t\t\tire(newSigner != address(0), \"...\n      PUSH [tag] 320\t\t\tire(newSigner != address(0), \"...\n      JUMP \t\t\tire(newSigner != address(0), \"...\n    tag 366\t\t\tire(newSigner != address(0), \"...\n      JUMPDEST \t\t\tire(newSigner != address(0), \"...\n      PUSH 40\t\t\tire(newSigner != address(0), \"...\n      MLOAD \t\t\tire(newSigner != address(0), \"...\n      DUP1 \t\t\tire(newSigner != address(0), \"...\n      SWAP2 \t\t\tire(newSigner != address(0), \"...\n      SUB \t\t\tire(newSigner != address(0), \"...\n      SWAP1 \t\t\tire(newSigner != address(0), \"...\n      REVERT \t\t\tire(newSigner != address(0), \"...\n    tag 365\t\t\tire(newSigner != address(0), \"...\n      JUMPDEST \t\t\tire(newSigner != address(0), \"...\n      DUP1 \t\t\tigner;\\n  \n      PUSH E\t\t\tendSigner = n\n      PUSH 0\t\t\tendSigner = n\n      PUSH 100\t\t\tendSigner = newSigner;\\n  \n      EXP \t\t\tendSigner = newSigner;\\n  \n      DUP2 \t\t\tendSigner = newSigner;\\n  \n      SLOAD \t\t\tendSigner = newSigner;\\n  \n      DUP2 \t\t\tendSigner = newSigner;\\n  \n      PUSH FFFFFFFFFFFFFFFFFFFFFFFFFFFFFFFFFFFFFFFF\t\t\tendSigner = newSigner;\\n  \n      MUL \t\t\tendSigner = newSigner;\\n  \n      NOT \t\t\tendSigner = newSigner;\\n  \n      AND \t\t\tendSigner = newSigner;\\n  \n      SWAP1 \t\t\tendSigner = newSigner;\\n  \n      DUP4 \t\t\tendSigner = newSigner;\\n  \n      PUSH FFFFFFFFFFFFFFFFFFFFFFFFFFFFFFFFFFFFFFFF\t\t\tendSigner = newSigner;\\n  \n      AND \t\t\tendSigner = newSigner;\\n  \n      MUL \t\t\tendSigner = newSigner;\\n  \n      OR \t\t\tendSigner = newSigner;\\n  \n      SWAP1 \t\t\tendSigner = newSigner;\\n  \n      SSTORE \t\t\tendSigner = newSigner;\\n  \n      POP \t\t\tendSigner = newSigner;\\n  \n      DUP1 \t\t\tigner);\\n \n      PUSH FFFFFFFFFFFFFFFFFFFFFFFFFFFFFFFFFFFFFFFF\t\t\tendSignerUpdated(newSigner);\\n...\n      AND \t\t\tendSignerUpdated(newSigner);\\n...\n      PUSH BF1B7F0EA3D9F70F4A9732008ADF3ED3AACAA8E1D290ACE363B8A009A0D9C09E\t\t\tendSignerUpdated(newSigner);\\n...\n      PUSH 40\t\t\tendSignerUpdated(newSigner);\\n...\n      MLOAD \t\t\tendSignerUpdated(newSigner);\\n...\n      PUSH 40\t\t\tendSignerUpdated(newSigner);\\n...\n      MLOAD \t\t\tendSignerUpdated(newSigner);\\n...\n      DUP1 \t\t\tendSignerUpdated(newSigner);\\n...\n      SWAP2 \t\t\tendSignerUpdated(newSigner);\\n...\n      SUB \t\t\tendSignerUpdated(newSigner);\\n...\n      SWAP1 \t\t\tendSignerUpdated(newSigner);\\n...\n      LOG2 \t\t\tendSignerUpdated(newSigner);\\n...\n      POP \t\t\ttion updateBackendSigner(addre...\n      JUMP \t\t\ttion updateBackendSigner(addre...\n    tag 132\t\t\taReference;        // 32 bytes...\n      JUMPDEST \t\t\taReference;        // 32 bytes...\n      PUSH 0\t\t\t  bytes\n      PUSH 6\t\t\tta;   \n      PUSH 0\t\t\tta;   \n      SWAP1 \t\t\tta;   \n      SLOAD \t\t\tta;   \n      SWAP1 \t\t\tta;   \n      PUSH 100\t\t\tta;   \n      EXP \t\t\tta;   \n      SWAP1 \t\t\tta;   \n      DIV \t\t\tta;   \n      PUSH FFFFFFFFFFFFFFFFFFFFFFFFFFFFFFFFFFFFFFFF\t\t\tta;   \n      AND \t\t\tta;   \n      SWAP1 \t\t\tyMetadata;   \n      POP \t\t\tyMetadata;   \n      SWAP1 \t\t\taReference;        // 32 bytes...\n      JUMP \t\t\taReference;        // 32 bytes...\n    tag 135\t\t\t(optional)\\n    address public...\n      JUMPDEST \t\t\t(optional)\\n    address public...\n      PUSH 60\t\t\t  \\n    // Whe\n      PUSH 1\t\t\t is all\n      DUP1 \t\t\tminting is all\n      SLOAD \t\t\tminting is all\n      PUSH [tag] 369\t\t\tminting is all\n      SWAP1 \t\t\tminting is all\n      PUSH [tag] 203\t\t\tminting is all\n      JUMP \t\t\tminting is all\n    tag 369\t\t\tminting is all\n      JUMPDEST \t\t\tminting is all\n      DUP1 \t\t\tminting is all\n      PUSH 1F\t\t\tminting is all\n      ADD \t\t\tminting is all\n      PUSH 20\t\t\tminting is all\n      DUP1 \t\t\tminting is all\n      SWAP2 \t\t\tminting is all\n      DIV \t\t\tminting is all\n      MUL \t\t\tminting is all\n      PUSH 20\t\t\tminting is all\n      ADD \t\t\tminting is all\n      PUSH 40\t\t\tminting is all\n      MLOAD \t\t\tminting is all\n      SWAP1 \t\t\tminting is all\n      DUP2 \t\t\tminting is all\n      ADD \t\t\tminting is all\n      PUSH 40\t\t\tminting is all\n      MSTORE \t\t\tminting is all\n      DUP1 \t\t\tminting is all\n      SWAP3 \t\t\tminting is all\n      SWAP2 \t\t\tminting is all\n      SWAP1 \t\t\tminting is all\n      DUP2 \t\t\tminting is all\n      DUP2 \t\t\tminting is all\n      MSTORE \t\t\tminting is all\n      PUSH 20\t\t\tminting is all\n      ADD \t\t\tminting is all\n      DUP3 \t\t\tminting is all\n      DUP1 \t\t\tminting is all\n      SLOAD \t\t\tminting is all\n      PUSH [tag] 370\t\t\tminting is all\n      SWAP1 \t\t\tminting is all\n      PUSH [tag] 203\t\t\tminting is all\n      JUMP \t\t\tminting is all\n    tag 370\t\t\tminting is all\n      JUMPDEST \t\t\tminting is all\n      DUP1 \t\t\tminting is all\n      ISZERO \t\t\tminting is all\n      PUSH [tag] 371\t\t\tminting is all\n      JUMPI \t\t\tminting is all\n      DUP1 \t\t\tminting is all\n      PUSH 1F\t\t\tminting is all\n      LT \t\t\tminting is all\n      PUSH [tag] 372\t\t\tminting is all\n      JUMPI \t\t\tminting is all\n      PUSH 100\t\t\tminting is all\n      DUP1 \t\t\tminting is all\n      DUP4 \t\t\tminting is all\n      SLOAD \t\t\tminting is all\n      DIV \t\t\tminting is all\n      MUL \t\t\tminting is all\n      DUP4 \t\t\tminting is all\n      MSTORE \t\t\tminting is all\n      SWAP2 \t\t\tminting is all\n      PUSH 20\t\t\tminting is all\n      ADD \t\t\tminting is all\n      SWAP2 \t\t\tminting is all\n      PUSH [tag] 371\t\t\tminting is all\n      JUMP \t\t\tminting is all\n    tag 372\t\t\tminting is all\n      JUMPDEST \t\t\tminting is all\n      DUP3 \t\t\tminting is all\n      ADD \t\t\tminting is all\n      SWAP2 \t\t\tminting is all\n      SWAP1 \t\t\tminting is all\n      PUSH 0\t\t\tminting is all\n      MSTORE \t\t\tminting is all\n      PUSH 20\t\t\tminting is all\n      PUSH 0\t\t\tminting is all\n      KECCAK256 \t\t\tminting is all\n      SWAP1 \t\t\tminting is all\n    tag 373\t\t\tminting is all\n      JUMPDEST \t\t\tminting is all\n      DUP2 \t\t\tminting is all\n      SLOAD \t\t\tminting is all\n      DUP2 \t\t\tminting is all\n      MSTORE \t\t\tminting is all\n      SWAP1 \t\t\tminting is all\n      PUSH 1\t\t\tminting is all\n      ADD \t\t\tminting is all\n      SWAP1 \t\t\tminting is all\n      PUSH 20\t\t\tminting is all\n      ADD \t\t\tminting is all\n      DUP1 \t\t\tminting is all\n      DUP4 \t\t\tminting is all\n      GT \t\t\tminting is all\n      PUSH [tag] 373\t\t\tminting is all\n      JUMPI \t\t\tminting is all\n      DUP3 \t\t\tminting is all\n      SWAP1 \t\t\tminting is all\n      SUB \t\t\tminting is all\n      PUSH 1F\t\t\tminting is all\n      AND \t\t\tminting is all\n      DUP3 \t\t\tminting is all\n      ADD \t\t\tminting is all\n      SWAP2 \t\t\tminting is all\n    tag 371\t\t\tminting is all\n      JUMPDEST \t\t\tminting is all\n      POP \t\t\tminting is all\n      POP \t\t\tminting is all\n      POP \t\t\tminting is all\n      POP \t\t\tminting is all\n      POP \t\t\tminting is all\n      SWAP1 \t\t\tminting is all\n      POP \t\t\tminting is all\n      SWAP1 \t\t\t(optional)\\n    address public...\n      JUMP \t\t\t(optional)\\n    address public...\n    tag 139\t\t\ttion getEncryptedKeyMetadata(a...\n      JUMPDEST \t\t\ttion getEncryptedKeyMetadata(a...\n      PUSH 60\t\t\ts memory) {\\n\n      PUSH A\t\t\tDid[use\n      PUSH 0\t\t\tDid[user], \"N\n      DUP4 \t\t\t], \"\n      PUSH FFFFFFFFFFFFFFFFFFFFFFFFFFFFFFFFFFFFFFFF\t\t\tDid[user], \"N\n      AND \t\t\tDid[user], \"N\n      PUSH FFFFFFFFFFFFFFFFFFFFFFFFFFFFFFFFFFFFFFFF\t\t\tDid[user], \"N\n      AND \t\t\tDid[user], \"N\n      DUP2 \t\t\tDid[user], \"N\n      MSTORE \t\t\tDid[user], \"N\n      PUSH 20\t\t\tDid[user], \"N\n      ADD \t\t\tDid[user], \"N\n      SWAP1 \t\t\tDid[user], \"N\n      DUP2 \t\t\tDid[user], \"N\n      MSTORE \t\t\tDid[user], \"N\n      PUSH 20\t\t\tDid[user], \"N\n      ADD \t\t\tDid[user], \"N\n      PUSH 0\t\t\tDid[user], \"N\n      KECCAK256 \t\t\tDid[user], \"N\n      PUSH 0\t\t\tDid[user], \"N\n      SWAP1 \t\t\tDid[user], \"N\n      SLOAD \t\t\tDid[user], \"N\n      SWAP1 \t\t\tDid[user], \"N\n      PUSH 100\t\t\tDid[user], \"N\n      EXP \t\t\tDid[user], \"N\n      SWAP1 \t\t\tDid[user], \"N\n      DIV \t\t\tDid[user], \"N\n      PUSH FF\t\t\tDid[user], \"N\n      AND \t\t\tDid[user], \"N\n      PUSH [tag] 375\t\t\tire(_hasDid[user], \"No DID\");\\...\n      JUMPI \t\t\tire(_hasDid[user], \"No DID\");\\...\n      PUSH 40\t\t\tire(_hasDid[user], \"No DID\");\\...\n      MLOAD \t\t\tire(_hasDid[user], \"No DID\");\\...\n      PUSH 8C379A000000000000000000000000000000000000000000000000000000000\t\t\tire(_hasDid[user], \"No DID\");\\...\n      DUP2 \t\t\tire(_hasDid[user], \"No DID\");\\...\n      MSTORE \t\t\tire(_hasDid[user], \"No DID\");\\...\n      PUSH 4\t\t\tire(_hasDid[user], \"No DID\");\\...\n      ADD \t\t\tire(_hasDid[user], \"No DID\");\\...\n      PUSH [tag] 376\t\t\tire(_hasDid[user], \"No DID\");\\...\n      SWAP1 \t\t\tire(_hasDid[user], \"No DID\");\\...\n      PUSH [tag] 221\t\t\tire(_hasDid[user], \"No DID\");\\...\n      JUMP \t\t\tire(_hasDid[user], \"No DID\");\\...\n    tag 376\t\t\tire(_hasDid[user], \"No DID\");\\...\n      JUMPDEST \t\t\tire(_hasDid[user], \"No DID\");\\...\n      PUSH 40\t\t\tire(_hasDid[user], \"No DID\");\\...\n      MLOAD \t\t\tire(_hasDid[user], \"No DID\");\\...\n      DUP1 \t\t\tire(_hasDid[user], \"No DID\");\\...\n      SWAP2 \t\t\tire(_hasDid[user], \"No DID\");\\...\n      SUB \t\t\tire(_hasDid[user], \"No DID\");\\...\n      SWAP1 \t\t\tire(_hasDid[user], \"No DID\");\\...\n      REVERT \t\t\tire(_hasDid[user], \"No DID\");\\...\n    tag 375\t\t\tire(_hasDid[user], \"No DID\");\\...\n      JUMPDEST \t\t\tire(_hasDid[user], \"No DID\");\\...\n      PUSH 0\t\t\t256 tokenId = _\n      PUSH 9\t\t\terToTokenId[use\n      PUSH 0\t\t\terToTokenId[user];\\n  \n      DUP5 \t\t\t];\\n \n      PUSH FFFFFFFFFFFFFFFFFFFFFFFFFFFFFFFFFFFFFFFF\t\t\terToTokenId[user];\\n  \n      AND \t\t\terToTokenId[user];\\n  \n      PUSH FFFFFFFFFFFFFFFFFFFFFFFFFFFFFFFFFFFFFFFF\t\t\terToTokenId[user];\\n  \n      AND \t\t\terToTokenId[user];\\n  \n      DUP2 \t\t\terToTokenId[user];\\n  \n      MSTORE \t\t\terToTokenId[user];\\n  \n      PUSH 20\t\t\terToTokenId[user];\\n  \n      ADD \t\t\terToTokenId[user];\\n  \n      SWAP1 \t\t\terToTokenId[user];\\n  \n      DUP2 \t\t\terToTokenId[user];\\n  \n      MSTORE \t\t\terToTokenId[user];\\n  \n      PUSH 20\t\t\terToTokenId[user];\\n  \n      ADD \t\t\terToTokenId[user];\\n  \n      PUSH 0\t\t\terToTokenId[user];\\n  \n      KECCAK256 \t\t\terToTokenId[user];\\n  \n      SLOAD \t\t\terToTokenId[user];\\n  \n      SWAP1 \t\t\t256 tokenId = _ownerToTokenId[...\n      POP \t\t\t256 tokenId = _ownerToTokenId[...\n      PUSH 8\t\t\tenProfiles[tok\n      PUSH 0\t\t\tenProfiles[tokenId].enc\n      DUP3 \t\t\tnId].en\n      DUP2 \t\t\tenProfiles[tokenId].enc\n      MSTORE \t\t\tenProfiles[tokenId].enc\n      PUSH 20\t\t\tenProfiles[tokenId].enc\n      ADD \t\t\tenProfiles[tokenId].enc\n      SWAP1 \t\t\tenProfiles[tokenId].enc\n      DUP2 \t\t\tenProfiles[tokenId].enc\n      MSTORE \t\t\tenProfiles[tokenId].enc\n      PUSH 20\t\t\tenProfiles[tokenId].enc\n      ADD \t\t\tenProfiles[tokenId].enc\n      PUSH 0\t\t\tenProfiles[tokenId].enc\n      KECCAK256 \t\t\tenProfiles[tokenId].enc\n      PUSH 3\t\t\tenProfiles[tokenId].encryptedK...\n      ADD \t\t\tenProfiles[tokenId].encryptedK...\n      DUP1 \t\t\trn _tokenProfiles[tokenId].enc...\n      SLOAD \t\t\trn _tokenProfiles[tokenId].enc...\n      PUSH [tag] 377\t\t\trn _tokenProfiles[tokenId].enc...\n      SWAP1 \t\t\trn _tokenProfiles[tokenId].enc...\n      PUSH [tag] 203\t\t\trn _tokenProfiles[tokenId].enc...\n      JUMP \t\t\trn _tokenProfiles[tokenId].enc...\n    tag 377\t\t\trn _tokenProfiles[tokenId].enc...\n      JUMPDEST \t\t\trn _tokenProfiles[tokenId].enc...\n      DUP1 \t\t\trn _tokenProfiles[tokenId].enc...\n      PUSH 1F\t\t\trn _tokenProfiles[tokenId].enc...\n      ADD \t\t\trn _tokenProfiles[tokenId].enc...\n      PUSH 20\t\t\trn _tokenProfiles[tokenId].enc...\n      DUP1 \t\t\trn _tokenProfiles[tokenId].enc...\n      SWAP2 \t\t\trn _tokenProfiles[tokenId].enc...\n      DIV \t\t\trn _tokenProfiles[tokenId].enc...\n      MUL \t\t\trn _tokenProfiles[tokenId].enc...\n      PUSH 20\t\t\trn _tokenProfiles[tokenId].enc...\n      ADD \t\t\trn _tokenProfiles[tokenId].enc...\n      PUSH 40\t\t\trn _tokenProfiles[tokenId].enc...\n      MLOAD \t\t\trn _tokenProfiles[tokenId].enc...\n      SWAP1 \t\t\trn _tokenProfiles[tokenId].enc...\n      DUP2 \t\t\trn _tokenProfiles[tokenId].enc...\n      ADD \t\t\trn _tokenProfiles[tokenId].enc...\n      PUSH 40\t\t\trn _tokenProfiles[tokenId].enc...\n      MSTORE \t\t\trn _tokenProfiles[tokenId].enc...\n      DUP1 \t\t\trn _tokenProfiles[tokenId].enc...\n      SWAP3 \t\t\trn _tokenProfiles[tokenId].enc...\n      SWAP2 \t\t\trn _tokenProfiles[tokenId].enc...\n      SWAP1 \t\t\trn _tokenProfiles[tokenId].enc...\n      DUP2 \t\t\trn _tokenProfiles[tokenId].enc...\n      DUP2 \t\t\trn _tokenProfiles[tokenId].enc...\n      MSTORE \t\t\trn _tokenProfiles[tokenId].enc...\n      PUSH 20\t\t\trn _tokenProfiles[tokenId].enc...\n      ADD \t\t\trn _tokenProfiles[tokenId].enc...\n      DUP3 \t\t\trn _tokenProfiles[tokenId].enc...\n      DUP1 \t\t\trn _tokenProfiles[tokenId].enc...\n      SLOAD \t\t\trn _tokenProfiles[tokenId].enc...\n      PUSH [tag] 378\t\t\trn _tokenProfiles[tokenId].enc...\n      SWAP1 \t\t\trn _tokenProfiles[tokenId].enc...\n      PUSH [tag] 203\t\t\trn _tokenProfiles[tokenId].enc...\n      JUMP \t\t\trn _tokenProfiles[tokenId].enc...\n    tag 378\t\t\trn _tokenProfiles[tokenId].enc...\n      JUMPDEST \t\t\trn _tokenProfiles[tokenId].enc...\n      DUP1 \t\t\trn _tokenProfiles[tokenId].enc...\n      ISZERO \t\t\trn _tokenProfiles[tokenId].enc...\n      PUSH [tag] 379\t\t\trn _tokenProfiles[tokenId].enc...\n      JUMPI \t\t\trn _tokenProfiles[tokenId].enc...\n      DUP1 \t\t\trn _tokenProfiles[tokenId].enc...\n      PUSH 1F\t\t\trn _tokenProfiles[tokenId].enc...\n      LT \t\t\trn _tokenProfiles[tokenId].enc...\n      PUSH [tag] 380\t\t\trn _tokenProfiles[tokenId].enc...\n      JUMPI \t\t\trn _tokenProfiles[tokenId].enc...\n      PUSH 100\t\t\trn _tokenProfiles[tokenId].enc...\n      DUP1 \t\t\trn _tokenProfiles[tokenId].enc...\n      DUP4 \t\t\trn _tokenProfiles[tokenId].enc...\n      SLOAD \t\t\trn _tokenProfiles[tokenId].enc...\n      DIV \t\t\trn _tokenProfiles[tokenId].enc...\n      MUL \t\t\trn _tokenProfiles[tokenId].enc...\n      DUP4 \t\t\trn _tokenProfiles[tokenId].enc...\n      MSTORE \t\t\trn _tokenProfiles[tokenId].enc...\n      SWAP2 \t\t\trn _tokenProfiles[tokenId].enc...\n      PUSH 20\t\t\trn _tokenProfiles[tokenId].enc...\n      ADD \t\t\trn _tokenProfiles[tokenId].enc...\n      SWAP2 \t\t\trn _tokenProfiles[tokenId].enc...\n      PUSH [tag] 379\t\t\trn _tokenProfiles[tokenId].enc...\n      JUMP \t\t\trn _tokenProfiles[tokenId].enc...\n    tag 380\t\t\trn _tokenProfiles[tokenId].enc...\n      JUMPDEST \t\t\trn _tokenProfiles[tokenId].enc...\n      DUP3 \t\t\trn _tokenProfiles[tokenId].enc...\n      ADD \t\t\trn _tokenProfiles[tokenId].enc...\n      SWAP2 \t\t\trn _tokenProfiles[tokenId].enc...\n      SWAP1 \t\t\trn _tokenProfiles[tokenId].enc...\n      PUSH 0\t\t\trn _tokenProfiles[tokenId].enc...\n      MSTORE \t\t\trn _tokenProfiles[tokenId].enc...\n      PUSH 20\t\t\trn _tokenProfiles[tokenId].enc...\n      PUSH 0\t\t\trn _tokenProfiles[tokenId].enc...\n      KECCAK256 \t\t\trn _tokenProfiles[tokenId].enc...\n      SWAP1 \t\t\trn _tokenProfiles[tokenId].enc...\n    tag 381\t\t\trn _tokenProfiles[tokenId].enc...\n      JUMPDEST \t\t\trn _tokenProfiles[tokenId].enc...\n      DUP2 \t\t\trn _tokenProfiles[tokenId].enc...\n      SLOAD \t\t\trn _tokenProfiles[tokenId].enc...\n      DUP2 \t\t\trn _tokenProfiles[tokenId].enc...\n      MSTORE \t\t\trn _tokenProfiles[tokenId].enc...\n      SWAP1 \t\t\trn _tokenProfiles[tokenId].enc...\n      PUSH 1\t\t\trn _tokenProfiles[tokenId].enc...\n      ADD \t\t\trn _tokenProfiles[tokenId].enc...\n      SWAP1 \t\t\trn _tokenProfiles[tokenId].enc...\n      PUSH 20\t\t\trn _tokenProfiles[tokenId].enc...\n      ADD \t\t\trn _tokenProfiles[tokenId].enc...\n      DUP1 \t\t\trn _tokenProfiles[tokenId].enc...\n      DUP4 \t\t\trn _tokenProfiles[tokenId].enc...\n      GT \t\t\trn _tokenProfiles[tokenId].enc...\n      PUSH [tag] 381\t\t\trn _tokenProfiles[tokenId].enc...\n      JUMPI \t\t\trn _tokenProfiles[tokenId].enc...\n      DUP3 \t\t\trn _tokenProfiles[tokenId].enc...\n      SWAP1 \t\t\trn _tokenProfiles[tokenId].enc...\n      SUB \t\t\trn _tokenProfiles[tokenId].enc...\n      PUSH 1F\t\t\trn _tokenProfiles[tokenId].enc...\n      AND \t\t\trn _tokenProfiles[tokenId].enc...\n      DUP3 \t\t\trn _tokenProfiles[tokenId].enc...\n      ADD \t\t\trn _tokenProfiles[tokenId].enc...\n      SWAP2 \t\t\trn _tokenProfiles[tokenId].enc...\n    tag 379\t\t\trn _tokenProfiles[tokenId].enc...\n      JUMPDEST \t\t\trn _tokenProfiles[tokenId].enc...\n      POP \t\t\trn _tokenProfiles[tokenId].enc...\n      POP \t\t\trn _tokenProfiles[tokenId].enc...\n      POP \t\t\trn _tokenProfiles[tokenId].enc...\n      POP \t\t\trn _tokenProfiles[tokenId].enc...\n      POP \t\t\trn _tokenProfiles[tokenId].enc...\n      SWAP2 \t\t\trn _tokenProfiles[tokenId].enc...\n      POP \t\t\trn _tokenProfiles[tokenId].enc...\n      POP \t\t\trn _tokenProfiles[tokenId].enc...\n      SWAP2 \t\t\ttion getEncryptedKeyMetadata(a...\n      SWAP1 \t\t\ttion getEncryptedKeyMetadata(a...\n      POP \t\t\ttion getEncryptedKeyMetadata(a...\n      JUMP \t\t\ttion getEncryptedKeyMetadata(a...\n    tag 145\t\t\ttion setApprovalForAll(address...\n      JUMPDEST \t\t\ttion setApprovalForAll(address...\n      PUSH 40\t\t\trt(\"Soulbound\");\\n  \n      MLOAD \t\t\trt(\"Soulbound\");\\n  \n      PUSH 8C379A000000000000000000000000000000000000000000000000000000000\t\t\trt(\"Soulbound\");\\n  \n      DUP2 \t\t\trt(\"Soulbound\");\\n  \n      MSTORE \t\t\trt(\"Soulbound\");\\n  \n      PUSH 4\t\t\trt(\"Soulbound\");\\n  \n      ADD \t\t\trt(\"Soulbound\");\\n  \n      PUSH [tag] 383\t\t\trt(\"Soulbound\");\\n  \n      SWAP1 \t\t\trt(\"Soulbound\");\\n  \n      PUSH [tag] 215\t\t\trt(\"Soulbound\");\\n  \n      JUMP \t\t\trt(\"Soulbound\");\\n  \n    tag 383\t\t\trt(\"Soulbound\");\\n  \n      JUMPDEST \t\t\trt(\"Soulbound\");\\n  \n      PUSH 40\t\t\trt(\"Soulbound\");\\n  \n      MLOAD \t\t\trt(\"Soulbound\");\\n  \n      DUP1 \t\t\trt(\"Soulbound\");\\n  \n      SWAP2 \t\t\trt(\"Soulbound\");\\n  \n      SUB \t\t\trt(\"Soulbound\");\\n  \n      SWAP1 \t\t\trt(\"Soulbound\");\\n  \n      REVERT \t\t\trt(\"Soulbound\");\\n  \n    tag 149\t\t\te(_hasDid[user], \"No DID\");\\n ...\n      JUMPDEST \t\t\te(_hasDid[user], \"No DID\");\\n ...\n      PUSH [tag] 385\t\t\tnId], \"Revoked\");\\n        _;\\...\n      DUP5 \t\t\td\");\n      DUP5 \t\t\t  \n      DUP5 \t\t\t   _;\\n \n      PUSH [tag] 93\t\t\tnId], \"Revok\n      JUMP \t\t\tnId], \"Revoked\");\\n        _;\\...\n    tag 385\t\t\tnId], \"Revoked\");\\n        _;\\...\n      JUMPDEST \t\t\tnId], \"Revoked\");\\n        _;\\...\n      PUSH [tag] 386\t\t\t   /**\\n     * @dev Modifier t...\n      PUSH [tag] 387\t\t\tck if DID is\n      PUSH [tag] 267\t\t\tck if DID \n      JUMP \t\t\tck if DID is\n    tag 387\t\t\tck if DID is\n      JUMPDEST \t\t\tck if DID is\n      DUP6 \t\t\tot r\n      DUP6 \t\t\tok\n      DUP6 \t\t\t (by to\n      DUP6 \t\t\tn ID\n      PUSH [tag] 388\t\t\t   /**\\n     * @dev Modifier t...\n      JUMP \t\t\t   /**\\n     * @dev Modifier t...\n    tag 386\t\t\t   /**\\n     * @dev Modifier t...\n      JUMPDEST \t\t\t   /**\\n     * @dev Modifier t...\n      POP \t\t\te(_hasDid[user], \"No DID\");\\n ...\n      POP \t\t\te(_hasDid[user], \"No DID\");\\n ...\n      POP \t\t\te(_hasDid[user], \"No DID\");\\n ...\n      POP \t\t\te(_hasDid[user], \"No DID\");\\n ...\n      JUMP \t\t\te(_hasDid[user], \"No DID\");\\n ...\n    tag 151\t\t\ttion createMyDid() external no...\n      JUMPDEST \t\t\ttion createMyDid() external no...\n      PUSH 0\t\t\t256) {\\n\n      PUSH [tag] 390\t\t\t allowPublicMinting;\\n\n      PUSH [tag] 241\t\t\t allowPublicMinting\n      JUMP \t\t\t allowPublicMinting;\\n\n    tag 390\t\t\t allowPublicMinting;\\n\n      JUMPDEST \t\t\t allowPublicMinting;\\n\n      PUSH E\t\t\twPublicMinting, \"N\n      PUSH 14\t\t\twPublicMinting, \"N\n      SWAP1 \t\t\twPublicMinting, \"N\n      SLOAD \t\t\twPublicMinting, \"N\n      SWAP1 \t\t\twPublicMinting, \"N\n      PUSH 100\t\t\twPublicMinting, \"N\n      EXP \t\t\twPublicMinting, \"N\n      SWAP1 \t\t\twPublicMinting, \"N\n      DIV \t\t\twPublicMinting, \"N\n      PUSH FF\t\t\twPublicMinting, \"N\n      AND \t\t\twPublicMinting, \"N\n      PUSH [tag] 392\t\t\tire(allowPublicMinting, \"No pu...\n      JUMPI \t\t\tire(allowPublicMinting, \"No pu...\n      PUSH 40\t\t\tire(allowPublicMinting, \"No pu...\n      MLOAD \t\t\tire(allowPublicMinting, \"No pu...\n      PUSH 8C379A000000000000000000000000000000000000000000000000000000000\t\t\tire(allowPublicMinting, \"No pu...\n      DUP2 \t\t\tire(allowPublicMinting, \"No pu...\n      MSTORE \t\t\tire(allowPublicMinting, \"No pu...\n      PUSH 4\t\t\tire(allowPublicMinting, \"No pu...\n      ADD \t\t\tire(allowPublicMinting, \"No pu...\n      PUSH [tag] 393\t\t\tire(allowPublicMinting, \"No pu...\n      SWAP1 \t\t\tire(allowPublicMinting, \"No pu...\n      PUSH [tag] 394\t\t\tire(allowPublicMinting, \"No pu...\n      JUMP \t\t\tire(allowPublicMinting, \"No pu...\n    tag 393\t\t\tire(allowPublicMinting, \"No pu...\n      JUMPDEST \t\t\tire(allowPublicMinting, \"No pu...\n      PUSH 40\t\t\tire(allowPublicMinting, \"No pu...\n      MLOAD \t\t\tire(allowPublicMinting, \"No pu...\n      DUP1 \t\t\tire(allowPublicMinting, \"No pu...\n      SWAP2 \t\t\tire(allowPublicMinting, \"No pu...\n      SUB \t\t\tire(allowPublicMinting, \"No pu...\n      SWAP1 \t\t\tire(allowPublicMinting, \"No pu...\n      REVERT \t\t\tire(allowPublicMinting, \"No pu...\n    tag 392\t\t\tire(allowPublicMinting, \"No pu...\n      JUMPDEST \t\t\tire(allowPublicMinting, \"No pu...\n      PUSH A\t\t\tDid[msg\n      PUSH 0\t\t\tDid[msg.sender], \"H\n      CALLER \t\t\tsender], \"\n      PUSH FFFFFFFFFFFFFFFFFFFFFFFFFFFFFFFFFFFFFFFF\t\t\tDid[msg.sender], \"H\n      AND \t\t\tDid[msg.sender], \"H\n      PUSH FFFFFFFFFFFFFFFFFFFFFFFFFFFFFFFFFFFFFFFF\t\t\tDid[msg.sender], \"H\n      AND \t\t\tDid[msg.sender], \"H\n      DUP2 \t\t\tDid[msg.sender], \"H\n      MSTORE \t\t\tDid[msg.sender], \"H\n      PUSH 20\t\t\tDid[msg.sender], \"H\n      ADD \t\t\tDid[msg.sender], \"H\n      SWAP1 \t\t\tDid[msg.sender], \"H\n      DUP2 \t\t\tDid[msg.sender], \"H\n      MSTORE \t\t\tDid[msg.sender], \"H\n      PUSH 20\t\t\tDid[msg.sender], \"H\n      ADD \t\t\tDid[msg.sender], \"H\n      PUSH 0\t\t\tDid[msg.sender], \"H\n      KECCAK256 \t\t\tDid[msg.sender], \"H\n      PUSH 0\t\t\tDid[msg.sender], \"H\n      SWAP1 \t\t\tDid[msg.sender], \"H\n      SLOAD \t\t\tDid[msg.sender], \"H\n      SWAP1 \t\t\tDid[msg.sender], \"H\n      PUSH 100\t\t\tDid[msg.sender], \"H\n      EXP \t\t\tDid[msg.sender], \"H\n      SWAP1 \t\t\tDid[msg.sender], \"H\n      DIV \t\t\tDid[msg.sender], \"H\n      PUSH FF\t\t\tDid[msg.sender], \"H\n      AND \t\t\tDid[msg.sender], \"H\n      ISZERO \t\t\tsDid[msg.sender], \"H\n      PUSH [tag] 395\t\t\tire(!_hasDid[msg.sender], \"Has...\n      JUMPI \t\t\tire(!_hasDid[msg.sender], \"Has...\n      PUSH 40\t\t\tire(!_hasDid[msg.sender], \"Has...\n      MLOAD \t\t\tire(!_hasDid[msg.sender], \"Has...\n      PUSH 8C379A000000000000000000000000000000000000000000000000000000000\t\t\tire(!_hasDid[msg.sender], \"Has...\n      DUP2 \t\t\tire(!_hasDid[msg.sender], \"Has...\n      MSTORE \t\t\tire(!_hasDid[msg.sender], \"Has...\n      PUSH 4\t\t\tire(!_hasDid[msg.sender], \"Has...\n      ADD \t\t\tire(!_hasDid[msg.sender], \"Has...\n      PUSH [tag] 396\t\t\tire(!_hasDid[msg.sender], \"Has...\n      SWAP1 \t\t\tire(!_hasDid[msg.sender], \"Has...\n      PUSH [tag] 330\t\t\tire(!_hasDid[msg.sender], \"Has...\n      JUMP \t\t\tire(!_hasDid[msg.sender], \"Has...\n    tag 396\t\t\tire(!_hasDid[msg.sender], \"Has...\n      JUMPDEST \t\t\tire(!_hasDid[msg.sender], \"Has...\n      PUSH 40\t\t\tire(!_hasDid[msg.sender], \"Has...\n      MLOAD \t\t\tire(!_hasDid[msg.sender], \"Has...\n      DUP1 \t\t\tire(!_hasDid[msg.sender], \"Has...\n      SWAP2 \t\t\tire(!_hasDid[msg.sender], \"Has...\n      SUB \t\t\tire(!_hasDid[msg.sender], \"Has...\n      SWAP1 \t\t\tire(!_hasDid[msg.sender], \"Has...\n      REVERT \t\t\tire(!_hasDid[msg.sender], \"Has...\n    tag 395\t\t\tire(!_hasDid[msg.sender], \"Has...\n      JUMPDEST \t\t\tire(!_hasDid[msg.sender], \"Has...\n      PUSH D\t\t\tenCounter++;\\n\n      PUSH 0\t\t\tenCounter++;\\n\n      DUP2 \t\t\tenCounter++;\\n  \n      SLOAD \t\t\tenCounter++;\\n  \n      DUP1 \t\t\tenCounter++;\\n  \n      SWAP3 \t\t\tenCounter++;\\n  \n      SWAP2 \t\t\tenCounter++;\\n  \n      SWAP1 \t\t\tenCounter++;\\n  \n      PUSH [tag] 397\t\t\tenCounter++;\\n  \n      SWAP1 \t\t\tenCounter++;\\n  \n      PUSH [tag] 334\t\t\tenCounter++;\\n  \n      JUMP \t\t\tenCounter++;\\n  \n    tag 397\t\t\tenCounter++;\\n  \n      JUMPDEST \t\t\tenCounter++;\\n  \n      SWAP2 \t\t\tenCounter++;\\n  \n      SWAP1 \t\t\tenCounter++;\\n  \n      POP \t\t\tenCounter++;\\n  \n      SSTORE \t\t\tenCounter++;\\n  \n      POP \t\t\tenCounter++;\\n  \n      PUSH 0\t\t\t256 tokenId = _\n      PUSH D\t\t\tenCounter;\\n\\n \n      SLOAD \t\t\tenCounter;\\n\\n \n      SWAP1 \t\t\t256 tokenId = _tokenCounter;\\n...\n      POP \t\t\t256 tokenId = _tokenCounter;\\n...\n      PUSH 0\t\t\trofile memory profile = D\n      PUSH 40\t\t\trofile({\\n            owner: m...\n      MLOAD \t\t\trofile({\\n            owner: m...\n      DUP1 \t\t\trofile({\\n            owner: m...\n      PUSH A0\t\t\trofile({\\n            owner: m...\n      ADD \t\t\trofile({\\n            owner: m...\n      PUSH 40\t\t\trofile({\\n            owner: m...\n      MSTORE \t\t\trofile({\\n            owner: m...\n      DUP1 \t\t\trofile({\\n            owner: m...\n      CALLER \t\t\tsender,\\n  \n      PUSH FFFFFFFFFFFFFFFFFFFFFFFFFFFFFFFFFFFFFFFF\t\t\trofile({\\n            owner: m...\n      AND \t\t\trofile({\\n            owner: m...\n      DUP2 \t\t\trofile({\\n            owner: m...\n      MSTORE \t\t\trofile({\\n            owner: m...\n      PUSH 20\t\t\trofile({\\n            owner: m...\n      ADD \t\t\trofile({\\n            owner: m...\n      TIMESTAMP \t\t\tk.timestamp),\\n \n      PUSH FFFFFFFFFFFFFFFF\t\t\trofile({\\n            owner: m...\n      AND \t\t\trofile({\\n            owner: m...\n      DUP2 \t\t\trofile({\\n            owner: m...\n      MSTORE \t\t\trofile({\\n            owner: m...\n      PUSH 20\t\t\trofile({\\n            owner: m...\n      ADD \t\t\trofile({\\n            owner: m...\n      TIMESTAMP \t\t\tk.timestamp),\\n \n      PUSH FFFFFFFFFFFFFFFF\t\t\trofile({\\n            owner: m...\n      AND \t\t\trofile({\\n            owner: m...\n      DUP2 \t\t\trofile({\\n            owner: m...\n      MSTORE \t\t\trofile({\\n            owner: m...\n      PUSH 20\t\t\trofile({\\n            owner: m...\n      ADD \t\t\trofile({\\n            owner: m...\n      PUSH 0\t\t\t \n      DUP1 \t\t\ts32(0),\\n  \n      SHL \t\t\ts32(0),\\n  \n      DUP2 \t\t\trofile({\\n            owner: m...\n      MSTORE \t\t\trofile({\\n            owner: m...\n      PUSH 20\t\t\trofile({\\n            owner: m...\n      ADD \t\t\trofile({\\n            owner: m...\n      PUSH 40\t\t\ts(\"\")\\n   \n      MLOAD \t\t\ts(\"\")\\n   \n      DUP1 \t\t\ts(\"\")\\n   \n      PUSH 20\t\t\ts(\"\")\\n   \n      ADD \t\t\ts(\"\")\\n   \n      PUSH 40\t\t\ts(\"\")\\n   \n      MSTORE \t\t\ts(\"\")\\n   \n      DUP1 \t\t\ts(\"\")\\n   \n      PUSH 0\t\t\ts(\"\")\\n   \n      DUP2 \t\t\ts(\"\")\\n   \n      MSTORE \t\t\ts(\"\")\\n   \n      POP \t\t\ts(\"\")\\n   \n      DUP2 \t\t\trofile({\\n            owner: m...\n      MSTORE \t\t\trofile({\\n            owner: m...\n      POP \t\t\trofile({\\n            owner: m...\n      SWAP1 \t\t\trofile memory profile = DidPro...\n      POP \t\t\trofile memory profile = DidPro...\n      DUP1 \t\t\tile;\\n  \n      PUSH 8\t\t\tenProfiles[tok\n      PUSH 0\t\t\tenProfiles[tokenId] = p\n      DUP5 \t\t\tnId] = \n      DUP2 \t\t\tenProfiles[tokenId] = p\n      MSTORE \t\t\tenProfiles[tokenId] = p\n      PUSH 20\t\t\tenProfiles[tokenId] = p\n      ADD \t\t\tenProfiles[tokenId] = p\n      SWAP1 \t\t\tenProfiles[tokenId] = p\n      DUP2 \t\t\tenProfiles[tokenId] = p\n      MSTORE \t\t\tenProfiles[tokenId] = p\n      PUSH 20\t\t\tenProfiles[tokenId] = p\n      ADD \t\t\tenProfiles[tokenId] = p\n      PUSH 0\t\t\tenProfiles[tokenId] = p\n      KECCAK256 \t\t\tenProfiles[tokenId] = p\n      PUSH 0\t\t\tenProfiles[tokenId] = profile;...\n      DUP3 \t\t\tenProfiles[tokenId] = profile;...\n      ADD \t\t\tenProfiles[tokenId] = profile;...\n      MLOAD \t\t\tenProfiles[tokenId] = profile;...\n      DUP2 \t\t\tenProfiles[tokenId] = profile;...\n      PUSH 0\t\t\tenProfiles[tokenId] = profile;...\n      ADD \t\t\tenProfiles[tokenId] = profile;...\n      PUSH 0\t\t\tenProfiles[tokenId] = profile;...\n      PUSH 100\t\t\tenProfiles[tokenId] = profile;...\n      EXP \t\t\tenProfiles[tokenId] = profile;...\n      DUP2 \t\t\tenProfiles[tokenId] = profile;...\n      SLOAD \t\t\tenProfiles[tokenId] = profile;...\n      DUP2 \t\t\tenProfiles[tokenId] = profile;...\n      PUSH FFFFFFFFFFFFFFFFFFFFFFFFFFFFFFFFFFFFFFFF\t\t\tenProfiles[tokenId] = profile;...\n      MUL \t\t\tenProfiles[tokenId] = profile;...\n      NOT \t\t\tenProfiles[tokenId] = profile;...\n      AND \t\t\tenProfiles[tokenId] = profile;...\n      SWAP1 \t\t\tenProfiles[tokenId] = profile;...\n      DUP4 \t\t\tenProfiles[tokenId] = profile;...\n      PUSH FFFFFFFFFFFFFFFFFFFFFFFFFFFFFFFFFFFFFFFF\t\t\tenProfiles[tokenId] = profile;...\n      AND \t\t\tenProfiles[tokenId] = profile;...\n      MUL \t\t\tenProfiles[tokenId] = profile;...\n      OR \t\t\tenProfiles[tokenId] = profile;...\n      SWAP1 \t\t\tenProfiles[tokenId] = profile;...\n      SSTORE \t\t\tenProfiles[tokenId] = profile;...\n      POP \t\t\tenProfiles[tokenId] = profile;...\n      PUSH 20\t\t\tenProfiles[tokenId] = profile;...\n      DUP3 \t\t\tenProfiles[tokenId] = profile;...\n      ADD \t\t\tenProfiles[tokenId] = profile;...\n      MLOAD \t\t\tenProfiles[tokenId] = profile;...\n      DUP2 \t\t\tenProfiles[tokenId] = profile;...\n      PUSH 0\t\t\tenProfiles[tokenId] = profile;...\n      ADD \t\t\tenProfiles[tokenId] = profile;...\n      PUSH 14\t\t\tenProfiles[tokenId] = profile;...\n      PUSH 100\t\t\tenProfiles[tokenId] = profile;...\n      EXP \t\t\tenProfiles[tokenId] = profile;...\n      DUP2 \t\t\tenProfiles[tokenId] = profile;...\n      SLOAD \t\t\tenProfiles[tokenId] = profile;...\n      DUP2 \t\t\tenProfiles[tokenId] = profile;...\n      PUSH FFFFFFFFFFFFFFFF\t\t\tenProfiles[tokenId] = profile;...\n      MUL \t\t\tenProfiles[tokenId] = profile;...\n      NOT \t\t\tenProfiles[tokenId] = profile;...\n      AND \t\t\tenProfiles[tokenId] = profile;...\n      SWAP1 \t\t\tenProfiles[tokenId] = profile;...\n      DUP4 \t\t\tenProfiles[tokenId] = profile;...\n      PUSH FFFFFFFFFFFFFFFF\t\t\tenProfiles[tokenId] = profile;...\n      AND \t\t\tenProfiles[tokenId] = profile;...\n      MUL \t\t\tenProfiles[tokenId] = profile;...\n      OR \t\t\tenProfiles[tokenId] = profile;...\n      SWAP1 \t\t\tenProfiles[tokenId] = profile;...\n      SSTORE \t\t\tenProfiles[tokenId] = profile;...\n      POP \t\t\tenProfiles[tokenId] = profile;...\n      PUSH 40\t\t\tenProfiles[tokenId] = profile;...\n      DUP3 \t\t\tenProfiles[tokenId] = profile;...\n      ADD \t\t\tenProfiles[tokenId] = profile;...\n      MLOAD \t\t\tenProfiles[tokenId] = profile;...\n      DUP2 \t\t\tenProfiles[tokenId] = profile;...\n      PUSH 1\t\t\tenProfiles[tokenId] = profile;...\n      ADD \t\t\tenProfiles[tokenId] = profile;...\n      PUSH 0\t\t\tenProfiles[tokenId] = profile;...\n      PUSH 100\t\t\tenProfiles[tokenId] = profile;...\n      EXP \t\t\tenProfiles[tokenId] = profile;...\n      DUP2 \t\t\tenProfiles[tokenId] = profile;...\n      SLOAD \t\t\tenProfiles[tokenId] = profile;...\n      DUP2 \t\t\tenProfiles[tokenId] = profile;...\n      PUSH FFFFFFFFFFFFFFFF\t\t\tenProfiles[tokenId] = profile;...\n      MUL \t\t\tenProfiles[tokenId] = profile;...\n      NOT \t\t\tenProfiles[tokenId] = profile;...\n      AND \t\t\tenProfiles[tokenId] = profile;...\n      SWAP1 \t\t\tenProfiles[tokenId] = profile;...\n      DUP4 \t\t\tenProfiles[tokenId] = profile;...\n      PUSH FFFFFFFFFFFFFFFF\t\t\tenProfiles[tokenId] = profile;...\n      AND \t\t\tenProfiles[tokenId] = profile;...\n      MUL \t\t\tenProfiles[tokenId] = profile;...\n      OR \t\t\tenProfiles[tokenId] = profile;...\n      SWAP1 \t\t\tenProfiles[tokenId] = profile;...\n      SSTORE \t\t\tenProfiles[tokenId] = profile;...\n      POP \t\t\tenProfiles[tokenId] = profile;...\n      PUSH 60\t\t\tenProfiles[tokenId] = profile;...\n      DUP3 \t\t\tenProfiles[tokenId] = profile;...\n      ADD \t\t\tenProfiles[tokenId] = profile;...\n      MLOAD \t\t\tenProfiles[tokenId] = profile;...\n      DUP2 \t\t\tenProfiles[tokenId] = profile;...\n      PUSH 2\t\t\tenProfiles[tokenId] = profile;...\n      ADD \t\t\tenProfiles[tokenId] = profile;...\n      SSTORE \t\t\tenProfiles[tokenId] = profile;...\n      PUSH 80\t\t\tenProfiles[tokenId] = profile;...\n      DUP3 \t\t\tenProfiles[tokenId] = profile;...\n      ADD \t\t\tenProfiles[tokenId] = profile;...\n      MLOAD \t\t\tenProfiles[tokenId] = profile;...\n      DUP2 \t\t\tenProfiles[tokenId] = profile;...\n      PUSH 3\t\t\tenProfiles[tokenId] = profile;...\n      ADD \t\t\tenProfiles[tokenId] = profile;...\n      SWAP1 \t\t\tenProfiles[tokenId] = profile;...\n      DUP2 \t\t\tenProfiles[tokenId] = profile;...\n      PUSH [tag] 398\t\t\tenProfiles[tokenId] = profile;...\n      SWAP2 \t\t\tenProfiles[tokenId] = profile;...\n      SWAP1 \t\t\tenProfiles[tokenId] = profile;...\n      PUSH [tag] 345\t\t\tenProfiles[tokenId] = profile;...\n      JUMP \t\t\tenProfiles[tokenId] = profile;...\n    tag 398\t\t\tenProfiles[tokenId] = profile;...\n      JUMPDEST \t\t\tenProfiles[tokenId] = profile;...\n      POP \t\t\tenProfiles[tokenId] = profile;...\n      SWAP1 \t\t\tenProfiles[tokenId] = profile;...\n      POP \t\t\tenProfiles[tokenId] = profile;...\n      POP \t\t\tenProfiles[tokenId] = profile;...\n      DUP2 \t\t\tnId;\\n  \n      PUSH 9\t\t\terToTokenId[msg\n      PUSH 0\t\t\terToTokenId[msg.sender] = t\n      CALLER \t\t\tsender] = \n      PUSH FFFFFFFFFFFFFFFFFFFFFFFFFFFFFFFFFFFFFFFF\t\t\terToTokenId[msg.sender] = t\n      AND \t\t\terToTokenId[msg.sender] = t\n      PUSH FFFFFFFFFFFFFFFFFFFFFFFFFFFFFFFFFFFFFFFF\t\t\terToTokenId[msg.sender] = t\n      AND \t\t\terToTokenId[msg.sender] = t\n      DUP2 \t\t\terToTokenId[msg.sender] = t\n      MSTORE \t\t\terToTokenId[msg.sender] = t\n      PUSH 20\t\t\terToTokenId[msg.sender] = t\n      ADD \t\t\terToTokenId[msg.sender] = t\n      SWAP1 \t\t\terToTokenId[msg.sender] = t\n      DUP2 \t\t\terToTokenId[msg.sender] = t\n      MSTORE \t\t\terToTokenId[msg.sender] = t\n      PUSH 20\t\t\terToTokenId[msg.sender] = t\n      ADD \t\t\terToTokenId[msg.sender] = t\n      PUSH 0\t\t\terToTokenId[msg.sender] = t\n      KECCAK256 \t\t\terToTokenId[msg.sender] = t\n      DUP2 \t\t\terToTokenId[msg.sender] = toke...\n      SWAP1 \t\t\terToTokenId[msg.sender] = toke...\n      SSTORE \t\t\terToTokenId[msg.sender] = toke...\n      POP \t\t\terToTokenId[msg.sender] = toke...\n      PUSH 1\t\t\t;\\n\\n \n      PUSH A\t\t\tDid[msg\n      PUSH 0\t\t\tDid[msg.sender] = t\n      CALLER \t\t\tsender] = \n      PUSH FFFFFFFFFFFFFFFFFFFFFFFFFFFFFFFFFFFFFFFF\t\t\tDid[msg.sender] = t\n      AND \t\t\tDid[msg.sender] = t\n      PUSH FFFFFFFFFFFFFFFFFFFFFFFFFFFFFFFFFFFFFFFF\t\t\tDid[msg.sender] = t\n      AND \t\t\tDid[msg.sender] = t\n      DUP2 \t\t\tDid[msg.sender] = t\n      MSTORE \t\t\tDid[msg.sender] = t\n      PUSH 20\t\t\tDid[msg.sender] = t\n      ADD \t\t\tDid[msg.sender] = t\n      SWAP1 \t\t\tDid[msg.sender] = t\n      DUP2 \t\t\tDid[msg.sender] = t\n      MSTORE \t\t\tDid[msg.sender] = t\n      PUSH 20\t\t\tDid[msg.sender] = t\n      ADD \t\t\tDid[msg.sender] = t\n      PUSH 0\t\t\tDid[msg.sender] = t\n      KECCAK256 \t\t\tDid[msg.sender] = t\n      PUSH 0\t\t\tDid[msg.sender] = t\n      PUSH 100\t\t\tDid[msg.sender] = true;\\n\\n \n      EXP \t\t\tDid[msg.sender] = true;\\n\\n \n      DUP2 \t\t\tDid[msg.sender] = true;\\n\\n \n      SLOAD \t\t\tDid[msg.sender] = true;\\n\\n \n      DUP2 \t\t\tDid[msg.sender] = true;\\n\\n \n      PUSH FF\t\t\tDid[msg.sender] = true;\\n\\n \n      MUL \t\t\tDid[msg.sender] = true;\\n\\n \n      NOT \t\t\tDid[msg.sender] = true;\\n\\n \n      AND \t\t\tDid[msg.sender] = true;\\n\\n \n      SWAP1 \t\t\tDid[msg.sender] = true;\\n\\n \n      DUP4 \t\t\tDid[msg.sender] = true;\\n\\n \n      ISZERO \t\t\tDid[msg.sender] = true;\\n\\n \n      ISZERO \t\t\tDid[msg.sender] = true;\\n\\n \n      MUL \t\t\tDid[msg.sender] = true;\\n\\n \n      OR \t\t\tDid[msg.sender] = true;\\n\\n \n      SWAP1 \t\t\tDid[msg.sender] = true;\\n\\n \n      SSTORE \t\t\tDid[msg.sender] = true;\\n\\n \n      POP \t\t\tDid[msg.sender] = true;\\n\\n \n      PUSH [tag] 399\t\t\teMint(msg.sender, tokenId);\\n\\...\n      CALLER \t\t\tsender, to\n      DUP4 \t\t\tnId);\\n\\n\n      PUSH [tag] 347\t\t\teMint(msg\n      JUMP \t\t\teMint(msg.sender, tokenId);\\n\\...\n    tag 399\t\t\teMint(msg.sender, tokenId);\\n\\...\n      JUMPDEST \t\t\teMint(msg.sender, tokenId);\\n\\...\n      DUP2 \t\t\tnId, ui\n      CALLER \t\t\tsender, to\n      PUSH FFFFFFFFFFFFFFFFFFFFFFFFFFFFFFFFFFFFFFFF\t\t\treated(msg.sender, tokenId, ui...\n      AND \t\t\treated(msg.sender, tokenId, ui...\n      PUSH FD0C93BE4723CB4C74010465B445D5F99EEF0354F49EE7C247FA9EF9093AA8ED\t\t\treated(msg.sender, tokenId, ui...\n      TIMESTAMP \t\t\tk.timestamp));\\n\n      PUSH 40\t\t\treated(msg.sender, tokenId, ui...\n      MLOAD \t\t\treated(msg.sender, tokenId, ui...\n      PUSH [tag] 400\t\t\treated(msg.sender, tokenId, ui...\n      SWAP2 \t\t\treated(msg.sender, tokenId, ui...\n      SWAP1 \t\t\treated(msg.sender, tokenId, ui...\n      PUSH [tag] 246\t\t\treated(msg.sender, tokenId, ui...\n      JUMP \t\t\treated(msg.sender, tokenId, ui...\n    tag 400\t\t\treated(msg.sender, tokenId, ui...\n      JUMPDEST \t\t\treated(msg.sender, tokenId, ui...\n      PUSH 40\t\t\treated(msg.sender, tokenId, ui...\n      MLOAD \t\t\treated(msg.sender, tokenId, ui...\n      DUP1 \t\t\treated(msg.sender, tokenId, ui...\n      SWAP2 \t\t\treated(msg.sender, tokenId, ui...\n      SUB \t\t\treated(msg.sender, tokenId, ui...\n      SWAP1 \t\t\treated(msg.sender, tokenId, ui...\n      LOG3 \t\t\treated(msg.sender, tokenId, ui...\n      DUP2 \t\t\tnId;\\n  \n      SWAP3 \t\t\trn tokenId;\\n  \n      POP \t\t\trn tokenId;\\n  \n      POP \t\t\trn tokenId;\\n  \n      POP \t\t\trn tokenId;\\n  \n      PUSH [tag] 401\t\t\tfor token metadata\\n \n      PUSH [tag] 248\t\t\tfor token metadata\n      JUMP \t\t\tfor token metadata\\n \n    tag 401\t\t\tfor token metadata\\n \n      JUMPDEST \t\t\tfor token metadata\\n \n      SWAP1 \t\t\ttion createMyDid() external no...\n      JUMP \t\t\ttion createMyDid() external no...\n    tag 155\t\t\ttion hasDid(address user) exte...\n      JUMPDEST \t\t\ttion hasDid(address user) exte...\n      PUSH 0\t\t\t) {\\n\n      PUSH A\t\t\tDid[use\n      PUSH 0\t\t\tDid[user];\\n  \n      DUP4 \t\t\t];\\n \n      PUSH FFFFFFFFFFFFFFFFFFFFFFFFFFFFFFFFFFFFFFFF\t\t\tDid[user];\\n  \n      AND \t\t\tDid[user];\\n  \n      PUSH FFFFFFFFFFFFFFFFFFFFFFFFFFFFFFFFFFFFFFFF\t\t\tDid[user];\\n  \n      AND \t\t\tDid[user];\\n  \n      DUP2 \t\t\tDid[user];\\n  \n      MSTORE \t\t\tDid[user];\\n  \n      PUSH 20\t\t\tDid[user];\\n  \n      ADD \t\t\tDid[user];\\n  \n      SWAP1 \t\t\tDid[user];\\n  \n      DUP2 \t\t\tDid[user];\\n  \n      MSTORE \t\t\tDid[user];\\n  \n      PUSH 20\t\t\tDid[user];\\n  \n      ADD \t\t\tDid[user];\\n  \n      PUSH 0\t\t\tDid[user];\\n  \n      KECCAK256 \t\t\tDid[user];\\n  \n      PUSH 0\t\t\tDid[user];\\n  \n      SWAP1 \t\t\tDid[user];\\n  \n      SLOAD \t\t\tDid[user];\\n  \n      SWAP1 \t\t\tDid[user];\\n  \n      PUSH 100\t\t\tDid[user];\\n  \n      EXP \t\t\tDid[user];\\n  \n      SWAP1 \t\t\tDid[user];\\n  \n      DIV \t\t\tDid[user];\\n  \n      PUSH FF\t\t\tDid[user];\\n  \n      AND \t\t\tDid[user];\\n  \n      SWAP1 \t\t\trn _hasDid[user];\\n  \n      POP \t\t\trn _hasDid[user];\\n  \n      SWAP2 \t\t\ttion hasDid(address user) exte...\n      SWAP1 \t\t\ttion hasDid(address user) exte...\n      POP \t\t\ttion hasDid(address user) exte...\n      JUMP \t\t\ttion hasDid(address user) exte...\n    tag 158\t\t\t public allowPublicMinting;\\n ...\n      JUMPDEST \t\t\t public allowPublicMinting;\\n ...\n      PUSH E\t\t\t public allowPublicMinting;\\n ...\n      PUSH 14\t\t\t public allowPublicMinting;\\n ...\n      SWAP1 \t\t\t public allowPublicMinting;\\n ...\n      SLOAD \t\t\t public allowPublicMinting;\\n ...\n      SWAP1 \t\t\t public allowPublicMinting;\\n ...\n      PUSH 100\t\t\t public allowPublicMinting;\\n ...\n      EXP \t\t\t public allowPublicMinting;\\n ...\n      SWAP1 \t\t\t public allowPublicMinting;\\n ...\n      DIV \t\t\t public allowPublicMinting;\\n ...\n      PUSH FF\t\t\t public allowPublicMinting;\\n ...\n      AND \t\t\t public allowPublicMinting;\\n ...\n      DUP2 \t\t\t public allowPublicMinting;\\n ...\n      JUMP \t\t\t public allowPublicMinting;\\n ...\n    tag 162\t\t\t // Base URI for token metadat...\n      JUMPDEST \t\t\t // Base URI for token metadat...\n      PUSH 60\t\t\t;\\n\\n    // ===\n      PUSH [tag] 404\t\t\tents ============\\n    \n      DUP3 \t\t\t===\\n   \n      PUSH [tag] 210\t\t\tents ========\n      JUMP \t\t\tents ============\\n    \n    tag 404\t\t\tents ============\\n    \n      JUMPDEST \t\t\tents ============\\n    \n      POP \t\t\tents ============\\n    \n      PUSH 0\t\t\t   * @dev Emitted whe\n      PUSH [tag] 405\t\t\t DID is cr\n      PUSH [tag] 406\t\t\t DID is \n      JUMP \t\t\t DID is cr\n    tag 405\t\t\t DID is cr\n      JUMPDEST \t\t\t DID is cr\n      SWAP1 \t\t\t   * @dev Emitted when a DID i...\n      POP \t\t\t   * @dev Emitted when a DID i...\n      PUSH 0\t\t\t \n      DUP2 \t\t\t DidCre\n      MLOAD \t\t\t event DidCreated(\\n  \n      GT \t\t\t event DidCreated(\\n      \n      PUSH [tag] 407\t\t\t event DidCreated(\\n        ad...\n      JUMPI \t\t\t event DidCreated(\\n        ad...\n      PUSH 40\t\t\t event DidCreated(\\n        ad...\n      MLOAD \t\t\t event DidCreated(\\n        ad...\n      DUP1 \t\t\t event DidCreated(\\n        ad...\n      PUSH 20\t\t\t event DidCreated(\\n        ad...\n      ADD \t\t\t event DidCreated(\\n        ad...\n      PUSH 40\t\t\t event DidCreated(\\n        ad...\n      MSTORE \t\t\t event DidCreated(\\n        ad...\n      DUP1 \t\t\t event DidCreated(\\n        ad...\n      PUSH 0\t\t\t event DidCreated(\\n        ad...\n      DUP2 \t\t\t event DidCreated(\\n        ad...\n      MSTORE \t\t\t event DidCreated(\\n        ad...\n      POP \t\t\t event DidCreated(\\n        ad...\n      PUSH [tag] 408\t\t\t event DidCreated(\\n        ad...\n      JUMP \t\t\t event DidCreated(\\n        ad...\n    tag 407\t\t\t event DidCreated(\\n        ad...\n      JUMPDEST \t\t\t event DidCreated(\\n        ad...\n      DUP1 \t\t\t user,\\n\n      PUSH [tag] 409\t\t\t      uint256 inde\n      DUP5 \t\t\t      u\n      PUSH [tag] 410\t\t\t      uint256 in\n      JUMP \t\t\t      uint256 inde\n    tag 409\t\t\t      uint256 inde\n      JUMPDEST \t\t\t      uint256 inde\n      PUSH 40\t\t\tddress indexed user,\\n        ...\n      MLOAD \t\t\tddress indexed user,\\n        ...\n      PUSH 20\t\t\tddress indexed user,\\n        ...\n      ADD \t\t\tddress indexed user,\\n        ...\n      PUSH [tag] 411\t\t\tddress indexed user,\\n        ...\n      SWAP3 \t\t\tddress indexed user,\\n        ...\n      SWAP2 \t\t\tddress indexed user,\\n        ...\n      SWAP1 \t\t\tddress indexed user,\\n        ...\n      PUSH [tag] 412\t\t\tddress indexed user,\\n        ...\n      JUMP \t\t\tddress indexed user,\\n        ...\n    tag 411\t\t\tddress indexed user,\\n        ...\n      JUMPDEST \t\t\tddress indexed user,\\n        ...\n      PUSH 40\t\t\tddress indexed user,\\n        ...\n      MLOAD \t\t\tddress indexed user,\\n        ...\n      PUSH 20\t\t\tddress indexed user,\\n        ...\n      DUP2 \t\t\tddress indexed user,\\n        ...\n      DUP4 \t\t\tddress indexed user,\\n        ...\n      SUB \t\t\tddress indexed user,\\n        ...\n      SUB \t\t\tddress indexed user,\\n        ...\n      DUP2 \t\t\tddress indexed user,\\n        ...\n      MSTORE \t\t\tddress indexed user,\\n        ...\n      SWAP1 \t\t\tddress indexed user,\\n        ...\n      PUSH 40\t\t\tddress indexed user,\\n        ...\n      MSTORE \t\t\tddress indexed user,\\n        ...\n    tag 408\t\t\t event DidCreated(\\n        ad...\n      JUMPDEST \t\t\t event DidCreated(\\n        ad...\n      SWAP2 \t\t\t */\\n    event DidCreated(\\n  ...\n      POP \t\t\t */\\n    event DidCreated(\\n  ...\n      POP \t\t\t */\\n    event DidCreated(\\n  ...\n      SWAP2 \t\t\t // Base URI for token metadat...\n      SWAP1 \t\t\t // Base URI for token metadat...\n      POP \t\t\t // Base URI for token metadat...\n      JUMP \t\t\t // Base URI for token metadat...\n    tag 167\t\t\ttion updateEncryptedKeyMetadat...\n      JUMPDEST \t\t\ttion updateEncryptedKeyMetadat...\n      CALLER \t\t\tsender) no\n      PUSH A\t\t\tDid[use\n      PUSH 0\t\t\tDid[user], \"N\n      DUP3 \t\t\t], \"\n      PUSH FFFFFFFFFFFFFFFFFFFFFFFFFFFFFFFFFFFFFFFF\t\t\tDid[user], \"N\n      AND \t\t\tDid[user], \"N\n      PUSH FFFFFFFFFFFFFFFFFFFFFFFFFFFFFFFFFFFFFFFF\t\t\tDid[user], \"N\n      AND \t\t\tDid[user], \"N\n      DUP2 \t\t\tDid[user], \"N\n      MSTORE \t\t\tDid[user], \"N\n      PUSH 20\t\t\tDid[user], \"N\n      ADD \t\t\tDid[user], \"N\n      SWAP1 \t\t\tDid[user], \"N\n      DUP2 \t\t\tDid[user], \"N\n      MSTORE \t\t\tDid[user], \"N\n      PUSH 20\t\t\tDid[user], \"N\n      ADD \t\t\tDid[user], \"N\n      PUSH 0\t\t\tDid[user], \"N\n      KECCAK256 \t\t\tDid[user], \"N\n      PUSH 0\t\t\tDid[user], \"N\n      SWAP1 \t\t\tDid[user], \"N\n      SLOAD \t\t\tDid[user], \"N\n      SWAP1 \t\t\tDid[user], \"N\n      PUSH 100\t\t\tDid[user], \"N\n      EXP \t\t\tDid[user], \"N\n      SWAP1 \t\t\tDid[user], \"N\n      DIV \t\t\tDid[user], \"N\n      PUSH FF\t\t\tDid[user], \"N\n      AND \t\t\tDid[user], \"N\n      PUSH [tag] 414\t\t\tire(_hasDid[user], \"No DID\");\\...\n      JUMPI \t\t\tire(_hasDid[user], \"No DID\");\\...\n      PUSH 40\t\t\tire(_hasDid[user], \"No DID\");\\...\n      MLOAD \t\t\tire(_hasDid[user], \"No DID\");\\...\n      PUSH 8C379A000000000000000000000000000000000000000000000000000000000\t\t\tire(_hasDid[user], \"No DID\");\\...\n      DUP2 \t\t\tire(_hasDid[user], \"No DID\");\\...\n      MSTORE \t\t\tire(_hasDid[user], \"No DID\");\\...\n      PUSH 4\t\t\tire(_hasDid[user], \"No DID\");\\...\n      ADD \t\t\tire(_hasDid[user], \"No DID\");\\...\n      PUSH [tag] 415\t\t\tire(_hasDid[user], \"No DID\");\\...\n      SWAP1 \t\t\tire(_hasDid[user], \"No DID\");\\...\n      PUSH [tag] 221\t\t\tire(_hasDid[user], \"No DID\");\\...\n      JUMP \t\t\tire(_hasDid[user], \"No DID\");\\...\n    tag 415\t\t\tire(_hasDid[user], \"No DID\");\\...\n      JUMPDEST \t\t\tire(_hasDid[user], \"No DID\");\\...\n      PUSH 40\t\t\tire(_hasDid[user], \"No DID\");\\...\n      MLOAD \t\t\tire(_hasDid[user], \"No DID\");\\...\n      DUP1 \t\t\tire(_hasDid[user], \"No DID\");\\...\n      SWAP2 \t\t\tire(_hasDid[user], \"No DID\");\\...\n      SUB \t\t\tire(_hasDid[user], \"No DID\");\\...\n      SWAP1 \t\t\tire(_hasDid[user], \"No DID\");\\...\n      REVERT \t\t\tire(_hasDid[user], \"No DID\");\\...\n    tag 414\t\t\tire(_hasDid[user], \"No DID\");\\...\n      JUMPDEST \t\t\tire(_hasDid[user], \"No DID\");\\...\n      DUP1 \t\t\t, \"N\n      PUSH FFFFFFFFFFFFFFFFFFFFFFFFFFFFFFFFFFFFFFFF\t\t\tsender == user, \"N\n      AND \t\t\tsender == user, \"N\n      CALLER \t\t\tsender == \n      PUSH FFFFFFFFFFFFFFFFFFFFFFFFFFFFFFFFFFFFFFFF\t\t\tsender == user, \"N\n      AND \t\t\tsender == user, \"N\n      EQ \t\t\tsender == user, \"N\n      PUSH [tag] 416\t\t\tire(msg.sender == user, \"Not o...\n      JUMPI \t\t\tire(msg.sender == user, \"Not o...\n      PUSH 40\t\t\tire(msg.sender == user, \"Not o...\n      MLOAD \t\t\tire(msg.sender == user, \"Not o...\n      PUSH 8C379A000000000000000000000000000000000000000000000000000000000\t\t\tire(msg.sender == user, \"Not o...\n      DUP2 \t\t\tire(msg.sender == user, \"Not o...\n      MSTORE \t\t\tire(msg.sender == user, \"Not o...\n      PUSH 4\t\t\tire(msg.sender == user, \"Not o...\n      ADD \t\t\tire(msg.sender == user, \"Not o...\n      PUSH [tag] 417\t\t\tire(msg.sender == user, \"Not o...\n      SWAP1 \t\t\tire(msg.sender == user, \"Not o...\n      PUSH [tag] 232\t\t\tire(msg.sender == user, \"Not o...\n      JUMP \t\t\tire(msg.sender == user, \"Not o...\n    tag 417\t\t\tire(msg.sender == user, \"Not o...\n      JUMPDEST \t\t\tire(msg.sender == user, \"Not o...\n      PUSH 40\t\t\tire(msg.sender == user, \"Not o...\n      MLOAD \t\t\tire(msg.sender == user, \"Not o...\n      DUP1 \t\t\tire(msg.sender == user, \"Not o...\n      SWAP2 \t\t\tire(msg.sender == user, \"Not o...\n      SUB \t\t\tire(msg.sender == user, \"Not o...\n      SWAP1 \t\t\tire(msg.sender == user, \"Not o...\n      REVERT \t\t\tire(msg.sender == user, \"Not o...\n    tag 416\t\t\tire(msg.sender == user, \"Not o...\n      JUMPDEST \t\t\tire(msg.sender == user, \"Not o...\n      CALLER \t\t\tsender) no\n      PUSH A\t\t\tDid[use\n      PUSH 0\t\t\tDid[user], \"N\n      DUP3 \t\t\t], \"\n      PUSH FFFFFFFFFFFFFFFFFFFFFFFFFFFFFFFFFFFFFFFF\t\t\tDid[user], \"N\n      AND \t\t\tDid[user], \"N\n      PUSH FFFFFFFFFFFFFFFFFFFFFFFFFFFFFFFFFFFFFFFF\t\t\tDid[user], \"N\n      AND \t\t\tDid[user], \"N\n      DUP2 \t\t\tDid[user], \"N\n      MSTORE \t\t\tDid[user], \"N\n      PUSH 20\t\t\tDid[user], \"N\n      ADD \t\t\tDid[user], \"N\n      SWAP1 \t\t\tDid[user], \"N\n      DUP2 \t\t\tDid[user], \"N\n      MSTORE \t\t\tDid[user], \"N\n      PUSH 20\t\t\tDid[user], \"N\n      ADD \t\t\tDid[user], \"N\n      PUSH 0\t\t\tDid[user], \"N\n      KECCAK256 \t\t\tDid[user], \"N\n      PUSH 0\t\t\tDid[user], \"N\n      SWAP1 \t\t\tDid[user], \"N\n      SLOAD \t\t\tDid[user], \"N\n      SWAP1 \t\t\tDid[user], \"N\n      PUSH 100\t\t\tDid[user], \"N\n      EXP \t\t\tDid[user], \"N\n      SWAP1 \t\t\tDid[user], \"N\n      DIV \t\t\tDid[user], \"N\n      PUSH FF\t\t\tDid[user], \"N\n      AND \t\t\tDid[user], \"N\n      PUSH [tag] 419\t\t\tire(_hasDid[user], \"No DID\");\\...\n      JUMPI \t\t\tire(_hasDid[user], \"No DID\");\\...\n      PUSH 40\t\t\tire(_hasDid[user], \"No DID\");\\...\n      MLOAD \t\t\tire(_hasDid[user], \"No DID\");\\...\n      PUSH 8C379A000000000000000000000000000000000000000000000000000000000\t\t\tire(_hasDid[user], \"No DID\");\\...\n      DUP2 \t\t\tire(_hasDid[user], \"No DID\");\\...\n      MSTORE \t\t\tire(_hasDid[user], \"No DID\");\\...\n      PUSH 4\t\t\tire(_hasDid[user], \"No DID\");\\...\n      ADD \t\t\tire(_hasDid[user], \"No DID\");\\...\n      PUSH [tag] 420\t\t\tire(_hasDid[user], \"No DID\");\\...\n      SWAP1 \t\t\tire(_hasDid[user], \"No DID\");\\...\n      PUSH [tag] 221\t\t\tire(_hasDid[user], \"No DID\");\\...\n      JUMP \t\t\tire(_hasDid[user], \"No DID\");\\...\n    tag 420\t\t\tire(_hasDid[user], \"No DID\");\\...\n      JUMPDEST \t\t\tire(_hasDid[user], \"No DID\");\\...\n      PUSH 40\t\t\tire(_hasDid[user], \"No DID\");\\...\n      MLOAD \t\t\tire(_hasDid[user], \"No DID\");\\...\n      DUP1 \t\t\tire(_hasDid[user], \"No DID\");\\...\n      SWAP2 \t\t\tire(_hasDid[user], \"No DID\");\\...\n      SUB \t\t\tire(_hasDid[user], \"No DID\");\\...\n      SWAP1 \t\t\tire(_hasDid[user], \"No DID\");\\...\n      REVERT \t\t\tire(_hasDid[user], \"No DID\");\\...\n    tag 419\t\t\tire(_hasDid[user], \"No DID\");\\...\n      JUMPDEST \t\t\tire(_hasDid[user], \"No DID\");\\...\n      PUSH 0\t\t\t256 tokenId = _\n      PUSH 9\t\t\terToTokenId[use\n      PUSH 0\t\t\terToTokenId[user];\\n  \n      DUP4 \t\t\t];\\n \n      PUSH FFFFFFFFFFFFFFFFFFFFFFFFFFFFFFFFFFFFFFFF\t\t\terToTokenId[user];\\n  \n      AND \t\t\terToTokenId[user];\\n  \n      PUSH FFFFFFFFFFFFFFFFFFFFFFFFFFFFFFFFFFFFFFFF\t\t\terToTokenId[user];\\n  \n      AND \t\t\terToTokenId[user];\\n  \n      DUP2 \t\t\terToTokenId[user];\\n  \n      MSTORE \t\t\terToTokenId[user];\\n  \n      PUSH 20\t\t\terToTokenId[user];\\n  \n      ADD \t\t\terToTokenId[user];\\n  \n      SWAP1 \t\t\terToTokenId[user];\\n  \n      DUP2 \t\t\terToTokenId[user];\\n  \n      MSTORE \t\t\terToTokenId[user];\\n  \n      PUSH 20\t\t\terToTokenId[user];\\n  \n      ADD \t\t\terToTokenId[user];\\n  \n      PUSH 0\t\t\terToTokenId[user];\\n  \n      KECCAK256 \t\t\terToTokenId[user];\\n  \n      SLOAD \t\t\terToTokenId[user];\\n  \n      SWAP1 \t\t\t256 tokenId = _ownerToTokenId[...\n      POP \t\t\t256 tokenId = _ownerToTokenId[...\n      PUSH B\t\t\tokedTokens[tok\n      PUSH 0\t\t\tokedTokens[tokenId], \"R\n      DUP3 \t\t\tnId], \"\n      DUP2 \t\t\tokedTokens[tokenId], \"R\n      MSTORE \t\t\tokedTokens[tokenId], \"R\n      PUSH 20\t\t\tokedTokens[tokenId], \"R\n      ADD \t\t\tokedTokens[tokenId], \"R\n      SWAP1 \t\t\tokedTokens[tokenId], \"R\n      DUP2 \t\t\tokedTokens[tokenId], \"R\n      MSTORE \t\t\tokedTokens[tokenId], \"R\n      PUSH 20\t\t\tokedTokens[tokenId], \"R\n      ADD \t\t\tokedTokens[tokenId], \"R\n      PUSH 0\t\t\tokedTokens[tokenId], \"R\n      KECCAK256 \t\t\tokedTokens[tokenId], \"R\n      PUSH 0\t\t\tokedTokens[tokenId], \"R\n      SWAP1 \t\t\tokedTokens[tokenId], \"R\n      SLOAD \t\t\tokedTokens[tokenId], \"R\n      SWAP1 \t\t\tokedTokens[tokenId], \"R\n      PUSH 100\t\t\tokedTokens[tokenId], \"R\n      EXP \t\t\tokedTokens[tokenId], \"R\n      SWAP1 \t\t\tokedTokens[tokenId], \"R\n      DIV \t\t\tokedTokens[tokenId], \"R\n      PUSH FF\t\t\tokedTokens[tokenId], \"R\n      AND \t\t\tokedTokens[tokenId], \"R\n      ISZERO \t\t\tvokedTokens[tokenId], \"R\n      PUSH [tag] 421\t\t\tire(!_revokedTokens[tokenId], ...\n      JUMPI \t\t\tire(!_revokedTokens[tokenId], ...\n      PUSH 40\t\t\tire(!_revokedTokens[tokenId], ...\n      MLOAD \t\t\tire(!_revokedTokens[tokenId], ...\n      PUSH 8C379A000000000000000000000000000000000000000000000000000000000\t\t\tire(!_revokedTokens[tokenId], ...\n      DUP2 \t\t\tire(!_revokedTokens[tokenId], ...\n      MSTORE \t\t\tire(!_revokedTokens[tokenId], ...\n      PUSH 4\t\t\tire(!_revokedTokens[tokenId], ...\n      ADD \t\t\tire(!_revokedTokens[tokenId], ...\n      PUSH [tag] 422\t\t\tire(!_revokedTokens[tokenId], ...\n      SWAP1 \t\t\tire(!_revokedTokens[tokenId], ...\n      PUSH [tag] 238\t\t\tire(!_revokedTokens[tokenId], ...\n      JUMP \t\t\tire(!_revokedTokens[tokenId], ...\n    tag 422\t\t\tire(!_revokedTokens[tokenId], ...\n      JUMPDEST \t\t\tire(!_revokedTokens[tokenId], ...\n      PUSH 40\t\t\tire(!_revokedTokens[tokenId], ...\n      MLOAD \t\t\tire(!_revokedTokens[tokenId], ...\n      DUP1 \t\t\tire(!_revokedTokens[tokenId], ...\n      SWAP2 \t\t\tire(!_revokedTokens[tokenId], ...\n      SUB \t\t\tire(!_revokedTokens[tokenId], ...\n      SWAP1 \t\t\tire(!_revokedTokens[tokenId], ...\n      REVERT \t\t\tire(!_revokedTokens[tokenId], ...\n    tag 421\t\t\tire(!_revokedTokens[tokenId], ...\n      JUMPDEST \t\t\tire(!_revokedTokens[tokenId], ...\n      PUSH [tag] 424\t\t\t allowPublicMinting;\\n\n      PUSH [tag] 241\t\t\t allowPublicMinting\n      JUMP \t\t\t allowPublicMinting;\\n\n    tag 424\t\t\t allowPublicMinting;\\n\n      JUMPDEST \t\t\t allowPublicMinting;\\n\n      PUSH 0\t\t\t256 tokenId = _\n      PUSH 9\t\t\terToTokenId[msg\n      PUSH 0\t\t\terToTokenId[msg.sender];\\n  \n      CALLER \t\t\tsender];\\n \n      PUSH FFFFFFFFFFFFFFFFFFFFFFFFFFFFFFFFFFFFFFFF\t\t\terToTokenId[msg.sender];\\n  \n      AND \t\t\terToTokenId[msg.sender];\\n  \n      PUSH FFFFFFFFFFFFFFFFFFFFFFFFFFFFFFFFFFFFFFFF\t\t\terToTokenId[msg.sender];\\n  \n      AND \t\t\terToTokenId[msg.sender];\\n  \n      DUP2 \t\t\terToTokenId[msg.sender];\\n  \n      MSTORE \t\t\terToTokenId[msg.sender];\\n  \n      PUSH 20\t\t\terToTokenId[msg.sender];\\n  \n      ADD \t\t\terToTokenId[msg.sender];\\n  \n      SWAP1 \t\t\terToTokenId[msg.sender];\\n  \n      DUP2 \t\t\terToTokenId[msg.sender];\\n  \n      MSTORE \t\t\terToTokenId[msg.sender];\\n  \n      PUSH 20\t\t\terToTokenId[msg.sender];\\n  \n      ADD \t\t\terToTokenId[msg.sender];\\n  \n      PUSH 0\t\t\terToTokenId[msg.sender];\\n  \n      KECCAK256 \t\t\terToTokenId[msg.sender];\\n  \n      SLOAD \t\t\terToTokenId[msg.sender];\\n  \n      SWAP1 \t\t\t256 tokenId = _ownerToTokenId[...\n      POP \t\t\t256 tokenId = _ownerToTokenId[...\n      PUSH 0\t\t\trofile storage profile = _\n      PUSH 8\t\t\tenProfiles[tok\n      PUSH 0\t\t\tenProfiles[tokenId];\\n  \n      DUP4 \t\t\tnId];\\n \n      DUP2 \t\t\tenProfiles[tokenId];\\n  \n      MSTORE \t\t\tenProfiles[tokenId];\\n  \n      PUSH 20\t\t\tenProfiles[tokenId];\\n  \n      ADD \t\t\tenProfiles[tokenId];\\n  \n      SWAP1 \t\t\tenProfiles[tokenId];\\n  \n      DUP2 \t\t\tenProfiles[tokenId];\\n  \n      MSTORE \t\t\tenProfiles[tokenId];\\n  \n      PUSH 20\t\t\tenProfiles[tokenId];\\n  \n      ADD \t\t\tenProfiles[tokenId];\\n  \n      PUSH 0\t\t\tenProfiles[tokenId];\\n  \n      KECCAK256 \t\t\tenProfiles[tokenId];\\n  \n      SWAP1 \t\t\trofile storage profile = _toke...\n      POP \t\t\trofile storage profile = _toke...\n      DUP7 \t\t\tncryptedKeyMetadata;\\n  \n      DUP7 \t\t\tncryptedKeyMetadata;\\n  \n      DUP3 \t\t\tile.enc\n      PUSH 3\t\t\tile.encryptedKeyMetadata = n\n      ADD \t\t\tile.encryptedKeyMetadata = n\n      SWAP2 \t\t\tile.encryptedKeyMetadata = new...\n      DUP3 \t\t\tile.encryptedKeyMetadata = new...\n      PUSH [tag] 426\t\t\tile.encryptedKeyMetadata = new...\n      SWAP3 \t\t\tile.encryptedKeyMetadata = new...\n      SWAP2 \t\t\tile.encryptedKeyMetadata = new...\n      SWAP1 \t\t\tile.encryptedKeyMetadata = new...\n      PUSH [tag] 289\t\t\tile.encryptedKeyMetadata = new...\n      JUMP \t\t\tile.encryptedKeyMetadata = new...\n    tag 426\t\t\tile.encryptedKeyMetadata = new...\n      JUMPDEST \t\t\tile.encryptedKeyMetadata = new...\n      POP \t\t\tile.encryptedKeyMetadata = new...\n      TIMESTAMP \t\t\tk.timestamp);\\n \n      DUP2 \t\t\tile.las\n      PUSH 1\t\t\tile.lastUpdatedAt = u\n      ADD \t\t\tile.lastUpdatedAt = u\n      PUSH 0\t\t\tile.lastUpdatedAt = u\n      PUSH 100\t\t\tile.lastUpdatedAt = uint64(blo...\n      EXP \t\t\tile.lastUpdatedAt = uint64(blo...\n      DUP2 \t\t\tile.lastUpdatedAt = uint64(blo...\n      SLOAD \t\t\tile.lastUpdatedAt = uint64(blo...\n      DUP2 \t\t\tile.lastUpdatedAt = uint64(blo...\n      PUSH FFFFFFFFFFFFFFFF\t\t\tile.lastUpdatedAt = uint64(blo...\n      MUL \t\t\tile.lastUpdatedAt = uint64(blo...\n      NOT \t\t\tile.lastUpdatedAt = uint64(blo...\n      AND \t\t\tile.lastUpdatedAt = uint64(blo...\n      SWAP1 \t\t\tile.lastUpdatedAt = uint64(blo...\n      DUP4 \t\t\tile.lastUpdatedAt = uint64(blo...\n      PUSH FFFFFFFFFFFFFFFF\t\t\tile.lastUpdatedAt = uint64(blo...\n      AND \t\t\tile.lastUpdatedAt = uint64(blo...\n      MUL \t\t\tile.lastUpdatedAt = uint64(blo...\n      OR \t\t\tile.lastUpdatedAt = uint64(blo...\n      SWAP1 \t\t\tile.lastUpdatedAt = uint64(blo...\n      SSTORE \t\t\tile.lastUpdatedAt = uint64(blo...\n      POP \t\t\tile.lastUpdatedAt = uint64(blo...\n      DUP2 \t\t\tnId, ui\n      CALLER \t\t\tsender, to\n      PUSH FFFFFFFFFFFFFFFFFFFFFFFFFFFFFFFFFFFFFFFF\t\t\teyMetadataUpdated(msg.sender, ...\n      AND \t\t\teyMetadataUpdated(msg.sender, ...\n      PUSH EEA13EC8B49FB404F99B1BF8FD2589A5B2FCC7EB6D17E9A0768D55148A807157\t\t\teyMetadataUpdated(msg.sender, ...\n      TIMESTAMP \t\t\tk.timestamp));\\n\n      PUSH 40\t\t\teyMetadataUpdated(msg.sender, ...\n      MLOAD \t\t\teyMetadataUpdated(msg.sender, ...\n      PUSH [tag] 427\t\t\teyMetadataUpdated(msg.sender, ...\n      SWAP2 \t\t\teyMetadataUpdated(msg.sender, ...\n      SWAP1 \t\t\teyMetadataUpdated(msg.sender, ...\n      PUSH [tag] 246\t\t\teyMetadataUpdated(msg.sender, ...\n      JUMP \t\t\teyMetadataUpdated(msg.sender, ...\n    tag 427\t\t\teyMetadataUpdated(msg.sender, ...\n      JUMPDEST \t\t\teyMetadataUpdated(msg.sender, ...\n      PUSH 40\t\t\teyMetadataUpdated(msg.sender, ...\n      MLOAD \t\t\teyMetadataUpdated(msg.sender, ...\n      DUP1 \t\t\teyMetadataUpdated(msg.sender, ...\n      SWAP2 \t\t\teyMetadataUpdated(msg.sender, ...\n      SUB \t\t\teyMetadataUpdated(msg.sender, ...\n      SWAP1 \t\t\teyMetadataUpdated(msg.sender, ...\n      LOG3 \t\t\teyMetadataUpdated(msg.sender, ...\n      POP \t\t\t      uint256 tokenId = _owner...\n      POP \t\t\t      uint256 tokenId = _owner...\n      PUSH [tag] 428\t\t\tfor token metadata\\n \n      PUSH [tag] 248\t\t\tfor token metadata\n      JUMP \t\t\tfor token metadata\\n \n    tag 428\t\t\tfor token metadata\\n \n      JUMPDEST \t\t\tfor token metadata\\n \n      POP \t\t\t      require(_hasDid[user], \"...\n      POP \t\t\t \n      POP \t\t\ttion updateEncryptedKeyMetadat...\n      POP \t\t\ttion updateEncryptedKeyMetadat...\n      POP \t\t\ttion updateEncryptedKeyMetadat...\n      JUMP \t\t\ttion updateEncryptedKeyMetadat...\n    tag 170\t\t\ttion isRevoked(address user) e...\n      JUMPDEST \t\t\ttion isRevoked(address user) e...\n      PUSH 0\t\t\t) {\\n\n      PUSH A\t\t\tDid[use\n      PUSH 0\t\t\tDid[user]) {\\n\n      DUP4 \t\t\t]) {\n      PUSH FFFFFFFFFFFFFFFFFFFFFFFFFFFFFFFFFFFFFFFF\t\t\tDid[user]) {\\n\n      AND \t\t\tDid[user]) {\\n\n      PUSH FFFFFFFFFFFFFFFFFFFFFFFFFFFFFFFFFFFFFFFF\t\t\tDid[user]) {\\n\n      AND \t\t\tDid[user]) {\\n\n      DUP2 \t\t\tDid[user]) {\\n\n      MSTORE \t\t\tDid[user]) {\\n\n      PUSH 20\t\t\tDid[user]) {\\n\n      ADD \t\t\tDid[user]) {\\n\n      SWAP1 \t\t\tDid[user]) {\\n\n      DUP2 \t\t\tDid[user]) {\\n\n      MSTORE \t\t\tDid[user]) {\\n\n      PUSH 20\t\t\tDid[user]) {\\n\n      ADD \t\t\tDid[user]) {\\n\n      PUSH 0\t\t\tDid[user]) {\\n\n      KECCAK256 \t\t\tDid[user]) {\\n\n      PUSH 0\t\t\tDid[user]) {\\n\n      SWAP1 \t\t\tDid[user]) {\\n\n      SLOAD \t\t\tDid[user]) {\\n\n      SWAP1 \t\t\tDid[user]) {\\n\n      PUSH 100\t\t\tDid[user]) {\\n\n      EXP \t\t\tDid[user]) {\\n\n      SWAP1 \t\t\tDid[user]) {\\n\n      DIV \t\t\tDid[user]) {\\n\n      PUSH FF\t\t\tDid[user]) {\\n\n      AND \t\t\tDid[user]) {\\n\n      PUSH [tag] 430\t\t\t!_hasDid[user]) {\\n           ...\n      JUMPI \t\t\t!_hasDid[user]) {\\n           ...\n      PUSH 0\t\t\te;\\n  \n      SWAP1 \t\t\trn false;\\n  \n      POP \t\t\trn false;\\n  \n      PUSH [tag] 429\t\t\trn false;\\n  \n      JUMP \t\t\trn false;\\n  \n    tag 430\t\t\t!_hasDid[user]) {\\n           ...\n      JUMPDEST \t\t\t!_hasDid[user]) {\\n           ...\n      PUSH 0\t\t\t256 tokenId = _\n      PUSH 9\t\t\terToTokenId[use\n      PUSH 0\t\t\terToTokenId[user];\\n  \n      DUP5 \t\t\t];\\n \n      PUSH FFFFFFFFFFFFFFFFFFFFFFFFFFFFFFFFFFFFFFFF\t\t\terToTokenId[user];\\n  \n      AND \t\t\terToTokenId[user];\\n  \n      PUSH FFFFFFFFFFFFFFFFFFFFFFFFFFFFFFFFFFFFFFFF\t\t\terToTokenId[user];\\n  \n      AND \t\t\terToTokenId[user];\\n  \n      DUP2 \t\t\terToTokenId[user];\\n  \n      MSTORE \t\t\terToTokenId[user];\\n  \n      PUSH 20\t\t\terToTokenId[user];\\n  \n      ADD \t\t\terToTokenId[user];\\n  \n      SWAP1 \t\t\terToTokenId[user];\\n  \n      DUP2 \t\t\terToTokenId[user];\\n  \n      MSTORE \t\t\terToTokenId[user];\\n  \n      PUSH 20\t\t\terToTokenId[user];\\n  \n      ADD \t\t\terToTokenId[user];\\n  \n      PUSH 0\t\t\terToTokenId[user];\\n  \n      KECCAK256 \t\t\terToTokenId[user];\\n  \n      SLOAD \t\t\terToTokenId[user];\\n  \n      SWAP1 \t\t\t256 tokenId = _ownerToTokenId[...\n      POP \t\t\t256 tokenId = _ownerToTokenId[...\n      PUSH B\t\t\tokedTokens[tok\n      PUSH 0\t\t\tokedTokens[tokenId];\\n  \n      DUP3 \t\t\tnId];\\n \n      DUP2 \t\t\tokedTokens[tokenId];\\n  \n      MSTORE \t\t\tokedTokens[tokenId];\\n  \n      PUSH 20\t\t\tokedTokens[tokenId];\\n  \n      ADD \t\t\tokedTokens[tokenId];\\n  \n      SWAP1 \t\t\tokedTokens[tokenId];\\n  \n      DUP2 \t\t\tokedTokens[tokenId];\\n  \n      MSTORE \t\t\tokedTokens[tokenId];\\n  \n      PUSH 20\t\t\tokedTokens[tokenId];\\n  \n      ADD \t\t\tokedTokens[tokenId];\\n  \n      PUSH 0\t\t\tokedTokens[tokenId];\\n  \n      KECCAK256 \t\t\tokedTokens[tokenId];\\n  \n      PUSH 0\t\t\tokedTokens[tokenId];\\n  \n      SWAP1 \t\t\tokedTokens[tokenId];\\n  \n      SLOAD \t\t\tokedTokens[tokenId];\\n  \n      SWAP1 \t\t\tokedTokens[tokenId];\\n  \n      PUSH 100\t\t\tokedTokens[tokenId];\\n  \n      EXP \t\t\tokedTokens[tokenId];\\n  \n      SWAP1 \t\t\tokedTokens[tokenId];\\n  \n      DIV \t\t\tokedTokens[tokenId];\\n  \n      PUSH FF\t\t\tokedTokens[tokenId];\\n  \n      AND \t\t\tokedTokens[tokenId];\\n  \n      SWAP2 \t\t\trn _revokedTokens[tokenId];\\n ...\n      POP \t\t\trn _revokedTokens[tokenId];\\n ...\n      POP \t\t\trn _revokedTokens[tokenId];\\n ...\n    tag 429\t\t\ttion isRevoked(address user) e...\n      JUMPDEST \t\t\ttion isRevoked(address user) e...\n      SWAP2 \t\t\ttion isRevoked(address user) e...\n      SWAP1 \t\t\ttion isRevoked(address user) e...\n      POP \t\t\ttion isRevoked(address user) e...\n      JUMP \t\t\ttion isRevoked(address user) e...\n    tag 174\t\t\ttion createDid(address user) e...\n      JUMPDEST \t\t\ttion createDid(address user) e...\n      PUSH 0\t\t\t256) {\\n\n      PUSH E\t\t\tendSigner || \n      PUSH 0\t\t\tendSigner || \n      SWAP1 \t\t\tendSigner || \n      SLOAD \t\t\tendSigner || \n      SWAP1 \t\t\tendSigner || \n      PUSH 100\t\t\tendSigner || \n      EXP \t\t\tendSigner || \n      SWAP1 \t\t\tendSigner || \n      DIV \t\t\tendSigner || \n      PUSH FFFFFFFFFFFFFFFFFFFFFFFFFFFFFFFFFFFFFFFF\t\t\tendSigner || \n      AND \t\t\tendSigner || \n      PUSH FFFFFFFFFFFFFFFFFFFFFFFFFFFFFFFFFFFFFFFF\t\t\tsender == backendSigner || \n      AND \t\t\tsender == backendSigner || \n      CALLER \t\t\tsender == \n      PUSH FFFFFFFFFFFFFFFFFFFFFFFFFFFFFFFFFFFFFFFF\t\t\tsender == backendSigner || \n      AND \t\t\tsender == backendSigner || \n      EQ \t\t\tsender == backendSigner || \n      DUP1 \t\t\tsender == backendSigner || all...\n      PUSH [tag] 432\t\t\tsender == backendSigner || all...\n      JUMPI \t\t\tsender == backendSigner || all...\n      POP \t\t\tsender == backendSigner || all...\n      PUSH E\t\t\twPublicMinting || \n      PUSH 14\t\t\twPublicMinting || \n      SWAP1 \t\t\twPublicMinting || \n      SLOAD \t\t\twPublicMinting || \n      SWAP1 \t\t\twPublicMinting || \n      PUSH 100\t\t\twPublicMinting || \n      EXP \t\t\twPublicMinting || \n      SWAP1 \t\t\twPublicMinting || \n      DIV \t\t\twPublicMinting || \n      PUSH FF\t\t\twPublicMinting || \n      AND \t\t\twPublicMinting || \n    tag 432\t\t\tsender == backendSigner || all...\n      JUMPDEST \t\t\tsender == backendSigner || all...\n      DUP1 \t\t\tsender == backendSigner || all...\n      PUSH [tag] 433\t\t\tsender == backendSigner || all...\n      JUMPI \t\t\tsender == backendSigner || all...\n      POP \t\t\tsender == backendSigner || all...\n      PUSH [tag] 434\t\t\tr(),\\n  \n      PUSH [tag] 132\t\t\tr(),\\n\n      JUMP \t\t\tr(),\\n  \n    tag 434\t\t\tr(),\\n  \n      JUMPDEST \t\t\tr(),\\n  \n      PUSH FFFFFFFFFFFFFFFFFFFFFFFFFFFFFFFFFFFFFFFF\t\t\tsender == owner(),\\n  \n      AND \t\t\tsender == owner(),\\n  \n      CALLER \t\t\tsender == \n      PUSH FFFFFFFFFFFFFFFFFFFFFFFFFFFFFFFFFFFFFFFF\t\t\tsender == owner(),\\n  \n      AND \t\t\tsender == owner(),\\n  \n      EQ \t\t\tsender == owner(),\\n  \n    tag 433\t\t\tsender == backendSigner || all...\n      JUMPDEST \t\t\tsender == backendSigner || all...\n      PUSH [tag] 435\t\t\tire(\\n            msg.sender =...\n      JUMPI \t\t\tire(\\n            msg.sender =...\n      PUSH 40\t\t\tire(\\n            msg.sender =...\n      MLOAD \t\t\tire(\\n            msg.sender =...\n      PUSH 8C379A000000000000000000000000000000000000000000000000000000000\t\t\tire(\\n            msg.sender =...\n      DUP2 \t\t\tire(\\n            msg.sender =...\n      MSTORE \t\t\tire(\\n            msg.sender =...\n      PUSH 4\t\t\tire(\\n            msg.sender =...\n      ADD \t\t\tire(\\n            msg.sender =...\n      PUSH [tag] 436\t\t\tire(\\n            msg.sender =...\n      SWAP1 \t\t\tire(\\n            msg.sender =...\n      PUSH [tag] 317\t\t\tire(\\n            msg.sender =...\n      JUMP \t\t\tire(\\n            msg.sender =...\n    tag 436\t\t\tire(\\n            msg.sender =...\n      JUMPDEST \t\t\tire(\\n            msg.sender =...\n      PUSH 40\t\t\tire(\\n            msg.sender =...\n      MLOAD \t\t\tire(\\n            msg.sender =...\n      DUP1 \t\t\tire(\\n            msg.sender =...\n      SWAP2 \t\t\tire(\\n            msg.sender =...\n      SUB \t\t\tire(\\n            msg.sender =...\n      SWAP1 \t\t\tire(\\n            msg.sender =...\n      REVERT \t\t\tire(\\n            msg.sender =...\n    tag 435\t\t\tire(\\n            msg.sender =...\n      JUMPDEST \t\t\tire(\\n            msg.sender =...\n      PUSH [tag] 438\t\t\t allowPublicMinting;\\n\n      PUSH [tag] 241\t\t\t allowPublicMinting\n      JUMP \t\t\t allowPublicMinting;\\n\n    tag 438\t\t\t allowPublicMinting;\\n\n      JUMPDEST \t\t\t allowPublicMinting;\\n\n      PUSH A\t\t\tDid[use\n      PUSH 0\t\t\tDid[user], \"H\n      DUP4 \t\t\t], \"\n      PUSH FFFFFFFFFFFFFFFFFFFFFFFFFFFFFFFFFFFFFFFF\t\t\tDid[user], \"H\n      AND \t\t\tDid[user], \"H\n      PUSH FFFFFFFFFFFFFFFFFFFFFFFFFFFFFFFFFFFFFFFF\t\t\tDid[user], \"H\n      AND \t\t\tDid[user], \"H\n      DUP2 \t\t\tDid[user], \"H\n      MSTORE \t\t\tDid[user], \"H\n      PUSH 20\t\t\tDid[user], \"H\n      ADD \t\t\tDid[user], \"H\n      SWAP1 \t\t\tDid[user], \"H\n      DUP2 \t\t\tDid[user], \"H\n      MSTORE \t\t\tDid[user], \"H\n      PUSH 20\t\t\tDid[user], \"H\n      ADD \t\t\tDid[user], \"H\n      PUSH 0\t\t\tDid[user], \"H\n      KECCAK256 \t\t\tDid[user], \"H\n      PUSH 0\t\t\tDid[user], \"H\n      SWAP1 \t\t\tDid[user], \"H\n      SLOAD \t\t\tDid[user], \"H\n      SWAP1 \t\t\tDid[user], \"H\n      PUSH 100\t\t\tDid[user], \"H\n      EXP \t\t\tDid[user], \"H\n      SWAP1 \t\t\tDid[user], \"H\n      DIV \t\t\tDid[user], \"H\n      PUSH FF\t\t\tDid[user], \"H\n      AND \t\t\tDid[user], \"H\n      ISZERO \t\t\tsDid[user], \"H\n      PUSH [tag] 440\t\t\tire(!_hasDid[user], \"Has DID\")...\n      JUMPI \t\t\tire(!_hasDid[user], \"Has DID\")...\n      PUSH 40\t\t\tire(!_hasDid[user], \"Has DID\")...\n      MLOAD \t\t\tire(!_hasDid[user], \"Has DID\")...\n      PUSH 8C379A000000000000000000000000000000000000000000000000000000000\t\t\tire(!_hasDid[user], \"Has DID\")...\n      DUP2 \t\t\tire(!_hasDid[user], \"Has DID\")...\n      MSTORE \t\t\tire(!_hasDid[user], \"Has DID\")...\n      PUSH 4\t\t\tire(!_hasDid[user], \"Has DID\")...\n      ADD \t\t\tire(!_hasDid[user], \"Has DID\")...\n      PUSH [tag] 441\t\t\tire(!_hasDid[user], \"Has DID\")...\n      SWAP1 \t\t\tire(!_hasDid[user], \"Has DID\")...\n      PUSH [tag] 330\t\t\tire(!_hasDid[user], \"Has DID\")...\n      JUMP \t\t\tire(!_hasDid[user], \"Has DID\")...\n    tag 441\t\t\tire(!_hasDid[user], \"Has DID\")...\n      JUMPDEST \t\t\tire(!_hasDid[user], \"Has DID\")...\n      PUSH 40\t\t\tire(!_hasDid[user], \"Has DID\")...\n      MLOAD \t\t\tire(!_hasDid[user], \"Has DID\")...\n      DUP1 \t\t\tire(!_hasDid[user], \"Has DID\")...\n      SWAP2 \t\t\tire(!_hasDid[user], \"Has DID\")...\n      SUB \t\t\tire(!_hasDid[user], \"Has DID\")...\n      SWAP1 \t\t\tire(!_hasDid[user], \"Has DID\")...\n      REVERT \t\t\tire(!_hasDid[user], \"Has DID\")...\n    tag 440\t\t\tire(!_hasDid[user], \"Has DID\")...\n      JUMPDEST \t\t\tire(!_hasDid[user], \"Has DID\")...\n      PUSH 0\t\t\t\"\n      PUSH FFFFFFFFFFFFFFFFFFFFFFFFFFFFFFFFFFFFFFFF\t\t\t != address(0), \"Z\n      AND \t\t\t != address(0), \"Z\n      DUP3 \t\t\t != \n      PUSH FFFFFFFFFFFFFFFFFFFFFFFFFFFFFFFFFFFFFFFF\t\t\t != address(0), \"Z\n      AND \t\t\t != address(0), \"Z\n      SUB \t\t\t != address(0), \"Z\n      PUSH [tag] 442\t\t\tire(user != address(0), \"Zero ...\n      JUMPI \t\t\tire(user != address(0), \"Zero ...\n      PUSH 40\t\t\tire(user != address(0), \"Zero ...\n      MLOAD \t\t\tire(user != address(0), \"Zero ...\n      PUSH 8C379A000000000000000000000000000000000000000000000000000000000\t\t\tire(user != address(0), \"Zero ...\n      DUP2 \t\t\tire(user != address(0), \"Zero ...\n      MSTORE \t\t\tire(user != address(0), \"Zero ...\n      PUSH 4\t\t\tire(user != address(0), \"Zero ...\n      ADD \t\t\tire(user != address(0), \"Zero ...\n      PUSH [tag] 443\t\t\tire(user != address(0), \"Zero ...\n      SWAP1 \t\t\tire(user != address(0), \"Zero ...\n      PUSH [tag] 320\t\t\tire(user != address(0), \"Zero ...\n      JUMP \t\t\tire(user != address(0), \"Zero ...\n    tag 443\t\t\tire(user != address(0), \"Zero ...\n      JUMPDEST \t\t\tire(user != address(0), \"Zero ...\n      PUSH 40\t\t\tire(user != address(0), \"Zero ...\n      MLOAD \t\t\tire(user != address(0), \"Zero ...\n      DUP1 \t\t\tire(user != address(0), \"Zero ...\n      SWAP2 \t\t\tire(user != address(0), \"Zero ...\n      SUB \t\t\tire(user != address(0), \"Zero ...\n      SWAP1 \t\t\tire(user != address(0), \"Zero ...\n      REVERT \t\t\tire(user != address(0), \"Zero ...\n    tag 442\t\t\tire(user != address(0), \"Zero ...\n      JUMPDEST \t\t\tire(user != address(0), \"Zero ...\n      PUSH D\t\t\tenCounter++;\\n\n      PUSH 0\t\t\tenCounter++;\\n\n      DUP2 \t\t\tenCounter++;\\n  \n      SLOAD \t\t\tenCounter++;\\n  \n      DUP1 \t\t\tenCounter++;\\n  \n      SWAP3 \t\t\tenCounter++;\\n  \n      SWAP2 \t\t\tenCounter++;\\n  \n      SWAP1 \t\t\tenCounter++;\\n  \n      PUSH [tag] 444\t\t\tenCounter++;\\n  \n      SWAP1 \t\t\tenCounter++;\\n  \n      PUSH [tag] 334\t\t\tenCounter++;\\n  \n      JUMP \t\t\tenCounter++;\\n  \n    tag 444\t\t\tenCounter++;\\n  \n      JUMPDEST \t\t\tenCounter++;\\n  \n      SWAP2 \t\t\tenCounter++;\\n  \n      SWAP1 \t\t\tenCounter++;\\n  \n      POP \t\t\tenCounter++;\\n  \n      SSTORE \t\t\tenCounter++;\\n  \n      POP \t\t\tenCounter++;\\n  \n      PUSH 0\t\t\t256 tokenId = _\n      PUSH D\t\t\tenCounter;\\n\\n \n      SLOAD \t\t\tenCounter;\\n\\n \n      SWAP1 \t\t\t256 tokenId = _tokenCounter;\\n...\n      POP \t\t\t256 tokenId = _tokenCounter;\\n...\n      PUSH 0\t\t\trofile memory profile = D\n      PUSH 40\t\t\trofile({\\n            owner: u...\n      MLOAD \t\t\trofile({\\n            owner: u...\n      DUP1 \t\t\trofile({\\n            owner: u...\n      PUSH A0\t\t\trofile({\\n            owner: u...\n      ADD \t\t\trofile({\\n            owner: u...\n      PUSH 40\t\t\trofile({\\n            owner: u...\n      MSTORE \t\t\trofile({\\n            owner: u...\n      DUP1 \t\t\trofile({\\n            owner: u...\n      DUP6 \t\t\t,\\n  \n      PUSH FFFFFFFFFFFFFFFFFFFFFFFFFFFFFFFFFFFFFFFF\t\t\trofile({\\n            owner: u...\n      AND \t\t\trofile({\\n            owner: u...\n      DUP2 \t\t\trofile({\\n            owner: u...\n      MSTORE \t\t\trofile({\\n            owner: u...\n      PUSH 20\t\t\trofile({\\n            owner: u...\n      ADD \t\t\trofile({\\n            owner: u...\n      TIMESTAMP \t\t\tk.timestamp),\\n \n      PUSH FFFFFFFFFFFFFFFF\t\t\trofile({\\n            owner: u...\n      AND \t\t\trofile({\\n            owner: u...\n      DUP2 \t\t\trofile({\\n            owner: u...\n      MSTORE \t\t\trofile({\\n            owner: u...\n      PUSH 20\t\t\trofile({\\n            owner: u...\n      ADD \t\t\trofile({\\n            owner: u...\n      TIMESTAMP \t\t\tk.timestamp),\\n \n      PUSH FFFFFFFFFFFFFFFF\t\t\trofile({\\n            owner: u...\n      AND \t\t\trofile({\\n            owner: u...\n      DUP2 \t\t\trofile({\\n            owner: u...\n      MSTORE \t\t\trofile({\\n            owner: u...\n      PUSH 20\t\t\trofile({\\n            owner: u...\n      ADD \t\t\trofile({\\n            owner: u...\n      PUSH 0\t\t\t \n      DUP1 \t\t\ts32(0),\\n  \n      SHL \t\t\ts32(0),\\n  \n      DUP2 \t\t\trofile({\\n            owner: u...\n      MSTORE \t\t\trofile({\\n            owner: u...\n      PUSH 20\t\t\trofile({\\n            owner: u...\n      ADD \t\t\trofile({\\n            owner: u...\n      PUSH 40\t\t\ts(\"\")\\n   \n      MLOAD \t\t\ts(\"\")\\n   \n      DUP1 \t\t\ts(\"\")\\n   \n      PUSH 20\t\t\ts(\"\")\\n   \n      ADD \t\t\ts(\"\")\\n   \n      PUSH 40\t\t\ts(\"\")\\n   \n      MSTORE \t\t\ts(\"\")\\n   \n      DUP1 \t\t\ts(\"\")\\n   \n      PUSH 0\t\t\ts(\"\")\\n   \n      DUP2 \t\t\ts(\"\")\\n   \n      MSTORE \t\t\ts(\"\")\\n   \n      POP \t\t\ts(\"\")\\n   \n      DUP2 \t\t\trofile({\\n            owner: u...\n      MSTORE \t\t\trofile({\\n            owner: u...\n      POP \t\t\trofile({\\n            owner: u...\n      SWAP1 \t\t\trofile memory profile = DidPro...\n      POP \t\t\trofile memory profile = DidPro...\n      DUP1 \t\t\tile;\\n  \n      PUSH 8\t\t\tenProfiles[tok\n      PUSH 0\t\t\tenProfiles[tokenId] = p\n      DUP5 \t\t\tnId] = \n      DUP2 \t\t\tenProfiles[tokenId] = p\n      MSTORE \t\t\tenProfiles[tokenId] = p\n      PUSH 20\t\t\tenProfiles[tokenId] = p\n      ADD \t\t\tenProfiles[tokenId] = p\n      SWAP1 \t\t\tenProfiles[tokenId] = p\n      DUP2 \t\t\tenProfiles[tokenId] = p\n      MSTORE \t\t\tenProfiles[tokenId] = p\n      PUSH 20\t\t\tenProfiles[tokenId] = p\n      ADD \t\t\tenProfiles[tokenId] = p\n      PUSH 0\t\t\tenProfiles[tokenId] = p\n      KECCAK256 \t\t\tenProfiles[tokenId] = p\n      PUSH 0\t\t\tenProfiles[tokenId] = profile;...\n      DUP3 \t\t\tenProfiles[tokenId] = profile;...\n      ADD \t\t\tenProfiles[tokenId] = profile;...\n      MLOAD \t\t\tenProfiles[tokenId] = profile;...\n      DUP2 \t\t\tenProfiles[tokenId] = profile;...\n      PUSH 0\t\t\tenProfiles[tokenId] = profile;...\n      ADD \t\t\tenProfiles[tokenId] = profile;...\n      PUSH 0\t\t\tenProfiles[tokenId] = profile;...\n      PUSH 100\t\t\tenProfiles[tokenId] = profile;...\n      EXP \t\t\tenProfiles[tokenId] = profile;...\n      DUP2 \t\t\tenProfiles[tokenId] = profile;...\n      SLOAD \t\t\tenProfiles[tokenId] = profile;...\n      DUP2 \t\t\tenProfiles[tokenId] = profile;...\n      PUSH FFFFFFFFFFFFFFFFFFFFFFFFFFFFFFFFFFFFFFFF\t\t\tenProfiles[tokenId] = profile;...\n      MUL \t\t\tenProfiles[tokenId] = profile;...\n      NOT \t\t\tenProfiles[tokenId] = profile;...\n      AND \t\t\tenProfiles[tokenId] = profile;...\n      SWAP1 \t\t\tenProfiles[tokenId] = profile;...\n      DUP4 \t\t\tenProfiles[tokenId] = profile;...\n      PUSH FFFFFFFFFFFFFFFFFFFFFFFFFFFFFFFFFFFFFFFF\t\t\tenProfiles[tokenId] = profile;...\n      AND \t\t\tenProfiles[tokenId] = profile;...\n      MUL \t\t\tenProfiles[tokenId] = profile;...\n      OR \t\t\tenProfiles[tokenId] = profile;...\n      SWAP1 \t\t\tenProfiles[tokenId] = profile;...\n      SSTORE \t\t\tenProfiles[tokenId] = profile;...\n      POP \t\t\tenProfiles[tokenId] = profile;...\n      PUSH 20\t\t\tenProfiles[tokenId] = profile;...\n      DUP3 \t\t\tenProfiles[tokenId] = profile;...\n      ADD \t\t\tenProfiles[tokenId] = profile;...\n      MLOAD \t\t\tenProfiles[tokenId] = profile;...\n      DUP2 \t\t\tenProfiles[tokenId] = profile;...\n      PUSH 0\t\t\tenProfiles[tokenId] = profile;...\n      ADD \t\t\tenProfiles[tokenId] = profile;...\n      PUSH 14\t\t\tenProfiles[tokenId] = profile;...\n      PUSH 100\t\t\tenProfiles[tokenId] = profile;...\n      EXP \t\t\tenProfiles[tokenId] = profile;...\n      DUP2 \t\t\tenProfiles[tokenId] = profile;...\n      SLOAD \t\t\tenProfiles[tokenId] = profile;...\n      DUP2 \t\t\tenProfiles[tokenId] = profile;...\n      PUSH FFFFFFFFFFFFFFFF\t\t\tenProfiles[tokenId] = profile;...\n      MUL \t\t\tenProfiles[tokenId] = profile;...\n      NOT \t\t\tenProfiles[tokenId] = profile;...\n      AND \t\t\tenProfiles[tokenId] = profile;...\n      SWAP1 \t\t\tenProfiles[tokenId] = profile;...\n      DUP4 \t\t\tenProfiles[tokenId] = profile;...\n      PUSH FFFFFFFFFFFFFFFF\t\t\tenProfiles[tokenId] = profile;...\n      AND \t\t\tenProfiles[tokenId] = profile;...\n      MUL \t\t\tenProfiles[tokenId] = profile;...\n      OR \t\t\tenProfiles[tokenId] = profile;...\n      SWAP1 \t\t\tenProfiles[tokenId] = profile;...\n      SSTORE \t\t\tenProfiles[tokenId] = profile;...\n      POP \t\t\tenProfiles[tokenId] = profile;...\n      PUSH 40\t\t\tenProfiles[tokenId] = profile;...\n      DUP3 \t\t\tenProfiles[tokenId] = profile;...\n      ADD \t\t\tenProfiles[tokenId] = profile;...\n      MLOAD \t\t\tenProfiles[tokenId] = profile;...\n      DUP2 \t\t\tenProfiles[tokenId] = profile;...\n      PUSH 1\t\t\tenProfiles[tokenId] = profile;...\n      ADD \t\t\tenProfiles[tokenId] = profile;...\n      PUSH 0\t\t\tenProfiles[tokenId] = profile;...\n      PUSH 100\t\t\tenProfiles[tokenId] = profile;...\n      EXP \t\t\tenProfiles[tokenId] = profile;...\n      DUP2 \t\t\tenProfiles[tokenId] = profile;...\n      SLOAD \t\t\tenProfiles[tokenId] = profile;...\n      DUP2 \t\t\tenProfiles[tokenId] = profile;...\n      PUSH FFFFFFFFFFFFFFFF\t\t\tenProfiles[tokenId] = profile;...\n      MUL \t\t\tenProfiles[tokenId] = profile;...\n      NOT \t\t\tenProfiles[tokenId] = profile;...\n      AND \t\t\tenProfiles[tokenId] = profile;...\n      SWAP1 \t\t\tenProfiles[tokenId] = profile;...\n      DUP4 \t\t\tenProfiles[tokenId] = profile;...\n      PUSH FFFFFFFFFFFFFFFF\t\t\tenProfiles[tokenId] = profile;...\n      AND \t\t\tenProfiles[tokenId] = profile;...\n      MUL \t\t\tenProfiles[tokenId] = profile;...\n      OR \t\t\tenProfiles[tokenId] = profile;...\n      SWAP1 \t\t\tenProfiles[tokenId] = profile;...\n      SSTORE \t\t\tenProfiles[tokenId] = profile;...\n      POP \t\t\tenProfiles[tokenId] = profile;...\n      PUSH 60\t\t\tenProfiles[tokenId] = profile;...\n      DUP3 \t\t\tenProfiles[tokenId] = profile;...\n      ADD \t\t\tenProfiles[tokenId] = profile;...\n      MLOAD \t\t\tenProfiles[tokenId] = profile;...\n      DUP2 \t\t\tenProfiles[tokenId] = profile;...\n      PUSH 2\t\t\tenProfiles[tokenId] = profile;...\n      ADD \t\t\tenProfiles[tokenId] = profile;...\n      SSTORE \t\t\tenProfiles[tokenId] = profile;...\n      PUSH 80\t\t\tenProfiles[tokenId] = profile;...\n      DUP3 \t\t\tenProfiles[tokenId] = profile;...\n      ADD \t\t\tenProfiles[tokenId] = profile;...\n      MLOAD \t\t\tenProfiles[tokenId] = profile;...\n      DUP2 \t\t\tenProfiles[tokenId] = profile;...\n      PUSH 3\t\t\tenProfiles[tokenId] = profile;...\n      ADD \t\t\tenProfiles[tokenId] = profile;...\n      SWAP1 \t\t\tenProfiles[tokenId] = profile;...\n      DUP2 \t\t\tenProfiles[tokenId] = profile;...\n      PUSH [tag] 445\t\t\tenProfiles[tokenId] = profile;...\n      SWAP2 \t\t\tenProfiles[tokenId] = profile;...\n      SWAP1 \t\t\tenProfiles[tokenId] = profile;...\n      PUSH [tag] 345\t\t\tenProfiles[tokenId] = profile;...\n      JUMP \t\t\tenProfiles[tokenId] = profile;...\n    tag 445\t\t\tenProfiles[tokenId] = profile;...\n      JUMPDEST \t\t\tenProfiles[tokenId] = profile;...\n      POP \t\t\tenProfiles[tokenId] = profile;...\n      SWAP1 \t\t\tenProfiles[tokenId] = profile;...\n      POP \t\t\tenProfiles[tokenId] = profile;...\n      POP \t\t\tenProfiles[tokenId] = profile;...\n      DUP2 \t\t\tnId;\\n  \n      PUSH 9\t\t\terToTokenId[use\n      PUSH 0\t\t\terToTokenId[user] = t\n      DUP7 \t\t\t] = \n      PUSH FFFFFFFFFFFFFFFFFFFFFFFFFFFFFFFFFFFFFFFF\t\t\terToTokenId[user] = t\n      AND \t\t\terToTokenId[user] = t\n      PUSH FFFFFFFFFFFFFFFFFFFFFFFFFFFFFFFFFFFFFFFF\t\t\terToTokenId[user] = t\n      AND \t\t\terToTokenId[user] = t\n      DUP2 \t\t\terToTokenId[user] = t\n      MSTORE \t\t\terToTokenId[user] = t\n      PUSH 20\t\t\terToTokenId[user] = t\n      ADD \t\t\terToTokenId[user] = t\n      SWAP1 \t\t\terToTokenId[user] = t\n      DUP2 \t\t\terToTokenId[user] = t\n      MSTORE \t\t\terToTokenId[user] = t\n      PUSH 20\t\t\terToTokenId[user] = t\n      ADD \t\t\terToTokenId[user] = t\n      PUSH 0\t\t\terToTokenId[user] = t\n      KECCAK256 \t\t\terToTokenId[user] = t\n      DUP2 \t\t\terToTokenId[user] = tokenId;\\n...\n      SWAP1 \t\t\terToTokenId[user] = tokenId;\\n...\n      SSTORE \t\t\terToTokenId[user] = tokenId;\\n...\n      POP \t\t\terToTokenId[user] = tokenId;\\n...\n      PUSH 1\t\t\t;\\n\\n \n      PUSH A\t\t\tDid[use\n      PUSH 0\t\t\tDid[user] = t\n      DUP7 \t\t\t] = \n      PUSH FFFFFFFFFFFFFFFFFFFFFFFFFFFFFFFFFFFFFFFF\t\t\tDid[user] = t\n      AND \t\t\tDid[user] = t\n      PUSH FFFFFFFFFFFFFFFFFFFFFFFFFFFFFFFFFFFFFFFF\t\t\tDid[user] = t\n      AND \t\t\tDid[user] = t\n      DUP2 \t\t\tDid[user] = t\n      MSTORE \t\t\tDid[user] = t\n      PUSH 20\t\t\tDid[user] = t\n      ADD \t\t\tDid[user] = t\n      SWAP1 \t\t\tDid[user] = t\n      DUP2 \t\t\tDid[user] = t\n      MSTORE \t\t\tDid[user] = t\n      PUSH 20\t\t\tDid[user] = t\n      ADD \t\t\tDid[user] = t\n      PUSH 0\t\t\tDid[user] = t\n      KECCAK256 \t\t\tDid[user] = t\n      PUSH 0\t\t\tDid[user] = t\n      PUSH 100\t\t\tDid[user] = true;\\n\\n \n      EXP \t\t\tDid[user] = true;\\n\\n \n      DUP2 \t\t\tDid[user] = true;\\n\\n \n      SLOAD \t\t\tDid[user] = true;\\n\\n \n      DUP2 \t\t\tDid[user] = true;\\n\\n \n      PUSH FF\t\t\tDid[user] = true;\\n\\n \n      MUL \t\t\tDid[user] = true;\\n\\n \n      NOT \t\t\tDid[user] = true;\\n\\n \n      AND \t\t\tDid[user] = true;\\n\\n \n      SWAP1 \t\t\tDid[user] = true;\\n\\n \n      DUP4 \t\t\tDid[user] = true;\\n\\n \n      ISZERO \t\t\tDid[user] = true;\\n\\n \n      ISZERO \t\t\tDid[user] = true;\\n\\n \n      MUL \t\t\tDid[user] = true;\\n\\n \n      OR \t\t\tDid[user] = true;\\n\\n \n      SWAP1 \t\t\tDid[user] = true;\\n\\n \n      SSTORE \t\t\tDid[user] = true;\\n\\n \n      POP \t\t\tDid[user] = true;\\n\\n \n      PUSH [tag] 446\t\t\teMint(user, tokenId);\\n\\n \n      DUP5 \t\t\t, to\n      DUP4 \t\t\tnId);\\n\\n\n      PUSH [tag] 347\t\t\teMint(use\n      JUMP \t\t\teMint(user, tokenId);\\n\\n \n    tag 446\t\t\teMint(user, tokenId);\\n\\n \n      JUMPDEST \t\t\teMint(user, tokenId);\\n\\n \n      DUP2 \t\t\tnId, ui\n      DUP5 \t\t\t, to\n      PUSH FFFFFFFFFFFFFFFFFFFFFFFFFFFFFFFFFFFFFFFF\t\t\treated(user, tokenId, uint64(b...\n      AND \t\t\treated(user, tokenId, uint64(b...\n      PUSH FD0C93BE4723CB4C74010465B445D5F99EEF0354F49EE7C247FA9EF9093AA8ED\t\t\treated(user, tokenId, uint64(b...\n      TIMESTAMP \t\t\tk.timestamp));\\n\n      PUSH 40\t\t\treated(user, tokenId, uint64(b...\n      MLOAD \t\t\treated(user, tokenId, uint64(b...\n      PUSH [tag] 447\t\t\treated(user, tokenId, uint64(b...\n      SWAP2 \t\t\treated(user, tokenId, uint64(b...\n      SWAP1 \t\t\treated(user, tokenId, uint64(b...\n      PUSH [tag] 246\t\t\treated(user, tokenId, uint64(b...\n      JUMP \t\t\treated(user, tokenId, uint64(b...\n    tag 447\t\t\treated(user, tokenId, uint64(b...\n      JUMPDEST \t\t\treated(user, tokenId, uint64(b...\n      PUSH 40\t\t\treated(user, tokenId, uint64(b...\n      MLOAD \t\t\treated(user, tokenId, uint64(b...\n      DUP1 \t\t\treated(user, tokenId, uint64(b...\n      SWAP2 \t\t\treated(user, tokenId, uint64(b...\n      SUB \t\t\treated(user, tokenId, uint64(b...\n      SWAP1 \t\t\treated(user, tokenId, uint64(b...\n      LOG3 \t\t\treated(user, tokenId, uint64(b...\n      DUP2 \t\t\tnId;\\n  \n      SWAP3 \t\t\trn tokenId;\\n  \n      POP \t\t\trn tokenId;\\n  \n      POP \t\t\trn tokenId;\\n  \n      POP \t\t\trn tokenId;\\n  \n      PUSH [tag] 448\t\t\tfor token metadata\\n \n      PUSH [tag] 248\t\t\tfor token metadata\n      JUMP \t\t\tfor token metadata\\n \n    tag 448\t\t\tfor token metadata\\n \n      JUMPDEST \t\t\tfor token metadata\\n \n      SWAP2 \t\t\ttion createDid(address user) e...\n      SWAP1 \t\t\ttion createDid(address user) e...\n      POP \t\t\ttion createDid(address user) e...\n      JUMP \t\t\ttion createDid(address user) e...\n    tag 179\t\t\tenId,\\n        uint64 timestam...\n      JUMPDEST \t\t\tenId,\\n        uint64 timestam...\n      PUSH 0\t\t\trate\n      PUSH 5\t\t\t    */\\n    event D\n      PUSH 0\t\t\t    */\\n    event DidMigra\n      DUP5 \t\t\tdMigr\n      PUSH FFFFFFFFFFFFFFFFFFFFFFFFFFFFFFFFFFFFFFFF\t\t\t    */\\n    event DidMigra\n      AND \t\t\t    */\\n    event DidMigra\n      PUSH FFFFFFFFFFFFFFFFFFFFFFFFFFFFFFFFFFFFFFFF\t\t\t    */\\n    event DidMigra\n      AND \t\t\t    */\\n    event DidMigra\n      DUP2 \t\t\t    */\\n    event DidMigra\n      MSTORE \t\t\t    */\\n    event DidMigra\n      PUSH 20\t\t\t    */\\n    event DidMigra\n      ADD \t\t\t    */\\n    event DidMigra\n      SWAP1 \t\t\t    */\\n    event DidMigra\n      DUP2 \t\t\t    */\\n    event DidMigra\n      MSTORE \t\t\t    */\\n    event DidMigra\n      PUSH 20\t\t\t    */\\n    event DidMigra\n      ADD \t\t\t    */\\n    event DidMigra\n      PUSH 0\t\t\t    */\\n    event DidMigra\n      KECCAK256 \t\t\t    */\\n    event DidMigra\n      PUSH 0\t\t\t    */\\n    event DidMigrated(...\n      DUP4 \t\t\ted(\\n    \n      PUSH FFFFFFFFFFFFFFFFFFFFFFFFFFFFFFFFFFFFFFFF\t\t\t    */\\n    event DidMigrated(...\n      AND \t\t\t    */\\n    event DidMigrated(...\n      PUSH FFFFFFFFFFFFFFFFFFFFFFFFFFFFFFFFFFFFFFFF\t\t\t    */\\n    event DidMigrated(...\n      AND \t\t\t    */\\n    event DidMigrated(...\n      DUP2 \t\t\t    */\\n    event DidMigrated(...\n      MSTORE \t\t\t    */\\n    event DidMigrated(...\n      PUSH 20\t\t\t    */\\n    event DidMigrated(...\n      ADD \t\t\t    */\\n    event DidMigrated(...\n      SWAP1 \t\t\t    */\\n    event DidMigrated(...\n      DUP2 \t\t\t    */\\n    event DidMigrated(...\n      MSTORE \t\t\t    */\\n    event DidMigrated(...\n      PUSH 20\t\t\t    */\\n    event DidMigrated(...\n      ADD \t\t\t    */\\n    event DidMigrated(...\n      PUSH 0\t\t\t    */\\n    event DidMigrated(...\n      KECCAK256 \t\t\t    */\\n    event DidMigrated(...\n      PUSH 0\t\t\t    */\\n    event DidMigrated(...\n      SWAP1 \t\t\t    */\\n    event DidMigrated(...\n      SLOAD \t\t\t    */\\n    event DidMigrated(...\n      SWAP1 \t\t\t    */\\n    event DidMigrated(...\n      PUSH 100\t\t\t    */\\n    event DidMigrated(...\n      EXP \t\t\t    */\\n    event DidMigrated(...\n      SWAP1 \t\t\t    */\\n    event DidMigrated(...\n      DIV \t\t\t    */\\n    event DidMigrated(...\n      PUSH FF\t\t\t    */\\n    event DidMigrated(...\n      AND \t\t\t    */\\n    event DidMigrated(...\n      SWAP1 \t\t\tallet\\n     */\\n    event DidM...\n      POP \t\t\tallet\\n     */\\n    event DidM...\n      SWAP3 \t\t\tenId,\\n        uint64 timestam...\n      SWAP2 \t\t\tenId,\\n        uint64 timestam...\n      POP \t\t\tenId,\\n        uint64 timestam...\n      POP \t\t\tenId,\\n        uint64 timestam...\n      JUMP \t\t\tenId,\\n        uint64 timestam...\n    tag 183\t\t\ttion getProfile(uint256 tokenI...\n      JUMPDEST \t\t\ttion getProfile(uint256 tokenI...\n      PUSH [tag] 450\t\t\trofile memory) {\\n\n      PUSH [tag] 217\t\t\trofile memory) {\\n\n      JUMP \t\t\trofile memory) {\\n\n    tag 450\t\t\trofile memory) {\\n\n      JUMPDEST \t\t\trofile memory) {\\n\n      PUSH [tag] 452\t\t\tsts(tokenId), \"N\n      DUP3 \t\t\tnId), \"\n      PUSH [tag] 453\t\t\tsts(tok\n      JUMP \t\t\tsts(tokenId), \"N\n    tag 452\t\t\tsts(tokenId), \"N\n      JUMPDEST \t\t\tsts(tokenId), \"N\n      PUSH [tag] 454\t\t\tire(_exists(tokenId), \"No toke...\n      JUMPI \t\t\tire(_exists(tokenId), \"No toke...\n      PUSH 40\t\t\tire(_exists(tokenId), \"No toke...\n      MLOAD \t\t\tire(_exists(tokenId), \"No toke...\n      PUSH 8C379A000000000000000000000000000000000000000000000000000000000\t\t\tire(_exists(tokenId), \"No toke...\n      DUP2 \t\t\tire(_exists(tokenId), \"No toke...\n      MSTORE \t\t\tire(_exists(tokenId), \"No toke...\n      PUSH 4\t\t\tire(_exists(tokenId), \"No toke...\n      ADD \t\t\tire(_exists(tokenId), \"No toke...\n      PUSH [tag] 455\t\t\tire(_exists(tokenId), \"No toke...\n      SWAP1 \t\t\tire(_exists(tokenId), \"No toke...\n      PUSH [tag] 456\t\t\tire(_exists(tokenId), \"No toke...\n      JUMP \t\t\tire(_exists(tokenId), \"No toke...\n    tag 455\t\t\tire(_exists(tokenId), \"No toke...\n      JUMPDEST \t\t\tire(_exists(tokenId), \"No toke...\n      PUSH 40\t\t\tire(_exists(tokenId), \"No toke...\n      MLOAD \t\t\tire(_exists(tokenId), \"No toke...\n      DUP1 \t\t\tire(_exists(tokenId), \"No toke...\n      SWAP2 \t\t\tire(_exists(tokenId), \"No toke...\n      SUB \t\t\tire(_exists(tokenId), \"No toke...\n      SWAP1 \t\t\tire(_exists(tokenId), \"No toke...\n      REVERT \t\t\tire(_exists(tokenId), \"No toke...\n    tag 454\t\t\tire(_exists(tokenId), \"No toke...\n      JUMPDEST \t\t\tire(_exists(tokenId), \"No toke...\n      PUSH 8\t\t\tenProfiles[tok\n      PUSH 0\t\t\tenProfiles[tokenId];\\n  \n      DUP4 \t\t\tnId];\\n \n      DUP2 \t\t\tenProfiles[tokenId];\\n  \n      MSTORE \t\t\tenProfiles[tokenId];\\n  \n      PUSH 20\t\t\tenProfiles[tokenId];\\n  \n      ADD \t\t\tenProfiles[tokenId];\\n  \n      SWAP1 \t\t\tenProfiles[tokenId];\\n  \n      DUP2 \t\t\tenProfiles[tokenId];\\n  \n      MSTORE \t\t\tenProfiles[tokenId];\\n  \n      PUSH 20\t\t\tenProfiles[tokenId];\\n  \n      ADD \t\t\tenProfiles[tokenId];\\n  \n      PUSH 0\t\t\tenProfiles[tokenId];\\n  \n      KECCAK256 \t\t\tenProfiles[tokenId];\\n  \n      PUSH 40\t\t\trn _tokenProfiles[tokenId];\\n ...\n      MLOAD \t\t\trn _tokenProfiles[tokenId];\\n ...\n      DUP1 \t\t\trn _tokenProfiles[tokenId];\\n ...\n      PUSH A0\t\t\trn _tokenProfiles[tokenId];\\n ...\n      ADD \t\t\trn _tokenProfiles[tokenId];\\n ...\n      PUSH 40\t\t\trn _tokenProfiles[tokenId];\\n ...\n      MSTORE \t\t\trn _tokenProfiles[tokenId];\\n ...\n      SWAP1 \t\t\trn _tokenProfiles[tokenId];\\n ...\n      DUP2 \t\t\trn _tokenProfiles[tokenId];\\n ...\n      PUSH 0\t\t\trn _tokenProfiles[tokenId];\\n ...\n      DUP3 \t\t\trn _tokenProfiles[tokenId];\\n ...\n      ADD \t\t\trn _tokenProfiles[tokenId];\\n ...\n      PUSH 0\t\t\trn _tokenProfiles[tokenId];\\n ...\n      SWAP1 \t\t\trn _tokenProfiles[tokenId];\\n ...\n      SLOAD \t\t\trn _tokenProfiles[tokenId];\\n ...\n      SWAP1 \t\t\trn _tokenProfiles[tokenId];\\n ...\n      PUSH 100\t\t\trn _tokenProfiles[tokenId];\\n ...\n      EXP \t\t\trn _tokenProfiles[tokenId];\\n ...\n      SWAP1 \t\t\trn _tokenProfiles[tokenId];\\n ...\n      DIV \t\t\trn _tokenProfiles[tokenId];\\n ...\n      PUSH FFFFFFFFFFFFFFFFFFFFFFFFFFFFFFFFFFFFFFFF\t\t\trn _tokenProfiles[tokenId];\\n ...\n      AND \t\t\trn _tokenProfiles[tokenId];\\n ...\n      PUSH FFFFFFFFFFFFFFFFFFFFFFFFFFFFFFFFFFFFFFFF\t\t\trn _tokenProfiles[tokenId];\\n ...\n      AND \t\t\trn _tokenProfiles[tokenId];\\n ...\n      PUSH FFFFFFFFFFFFFFFFFFFFFFFFFFFFFFFFFFFFFFFF\t\t\trn _tokenProfiles[tokenId];\\n ...\n      AND \t\t\trn _tokenProfiles[tokenId];\\n ...\n      DUP2 \t\t\trn _tokenProfiles[tokenId];\\n ...\n      MSTORE \t\t\trn _tokenProfiles[tokenId];\\n ...\n      PUSH 20\t\t\trn _tokenProfiles[tokenId];\\n ...\n      ADD \t\t\trn _tokenProfiles[tokenId];\\n ...\n      PUSH 0\t\t\trn _tokenProfiles[tokenId];\\n ...\n      DUP3 \t\t\trn _tokenProfiles[tokenId];\\n ...\n      ADD \t\t\trn _tokenProfiles[tokenId];\\n ...\n      PUSH 14\t\t\trn _tokenProfiles[tokenId];\\n ...\n      SWAP1 \t\t\trn _tokenProfiles[tokenId];\\n ...\n      SLOAD \t\t\trn _tokenProfiles[tokenId];\\n ...\n      SWAP1 \t\t\trn _tokenProfiles[tokenId];\\n ...\n      PUSH 100\t\t\trn _tokenProfiles[tokenId];\\n ...\n      EXP \t\t\trn _tokenProfiles[tokenId];\\n ...\n      SWAP1 \t\t\trn _tokenProfiles[tokenId];\\n ...\n      DIV \t\t\trn _tokenProfiles[tokenId];\\n ...\n      PUSH FFFFFFFFFFFFFFFF\t\t\trn _tokenProfiles[tokenId];\\n ...\n      AND \t\t\trn _tokenProfiles[tokenId];\\n ...\n      PUSH FFFFFFFFFFFFFFFF\t\t\trn _tokenProfiles[tokenId];\\n ...\n      AND \t\t\trn _tokenProfiles[tokenId];\\n ...\n      PUSH FFFFFFFFFFFFFFFF\t\t\trn _tokenProfiles[tokenId];\\n ...\n      AND \t\t\trn _tokenProfiles[tokenId];\\n ...\n      DUP2 \t\t\trn _tokenProfiles[tokenId];\\n ...\n      MSTORE \t\t\trn _tokenProfiles[tokenId];\\n ...\n      PUSH 20\t\t\trn _tokenProfiles[tokenId];\\n ...\n      ADD \t\t\trn _tokenProfiles[tokenId];\\n ...\n      PUSH 1\t\t\trn _tokenProfiles[tokenId];\\n ...\n      DUP3 \t\t\trn _tokenProfiles[tokenId];\\n ...\n      ADD \t\t\trn _tokenProfiles[tokenId];\\n ...\n      PUSH 0\t\t\trn _tokenProfiles[tokenId];\\n ...\n      SWAP1 \t\t\trn _tokenProfiles[tokenId];\\n ...\n      SLOAD \t\t\trn _tokenProfiles[tokenId];\\n ...\n      SWAP1 \t\t\trn _tokenProfiles[tokenId];\\n ...\n      PUSH 100\t\t\trn _tokenProfiles[tokenId];\\n ...\n      EXP \t\t\trn _tokenProfiles[tokenId];\\n ...\n      SWAP1 \t\t\trn _tokenProfiles[tokenId];\\n ...\n      DIV \t\t\trn _tokenProfiles[tokenId];\\n ...\n      PUSH FFFFFFFFFFFFFFFF\t\t\trn _tokenProfiles[tokenId];\\n ...\n      AND \t\t\trn _tokenProfiles[tokenId];\\n ...\n      PUSH FFFFFFFFFFFFFFFF\t\t\trn _tokenProfiles[tokenId];\\n ...\n      AND \t\t\trn _tokenProfiles[tokenId];\\n ...\n      PUSH FFFFFFFFFFFFFFFF\t\t\trn _tokenProfiles[tokenId];\\n ...\n      AND \t\t\trn _tokenProfiles[tokenId];\\n ...\n      DUP2 \t\t\trn _tokenProfiles[tokenId];\\n ...\n      MSTORE \t\t\trn _tokenProfiles[tokenId];\\n ...\n      PUSH 20\t\t\trn _tokenProfiles[tokenId];\\n ...\n      ADD \t\t\trn _tokenProfiles[tokenId];\\n ...\n      PUSH 2\t\t\trn _tokenProfiles[tokenId];\\n ...\n      DUP3 \t\t\trn _tokenProfiles[tokenId];\\n ...\n      ADD \t\t\trn _tokenProfiles[tokenId];\\n ...\n      SLOAD \t\t\trn _tokenProfiles[tokenId];\\n ...\n      DUP2 \t\t\trn _tokenProfiles[tokenId];\\n ...\n      MSTORE \t\t\trn _tokenProfiles[tokenId];\\n ...\n      PUSH 20\t\t\trn _tokenProfiles[tokenId];\\n ...\n      ADD \t\t\trn _tokenProfiles[tokenId];\\n ...\n      PUSH 3\t\t\trn _tokenProfiles[tokenId];\\n ...\n      DUP3 \t\t\trn _tokenProfiles[tokenId];\\n ...\n      ADD \t\t\trn _tokenProfiles[tokenId];\\n ...\n      DUP1 \t\t\trn _tokenProfiles[tokenId];\\n ...\n      SLOAD \t\t\trn _tokenProfiles[tokenId];\\n ...\n      PUSH [tag] 457\t\t\trn _tokenProfiles[tokenId];\\n ...\n      SWAP1 \t\t\trn _tokenProfiles[tokenId];\\n ...\n      PUSH [tag] 203\t\t\trn _tokenProfiles[tokenId];\\n ...\n      JUMP \t\t\trn _tokenProfiles[tokenId];\\n ...\n    tag 457\t\t\trn _tokenProfiles[tokenId];\\n ...\n      JUMPDEST \t\t\trn _tokenProfiles[tokenId];\\n ...\n      DUP1 \t\t\trn _tokenProfiles[tokenId];\\n ...\n      PUSH 1F\t\t\trn _tokenProfiles[tokenId];\\n ...\n      ADD \t\t\trn _tokenProfiles[tokenId];\\n ...\n      PUSH 20\t\t\trn _tokenProfiles[tokenId];\\n ...\n      DUP1 \t\t\trn _tokenProfiles[tokenId];\\n ...\n      SWAP2 \t\t\trn _tokenProfiles[tokenId];\\n ...\n      DIV \t\t\trn _tokenProfiles[tokenId];\\n ...\n      MUL \t\t\trn _tokenProfiles[tokenId];\\n ...\n      PUSH 20\t\t\trn _tokenProfiles[tokenId];\\n ...\n      ADD \t\t\trn _tokenProfiles[tokenId];\\n ...\n      PUSH 40\t\t\trn _tokenProfiles[tokenId];\\n ...\n      MLOAD \t\t\trn _tokenProfiles[tokenId];\\n ...\n      SWAP1 \t\t\trn _tokenProfiles[tokenId];\\n ...\n      DUP2 \t\t\trn _tokenProfiles[tokenId];\\n ...\n      ADD \t\t\trn _tokenProfiles[tokenId];\\n ...\n      PUSH 40\t\t\trn _tokenProfiles[tokenId];\\n ...\n      MSTORE \t\t\trn _tokenProfiles[tokenId];\\n ...\n      DUP1 \t\t\trn _tokenProfiles[tokenId];\\n ...\n      SWAP3 \t\t\trn _tokenProfiles[tokenId];\\n ...\n      SWAP2 \t\t\trn _tokenProfiles[tokenId];\\n ...\n      SWAP1 \t\t\trn _tokenProfiles[tokenId];\\n ...\n      DUP2 \t\t\trn _tokenProfiles[tokenId];\\n ...\n      DUP2 \t\t\trn _tokenProfiles[tokenId];\\n ...\n      MSTORE \t\t\trn _tokenProfiles[tokenId];\\n ...\n      PUSH 20\t\t\trn _tokenProfiles[tokenId];\\n ...\n      ADD \t\t\trn _tokenProfiles[tokenId];\\n ...\n      DUP3 \t\t\trn _tokenProfiles[tokenId];\\n ...\n      DUP1 \t\t\trn _tokenProfiles[tokenId];\\n ...\n      SLOAD \t\t\trn _tokenProfiles[tokenId];\\n ...\n      PUSH [tag] 458\t\t\trn _tokenProfiles[tokenId];\\n ...\n      SWAP1 \t\t\trn _tokenProfiles[tokenId];\\n ...\n      PUSH [tag] 203\t\t\trn _tokenProfiles[tokenId];\\n ...\n      JUMP \t\t\trn _tokenProfiles[tokenId];\\n ...\n    tag 458\t\t\trn _tokenProfiles[tokenId];\\n ...\n      JUMPDEST \t\t\trn _tokenProfiles[tokenId];\\n ...\n      DUP1 \t\t\trn _tokenProfiles[tokenId];\\n ...\n      ISZERO \t\t\trn _tokenProfiles[tokenId];\\n ...\n      PUSH [tag] 459\t\t\trn _tokenProfiles[tokenId];\\n ...\n      JUMPI \t\t\trn _tokenProfiles[tokenId];\\n ...\n      DUP1 \t\t\trn _tokenProfiles[tokenId];\\n ...\n      PUSH 1F\t\t\trn _tokenProfiles[tokenId];\\n ...\n      LT \t\t\trn _tokenProfiles[tokenId];\\n ...\n      PUSH [tag] 460\t\t\trn _tokenProfiles[tokenId];\\n ...\n      JUMPI \t\t\trn _tokenProfiles[tokenId];\\n ...\n      PUSH 100\t\t\trn _tokenProfiles[tokenId];\\n ...\n      DUP1 \t\t\trn _tokenProfiles[tokenId];\\n ...\n      DUP4 \t\t\trn _tokenProfiles[tokenId];\\n ...\n      SLOAD \t\t\trn _tokenProfiles[tokenId];\\n ...\n      DIV \t\t\trn _tokenProfiles[tokenId];\\n ...\n      MUL \t\t\trn _tokenProfiles[tokenId];\\n ...\n      DUP4 \t\t\trn _tokenProfiles[tokenId];\\n ...\n      MSTORE \t\t\trn _tokenProfiles[tokenId];\\n ...\n      SWAP2 \t\t\trn _tokenProfiles[tokenId];\\n ...\n      PUSH 20\t\t\trn _tokenProfiles[tokenId];\\n ...\n      ADD \t\t\trn _tokenProfiles[tokenId];\\n ...\n      SWAP2 \t\t\trn _tokenProfiles[tokenId];\\n ...\n      PUSH [tag] 459\t\t\trn _tokenProfiles[tokenId];\\n ...\n      JUMP \t\t\trn _tokenProfiles[tokenId];\\n ...\n    tag 460\t\t\trn _tokenProfiles[tokenId];\\n ...\n      JUMPDEST \t\t\trn _tokenProfiles[tokenId];\\n ...\n      DUP3 \t\t\trn _tokenProfiles[tokenId];\\n ...\n      ADD \t\t\trn _tokenProfiles[tokenId];\\n ...\n      SWAP2 \t\t\trn _tokenProfiles[tokenId];\\n ...\n      SWAP1 \t\t\trn _tokenProfiles[tokenId];\\n ...\n      PUSH 0\t\t\trn _tokenProfiles[tokenId];\\n ...\n      MSTORE \t\t\trn _tokenProfiles[tokenId];\\n ...\n      PUSH 20\t\t\trn _tokenProfiles[tokenId];\\n ...\n      PUSH 0\t\t\trn _tokenProfiles[tokenId];\\n ...\n      KECCAK256 \t\t\trn _tokenProfiles[tokenId];\\n ...\n      SWAP1 \t\t\trn _tokenProfiles[tokenId];\\n ...\n    tag 461\t\t\trn _tokenProfiles[tokenId];\\n ...\n      JUMPDEST \t\t\trn _tokenProfiles[tokenId];\\n ...\n      DUP2 \t\t\trn _tokenProfiles[tokenId];\\n ...\n      SLOAD \t\t\trn _tokenProfiles[tokenId];\\n ...\n      DUP2 \t\t\trn _tokenProfiles[tokenId];\\n ...\n      MSTORE \t\t\trn _tokenProfiles[tokenId];\\n ...\n      SWAP1 \t\t\trn _tokenProfiles[tokenId];\\n ...\n      PUSH 1\t\t\trn _tokenProfiles[tokenId];\\n ...\n      ADD \t\t\trn _tokenProfiles[tokenId];\\n ...\n      SWAP1 \t\t\trn _tokenProfiles[tokenId];\\n ...\n      PUSH 20\t\t\trn _tokenProfiles[tokenId];\\n ...\n      ADD \t\t\trn _tokenProfiles[tokenId];\\n ...\n      DUP1 \t\t\trn _tokenProfiles[tokenId];\\n ...\n      DUP4 \t\t\trn _tokenProfiles[tokenId];\\n ...\n      GT \t\t\trn _tokenProfiles[tokenId];\\n ...\n      PUSH [tag] 461\t\t\trn _tokenProfiles[tokenId];\\n ...\n      JUMPI \t\t\trn _tokenProfiles[tokenId];\\n ...\n      DUP3 \t\t\trn _tokenProfiles[tokenId];\\n ...\n      SWAP1 \t\t\trn _tokenProfiles[tokenId];\\n ...\n      SUB \t\t\trn _tokenProfiles[tokenId];\\n ...\n      PUSH 1F\t\t\trn _tokenProfiles[tokenId];\\n ...\n      AND \t\t\trn _tokenProfiles[tokenId];\\n ...\n      DUP3 \t\t\trn _tokenProfiles[tokenId];\\n ...\n      ADD \t\t\trn _tokenProfiles[tokenId];\\n ...\n      SWAP2 \t\t\trn _tokenProfiles[tokenId];\\n ...\n    tag 459\t\t\trn _tokenProfiles[tokenId];\\n ...\n      JUMPDEST \t\t\trn _tokenProfiles[tokenId];\\n ...\n      POP \t\t\trn _tokenProfiles[tokenId];\\n ...\n      POP \t\t\trn _tokenProfiles[tokenId];\\n ...\n      POP \t\t\trn _tokenProfiles[tokenId];\\n ...\n      POP \t\t\trn _tokenProfiles[tokenId];\\n ...\n      POP \t\t\trn _tokenProfiles[tokenId];\\n ...\n      DUP2 \t\t\trn _tokenProfiles[tokenId];\\n ...\n      MSTORE \t\t\trn _tokenProfiles[tokenId];\\n ...\n      POP \t\t\trn _tokenProfiles[tokenId];\\n ...\n      POP \t\t\trn _tokenProfiles[tokenId];\\n ...\n      SWAP1 \t\t\trn _tokenProfiles[tokenId];\\n ...\n      POP \t\t\trn _tokenProfiles[tokenId];\\n ...\n      SWAP2 \t\t\ttion getProfile(uint256 tokenI...\n      SWAP1 \t\t\ttion getProfile(uint256 tokenI...\n      POP \t\t\ttion getProfile(uint256 tokenI...\n      JUMP \t\t\ttion getProfile(uint256 tokenI...\n    tag 187\t\t\tor token metadata\\n    string ...\n      JUMPDEST \t\t\tor token metadata\\n    string ...\n      PUSH [tag] 463\t\t\tot 1, packed)\n      PUSH [tag] 296\t\t\tot 1, packe\n      JUMP \t\t\tot 1, packed)\n    tag 463\t\t\tot 1, packed)\n      JUMPDEST \t\t\tot 1, packed)\n      PUSH 0\t\t\t*\n      PUSH FFFFFFFFFFFFFFFFFFFFFFFFFFFFFFFFFFFFFFFF\t\t\t========\\n    \\n    /**\\n\n      AND \t\t\t========\\n    \\n    /**\\n\n      DUP2 \t\t\t========\n      PUSH FFFFFFFFFFFFFFFFFFFFFFFFFFFFFFFFFFFFFFFF\t\t\t========\\n    \\n    /**\\n\n      AND \t\t\t========\\n    \\n    /**\\n\n      SUB \t\t\t========\\n    \\n    /**\\n\n      PUSH [tag] 465\t\t\t============\\n    \\n    /**\\n ...\n      JUMPI \t\t\t============\\n    \\n    /**\\n ...\n      PUSH 0\t\t\t \n      PUSH 40\t\t\tn a DID is created\\n     */\\n ...\n      MLOAD \t\t\tn a DID is created\\n     */\\n ...\n      PUSH 1E4FBDF700000000000000000000000000000000000000000000000000000000\t\t\tn a DID is created\\n     */\\n ...\n      DUP2 \t\t\tn a DID is created\\n     */\\n ...\n      MSTORE \t\t\tn a DID is created\\n     */\\n ...\n      PUSH 4\t\t\tn a DID is created\\n     */\\n ...\n      ADD \t\t\tn a DID is created\\n     */\\n ...\n      PUSH [tag] 466\t\t\tn a DID is created\\n     */\\n ...\n      SWAP2 \t\t\tn a DID is created\\n     */\\n ...\n      SWAP1 \t\t\tn a DID is created\\n     */\\n ...\n      PUSH [tag] 63\t\t\tn a DID is created\\n     */\\n ...\n      JUMP \t\t\tn a DID is created\\n     */\\n ...\n    tag 466\t\t\tn a DID is created\\n     */\\n ...\n      JUMPDEST \t\t\tn a DID is created\\n     */\\n ...\n      PUSH 40\t\t\tn a DID is created\\n     */\\n ...\n      MLOAD \t\t\tn a DID is created\\n     */\\n ...\n      DUP1 \t\t\tn a DID is created\\n     */\\n ...\n      SWAP2 \t\t\tn a DID is created\\n     */\\n ...\n      SUB \t\t\tn a DID is created\\n     */\\n ...\n      SWAP1 \t\t\tn a DID is created\\n     */\\n ...\n      REVERT \t\t\tn a DID is created\\n     */\\n ...\n    tag 465\t\t\t============\\n    \\n    /**\\n ...\n      JUMPDEST \t\t\t============\\n    \\n    /**\\n ...\n      PUSH [tag] 467\t\t\t      address indexed user,\\n\n      DUP2 \t\t\ted user,\n      PUSH [tag] 361\t\t\t      address inde\n      JUMP \t\t\t      address indexed user,\\n\n    tag 467\t\t\t      address indexed user,\\n\n      JUMPDEST \t\t\t      address indexed user,\\n\n      POP \t\t\tor token metadata\\n    string ...\n      JUMP \t\t\tor token metadata\\n    string ...\n    tag 190\t\t\ttion setAllowPublicMinting(boo...\n      JUMPDEST \t\t\ttion setAllowPublicMinting(boo...\n      PUSH [tag] 469\t\t\tot 1, packed)\n      PUSH [tag] 296\t\t\tot 1, packe\n      JUMP \t\t\tot 1, packed)\n    tag 469\t\t\tot 1, packed)\n      JUMPDEST \t\t\tot 1, packed)\n      DUP1 \t\t\tow;\\n  \n      PUSH E\t\t\twPublicMinting = _\n      PUSH 14\t\t\twPublicMinting = _\n      PUSH 100\t\t\twPublicMinting = _allow;\\n  \n      EXP \t\t\twPublicMinting = _allow;\\n  \n      DUP2 \t\t\twPublicMinting = _allow;\\n  \n      SLOAD \t\t\twPublicMinting = _allow;\\n  \n      DUP2 \t\t\twPublicMinting = _allow;\\n  \n      PUSH FF\t\t\twPublicMinting = _allow;\\n  \n      MUL \t\t\twPublicMinting = _allow;\\n  \n      NOT \t\t\twPublicMinting = _allow;\\n  \n      AND \t\t\twPublicMinting = _allow;\\n  \n      SWAP1 \t\t\twPublicMinting = _allow;\\n  \n      DUP4 \t\t\twPublicMinting = _allow;\\n  \n      ISZERO \t\t\twPublicMinting = _allow;\\n  \n      ISZERO \t\t\twPublicMinting = _allow;\\n  \n      MUL \t\t\twPublicMinting = _allow;\\n  \n      OR \t\t\twPublicMinting = _allow;\\n  \n      SWAP1 \t\t\twPublicMinting = _allow;\\n  \n      SSTORE \t\t\twPublicMinting = _allow;\\n  \n      POP \t\t\twPublicMinting = _allow;\\n  \n      PUSH C977AF333CF8813C2D0975C679D4FACE4E304C8F859030B4379C4B21C84963A2\t\t\ticMintingToggled(_allow);\\n  \n      DUP2 \t\t\tow);\\n \n      PUSH 40\t\t\ticMintingToggled(_allow);\\n  \n      MLOAD \t\t\ticMintingToggled(_allow);\\n  \n      PUSH [tag] 471\t\t\ticMintingToggled(_allow);\\n  \n      SWAP2 \t\t\ticMintingToggled(_allow);\\n  \n      SWAP1 \t\t\ticMintingToggled(_allow);\\n  \n      PUSH [tag] 53\t\t\ticMintingToggled(_allow);\\n  \n      JUMP \t\t\ticMintingToggled(_allow);\\n  \n    tag 471\t\t\ticMintingToggled(_allow);\\n  \n      JUMPDEST \t\t\ticMintingToggled(_allow);\\n  \n      PUSH 40\t\t\ticMintingToggled(_allow);\\n  \n      MLOAD \t\t\ticMintingToggled(_allow);\\n  \n      DUP1 \t\t\ticMintingToggled(_allow);\\n  \n      SWAP2 \t\t\ticMintingToggled(_allow);\\n  \n      SUB \t\t\ticMintingToggled(_allow);\\n  \n      SWAP1 \t\t\ticMintingToggled(_allow);\\n  \n      LOG1 \t\t\ticMintingToggled(_allow);\\n  \n      POP \t\t\ttion setAllowPublicMinting(boo...\n      JUMP \t\t\ttion setAllowPublicMinting(boo...\n    tag 193\t\t\ttion getChatDataReference(addr...\n      JUMPDEST \t\t\ttion getChatDataReference(addr...\n      PUSH 0\t\t\ts32) {\\n\n      PUSH A\t\t\tDid[use\n      PUSH 0\t\t\tDid[user], \"N\n      DUP4 \t\t\t], \"\n      PUSH FFFFFFFFFFFFFFFFFFFFFFFFFFFFFFFFFFFFFFFF\t\t\tDid[user], \"N\n      AND \t\t\tDid[user], \"N\n      PUSH FFFFFFFFFFFFFFFFFFFFFFFFFFFFFFFFFFFFFFFF\t\t\tDid[user], \"N\n      AND \t\t\tDid[user], \"N\n      DUP2 \t\t\tDid[user], \"N\n      MSTORE \t\t\tDid[user], \"N\n      PUSH 20\t\t\tDid[user], \"N\n      ADD \t\t\tDid[user], \"N\n      SWAP1 \t\t\tDid[user], \"N\n      DUP2 \t\t\tDid[user], \"N\n      MSTORE \t\t\tDid[user], \"N\n      PUSH 20\t\t\tDid[user], \"N\n      ADD \t\t\tDid[user], \"N\n      PUSH 0\t\t\tDid[user], \"N\n      KECCAK256 \t\t\tDid[user], \"N\n      PUSH 0\t\t\tDid[user], \"N\n      SWAP1 \t\t\tDid[user], \"N\n      SLOAD \t\t\tDid[user], \"N\n      SWAP1 \t\t\tDid[user], \"N\n      PUSH 100\t\t\tDid[user], \"N\n      EXP \t\t\tDid[user], \"N\n      SWAP1 \t\t\tDid[user], \"N\n      DIV \t\t\tDid[user], \"N\n      PUSH FF\t\t\tDid[user], \"N\n      AND \t\t\tDid[user], \"N\n      PUSH [tag] 473\t\t\tire(_hasDid[user], \"No DID\");\\...\n      JUMPI \t\t\tire(_hasDid[user], \"No DID\");\\...\n      PUSH 40\t\t\tire(_hasDid[user], \"No DID\");\\...\n      MLOAD \t\t\tire(_hasDid[user], \"No DID\");\\...\n      PUSH 8C379A000000000000000000000000000000000000000000000000000000000\t\t\tire(_hasDid[user], \"No DID\");\\...\n      DUP2 \t\t\tire(_hasDid[user], \"No DID\");\\...\n      MSTORE \t\t\tire(_hasDid[user], \"No DID\");\\...\n      PUSH 4\t\t\tire(_hasDid[user], \"No DID\");\\...\n      ADD \t\t\tire(_hasDid[user], \"No DID\");\\...\n      PUSH [tag] 474\t\t\tire(_hasDid[user], \"No DID\");\\...\n      SWAP1 \t\t\tire(_hasDid[user], \"No DID\");\\...\n      PUSH [tag] 221\t\t\tire(_hasDid[user], \"No DID\");\\...\n      JUMP \t\t\tire(_hasDid[user], \"No DID\");\\...\n    tag 474\t\t\tire(_hasDid[user], \"No DID\");\\...\n      JUMPDEST \t\t\tire(_hasDid[user], \"No DID\");\\...\n      PUSH 40\t\t\tire(_hasDid[user], \"No DID\");\\...\n      MLOAD \t\t\tire(_hasDid[user], \"No DID\");\\...\n      DUP1 \t\t\tire(_hasDid[user], \"No DID\");\\...\n      SWAP2 \t\t\tire(_hasDid[user], \"No DID\");\\...\n      SUB \t\t\tire(_hasDid[user], \"No DID\");\\...\n      SWAP1 \t\t\tire(_hasDid[user], \"No DID\");\\...\n      REVERT \t\t\tire(_hasDid[user], \"No DID\");\\...\n    tag 473\t\t\tire(_hasDid[user], \"No DID\");\\...\n      JUMPDEST \t\t\tire(_hasDid[user], \"No DID\");\\...\n      PUSH 0\t\t\t256 tokenId = _\n      PUSH 9\t\t\terToTokenId[use\n      PUSH 0\t\t\terToTokenId[user];\\n  \n      DUP5 \t\t\t];\\n \n      PUSH FFFFFFFFFFFFFFFFFFFFFFFFFFFFFFFFFFFFFFFF\t\t\terToTokenId[user];\\n  \n      AND \t\t\terToTokenId[user];\\n  \n      PUSH FFFFFFFFFFFFFFFFFFFFFFFFFFFFFFFFFFFFFFFF\t\t\terToTokenId[user];\\n  \n      AND \t\t\terToTokenId[user];\\n  \n      DUP2 \t\t\terToTokenId[user];\\n  \n      MSTORE \t\t\terToTokenId[user];\\n  \n      PUSH 20\t\t\terToTokenId[user];\\n  \n      ADD \t\t\terToTokenId[user];\\n  \n      SWAP1 \t\t\terToTokenId[user];\\n  \n      DUP2 \t\t\terToTokenId[user];\\n  \n      MSTORE \t\t\terToTokenId[user];\\n  \n      PUSH 20\t\t\terToTokenId[user];\\n  \n      ADD \t\t\terToTokenId[user];\\n  \n      PUSH 0\t\t\terToTokenId[user];\\n  \n      KECCAK256 \t\t\terToTokenId[user];\\n  \n      SLOAD \t\t\terToTokenId[user];\\n  \n      SWAP1 \t\t\t256 tokenId = _ownerToTokenId[...\n      POP \t\t\t256 tokenId = _ownerToTokenId[...\n      PUSH 8\t\t\tenProfiles[tok\n      PUSH 0\t\t\tenProfiles[tokenId].cha\n      DUP3 \t\t\tnId].ch\n      DUP2 \t\t\tenProfiles[tokenId].cha\n      MSTORE \t\t\tenProfiles[tokenId].cha\n      PUSH 20\t\t\tenProfiles[tokenId].cha\n      ADD \t\t\tenProfiles[tokenId].cha\n      SWAP1 \t\t\tenProfiles[tokenId].cha\n      DUP2 \t\t\tenProfiles[tokenId].cha\n      MSTORE \t\t\tenProfiles[tokenId].cha\n      PUSH 20\t\t\tenProfiles[tokenId].cha\n      ADD \t\t\tenProfiles[tokenId].cha\n      PUSH 0\t\t\tenProfiles[tokenId].cha\n      KECCAK256 \t\t\tenProfiles[tokenId].cha\n      PUSH 2\t\t\tenProfiles[tokenId].chatDataRe...\n      ADD \t\t\tenProfiles[tokenId].chatDataRe...\n      SLOAD \t\t\tenProfiles[tokenId].chatDataRe...\n      SWAP2 \t\t\trn _tokenProfiles[tokenId].cha...\n      POP \t\t\trn _tokenProfiles[tokenId].cha...\n      POP \t\t\trn _tokenProfiles[tokenId].cha...\n      SWAP2 \t\t\ttion getChatDataReference(addr...\n      SWAP1 \t\t\ttion getChatDataReference(addr...\n      POP \t\t\ttion getChatDataReference(addr...\n      JUMP \t\t\ttion getChatDataReference(addr...\n    tag 200\t\t\tGas Considerations:\\n * - Usin...\n      JUMPDEST \t\t\tGas Considerations:\\n * - Usin...\n      PUSH 0\t\t\t - b\n      PUSH 1FFC9A700000000000000000000000000000000000000000000000000000000\t\t\tre gas-efficient than str\n      PUSH FFFFFFFFFFFFFFFFFFFFFFFFFFFFFFFFFFFFFFFFFFFFFFFFFFFFFFFF\t\t\tReference is more gas-efficien...\n      NOT \t\t\tReference is more gas-efficien...\n      AND \t\t\tReference is more gas-efficien...\n      DUP3 \t\t\tReference i\n      PUSH FFFFFFFFFFFFFFFFFFFFFFFFFFFFFFFFFFFFFFFFFFFFFFFFFFFFFFFF\t\t\tReference is more gas-efficien...\n      NOT \t\t\tReference is more gas-efficien...\n      AND \t\t\tReference is more gas-efficien...\n      EQ \t\t\tReference is more gas-efficien...\n      SWAP1 \t\t\thatDataReference is more gas-e...\n      POP \t\t\thatDataReference is more gas-e...\n      SWAP2 \t\t\tGas Considerations:\\n * - Usin...\n      SWAP1 \t\t\tGas Considerations:\\n * - Usin...\n      POP \t\t\tGas Considerations:\\n * - Usin...\n      JUMP \t\t\tGas Considerations:\\n * - Usin...\n    tag 210\t\t\t6 tokenId = _ownerToTokenId[us...\n      JUMPDEST \t\t\t6 tokenId = _ownerToTokenId[us...\n      PUSH 0\t\t\ts[token\n      DUP1 \t\t\t   \\n    /**\\n \n      PUSH [tag] 477\t\t\t * @dev Check if \n      DUP4 \t\t\theck if\n      PUSH [tag] 478\t\t\t * @dev \n      JUMP \t\t\t * @dev Check if \n    tag 477\t\t\t * @dev Check if \n      JUMPDEST \t\t\t * @dev Check if \n      SWAP1 \t\t\t   \\n    /**\\n     * @dev Chec...\n      POP \t\t\t   \\n    /**\\n     * @dev Chec...\n      PUSH 0\t\t\t \n      PUSH FFFFFFFFFFFFFFFFFFFFFFFFFFFFFFFFFFFFFFFF\t\t\ted by token ID\\n    \n      AND \t\t\ted by token ID\\n    \n      DUP2 \t\t\ted by\n      PUSH FFFFFFFFFFFFFFFFFFFFFFFFFFFFFFFFFFFFFFFF\t\t\ted by token ID\\n    \n      AND \t\t\ted by token ID\\n    \n      SUB \t\t\ted by token ID\\n    \n      PUSH [tag] 479\t\t\tevoked by token ID\\n     * @pa...\n      JUMPI \t\t\tevoked by token ID\\n     * @pa...\n      DUP3 \t\t\tWhether\n      PUSH 40\t\t\token ID\\n     * @return Whethe...\n      MLOAD \t\t\token ID\\n     * @return Whethe...\n      PUSH 7E27328900000000000000000000000000000000000000000000000000000000\t\t\token ID\\n     * @return Whethe...\n      DUP2 \t\t\token ID\\n     * @return Whethe...\n      MSTORE \t\t\token ID\\n     * @return Whethe...\n      PUSH 4\t\t\token ID\\n     * @return Whethe...\n      ADD \t\t\token ID\\n     * @return Whethe...\n      PUSH [tag] 480\t\t\token ID\\n     * @return Whethe...\n      SWAP2 \t\t\token ID\\n     * @return Whethe...\n      SWAP1 \t\t\token ID\\n     * @return Whethe...\n      PUSH [tag] 81\t\t\token ID\\n     * @return Whethe...\n      JUMP \t\t\token ID\\n     * @return Whethe...\n    tag 480\t\t\token ID\\n     * @return Whethe...\n      JUMPDEST \t\t\token ID\\n     * @return Whethe...\n      PUSH 40\t\t\token ID\\n     * @return Whethe...\n      MLOAD \t\t\token ID\\n     * @return Whethe...\n      DUP1 \t\t\token ID\\n     * @return Whethe...\n      SWAP2 \t\t\token ID\\n     * @return Whethe...\n      SUB \t\t\token ID\\n     * @return Whethe...\n      SWAP1 \t\t\token ID\\n     * @return Whethe...\n      REVERT \t\t\token ID\\n     * @return Whethe...\n    tag 479\t\t\tevoked by token ID\\n     * @pa...\n      JUMPDEST \t\t\tevoked by token ID\\n     * @pa...\n      DUP1 \t\t\t    f\n      SWAP2 \t\t\t    */\\n    f\n      POP \t\t\t    */\\n    f\n      POP \t\t\t    */\\n    f\n      SWAP2 \t\t\t6 tokenId = _ownerToTokenId[us...\n      SWAP1 \t\t\t6 tokenId = _ownerToTokenId[us...\n      POP \t\t\t6 tokenId = _ownerToTokenId[us...\n      JUMP \t\t\t6 tokenId = _ownerToTokenId[us...\n    tag 212\t\t\tRC721(name, symbol) Ownable(ms...\n      JUMPDEST \t\t\tRC721(name, symbol) Ownable(ms...\n      PUSH 0\t\t\tURI;\\n  \n      PUSH 4\t\t\t = _backendSign\n      PUSH 0\t\t\t = _backendSigner;\\n     \n      DUP4 \t\t\tr;\\n    \n      DUP2 \t\t\t = _backendSigner;\\n     \n      MSTORE \t\t\t = _backendSigner;\\n     \n      PUSH 20\t\t\t = _backendSigner;\\n     \n      ADD \t\t\t = _backendSigner;\\n     \n      SWAP1 \t\t\t = _backendSigner;\\n     \n      DUP2 \t\t\t = _backendSigner;\\n     \n      MSTORE \t\t\t = _backendSigner;\\n     \n      PUSH 20\t\t\t = _backendSigner;\\n     \n      ADD \t\t\t = _backendSigner;\\n     \n      PUSH 0\t\t\t = _backendSigner;\\n     \n      KECCAK256 \t\t\t = _backendSigner;\\n     \n      PUSH 0\t\t\t = _backendSigner;\\n     \n      SWAP1 \t\t\t = _backendSigner;\\n     \n      SLOAD \t\t\t = _backendSigner;\\n     \n      SWAP1 \t\t\t = _backendSigner;\\n     \n      PUSH 100\t\t\t = _backendSigner;\\n     \n      EXP \t\t\t = _backendSigner;\\n     \n      SWAP1 \t\t\t = _backendSigner;\\n     \n      DIV \t\t\t = _backendSigner;\\n     \n      PUSH FFFFFFFFFFFFFFFFFFFFFFFFFFFFFFFFFFFFFFFF\t\t\t = _backendSigner;\\n     \n      AND \t\t\t = _backendSigner;\\n     \n      SWAP1 \t\t\tdSigner = _backendSigner;\\n   ...\n      POP \t\t\tdSigner = _backendSigner;\\n   ...\n      SWAP2 \t\t\tRC721(name, symbol) Ownable(ms...\n      SWAP1 \t\t\tRC721(name, symbol) Ownable(ms...\n      POP \t\t\tRC721(name, symbol) Ownable(ms...\n      JUMP \t\t\tRC721(name, symbol) Ownable(ms...\n    tag 241\t\t\tvate _baseTokenURI;\\n\\n    // ...\n      JUMPDEST \t\t\tvate _baseTokenURI;\\n\\n    // ...\n      PUSH 2\t\t\tt\n      PUSH 7\t\t\t event \n      SLOAD \t\t\t event \n      SUB \t\t\t event DidCreated(\n      PUSH [tag] 483\t\t\t\\n    event DidCreated(\\n     ...\n      JUMPI \t\t\t\\n    event DidCreated(\\n     ...\n      PUSH 40\t\t\td user,\\n        uint256 index...\n      MLOAD \t\t\td user,\\n        uint256 index...\n      PUSH 3EE5AEB500000000000000000000000000000000000000000000000000000000\t\t\td user,\\n        uint256 index...\n      DUP2 \t\t\td user,\\n        uint256 index...\n      MSTORE \t\t\td user,\\n        uint256 index...\n      PUSH 4\t\t\td user,\\n        uint256 index...\n      ADD \t\t\td user,\\n        uint256 index...\n      PUSH 40\t\t\td user,\\n        uint256 index...\n      MLOAD \t\t\td user,\\n        uint256 index...\n      DUP1 \t\t\td user,\\n        uint256 index...\n      SWAP2 \t\t\td user,\\n        uint256 index...\n      SUB \t\t\td user,\\n        uint256 index...\n      SWAP1 \t\t\td user,\\n        uint256 index...\n      REVERT \t\t\td user,\\n        uint256 index...\n    tag 483\t\t\t\\n    event DidCreated(\\n     ...\n      JUMPDEST \t\t\t\\n    event DidCreated(\\n     ...\n      PUSH 2\t\t\tt\n      PUSH 7\t\t\t data r\n      DUP2 \t\t\t data reference i\n      SWAP1 \t\t\t data reference i\n      SSTORE \t\t\t data reference i\n      POP \t\t\t data reference i\n      JUMP \t\t\tvate _baseTokenURI;\\n\\n    // ...\n    tag 248\t\t\t  */\\n    event DidChatReferen...\n      JUMPDEST \t\t\t  */\\n    event DidChatReferen...\n      PUSH 1\t\t\t \n      PUSH 7\t\t\t  \\n    \n      DUP2 \t\t\t  \\n    /**\\n     * @de\n      SWAP1 \t\t\t  \\n    /**\\n     * @de\n      SSTORE \t\t\t  \\n    /**\\n     * @de\n      POP \t\t\t  \\n    /**\\n     * @de\n      JUMP \t\t\t  */\\n    event DidChatReferen...\n    tag 259\t\t\ttion _revokeDidInternal(addres...\n      JUMPDEST \t\t\ttion _revokeDidInternal(addres...\n      PUSH 0\t\t\t256 tokenId = _\n      PUSH 9\t\t\terToTokenId[use\n      PUSH 0\t\t\terToTokenId[user];\\n  \n      DUP5 \t\t\t];\\n \n      PUSH FFFFFFFFFFFFFFFFFFFFFFFFFFFFFFFFFFFFFFFF\t\t\terToTokenId[user];\\n  \n      AND \t\t\terToTokenId[user];\\n  \n      PUSH FFFFFFFFFFFFFFFFFFFFFFFFFFFFFFFFFFFFFFFF\t\t\terToTokenId[user];\\n  \n      AND \t\t\terToTokenId[user];\\n  \n      DUP2 \t\t\terToTokenId[user];\\n  \n      MSTORE \t\t\terToTokenId[user];\\n  \n      PUSH 20\t\t\terToTokenId[user];\\n  \n      ADD \t\t\terToTokenId[user];\\n  \n      SWAP1 \t\t\terToTokenId[user];\\n  \n      DUP2 \t\t\terToTokenId[user];\\n  \n      MSTORE \t\t\terToTokenId[user];\\n  \n      PUSH 20\t\t\terToTokenId[user];\\n  \n      ADD \t\t\terToTokenId[user];\\n  \n      PUSH 0\t\t\terToTokenId[user];\\n  \n      KECCAK256 \t\t\terToTokenId[user];\\n  \n      SLOAD \t\t\terToTokenId[user];\\n  \n      SWAP1 \t\t\t256 tokenId = _ownerToTokenId[...\n      POP \t\t\t256 tokenId = _ownerToTokenId[...\n      PUSH B\t\t\tokedTokens[tok\n      PUSH 0\t\t\tokedTokens[tokenId], \"R\n      DUP3 \t\t\tnId], \"\n      DUP2 \t\t\tokedTokens[tokenId], \"R\n      MSTORE \t\t\tokedTokens[tokenId], \"R\n      PUSH 20\t\t\tokedTokens[tokenId], \"R\n      ADD \t\t\tokedTokens[tokenId], \"R\n      SWAP1 \t\t\tokedTokens[tokenId], \"R\n      DUP2 \t\t\tokedTokens[tokenId], \"R\n      MSTORE \t\t\tokedTokens[tokenId], \"R\n      PUSH 20\t\t\tokedTokens[tokenId], \"R\n      ADD \t\t\tokedTokens[tokenId], \"R\n      PUSH 0\t\t\tokedTokens[tokenId], \"R\n      KECCAK256 \t\t\tokedTokens[tokenId], \"R\n      PUSH 0\t\t\tokedTokens[tokenId], \"R\n      SWAP1 \t\t\tokedTokens[tokenId], \"R\n      SLOAD \t\t\tokedTokens[tokenId], \"R\n      SWAP1 \t\t\tokedTokens[tokenId], \"R\n      PUSH 100\t\t\tokedTokens[tokenId], \"R\n      EXP \t\t\tokedTokens[tokenId], \"R\n      SWAP1 \t\t\tokedTokens[tokenId], \"R\n      DIV \t\t\tokedTokens[tokenId], \"R\n      PUSH FF\t\t\tokedTokens[tokenId], \"R\n      AND \t\t\tokedTokens[tokenId], \"R\n      ISZERO \t\t\tvokedTokens[tokenId], \"R\n      PUSH [tag] 486\t\t\tire(!_revokedTokens[tokenId], ...\n      JUMPI \t\t\tire(!_revokedTokens[tokenId], ...\n      PUSH 40\t\t\tire(!_revokedTokens[tokenId], ...\n      MLOAD \t\t\tire(!_revokedTokens[tokenId], ...\n      PUSH 8C379A000000000000000000000000000000000000000000000000000000000\t\t\tire(!_revokedTokens[tokenId], ...\n      DUP2 \t\t\tire(!_revokedTokens[tokenId], ...\n      MSTORE \t\t\tire(!_revokedTokens[tokenId], ...\n      PUSH 4\t\t\tire(!_revokedTokens[tokenId], ...\n      ADD \t\t\tire(!_revokedTokens[tokenId], ...\n      PUSH [tag] 487\t\t\tire(!_revokedTokens[tokenId], ...\n      SWAP1 \t\t\tire(!_revokedTokens[tokenId], ...\n      PUSH [tag] 238\t\t\tire(!_revokedTokens[tokenId], ...\n      JUMP \t\t\tire(!_revokedTokens[tokenId], ...\n    tag 487\t\t\tire(!_revokedTokens[tokenId], ...\n      JUMPDEST \t\t\tire(!_revokedTokens[tokenId], ...\n      PUSH 40\t\t\tire(!_revokedTokens[tokenId], ...\n      MLOAD \t\t\tire(!_revokedTokens[tokenId], ...\n      DUP1 \t\t\tire(!_revokedTokens[tokenId], ...\n      SWAP2 \t\t\tire(!_revokedTokens[tokenId], ...\n      SUB \t\t\tire(!_revokedTokens[tokenId], ...\n      SWAP1 \t\t\tire(!_revokedTokens[tokenId], ...\n      REVERT \t\t\tire(!_revokedTokens[tokenId], ...\n    tag 486\t\t\tire(!_revokedTokens[tokenId], ...\n      JUMPDEST \t\t\tire(!_revokedTokens[tokenId], ...\n      PUSH 1\t\t\t;\\n  \n      PUSH B\t\t\tokedTokens[tok\n      PUSH 0\t\t\tokedTokens[tokenId] = t\n      DUP4 \t\t\tnId] = \n      DUP2 \t\t\tokedTokens[tokenId] = t\n      MSTORE \t\t\tokedTokens[tokenId] = t\n      PUSH 20\t\t\tokedTokens[tokenId] = t\n      ADD \t\t\tokedTokens[tokenId] = t\n      SWAP1 \t\t\tokedTokens[tokenId] = t\n      DUP2 \t\t\tokedTokens[tokenId] = t\n      MSTORE \t\t\tokedTokens[tokenId] = t\n      PUSH 20\t\t\tokedTokens[tokenId] = t\n      ADD \t\t\tokedTokens[tokenId] = t\n      PUSH 0\t\t\tokedTokens[tokenId] = t\n      KECCAK256 \t\t\tokedTokens[tokenId] = t\n      PUSH 0\t\t\tokedTokens[tokenId] = t\n      PUSH 100\t\t\tokedTokens[tokenId] = true;\\n ...\n      EXP \t\t\tokedTokens[tokenId] = true;\\n ...\n      DUP2 \t\t\tokedTokens[tokenId] = true;\\n ...\n      SLOAD \t\t\tokedTokens[tokenId] = true;\\n ...\n      DUP2 \t\t\tokedTokens[tokenId] = true;\\n ...\n      PUSH FF\t\t\tokedTokens[tokenId] = true;\\n ...\n      MUL \t\t\tokedTokens[tokenId] = true;\\n ...\n      NOT \t\t\tokedTokens[tokenId] = true;\\n ...\n      AND \t\t\tokedTokens[tokenId] = true;\\n ...\n      SWAP1 \t\t\tokedTokens[tokenId] = true;\\n ...\n      DUP4 \t\t\tokedTokens[tokenId] = true;\\n ...\n      ISZERO \t\t\tokedTokens[tokenId] = true;\\n ...\n      ISZERO \t\t\tokedTokens[tokenId] = true;\\n ...\n      MUL \t\t\tokedTokens[tokenId] = true;\\n ...\n      OR \t\t\tokedTokens[tokenId] = true;\\n ...\n      SWAP1 \t\t\tokedTokens[tokenId] = true;\\n ...\n      SSTORE \t\t\tokedTokens[tokenId] = true;\\n ...\n      POP \t\t\tokedTokens[tokenId] = true;\\n ...\n      PUSH 1\t\t\t;\\n  \n      PUSH C\t\t\tokedAddresses[use\n      PUSH 0\t\t\tokedAddresses[user] = t\n      DUP6 \t\t\t] = \n      PUSH FFFFFFFFFFFFFFFFFFFFFFFFFFFFFFFFFFFFFFFF\t\t\tokedAddresses[user] = t\n      AND \t\t\tokedAddresses[user] = t\n      PUSH FFFFFFFFFFFFFFFFFFFFFFFFFFFFFFFFFFFFFFFF\t\t\tokedAddresses[user] = t\n      AND \t\t\tokedAddresses[user] = t\n      DUP2 \t\t\tokedAddresses[user] = t\n      MSTORE \t\t\tokedAddresses[user] = t\n      PUSH 20\t\t\tokedAddresses[user] = t\n      ADD \t\t\tokedAddresses[user] = t\n      SWAP1 \t\t\tokedAddresses[user] = t\n      DUP2 \t\t\tokedAddresses[user] = t\n      MSTORE \t\t\tokedAddresses[user] = t\n      PUSH 20\t\t\tokedAddresses[user] = t\n      ADD \t\t\tokedAddresses[user] = t\n      PUSH 0\t\t\tokedAddresses[user] = t\n      KECCAK256 \t\t\tokedAddresses[user] = t\n      PUSH 0\t\t\tokedAddresses[user] = t\n      PUSH 100\t\t\tokedAddresses[user] = true;\\n ...\n      EXP \t\t\tokedAddresses[user] = true;\\n ...\n      DUP2 \t\t\tokedAddresses[user] = true;\\n ...\n      SLOAD \t\t\tokedAddresses[user] = true;\\n ...\n      DUP2 \t\t\tokedAddresses[user] = true;\\n ...\n      PUSH FF\t\t\tokedAddresses[user] = true;\\n ...\n      MUL \t\t\tokedAddresses[user] = true;\\n ...\n      NOT \t\t\tokedAddresses[user] = true;\\n ...\n      AND \t\t\tokedAddresses[user] = true;\\n ...\n      SWAP1 \t\t\tokedAddresses[user] = true;\\n ...\n      DUP4 \t\t\tokedAddresses[user] = true;\\n ...\n      ISZERO \t\t\tokedAddresses[user] = true;\\n ...\n      ISZERO \t\t\tokedAddresses[user] = true;\\n ...\n      MUL \t\t\tokedAddresses[user] = true;\\n ...\n      OR \t\t\tokedAddresses[user] = true;\\n ...\n      SWAP1 \t\t\tokedAddresses[user] = true;\\n ...\n      SSTORE \t\t\tokedAddresses[user] = true;\\n ...\n      POP \t\t\tokedAddresses[user] = true;\\n ...\n      DUP2 \t\t\trChatReference) {\\n\n      ISZERO \t\t\tclearChatReference) {\\n       ...\n      PUSH [tag] 488\t\t\tclearChatReference) {\\n       ...\n      JUMPI \t\t\tclearChatReference) {\\n       ...\n      PUSH 0\t\t\trofile storage profile = _\n      PUSH 8\t\t\tenProfiles[tok\n      PUSH 0\t\t\tenProfiles[tokenId];\\n  \n      DUP4 \t\t\tnId];\\n \n      DUP2 \t\t\tenProfiles[tokenId];\\n  \n      MSTORE \t\t\tenProfiles[tokenId];\\n  \n      PUSH 20\t\t\tenProfiles[tokenId];\\n  \n      ADD \t\t\tenProfiles[tokenId];\\n  \n      SWAP1 \t\t\tenProfiles[tokenId];\\n  \n      DUP2 \t\t\tenProfiles[tokenId];\\n  \n      MSTORE \t\t\tenProfiles[tokenId];\\n  \n      PUSH 20\t\t\tenProfiles[tokenId];\\n  \n      ADD \t\t\tenProfiles[tokenId];\\n  \n      PUSH 0\t\t\tenProfiles[tokenId];\\n  \n      KECCAK256 \t\t\tenProfiles[tokenId];\\n  \n      SWAP1 \t\t\trofile storage profile = _toke...\n      POP \t\t\trofile storage profile = _toke...\n      PUSH 0\t\t\t \n      DUP1 \t\t\ts32(0);\\n  \n      SHL \t\t\ts32(0);\\n  \n      DUP2 \t\t\tile.cha\n      PUSH 2\t\t\tile.chatDataReference = b\n      ADD \t\t\tile.chatDataReference = b\n      DUP2 \t\t\tile.chatDataReference = bytes3...\n      SWAP1 \t\t\tile.chatDataReference = bytes3...\n      SSTORE \t\t\tile.chatDataReference = bytes3...\n      POP \t\t\tile.chatDataReference = bytes3...\n      PUSH 40\t\t\ts(\"\");\\n  \n      MLOAD \t\t\ts(\"\");\\n  \n      DUP1 \t\t\ts(\"\");\\n  \n      PUSH 20\t\t\ts(\"\");\\n  \n      ADD \t\t\ts(\"\");\\n  \n      PUSH 40\t\t\ts(\"\");\\n  \n      MSTORE \t\t\ts(\"\");\\n  \n      DUP1 \t\t\ts(\"\");\\n  \n      PUSH 0\t\t\ts(\"\");\\n  \n      DUP2 \t\t\ts(\"\");\\n  \n      MSTORE \t\t\ts(\"\");\\n  \n      POP \t\t\ts(\"\");\\n  \n      DUP2 \t\t\tile.enc\n      PUSH 3\t\t\tile.encryptedKeyMetadata = b\n      ADD \t\t\tile.encryptedKeyMetadata = b\n      SWAP1 \t\t\tile.encryptedKeyMetadata = byt...\n      DUP2 \t\t\tile.encryptedKeyMetadata = byt...\n      PUSH [tag] 489\t\t\tile.encryptedKeyMetadata = byt...\n      SWAP2 \t\t\tile.encryptedKeyMetadata = byt...\n      SWAP1 \t\t\tile.encryptedKeyMetadata = byt...\n      PUSH [tag] 345\t\t\tile.encryptedKeyMetadata = byt...\n      JUMP \t\t\tile.encryptedKeyMetadata = byt...\n    tag 489\t\t\tile.encryptedKeyMetadata = byt...\n      JUMPDEST \t\t\tile.encryptedKeyMetadata = byt...\n      POP \t\t\tile.encryptedKeyMetadata = byt...\n      TIMESTAMP \t\t\tk.timestamp);\\n \n      DUP2 \t\t\tile.las\n      PUSH 1\t\t\tile.lastUpdatedAt = u\n      ADD \t\t\tile.lastUpdatedAt = u\n      PUSH 0\t\t\tile.lastUpdatedAt = u\n      PUSH 100\t\t\tile.lastUpdatedAt = uint64(blo...\n      EXP \t\t\tile.lastUpdatedAt = uint64(blo...\n      DUP2 \t\t\tile.lastUpdatedAt = uint64(blo...\n      SLOAD \t\t\tile.lastUpdatedAt = uint64(blo...\n      DUP2 \t\t\tile.lastUpdatedAt = uint64(blo...\n      PUSH FFFFFFFFFFFFFFFF\t\t\tile.lastUpdatedAt = uint64(blo...\n      MUL \t\t\tile.lastUpdatedAt = uint64(blo...\n      NOT \t\t\tile.lastUpdatedAt = uint64(blo...\n      AND \t\t\tile.lastUpdatedAt = uint64(blo...\n      SWAP1 \t\t\tile.lastUpdatedAt = uint64(blo...\n      DUP4 \t\t\tile.lastUpdatedAt = uint64(blo...\n      PUSH FFFFFFFFFFFFFFFF\t\t\tile.lastUpdatedAt = uint64(blo...\n      AND \t\t\tile.lastUpdatedAt = uint64(blo...\n      MUL \t\t\tile.lastUpdatedAt = uint64(blo...\n      OR \t\t\tile.lastUpdatedAt = uint64(blo...\n      SWAP1 \t\t\tile.lastUpdatedAt = uint64(blo...\n      SSTORE \t\t\tile.lastUpdatedAt = uint64(blo...\n      POP \t\t\tile.lastUpdatedAt = uint64(blo...\n      POP \t\t\t          DidProfile storage p...\n    tag 488\t\t\tclearChatReference) {\\n       ...\n      JUMPDEST \t\t\tclearChatReference) {\\n       ...\n      DUP1 \t\t\tnId, ui\n      DUP4 \t\t\t, to\n      PUSH FFFFFFFFFFFFFFFFFFFFFFFFFFFFFFFFFFFFFFFF\t\t\tevoked(user, tokenId, uint64(b...\n      AND \t\t\tevoked(user, tokenId, uint64(b...\n      PUSH E8CCF73831B7F096110633FC510FB0D4E739D5DF4DA47CB20FDBCD06711DD6F5\t\t\tevoked(user, tokenId, uint64(b...\n      TIMESTAMP \t\t\tk.timestamp));\\n\n      PUSH 40\t\t\tevoked(user, tokenId, uint64(b...\n      MLOAD \t\t\tevoked(user, tokenId, uint64(b...\n      PUSH [tag] 490\t\t\tevoked(user, tokenId, uint64(b...\n      SWAP2 \t\t\tevoked(user, tokenId, uint64(b...\n      SWAP1 \t\t\tevoked(user, tokenId, uint64(b...\n      PUSH [tag] 246\t\t\tevoked(user, tokenId, uint64(b...\n      JUMP \t\t\tevoked(user, tokenId, uint64(b...\n    tag 490\t\t\tevoked(user, tokenId, uint64(b...\n      JUMPDEST \t\t\tevoked(user, tokenId, uint64(b...\n      PUSH 40\t\t\tevoked(user, tokenId, uint64(b...\n      MLOAD \t\t\tevoked(user, tokenId, uint64(b...\n      DUP1 \t\t\tevoked(user, tokenId, uint64(b...\n      SWAP2 \t\t\tevoked(user, tokenId, uint64(b...\n      SUB \t\t\tevoked(user, tokenId, uint64(b...\n      SWAP1 \t\t\tevoked(user, tokenId, uint64(b...\n      LOG3 \t\t\tevoked(user, tokenId, uint64(b...\n      POP \t\t\t      uint256 tokenId = _owner...\n      POP \t\t\ttion _revokeDidInternal(addres...\n      POP \t\t\ttion _revokeDidInternal(addres...\n      JUMP \t\t\ttion _revokeDidInternal(addres...\n    tag 267\t\t\trofile mapping\\n * - owner → t...\n      JUMPDEST \t\t\trofile mapping\\n * - owner → t...\n      PUSH 0\t\t\tcient l\n      CALLER \t\t\tonsiderati\n      SWAP1 \t\t\t* Gas Considerati\n      POP \t\t\t* Gas Considerati\n      SWAP1 \t\t\trofile mapping\\n * - owner → t...\n      JUMP \t\t\trofile mapping\\n * - owner → t...\n    tag 268\t\t\ttion _update(address to, uint2...\n      JUMPDEST \t\t\ttion _update(address to, uint2...\n      PUSH 0\t\t\tess) \\n \n      DUP1 \t\t\tess from = _\n      PUSH [tag] 493\t\t\terOf(tokenId);\\n  \n      DUP5 \t\t\tnId);\\n \n      PUSH [tag] 478\t\t\terOf(tok\n      JUMP \t\t\terOf(tokenId);\\n  \n    tag 493\t\t\terOf(tokenId);\\n  \n      JUMPDEST \t\t\terOf(tokenId);\\n  \n      SWAP1 \t\t\tess from = _ownerOf(tokenId);\\...\n      POP \t\t\tess from = _ownerOf(tokenId);\\...\n      PUSH 0\t\t\t&\n      PUSH FFFFFFFFFFFFFFFFFFFFFFFFFFFFFFFFFFFFFFFF\t\t\t != address(0) && \n      AND \t\t\t != address(0) && \n      DUP2 \t\t\t != \n      PUSH FFFFFFFFFFFFFFFFFFFFFFFFFFFFFFFFFFFFFFFF\t\t\t != address(0) && \n      AND \t\t\t != address(0) && \n      EQ \t\t\t != address(0) && \n      ISZERO \t\t\t != address(0) && \n      DUP1 \t\t\t != address(0) && to != addres...\n      ISZERO \t\t\t != address(0) && to != addres...\n      PUSH [tag] 494\t\t\t != address(0) && to != addres...\n      JUMPI \t\t\t != address(0) && to != addres...\n      POP \t\t\t != address(0) && to != addres...\n      PUSH 0\t\t\t{\n      PUSH FFFFFFFFFFFFFFFFFFFFFFFFFFFFFFFFFFFFFFFF\t\t\t= address(0)) {\\n\n      AND \t\t\t= address(0)) {\\n\n      DUP6 \t\t\t= \n      PUSH FFFFFFFFFFFFFFFFFFFFFFFFFFFFFFFFFFFFFFFF\t\t\t= address(0)) {\\n\n      AND \t\t\t= address(0)) {\\n\n      EQ \t\t\t= address(0)) {\\n\n      ISZERO \t\t\t= address(0)) {\\n\n    tag 494\t\t\t != address(0) && to != addres...\n      JUMPDEST \t\t\t != address(0) && to != addres...\n      ISZERO \t\t\tfrom != address(0) && to != ad...\n      PUSH [tag] 495\t\t\tfrom != address(0) && to != ad...\n      JUMPI \t\t\tfrom != address(0) && to != ad...\n      PUSH 40\t\t\trt(\"Soulbound\");\\n  \n      MLOAD \t\t\trt(\"Soulbound\");\\n  \n      PUSH 8C379A000000000000000000000000000000000000000000000000000000000\t\t\trt(\"Soulbound\");\\n  \n      DUP2 \t\t\trt(\"Soulbound\");\\n  \n      MSTORE \t\t\trt(\"Soulbound\");\\n  \n      PUSH 4\t\t\trt(\"Soulbound\");\\n  \n      ADD \t\t\trt(\"Soulbound\");\\n  \n      PUSH [tag] 496\t\t\trt(\"Soulbound\");\\n  \n      SWAP1 \t\t\trt(\"Soulbound\");\\n  \n      PUSH [tag] 215\t\t\trt(\"Soulbound\");\\n  \n      JUMP \t\t\trt(\"Soulbound\");\\n  \n    tag 496\t\t\trt(\"Soulbound\");\\n  \n      JUMPDEST \t\t\trt(\"Soulbound\");\\n  \n      PUSH 40\t\t\trt(\"Soulbound\");\\n  \n      MLOAD \t\t\trt(\"Soulbound\");\\n  \n      DUP1 \t\t\trt(\"Soulbound\");\\n  \n      SWAP2 \t\t\trt(\"Soulbound\");\\n  \n      SUB \t\t\trt(\"Soulbound\");\\n  \n      SWAP1 \t\t\trt(\"Soulbound\");\\n  \n      REVERT \t\t\trt(\"Soulbound\");\\n  \n    tag 495\t\t\tfrom != address(0) && to != ad...\n      JUMPDEST \t\t\tfrom != address(0) && to != ad...\n      PUSH [tag] 497\t\t\tr._update(to, tokenId, auth);\\...\n      DUP6 \t\t\tto\n      DUP6 \t\t\tnId, au\n      DUP6 \t\t\t);\\n \n      PUSH [tag] 498\t\t\tr._update(to,\n      JUMP \t\t\tr._update(to, tokenId, auth);\\...\n    tag 497\t\t\tr._update(to, tokenId, auth);\\...\n      JUMPDEST \t\t\tr._update(to, tokenId, auth);\\...\n      SWAP2 \t\t\trn super._update(to, tokenId, ...\n      POP \t\t\trn super._update(to, tokenId, ...\n      POP \t\t\trn super._update(to, tokenId, ...\n      SWAP4 \t\t\ttion _update(address to, uint2...\n      SWAP3 \t\t\ttion _update(address to, uint2...\n      POP \t\t\ttion _update(address to, uint2...\n      POP \t\t\ttion _update(address to, uint2...\n      POP \t\t\ttion _update(address to, uint2...\n      JUMP \t\t\ttion _update(address to, uint2...\n    tag 296\t\t\te\\n    mapping(uint256 => DidP...\n      JUMPDEST \t\t\te\\n    mapping(uint256 => DidP...\n      PUSH [tag] 500\t\t\t// Mapping f\n      PUSH [tag] 267\t\t\t// Mapping\n      JUMP \t\t\t// Mapping f\n    tag 500\t\t\t// Mapping f\n      JUMPDEST \t\t\t// Mapping f\n      PUSH FFFFFFFFFFFFFFFFFFFFFFFFFFFFFFFFFFFFFFFF\t\t\t;\\n    \\n    // Mapping f\n      AND \t\t\t;\\n    \\n    // Mapping f\n      PUSH [tag] 501\t\t\t;\\n    \\n\n      PUSH [tag] 132\t\t\t;\\n   \n      JUMP \t\t\t;\\n    \\n\n    tag 501\t\t\t;\\n    \\n\n      JUMPDEST \t\t\t;\\n    \\n\n      PUSH FFFFFFFFFFFFFFFFFFFFFFFFFFFFFFFFFFFFFFFF\t\t\t;\\n    \\n    // Mapping f\n      AND \t\t\t;\\n    \\n    // Mapping f\n      EQ \t\t\t;\\n    \\n    // Mapping f\n      PUSH [tag] 502\t\t\tiles;\\n    \\n    // Mapping fr...\n      JUMPI \t\t\tiles;\\n    \\n    // Mapping fr...\n      PUSH [tag] 503\t\t\t)\\n    mappin\n      PUSH [tag] 267\t\t\t)\\n    mapp\n      JUMP \t\t\t)\\n    mappin\n    tag 503\t\t\t)\\n    mappin\n      JUMPDEST \t\t\t)\\n    mappin\n      PUSH 40\t\t\tkenId (for efficient lookup)\\n...\n      MLOAD \t\t\tkenId (for efficient lookup)\\n...\n      PUSH 118CDAA700000000000000000000000000000000000000000000000000000000\t\t\tkenId (for efficient lookup)\\n...\n      DUP2 \t\t\tkenId (for efficient lookup)\\n...\n      MSTORE \t\t\tkenId (for efficient lookup)\\n...\n      PUSH 4\t\t\tkenId (for efficient lookup)\\n...\n      ADD \t\t\tkenId (for efficient lookup)\\n...\n      PUSH [tag] 504\t\t\tkenId (for efficient lookup)\\n...\n      SWAP2 \t\t\tkenId (for efficient lookup)\\n...\n      SWAP1 \t\t\tkenId (for efficient lookup)\\n...\n      PUSH [tag] 63\t\t\tkenId (for efficient lookup)\\n...\n      JUMP \t\t\tkenId (for efficient lookup)\\n...\n    tag 504\t\t\tkenId (for efficient lookup)\\n...\n      JUMPDEST \t\t\tkenId (for efficient lookup)\\n...\n      PUSH 40\t\t\tkenId (for efficient lookup)\\n...\n      MLOAD \t\t\tkenId (for efficient lookup)\\n...\n      DUP1 \t\t\tkenId (for efficient lookup)\\n...\n      SWAP2 \t\t\tkenId (for efficient lookup)\\n...\n      SUB \t\t\tkenId (for efficient lookup)\\n...\n      SWAP1 \t\t\tkenId (for efficient lookup)\\n...\n      REVERT \t\t\tkenId (for efficient lookup)\\n...\n    tag 502\t\t\tiles;\\n    \\n    // Mapping fr...\n      JUMPDEST \t\t\tiles;\\n    \\n    // Mapping fr...\n      JUMP \t\t\te\\n    mapping(uint256 => DidP...\n    tag 347\t\t\tcalldata newRef,\\n        byte...\n      JUMPDEST \t\t\tcalldata newRef,\\n        byte...\n      PUSH [tag] 506\t\t\t ) external onlyDidOwner(m\n      DUP3 \t\t\tl \n      DUP3 \t\t\tlyDidOw\n      PUSH 40\t\t\t ) external onlyDidOwner(m\n      MLOAD \t\t\t ) external onlyDidOwner(m\n      DUP1 \t\t\t ) external onlyDidOwner(m\n      PUSH 20\t\t\t ) external onlyDidOwner(m\n      ADD \t\t\t ) external onlyDidOwner(m\n      PUSH 40\t\t\t ) external onlyDidOwner(m\n      MSTORE \t\t\t ) external onlyDidOwner(m\n      DUP1 \t\t\t ) external onlyDidOwner(m\n      PUSH 0\t\t\t ) external onlyDidOwner(m\n      DUP2 \t\t\t ) external onlyDidOwner(m\n      MSTORE \t\t\t ) external onlyDidOwner(m\n      POP \t\t\t ) external onlyDidOwner(m\n      PUSH [tag] 507\t\t\t ) extern\n      JUMP \t\t\t ) external onlyDidOwner(m\n    tag 506\t\t\t ) external onlyDidOwner(m\n      JUMPDEST \t\t\t ) external onlyDidOwner(m\n      POP \t\t\tcalldata newRef,\\n        byte...\n      POP \t\t\tcalldata newRef,\\n        byte...\n      JUMP \t\t\tcalldata newRef,\\n        byte...\n    tag 361\t\t\tferenceUpdated(\\n        addre...\n      JUMPDEST \t\t\tferenceUpdated(\\n        addre...\n      PUSH 0\t\t\tenId,\\n        by\n      PUSH 6\t\t\t32 ind\n      PUSH 0\t\t\t32 ind\n      SWAP1 \t\t\t32 ind\n      SLOAD \t\t\t32 ind\n      SWAP1 \t\t\t32 ind\n      PUSH 100\t\t\t32 ind\n      EXP \t\t\t32 ind\n      SWAP1 \t\t\t32 ind\n      DIV \t\t\t32 ind\n      PUSH FFFFFFFFFFFFFFFFFFFFFFFFFFFFFFFFFFFFFFFF\t\t\t32 ind\n      AND \t\t\t32 ind\n      SWAP1 \t\t\tenId,\\n        bytes32 ind\n      POP \t\t\tenId,\\n        bytes32 ind\n      DUP2 \t\t\tnce,\\n   \n      PUSH 6\t\t\tataRef\n      PUSH 0\t\t\tataRef\n      PUSH 100\t\t\tataReference,\\n   \n      EXP \t\t\tataReference,\\n   \n      DUP2 \t\t\tataReference,\\n   \n      SLOAD \t\t\tataReference,\\n   \n      DUP2 \t\t\tataReference,\\n   \n      PUSH FFFFFFFFFFFFFFFFFFFFFFFFFFFFFFFFFFFFFFFF\t\t\tataReference,\\n   \n      MUL \t\t\tataReference,\\n   \n      NOT \t\t\tataReference,\\n   \n      AND \t\t\tataReference,\\n   \n      SWAP1 \t\t\tataReference,\\n   \n      DUP4 \t\t\tataReference,\\n   \n      PUSH FFFFFFFFFFFFFFFFFFFFFFFFFFFFFFFFFFFFFFFF\t\t\tataReference,\\n   \n      AND \t\t\tataReference,\\n   \n      MUL \t\t\tataReference,\\n   \n      OR \t\t\tataReference,\\n   \n      SWAP1 \t\t\tataReference,\\n   \n      SSTORE \t\t\tataReference,\\n   \n      POP \t\t\tataReference,\\n   \n      DUP2 \t\t\t * @dev \n      PUSH FFFFFFFFFFFFFFFFFFFFFFFFFFFFFFFFFFFFFFFF\t\t\testamp\\n    );\\n    \\n    /**\\...\n      AND \t\t\testamp\\n    );\\n    \\n    /**\\...\n      DUP2 \t\t\t  /**\\n  \n      PUSH FFFFFFFFFFFFFFFFFFFFFFFFFFFFFFFFFFFFFFFF\t\t\testamp\\n    );\\n    \\n    /**\\...\n      AND \t\t\testamp\\n    );\\n    \\n    /**\\...\n      PUSH 8BE0079C531659141344CD1FD0A4F28419497F9722A3DAAFE3B4186F6B6457E0\t\t\testamp\\n    );\\n    \\n    /**\\...\n      PUSH 40\t\t\testamp\\n    );\\n    \\n    /**\\...\n      MLOAD \t\t\testamp\\n    );\\n    \\n    /**\\...\n      PUSH 40\t\t\testamp\\n    );\\n    \\n    /**\\...\n      MLOAD \t\t\testamp\\n    );\\n    \\n    /**\\...\n      DUP1 \t\t\testamp\\n    );\\n    \\n    /**\\...\n      SWAP2 \t\t\testamp\\n    );\\n    \\n    /**\\...\n      SUB \t\t\testamp\\n    );\\n    \\n    /**\\...\n      SWAP1 \t\t\testamp\\n    );\\n    \\n    /**\\...\n      LOG3 \t\t\testamp\\n    );\\n    \\n    /**\\...\n      POP \t\t\tndexed tokenId,\\n        bytes...\n      POP \t\t\tferenceUpdated(\\n        addre...\n      JUMP \t\t\tferenceUpdated(\\n        addre...\n    tag 388\t\t\tility:\\n * - Contract uses UUP...\n      JUMPDEST \t\t\tility:\\n * - Contract uses UUP...\n      PUSH 0\t\t\tt\n      DUP4 \t\t\ton\n      PUSH FFFFFFFFFFFFFFFFFFFFFFFFFFFFFFFFFFFFFFFF\t\t\tontract DIDIde\n      AND \t\t\tontract DIDIde\n      EXTCODESIZE \t\t\tontract DIDIde\n      GT \t\t\tontract DIDIdentit\n      ISZERO \t\t\t*/\\ncontract DIDIdentityToken ...\n      PUSH [tag] 510\t\t\t*/\\ncontract DIDIdentityToken ...\n      JUMPI \t\t\t*/\\ncontract DIDIdentityToken ...\n      DUP3 \t\t\tyG\n      PUSH FFFFFFFFFFFFFFFFFFFFFFFFFFFFFFFFFFFFFFFF\t\t\tnable, ReentrancyGuard {\\n    ...\n      AND \t\t\tnable, ReentrancyGuard {\\n    ...\n      PUSH 150B7A02\t\t\tnable, ReentrancyGuard {\\n    ...\n      DUP7 \t\t\t======= \n      DUP7 \t\t\torag\n      DUP6 \t\t\t=======\n      DUP6 \t\t\t===\\n\n      PUSH 40\t\t\tnable, ReentrancyGuard {\\n    ...\n      MLOAD \t\t\tnable, ReentrancyGuard {\\n    ...\n      DUP6 \t\t\tnable, ReentrancyGuard {\\n    ...\n      PUSH FFFFFFFF\t\t\tnable, ReentrancyGuard {\\n    ...\n      AND \t\t\tnable, ReentrancyGuard {\\n    ...\n      PUSH E0\t\t\tnable, ReentrancyGuard {\\n    ...\n      SHL \t\t\tnable, ReentrancyGuard {\\n    ...\n      DUP2 \t\t\tnable, ReentrancyGuard {\\n    ...\n      MSTORE \t\t\tnable, ReentrancyGuard {\\n    ...\n      PUSH 4\t\t\tnable, ReentrancyGuard {\\n    ...\n      ADD \t\t\tnable, ReentrancyGuard {\\n    ...\n      PUSH [tag] 511\t\t\tnable, ReentrancyGuard {\\n    ...\n      SWAP5 \t\t\tnable, ReentrancyGuard {\\n    ...\n      SWAP4 \t\t\tnable, ReentrancyGuard {\\n    ...\n      SWAP3 \t\t\tnable, ReentrancyGuard {\\n    ...\n      SWAP2 \t\t\tnable, ReentrancyGuard {\\n    ...\n      SWAP1 \t\t\tnable, ReentrancyGuard {\\n    ...\n      PUSH [tag] 512\t\t\tnable, ReentrancyGuard {\\n    ...\n      JUMP \t\t\tnable, ReentrancyGuard {\\n    ...\n    tag 511\t\t\tnable, ReentrancyGuard {\\n    ...\n      JUMPDEST \t\t\tnable, ReentrancyGuard {\\n    ...\n      PUSH 20\t\t\tnable, ReentrancyGuard {\\n    ...\n      PUSH 40\t\t\tnable, ReentrancyGuard {\\n    ...\n      MLOAD \t\t\tnable, ReentrancyGuard {\\n    ...\n      DUP1 \t\t\tnable, ReentrancyGuard {\\n    ...\n      DUP4 \t\t\tnable, ReentrancyGuard {\\n    ...\n      SUB \t\t\tnable, ReentrancyGuard {\\n    ...\n      DUP2 \t\t\tnable, ReentrancyGuard {\\n    ...\n      PUSH 0\t\t\tnable, ReentrancyGuard {\\n    ...\n      DUP8 \t\t\tnable, ReentrancyGuard {\\n    ...\n      GAS \t\t\tnable, ReentrancyGuard {\\n    ...\n      CALL \t\t\tnable, ReentrancyGuard {\\n    ...\n      SWAP3 \t\t\tnable, ReentrancyGuard {\\n    ...\n      POP \t\t\tnable, ReentrancyGuard {\\n    ...\n      POP \t\t\tnable, ReentrancyGuard {\\n    ...\n      POP \t\t\tnable, ReentrancyGuard {\\n    ...\n      DUP1 \t\t\tnable, ReentrancyGuard {\\n    ...\n      ISZERO \t\t\tnable, ReentrancyGuard {\\n    ...\n      PUSH [tag] 513\t\t\tnable, ReentrancyGuard {\\n    ...\n      JUMPI \t\t\tnable, ReentrancyGuard {\\n    ...\n      POP \t\t\tnable, ReentrancyGuard {\\n    ...\n      PUSH 40\t\t\tnable, ReentrancyGuard {\\n    ...\n      MLOAD \t\t\tnable, ReentrancyGuard {\\n    ...\n      RETURNDATASIZE \t\t\tnable, ReentrancyGuard {\\n    ...\n      PUSH 1F\t\t\tnable, ReentrancyGuard {\\n    ...\n      NOT \t\t\tnable, ReentrancyGuard {\\n    ...\n      PUSH 1F\t\t\tnable, ReentrancyGuard {\\n    ...\n      DUP3 \t\t\tnable, ReentrancyGuard {\\n    ...\n      ADD \t\t\tnable, ReentrancyGuard {\\n    ...\n      AND \t\t\tnable, ReentrancyGuard {\\n    ...\n      DUP3 \t\t\tnable, ReentrancyGuard {\\n    ...\n      ADD \t\t\tnable, ReentrancyGuard {\\n    ...\n      DUP1 \t\t\tnable, ReentrancyGuard {\\n    ...\n      PUSH 40\t\t\tnable, ReentrancyGuard {\\n    ...\n      MSTORE \t\t\tnable, ReentrancyGuard {\\n    ...\n      POP \t\t\tnable, ReentrancyGuard {\\n    ...\n      DUP2 \t\t\tnable, ReentrancyGuard {\\n    ...\n      ADD \t\t\tnable, ReentrancyGuard {\\n    ...\n      SWAP1 \t\t\tnable, ReentrancyGuard {\\n    ...\n      PUSH [tag] 514\t\t\tnable, ReentrancyGuard {\\n    ...\n      SWAP2 \t\t\tnable, ReentrancyGuard {\\n    ...\n      SWAP1 \t\t\tnable, ReentrancyGuard {\\n    ...\n      PUSH [tag] 515\t\t\tnable, ReentrancyGuard {\\n    ...\n      JUMP \t\t\tnable, ReentrancyGuard {\\n    ...\n    tag 514\t\t\tnable, ReentrancyGuard {\\n    ...\n      JUMPDEST \t\t\tnable, ReentrancyGuard {\\n    ...\n      PUSH 1\t\t\tnable, ReentrancyGuard {\\n    ...\n    tag 513\t\t\tnable, ReentrancyGuard {\\n    ...\n      JUMPDEST \t\t\tnable, ReentrancyGuard {\\n    ...\n      PUSH [tag] 516\t\t\t, Ownable, ReentrancyGuard {\\n...\n      JUMPI \t\t\t, Ownable, ReentrancyGuard {\\n...\n      RETURNDATASIZE \t\t\t, Ownable, ReentrancyGuard {\\n...\n      DUP1 \t\t\t, Ownable, ReentrancyGuard {\\n...\n      PUSH 0\t\t\t, Ownable, ReentrancyGuard {\\n...\n      DUP2 \t\t\t, Ownable, ReentrancyGuard {\\n...\n      EQ \t\t\t, Ownable, ReentrancyGuard {\\n...\n      PUSH [tag] 521\t\t\t, Ownable, ReentrancyGuard {\\n...\n      JUMPI \t\t\t, Ownable, ReentrancyGuard {\\n...\n      PUSH 40\t\t\t, Ownable, ReentrancyGuard {\\n...\n      MLOAD \t\t\t, Ownable, ReentrancyGuard {\\n...\n      SWAP2 \t\t\t, Ownable, ReentrancyGuard {\\n...\n      POP \t\t\t, Ownable, ReentrancyGuard {\\n...\n      PUSH 1F\t\t\t, Ownable, ReentrancyGuard {\\n...\n      NOT \t\t\t, Ownable, ReentrancyGuard {\\n...\n      PUSH 3F\t\t\t, Ownable, ReentrancyGuard {\\n...\n      RETURNDATASIZE \t\t\t, Ownable, ReentrancyGuard {\\n...\n      ADD \t\t\t, Ownable, ReentrancyGuard {\\n...\n      AND \t\t\t, Ownable, ReentrancyGuard {\\n...\n      DUP3 \t\t\t, Ownable, ReentrancyGuard {\\n...\n      ADD \t\t\t, Ownable, ReentrancyGuard {\\n...\n      PUSH 40\t\t\t, Ownable, ReentrancyGuard {\\n...\n      MSTORE \t\t\t, Ownable, ReentrancyGuard {\\n...\n      RETURNDATASIZE \t\t\t, Ownable, ReentrancyGuard {\\n...\n      DUP3 \t\t\t, Ownable, ReentrancyGuard {\\n...\n      MSTORE \t\t\t, Ownable, ReentrancyGuard {\\n...\n      RETURNDATASIZE \t\t\t, Ownable, ReentrancyGuard {\\n...\n      PUSH 0\t\t\t, Ownable, ReentrancyGuard {\\n...\n      PUSH 20\t\t\t, Ownable, ReentrancyGuard {\\n...\n      DUP5 \t\t\t, Ownable, ReentrancyGuard {\\n...\n      ADD \t\t\t, Ownable, ReentrancyGuard {\\n...\n      RETURNDATACOPY \t\t\t, Ownable, ReentrancyGuard {\\n...\n      PUSH [tag] 520\t\t\t, Ownable, ReentrancyGuard {\\n...\n      JUMP \t\t\t, Ownable, ReentrancyGuard {\\n...\n    tag 521\t\t\t, Ownable, ReentrancyGuard {\\n...\n      JUMPDEST \t\t\t, Ownable, ReentrancyGuard {\\n...\n      PUSH 60\t\t\t, Ownable, ReentrancyGuard {\\n...\n      SWAP2 \t\t\t, Ownable, ReentrancyGuard {\\n...\n      POP \t\t\t, Ownable, ReentrancyGuard {\\n...\n    tag 520\t\t\t, Ownable, ReentrancyGuard {\\n...\n      JUMPDEST \t\t\t, Ownable, ReentrancyGuard {\\n...\n      POP \t\t\t, Ownable, ReentrancyGuard {\\n...\n      PUSH 0\t\t\t \n      DUP2 \t\t\ttedAt;\n      MLOAD \t\t\ttedAt;       \n      SUB \t\t\ttedAt;            \n      PUSH [tag] 522\t\t\tUpdatedAt;             // 8 by...\n      JUMPI \t\t\tUpdatedAt;             // 8 by...\n      DUP4 \t\t\tda\n      PUSH 40\t\t\tot 2)\\n        bytes encrypted...\n      MLOAD \t\t\tot 2)\\n        bytes encrypted...\n      PUSH 64A0AE9200000000000000000000000000000000000000000000000000000000\t\t\tot 2)\\n        bytes encrypted...\n      DUP2 \t\t\tot 2)\\n        bytes encrypted...\n      MSTORE \t\t\tot 2)\\n        bytes encrypted...\n      PUSH 4\t\t\tot 2)\\n        bytes encrypted...\n      ADD \t\t\tot 2)\\n        bytes encrypted...\n      PUSH [tag] 523\t\t\tot 2)\\n        bytes encrypted...\n      SWAP2 \t\t\tot 2)\\n        bytes encrypted...\n      SWAP1 \t\t\tot 2)\\n        bytes encrypted...\n      PUSH [tag] 63\t\t\tot 2)\\n        bytes encrypted...\n      JUMP \t\t\tot 2)\\n        bytes encrypted...\n    tag 523\t\t\tot 2)\\n        bytes encrypted...\n      JUMPDEST \t\t\tot 2)\\n        bytes encrypted...\n      PUSH 40\t\t\tot 2)\\n        bytes encrypted...\n      MLOAD \t\t\tot 2)\\n        bytes encrypted...\n      DUP1 \t\t\tot 2)\\n        bytes encrypted...\n      SWAP2 \t\t\tot 2)\\n        bytes encrypted...\n      SUB \t\t\tot 2)\\n        bytes encrypted...\n      SWAP1 \t\t\tot 2)\\n        bytes encrypted...\n      REVERT \t\t\tot 2)\\n        bytes encrypted...\n    tag 522\t\t\tUpdatedAt;             // 8 by...\n      JUMPDEST \t\t\tUpdatedAt;             // 8 by...\n      DUP1 \t\t\t_token\n      MLOAD \t\t\tivate _tokenP\n      PUSH 20\t\t\tile)\n      DUP3 \t\t\t DidPr\n      ADD \t\t\t6 => DidProfile) \n      REVERT \t\t\t(uint256 => DidProfile) privat...\n    tag 516\t\t\t, Ownable, ReentrancyGuard {\\n...\n      JUMPDEST \t\t\t, Ownable, ReentrancyGuard {\\n...\n      PUSH 150B7A02\t\t\ted to optimize gas (fits in 3 ...\n      PUSH E0\t\t\ted to optimize gas (fits in 3 ...\n      SHL \t\t\ted to optimize gas (fits in 3 ...\n      PUSH FFFFFFFFFFFFFFFFFFFFFFFFFFFFFFFFFFFFFFFFFFFFFFFFFFFFFFFF\t\t\t    * Packed to optimize gas (...\n      NOT \t\t\t    * Packed to optimize gas (...\n      AND \t\t\t    * Packed to optimize gas (...\n      DUP2 \t\t\t    * \n      PUSH FFFFFFFFFFFFFFFFFFFFFFFFFFFFFFFFFFFFFFFFFFFFFFFFFFFFFFFF\t\t\t    * Packed to optimize gas (...\n      NOT \t\t\t    * Packed to optimize gas (...\n      AND \t\t\t    * Packed to optimize gas (...\n      EQ \t\t\t    * Packed to optimize gas (...\n      PUSH [tag] 526\t\t\tre\\n     * Packed to optimize ...\n      JUMPI \t\t\tre\\n     * Packed to optimize ...\n      DUP4 \t\t\t  \n      PUSH 40\t\t\t         // 20 bytes (slot 1)\\...\n      MLOAD \t\t\t         // 20 bytes (slot 1)\\...\n      PUSH 64A0AE9200000000000000000000000000000000000000000000000000000000\t\t\t         // 20 bytes (slot 1)\\...\n      DUP2 \t\t\t         // 20 bytes (slot 1)\\...\n      MSTORE \t\t\t         // 20 bytes (slot 1)\\...\n      PUSH 4\t\t\t         // 20 bytes (slot 1)\\...\n      ADD \t\t\t         // 20 bytes (slot 1)\\...\n      PUSH [tag] 527\t\t\t         // 20 bytes (slot 1)\\...\n      SWAP2 \t\t\t         // 20 bytes (slot 1)\\...\n      SWAP1 \t\t\t         // 20 bytes (slot 1)\\...\n      PUSH [tag] 63\t\t\t         // 20 bytes (slot 1)\\...\n      JUMP \t\t\t         // 20 bytes (slot 1)\\...\n    tag 527\t\t\t         // 20 bytes (slot 1)\\...\n      JUMPDEST \t\t\t         // 20 bytes (slot 1)\\...\n      PUSH 40\t\t\t         // 20 bytes (slot 1)\\...\n      MLOAD \t\t\t         // 20 bytes (slot 1)\\...\n      DUP1 \t\t\t         // 20 bytes (slot 1)\\...\n      SWAP2 \t\t\t         // 20 bytes (slot 1)\\...\n      SUB \t\t\t         // 20 bytes (slot 1)\\...\n      SWAP1 \t\t\t         // 20 bytes (slot 1)\\...\n      REVERT \t\t\t         // 20 bytes (slot 1)\\...\n    tag 526\t\t\tre\\n     * Packed to optimize ...\n      JUMPDEST \t\t\tre\\n     * Packed to optimize ...\n      POP \t\t\t  \\n    /**\\n     * @dev DID P...\n    tag 510\t\t\t*/\\ncontract DIDIdentityToken ...\n      JUMPDEST \t\t\t*/\\ncontract DIDIdentityToken ...\n      POP \t\t\tility:\\n * - Contract uses UUP...\n      POP \t\t\tility:\\n * - Contract uses UUP...\n      POP \t\t\tility:\\n * - Contract uses UUP...\n      POP \t\t\tility:\\n * - Contract uses UUP...\n      POP \t\t\tility:\\n * - Contract uses UUP...\n      JUMP \t\t\tility:\\n * - Contract uses UUP...\n    tag 406\t\t\ttion _baseURI() internal view ...\n      JUMPDEST \t\t\ttion _baseURI() internal view ...\n      PUSH 60\t\t\tng memory) {\\n\n      PUSH F\t\t\teTokenURI;\\n  \n      DUP1 \t\t\trn _baseTokenURI;\\n  \n      SLOAD \t\t\trn _baseTokenURI;\\n  \n      PUSH [tag] 529\t\t\trn _baseTokenURI;\\n  \n      SWAP1 \t\t\trn _baseTokenURI;\\n  \n      PUSH [tag] 203\t\t\trn _baseTokenURI;\\n  \n      JUMP \t\t\trn _baseTokenURI;\\n  \n    tag 529\t\t\trn _baseTokenURI;\\n  \n      JUMPDEST \t\t\trn _baseTokenURI;\\n  \n      DUP1 \t\t\trn _baseTokenURI;\\n  \n      PUSH 1F\t\t\trn _baseTokenURI;\\n  \n      ADD \t\t\trn _baseTokenURI;\\n  \n      PUSH 20\t\t\trn _baseTokenURI;\\n  \n      DUP1 \t\t\trn _baseTokenURI;\\n  \n      SWAP2 \t\t\trn _baseTokenURI;\\n  \n      DIV \t\t\trn _baseTokenURI;\\n  \n      MUL \t\t\trn _baseTokenURI;\\n  \n      PUSH 20\t\t\trn _baseTokenURI;\\n  \n      ADD \t\t\trn _baseTokenURI;\\n  \n      PUSH 40\t\t\trn _baseTokenURI;\\n  \n      MLOAD \t\t\trn _baseTokenURI;\\n  \n      SWAP1 \t\t\trn _baseTokenURI;\\n  \n      DUP2 \t\t\trn _baseTokenURI;\\n  \n      ADD \t\t\trn _baseTokenURI;\\n  \n      PUSH 40\t\t\trn _baseTokenURI;\\n  \n      MSTORE \t\t\trn _baseTokenURI;\\n  \n      DUP1 \t\t\trn _baseTokenURI;\\n  \n      SWAP3 \t\t\trn _baseTokenURI;\\n  \n      SWAP2 \t\t\trn _baseTokenURI;\\n  \n      SWAP1 \t\t\trn _baseTokenURI;\\n  \n      DUP2 \t\t\trn _baseTokenURI;\\n  \n      DUP2 \t\t\trn _baseTokenURI;\\n  \n      MSTORE \t\t\trn _baseTokenURI;\\n  \n      PUSH 20\t\t\trn _baseTokenURI;\\n  \n      ADD \t\t\trn _baseTokenURI;\\n  \n      DUP3 \t\t\trn _baseTokenURI;\\n  \n      DUP1 \t\t\trn _baseTokenURI;\\n  \n      SLOAD \t\t\trn _baseTokenURI;\\n  \n      PUSH [tag] 530\t\t\trn _baseTokenURI;\\n  \n      SWAP1 \t\t\trn _baseTokenURI;\\n  \n      PUSH [tag] 203\t\t\trn _baseTokenURI;\\n  \n      JUMP \t\t\trn _baseTokenURI;\\n  \n    tag 530\t\t\trn _baseTokenURI;\\n  \n      JUMPDEST \t\t\trn _baseTokenURI;\\n  \n      DUP1 \t\t\trn _baseTokenURI;\\n  \n      ISZERO \t\t\trn _baseTokenURI;\\n  \n      PUSH [tag] 531\t\t\trn _baseTokenURI;\\n  \n      JUMPI \t\t\trn _baseTokenURI;\\n  \n      DUP1 \t\t\trn _baseTokenURI;\\n  \n      PUSH 1F\t\t\trn _baseTokenURI;\\n  \n      LT \t\t\trn _baseTokenURI;\\n  \n      PUSH [tag] 532\t\t\trn _baseTokenURI;\\n  \n      JUMPI \t\t\trn _baseTokenURI;\\n  \n      PUSH 100\t\t\trn _baseTokenURI;\\n  \n      DUP1 \t\t\trn _baseTokenURI;\\n  \n      DUP4 \t\t\trn _baseTokenURI;\\n  \n      SLOAD \t\t\trn _baseTokenURI;\\n  \n      DIV \t\t\trn _baseTokenURI;\\n  \n      MUL \t\t\trn _baseTokenURI;\\n  \n      DUP4 \t\t\trn _baseTokenURI;\\n  \n      MSTORE \t\t\trn _baseTokenURI;\\n  \n      SWAP2 \t\t\trn _baseTokenURI;\\n  \n      PUSH 20\t\t\trn _baseTokenURI;\\n  \n      ADD \t\t\trn _baseTokenURI;\\n  \n      SWAP2 \t\t\trn _baseTokenURI;\\n  \n      PUSH [tag] 531\t\t\trn _baseTokenURI;\\n  \n      JUMP \t\t\trn _baseTokenURI;\\n  \n    tag 532\t\t\trn _baseTokenURI;\\n  \n      JUMPDEST \t\t\trn _baseTokenURI;\\n  \n      DUP3 \t\t\trn _baseTokenURI;\\n  \n      ADD \t\t\trn _baseTokenURI;\\n  \n      SWAP2 \t\t\trn _baseTokenURI;\\n  \n      SWAP1 \t\t\trn _baseTokenURI;\\n  \n      PUSH 0\t\t\trn _baseTokenURI;\\n  \n      MSTORE \t\t\trn _baseTokenURI;\\n  \n      PUSH 20\t\t\trn _baseTokenURI;\\n  \n      PUSH 0\t\t\trn _baseTokenURI;\\n  \n      KECCAK256 \t\t\trn _baseTokenURI;\\n  \n      SWAP1 \t\t\trn _baseTokenURI;\\n  \n    tag 533\t\t\trn _baseTokenURI;\\n  \n      JUMPDEST \t\t\trn _baseTokenURI;\\n  \n      DUP2 \t\t\trn _baseTokenURI;\\n  \n      SLOAD \t\t\trn _baseTokenURI;\\n  \n      DUP2 \t\t\trn _baseTokenURI;\\n  \n      MSTORE \t\t\trn _baseTokenURI;\\n  \n      SWAP1 \t\t\trn _baseTokenURI;\\n  \n      PUSH 1\t\t\trn _baseTokenURI;\\n  \n      ADD \t\t\trn _baseTokenURI;\\n  \n      SWAP1 \t\t\trn _baseTokenURI;\\n  \n      PUSH 20\t\t\trn _baseTokenURI;\\n  \n      ADD \t\t\trn _baseTokenURI;\\n  \n      DUP1 \t\t\trn _baseTokenURI;\\n  \n      DUP4 \t\t\trn _baseTokenURI;\\n  \n      GT \t\t\trn _baseTokenURI;\\n  \n      PUSH [tag] 533\t\t\trn _baseTokenURI;\\n  \n      JUMPI \t\t\trn _baseTokenURI;\\n  \n      DUP3 \t\t\trn _baseTokenURI;\\n  \n      SWAP1 \t\t\trn _baseTokenURI;\\n  \n      SUB \t\t\trn _baseTokenURI;\\n  \n      PUSH 1F\t\t\trn _baseTokenURI;\\n  \n      AND \t\t\trn _baseTokenURI;\\n  \n      DUP3 \t\t\trn _baseTokenURI;\\n  \n      ADD \t\t\trn _baseTokenURI;\\n  \n      SWAP2 \t\t\trn _baseTokenURI;\\n  \n    tag 531\t\t\trn _baseTokenURI;\\n  \n      JUMPDEST \t\t\trn _baseTokenURI;\\n  \n      POP \t\t\trn _baseTokenURI;\\n  \n      POP \t\t\trn _baseTokenURI;\\n  \n      POP \t\t\trn _baseTokenURI;\\n  \n      POP \t\t\trn _baseTokenURI;\\n  \n      POP \t\t\trn _baseTokenURI;\\n  \n      SWAP1 \t\t\trn _baseTokenURI;\\n  \n      POP \t\t\trn _baseTokenURI;\\n  \n      SWAP1 \t\t\ttion _baseURI() internal view ...\n      JUMP \t\t\ttion _baseURI() internal view ...\n    tag 410\t\t\tofile structure\\n     * Packed...\n      JUMPDEST \t\t\tofile structure\\n     * Packed...\n      PUSH 60\t\t\t storage slot\n      PUSH 0\t\t\t       address\n      PUSH 1\t\t\t \n      PUSH [tag] 535\t\t\tner;             \n      DUP5 \t\t\t     \n      PUSH [tag] 536\t\t\tner;      \n      JUMP \t\t\tner;             \n    tag 535\t\t\tner;             \n      JUMPDEST \t\t\tner;             \n      ADD \t\t\tner;                 \n      SWAP1 \t\t\t       address owner;         ...\n      POP \t\t\t       address owner;         ...\n      PUSH 0\t\t\t (slot 1)\\n        ui\n      DUP2 \t\t\t;     \n      PUSH FFFFFFFFFFFFFFFF\t\t\t4 createdAt;      \n      DUP2 \t\t\t4 createdAt;      \n      GT \t\t\t4 createdAt;      \n      ISZERO \t\t\t4 createdAt;      \n      PUSH [tag] 537\t\t\t4 createdAt;      \n      JUMPI \t\t\t4 createdAt;      \n      PUSH [tag] 538\t\t\t4 createdAt;      \n      PUSH [tag] 539\t\t\t4 createdAt;      \n      JUMP \t\t\t4 createdAt;      \n    tag 538\t\t\t4 createdAt;      \n      JUMPDEST \t\t\t4 createdAt;      \n    tag 537\t\t\t4 createdAt;      \n      JUMPDEST \t\t\t4 createdAt;      \n      PUSH 40\t\t\t4 createdAt;      \n      MLOAD \t\t\t4 createdAt;      \n      SWAP1 \t\t\t4 createdAt;      \n      DUP1 \t\t\t4 createdAt;      \n      DUP3 \t\t\t4 createdAt;      \n      MSTORE \t\t\t4 createdAt;      \n      DUP1 \t\t\t4 createdAt;      \n      PUSH 1F\t\t\t4 createdAt;      \n      ADD \t\t\t4 createdAt;      \n      PUSH 1F\t\t\t4 createdAt;      \n      NOT \t\t\t4 createdAt;      \n      AND \t\t\t4 createdAt;      \n      PUSH 20\t\t\t4 createdAt;      \n      ADD \t\t\t4 createdAt;      \n      DUP3 \t\t\t4 createdAt;      \n      ADD \t\t\t4 createdAt;      \n      PUSH 40\t\t\t4 createdAt;      \n      MSTORE \t\t\t4 createdAt;      \n      DUP1 \t\t\t4 createdAt;      \n      ISZERO \t\t\t4 createdAt;      \n      PUSH [tag] 540\t\t\t4 createdAt;      \n      JUMPI \t\t\t4 createdAt;      \n      DUP2 \t\t\t4 createdAt;      \n      PUSH 20\t\t\t4 createdAt;      \n      ADD \t\t\t4 createdAt;      \n      PUSH 1\t\t\t4 createdAt;      \n      DUP3 \t\t\t4 createdAt;      \n      MUL \t\t\t4 createdAt;      \n      DUP1 \t\t\t4 createdAt;      \n      CALLDATASIZE \t\t\t4 createdAt;      \n      DUP4 \t\t\t4 createdAt;      \n      CALLDATACOPY \t\t\t4 createdAt;      \n      DUP1 \t\t\t4 createdAt;      \n      DUP3 \t\t\t4 createdAt;      \n      ADD \t\t\t4 createdAt;      \n      SWAP2 \t\t\t4 createdAt;      \n      POP \t\t\t4 createdAt;      \n      POP \t\t\t4 createdAt;      \n      SWAP1 \t\t\t4 createdAt;      \n      POP \t\t\t4 createdAt;      \n    tag 540\t\t\t4 createdAt;      \n      JUMPDEST \t\t\t4 createdAt;      \n      POP \t\t\t4 createdAt;      \n      SWAP1 \t\t\t (slot 1)\\n        uint64 crea...\n      POP \t\t\t (slot 1)\\n        uint64 crea...\n      PUSH 0\t\t\t8 bytes (sl\n      DUP3 \t\t\t     b\n      PUSH 20\t\t\ted)\\n\n      DUP4 \t\t\t 1, pa\n      ADD \t\t\tslot 1, packed)\\n \n      ADD \t\t\tes (slot 1, packed)\\n        b...\n      SWAP1 \t\t\t/ 8 bytes (slot 1, packed)\\n  ...\n      POP \t\t\t/ 8 bytes (slot 1, packed)\\n  ...\n    tag 541\t\t\t     // 32 bytes (slot 2)\\n   ...\n      JUMPDEST \t\t\t     // 32 bytes (slot 2)\\n   ...\n      PUSH 1\t\t\t 32 \n      ISZERO \t\t\t     // 32 bytes (slot 2)\\n   ...\n      PUSH [tag] 542\t\t\t     // 32 bytes (slot 2)\\n   ...\n      JUMPI \t\t\t     // 32 bytes (slot 2)\\n   ...\n      DUP1 \t\t\t   by\n      DUP1 \t\t\t   by\n      PUSH 1\t\t\t   by\n      SWAP1 \t\t\t   by\n      SUB \t\t\t   by\n      SWAP2 \t\t\t   by\n      POP \t\t\t   by\n      POP \t\t\t   by\n      PUSH 3031323334353637383961626364656600000000000000000000000000000000\t\t\tDidProfile\n      PUSH A\t\t\td \n      DUP7 \t\t\t toke\n      MOD \t\t\tfrom tokenId t\n      BYTE \t\t\tping from tokenId to DidProfil...\n      DUP2 \t\t\t/ M\n      MSTORE8 \t\t\t}\\n\\n    // Mapping from token...\n      PUSH A\t\t\tok\n      DUP6 \t\t\trivate _tok\n      DUP2 \t\t\trivate _tok\n      PUSH [tag] 543\t\t\trivate _tok\n      JUMPI \t\t\trivate _tok\n      PUSH [tag] 544\t\t\trivate _tok\n      PUSH [tag] 545\t\t\trivate _tok\n      JUMP \t\t\trivate _tok\n    tag 544\t\t\trivate _tok\n      JUMPDEST \t\t\trivate _tok\n    tag 543\t\t\trivate _tok\n      JUMPDEST \t\t\trivate _tok\n      DIV \t\t\trivate _tok\n      SWAP5 \t\t\trivate _tok\n      POP \t\t\trivate _tok\n      PUSH 0\t\t\t \n      DUP6 \t\t\t/ Map\n      SUB \t\t\t/ Mapping \n      PUSH [tag] 541\t\t\t     // 32 bytes (slot 2)\\n   ...\n      JUMPI \t\t\t   // Mapping from ow\n    tag 542\t\t\t     // 32 bytes (slot 2)\\n   ...\n      JUMPDEST \t\t\t     // 32 bytes (slot 2)\\n   ...\n      DUP2 \t\t\tnt loo\n      SWAP4 \t\t\tefficient loo\n      POP \t\t\tefficient loo\n      POP \t\t\tefficient loo\n      POP \t\t\tefficient loo\n      POP \t\t\tefficient loo\n      SWAP2 \t\t\tofile structure\\n     * Packed...\n      SWAP1 \t\t\tofile structure\\n     * Packed...\n      POP \t\t\tofile structure\\n     * Packed...\n      JUMP \t\t\tofile structure\\n     * Packed...\n    tag 453\t\t\ttion _exists(uint256 tokenId) ...\n      JUMPDEST \t\t\ttion _exists(uint256 tokenId) ...\n      PUSH 0\t\t\t) {\\n\n      DUP1 \t\t\t \n      PUSH FFFFFFFFFFFFFFFFFFFFFFFFFFFFFFFFFFFFFFFF\t\t\terOf(tokenId) != address(0);\\n...\n      AND \t\t\terOf(tokenId) != address(0);\\n...\n      PUSH [tag] 548\t\t\terOf(tokenId) != \n      DUP4 \t\t\tnId) !=\n      PUSH [tag] 478\t\t\terOf(tok\n      JUMP \t\t\terOf(tokenId) != \n    tag 548\t\t\terOf(tokenId) != \n      JUMPDEST \t\t\terOf(tokenId) != \n      PUSH FFFFFFFFFFFFFFFFFFFFFFFFFFFFFFFFFFFFFFFF\t\t\terOf(tokenId) != address(0);\\n...\n      AND \t\t\terOf(tokenId) != address(0);\\n...\n      EQ \t\t\terOf(tokenId) != address(0);\\n...\n      ISZERO \t\t\terOf(tokenId) != address(0);\\n...\n      SWAP1 \t\t\trn _ownerOf(tokenId) != addres...\n      POP \t\t\trn _ownerOf(tokenId) != addres...\n      SWAP2 \t\t\ttion _exists(uint256 tokenId) ...\n      SWAP1 \t\t\ttion _exists(uint256 tokenId) ...\n      POP \t\t\ttion _exists(uint256 tokenId) ...\n      JUMP \t\t\ttion _exists(uint256 tokenId) ...\n    tag 478\t\t\tublicMinting Whether to allow ...\n      JUMPDEST \t\t\tublicMinting Whether to allow ...\n      PUSH 0\t\t\tor(\\n   \n      PUSH 2\t\t\tname,\\n \n      PUSH 0\t\t\tname,\\n        st\n      DUP4 \t\t\t      s\n      DUP2 \t\t\tname,\\n        st\n      MSTORE \t\t\tname,\\n        st\n      PUSH 20\t\t\tname,\\n        st\n      ADD \t\t\tname,\\n        st\n      SWAP1 \t\t\tname,\\n        st\n      DUP2 \t\t\tname,\\n        st\n      MSTORE \t\t\tname,\\n        st\n      PUSH 20\t\t\tname,\\n        st\n      ADD \t\t\tname,\\n        st\n      PUSH 0\t\t\tname,\\n        st\n      KECCAK256 \t\t\tname,\\n        st\n      PUSH 0\t\t\tname,\\n        st\n      SWAP1 \t\t\tname,\\n        st\n      SLOAD \t\t\tname,\\n        st\n      SWAP1 \t\t\tname,\\n        st\n      PUSH 100\t\t\tname,\\n        st\n      EXP \t\t\tname,\\n        st\n      SWAP1 \t\t\tname,\\n        st\n      DIV \t\t\tname,\\n        st\n      PUSH FFFFFFFFFFFFFFFFFFFFFFFFFFFFFFFFFFFFFFFF\t\t\tname,\\n        st\n      AND \t\t\tname,\\n        st\n      SWAP1 \t\t\tmemory name,\\n        st\n      POP \t\t\tmemory name,\\n        st\n      SWAP2 \t\t\tublicMinting Whether to allow ...\n      SWAP1 \t\t\tublicMinting Whether to allow ...\n      POP \t\t\tublicMinting Whether to allow ...\n      JUMP \t\t\tublicMinting Whether to allow ...\n    tag 498\t\t\tDid[msg.sender], \"Has DID\");\\n...\n      JUMPDEST \t\t\tDid[msg.sender], \"Has DID\");\\n...\n      PUSH 0\t\t\tnCounte\n      DUP1 \t\t\t// Create pr\n      PUSH [tag] 551\t\t\tle\\n        DidPro\n      DUP5 \t\t\t  DidPr\n      PUSH [tag] 478\t\t\tle\\n     \n      JUMP \t\t\tle\\n        DidPro\n    tag 551\t\t\tle\\n        DidPro\n      JUMPDEST \t\t\tle\\n        DidPro\n      SWAP1 \t\t\t// Create profile\\n        Did...\n      POP \t\t\t// Create profile\\n        Did...\n      PUSH 0\t\t\t \n      PUSH FFFFFFFFFFFFFFFFFFFFFFFFFFFFFFFFFFFFFFFF\t\t\tnder,\\n            \n      AND \t\t\tnder,\\n            \n      DUP4 \t\t\tnder\n      PUSH FFFFFFFFFFFFFFFFFFFFFFFFFFFFFFFFFFFFFFFF\t\t\tnder,\\n            \n      AND \t\t\tnder,\\n            \n      EQ \t\t\tnder,\\n            \n      PUSH [tag] 552\t\t\tg.sender,\\n            created...\n      JUMPI \t\t\tg.sender,\\n            created...\n      PUSH [tag] 553\t\t\t4(block.timestamp),\\n         ...\n      DUP2 \t\t\t),\\n \n      DUP5 \t\t\t    \n      DUP7 \t\t\t   last\n      PUSH [tag] 554\t\t\t4(block.timestam\n      JUMP \t\t\t4(block.timestamp),\\n         ...\n    tag 553\t\t\t4(block.timestamp),\\n         ...\n      JUMPDEST \t\t\t4(block.timestamp),\\n         ...\n    tag 552\t\t\tg.sender,\\n            created...\n      JUMPDEST \t\t\tg.sender,\\n            created...\n      PUSH 0\t\t\t3\n      PUSH FFFFFFFFFFFFFFFFFFFFFFFFFFFFFFFFFFFFFFFF\t\t\tReference: bytes32\n      AND \t\t\tReference: bytes32\n      DUP2 \t\t\tRefe\n      PUSH FFFFFFFFFFFFFFFFFFFFFFFFFFFFFFFFFFFFFFFF\t\t\tReference: bytes32\n      AND \t\t\tReference: bytes32\n      EQ \t\t\tReference: bytes32\n      PUSH [tag] 555\t\t\tDataReference: bytes32(0),\\n  ...\n      JUMPI \t\t\tDataReference: bytes32(0),\\n  ...\n      PUSH [tag] 556\t\t\tofile;\\n        _ownerToTokenI...\n      PUSH 0\t\t\tw\n      DUP6 \t\t\tToToken\n      PUSH 0\t\t\td\n      DUP1 \t\t\t = to\n      PUSH [tag] 557\t\t\tofile;\\n \n      JUMP \t\t\tofile;\\n        _ownerToTokenI...\n    tag 556\t\t\tofile;\\n        _ownerToTokenI...\n      JUMPDEST \t\t\tofile;\\n        _ownerToTokenI...\n      PUSH 1\t\t\t-\n      PUSH 3\t\t\t        /\n      PUSH 0\t\t\t        // Mint\n      DUP4 \t\t\t Min\n      PUSH FFFFFFFFFFFFFFFFFFFFFFFFFFFFFFFFFFFFFFFF\t\t\t        // Mint\n      AND \t\t\t        // Mint\n      PUSH FFFFFFFFFFFFFFFFFFFFFFFFFFFFFFFFFFFFFFFF\t\t\t        // Mint\n      AND \t\t\t        // Mint\n      DUP2 \t\t\t        // Mint\n      MSTORE \t\t\t        // Mint\n      PUSH 20\t\t\t        // Mint\n      ADD \t\t\t        // Mint\n      SWAP1 \t\t\t        // Mint\n      DUP2 \t\t\t        // Mint\n      MSTORE \t\t\t        // Mint\n      PUSH 20\t\t\t        // Mint\n      ADD \t\t\t        // Mint\n      PUSH 0\t\t\t        // Mint\n      KECCAK256 \t\t\t        // Mint\n      PUSH 0\t\t\t        // Mint\n      DUP3 \t\t\t        // Mint ERC-\n      DUP3 \t\t\t        // Mint ERC-\n      SLOAD \t\t\t        // Mint ERC-\n      SUB \t\t\t        // Mint ERC-\n      SWAP3 \t\t\t        // Mint ERC-\n      POP \t\t\t        // Mint ERC-\n      POP \t\t\t        // Mint ERC-\n      DUP2 \t\t\t        // Mint ERC-\n      SWAP1 \t\t\t        // Mint ERC-\n      SSTORE \t\t\t        // Mint ERC-\n      POP \t\t\t        // Mint ERC-\n    tag 555\t\t\tDataReference: bytes32(0),\\n  ...\n      JUMPDEST \t\t\tDataReference: bytes32(0),\\n  ...\n      PUSH 0\t\t\t \n      PUSH FFFFFFFFFFFFFFFFFFFFFFFFFFFFFFFFFFFFFFFF\t\t\t tokenId);\\n\\n    \n      AND \t\t\t tokenId);\\n\\n    \n      DUP6 \t\t\t t\n      PUSH FFFFFFFFFFFFFFFFFFFFFFFFFFFFFFFFFFFFFFFF\t\t\t tokenId);\\n\\n    \n      AND \t\t\t tokenId);\\n\\n    \n      EQ \t\t\t tokenId);\\n\\n    \n      PUSH [tag] 558\t\t\tder, tokenId);\\n\\n        emit...\n      JUMPI \t\t\tder, tokenId);\\n\\n        emit...\n      PUSH 1\t\t\tm\n      PUSH 3\t\t\tt64(block\n      PUSH 0\t\t\tt64(block.tim\n      DUP8 \t\t\tti\n      PUSH FFFFFFFFFFFFFFFFFFFFFFFFFFFFFFFFFFFFFFFF\t\t\tt64(block.tim\n      AND \t\t\tt64(block.tim\n      PUSH FFFFFFFFFFFFFFFFFFFFFFFFFFFFFFFFFFFFFFFF\t\t\tt64(block.tim\n      AND \t\t\tt64(block.tim\n      DUP2 \t\t\tt64(block.tim\n      MSTORE \t\t\tt64(block.tim\n      PUSH 20\t\t\tt64(block.tim\n      ADD \t\t\tt64(block.tim\n      SWAP1 \t\t\tt64(block.tim\n      DUP2 \t\t\tt64(block.tim\n      MSTORE \t\t\tt64(block.tim\n      PUSH 20\t\t\tt64(block.tim\n      ADD \t\t\tt64(block.tim\n      PUSH 0\t\t\tt64(block.tim\n      KECCAK256 \t\t\tt64(block.tim\n      PUSH 0\t\t\tt64(block.tim\n      DUP3 \t\t\tt64(block.timestam\n      DUP3 \t\t\tt64(block.timestam\n      SLOAD \t\t\tt64(block.timestam\n      ADD \t\t\tt64(block.timestam\n      SWAP3 \t\t\tt64(block.timestam\n      POP \t\t\tt64(block.timestam\n      POP \t\t\tt64(block.timestam\n      DUP2 \t\t\tt64(block.timestam\n      SWAP1 \t\t\tt64(block.timestam\n      SSTORE \t\t\tt64(block.timestam\n      POP \t\t\tt64(block.timestam\n    tag 558\t\t\tder, tokenId);\\n\\n        emit...\n      JUMPDEST \t\t\tder, tokenId);\\n\\n        emit...\n      DUP5 \t\t\t==\n      PUSH 2\t\t\t\\n\\n    /\n      PUSH 0\t\t\t\\n\\n    // =======\n      DUP7 \t\t\t ======\n      DUP2 \t\t\t\\n\\n    // =======\n      MSTORE \t\t\t\\n\\n    // =======\n      PUSH 20\t\t\t\\n\\n    // =======\n      ADD \t\t\t\\n\\n    // =======\n      SWAP1 \t\t\t\\n\\n    // =======\n      DUP2 \t\t\t\\n\\n    // =======\n      MSTORE \t\t\t\\n\\n    // =======\n      PUSH 20\t\t\t\\n\\n    // =======\n      ADD \t\t\t\\n\\n    // =======\n      PUSH 0\t\t\t\\n\\n    // =======\n      KECCAK256 \t\t\t\\n\\n    // =======\n      PUSH 0\t\t\t\\n\\n    // =======\n      PUSH 100\t\t\t\\n\\n    // ============\n      EXP \t\t\t\\n\\n    // ============\n      DUP2 \t\t\t\\n\\n    // ============\n      SLOAD \t\t\t\\n\\n    // ============\n      DUP2 \t\t\t\\n\\n    // ============\n      PUSH FFFFFFFFFFFFFFFFFFFFFFFFFFFFFFFFFFFFFFFF\t\t\t\\n\\n    // ============\n      MUL \t\t\t\\n\\n    // ============\n      NOT \t\t\t\\n\\n    // ============\n      AND \t\t\t\\n\\n    // ============\n      SWAP1 \t\t\t\\n\\n    // ============\n      DUP4 \t\t\t\\n\\n    // ============\n      PUSH FFFFFFFFFFFFFFFFFFFFFFFFFFFFFFFFFFFFFFFF\t\t\t\\n\\n    // ============\n      AND \t\t\t\\n\\n    // ============\n      MUL \t\t\t\\n\\n    // ============\n      OR \t\t\t\\n\\n    // ============\n      SWAP1 \t\t\t\\n\\n    // ============\n      SSTORE \t\t\t\\n\\n    // ============\n      POP \t\t\t\\n\\n    // ============\n      DUP4 \t\t\t \\n    /\n      DUP6 \t\t\t\\n \n      PUSH FFFFFFFFFFFFFFFFFFFFFFFFFFFFFFFFFFFFFFFF\t\t\tns ============\\n    \\n    /*\n      AND \t\t\tns ============\\n    \\n    /*\n      DUP3 \t\t\t====\n      PUSH FFFFFFFFFFFFFFFFFFFFFFFFFFFFFFFFFFFFFFFF\t\t\tns ============\\n    \\n    /*\n      AND \t\t\tns ============\\n    \\n    /*\n      PUSH DDF252AD1BE2C89B69C2B068FC378DAA952BA7F163C4A11628F55A4DF523B3EF\t\t\tns ============\\n    \\n    /*\n      PUSH 40\t\t\tns ============\\n    \\n    /*\n      MLOAD \t\t\tns ============\\n    \\n    /*\n      PUSH 40\t\t\tns ============\\n    \\n    /*\n      MLOAD \t\t\tns ============\\n    \\n    /*\n      DUP1 \t\t\tns ============\\n    \\n    /*\n      SWAP2 \t\t\tns ============\\n    \\n    /*\n      SUB \t\t\tns ============\\n    \\n    /*\n      SWAP1 \t\t\tns ============\\n    \\n    /*\n      LOG4 \t\t\tns ============\\n    \\n    /*\n      DUP1 \t\t\tprof\n      SWAP2 \t\t\tev Get prof\n      POP \t\t\tev Get prof\n      POP \t\t\tev Get prof\n      SWAP4 \t\t\tDid[msg.sender], \"Has DID\");\\n...\n      SWAP3 \t\t\tDid[msg.sender], \"Has DID\");\\n...\n      POP \t\t\tDid[msg.sender], \"Has DID\");\\n...\n      POP \t\t\tDid[msg.sender], \"Has DID\");\\n...\n      POP \t\t\tDid[msg.sender], \"Has DID\");\\n...\n      JUMP \t\t\tDid[msg.sender], \"Has DID\");\\n...\n    tag 507\t\t\tler, smaller bytecode)\\n      ...\n      JUMPDEST \t\t\tler, smaller bytecode)\\n      ...\n      PUSH [tag] 560\t\t\ttDataReference = r\n      DUP4 \t\t\tef\n      DUP4 \t\t\tence = \n      PUSH [tag] 561\t\t\ttData\n      JUMP \t\t\ttDataReference = r\n    tag 560\t\t\ttDataReference = r\n      JUMPDEST \t\t\ttDataReference = r\n      PUSH [tag] 562\t\t\t      profile.encryptedKeyMeta...\n      PUSH [tag] 563\t\t\t = newEncryp\n      PUSH [tag] 267\t\t\t = newEncr\n      JUMP \t\t\t = newEncryp\n    tag 563\t\t\t = newEncryp\n      JUMPDEST \t\t\t = newEncryp\n      PUSH 0\t\t\td\n      DUP6 \t\t\t;\\n\n      DUP6 \t\t\t      p\n      DUP6 \t\t\tfile\n      PUSH [tag] 388\t\t\t      profile.encryptedKeyMeta...\n      JUMP \t\t\t      profile.encryptedKeyMeta...\n    tag 562\t\t\t      profile.encryptedKeyMeta...\n      JUMPDEST \t\t\t      profile.encryptedKeyMeta...\n      POP \t\t\tler, smaller bytecode)\\n      ...\n      POP \t\t\tler, smaller bytecode)\\n      ...\n      POP \t\t\tler, smaller bytecode)\\n      ...\n      JUMP \t\t\tler, smaller bytecode)\\n      ...\n    tag 536\t\t\t\n      JUMPDEST \t\t\t\n      PUSH 0\t\t\t\n      DUP1 \t\t\t\n      PUSH 0\t\t\t\n      SWAP1 \t\t\t\n      POP \t\t\t\n      PUSH 184F03E93FF9F4DAA797ED6E38ED64BF6A1F010000000000000000\t\t\t\n      DUP4 \t\t\t\n      LT \t\t\t\n      PUSH [tag] 565\t\t\t\n      JUMPI \t\t\t\n      PUSH 184F03E93FF9F4DAA797ED6E38ED64BF6A1F010000000000000000\t\t\t\n      DUP4 \t\t\t\n      DUP2 \t\t\t\n      PUSH [tag] 566\t\t\t\n      JUMPI \t\t\t\n      PUSH [tag] 567\t\t\t\n      PUSH [tag] 545\t\t\t\n      JUMP \t\t\t\n    tag 567\t\t\t\n      JUMPDEST \t\t\t\n    tag 566\t\t\t\n      JUMPDEST \t\t\t\n      DIV \t\t\t\n      SWAP3 \t\t\t\n      POP \t\t\t\n      PUSH 40\t\t\t\n      DUP2 \t\t\t\n      ADD \t\t\t\n      SWAP1 \t\t\t\n      POP \t\t\t\n    tag 565\t\t\t\n      JUMPDEST \t\t\t\n      PUSH 4EE2D6D415B85ACEF8100000000\t\t\t\n      DUP4 \t\t\t\n      LT \t\t\t\n      PUSH [tag] 568\t\t\t\n      JUMPI \t\t\t\n      PUSH 4EE2D6D415B85ACEF8100000000\t\t\t\n      DUP4 \t\t\t\n      DUP2 \t\t\t\n      PUSH [tag] 569\t\t\t\n      JUMPI \t\t\t\n      PUSH [tag] 570\t\t\t\n      PUSH [tag] 545\t\t\t\n      JUMP \t\t\t\n    tag 570\t\t\t\n      JUMPDEST \t\t\t\n    tag 569\t\t\t\n      JUMPDEST \t\t\t\n      DIV \t\t\t\n      SWAP3 \t\t\t\n      POP \t\t\t\n      PUSH 20\t\t\t\n      DUP2 \t\t\t\n      ADD \t\t\t\n      SWAP1 \t\t\t\n      POP \t\t\t\n    tag 568\t\t\t\n      JUMPDEST \t\t\t\n      PUSH 2386F26FC10000\t\t\t\n      DUP4 \t\t\t\n      LT \t\t\t\n      PUSH [tag] 571\t\t\t\n      JUMPI \t\t\t\n      PUSH 2386F26FC10000\t\t\t\n      DUP4 \t\t\t\n      DUP2 \t\t\t\n      PUSH [tag] 572\t\t\t\n      JUMPI \t\t\t\n      PUSH [tag] 573\t\t\t\n      PUSH [tag] 545\t\t\t\n      JUMP \t\t\t\n    tag 573\t\t\t\n      JUMPDEST \t\t\t\n    tag 572\t\t\t\n      JUMPDEST \t\t\t\n      DIV \t\t\t\n      SWAP3 \t\t\t\n      POP \t\t\t\n      PUSH 10\t\t\t\n      DUP2 \t\t\t\n      ADD \t\t\t\n      SWAP1 \t\t\t\n      POP \t\t\t\n    tag 571\t\t\t\n      JUMPDEST \t\t\t\n      PUSH 5F5E100\t\t\t\n      DUP4 \t\t\t\n      LT \t\t\t\n      PUSH [tag] 574\t\t\t\n      JUMPI \t\t\t\n      PUSH 5F5E100\t\t\t\n      DUP4 \t\t\t\n      DUP2 \t\t\t\n      PUSH [tag] 575\t\t\t\n      JUMPI \t\t\t\n      PUSH [tag] 576\t\t\t\n      PUSH [tag] 545\t\t\t\n      JUMP \t\t\t\n    tag 576\t\t\t\n      JUMPDEST \t\t\t\n    tag 575\t\t\t\n      JUMPDEST \t\t\t\n      DIV \t\t\t\n      SWAP3 \t\t\t\n      POP \t\t\t\n      PUSH 8\t\t\t\n      DUP2 \t\t\t\n      ADD \t\t\t\n      SWAP1 \t\t\t\n      POP \t\t\t\n    tag 574\t\t\t\n      JUMPDEST \t\t\t\n      PUSH 2710\t\t\t\n      DUP4 \t\t\t\n      LT \t\t\t\n      PUSH [tag] 577\t\t\t\n      JUMPI \t\t\t\n      PUSH 2710\t\t\t\n      DUP4 \t\t\t\n      DUP2 \t\t\t\n      PUSH [tag] 578\t\t\t\n      JUMPI \t\t\t\n      PUSH [tag] 579\t\t\t\n      PUSH [tag] 545\t\t\t\n      JUMP \t\t\t\n    tag 579\t\t\t\n      JUMPDEST \t\t\t\n    tag 578\t\t\t\n      JUMPDEST \t\t\t\n      DIV \t\t\t\n      SWAP3 \t\t\t\n      POP \t\t\t\n      PUSH 4\t\t\t\n      DUP2 \t\t\t\n      ADD \t\t\t\n      SWAP1 \t\t\t\n      POP \t\t\t\n    tag 577\t\t\t\n      JUMPDEST \t\t\t\n      PUSH 64\t\t\t\n      DUP4 \t\t\t\n      LT \t\t\t\n      PUSH [tag] 580\t\t\t\n      JUMPI \t\t\t\n      PUSH 64\t\t\t\n      DUP4 \t\t\t\n      DUP2 \t\t\t\n      PUSH [tag] 581\t\t\t\n      JUMPI \t\t\t\n      PUSH [tag] 582\t\t\t\n      PUSH [tag] 545\t\t\t\n      JUMP \t\t\t\n    tag 582\t\t\t\n      JUMPDEST \t\t\t\n    tag 581\t\t\t\n      JUMPDEST \t\t\t\n      DIV \t\t\t\n      SWAP3 \t\t\t\n      POP \t\t\t\n      PUSH 2\t\t\t\n      DUP2 \t\t\t\n      ADD \t\t\t\n      SWAP1 \t\t\t\n      POP \t\t\t\n    tag 580\t\t\t\n      JUMPDEST \t\t\t\n      PUSH A\t\t\t\n      DUP4 \t\t\t\n      LT \t\t\t\n      PUSH [tag] 583\t\t\t\n      JUMPI \t\t\t\n      PUSH 1\t\t\t\n      DUP2 \t\t\t\n      ADD \t\t\t\n      SWAP1 \t\t\t\n      POP \t\t\t\n    tag 583\t\t\t\n      JUMPDEST \t\t\t\n      DUP1 \t\t\t\n      SWAP2 \t\t\t\n      POP \t\t\t\n      POP \t\t\t\n      SWAP2 \t\t\t\n      SWAP1 \t\t\t\n      POP \t\t\t\n      JUMP \t\t\t\n    tag 554\t\t\tevent approvals\\n     */\\n    ...\n      JUMPDEST \t\t\tevent approvals\\n     */\\n    ...\n      PUSH [tag] 585\t\t\t);\\n    }\\n    \\n    /**\\n    ...\n      DUP4 \t\t\t    /\n      DUP4 \t\t\t\\n     *\n      DUP4 \t\t\tdev Ove\n      PUSH [tag] 586\t\t\t);\\n    }\\n    \n      JUMP \t\t\t);\\n    }\\n    \\n    /**\\n    ...\n    tag 585\t\t\t);\\n    }\\n    \\n    /**\\n    ...\n      JUMPDEST \t\t\t);\\n    }\\n    \\n    /**\\n    ...\n      PUSH [tag] 587\t\t\tound\");\\n    }\\n    \\n    /**\\...\n      JUMPI \t\t\tound\");\\n    }\\n    \\n    /**\\...\n      PUSH 0\t\t\tr\n      PUSH FFFFFFFFFFFFFFFFFFFFFFFFFFFFFFFFFFFFFFFF\t\t\tll to prevent appro\n      AND \t\t\tll to prevent appro\n      DUP4 \t\t\tll to\n      PUSH FFFFFFFFFFFFFFFFFFFFFFFFFFFFFFFFFFFFFFFF\t\t\tll to prevent appro\n      AND \t\t\tll to prevent appro\n      SUB \t\t\tll to prevent appro\n      PUSH [tag] 588\t\t\tForAll to prevent approvals (t...\n      JUMPI \t\t\tForAll to prevent approvals (t...\n      DUP1 \t\t\tis func\n      PUSH 40\t\t\table)\\n     * @notice This fun...\n      MLOAD \t\t\table)\\n     * @notice This fun...\n      PUSH 7E27328900000000000000000000000000000000000000000000000000000000\t\t\table)\\n     * @notice This fun...\n      DUP2 \t\t\table)\\n     * @notice This fun...\n      MSTORE \t\t\table)\\n     * @notice This fun...\n      PUSH 4\t\t\table)\\n     * @notice This fun...\n      ADD \t\t\table)\\n     * @notice This fun...\n      PUSH [tag] 589\t\t\table)\\n     * @notice This fun...\n      SWAP2 \t\t\table)\\n     * @notice This fun...\n      SWAP1 \t\t\table)\\n     * @notice This fun...\n      PUSH [tag] 81\t\t\table)\\n     * @notice This fun...\n      JUMP \t\t\table)\\n     * @notice This fun...\n    tag 589\t\t\table)\\n     * @notice This fun...\n      JUMPDEST \t\t\table)\\n     * @notice This fun...\n      PUSH 40\t\t\table)\\n     * @notice This fun...\n      MLOAD \t\t\table)\\n     * @notice This fun...\n      DUP1 \t\t\table)\\n     * @notice This fun...\n      SWAP2 \t\t\table)\\n     * @notice This fun...\n      SUB \t\t\table)\\n     * @notice This fun...\n      SWAP1 \t\t\table)\\n     * @notice This fun...\n      REVERT \t\t\table)\\n     * @notice This fun...\n    tag 588\t\t\tForAll to prevent approvals (t...\n      JUMPDEST \t\t\tForAll to prevent approvals (t...\n      DUP2 \t\t\torAll(a\n      DUP2 \t\t\tress, b\n      PUSH 40\t\t\t/\\n    function setApprovalFor...\n      MLOAD \t\t\t/\\n    function setApprovalFor...\n      PUSH 177E802F00000000000000000000000000000000000000000000000000000000\t\t\t/\\n    function setApprovalFor...\n      DUP2 \t\t\t/\\n    function setApprovalFor...\n      MSTORE \t\t\t/\\n    function setApprovalFor...\n      PUSH 4\t\t\t/\\n    function setApprovalFor...\n      ADD \t\t\t/\\n    function setApprovalFor...\n      PUSH [tag] 591\t\t\t/\\n    function setApprovalFor...\n      SWAP3 \t\t\t/\\n    function setApprovalFor...\n      SWAP2 \t\t\t/\\n    function setApprovalFor...\n      SWAP1 \t\t\t/\\n    function setApprovalFor...\n      PUSH [tag] 592\t\t\t/\\n    function setApprovalFor...\n      JUMP \t\t\t/\\n    function setApprovalFor...\n    tag 591\t\t\t/\\n    function setApprovalFor...\n      JUMPDEST \t\t\t/\\n    function setApprovalFor...\n      PUSH 40\t\t\t/\\n    function setApprovalFor...\n      MLOAD \t\t\t/\\n    function setApprovalFor...\n      DUP1 \t\t\t/\\n    function setApprovalFor...\n      SWAP2 \t\t\t/\\n    function setApprovalFor...\n      SUB \t\t\t/\\n    function setApprovalFor...\n      SWAP1 \t\t\t/\\n    function setApprovalFor...\n      REVERT \t\t\t/\\n    function setApprovalFor...\n    tag 587\t\t\tound\");\\n    }\\n    \\n    /**\\...\n      JUMPDEST \t\t\tound\");\\n    }\\n    \\n    /**\\...\n      POP \t\t\tevent approvals\\n     */\\n    ...\n      POP \t\t\tevent approvals\\n     */\\n    ...\n      POP \t\t\tevent approvals\\n     */\\n    ...\n      JUMP \t\t\tevent approvals\\n     */\\n    ...\n    tag 557\t\t\taram baseURI New base URI\\n   ...\n      JUMPDEST \t\t\taram baseURI New base URI\\n   ...\n      DUP1 \t\t\t= Admin F\n      DUP1 \t\t\t= Admin Functions ============...\n      PUSH [tag] 594\t\t\t= Admin Functions ============...\n      JUMPI \t\t\t= Admin Functions ============...\n      POP \t\t\t= Admin Functions ============...\n      PUSH 0\t\t\t=\n      PUSH FFFFFFFFFFFFFFFFFFFFFFFFFFFFFFFFFFFFFFFF\t\t\tions ============\\n\n      AND \t\t\tions ============\\n\n      DUP3 \t\t\tions\n      PUSH FFFFFFFFFFFFFFFFFFFFFFFFFFFFFFFFFFFFFFFF\t\t\tions ============\\n\n      AND \t\t\tions ============\\n\n      EQ \t\t\tions ============\\n\n      ISZERO \t\t\tions ============\\n\n    tag 594\t\t\t= Admin Functions ============...\n      JUMPDEST \t\t\t= Admin Functions ============...\n      ISZERO \t\t\t===== Admin Functions ========...\n      PUSH [tag] 595\t\t\t===== Admin Functions ========...\n      JUMPI \t\t\t===== Admin Functions ========...\n      PUSH 0\t\t\t  * @dev Upda\n      PUSH [tag] 596\t\t\tbackend signer (only o\n      DUP5 \t\t\t (only \n      PUSH [tag] 210\t\t\tbackend signe\n      JUMP \t\t\tbackend signer (only o\n    tag 596\t\t\tbackend signer (only o\n      JUMPDEST \t\t\tbackend signer (only o\n      SWAP1 \t\t\t  * @dev Update backend signer...\n      POP \t\t\t  * @dev Update backend signer...\n      PUSH 0\t\t\t \n      PUSH FFFFFFFFFFFFFFFFFFFFFFFFFFFFFFFFFFFFFFFF\t\t\tlyOwner {\\n        \n      AND \t\t\tlyOwner {\\n        \n      DUP4 \t\t\tlyOw\n      PUSH FFFFFFFFFFFFFFFFFFFFFFFFFFFFFFFFFFFFFFFF\t\t\tlyOwner {\\n        \n      AND \t\t\tlyOwner {\\n        \n      EQ \t\t\tlyOwner {\\n        \n      ISZERO \t\t\tlyOwner {\\n        \n      DUP1 \t\t\tlyOwner {\\n        require(new...\n      ISZERO \t\t\tlyOwner {\\n        require(new...\n      PUSH [tag] 597\t\t\tlyOwner {\\n        require(new...\n      JUMPI \t\t\tlyOwner {\\n        require(new...\n      POP \t\t\tlyOwner {\\n        require(new...\n      DUP3 \t\t\tgner\n      PUSH FFFFFFFFFFFFFFFFFFFFFFFFFFFFFFFFFFFFFFFF\t\t\tire(newSigner\n      AND \t\t\tire(newSigner\n      DUP2 \t\t\tire(n\n      PUSH FFFFFFFFFFFFFFFFFFFFFFFFFFFFFFFFFFFFFFFF\t\t\tire(newSigner\n      AND \t\t\tire(newSigner\n      EQ \t\t\tire(newSigner\n      ISZERO \t\t\tire(newSigner\n    tag 597\t\t\tlyOwner {\\n        require(new...\n      JUMPDEST \t\t\tlyOwner {\\n        require(new...\n      DUP1 \t\t\tlyOwner {\\n        require(new...\n      ISZERO \t\t\tlyOwner {\\n        require(new...\n      PUSH [tag] 598\t\t\tlyOwner {\\n        require(new...\n      JUMPI \t\t\tlyOwner {\\n        require(new...\n      POP \t\t\tlyOwner {\\n        require(new...\n      PUSH [tag] 599\t\t\tddress(0), \"Zero addr\");\\n    \n      DUP2 \t\t\taddr\"\n      DUP5 \t\t\t\\n   \n      PUSH [tag] 179\t\t\tddress(0), \"Zero\n      JUMP \t\t\tddress(0), \"Zero addr\");\\n    \n    tag 599\t\t\tddress(0), \"Zero addr\");\\n    \n      JUMPDEST \t\t\tddress(0), \"Zero addr\");\\n    \n      ISZERO \t\t\taddress(0), \"Zero addr\");\\n   ...\n    tag 598\t\t\tlyOwner {\\n        require(new...\n      JUMPDEST \t\t\tlyOwner {\\n        require(new...\n      ISZERO \t\t\tl onlyOwner {\\n        require...\n      PUSH [tag] 600\t\t\tl onlyOwner {\\n        require...\n      JUMPI \t\t\tl onlyOwner {\\n        require...\n      DUP3 \t\t\tndSi\n      PUSH 40\t\t\ter;\\n        emit BackendSig\n      MLOAD \t\t\ter;\\n        emit BackendSig\n      PUSH A9FBF51F00000000000000000000000000000000000000000000000000000000\t\t\ter;\\n        emit BackendSig\n      DUP2 \t\t\ter;\\n        emit BackendSig\n      MSTORE \t\t\ter;\\n        emit BackendSig\n      PUSH 4\t\t\ter;\\n        emit BackendSig\n      ADD \t\t\ter;\\n        emit BackendSig\n      PUSH [tag] 601\t\t\ter;\\n        emit BackendSig\n      SWAP2 \t\t\ter;\\n        emit BackendSig\n      SWAP1 \t\t\ter;\\n        emit BackendSig\n      PUSH [tag] 63\t\t\ter;\\n        emit BackendSig\n      JUMP \t\t\ter;\\n        emit BackendSig\n    tag 601\t\t\ter;\\n        emit BackendSig\n      JUMPDEST \t\t\ter;\\n        emit BackendSig\n      PUSH 40\t\t\ter;\\n        emit BackendSig\n      MLOAD \t\t\ter;\\n        emit BackendSig\n      DUP1 \t\t\ter;\\n        emit BackendSig\n      SWAP2 \t\t\ter;\\n        emit BackendSig\n      SUB \t\t\ter;\\n        emit BackendSig\n      SWAP1 \t\t\ter;\\n        emit BackendSig\n      REVERT \t\t\ter;\\n        emit BackendSig\n    tag 600\t\t\tl onlyOwner {\\n        require...\n      JUMPDEST \t\t\tl onlyOwner {\\n        require...\n      DUP2 \t\t\t\\n    /**\\n\n      ISZERO \t\t\t    \\n    /**\\n     * @dev Tog...\n      PUSH [tag] 602\t\t\t    \\n    /**\\n     * @dev Tog...\n      JUMPI \t\t\t    \\n    /**\\n     * @dev Tog...\n      DUP4 \t\t\t)\\n     \n      DUP6 \t\t\twn\n      PUSH FFFFFFFFFFFFFFFFFFFFFFFFFFFFFFFFFFFFFFFF\t\t\t minting (only owner)\\n     *\n      AND \t\t\t minting (only owner)\\n     *\n      DUP3 \t\t\t(only\n      PUSH FFFFFFFFFFFFFFFFFFFFFFFFFFFFFFFFFFFFFFFF\t\t\t minting (only owner)\\n     *\n      AND \t\t\t minting (only owner)\\n     *\n      PUSH 8C5BE1E5EBEC7D5BD14F71427D1E84F3DD0314C0F7B2291E5B200AC8C7C3B925\t\t\t minting (only owner)\\n     *\n      PUSH 40\t\t\t minting (only owner)\\n     *\n      MLOAD \t\t\t minting (only owner)\\n     *\n      PUSH 40\t\t\t minting (only owner)\\n     *\n      MLOAD \t\t\t minting (only owner)\\n     *\n      DUP1 \t\t\t minting (only owner)\\n     *\n      SWAP2 \t\t\t minting (only owner)\\n     *\n      SUB \t\t\t minting (only owner)\\n     *\n      SWAP1 \t\t\t minting (only owner)\\n     *\n      LOG4 \t\t\t minting (only owner)\\n     *\n    tag 602\t\t\t    \\n    /**\\n     * @dev Tog...\n      JUMPDEST \t\t\t    \\n    /**\\n     * @dev Tog...\n      POP \t\t\t  \\n    /**\\n     * @dev Updat...\n    tag 595\t\t\t===== Admin Functions ========...\n      JUMPDEST \t\t\t===== Admin Functions ========...\n      DUP4 \t\t\tct\n      PUSH 4\t\t\tlic minting\\n   \n      PUSH 0\t\t\tlic minting\\n     */\\n    \n      DUP6 \t\t\t */\\n   \n      DUP2 \t\t\tlic minting\\n     */\\n    \n      MSTORE \t\t\tlic minting\\n     */\\n    \n      PUSH 20\t\t\tlic minting\\n     */\\n    \n      ADD \t\t\tlic minting\\n     */\\n    \n      SWAP1 \t\t\tlic minting\\n     */\\n    \n      DUP2 \t\t\tlic minting\\n     */\\n    \n      MSTORE \t\t\tlic minting\\n     */\\n    \n      PUSH 20\t\t\tlic minting\\n     */\\n    \n      ADD \t\t\tlic minting\\n     */\\n    \n      PUSH 0\t\t\tlic minting\\n     */\\n    \n      KECCAK256 \t\t\tlic minting\\n     */\\n    \n      PUSH 0\t\t\tlic minting\\n     */\\n    \n      PUSH 100\t\t\tlic minting\\n     */\\n    func...\n      EXP \t\t\tlic minting\\n     */\\n    func...\n      DUP2 \t\t\tlic minting\\n     */\\n    func...\n      SLOAD \t\t\tlic minting\\n     */\\n    func...\n      DUP2 \t\t\tlic minting\\n     */\\n    func...\n      PUSH FFFFFFFFFFFFFFFFFFFFFFFFFFFFFFFFFFFFFFFF\t\t\tlic minting\\n     */\\n    func...\n      MUL \t\t\tlic minting\\n     */\\n    func...\n      NOT \t\t\tlic minting\\n     */\\n    func...\n      AND \t\t\tlic minting\\n     */\\n    func...\n      SWAP1 \t\t\tlic minting\\n     */\\n    func...\n      DUP4 \t\t\tlic minting\\n     */\\n    func...\n      PUSH FFFFFFFFFFFFFFFFFFFFFFFFFFFFFFFFFFFFFFFF\t\t\tlic minting\\n     */\\n    func...\n      AND \t\t\tlic minting\\n     */\\n    func...\n      MUL \t\t\tlic minting\\n     */\\n    func...\n      OR \t\t\tlic minting\\n     */\\n    func...\n      SWAP1 \t\t\tlic minting\\n     */\\n    func...\n      SSTORE \t\t\tlic minting\\n     */\\n    func...\n      POP \t\t\tlic minting\\n     */\\n    func...\n      POP \t\t\taram baseURI New base URI\\n   ...\n      POP \t\t\taram baseURI New base URI\\n   ...\n      POP \t\t\taram baseURI New base URI\\n   ...\n      POP \t\t\taram baseURI New base URI\\n   ...\n      JUMP \t\t\taram baseURI New base URI\\n   ...\n    tag 561\t\t\tkenProfiles[tokenId];\\n    }\\n...\n      JUMPDEST \t\t\tkenProfiles[tokenId];\\n    }\\n...\n      PUSH 0\t\t\t \n      PUSH FFFFFFFFFFFFFFFFFFFFFFFFFFFFFFFFFFFFFFFF\t\t\t token ID\\n     *\n      AND \t\t\t token ID\\n     *\n      DUP3 \t\t\t t\n      PUSH FFFFFFFFFFFFFFFFFFFFFFFFFFFFFFFFFFFFFFFF\t\t\t token ID\\n     *\n      AND \t\t\t token ID\\n     *\n      SUB \t\t\t token ID\\n     *\n      PUSH [tag] 604\t\t\te by token ID\\n     * @param t...\n      JUMPI \t\t\te by token ID\\n     * @param t...\n      PUSH 0\t\t\th\n      PUSH 40\t\t\ten ID\\n     * @return profile ...\n      MLOAD \t\t\ten ID\\n     * @return profile ...\n      PUSH 64A0AE9200000000000000000000000000000000000000000000000000000000\t\t\ten ID\\n     * @return profile ...\n      DUP2 \t\t\ten ID\\n     * @return profile ...\n      MSTORE \t\t\ten ID\\n     * @return profile ...\n      PUSH 4\t\t\ten ID\\n     * @return profile ...\n      ADD \t\t\ten ID\\n     * @return profile ...\n      PUSH [tag] 605\t\t\ten ID\\n     * @return profile ...\n      SWAP2 \t\t\ten ID\\n     * @return profile ...\n      SWAP1 \t\t\ten ID\\n     * @return profile ...\n      PUSH [tag] 63\t\t\ten ID\\n     * @return profile ...\n      JUMP \t\t\ten ID\\n     * @return profile ...\n    tag 605\t\t\ten ID\\n     * @return profile ...\n      JUMPDEST \t\t\ten ID\\n     * @return profile ...\n      PUSH 40\t\t\ten ID\\n     * @return profile ...\n      MLOAD \t\t\ten ID\\n     * @return profile ...\n      DUP1 \t\t\ten ID\\n     * @return profile ...\n      SWAP2 \t\t\ten ID\\n     * @return profile ...\n      SUB \t\t\ten ID\\n     * @return profile ...\n      SWAP1 \t\t\ten ID\\n     * @return profile ...\n      REVERT \t\t\ten ID\\n     * @return profile ...\n    tag 604\t\t\te by token ID\\n     * @param t...\n      JUMPDEST \t\t\te by token ID\\n     * @param t...\n      PUSH 0\t\t\t   */\\n    function ge\n      PUSH [tag] 606\t\t\tofile(uint256 tokenId) externa...\n      DUP4 \t\t\tnt\n      DUP4 \t\t\t6 token\n      PUSH 0\t\t\ta\n      PUSH [tag] 268\t\t\tofile(u\n      JUMP \t\t\tofile(uint256 tokenId) externa...\n    tag 606\t\t\tofile(uint256 tokenId) externa...\n      JUMPDEST \t\t\tofile(uint256 tokenId) externa...\n      SWAP1 \t\t\t   */\\n    function getProfile...\n      POP \t\t\t   */\\n    function getProfile...\n      PUSH 0\t\t\t \n      PUSH FFFFFFFFFFFFFFFFFFFFFFFFFFFFFFFFFFFFFFFF\t\t\tDidProfile memory) {\\n      \n      AND \t\t\tDidProfile memory) {\\n      \n      DUP2 \t\t\tDidProfile me\n      PUSH FFFFFFFFFFFFFFFFFFFFFFFFFFFFFFFFFFFFFFFF\t\t\tDidProfile memory) {\\n      \n      AND \t\t\tDidProfile memory) {\\n      \n      EQ \t\t\tDidProfile memory) {\\n      \n      PUSH [tag] 607\t\t\tns (DidProfile memory) {\\n    ...\n      JUMPI \t\t\tns (DidProfile memory) {\\n    ...\n      PUSH 0\t\t\tt\n      PUSH 40\t\t\tId), \"No token\");\\n        ret...\n      MLOAD \t\t\tId), \"No token\");\\n        ret...\n      PUSH 73C6AC6E00000000000000000000000000000000000000000000000000000000\t\t\tId), \"No token\");\\n        ret...\n      DUP2 \t\t\tId), \"No token\");\\n        ret...\n      MSTORE \t\t\tId), \"No token\");\\n        ret...\n      PUSH 4\t\t\tId), \"No token\");\\n        ret...\n      ADD \t\t\tId), \"No token\");\\n        ret...\n      PUSH [tag] 608\t\t\tId), \"No token\");\\n        ret...\n      SWAP2 \t\t\tId), \"No token\");\\n        ret...\n      SWAP1 \t\t\tId), \"No token\");\\n        ret...\n      PUSH [tag] 63\t\t\tId), \"No token\");\\n        ret...\n      JUMP \t\t\tId), \"No token\");\\n        ret...\n    tag 608\t\t\tId), \"No token\");\\n        ret...\n      JUMPDEST \t\t\tId), \"No token\");\\n        ret...\n      PUSH 40\t\t\tId), \"No token\");\\n        ret...\n      MLOAD \t\t\tId), \"No token\");\\n        ret...\n      DUP1 \t\t\tId), \"No token\");\\n        ret...\n      SWAP2 \t\t\tId), \"No token\");\\n        ret...\n      SUB \t\t\tId), \"No token\");\\n        ret...\n      SWAP1 \t\t\tId), \"No token\");\\n        ret...\n      REVERT \t\t\tId), \"No token\");\\n        ret...\n    tag 607\t\t\tns (DidProfile memory) {\\n    ...\n      JUMPDEST \t\t\tns (DidProfile memory) {\\n    ...\n      POP \t\t\tGet profile by token ID\\n     ...\n      POP \t\t\tkenProfiles[tokenId];\\n    }\\n...\n      POP \t\t\tkenProfiles[tokenId];\\n    }\\n...\n      JUMP \t\t\tkenProfiles[tokenId];\\n    }\\n...\n    tag 586\t\t\t     * @notice Only allows tra...\n      JUMPDEST \t\t\t     * @notice Only allows tra...\n      PUSH 0\t\t\tunct\n      DUP1 \t\t\tu\n      PUSH FFFFFFFFFFFFFFFFFFFFFFFFFFFFFFFFFFFFFFFF\t\t\t tokenId, address aut\n      AND \t\t\t tokenId, address aut\n      DUP4 \t\t\t tokenI\n      PUSH FFFFFFFFFFFFFFFFFFFFFFFFFFFFFFFFFFFFFFFF\t\t\t tokenId, address aut\n      AND \t\t\t tokenId, address aut\n      EQ \t\t\t tokenId, address aut\n      ISZERO \t\t\t tokenId, address aut\n      DUP1 \t\t\t tokenId, address auth) \\n    ...\n      ISZERO \t\t\t tokenId, address auth) \\n    ...\n      PUSH [tag] 610\t\t\t tokenId, address auth) \\n    ...\n      JUMPI \t\t\t tokenId, address auth) \\n    ...\n      POP \t\t\t tokenId, address auth) \\n    ...\n      DUP3 \t\t\t    ove\n      PUSH FFFFFFFFFFFFFFFFFFFFFFFFFFFFFFFFFFFFFFFF\t\t\tnal \\n        ove\n      AND \t\t\tnal \\n        ove\n      DUP5 \t\t\tnal \\n\n      PUSH FFFFFFFFFFFFFFFFFFFFFFFFFFFFFFFFFFFFFFFF\t\t\tnal \\n        ove\n      AND \t\t\tnal \\n        ove\n      EQ \t\t\tnal \\n        ove\n      DUP1 \t\t\tnal \\n        override \\n     ...\n      PUSH [tag] 611\t\t\tnal \\n        override \\n     ...\n      JUMPI \t\t\tnal \\n        override \\n     ...\n      POP \t\t\tnal \\n        override \\n     ...\n      PUSH [tag] 612\t\t\te \\n        returns (address) ...\n      DUP5 \t\t\ts (ad\n      DUP5 \t\t\tess) \\n \n      PUSH [tag] 179\t\t\te \\n        retur\n      JUMP \t\t\te \\n        returns (address) ...\n    tag 612\t\t\te \\n        returns (address) ...\n      JUMPDEST \t\t\te \\n        returns (address) ...\n    tag 611\t\t\tnal \\n        override \\n     ...\n      JUMPDEST \t\t\tnal \\n        override \\n     ...\n      DUP1 \t\t\tnal \\n        override \\n     ...\n      PUSH [tag] 613\t\t\tnal \\n        override \\n     ...\n      JUMPI \t\t\tnal \\n        override \\n     ...\n      POP \t\t\tnal \\n        override \\n     ...\n      DUP3 \t\t\twnerOf(\n      PUSH FFFFFFFFFFFFFFFFFFFFFFFFFFFFFFFFFFFFFFFF\t\t\t        address from = _ownerO...\n      AND \t\t\t        address from = _ownerO...\n      PUSH [tag] 614\t\t\t        address from \n      DUP4 \t\t\tss from\n      PUSH [tag] 212\t\t\t        addr\n      JUMP \t\t\t        address from \n    tag 614\t\t\t        address from \n      JUMPDEST \t\t\t        address from \n      PUSH FFFFFFFFFFFFFFFFFFFFFFFFFFFFFFFFFFFFFFFF\t\t\t        address from = _ownerO...\n      AND \t\t\t        address from = _ownerO...\n      EQ \t\t\t        address from = _ownerO...\n    tag 613\t\t\tnal \\n        override \\n     ...\n      JUMPDEST \t\t\tnal \\n        override \\n     ...\n    tag 610\t\t\t tokenId, address auth) \\n    ...\n      JUMPDEST \t\t\t tokenId, address auth) \\n    ...\n      SWAP1 \t\t\taddress to, uint256 tokenId, a...\n      POP \t\t\taddress to, uint256 tokenId, a...\n      SWAP4 \t\t\t     * @notice Only allows tra...\n      SWAP3 \t\t\t     * @notice Only allows tra...\n      POP \t\t\t     * @notice Only allows tra...\n      POP \t\t\t     * @notice Only allows tra...\n      POP \t\t\t     * @notice Only allows tra...\n      JUMP \t\t\t     * @notice Only allows tra...\n    tag 217\t\t\t\n      JUMPDEST \t\t\t\n      PUSH 40\t\t\t\n      MLOAD \t\t\t\n      DUP1 \t\t\t\n      PUSH A0\t\t\t\n      ADD \t\t\t\n      PUSH 40\t\t\t\n      MSTORE \t\t\t\n      DUP1 \t\t\t\n      PUSH 0\t\t\t\n      PUSH FFFFFFFFFFFFFFFFFFFFFFFFFFFFFFFFFFFFFFFF\t\t\t\n      AND \t\t\t\n      DUP2 \t\t\t\n      MSTORE \t\t\t\n      PUSH 20\t\t\t\n      ADD \t\t\t\n      PUSH 0\t\t\t\n      PUSH FFFFFFFFFFFFFFFF\t\t\t\n      AND \t\t\t\n      DUP2 \t\t\t\n      MSTORE \t\t\t\n      PUSH 20\t\t\t\n      ADD \t\t\t\n      PUSH 0\t\t\t\n      PUSH FFFFFFFFFFFFFFFF\t\t\t\n      AND \t\t\t\n      DUP2 \t\t\t\n      MSTORE \t\t\t\n      PUSH 20\t\t\t\n      ADD \t\t\t\n      PUSH 0\t\t\t\n      DUP1 \t\t\t\n      NOT \t\t\t\n      AND \t\t\t\n      DUP2 \t\t\t\n      MSTORE \t\t\t\n      PUSH 20\t\t\t\n      ADD \t\t\t\n      PUSH 60\t\t\t\n      DUP2 \t\t\t\n      MSTORE \t\t\t\n      POP \t\t\t\n      SWAP1 \t\t\t\n      JUMP \t\t\t\n    tag 615\t\t\t-License-Identifier: MIT\\nprag...\n      JUMPDEST \t\t\t-License-Identifier: MIT\\nprag...\n      PUSH 0\t\t\tolidit\n      PUSH 40\t\t\tti\n      MLOAD \t\t\ter settin\n      SWAP1 \t\t\t\\n// Compiler settin\n      POP \t\t\t\\n// Compiler settin\n      SWAP1 \t\t\t-License-Identifier: MIT\\nprag...\n      JUMP \t\t\t-License-Identifier: MIT\\nprag...\n    tag 616\t\t\t IDE:\\n// - Enable optimizatio...\n      JUMPDEST \t\t\t IDE:\\n// - Enable optimizatio...\n      PUSH 0\t\t\t \n      DUP1 \t\t\tr\n      REVERT \t\t\tion: Paris (\n    tag 617\t\t\t// This ensures the contract s...\n      JUMPDEST \t\t\t// This ensures the contract s...\n      PUSH 0\t\t\t1\n      DUP1 \t\t\tC\n      REVERT \t\t\token/ERC721/\n    tag 618\t\t\t\\nimport \"@openzeppelin/contra...\n      JUMPDEST \t\t\t\\nimport \"@openzeppelin/contra...\n      PUSH 0\t\t\tess/Own\n      PUSH FFFFFFFF00000000000000000000000000000000000000000000000000000000\t\t\tcontracts/utils/ReentrancyGuar...\n      DUP3 \t\t\tppeli\n      AND \t\t\tenzeppelin/contracts/utils/Ree...\n      SWAP1 \t\t\timport \"@openzeppelin/contract...\n      POP \t\t\timport \"@openzeppelin/contract...\n      SWAP2 \t\t\t\\nimport \"@openzeppelin/contra...\n      SWAP1 \t\t\t\\nimport \"@openzeppelin/contra...\n      POP \t\t\t\\nimport \"@openzeppelin/contra...\n      JUMP \t\t\t\\nimport \"@openzeppelin/contra...\n    tag 619\t\t\toulbound ERC-721 token for Saf...\n      JUMPDEST \t\t\toulbound ERC-721 token for Saf...\n      PUSH [tag] 718\t\t\t can have exactly one n\n      DUP2 \t\t\t one \n      PUSH [tag] 618\t\t\t can have exactly one n\n      JUMP \t\t\t can have exactly one n\n    tag 718\t\t\t can have exactly one n\n      JUMPDEST \t\t\t can have exactly one n\n      DUP2 \t\t\t wall\n      EQ \t\t\tach wallet can have exactly on...\n      PUSH [tag] 719\t\t\t @notice Each wallet can have ...\n      JUMPI \t\t\t @notice Each wallet can have ...\n      PUSH 0\t\t\t \n      DUP1 \t\t\tb\n      REVERT \t\t\tansferable i\n    tag 719\t\t\t @notice Each wallet can have ...\n      JUMPDEST \t\t\t @notice Each wallet can have ...\n      POP \t\t\toulbound ERC-721 token for Saf...\n      JUMP \t\t\toulbound ERC-721 token for Saf...\n    tag 620\t\t\t * \\n * Storage Model:\\n * - t...\n      JUMPDEST \t\t\t * \\n * Storage Model:\\n * - t...\n      PUSH 0\t\t\tle ma\n      DUP2 \t\t\tg (for\n      CALLDATALOAD \t\t\tokenId mapping (for \n      SWAP1 \t\t\towner → tokenId mapping (for \n      POP \t\t\towner → tokenId mapping (for \n      PUSH [tag] 721\t\t\t lookup)\\n * \\n * Gas Consider...\n      DUP2 \t\t\terati\n      PUSH [tag] 619\t\t\t lookup)\\n * \\n * Gas Consider...\n      JUMP \t\t\t lookup)\\n * \\n * Gas Consider...\n    tag 721\t\t\t lookup)\\n * \\n * Gas Consider...\n      JUMPDEST \t\t\t lookup)\\n * \\n * Gas Consider...\n      SWAP3 \t\t\t * \\n * Storage Model:\\n * - t...\n      SWAP2 \t\t\t * \\n * Storage Model:\\n * - t...\n      POP \t\t\t * \\n * Storage Model:\\n * - t...\n      POP \t\t\t * \\n * Storage Model:\\n * - t...\n      JUMP \t\t\t * \\n * Storage Model:\\n * - t...\n    tag 50\t\t\tng uint64 for timestamps saves...\n      JUMPDEST \t\t\tng uint64 for timestamps saves...\n      PUSH 0\t\t\t for c\n      PUSH 20\t\t\t s\n      DUP3 \t\t\tficient t\n      DUP5 \t\t\tre gas-\n      SUB \t\t\ts more gas-efficient th\n      SLT \t\t\tce is more gas-efficient than ...\n      ISZERO \t\t\trence is more gas-efficient th...\n      PUSH [tag] 723\t\t\trence is more gas-efficient th...\n      JUMPI \t\t\trence is more gas-efficient th...\n      PUSH [tag] 724\t\t\tg\\n * - Single storage slot fo...\n      PUSH [tag] 616\t\t\tg\\n * - Single storage slot fo...\n      JUMP \t\t\tg\\n * - Single storage slot fo...\n    tag 724\t\t\tg\\n * - Single storage slot fo...\n      JUMPDEST \t\t\tg\\n * - Single storage slot fo...\n    tag 723\t\t\trence is more gas-efficient th...\n      JUMPDEST \t\t\trence is more gas-efficient th...\n      PUSH 0\t\t\ta\n      PUSH [tag] 725\t\t\tes UUPS-compatible storage lay...\n      DUP5 \t\t\tge vari\n      DUP3 \t\t\t* - St\n      DUP6 \t\t\tge layout\n      ADD \t\t\ttorage layout\\n * - Sto\n      PUSH [tag] 620\t\t\tes UUPS-compatible storage lay...\n      JUMP \t\t\tes UUPS-compatible storage lay...\n    tag 725\t\t\tes UUPS-compatible storage lay...\n      JUMPDEST \t\t\tes UUPS-compatible storage lay...\n      SWAP2 \t\t\tontract uses UUPS-compatible s...\n      POP \t\t\tontract uses UUPS-compatible s...\n      POP \t\t\tient filtering\\n * \\n * Upgrad...\n      SWAP3 \t\t\tng uint64 for timestamps saves...\n      SWAP2 \t\t\tng uint64 for timestamps saves...\n      POP \t\t\tng uint64 for timestamps saves...\n      POP \t\t\tng uint64 for timestamps saves...\n      JUMP \t\t\tng uint64 for timestamps saves...\n    tag 621\t\t\toxy compatibility\\n * - Consid...\n      JUMPDEST \t\t\toxy compatibility\\n * - Consid...\n      PUSH 0\t\t\ting UUP\n      DUP2 \t\t\t */\\nc\n      ISZERO \t\t\tgrades\\n */\\nco\n      ISZERO \t\t\tture upgrades\\n */\\ncon\n      SWAP1 \t\t\ttern for future upgrades\\n */\\...\n      POP \t\t\ttern for future upgrades\\n */\\...\n      SWAP2 \t\t\toxy compatibility\\n * - Consid...\n      SWAP1 \t\t\toxy compatibility\\n * - Consid...\n      POP \t\t\toxy compatibility\\n * - Consid...\n      JUMP \t\t\toxy compatibility\\n * - Consid...\n    tag 622\t\t\tntityToken is ERC721, Ownable,...\n      JUMPDEST \t\t\tntityToken is ERC721, Ownable,...\n      PUSH [tag] 728\t\t\t========\\n    \\n    /**\n      DUP2 \t\t\t   /*\n      PUSH [tag] 621\t\t\t========\\n    \\n    /**\n      JUMP \t\t\t========\\n    \\n    /**\n    tag 728\t\t\t========\\n    \\n    /**\n      JUMPDEST \t\t\t========\\n    \\n    /**\n      DUP3 \t\t\t ==\n      MSTORE \t\t\tStorage ============\\n    \\n  ...\n      POP \t\t\tntityToken is ERC721, Ownable,...\n      POP \t\t\tntityToken is ERC721, Ownable,...\n      JUMP \t\t\tntityToken is ERC721, Ownable,...\n    tag 53\t\t\tDID Profile structure\\n     * ...\n      JUMPDEST \t\t\tDID Profile structure\\n     * ...\n      PUSH 0\t\t\t   s\n      PUSH 20\t\t\t o\n      DUP3 \t\t\t    addre\n      ADD \t\t\t        address ow\n      SWAP1 \t\t\tofile {\\n        address ow\n      POP \t\t\tofile {\\n        address ow\n      PUSH [tag] 730\t\t\t              // 20 bytes (slo...\n      PUSH 0\t\t\t \n      DUP4 \t\t\treatedAt;\n      ADD \t\t\t64 createdAt;    \n      DUP5 \t\t\t     u\n      PUSH [tag] 622\t\t\t              // 20 bytes (slo...\n      JUMP \t\t\t              // 20 bytes (slo...\n    tag 730\t\t\t              // 20 bytes (slo...\n      JUMPDEST \t\t\t              // 20 bytes (slo...\n      SWAP3 \t\t\tDID Profile structure\\n     * ...\n      SWAP2 \t\t\tDID Profile structure\\n     * ...\n      POP \t\t\tDID Profile structure\\n     * ...\n      POP \t\t\tDID Profile structure\\n     * ...\n      JUMP \t\t\tDID Profile structure\\n     * ...\n    tag 623\t\t\t/ 8 bytes (slot 1, packed)\\n  ...\n      JUMPDEST \t\t\t/ 8 bytes (slot 1, packed)\\n  ...\n      PUSH 0\t\t\tdAt;  \n      DUP2 \t\t\t1, pa\n      MLOAD \t\t\t(slot 1, pac\n      SWAP1 \t\t\t/ 8 bytes (slot 1, pac\n      POP \t\t\t/ 8 bytes (slot 1, pac\n      SWAP2 \t\t\t/ 8 bytes (slot 1, packed)\\n  ...\n      SWAP1 \t\t\t/ 8 bytes (slot 1, packed)\\n  ...\n      POP \t\t\t/ 8 bytes (slot 1, packed)\\n  ...\n      JUMP \t\t\t/ 8 bytes (slot 1, packed)\\n  ...\n    tag 624\t\t\tbytes32 chatDataReference;    ...\n      JUMPDEST \t\t\tbytes32 chatDataReference;    ...\n      PUSH 0\t\t\tadata;     \n      DUP3 \t\t\tlot 3+\n      DUP3 \t\t\tth \n      MSTORE \t\t\tle length (slot 3+)\n      PUSH 20\t\t\tId t\n      DUP3 \t\t\ttok\n      ADD \t\t\trom tokenId to\n      SWAP1 \t\t\t   // Mapping from tokenId to\n      POP \t\t\t   // Mapping from tokenId to\n      SWAP3 \t\t\tbytes32 chatDataReference;    ...\n      SWAP2 \t\t\tbytes32 chatDataReference;    ...\n      POP \t\t\tbytes32 chatDataReference;    ...\n      POP \t\t\tbytes32 chatDataReference;    ...\n      JUMP \t\t\tbytes32 chatDataReference;    ...\n    tag 625\t\t\t    mapping(uint256 => DidProf...\n      JUMPDEST \t\t\t    mapping(uint256 => DidProf...\n      PUSH 0\t\t\to\n    tag 734\t\t\tddress to tokenId (for efficie...\n      JUMPDEST \t\t\tddress to tokenId (for efficie...\n      DUP4 \t\t\tnId (f\n      DUP2 \t\t\to\n      LT \t\t\to tokenId (fo\n      ISZERO \t\t\tddress to tokenId (for efficie...\n      PUSH [tag] 736\t\t\tddress to tokenId (for efficie...\n      JUMPI \t\t\tddress to tokenId (for efficie...\n      DUP1 \t\t\t \n      DUP3 \t\t\tId;\n      ADD \t\t\tokenId;\\n   \n      MLOAD \t\t\tnerToTokenId;\\n    \n      DUP2 \t\t\t \n      DUP5 \t\t\tiva\n      ADD \t\t\t) private _\n      MSTORE \t\t\tuint256) private _ownerToToken...\n      PUSH 20\t\t\tku\n      DUP2 \t\t\tl\n      ADD \t\t\tent lookup\n      SWAP1 \t\t\tfficient lookup\n      POP \t\t\tfficient lookup\n      PUSH [tag] 734\t\t\tddress to tokenId (for efficie...\n      JUMP \t\t\tddress to tokenId (for efficie...\n    tag 736\t\t\tddress to tokenId (for efficie...\n      JUMPDEST \t\t\tddress to tokenId (for efficie...\n      PUSH 0\t\t\t\\n\n      DUP5 \t\t\thas a \n      DUP5 \t\t\tres\n      ADD \t\t\t address has a D\n      MSTORE \t\t\theck if address has a DID\\n \n      POP \t\t\t \\n    // Mapping from owner a...\n      POP \t\t\t    mapping(uint256 => DidProf...\n      POP \t\t\t    mapping(uint256 => DidProf...\n      POP \t\t\t    mapping(uint256 => DidProf...\n      JUMP \t\t\t    mapping(uint256 => DidProf...\n    tag 626\t\t\tddress => bool) private _hasDi...\n      JUMPDEST \t\t\tddress => bool) private _hasDi...\n      PUSH 0\t\t\t // Ma\n      PUSH 1F\t\t\t t\n      NOT \t\t\tping to\n      PUSH 1F\t\t\te \n      DUP4 \t\t\tsepar\n      ADD \t\t\tDs (separate m\n      AND \t\t\td DIDs (separate mapping to \n      SWAP1 \t\t\tack revoked DIDs (separate map...\n      POP \t\t\tack revoked DIDs (separate map...\n      SWAP2 \t\t\tddress => bool) private _hasDi...\n      SWAP1 \t\t\tddress => bool) private _hasDi...\n      POP \t\t\tddress => bool) private _hasDi...\n      JUMP \t\t\tddress => bool) private _hasDi...\n    tag 627\t\t\trage layout)\\n    mapping(uint...\n      JUMPDEST \t\t\trage layout)\\n    mapping(uint...\n      PUSH 0\t\t\t bo\n      PUSH [tag] 739\t\t\tsses;\\n    \\n    // Token coun...\n      DUP3 \t\t\tstart\n      PUSH [tag] 623\t\t\tsses;\\n    \\n    // Token coun...\n      JUMP \t\t\tsses;\\n    \\n    // Token coun...\n    tag 739\t\t\tsses;\\n    \\n    // Token coun...\n      JUMPDEST \t\t\tsses;\\n    \\n    // Token coun...\n      PUSH [tag] 740\t\t\t56 private _tokenCounter;\\n   ...\n      DUP2 \t\t\t (opti\n      DUP6 \t\t\tnti\n      PUSH [tag] 624\t\t\t56 private _tokenCounter;\\n   ...\n      JUMP \t\t\t56 private _tokenCounter;\\n   ...\n    tag 740\t\t\t56 private _tokenCounter;\\n   ...\n      JUMPDEST \t\t\t56 private _tokenCounter;\\n   ...\n      SWAP4 \t\t\t  uint256 private _tokenCounte...\n      POP \t\t\t  uint256 private _tokenCounte...\n      PUSH [tag] 741\t\t\taddress public backendSigner;\\...\n      DUP2 \t\t\tinting\n      DUP6 \t\t\tlic\n      PUSH 20\t\t\ther \n      DUP7 \t\t\t// Wh\n      ADD \t\t\t    // Whether p\n      PUSH [tag] 625\t\t\taddress public backendSigner;\\...\n      JUMP \t\t\taddress public backendSigner;\\...\n    tag 741\t\t\taddress public backendSigner;\\...\n      JUMPDEST \t\t\taddress public backendSigner;\\...\n      PUSH [tag] 742\t\t\tc allowPublicMinting;\\n    \\n ...\n      DUP2 \t\t\t    \\n \n      PUSH [tag] 626\t\t\tc allowPublicMinting;\\n    \\n ...\n      JUMP \t\t\tc allowPublicMinting;\\n    \\n ...\n    tag 742\t\t\tc allowPublicMinting;\\n    \\n ...\n      JUMPDEST \t\t\tc allowPublicMinting;\\n    \\n ...\n      DUP5 \t\t\tpub\n      ADD \t\t\tool public allowPublicMinting;...\n      SWAP2 \t\t\td\\n    bool public allowPublic...\n      POP \t\t\td\\n    bool public allowPublic...\n      POP \t\t\tl) private _revokedAddresses;\\...\n      SWAP3 \t\t\trage layout)\\n    mapping(uint...\n      SWAP2 \t\t\trage layout)\\n    mapping(uint...\n      POP \t\t\trage layout)\\n    mapping(uint...\n      POP \t\t\trage layout)\\n    mapping(uint...\n      JUMP \t\t\trage layout)\\n    mapping(uint...\n    tag 57\t\t\t for token metadata\\n    strin...\n      JUMPDEST \t\t\t for token metadata\\n    strin...\n      PUSH 0\t\t\t* @d\n      PUSH 20\t\t\t  \n      DUP3 \t\t\ts created\n      ADD \t\t\tID is created\\n    \n      SWAP1 \t\t\twhen a DID is created\\n    \n      POP \t\t\twhen a DID is created\\n    \n      DUP2 \t\t\txed user,\n      DUP2 \t\t\ts in\n      SUB \t\t\tdress indexed user,\\n\n      PUSH 0\t\t\t \n      DUP4 \t\t\tted(\\n    \n      ADD \t\t\tCreated(\\n        \n      MSTORE \t\t\tent DidCreated(\\n        addre...\n      PUSH [tag] 744\t\t\tdexed tokenId,\\n        uint64...\n      DUP2 \t\t\tmitt\n      DUP5 \t\t\t * @de\n      PUSH [tag] 627\t\t\tdexed tokenId,\\n        uint64...\n      JUMP \t\t\tdexed tokenId,\\n        uint64...\n    tag 744\t\t\tdexed tokenId,\\n        uint64...\n      JUMPDEST \t\t\tdexed tokenId,\\n        uint64...\n      SWAP1 \t\t\tnt256 indexed tokenId,\\n      ...\n      POP \t\t\tnt256 indexed tokenId,\\n      ...\n      SWAP3 \t\t\t for token metadata\\n    strin...\n      SWAP2 \t\t\t for token metadata\\n    strin...\n      POP \t\t\t for token metadata\\n    strin...\n      POP \t\t\t for token metadata\\n    strin...\n      JUMP \t\t\t for token metadata\\n    strin...\n    tag 628\t\t\tata reference is updated\\n    ...\n      JUMPDEST \t\t\tata reference is updated\\n    ...\n      PUSH 0\t\t\tevent D\n      DUP2 \t\t\t(\\n   \n      SWAP1 \t\t\tenceUpdated(\\n   \n      POP \t\t\tenceUpdated(\\n   \n      SWAP2 \t\t\tata reference is updated\\n    ...\n      SWAP1 \t\t\tata reference is updated\\n    ...\n      POP \t\t\tata reference is updated\\n    ...\n      JUMP \t\t\tata reference is updated\\n    ...\n    tag 629\t\t\t indexed user,\\n        uint25...\n      JUMPDEST \t\t\t indexed user,\\n        uint25...\n      PUSH [tag] 747\t\t\thatDataReference,\\n      \n      DUP2 \t\t\t     \n      PUSH [tag] 628\t\t\thatDataReference,\\n      \n      JUMP \t\t\thatDataReference,\\n      \n    tag 747\t\t\thatDataReference,\\n      \n      JUMPDEST \t\t\thatDataReference,\\n      \n      DUP2 \t\t\tdexed\n      EQ \t\t\t indexed chatDataReference,\\n ...\n      PUSH [tag] 748\t\t\t   bytes32 indexed chatDataRef...\n      JUMPI \t\t\t   bytes32 indexed chatDataRef...\n      PUSH 0\t\t\ta\n      DUP1 \t\t\te\n      REVERT \t\t\tt64 timestam\n    tag 748\t\t\t   bytes32 indexed chatDataRef...\n      JUMPDEST \t\t\t   bytes32 indexed chatDataRef...\n      POP \t\t\t indexed user,\\n        uint25...\n      JUMP \t\t\t indexed user,\\n        uint25...\n    tag 630\t\t\t    /**\\n     * @dev Emitted w...\n      JUMPDEST \t\t\t    /**\\n     * @dev Emitted w...\n      PUSH 0\t\t\t meta\n      DUP2 \t\t\t DidKe\n      CALLDATALOAD \t\t\t */\\n    event DidKey\n      SWAP1 \t\t\tated\\n     */\\n    event DidKe...\n      POP \t\t\tated\\n     */\\n    event DidKe...\n      PUSH [tag] 750\t\t\tpdated(\\n        address index...\n      DUP2 \t\t\texed \n      PUSH [tag] 629\t\t\tpdated(\\n        address index...\n      JUMP \t\t\tpdated(\\n        address index...\n    tag 750\t\t\tpdated(\\n        address index...\n      JUMPDEST \t\t\tpdated(\\n        address index...\n      SWAP3 \t\t\t    /**\\n     * @dev Emitted w...\n      SWAP2 \t\t\t    /**\\n     * @dev Emitted w...\n      POP \t\t\t    /**\\n     * @dev Emitted w...\n      POP \t\t\t    /**\\n     * @dev Emitted w...\n      JUMP \t\t\t    /**\\n     * @dev Emitted w...\n    tag 60\t\t\t uint256 indexed tokenId,\\n   ...\n      JUMPDEST \t\t\t uint256 indexed tokenId,\\n   ...\n      PUSH 0\t\t\t   \\n  \n      PUSH 20\t\t\ter\n      DUP3 \t\t\tbackend s\n      DUP5 \t\t\tted whe\n      SUB \t\t\tEmitted when backend si\n      SLT \t\t\tdev Emitted when backend signe...\n      ISZERO \t\t\t* @dev Emitted when backend si...\n      PUSH [tag] 752\t\t\t* @dev Emitted when backend si...\n      JUMPI \t\t\t* @dev Emitted when backend si...\n      PUSH [tag] 753\t\t\tupdated\\n     */\\n    event Ba...\n      PUSH [tag] 616\t\t\tupdated\\n     */\\n    event Ba...\n      JUMP \t\t\tupdated\\n     */\\n    event Ba...\n    tag 753\t\t\tupdated\\n     */\\n    event Ba...\n      JUMPDEST \t\t\tupdated\\n     */\\n    event Ba...\n    tag 752\t\t\t* @dev Emitted when backend si...\n      JUMPDEST \t\t\t* @dev Emitted when backend si...\n      PUSH 0\t\t\tm\n      PUSH [tag] 754\t\t\t/\\n    event PublicMintingTogg...\n      DUP5 \t\t\t);\\n    \n      DUP3 \t\t\tl enab\n      DUP6 \t\t\tToggled(b\n      ADD \t\t\ttingToggled(bool enabl\n      PUSH [tag] 630\t\t\t/\\n    event PublicMintingTogg...\n      JUMP \t\t\t/\\n    event PublicMintingTogg...\n    tag 754\t\t\t/\\n    event PublicMintingTogg...\n      JUMPDEST \t\t\t/\\n    event PublicMintingTogg...\n      SWAP2 \t\t\tled\\n     */\\n    event Public...\n      POP \t\t\tled\\n     */\\n    event Public...\n      POP \t\t\t  * @dev Emitted when public m...\n      SWAP3 \t\t\t uint256 indexed tokenId,\\n   ...\n      SWAP2 \t\t\t uint256 indexed tokenId,\\n   ...\n      POP \t\t\t uint256 indexed tokenId,\\n   ...\n      POP \t\t\t uint256 indexed tokenId,\\n   ...\n      JUMP \t\t\t uint256 indexed tokenId,\\n   ...\n    tag 631\t\t\ttted when a DID is revoked\\n  ...\n      JUMPDEST \t\t\ttted when a DID is revoked\\n  ...\n      PUSH 0\t\t\t  event\n      PUSH FFFFFFFFFFFFFFFFFFFFFFFFFFFFFFFFFFFFFFFF\t\t\txed user,\\n        uint256 ind...\n      DUP3 \t\t\tss in\n      AND \t\t\tddress indexed user,\\n        ...\n      SWAP1 \t\t\t(\\n        address indexed use...\n      POP \t\t\t(\\n        address indexed use...\n      SWAP2 \t\t\ttted when a DID is revoked\\n  ...\n      SWAP1 \t\t\ttted when a DID is revoked\\n  ...\n      POP \t\t\ttted when a DID is revoked\\n  ...\n      JUMP \t\t\ttted when a DID is revoked\\n  ...\n    tag 632\t\t\t64 timestamp\\n    );\\n    \\n  ...\n      JUMPDEST \t\t\t64 timestamp\\n    );\\n    \\n  ...\n      PUSH 0\t\t\t * @dev\n      PUSH [tag] 757\t\t\t migrated to a new walle\n      DUP3 \t\t\t wall\n      PUSH [tag] 631\t\t\t migrated to a new walle\n      JUMP \t\t\t migrated to a new walle\n    tag 757\t\t\t migrated to a new walle\n      JUMPDEST \t\t\t migrated to a new walle\n      SWAP1 \t\t\ten a DID is migrated to a new ...\n      POP \t\t\ten a DID is migrated to a new ...\n      SWAP2 \t\t\t64 timestamp\\n    );\\n    \\n  ...\n      SWAP1 \t\t\t64 timestamp\\n    );\\n    \\n  ...\n      POP \t\t\t64 timestamp\\n    );\\n    \\n  ...\n      JUMP \t\t\t64 timestamp\\n    );\\n    \\n  ...\n    tag 633\t\t\t  event DidMigrated(\\n        ...\n      JUMPDEST \t\t\t  event DidMigrated(\\n        ...\n      PUSH [tag] 759\t\t\tet,\\n        uint256 inde\n      DUP2 \t\t\t6 ind\n      PUSH [tag] 632\t\t\tet,\\n        uint256 inde\n      JUMP \t\t\tet,\\n        uint256 inde\n    tag 759\t\t\tet,\\n        uint256 inde\n      JUMPDEST \t\t\tet,\\n        uint256 inde\n      DUP3 \t\t\twWa\n      MSTORE \t\t\texed newWallet,\\n        uint2...\n      POP \t\t\t  event DidMigrated(\\n        ...\n      POP \t\t\t  event DidMigrated(\\n        ...\n      JUMP \t\t\t  event DidMigrated(\\n        ...\n    tag 63\t\t\t        uint64 timestamp\\n    ...\n      JUMPDEST \t\t\t        uint64 timestamp\\n    ...\n      PUSH 0\t\t\t * @\n      PUSH 20\t\t\t b\n      DUP3 \t\t\tf caller \n      ADD \t\t\tck if caller is ba\n      SWAP1 \t\t\tr to check if caller is ba\n      POP \t\t\tr to check if caller is ba\n      PUSH [tag] 761\t\t\ter or public minting is allowe...\n      PUSH 0\t\t\t \n      DUP4 \t\t\tMinter() \n      ADD \t\t\tonlyMinter() {\\n  \n      DUP5 \t\t\tmodifi\n      PUSH [tag] 633\t\t\ter or public minting is allowe...\n      JUMP \t\t\ter or public minting is allowe...\n    tag 761\t\t\ter or public minting is allowe...\n      JUMPDEST \t\t\ter or public minting is allowe...\n      SWAP3 \t\t\t        uint64 timestamp\\n    ...\n      SWAP2 \t\t\t        uint64 timestamp\\n    ...\n      POP \t\t\t        uint64 timestamp\\n    ...\n      POP \t\t\t        uint64 timestamp\\n    ...\n      JUMP \t\t\t        uint64 timestamp\\n    ...\n    tag 634\t\t\t\\n            msg.sender == ba...\n      JUMPDEST \t\t\t\\n            msg.sender == ba...\n      PUSH [tag] 763\t\t\tder == owner(),\\n        \n      DUP2 \t\t\t     \n      PUSH [tag] 632\t\t\tder == owner(),\\n        \n      JUMP \t\t\tder == owner(),\\n        \n    tag 763\t\t\tder == owner(),\\n        \n      JUMPDEST \t\t\tder == owner(),\\n        \n      DUP2 \t\t\tmsg.s\n      EQ \t\t\t|| msg.sender == owner(),\\n   ...\n      PUSH [tag] 764\t\t\ticMinting || msg.sender == own...\n      JUMPI \t\t\ticMinting || msg.sender == own...\n      PUSH 0\t\t\ti\n      DUP1 \t\t\th\n      REVERT \t\t\tNot authoriz\n    tag 764\t\t\ticMinting || msg.sender == own...\n      JUMPDEST \t\t\ticMinting || msg.sender == own...\n      POP \t\t\t\\n            msg.sender == ba...\n      JUMP \t\t\t\\n            msg.sender == ba...\n    tag 635\t\t\t\\n        _;\\n    }\\n    \\n   ...\n      JUMPDEST \t\t\t\\n        _;\\n    }\\n    \\n   ...\n      PUSH 0\t\t\tifier\n      DUP2 \t\t\t*/\\n   \n      CALLDATALOAD \t\t\ts a DID\\n     */\\n    \n      SWAP1 \t\t\tf user has a DID\\n     */\\n   ...\n      POP \t\t\tf user has a DID\\n     */\\n   ...\n      PUSH [tag] 766\t\t\tonlyDidOwner(address user) {\\n...\n      DUP2 \t\t\t{\\n   \n      PUSH [tag] 634\t\t\tonlyDidOwner(address user) {\\n...\n      JUMP \t\t\tonlyDidOwner(address user) {\\n...\n    tag 766\t\t\tonlyDidOwner(address user) {\\n...\n      JUMPDEST \t\t\tonlyDidOwner(address user) {\\n...\n      SWAP3 \t\t\t\\n        _;\\n    }\\n    \\n   ...\n      SWAP2 \t\t\t\\n        _;\\n    }\\n    \\n   ...\n      POP \t\t\t\\n        _;\\n    }\\n    \\n   ...\n      POP \t\t\t\\n        _;\\n    }\\n    \\n   ...\n      JUMP \t\t\t\\n        _;\\n    }\\n    \\n   ...\n    tag 66\t\t\t_hasDid[user], \"No DID\");\\n   ...\n      JUMPDEST \t\t\t_hasDid[user], \"No DID\");\\n   ...\n      PUSH 0\t\t\twner\")\n      DUP1 \t\t\t      \n      PUSH 40\t\t\tr \n      DUP4 \t\t\t@dev Modi\n      DUP6 \t\t\t*\\n     \n      SUB \t\t\t  /**\\n     * @dev Modif\n      SLT \t\t\t \\n    /**\\n     * @dev Modifi...\n      ISZERO \t\t\t    \\n    /**\\n     * @dev Mod...\n      PUSH [tag] 768\t\t\t    \\n    /**\\n     * @dev Mod...\n      JUMPI \t\t\t    \\n    /**\\n     * @dev Mod...\n      PUSH [tag] 769\t\t\theck if DID is not revoked\\n  ...\n      PUSH [tag] 616\t\t\theck if DID is not revoked\\n  ...\n      JUMP \t\t\theck if DID is not revoked\\n  ...\n    tag 769\t\t\theck if DID is not revoked\\n  ...\n      JUMPDEST \t\t\theck if DID is not revoked\\n  ...\n    tag 768\t\t\t    \\n    /**\\n     * @dev Mod...\n      JUMPDEST \t\t\t    \\n    /**\\n     * @dev Mod...\n      PUSH 0\t\t\t \n      PUSH [tag] 770\t\t\twnerToTokenId[user];\\n        ...\n      DUP6 \t\t\tdTokens\n      DUP3 \t\t\t(!_rev\n      DUP7 \t\t\t    requi\n      ADD \t\t\t        require(!_revo\n      PUSH [tag] 635\t\t\twnerToTokenId[user];\\n        ...\n      JUMP \t\t\twnerToTokenId[user];\\n        ...\n    tag 770\t\t\twnerToTokenId[user];\\n        ...\n      JUMPDEST \t\t\twnerToTokenId[user];\\n        ...\n      SWAP3 \t\t\tkenId = _ownerToTokenId[user];...\n      POP \t\t\tkenId = _ownerToTokenId[user];...\n      POP \t\t\t_hasDid[user], \"No DID\");\\n   ...\n      PUSH 20\t\t\t**\n      PUSH [tag] 771\t\t\t check if DID is not revoked (...\n      DUP6 \t\t\t   */\\n \n      DUP3 \t\t\ten ID)\n      DUP7 \t\t\tked (by t\n      ADD \t\t\trevoked (by token ID)\\n\n      PUSH [tag] 630\t\t\t check if DID is not revoked (...\n      JUMP \t\t\t check if DID is not revoked (...\n    tag 771\t\t\t check if DID is not revoked (...\n      JUMPDEST \t\t\t check if DID is not revoked (...\n      SWAP2 \t\t\todifier to check if DID is not...\n      POP \t\t\todifier to check if DID is not...\n      POP \t\t\t;\\n        _;\\n    }\\n    \\n  ...\n      SWAP3 \t\t\t_hasDid[user], \"No DID\");\\n   ...\n      POP \t\t\t_hasDid[user], \"No DID\");\\n   ...\n      SWAP3 \t\t\t_hasDid[user], \"No DID\");\\n   ...\n      SWAP1 \t\t\t_hasDid[user], \"No DID\");\\n   ...\n      POP \t\t\t_hasDid[user], \"No DID\");\\n   ...\n      JUMP \t\t\t_hasDid[user], \"No DID\");\\n   ...\n    tag 70\t\t\tId(uint256 tokenId) {\\n       ...\n      JUMPDEST \t\t\tId(uint256 tokenId) {\\n       ...\n      PUSH 0\t\t\t token\n      PUSH 20\t\t\t],\n      DUP3 \t\t\tkens[toke\n      DUP5 \t\t\trevoked\n      SUB \t\t\te(!_revokedTokens[token\n      SLT \t\t\tquire(!_revokedTokens[tokenId]...\n      ISZERO \t\t\t require(!_revokedTokens[token...\n      PUSH [tag] 773\t\t\t require(!_revokedTokens[token...\n      JUMPI \t\t\t require(!_revokedTokens[token...\n      PUSH [tag] 774\t\t\tvoked\");\\n        _;\\n    }\\n\\...\n      PUSH [tag] 616\t\t\tvoked\");\\n        _;\\n    }\\n\\...\n      JUMP \t\t\tvoked\");\\n        _;\\n    }\\n\\...\n    tag 774\t\t\tvoked\");\\n        _;\\n    }\\n\\...\n      JUMPDEST \t\t\tvoked\");\\n        _;\\n    }\\n\\...\n    tag 773\t\t\t require(!_revokedTokens[token...\n      JUMPDEST \t\t\t require(!_revokedTokens[token...\n      PUSH 0\t\t\ta\n      PUSH [tag] 775\t\t\t \"SafePsy DID Identity\")\\n    ...\n      DUP5 \t\t\t Token \n      DUP3 \t\t\tam sym\n      DUP6 \t\t\t     * @p\n      ADD \t\t\ty\")\\n     * @param symb\n      PUSH [tag] 635\t\t\t \"SafePsy DID Identity\")\\n    ...\n      JUMP \t\t\t \"SafePsy DID Identity\")\\n    ...\n    tag 775\t\t\t \"SafePsy DID Identity\")\\n    ...\n      JUMPDEST \t\t\t \"SafePsy DID Identity\")\\n    ...\n      SWAP2 \t\t\tame (e.g., \"SafePsy DID Identi...\n      POP \t\t\tame (e.g., \"SafePsy DID Identi...\n      POP \t\t\t @dev Constructor\\n     * @par...\n      SWAP3 \t\t\tId(uint256 tokenId) {\\n       ...\n      SWAP2 \t\t\tId(uint256 tokenId) {\\n       ...\n      POP \t\t\tId(uint256 tokenId) {\\n       ...\n      POP \t\t\tId(uint256 tokenId) {\\n       ...\n      JUMP \t\t\tId(uint256 tokenId) {\\n       ...\n    tag 636\t\t\tID\")\\n     * @param baseURI Ba...\n      JUMPDEST \t\t\tID\")\\n     * @param baseURI Ba...\n      PUSH [tag] 777\t\t\tSigner Address of backen\n      DUP2 \t\t\tbacke\n      PUSH [tag] 632\t\t\tSigner Address of backen\n      JUMP \t\t\tSigner Address of backen\n    tag 777\t\t\tSigner Address of backen\n      JUMPDEST \t\t\tSigner Address of backen\n      DUP3 \t\t\tcke\n      MSTORE \t\t\tram _backendSigner Address of ...\n      POP \t\t\tID\")\\n     * @param baseURI Ba...\n      POP \t\t\tID\")\\n     * @param baseURI Ba...\n      JUMP \t\t\tID\")\\n     * @param baseURI Ba...\n    tag 637\t\t\t be zero address)\\n     * @par...\n      JUMPDEST \t\t\t be zero address)\\n     * @par...\n      PUSH 0\t\t\towPubli\n      PUSH FFFFFFFFFFFFFFFF\t\t\tminting\\n     */\\n  \n      DUP3 \t\t\tpubli\n      AND \t\t\tlow public minting\\n     */\\n ...\n      SWAP1 \t\t\tether to allow public minting\\...\n      POP \t\t\tether to allow public minting\\...\n      SWAP2 \t\t\t be zero address)\\n     * @par...\n      SWAP1 \t\t\t be zero address)\\n     * @par...\n      POP \t\t\t be zero address)\\n     * @par...\n      JUMP \t\t\t be zero address)\\n     * @par...\n    tag 638\t\t\t(\\n        string memory name,...\n      JUMPDEST \t\t\t(\\n        string memory name,...\n      PUSH [tag] 780\t\t\tmemory baseURI,\\n       \n      DUP2 \t\t\t     \n      PUSH [tag] 637\t\t\tmemory baseURI,\\n       \n      JUMP \t\t\tmemory baseURI,\\n       \n    tag 780\t\t\tmemory baseURI,\\n       \n      JUMPDEST \t\t\tmemory baseURI,\\n       \n      DUP3 \t\t\trin\n      MSTORE \t\t\t     string memory baseURI,\\n ...\n      POP \t\t\t(\\n        string memory name,...\n      POP \t\t\t(\\n        string memory name,...\n      JUMP \t\t\t(\\n        string memory name,...\n    tag 639\t\t\tkendSigner,\\n        bool _all...\n      JUMPDEST \t\t\tkendSigner,\\n        bool _all...\n      PUSH 0\t\t\tMinting\n      DUP2 \t\t\tmbol)\n      SWAP1 \t\t\t21(name, symbol)\n      POP \t\t\t21(name, symbol)\n      SWAP2 \t\t\tkendSigner,\\n        bool _all...\n      SWAP1 \t\t\tkendSigner,\\n        bool _all...\n      POP \t\t\tkendSigner,\\n        bool _all...\n      JUMP \t\t\tkendSigner,\\n        bool _all...\n    tag 640\t\t\t.sender) {\\n        _baseToken...\n      JUMPDEST \t\t\t.sender) {\\n        _baseToken...\n      PUSH [tag] 783\t\t\tigner;\\n        allowPubl\n      DUP2 \t\t\towPub\n      PUSH [tag] 639\t\t\tigner;\\n        allowPubl\n      JUMP \t\t\tigner;\\n        allowPubl\n    tag 783\t\t\tigner;\\n        allowPubl\n      JUMPDEST \t\t\tigner;\\n        allowPubl\n      DUP3 \t\t\tken\n      MSTORE \t\t\t = _backendSigner;\\n        al...\n      POP \t\t\t.sender) {\\n        _baseToken...\n      POP \t\t\t.sender) {\\n        _baseToken...\n      JUMP \t\t\t.sender) {\\n        _baseToken...\n    tag 641\t\t\tallowPublicMinting;\\n        _...\n      JUMPDEST \t\t\tallowPublicMinting;\\n        _...\n      PUSH 0\t\t\till st\n      DUP2 \t\t\t=====\n      MLOAD \t\t\t ===========\n      SWAP1 \t\t\t }\\n\\n    // ===========\n      POP \t\t\t }\\n\\n    // ===========\n      SWAP2 \t\t\tallowPublicMinting;\\n        _...\n      SWAP1 \t\t\tallowPublicMinting;\\n        _...\n      POP \t\t\tallowPublicMinting;\\n        _...\n      JUMP \t\t\tallowPublicMinting;\\n        _...\n    tag 642\t\t\tmplementation ============\\n  ...\n      JUMPDEST \t\t\tmplementation ============\\n  ...\n      PUSH 0\t\t\trevent tran\n      DUP3 \t\t\t\\n     \n      DUP3 \t\t\toke\n      MSTORE \t\t\tbound token)\\n     *\n      PUSH 20\t\t\tll t\n      DUP3 \t\t\t by\n      ADD \t\t\tlled by all tr\n      SWAP1 \t\t\tThis hook is called by all tr\n      POP \t\t\tThis hook is called by all tr\n      SWAP3 \t\t\tmplementation ============\\n  ...\n      SWAP2 \t\t\tmplementation ============\\n  ...\n      POP \t\t\tmplementation ============\\n  ...\n      POP \t\t\tmplementation ============\\n  ...\n      JUMP \t\t\tmplementation ============\\n  ...\n    tag 643\t\t\ttions in OpenZeppelin v5\\n    ...\n      JUMPDEST \t\t\ttions in OpenZeppelin v5\\n    ...\n      PUSH 0\t\t\t) (\n      PUSH [tag] 787\t\t\t (burning)\\n     */\\n    funct...\n      DUP3 \t\t\t_upda\n      PUSH [tag] 641\t\t\t (burning)\\n     */\\n    funct...\n      JUMP \t\t\t (burning)\\n     */\\n    funct...\n    tag 787\t\t\t (burning)\\n     */\\n    funct...\n      JUMPDEST \t\t\t (burning)\\n     */\\n    funct...\n      PUSH [tag] 788\t\t\tnt256 tokenId, address auth) \\...\n      DUP2 \t\t\t   ove\n      DUP6 \t\t\t   \n      PUSH [tag] 642\t\t\tnt256 tokenId, address auth) \\...\n      JUMP \t\t\tnt256 tokenId, address auth) \\...\n    tag 788\t\t\tnt256 tokenId, address auth) \\...\n      JUMPDEST \t\t\tnt256 tokenId, address auth) \\...\n      SWAP4 \t\t\t to, uint256 tokenId, address ...\n      POP \t\t\t to, uint256 tokenId, address ...\n      PUSH [tag] 789\t\t\t     returns (address) \\n    {...\n      DUP2 \t\t\trOf(to\n      DUP6 \t\t\t_ow\n      PUSH 20\t\t\tfrom\n      DUP7 \t\t\tddres\n      ADD \t\t\t   address from \n      PUSH [tag] 625\t\t\t     returns (address) \\n    {...\n      JUMP \t\t\t     returns (address) \\n    {...\n    tag 789\t\t\t     returns (address) \\n    {...\n      JUMPDEST \t\t\t     returns (address) \\n    {...\n      PUSH [tag] 790\t\t\t/ Allow minting (from == addr\n      DUP2 \t\t\t== add\n      PUSH [tag] 626\t\t\t/ Allow minting (from == addr\n      JUMP \t\t\t/ Allow minting (from == addr\n    tag 790\t\t\t/ Allow minting (from == addr\n      JUMPDEST \t\t\t/ Allow minting (from == addr\n      DUP5 \t\t\t   \n      ADD \t\t\t        // Allow minting (from...\n      SWAP2 \t\t\t      \\n        // Allow minti...\n      POP \t\t\t      \\n        // Allow minti...\n      POP \t\t\tinting) or to address(0) (burn...\n      SWAP3 \t\t\ttions in OpenZeppelin v5\\n    ...\n      SWAP2 \t\t\ttions in OpenZeppelin v5\\n    ...\n      POP \t\t\ttions in OpenZeppelin v5\\n    ...\n      POP \t\t\ttions in OpenZeppelin v5\\n    ...\n      JUMP \t\t\ttions in OpenZeppelin v5\\n    ...\n    tag 644\t\t\t(from != address(0) && to != a...\n      JUMPDEST \t\t\t(from != address(0) && to != a...\n      PUSH 0\t\t\to, \n      PUSH A0\t\t\t*\\n  \n      DUP4 \t\t\t   \n      ADD \t\t\t  \\n    /**\\n   \n      PUSH 0\t\t\tnoti\n      DUP4 \t\t\t    *\n      ADD \t\t\te)\\n     * @notic\n      MLOAD \t\t\tferable)\\n     * @notice\n      PUSH [tag] 792\t\t\tn always reverts to prevent ap...\n      PUSH 0\t\t\tn ap\n      DUP7 \t\t\tnct\n      ADD \t\t\t  function app\n      DUP3 \t\t\tals\\n     */\\n\n      PUSH [tag] 636\t\t\tn always reverts to prevent ap...\n      JUMP \t\t\tn always reverts to prevent ap...\n    tag 792\t\t\tn always reverts to prevent ap...\n      JUMPDEST \t\t\tn always reverts to prevent ap...\n      POP \t\t\tverride approve to prevent app...\n      PUSH 20\t\t\t * @\n      DUP4 \t\t\t**\\n  \n      ADD \t\t\t   /**\\n     * @d\n      MLOAD \t\t\t    \\n    /**\\n     * @de\n      PUSH [tag] 793\t\t\ttApprovalForAll to prevent app...\n      PUSH 20\t\t\tsfer\n      DUP7 \t\t\t-tr\n      ADD \t\t\t non-transfera\n      DUP3 \t\t\tvals (token \n      PUSH [tag] 638\t\t\ttApprovalForAll to prevent app...\n      JUMP \t\t\ttApprovalForAll to prevent app...\n    tag 793\t\t\ttApprovalForAll to prevent app...\n      JUMPDEST \t\t\ttApprovalForAll to prevent app...\n      POP \t\t\t) public pure override {\\n    ...\n      PUSH 40\t\t\tForA\n      DUP4 \t\t\tpprov\n      ADD \t\t\tsetApprovalForAl\n      MLOAD \t\t\tction setApprovalForAll\n      PUSH [tag] 794\t\t\tl) public pure override {\\n   ...\n      PUSH 40\t\t\t    \n      DUP7 \t\t\td\")\n      ADD \t\t\tbound\");\\n    }\n      DUP3 \t\t\t  revert(\"So\n      PUSH [tag] 638\t\t\tl) public pure override {\\n   ...\n      JUMP \t\t\tl) public pure override {\\n   ...\n    tag 794\t\t\tl) public pure override {\\n   ...\n      JUMPDEST \t\t\tl) public pure override {\\n   ...\n      POP \t\t\this function always reverts to...\n      PUSH 60\t\t\tkend\n      DUP4 \t\t\ter (b\n      ADD \t\t\ta user (backend \n      MLOAD \t\t\tD for a user (backend s\n      PUSH [tag] 795\t\t\tr only, or public if enabled)\\...\n      PUSH 60\t\t\tet a\n      DUP7 \t\t\t wa\n      ADD \t\t\t The wallet ad\n      DUP3 \t\t\t * @param us\n      PUSH [tag] 640\t\t\tr only, or public if enabled)\\...\n      JUMP \t\t\tr only, or public if enabled)\\...\n    tag 795\t\t\tr only, or public if enabled)\\...\n      JUMPDEST \t\t\tr only, or public if enabled)\\...\n      POP \t\t\t Minting Functions ===========...\n      PUSH 80\t\t\ter) \n      DUP4 \t\t\tress \n      ADD \t\t\t(address user) e\n      MLOAD \t\t\tateDid(address user) ex\n      DUP5 \t\t\t) {\n      DUP3 \t\t\tint2\n      SUB \t\t\ts (uint256) {\\n\n      PUSH 80\t\t\t ret\n      DUP7 \t\t\ttra\n      ADD \t\t\tReentrant retu\n      MSTORE \t\t\tter nonReentrant returns (uint...\n      PUSH [tag] 796\t\t\tid[user], \"Has DID\");\\n       ...\n      DUP3 \t\t\tdr\")\n      DUP3 \t\t\ts(0), \"Zero \n      PUSH [tag] 643\t\t\tid[user], \"Has DID\");\\n       ...\n      JUMP \t\t\tid[user], \"Has DID\");\\n       ...\n    tag 796\t\t\tid[user], \"Has DID\");\\n       ...\n      JUMPDEST \t\t\tid[user], \"Has DID\");\\n       ...\n      SWAP2 \t\t\te(!_hasDid[user], \"Has DID\");\\...\n      POP \t\t\te(!_hasDid[user], \"Has DID\");\\...\n      POP \t\t\tor\\n     * @return tokenId The...\n      DUP1 \t\t\t    \n      SWAP2 \t\t\ter++;\\n     \n      POP \t\t\ter++;\\n     \n      POP \t\t\tkenId, auth);\\n    }\\n    \\n  ...\n      SWAP3 \t\t\t(from != address(0) && to != a...\n      SWAP2 \t\t\t(from != address(0) && to != a...\n      POP \t\t\t(from != address(0) && to != a...\n      POP \t\t\t(from != address(0) && to != a...\n      JUMP \t\t\t(from != address(0) && to != a...\n    tag 73\t\t\tokenId = _tokenCounter;\\n\\n   ...\n      JUMPDEST \t\t\tokenId = _tokenCounter;\\n\\n   ...\n      PUSH 0\t\t\tint6\n      PUSH 20\t\t\tst\n      DUP3 \t\t\t         \n      ADD \t\t\t\\n            lastU\n      SWAP1 \t\t\testamp),\\n            lastU\n      POP \t\t\testamp),\\n            lastU\n      DUP2 \t\t\t chatData\n      DUP2 \t\t\t    \n      SUB \t\t\t           chatDataR\n      PUSH 0\t\t\t)\n      DUP4 \t\t\tk.timesta\n      ADD \t\t\tblock.timestamp),\n      MSTORE \t\t\tuint64(block.timestamp),\\n    ...\n      PUSH [tag] 798\t\t\t0),\\n            encryptedKeyM...\n      DUP2 \t\t\t   _\n      DUP5 \t\t\tle;\\n  \n      PUSH [tag] 644\t\t\t0),\\n            encryptedKeyM...\n      JUMP \t\t\t0),\\n            encryptedKeyM...\n    tag 798\t\t\t0),\\n            encryptedKeyM...\n      JUMPDEST \t\t\t0),\\n            encryptedKeyM...\n      SWAP1 \t\t\tbytes32(0),\\n            encry...\n      POP \t\t\tbytes32(0),\\n            encry...\n      SWAP3 \t\t\tokenId = _tokenCounter;\\n\\n   ...\n      SWAP2 \t\t\tokenId = _tokenCounter;\\n\\n   ...\n      POP \t\t\tokenId = _tokenCounter;\\n\\n   ...\n      POP \t\t\tokenId = _tokenCounter;\\n\\n   ...\n      JUMP \t\t\tokenId = _tokenCounter;\\n\\n   ...\n    tag 645\t\t\t[user] = tokenId;\\n        _ha...\n      JUMPDEST \t\t\t[user] = tokenId;\\n        _ha...\n      PUSH 0\t\t\td\n      DUP1 \t\t\te\n      REVERT \t\t\ter, tokenId)\n    tag 646\t\t\tmit DidCreated(user, tokenId, ...\n      JUMPDEST \t\t\tmit DidCreated(user, tokenId, ...\n      PUSH 0\t\t\te\n      DUP1 \t\t\t \n      REVERT \t\t\t\\n     * @dev\n    tag 647\t\t\tD for the caller (public minti...\n      JUMPDEST \t\t\tD for the caller (public minti...\n      PUSH 0\t\t\td\n      DUP1 \t\t\ty\n      REVERT \t\t\tcreateMyDid(\n    tag 648\t\t\tturns (uint256) {\\n        req...\n      JUMPDEST \t\t\tturns (uint256) {\\n        req...\n      PUSH 0\t\t\tpublic m\n      DUP1 \t\t\tt\");\\n \n      DUP4 \t\t\tD\")\n      PUSH 1F\t\t\t\"Has\n      DUP5 \t\t\tender]\n      ADD \t\t\tsg.sender], \"Has \n      SLT \t\t\tid[msg.sender], \"Has DID\");\n      PUSH [tag] 803\t\t\tire(!_hasDid[msg.sender], \"Has...\n      JUMPI \t\t\tire(!_hasDid[msg.sender], \"Has...\n      PUSH [tag] 804\t\t\t      _tokenCounter++;\\n      ...\n      PUSH [tag] 645\t\t\t      _tokenCounter++;\\n      ...\n      JUMP \t\t\t      _tokenCounter++;\\n      ...\n    tag 804\t\t\t      _tokenCounter++;\\n      ...\n      JUMPDEST \t\t\t      _tokenCounter++;\\n      ...\n    tag 803\t\t\tire(!_hasDid[msg.sender], \"Has...\n      JUMPDEST \t\t\tire(!_hasDid[msg.sender], \"Has...\n      DUP3 \t\t\tory pr\n      CALLDATALOAD \t\t\tidProfile memory pro\n      SWAP1 \t\t\t\\n        DidProfile memory pr...\n      POP \t\t\t\\n        DidProfile memory pr...\n      PUSH FFFFFFFFFFFFFFFF\t\t\t         owner: ms\n      DUP2 \t\t\tle({\\n \n      GT \t\t\tofile({\\n            owner: ms...\n      ISZERO \t\t\tdProfile({\\n            owner:...\n      PUSH [tag] 805\t\t\tdProfile({\\n            owner:...\n      JUMPI \t\t\tdProfile({\\n            owner:...\n      PUSH [tag] 806\t\t\tnder,\\n            createdAt: ...\n      PUSH [tag] 646\t\t\tnder,\\n            createdAt: ...\n      JUMP \t\t\tnder,\\n            createdAt: ...\n    tag 806\t\t\tnder,\\n            createdAt: ...\n      JUMPDEST \t\t\tnder,\\n            createdAt: ...\n    tag 805\t\t\tdProfile({\\n            owner:...\n      JUMPDEST \t\t\tdProfile({\\n            owner:...\n      PUSH 20\t\t\t    \n      DUP4 \t\t\t      \n      ADD \t\t\tp),\\n            c\n      SWAP2 \t\t\tock.timestamp),\\n            c\n      POP \t\t\tock.timestamp),\\n            c\n      DUP4 \t\t\tedK\n      PUSH 1\t\t\t enc\n      DUP3 \t\t\t      \n      MUL \t\t\t\\n            encr\n      DUP4 \t\t\tytes32(0\n      ADD \t\t\te: bytes32(0),\\n            en...\n      GT \t\t\tence: bytes32(0),\\n           ...\n      ISZERO \t\t\tference: bytes32(0),\\n        ...\n      PUSH [tag] 807\t\t\tference: bytes32(0),\\n        ...\n      JUMPI \t\t\tference: bytes32(0),\\n        ...\n      PUSH [tag] 808\t\t\ttadata: bytes(\"\")\\n        });...\n      PUSH [tag] 647\t\t\ttadata: bytes(\"\")\\n        });...\n      JUMP \t\t\ttadata: bytes(\"\")\\n        });...\n    tag 808\t\t\ttadata: bytes(\"\")\\n        });...\n      JUMPDEST \t\t\ttadata: bytes(\"\")\\n        });...\n    tag 807\t\t\tference: bytes32(0),\\n        ...\n      JUMPDEST \t\t\tference: bytes32(0),\\n        ...\n      SWAP3 \t\t\tturns (uint256) {\\n        req...\n      POP \t\t\tturns (uint256) {\\n        req...\n      SWAP3 \t\t\tturns (uint256) {\\n        req...\n      SWAP1 \t\t\tturns (uint256) {\\n        req...\n      POP \t\t\tturns (uint256) {\\n        req...\n      JUMP \t\t\tturns (uint256) {\\n        req...\n    tag 76\t\t\tenId[msg.sender] = tokenId;\\n ...\n      JUMPDEST \t\t\tenId[msg.sender] = tokenId;\\n ...\n      PUSH 0\t\t\t  // M\n      DUP1 \t\t\tt ERC-\n      PUSH 20\t\t\ten\n      DUP4 \t\t\t.sender, \n      DUP6 \t\t\teMint(m\n      SUB \t\t\t_safeMint(msg.sender, t\n      SLT \t\t\t    _safeMint(msg.sender, toke...\n      ISZERO \t\t\t       _safeMint(msg.sender, t...\n      PUSH [tag] 810\t\t\t       _safeMint(msg.sender, t...\n      JUMPI \t\t\t       _safeMint(msg.sender, t...\n      PUSH [tag] 811\t\t\t\\n\\n        emit DidCreated(ms...\n      PUSH [tag] 616\t\t\t\\n\\n        emit DidCreated(ms...\n      JUMP \t\t\t\\n\\n        emit DidCreated(ms...\n    tag 811\t\t\t\\n\\n        emit DidCreated(ms...\n      JUMPDEST \t\t\t\\n\\n        emit DidCreated(ms...\n    tag 810\t\t\t       _safeMint(msg.sender, t...\n      JUMPDEST \t\t\t       _safeMint(msg.sender, t...\n      PUSH 0\t\t\t=\n      DUP4 \t\t\ttions ===\n      ADD \t\t\tFunctions =======\n      CALLDATALOAD \t\t\t==== Profile Functions =======...\n      PUSH FFFFFFFFFFFFFFFF\t\t\tev Get profile by \n      DUP2 \t\t\t    * \n      GT \t\t\t*\\n     * @dev Get profile by ...\n      ISZERO \t\t\t /**\\n     * @dev Get profile ...\n      PUSH [tag] 812\t\t\t /**\\n     * @dev Get profile ...\n      JUMPI \t\t\t /**\\n     * @dev Get profile ...\n      PUSH [tag] 813\t\t\tr address (efficient lookup)\\n...\n      PUSH [tag] 617\t\t\tr address (efficient lookup)\\n...\n      JUMP \t\t\tr address (efficient lookup)\\n...\n    tag 813\t\t\tr address (efficient lookup)\\n...\n      JUMPDEST \t\t\tr address (efficient lookup)\\n...\n    tag 812\t\t\t /**\\n     * @dev Get profile ...\n      JUMPDEST \t\t\t /**\\n     * @dev Get profile ...\n      PUSH [tag] 814\t\t\t    */\\n    function getProfil...\n      DUP6 \t\t\tnal vie\n      DUP3 \t\t\ter) ex\n      DUP7 \t\t\t(address \n      ADD \t\t\twner(address user) ext\n      PUSH [tag] 648\t\t\t    */\\n    function getProfil...\n      JUMP \t\t\t    */\\n    function getProfil...\n    tag 814\t\t\t    */\\n    function getProfil...\n      JUMPDEST \t\t\t    */\\n    function getProfil...\n      SWAP3 \t\t\tidProfile struct\\n     */\\n   ...\n      POP \t\t\tidProfile struct\\n     */\\n   ...\n      SWAP3 \t\t\tidProfile struct\\n     */\\n   ...\n      POP \t\t\tidProfile struct\\n     */\\n   ...\n      POP \t\t\tkenId;\\n    }\\n\\n    // ======...\n      SWAP3 \t\t\tenId[msg.sender] = tokenId;\\n ...\n      POP \t\t\tenId[msg.sender] = tokenId;\\n ...\n      SWAP3 \t\t\tenId[msg.sender] = tokenId;\\n ...\n      SWAP1 \t\t\tenId[msg.sender] = tokenId;\\n ...\n      POP \t\t\tenId[msg.sender] = tokenId;\\n ...\n      JUMP \t\t\tenId[msg.sender] = tokenId;\\n ...\n    tag 649\t\t\tmory) {\\n        require(_hasD...\n      JUMPDEST \t\t\tmory) {\\n        require(_hasD...\n      PUSH [tag] 816\t\t\tenId[user];\\n        retu\n      DUP2 \t\t\t  ret\n      PUSH [tag] 628\t\t\tenId[user];\\n        retu\n      JUMP \t\t\tenId[user];\\n        retu\n    tag 816\t\t\tenId[user];\\n        retu\n      JUMPDEST \t\t\tenId[user];\\n        retu\n      DUP3 \t\t\tToT\n      MSTORE \t\t\t _ownerToTokenId[user];\\n     ...\n      POP \t\t\tmory) {\\n        require(_hasD...\n      POP \t\t\tmory) {\\n        require(_hasD...\n      JUMP \t\t\tmory) {\\n        require(_hasD...\n    tag 81\t\t\tiles[tokenId];\\n    }\\n    \\n ...\n      JUMPDEST \t\t\tiles[tokenId];\\n    }\\n    \\n ...\n      PUSH 0\t\t\the t\n      PUSH 20\t\t\t D\n      DUP3 \t\t\tprofile T\n      ADD \t\t\turn profile The Di\n      SWAP1 \t\t\t  * @return profile The Di\n      POP \t\t\t  * @return profile The Di\n      PUSH [tag] 818\t\t\ttruct\\n     */\\n    function g...\n      PUSH 0\t\t\t \n      DUP4 \t\t\tternal vi\n      ADD \t\t\t) external view r\n      DUP5 \t\t\t6 toke\n      PUSH [tag] 649\t\t\ttruct\\n     */\\n    function g...\n      JUMP \t\t\ttruct\\n     */\\n    function g...\n    tag 818\t\t\ttruct\\n     */\\n    function g...\n      JUMPDEST \t\t\ttruct\\n     */\\n    function g...\n      SWAP3 \t\t\tiles[tokenId];\\n    }\\n    \\n ...\n      SWAP2 \t\t\tiles[tokenId];\\n    }\\n    \\n ...\n      POP \t\t\tiles[tokenId];\\n    }\\n    \\n ...\n      POP \t\t\tiles[tokenId];\\n    }\\n    \\n ...\n      JUMP \t\t\tiles[tokenId];\\n    }\\n    \\n ...\n    tag 650\t\t\tfile memory) {\\n        requir...\n      JUMPDEST \t\t\tfile memory) {\\n        requir...\n      PUSH [tag] 820\t\t\treturn _tokenProfiles\n      DUP2 \t\t\tofile\n      PUSH [tag] 621\t\t\treturn _tokenProfiles\n      JUMP \t\t\treturn _tokenProfiles\n    tag 820\t\t\treturn _tokenProfiles\n      JUMPDEST \t\t\treturn _tokenProfiles\n      DUP2 \t\t\t     \n      EQ \t\t\t;\\n        return _tokenProfil...\n      PUSH [tag] 821\t\t\tNo token\");\\n        return _t...\n      JUMPI \t\t\tNo token\");\\n        return _t...\n      PUSH 0\t\t\t}\n      DUP1 \t\t\t \n      REVERT \t\t\tnId];\\n    }\\n\n    tag 821\t\t\tNo token\");\\n        return _t...\n      JUMPDEST \t\t\tNo token\");\\n        return _t...\n      POP \t\t\tfile memory) {\\n        requir...\n      JUMP \t\t\tfile memory) {\\n        requir...\n    tag 651\t\t\t    * @dev Update chat data re...\n      JUMPDEST \t\t\t    * @dev Update chat data re...\n      PUSH 0\t\t\tncryp\n      DUP2 \t\t\twRef N\n      CALLDATALOAD \t\t\t  * @param newRef Ne\n      SWAP1 \t\t\tadata\\n     * @param newRef Ne\n      POP \t\t\tadata\\n     * @param newRef Ne\n      PUSH [tag] 823\t\t\tta reference (hash/CID/DB key)\n      DUP2 \t\t\tB key\n      PUSH [tag] 650\t\t\tta reference (hash/CID/DB key)\n      JUMP \t\t\tta reference (hash/CID/DB key)\n    tag 823\t\t\tta reference (hash/CID/DB key)\n      JUMPDEST \t\t\tta reference (hash/CID/DB key)\n      SWAP3 \t\t\t    * @dev Update chat data re...\n      SWAP2 \t\t\t    * @dev Update chat data re...\n      POP \t\t\t    * @dev Update chat data re...\n      POP \t\t\t    * @dev Update chat data re...\n      JUMP \t\t\t    * @dev Update chat data re...\n    tag 84\t\t\tam newEncryptedKeyMetadata New...\n      JUMPDEST \t\t\tam newEncryptedKeyMetadata New...\n      PUSH 0\t\t\t   * @\n      PUSH 20\t\t\tmu\n      DUP3 \t\t\ter, and D\n      DUP5 \t\t\ty DID o\n      SUB \t\t\tle by DID owner, and DI\n      SLT \t\t\tllable by DID owner, and DID m...\n      ISZERO \t\t\t callable by DID owner, and DI...\n      PUSH [tag] 825\t\t\t callable by DID owner, and DI...\n      JUMPI \t\t\t callable by DID owner, and DI...\n      PUSH [tag] 826\t\t\tot be revoked\\n     */\\n    fu...\n      PUSH [tag] 616\t\t\tot be revoked\\n     */\\n    fu...\n      JUMP \t\t\tot be revoked\\n     */\\n    fu...\n    tag 826\t\t\tot be revoked\\n     */\\n    fu...\n      JUMPDEST \t\t\tot be revoked\\n     */\\n    fu...\n    tag 825\t\t\t callable by DID owner, and DI...\n      JUMPDEST \t\t\t callable by DID owner, and DI...\n      PUSH 0\t\t\tt\n      PUSH [tag] 827\t\t\trnal onlyDidOwner(msg.sender) ...\n      DUP5 \t\t\tsg.send\n      DUP3 \t\t\tRevoke\n      DUP6 \t\t\tsender) n\n      ADD \t\t\tmsg.sender) notRevoked\n      PUSH [tag] 651\t\t\trnal onlyDidOwner(msg.sender) ...\n      JUMP \t\t\trnal onlyDidOwner(msg.sender) ...\n    tag 827\t\t\trnal onlyDidOwner(msg.sender) ...\n      JUMPDEST \t\t\trnal onlyDidOwner(msg.sender) ...\n      SWAP2 \t\t\t    ) external onlyDidOwner(ms...\n      POP \t\t\t    ) external onlyDidOwner(ms...\n      POP \t\t\t     bytes calldata newEncrypt...\n      SWAP3 \t\t\tam newEncryptedKeyMetadata New...\n      SWAP2 \t\t\tam newEncryptedKeyMetadata New...\n      POP \t\t\tam newEncryptedKeyMetadata New...\n      POP \t\t\tam newEncryptedKeyMetadata New...\n      JUMP \t\t\tam newEncryptedKeyMetadata New...\n    tag 92\t\t\t   uint256 tokenId = _ownerToT...\n      JUMPDEST \t\t\t   uint256 tokenId = _ownerToT...\n      PUSH 0\t\t\tprofil\n      DUP1 \t\t\t= _tok\n      PUSH 0\t\t\tProfil\n      PUSH 60\t\t\tri\n      DUP5 \t\t\t/ Convert\n      DUP7 \t\t\t       \n      SUB \t\t\t   \\n        // Convert \n      SLT \t\t\t       \\n        // Convert st...\n      ISZERO \t\t\t;\\n        \\n        // Conver...\n      PUSH [tag] 829\t\t\t;\\n        \\n        // Conver...\n      JUMPI \t\t\t;\\n        \\n        // Conver...\n      PUSH [tag] 830\t\t\to bytes32 using hash (simpler,...\n      PUSH [tag] 616\t\t\to bytes32 using hash (simpler,...\n      JUMP \t\t\to bytes32 using hash (simpler,...\n    tag 830\t\t\to bytes32 using hash (simpler,...\n      JUMPDEST \t\t\to bytes32 using hash (simpler,...\n    tag 829\t\t\t;\\n        \\n        // Conver...\n      JUMPDEST \t\t\t;\\n        \\n        // Conver...\n      PUSH 0\t\t\tt\n      PUSH [tag] 831\t\t\t\\n        profile.encryptedKey...\n      DUP7 \t\t\tcrypted\n      DUP3 \t\t\ta = ne\n      DUP8 \t\t\tdKeyMetad\n      ADD \t\t\typtedKeyMetadata = new\n      PUSH [tag] 635\t\t\t\\n        profile.encryptedKey...\n      JUMP \t\t\t\\n        profile.encryptedKey...\n    tag 831\t\t\t\\n        profile.encryptedKey...\n      JUMPDEST \t\t\t\\n        profile.encryptedKey...\n      SWAP4 \t\t\t= refHash;\\n        profile.en...\n      POP \t\t\t= refHash;\\n        profile.en...\n      POP \t\t\tnewRef));\\n        profile.cha...\n      PUSH 20\t\t\t4(\n      PUSH [tag] 832\t\t\t  \\n        emit DidChatRefere...\n      DUP7 \t\t\tender, \n      DUP3 \t\t\tted(ms\n      DUP8 \t\t\tferenceUp\n      ADD \t\t\tatReferenceUpdated(msg\n      PUSH [tag] 635\t\t\t  \\n        emit DidChatRefere...\n      JUMP \t\t\t  \\n        emit DidChatRefere...\n    tag 832\t\t\t  \\n        emit DidChatRefere...\n      JUMPDEST \t\t\t  \\n        emit DidChatRefere...\n      SWAP3 \t\t\tp);\\n        \\n        emit Di...\n      POP \t\t\tp);\\n        \\n        emit Di...\n      POP \t\t\tprofile.lastUpdatedAt = uint64...\n      PUSH 40\t\t\t  \n      PUSH [tag] 833\t\t\ted(msg.sender, tokenId, uint64...\n      DUP7 \t\t\tp));\\n  \n      DUP3 \t\t\t.times\n      DUP8 \t\t\tint64(blo\n      ADD \t\t\td, uint64(block.timest\n      PUSH [tag] 630\t\t\ted(msg.sender, tokenId, uint64...\n      JUMP \t\t\ted(msg.sender, tokenId, uint64...\n    tag 833\t\t\ted(msg.sender, tokenId, uint64...\n      JUMPDEST \t\t\ted(msg.sender, tokenId, uint64...\n      SWAP2 \t\t\tadataUpdated(msg.sender, token...\n      POP \t\t\tadataUpdated(msg.sender, token...\n      POP \t\t\tt64(block.timestamp));\\n      ...\n      SWAP3 \t\t\t   uint256 tokenId = _ownerToT...\n      POP \t\t\t   uint256 tokenId = _ownerToT...\n      SWAP3 \t\t\t   uint256 tokenId = _ownerToT...\n      POP \t\t\t   uint256 tokenId = _ownerToT...\n      SWAP3 \t\t\t   uint256 tokenId = _ownerToT...\n      JUMP \t\t\t   uint256 tokenId = _ownerToT...\n    tag 652\t\t\tnly encrypted key metadata (pr...\n      JUMPDEST \t\t\tnly encrypted key metadata (pr...\n      PUSH 0\t\t\t * @para\n      DUP1 \t\t\tnewEnc\n      DUP4 \t\t\t\\n  \n      PUSH 1F\t\t\tetad\n      DUP5 \t\t\ted key\n      ADD \t\t\trypted key metada\n      SLT \t\t\t encrypted key metadata\\n   \n      PUSH [tag] 835\t\t\ttadata New encrypted key metad...\n      JUMPI \t\t\ttadata New encrypted key metad...\n      PUSH [tag] 836\t\t\t@notice Only callable by DID o...\n      PUSH [tag] 645\t\t\t@notice Only callable by DID o...\n      JUMP \t\t\t@notice Only callable by DID o...\n    tag 836\t\t\t@notice Only callable by DID o...\n      JUMPDEST \t\t\t@notice Only callable by DID o...\n    tag 835\t\t\ttadata New encrypted key metad...\n      JUMPDEST \t\t\ttadata New encrypted key metad...\n      DUP3 \t\t\t      \n      CALLDATALOAD \t\t\tKeyMetadata(\\n       \n      SWAP1 \t\t\teEncryptedKeyMetadata(\\n      ...\n      POP \t\t\teEncryptedKeyMetadata(\\n      ...\n      PUSH FFFFFFFFFFFFFFFF\t\t\typtedKeyMetadata\\n \n      DUP2 \t\t\t newEn\n      GT \t\t\tata newEncryptedKeyMetadata\\n ...\n      ISZERO \t\t\tlldata newEncryptedKeyMetadata...\n      PUSH [tag] 837\t\t\tlldata newEncryptedKeyMetadata...\n      JUMPI \t\t\tlldata newEncryptedKeyMetadata...\n      PUSH [tag] 838\t\t\t external onlyDidOwner(msg.sen...\n      PUSH [tag] 646\t\t\t external onlyDidOwner(msg.sen...\n      JUMP \t\t\t external onlyDidOwner(msg.sen...\n    tag 838\t\t\t external onlyDidOwner(msg.sen...\n      JUMPDEST \t\t\t external onlyDidOwner(msg.sen...\n    tag 837\t\t\tlldata newEncryptedKeyMetadata...\n      JUMPDEST \t\t\tlldata newEncryptedKeyMetadata...\n      PUSH 20\t\t\t[msg\n      DUP4 \t\t\toToken\n      ADD \t\t\tnerToTokenId[msg.\n      SWAP2 \t\t\tokenId = _ownerToTokenId[msg.\n      POP \t\t\tokenId = _ownerToTokenId[msg.\n      DUP4 \t\t\tken\n      PUSH 1\t\t\tle =\n      DUP3 \t\t\tge pro\n      MUL \t\t\ttorage profile = \n      DUP4 \t\t\tdProfile\n      ADD \t\t\t  DidProfile storage profile =...\n      GT \t\t\t     DidProfile storage profil...\n      ISZERO \t\t\t        DidProfile storage pro...\n      PUSH [tag] 839\t\t\t        DidProfile storage pro...\n      JUMPI \t\t\t        DidProfile storage pro...\n      PUSH [tag] 840\t\t\tiles[tokenId];\\n        \\n    ...\n      PUSH [tag] 647\t\t\tiles[tokenId];\\n        \\n    ...\n      JUMP \t\t\tiles[tokenId];\\n        \\n    ...\n    tag 840\t\t\tiles[tokenId];\\n        \\n    ...\n      JUMPDEST \t\t\tiles[tokenId];\\n        \\n    ...\n    tag 839\t\t\t        DidProfile storage pro...\n      JUMPDEST \t\t\t        DidProfile storage pro...\n      SWAP3 \t\t\tnly encrypted key metadata (pr...\n      POP \t\t\tnly encrypted key metadata (pr...\n      SWAP3 \t\t\tnly encrypted key metadata (pr...\n      SWAP1 \t\t\tnly encrypted key metadata (pr...\n      POP \t\t\tnly encrypted key metadata (pr...\n      JUMP \t\t\tnly encrypted key metadata (pr...\n    tag 99\t\t\t   profile.lastUpdatedAt = uin...\n      JUMPDEST \t\t\t   profile.lastUpdatedAt = uin...\n      PUSH 0\t\t\tated(m\n      DUP1 \t\t\t.sende\n      PUSH 0\t\t\t token\n      DUP1 \t\t\t, uint\n      PUSH 40\t\t\t  \n      DUP6 \t\t\t \\n    /**\n      DUP8 \t\t\t    }\\n \n      SUB \t\t\t));\\n    }\\n    \\n    /**\\n\n      SLT \t\t\ttamp));\\n    }\\n    \\n    /**\\...\n      ISZERO \t\t\tmestamp));\\n    }\\n    \\n    /...\n      PUSH [tag] 842\t\t\tmestamp));\\n    }\\n    \\n    /...\n      JUMPI \t\t\tmestamp));\\n    }\\n    \\n    /...\n      PUSH [tag] 843\t\t\tdev Update only chat data refe...\n      PUSH [tag] 616\t\t\tdev Update only chat data refe...\n      JUMP \t\t\tdev Update only chat data refe...\n    tag 843\t\t\tdev Update only chat data refe...\n      JUMPDEST \t\t\tdev Update only chat data refe...\n    tag 842\t\t\tmestamp));\\n    }\\n    \\n    /...\n      JUMPDEST \t\t\tmestamp));\\n    }\\n    \\n    /...\n      PUSH 0\t\t\t \n      DUP6 \t\t\t DID owne\n      ADD \t\t\te by DID owner, a\n      CALLDATALOAD \t\t\t Only callable by DID owner, a...\n      PUSH FFFFFFFFFFFFFFFF\t\t\t    */\\n    functio\n      DUP2 \t\t\tevoked\n      GT \t\t\te revoked\\n     */\\n    functi...\n      ISZERO \t\t\tt be revoked\\n     */\\n    fun...\n      PUSH [tag] 844\t\t\tt be revoked\\n     */\\n    fun...\n      JUMPI \t\t\tt be revoked\\n     */\\n    fun...\n      PUSH [tag] 845\t\t\tdateChatDataReference(\\n      ...\n      PUSH [tag] 617\t\t\tdateChatDataReference(\\n      ...\n      JUMP \t\t\tdateChatDataReference(\\n      ...\n    tag 845\t\t\tdateChatDataReference(\\n      ...\n      JUMPDEST \t\t\tdateChatDataReference(\\n      ...\n    tag 844\t\t\tt be revoked\\n     */\\n    fun...\n      JUMPDEST \t\t\tt be revoked\\n     */\\n    fun...\n      PUSH [tag] 846\t\t\ter) nonReentrant {\\n        ui...\n      DUP8 \t\t\tnId[msg\n      DUP3 \t\t\tnerToT\n      DUP9 \t\t\tkenId = _\n      ADD \t\t\t6 tokenId = _ownerToTo\n      PUSH [tag] 648\t\t\ter) nonReentrant {\\n        ui...\n      JUMP \t\t\ter) nonReentrant {\\n        ui...\n    tag 846\t\t\ter) nonReentrant {\\n        ui...\n      JUMPDEST \t\t\ter) nonReentrant {\\n        ui...\n      SWAP5 \t\t\totRevoked(msg.sender) nonReent...\n      POP \t\t\totRevoked(msg.sender) nonReent...\n      SWAP5 \t\t\totRevoked(msg.sender) nonReent...\n      POP \t\t\totRevoked(msg.sender) nonReent...\n      POP \t\t\tdata reference\\n     * @notice...\n      PUSH 20\t\t\t  \n      DUP6 \t\t\tId];\\n    \n      ADD \t\t\tokenId];\\n        \\n\n      CALLDATALOAD \t\t\tkenProfiles[tokenId];\\n       ...\n      PUSH FFFFFFFFFFFFFFFF\t\t\t bytes32 using has\n      DUP2 \t\t\ttring \n      GT \t\t\tt string to bytes32 using hash\n      ISZERO \t\t\tvert string to bytes32 using h...\n      PUSH [tag] 847\t\t\tvert string to bytes32 using h...\n      JUMPI \t\t\tvert string to bytes32 using h...\n      PUSH [tag] 848\t\t\timpler, smaller bytecode)\\n   ...\n      PUSH [tag] 617\t\t\timpler, smaller bytecode)\\n   ...\n      JUMP \t\t\timpler, smaller bytecode)\\n   ...\n    tag 848\t\t\timpler, smaller bytecode)\\n   ...\n      JUMPDEST \t\t\timpler, smaller bytecode)\\n   ...\n    tag 847\t\t\tvert string to bytes32 using h...\n      JUMPDEST \t\t\tvert string to bytes32 using h...\n      PUSH [tag] 849\t\t\t refHash;\\n        profile.las...\n      DUP8 \t\t\timestam\n      DUP3 \t\t\t4(bloc\n      DUP9 \t\t\tdAt = uin\n      ADD \t\t\tdatedAt = uint64(block\n      PUSH [tag] 652\t\t\t refHash;\\n        profile.las...\n      JUMP \t\t\t refHash;\\n        profile.las...\n    tag 849\t\t\t refHash;\\n        profile.las...\n      JUMPDEST \t\t\t refHash;\\n        profile.las...\n      SWAP3 \t\t\thatDataReference = refHash;\\n ...\n      POP \t\t\thatDataReference = refHash;\\n ...\n      SWAP3 \t\t\thatDataReference = refHash;\\n ...\n      POP \t\t\thatDataReference = refHash;\\n ...\n      POP \t\t\tProfile storage profile = _tok...\n      SWAP3 \t\t\t   profile.lastUpdatedAt = uin...\n      SWAP6 \t\t\t   profile.lastUpdatedAt = uin...\n      SWAP2 \t\t\t   profile.lastUpdatedAt = uin...\n      SWAP5 \t\t\t   profile.lastUpdatedAt = uin...\n      POP \t\t\t   profile.lastUpdatedAt = uin...\n      SWAP3 \t\t\t   profile.lastUpdatedAt = uin...\n      POP \t\t\t   profile.lastUpdatedAt = uin...\n      JUMP \t\t\t   profile.lastUpdatedAt = uin...\n    tag 653\t\t\tt DidChatReferenceUpdated(msg....\n      JUMPDEST \t\t\tt DidChatReferenceUpdated(msg....\n      PUSH 0\t\t\tV\n      DUP1 \t\t\t=\n      REVERT \t\t\t========= Vi\n    tag 539\t\t\t ============\\n    \\n    /**\\n...\n      JUMPDEST \t\t\t ============\\n    \\n    /**\\n...\n      PUSH 4E487B7100000000000000000000000000000000000000000000000000000000\t\t\ta wallet has a DID\\n     * @pa...\n      PUSH 0\t\t\ti\n      MSTORE \t\t\t Check if a wallet has a DID\\n...\n      PUSH 41\t\t\tDID\\n\n      PUSH 4\t\t\t \n      MSTORE \t\t\tlet has a DID\\n \n      PUSH 24\t\t\t has\n      PUSH 0\t\t\ti\n      REVERT \t\t\t  function hasD\n    tag 654\t\t\tser) external view returns (bo...\n      JUMPDEST \t\t\tser) external view returns (bo...\n      PUSH [tag] 853\t\t\t*\\n     * @dev Get token ID \n      DUP3 \t\t\tn ID\n      PUSH [tag] 626\t\t\t*\\n     * @dev Get token ID \n      JUMP \t\t\t*\\n     * @dev Get token ID \n    tag 853\t\t\t*\\n     * @dev Get token ID \n      JUMPDEST \t\t\t*\\n     * @dev Get token ID \n      DUP2 \t\t\t \\n    \n      ADD \t\t\t\\n    \\n    /**\\n     * @dev G...\n      DUP2 \t\t\t DID)\\n\n      DUP2 \t\t\t ID (0 if \n      LT \t\t\tken ID (0 if no DID)\\n \n      PUSH FFFFFFFFFFFFFFFF\t\t\treturn tokenId The\n      DUP3 \t\t\tess\\n     *\n      GT \t\t\tddress\\n     * @return tokenId...\n      OR \t\t\tt address\\n     * @return toke...\n      ISZERO \t\t\tllet address\\n     * @return t...\n      PUSH [tag] 854\t\t\tllet address\\n     * @return t...\n      JUMPI \t\t\tllet address\\n     * @return t...\n      PUSH [tag] 855\t\t\t*/\\n    function ge\n      PUSH [tag] 539\t\t\t*/\\n    function ge\n      JUMP \t\t\t*/\\n    function ge\n    tag 855\t\t\t*/\\n    function ge\n      JUMPDEST \t\t\t*/\\n    function ge\n    tag 854\t\t\tllet address\\n     * @return t...\n      JUMPDEST \t\t\tllet address\\n     * @return t...\n      DUP1 \t\t\txternal vi\n      PUSH 40\t\t\tr)\n      MSTORE \t\t\tess user) external vie\n      POP \t\t\t return _hasDid[user];\\n    }\\...\n      POP \t\t\tser) external view returns (bo...\n      POP \t\t\tser) external view returns (bo...\n      JUMP \t\t\tser) external view returns (bo...\n    tag 655\t\t\tint256) {\\n        return _own...\n      JUMPDEST \t\t\tint256) {\\n        return _own...\n      PUSH 0\t\t\tokenId\n      PUSH [tag] 857\t\t\t  /**\\n     * @dev Ge\n      PUSH [tag] 615\t\t\t  /**\\n     * @dev Ge\n      JUMP \t\t\t  /**\\n     * @dev Ge\n    tag 857\t\t\t  /**\\n     * @dev Ge\n      JUMPDEST \t\t\t  /**\\n     * @dev Ge\n      SWAP1 \t\t\t }\\n    \\n    /**\\n     * @dev...\n      POP \t\t\t }\\n    \\n    /**\\n     * @dev...\n      PUSH [tag] 858\t\t\tta reference for a wallet\\n   ...\n      DUP3 \t\t\t   *\n      DUP3 \t\t\tallet\\n\n      PUSH [tag] 654\t\t\tta reference for a wallet\\n   ...\n      JUMP \t\t\tta reference for a wallet\\n   ...\n    tag 858\t\t\tta reference for a wallet\\n   ...\n      JUMPDEST \t\t\tta reference for a wallet\\n   ...\n      SWAP2 \t\t\tint256) {\\n        return _own...\n      SWAP1 \t\t\tint256) {\\n        return _own...\n      POP \t\t\tint256) {\\n        return _own...\n      JUMP \t\t\tint256) {\\n        return _own...\n    tag 656\t\t\tThe wallet address\\n     * @re...\n      JUMPDEST \t\t\tThe wallet address\\n     * @re...\n      PUSH 0\t\t\tes32\n      PUSH FFFFFFFFFFFFFFFF\t\t\t32) {\\n        requ\n      DUP3 \t\t\ts (byt\n      GT \t\t\turns (bytes32) {\\n        requ...\n      ISZERO \t\t\treturns (bytes32) {\\n        r...\n      PUSH [tag] 860\t\t\treturns (bytes32) {\\n        r...\n      JUMPI \t\t\treturns (bytes32) {\\n        r...\n      PUSH [tag] 861\t\t\t_hasDid[user], \"No\n      PUSH [tag] 539\t\t\t_hasDid[user], \"No\n      JUMP \t\t\t_hasDid[user], \"No\n    tag 861\t\t\t_hasDid[user], \"No\n      JUMPDEST \t\t\t_hasDid[user], \"No\n    tag 860\t\t\treturns (bytes32) {\\n        r...\n      JUMPDEST \t\t\treturns (bytes32) {\\n        r...\n      PUSH [tag] 862\t\t\t256 tokenId = _ownerToTokenId\n      DUP3 \t\t\tTokenI\n      PUSH [tag] 626\t\t\t256 tokenId = _ownerToTokenId\n      JUMP \t\t\t256 tokenId = _ownerToTokenId\n    tag 862\t\t\t256 tokenId = _ownerToTokenId\n      JUMPDEST \t\t\t256 tokenId = _ownerToTokenId\n      SWAP1 \t\t\t    uint256 tokenId = _ownerTo...\n      POP \t\t\t    uint256 tokenId = _ownerTo...\n      PUSH 20\t\t\tRefe\n      DUP2 \t\t\tatDa\n      ADD \t\t\t].chatDataRefer\n      SWAP1 \t\t\t[tokenId].chatDataRefer\n      POP \t\t\t[tokenId].chatDataRefer\n      SWAP2 \t\t\tThe wallet address\\n     * @re...\n      SWAP1 \t\t\tThe wallet address\\n     * @re...\n      POP \t\t\tThe wallet address\\n     * @re...\n      JUMP \t\t\tThe wallet address\\n     * @re...\n    tag 657\t\t\t   \\n    /**\\n     * @dev Get ...\n      JUMPDEST \t\t\t   \\n    /**\\n     * @dev Get ...\n      DUP3 \t\t\tress\\n \n      DUP2 \t\t\tt a\n      DUP4 \t\t\twal\n      CALLDATACOPY \t\t\tram user The wallet address\\n ...\n      PUSH 0\t\t\ta\n      DUP4 \t\t\td key \n      DUP4 \t\t\tryp\n      ADD \t\t\t encrypted key m\n      MSTORE \t\t\turn The encrypted key metad\n      POP \t\t\t   \\n    /**\\n     * @dev Get ...\n      POP \t\t\t   \\n    /**\\n     * @dev Get ...\n      POP \t\t\t   \\n    /**\\n     * @dev Get ...\n      JUMP \t\t\t   \\n    /**\\n     * @dev Get ...\n    tag 658\t\t\t     */\\n    function getEncry...\n      JUMPDEST \t\t\t     */\\n    function getEncry...\n      PUSH 0\t\t\tns (b\n      PUSH [tag] 865\t\t\t   require(_hasDid[user], \"No ...\n      PUSH [tag] 866\t\t\tid[user], \"No DID\");\\n        ...\n      DUP5 \t\t\tId = _\n      PUSH [tag] 656\t\t\tid[user], \"No DID\");\\n        ...\n      JUMP \t\t\tid[user], \"No DID\");\\n        ...\n    tag 866\t\t\tid[user], \"No DID\");\\n        ...\n      JUMPDEST \t\t\tid[user], \"No DID\");\\n        ...\n      PUSH [tag] 655\t\t\t   require(_hasDid[user], \"No ...\n      JUMP \t\t\t   require(_hasDid[user], \"No ...\n    tag 865\t\t\t   require(_hasDid[user], \"No ...\n      JUMPDEST \t\t\t   require(_hasDid[user], \"No ...\n      SWAP1 \t\t\t) {\\n        require(_hasDid[u...\n      POP \t\t\t) {\\n        require(_hasDid[u...\n      DUP3 \t\t\t     r\n      DUP2 \t\t\tr];\\n \n      MSTORE \t\t\tnId[user];\\n        re\n      PUSH 20\t\t\tcryp\n      DUP2 \t\t\tnId].\n      ADD \t\t\ttokenId].encrypt\n      DUP5 \t\t\t\\n  \n      DUP5 \t\t\t \\n    \n      DUP5 \t\t\t}\\n \n      ADD \t\t\t    }\\n    \\n    /\n      GT \t\t\ta;\\n    }\\n    \\n    /**\\n   \n      ISZERO \t\t\tdata;\\n    }\\n    \\n    /**\\n ...\n      PUSH [tag] 867\t\t\tdata;\\n    }\\n    \\n    /**\\n ...\n      JUMPI \t\t\tdata;\\n    }\\n    \\n    /**\\n ...\n      PUSH [tag] 868\t\t\t @dev Get total number of DIDs...\n      PUSH [tag] 653\t\t\t @dev Get total number of DIDs...\n      JUMP \t\t\t @dev Get total number of DIDs...\n    tag 868\t\t\t @dev Get total number of DIDs...\n      JUMPDEST \t\t\t @dev Get total number of DIDs...\n    tag 867\t\t\tdata;\\n    }\\n    \\n    /**\\n ...\n      JUMPDEST \t\t\tdata;\\n    }\\n    \\n    /**\\n ...\n      PUSH [tag] 869\t\t\t totalSupply() external view r...\n      DUP5 \t\t\t{\\n    \n      DUP3 \t\t\t256\n      DUP6 \t\t\t(ui\n      PUSH [tag] 657\t\t\t totalSupply() external view r...\n      JUMP \t\t\t totalSupply() external view r...\n    tag 869\t\t\t totalSupply() external view r...\n      JUMPDEST \t\t\t totalSupply() external view r...\n      POP \t\t\ttes memory) {\\n        require...\n      SWAP4 \t\t\t     */\\n    function getEncry...\n      SWAP3 \t\t\t     */\\n    function getEncry...\n      POP \t\t\t     */\\n    function getEncry...\n      POP \t\t\t     */\\n    function getEncry...\n      POP \t\t\t     */\\n    function getEncry...\n      JUMP \t\t\t     */\\n    function getEncry...\n    tag 659\t\t\t   }\\n    \\n    /**\\n     * @d...\n      JUMPDEST \t\t\t   }\\n    \\n    /**\\n     * @d...\n      PUSH 0\t\t\tadata\n      DUP3 \t\t\tcti\n      PUSH 1F\t\t\t    \n      DUP4 \t\t\t     *\n      ADD \t\t\tURI\\n     */\\n    f\n      SLT \t\t\tase URI\\n     */\\n    functio\n      PUSH [tag] 871\t\t\tturn The base URI\\n     */\\n  ...\n      JUMPI \t\t\tturn The base URI\\n     */\\n  ...\n      PUSH [tag] 872\t\t\taseURI() internal view overrid...\n      PUSH [tag] 645\t\t\taseURI() internal view overrid...\n      JUMP \t\t\taseURI() internal view overrid...\n    tag 872\t\t\taseURI() internal view overrid...\n      JUMPDEST \t\t\taseURI() internal view overrid...\n    tag 871\t\t\tturn The base URI\\n     */\\n  ...\n      JUMPDEST \t\t\tturn The base URI\\n     */\\n  ...\n      DUP2 \t\t\t   * @\n      CALLDATALOAD \t\t\t  \\n    /**\\n     * @d\n      PUSH [tag] 873\t\t\tnly owner)\\n     * @param base...\n      DUP5 \t\t\tRI(\n      DUP3 \t\t\tsetBas\n      PUSH 20\t\t\tncti\n      DUP7 \t\t\t/\\n    \n      ADD \t\t\t   */\\n    functio\n      PUSH [tag] 658\t\t\tnly owner)\\n     * @param base...\n      JUMP \t\t\tnly owner)\\n     * @param base...\n    tag 873\t\t\tnly owner)\\n     * @param base...\n      JUMPDEST \t\t\tnly owner)\\n     * @param base...\n      SWAP2 \t\t\tse URI (only owner)\\n     * @p...\n      POP \t\t\tse URI (only owner)\\n     * @p...\n      POP \t\t\t     * @return The base URI\\n ...\n      SWAP3 \t\t\t   }\\n    \\n    /**\\n     * @d...\n      SWAP2 \t\t\t   }\\n    \\n    /**\\n     * @d...\n      POP \t\t\t   }\\n    \\n    /**\\n     * @d...\n      POP \t\t\t   }\\n    \\n    /**\\n     * @d...\n      JUMP \t\t\t   }\\n    \\n    /**\\n     * @d...\n    tag 107\t\t\t baseURI) external onlyOwner {...\n      JUMPDEST \t\t\t baseURI) external onlyOwner {...\n      PUSH 0\t\t\t\\n\\n    \n      PUSH 20\t\t\t=\\n\n      DUP3 \t\t\t ========\n      DUP5 \t\t\tFunctio\n      SUB \t\t\tmin Functions =========\n      SLT \t\t\t= Admin Functions ============...\n      ISZERO \t\t\t==== Admin Functions =========...\n      PUSH [tag] 875\t\t\t==== Admin Functions =========...\n      JUMPI \t\t\t==== Admin Functions =========...\n      PUSH [tag] 876\t\t\t\\n    /**\\n     * @dev Update ...\n      PUSH [tag] 616\t\t\t\\n    /**\\n     * @dev Update ...\n      JUMP \t\t\t\\n    /**\\n     * @dev Update ...\n    tag 876\t\t\t\\n    /**\\n     * @dev Update ...\n      JUMPDEST \t\t\t\\n    /**\\n     * @dev Update ...\n    tag 875\t\t\t==== Admin Functions =========...\n      JUMPDEST \t\t\t==== Admin Functions =========...\n      PUSH 0\t\t\ta\n      DUP3 \t\t\tkendSigne\n      ADD \t\t\teBackendSigner(ad\n      CALLDATALOAD \t\t\tunction updateBackendSigner(ad...\n      PUSH FFFFFFFFFFFFFFFF\t\t\tlyOwner {\\n        \n      DUP2 \t\t\ternal \n      GT \t\t\texternal onlyOwner {\\n        ...\n      ISZERO \t\t\tr) external onlyOwner {\\n     ...\n      PUSH [tag] 877\t\t\tr) external onlyOwner {\\n     ...\n      JUMPI \t\t\tr) external onlyOwner {\\n     ...\n      PUSH [tag] 878\t\t\tire(newSigner != address(0), \"...\n      PUSH [tag] 617\t\t\tire(newSigner != address(0), \"...\n      JUMP \t\t\tire(newSigner != address(0), \"...\n    tag 878\t\t\tire(newSigner != address(0), \"...\n      JUMPDEST \t\t\tire(newSigner != address(0), \"...\n    tag 877\t\t\tr) external onlyOwner {\\n     ...\n      JUMPDEST \t\t\tr) external onlyOwner {\\n     ...\n      PUSH [tag] 879\t\t\tpdated(newSigner);\\n    }\\n   ...\n      DUP5 \t\t\te publi\n      DUP3 \t\t\tdev To\n      DUP6 \t\t\t**\\n     *\n      ADD \t\t\t   /**\\n     * @dev Tog\n      PUSH [tag] 659\t\t\tpdated(newSigner);\\n    }\\n   ...\n      JUMP \t\t\tpdated(newSigner);\\n    }\\n   ...\n    tag 879\t\t\tpdated(newSigner);\\n    }\\n   ...\n      JUMPDEST \t\t\tpdated(newSigner);\\n    }\\n   ...\n      SWAP2 \t\t\tendSignerUpdated(newSigner);\\n...\n      POP \t\t\tendSignerUpdated(newSigner);\\n...\n      POP \t\t\t signer address\\n     */\\n    ...\n      SWAP3 \t\t\t baseURI) external onlyOwner {...\n      SWAP2 \t\t\t baseURI) external onlyOwner {...\n      POP \t\t\t baseURI) external onlyOwner {...\n      POP \t\t\t baseURI) external onlyOwner {...\n      JUMP \t\t\t baseURI) external onlyOwner {...\n    tag 113\t\t\t    * @param _allow Whether to...\n      JUMPDEST \t\t\t    * @param _allow Whether to...\n      PUSH 0\t\t\tetAllo\n      DUP1 \t\t\tublicM\n      PUSH 0\t\t\tting(b\n      PUSH 60\t\t\tlo\n      DUP5 \t\t\t{\\n       \n      DUP7 \t\t\tnlyOwne\n      SUB \t\t\tal onlyOwner {\\n        \n      SLT \t\t\tternal onlyOwner {\\n        al...\n      ISZERO \t\t\t external onlyOwner {\\n       ...\n      PUSH [tag] 881\t\t\t external onlyOwner {\\n       ...\n      JUMPI \t\t\t external onlyOwner {\\n       ...\n      PUSH [tag] 882\t\t\tlicMinting = _allow;\\n        ...\n      PUSH [tag] 616\t\t\tlicMinting = _allow;\\n        ...\n      JUMP \t\t\tlicMinting = _allow;\\n        ...\n    tag 882\t\t\tlicMinting = _allow;\\n        ...\n      JUMPDEST \t\t\tlicMinting = _allow;\\n        ...\n    tag 881\t\t\t external onlyOwner {\\n       ...\n      JUMPDEST \t\t\t external onlyOwner {\\n       ...\n      PUSH 0\t\t\te\n      PUSH [tag] 883\t\t\t @param tokenId The token ID\\n...\n      DUP7 \t\t\thether \n      DUP3 \t\t\t@retur\n      DUP8 \t\t\t ID\\n     \n      ADD \t\t\token ID\\n     * @return\n      PUSH [tag] 635\t\t\t @param tokenId The token ID\\n...\n      JUMP \t\t\t @param tokenId The token ID\\n...\n    tag 883\t\t\t @param tokenId The token ID\\n...\n      JUMPDEST \t\t\t @param tokenId The token ID\\n...\n      SWAP4 \t\t\t21)\\n     * @param tokenId The...\n      POP \t\t\t21)\\n     * @param tokenId The...\n      POP \t\t\tdev Check if token exists (ove...\n      PUSH 20\t\t\t25\n      PUSH [tag] 884\t\t\t returns (bool) {\\n        ret...\n      DUP7 \t\t\tenId) !\n      DUP3 \t\t\tnerOf(\n      DUP8 \t\t\t return _\n      ADD \t\t\t     return _ownerOf(t\n      PUSH [tag] 635\t\t\t returns (bool) {\\n        ret...\n      JUMP \t\t\t returns (bool) {\\n        ret...\n    tag 884\t\t\t returns (bool) {\\n        ret...\n      JUMPDEST \t\t\t returns (bool) {\\n        ret...\n      SWAP3 \t\t\ternal view returns (bool) {\\n ...\n      POP \t\t\ternal view returns (bool) {\\n ...\n      POP \t\t\t */\\n    function _exists(uint...\n      PUSH 40\t\t\tn \n      PUSH [tag] 885\t\t\t   \\n    /**\\n     * @dev Chec...\n      DUP7 \t\t\trevoked\n      DUP3 \t\t\ta DID \n      DUP8 \t\t\tv Check i\n      ADD \t\t\t @dev Check if a DID i\n      PUSH [tag] 651\t\t\t   \\n    /**\\n     * @dev Chec...\n      JUMP \t\t\t   \\n    /**\\n     * @dev Chec...\n    tag 885\t\t\t   \\n    /**\\n     * @dev Chec...\n      JUMPDEST \t\t\t   \\n    /**\\n     * @dev Chec...\n      SWAP2 \t\t\t========\\n    \\n    /**\\n     ...\n      POP \t\t\t========\\n    \\n    /**\\n     ...\n      POP \t\t\t    // ============ Revocation...\n      SWAP3 \t\t\t    * @param _allow Whether to...\n      POP \t\t\t    * @param _allow Whether to...\n      SWAP3 \t\t\t    * @param _allow Whether to...\n      POP \t\t\t    * @param _allow Whether to...\n      SWAP3 \t\t\t    * @param _allow Whether to...\n      JUMP \t\t\t    * @param _allow Whether to...\n    tag 660\t\t\twallet address\\n     * @return...\n      JUMPDEST \t\t\twallet address\\n     * @return...\n      PUSH 0\t\t\toked(addres\n      DUP3 \t\t\teturns\n      DUP3 \t\t\tiew\n      MSTORE \t\t\ternal view returns \n      PUSH 20\t\t\tr]) \n      DUP3 \t\t\td[u\n      ADD \t\t\tasDid[user]) {\n      SWAP1 \t\t\t        if (!_hasDid[user]) {\n      POP \t\t\t        if (!_hasDid[user]) {\n      SWAP3 \t\t\twallet address\\n     * @return...\n      SWAP2 \t\t\twallet address\\n     * @return...\n      POP \t\t\twallet address\\n     * @return...\n      POP \t\t\twallet address\\n     * @return...\n      JUMP \t\t\twallet address\\n     * @return...\n    tag 661\t\t\t return false;\\n        }\\n   ...\n      JUMPDEST \t\t\t return false;\\n        }\\n   ...\n      PUSH 0\t\t\trn \n      PUSH [tag] 888\t\t\t    }\\n    \\n    /**\\n     * @...\n      DUP3 \t\t\theck \n      PUSH [tag] 641\t\t\t    }\\n    \\n    /**\\n     * @...\n      JUMP \t\t\t    }\\n    \\n    /**\\n     * @...\n    tag 888\t\t\t    }\\n    \\n    /**\\n     * @...\n      JUMPDEST \t\t\t    }\\n    \\n    /**\\n     * @...\n      PUSH [tag] 889\t\t\ted by token ID\\n     * @param ...\n      DUP2 \t\t\tn Whet\n      DUP6 \t\t\tret\n      PUSH [tag] 660\t\t\ted by token ID\\n     * @param ...\n      JUMP \t\t\ted by token ID\\n     * @param ...\n    tag 889\t\t\ted by token ID\\n     * @param ...\n      JUMPDEST \t\t\ted by token ID\\n     * @param ...\n      SWAP4 \t\t\ts revoked by token ID\\n     * ...\n      POP \t\t\ts revoked by token ID\\n     * ...\n      PUSH [tag] 890\t\t\tD is revoked\\n     */\\n    fun...\n      DUP2 \t\t\tkenId)\n      DUP6 \t\t\t56 \n      PUSH 20\t\t\td(ui\n      DUP7 \t\t\tokedB\n      ADD \t\t\tsRevokedById(uin\n      PUSH [tag] 625\t\t\tD is revoked\\n     */\\n    fun...\n      JUMP \t\t\tD is revoked\\n     */\\n    fun...\n    tag 890\t\t\tD is revoked\\n     */\\n    fun...\n      JUMPDEST \t\t\tD is revoked\\n     */\\n    fun...\n      PUSH [tag] 891\t\t\tol) {\\n        return _revoked\n      DUP2 \t\t\trevoke\n      PUSH [tag] 626\t\t\tol) {\\n        return _revoked\n      JUMP \t\t\tol) {\\n        return _revoked\n    tag 891\t\t\tol) {\\n        return _revoked\n      JUMPDEST \t\t\tol) {\\n        return _revoked\n      DUP5 \t\t\ts (\n      ADD \t\t\tturns (bool) {\\n        return...\n      SWAP2 \t\t\tview returns (bool) {\\n       ...\n      POP \t\t\tview returns (bool) {\\n       ...\n      POP \t\t\trevokedTokens[tokenId];\\n    }...\n      SWAP3 \t\t\t return false;\\n        }\\n   ...\n      SWAP2 \t\t\t return false;\\n        }\\n   ...\n      POP \t\t\t return false;\\n        }\\n   ...\n      POP \t\t\t return false;\\n        }\\n   ...\n      JUMP \t\t\t return false;\\n        }\\n   ...\n    tag 141\t\t\td];\\n    }\\n    \\n    /**\\n   ...\n      JUMPDEST \t\t\td];\\n    }\\n    \\n    /**\\n   ...\n      PUSH 0\t\t\tm cl\n      PUSH 20\t\t\tth\n      DUP3 \t\t\tr to clea\n      ADD \t\t\tether to clear the\n      SWAP1 \t\t\trence Whether to clear the\n      POP \t\t\trence Whether to clear the\n      DUP2 \t\t\tble by DI\n      DUP2 \t\t\t cal\n      SUB \t\t\tOnly callable by DID\n      PUSH 0\t\t\ti\n      DUP4 \t\t\t     * @n\n      ADD \t\t\tnce\\n     * @notic\n      MSTORE \t\t\t reference\\n     * @notice Onl...\n      PUSH [tag] 893\t\t\tice Revoked DIDs cannot be upd...\n      DUP2 \t\t\t */\\n\n      DUP5 \t\t\tence\\n \n      PUSH [tag] 661\t\t\tice Revoked DIDs cannot be upd...\n      JUMP \t\t\tice Revoked DIDs cannot be upd...\n    tag 893\t\t\tice Revoked DIDs cannot be upd...\n      JUMPDEST \t\t\tice Revoked DIDs cannot be upd...\n      SWAP1 \t\t\t  * @notice Revoked DIDs canno...\n      POP \t\t\t  * @notice Revoked DIDs canno...\n      SWAP3 \t\t\td];\\n    }\\n    \\n    /**\\n   ...\n      SWAP2 \t\t\td];\\n    }\\n    \\n    /**\\n   ...\n      POP \t\t\td];\\n    }\\n    \\n    /**\\n   ...\n      POP \t\t\td];\\n    }\\n    \\n    /**\\n   ...\n      JUMP \t\t\td];\\n    }\\n    \\n    /**\\n   ...\n    tag 144\t\t\tevokeDid(bool clearChatReferen...\n      JUMPDEST \t\t\tevokeDid(bool clearChatReferen...\n      PUSH 0\t\t\tr) non\n      DUP1 \t\t\tentran\n      PUSH 40\t\t\tcl\n      DUP4 \t\t\tmsg.sende\n      DUP6 \t\t\tInterna\n      SUB \t\t\teDidInternal(msg.sender\n      SLT \t\t\tevokeDidInternal(msg.sender, c...\n      ISZERO \t\t\t _revokeDidInternal(msg.sender...\n      PUSH [tag] 895\t\t\t _revokeDidInternal(msg.sender...\n      JUMPI \t\t\t _revokeDidInternal(msg.sender...\n      PUSH [tag] 896\t\t\thatReference);\\n    }\\n    \\n ...\n      PUSH [tag] 616\t\t\thatReference);\\n    }\\n    \\n ...\n      JUMP \t\t\thatReference);\\n    }\\n    \\n ...\n    tag 896\t\t\thatReference);\\n    }\\n    \\n ...\n      JUMPDEST \t\t\thatReference);\\n    }\\n    \\n ...\n    tag 895\t\t\t _revokeDidInternal(msg.sender...\n      JUMPDEST \t\t\t _revokeDidInternal(msg.sender...\n      PUSH 0\t\t\t \n      PUSH [tag] 897\t\t\tby DID owner\\n     */\\n    fun...\n      DUP6 \t\t\t extern\n      DUP3 \t\t\tvokeDi\n      DUP7 \t\t\tfunction \n      ADD \t\t\t    function revokeDid\n      PUSH [tag] 635\t\t\tby DID owner\\n     */\\n    fun...\n      JUMP \t\t\tby DID owner\\n     */\\n    fun...\n    tag 897\t\t\tby DID owner\\n     */\\n    fun...\n      JUMPDEST \t\t\tby DID owner\\n     */\\n    fun...\n      SWAP3 \t\t\t callable by DID owner\\n     *...\n      POP \t\t\t callable by DID owner\\n     *...\n      POP \t\t\tat reference by default)\\n    ...\n      PUSH 20\t\t\t _\n      PUSH [tag] 898\t\t\tnder, true);\\n    }\\n    \\n   ...\n      DUP6 \t\t\tv Inter\n      DUP3 \t\t\t    * \n      DUP7 \t\t\t \\n    /**\n      ADD \t\t\t\\n    \\n    /**\\n     * @\n      PUSH [tag] 651\t\t\tnder, true);\\n    }\\n    \\n   ...\n      JUMP \t\t\tnder, true);\\n    }\\n    \\n   ...\n    tag 898\t\t\tnder, true);\\n    }\\n    \\n   ...\n      JUMPDEST \t\t\tnder, true);\\n    }\\n    \\n   ...\n      SWAP2 \t\t\tnal(msg.sender, true);\\n    }\\...\n      POP \t\t\tnal(msg.sender, true);\\n    }\\...\n      POP \t\t\tender) nonReentrant {\\n       ...\n      SWAP3 \t\t\tevokeDid(bool clearChatReferen...\n      POP \t\t\tevokeDid(bool clearChatReferen...\n      SWAP3 \t\t\tevokeDid(bool clearChatReferen...\n      SWAP1 \t\t\tevokeDid(bool clearChatReferen...\n      POP \t\t\tevokeDid(bool clearChatReferen...\n      JUMP \t\t\tevokeDid(bool clearChatReferen...\n    tag 662\t\t\t DID\\n     * @param user The u...\n      JUMPDEST \t\t\t DID\\n     * @param user The u...\n      PUSH 0\t\t\trevo\n      PUSH FFFFFFFFFFFFFFFF\t\t\t    function _revo\n      DUP3 \t\t\t     *\n      GT \t\t\tce\\n     */\\n    function _rev...\n      ISZERO \t\t\trence\\n     */\\n    function _...\n      PUSH [tag] 900\t\t\trence\\n     */\\n    function _...\n      JUMPI \t\t\trence\\n     */\\n    function _...\n      PUSH [tag] 901\t\t\tdInternal(address \n      PUSH [tag] 539\t\t\tdInternal(address \n      JUMP \t\t\tdInternal(address \n    tag 901\t\t\tdInternal(address \n      JUMPDEST \t\t\tdInternal(address \n    tag 900\t\t\trence\\n     */\\n    function _...\n      JUMPDEST \t\t\trence\\n     */\\n    function _...\n      PUSH [tag] 902\t\t\tReference) internal {\\n       \n      DUP3 \t\t\t      \n      PUSH [tag] 626\t\t\tReference) internal {\\n       \n      JUMP \t\t\tReference) internal {\\n       \n    tag 902\t\t\tReference) internal {\\n       \n      JUMPDEST \t\t\tReference) internal {\\n       \n      SWAP1 \t\t\tlearChatReference) internal {\\...\n      POP \t\t\tlearChatReference) internal {\\...\n      PUSH 20\t\t\tre(!\n      DUP2 \t\t\t req\n      ADD \t\t\t     require(!_\n      SWAP1 \t\t\ter];\\n        require(!_\n      POP \t\t\ter];\\n        require(!_\n      SWAP2 \t\t\t DID\\n     * @param user The u...\n      SWAP1 \t\t\t DID\\n     * @param user The u...\n      POP \t\t\t DID\\n     * @param user The u...\n      JUMP \t\t\t DID\\n     * @param user The u...\n    tag 663\t\t\t[tokenId], \"Revoked\");\\n      ...\n      JUMPDEST \t\t\t[tokenId], \"Revoked\");\\n      ...\n      PUSH 0\t\t\tkens[\n      PUSH [tag] 904\t\t\t     _revokedAddresses[user] =...\n      PUSH [tag] 905\t\t\tresses[user] = true;\\n        ...\n      DUP5 \t\t\tOption\n      PUSH [tag] 662\t\t\tresses[user] = true;\\n        ...\n      JUMP \t\t\tresses[user] = true;\\n        ...\n    tag 905\t\t\tresses[user] = true;\\n        ...\n      JUMPDEST \t\t\tresses[user] = true;\\n        ...\n      PUSH [tag] 655\t\t\t     _revokedAddresses[user] =...\n      JUMP \t\t\t     _revokedAddresses[user] =...\n    tag 904\t\t\t     _revokedAddresses[user] =...\n      JUMPDEST \t\t\t     _revokedAddresses[user] =...\n      SWAP1 \t\t\ttrue;\\n        _revokedAddress...\n      POP \t\t\ttrue;\\n        _revokedAddress...\n      DUP3 \t\t\t\\n     \n      DUP2 \t\t\tferen\n      MSTORE \t\t\tchat reference\\n      \n      PUSH 20\t\t\t    \n      DUP2 \t\t\t) {\\n \n      ADD \t\t\tence) {\\n        \n      DUP5 \t\t\t_to\n      DUP5 \t\t\trofile\n      DUP5 \t\t\tage\n      ADD \t\t\tstorage profile \n      GT \t\t\tle storage profile = _tok\n      ISZERO \t\t\tofile storage profile = _token...\n      PUSH [tag] 906\t\t\tofile storage profile = _token...\n      JUMPI \t\t\tofile storage profile = _token...\n      PUSH [tag] 907\t\t\trofiles[tokenId];\\n           ...\n      PUSH [tag] 653\t\t\trofiles[tokenId];\\n           ...\n      JUMP \t\t\trofiles[tokenId];\\n           ...\n    tag 907\t\t\trofiles[tokenId];\\n           ...\n      JUMPDEST \t\t\trofiles[tokenId];\\n           ...\n    tag 906\t\t\tofile storage profile = _token...\n      JUMPDEST \t\t\tofile storage profile = _token...\n      PUSH [tag] 908\t\t\tencryptedKeyMetadata = bytes(\"...\n      DUP5 \t\t\trofile\n      DUP3 \t\t\t   \n      DUP6 \t\t\t   \n      PUSH [tag] 657\t\t\tencryptedKeyMetadata = bytes(\"...\n      JUMP \t\t\tencryptedKeyMetadata = bytes(\"...\n    tag 908\t\t\tencryptedKeyMetadata = bytes(\"...\n      JUMPDEST \t\t\tencryptedKeyMetadata = bytes(\"...\n      POP \t\t\tokenId] = true;\\n        _revo...\n      SWAP4 \t\t\t[tokenId], \"Revoked\");\\n      ...\n      SWAP3 \t\t\t[tokenId], \"Revoked\");\\n      ...\n      POP \t\t\t[tokenId], \"Revoked\");\\n      ...\n      POP \t\t\t[tokenId], \"Revoked\");\\n      ...\n      POP \t\t\t[tokenId], \"Revoked\");\\n      ...\n      JUMP \t\t\t[tokenId], \"Revoked\");\\n      ...\n    tag 664\t\t\tock.timestamp);\\n        }\\n  ...\n      JUMPDEST \t\t\tock.timestamp);\\n        }\\n  ...\n      PUSH 0\t\t\tked(u\n      DUP3 \t\t\t}\\n\\n\n      PUSH 1F\t\t\t);\\n \n      DUP4 \t\t\tmestam\n      ADD \t\t\tk.timestamp));\\n  \n      SLT \t\t\tblock.timestamp));\\n    }\\n\\n \n      PUSH [tag] 910\t\t\td, uint64(block.timestamp));\\n...\n      JUMPI \t\t\td, uint64(block.timestamp));\\n...\n      PUSH [tag] 911\t\t\t/ ============ Migration Funct...\n      PUSH [tag] 645\t\t\t/ ============ Migration Funct...\n      JUMP \t\t\t/ ============ Migration Funct...\n    tag 911\t\t\t/ ============ Migration Funct...\n      JUMPDEST \t\t\t/ ============ Migration Funct...\n    tag 910\t\t\td, uint64(block.timestamp));\\n...\n      JUMPDEST \t\t\td, uint64(block.timestamp));\\n...\n      DUP2 \t\t\tdmin/b\n      CALLDATALOAD \t\t\tnew wallet (admin/ba\n      PUSH [tag] 912\t\t\t @param oldWallet The old wall...\n      DUP5 \t\t\tall\n      DUP3 \t\t\the new\n      PUSH 20\t\t\talle\n      DUP7 \t\t\tram ne\n      ADD \t\t\t @param newWallet\n      PUSH [tag] 663\t\t\t @param oldWallet The old wall...\n      JUMP \t\t\t @param oldWallet The old wall...\n    tag 912\t\t\t @param oldWallet The old wall...\n      JUMPDEST \t\t\t @param oldWallet The old wall...\n      SWAP2 \t\t\ty)\\n     * @param oldWallet Th...\n      POP \t\t\ty)\\n     * @param oldWallet Th...\n      POP \t\t\ter, tokenId, uint64(block.time...\n      SWAP3 \t\t\tock.timestamp);\\n        }\\n  ...\n      SWAP2 \t\t\tock.timestamp);\\n        }\\n  ...\n      POP \t\t\tock.timestamp);\\n        }\\n  ...\n      POP \t\t\tock.timestamp);\\n        }\\n  ...\n      JUMP \t\t\tock.timestamp);\\n        }\\n  ...\n    tag 148\t\t\t   * @param clearChatReference...\n      JUMPDEST \t\t\t   * @param clearChatReference...\n      PUSH 0\t\t\tThis i\n      DUP1 \t\t\ta supp\n      PUSH 0\t\t\tt-driv\n      DUP1 \t\t\t proce\n      PUSH 80\t\t\t ca\n      DUP6 \t\t\t@notice O\n      DUP8 \t\t\tn\\n     \n      SUB \t\t\tation\\n     * @notice On\n      SLT \t\t\tmigration\\n     * @notice Only...\n      ISZERO \t\t\tet migration\\n     * @notice O...\n      PUSH [tag] 914\t\t\tet migration\\n     * @notice O...\n      JUMPI \t\t\tet migration\\n     * @notice O...\n      PUSH [tag] 915\t\t\tle by contract owner or backen...\n      PUSH [tag] 616\t\t\tle by contract owner or backen...\n      JUMP \t\t\tle by contract owner or backen...\n    tag 915\t\t\tle by contract owner or backen...\n      JUMPDEST \t\t\tle by contract owner or backen...\n    tag 914\t\t\tet migration\\n     * @notice O...\n      JUMPDEST \t\t\tet migration\\n     * @notice O...\n      PUSH 0\t\t\t \n      PUSH [tag] 916\t\t\t     address oldWallet,\\n     ...\n      DUP8 \t\t\tllet,\\n \n      DUP3 \t\t\tess ne\n      DUP9 \t\t\t       ad\n      ADD \t\t\tt,\\n        address new\n      PUSH [tag] 635\t\t\t     address oldWallet,\\n     ...\n      JUMP \t\t\t     address oldWallet,\\n     ...\n    tag 916\t\t\t     address oldWallet,\\n     ...\n      JUMPDEST \t\t\t     address oldWallet,\\n     ...\n      SWAP5 \t\t\tteDid(\\n        address oldWal...\n      POP \t\t\tteDid(\\n        address oldWal...\n      POP \t\t\tet gets a new DID\\n     */\\n  ...\n      PUSH 20\t\t\tee\n      PUSH [tag] 917\t\t\t(\\n            msg.sender == o...\n      DUP8 \t\t\tnder ==\n      DUP3 \t\t\t|| msg\n      DUP9 \t\t\t== owner(\n      ADD \t\t\tder == owner() || msg.\n      PUSH [tag] 635\t\t\t(\\n            msg.sender == o...\n      JUMP \t\t\t(\\n            msg.sender == o...\n    tag 917\t\t\t(\\n            msg.sender == o...\n      JUMPDEST \t\t\t(\\n            msg.sender == o...\n      SWAP4 \t\t\t   require(\\n            msg.s...\n      POP \t\t\t   require(\\n            msg.s...\n      POP \t\t\tReference\\n    ) external nonR...\n      PUSH 40\t\t\t  \n      PUSH [tag] 918\t\t\tallet != address(0), \"Zero add...\n      DUP8 \t\t\tquire(n\n      DUP3 \t\t\t      \n      DUP9 \t\t\to addr\");\n      ADD \t\t\t\"Zero addr\");\\n        \n      PUSH [tag] 630\t\t\tallet != address(0), \"Zero add...\n      JUMP \t\t\tallet != address(0), \"Zero add...\n    tag 918\t\t\tallet != address(0), \"Zero add...\n      JUMPDEST \t\t\tallet != address(0), \"Zero add...\n      SWAP3 \t\t\tquire(oldWallet != address(0),...\n      POP \t\t\tquire(oldWallet != address(0),...\n      POP \t\t\t       \"Not authorized\"\\n     ...\n      PUSH 60\t\t\t\"S\n      DUP6 \t\t\tnewWallet\n      ADD \t\t\t != newWallet, \"Sa\n      CALLDATALOAD \t\t\tire(oldWallet != newWallet, \"S...\n      PUSH FFFFFFFFFFFFFFFF\t\t\t(_hasDid[oldWallet\n      DUP2 \t\t\t requi\n      GT \t\t\t    require(_hasDid[oldWallet]\n      ISZERO \t\t\t       require(_hasDid[oldWall...\n      PUSH [tag] 919\t\t\t       require(_hasDid[oldWall...\n      JUMPI \t\t\t       require(_hasDid[oldWall...\n      PUSH [tag] 920\t\t\tNo DID\");\\n        require(!_h...\n      PUSH [tag] 617\t\t\tNo DID\");\\n        require(!_h...\n      JUMP \t\t\tNo DID\");\\n        require(!_h...\n    tag 920\t\t\tNo DID\");\\n        require(!_h...\n      JUMPDEST \t\t\tNo DID\");\\n        require(!_h...\n    tag 919\t\t\t       require(_hasDid[oldWall...\n      JUMPDEST \t\t\t       require(_hasDid[oldWall...\n      PUSH [tag] 921\t\t\tTokenId[oldWallet];\\n        r...\n      DUP8 \t\t\tdTokenI\n      DUP3 \t\t\tTokens\n      DUP9 \t\t\te(!_revok\n      ADD \t\t\tquire(!_revokedTokens[\n      PUSH [tag] 664\t\t\tTokenId[oldWallet];\\n        r...\n      JUMP \t\t\tTokenId[oldWallet];\\n        r...\n    tag 921\t\t\tTokenId[oldWallet];\\n        r...\n      JUMPDEST \t\t\tTokenId[oldWallet];\\n        r...\n      SWAP2 \t\t\t= _ownerToTokenId[oldWallet];\\...\n      POP \t\t\t= _ownerToTokenId[oldWallet];\\...\n      POP \t\t\t), \"Zero addr\");\\n        requ...\n      SWAP3 \t\t\t   * @param clearChatReference...\n      SWAP6 \t\t\t   * @param clearChatReference...\n      SWAP2 \t\t\t   * @param clearChatReference...\n      SWAP5 \t\t\t   * @param clearChatReference...\n      POP \t\t\t   * @param clearChatReference...\n      SWAP3 \t\t\t   * @param clearChatReference...\n      POP \t\t\t   * @param clearChatReference...\n      JUMP \t\t\t   * @param clearChatReference...\n    tag 166\t\t\t\\n        // Revoke old DID\\n ...\n      JUMPDEST \t\t\t\\n        // Revoke old DID\\n ...\n      PUSH 0\t\t\t      \n      DUP1 \t\t\t_revok\n      PUSH 20\t\t\t  \n      DUP4 \t\t\t        \\n\n      DUP6 \t\t\t = true\n      SUB \t\t\tlet] = true;\\n        \\n \n      SLT \t\t\tdWallet] = true;\\n        \\n  ...\n      ISZERO \t\t\t[oldWallet] = true;\\n        \\...\n      PUSH [tag] 923\t\t\t[oldWallet] = true;\\n        \\...\n      JUMPI \t\t\t[oldWallet] = true;\\n        \\...\n      PUSH [tag] 924\t\t\t/ Create new DID for new walle...\n      PUSH [tag] 616\t\t\t/ Create new DID for new walle...\n      JUMP \t\t\t/ Create new DID for new walle...\n    tag 924\t\t\t/ Create new DID for new walle...\n      JUMPDEST \t\t\t/ Create new DID for new walle...\n    tag 923\t\t\t[oldWallet] = true;\\n        \\...\n      JUMPDEST \t\t\t[oldWallet] = true;\\n        \\...\n      PUSH 0\t\t\te\n      DUP4 \t\t\ta if not \n      ADD \t\t\t data if not clea\n      CALLDATALOAD \t\t\t Copy profile data if not clea...\n      PUSH FFFFFFFFFFFFFFFF\t\t\try oldProfile = _t\n      DUP2 \t\t\tile me\n      GT \t\t\trofile memory oldProfile = _to\n      ISZERO \t\t\tidProfile memory oldProfile = ...\n      PUSH [tag] 925\t\t\tidProfile memory oldProfile = ...\n      JUMPI \t\t\tidProfile memory oldProfile = ...\n      PUSH [tag] 926\t\t\tProfiles[oldTokenId];\\n       ...\n      PUSH [tag] 617\t\t\tProfiles[oldTokenId];\\n       ...\n      JUMP \t\t\tProfiles[oldTokenId];\\n       ...\n    tag 926\t\t\tProfiles[oldTokenId];\\n       ...\n      JUMPDEST \t\t\tProfiles[oldTokenId];\\n       ...\n    tag 925\t\t\tidProfile memory oldProfile = ...\n      JUMPDEST \t\t\tidProfile memory oldProfile = ...\n      PUSH [tag] 927\t\t\t   createdAt: uint64(block.tim...\n      DUP6 \t\t\tpdatedA\n      DUP3 \t\t\t    la\n      DUP7 \t\t\t),\\n      \n      ADD \t\t\ttamp),\\n            las\n      PUSH [tag] 652\t\t\t   createdAt: uint64(block.tim...\n      JUMP \t\t\t   createdAt: uint64(block.tim...\n    tag 927\t\t\t   createdAt: uint64(block.tim...\n      JUMPDEST \t\t\t   createdAt: uint64(block.tim...\n      SWAP3 \t\t\twWallet,\\n            createdA...\n      POP \t\t\twWallet,\\n            createdA...\n      SWAP3 \t\t\twWallet,\\n            createdA...\n      POP \t\t\twWallet,\\n            createdA...\n      POP \t\t\tnCounter;\\n        \\n        /...\n      SWAP3 \t\t\t\\n        // Revoke old DID\\n ...\n      POP \t\t\t\\n        // Revoke old DID\\n ...\n      SWAP3 \t\t\t\\n        // Revoke old DID\\n ...\n      SWAP1 \t\t\t\\n        // Revoke old DID\\n ...\n      POP \t\t\t\\n        // Revoke old DID\\n ...\n      JUMP \t\t\t\\n        // Revoke old DID\\n ...\n    tag 178\t\t\tp),\\n            chatDataRefer...\n      JUMPDEST \t\t\tp),\\n            chatDataRefer...\n      PUSH 0\t\t\t oldPr\n      DUP1 \t\t\tile.ch\n      PUSH 40\t\t\tta\n      DUP4 \t\t\tcryptedKe\n      DUP6 \t\t\t       \n      SUB \t\t\t           encryptedKey\n      SLT \t\t\te,\\n            encryptedKeyMe...\n      ISZERO \t\t\tence,\\n            encryptedKe...\n      PUSH [tag] 929\t\t\tence,\\n            encryptedKe...\n      JUMPI \t\t\tence,\\n            encryptedKe...\n      PUSH [tag] 930\t\t\t: clearChatReference ? bytes(\"...\n      PUSH [tag] 616\t\t\t: clearChatReference ? bytes(\"...\n      JUMP \t\t\t: clearChatReference ? bytes(\"...\n    tag 930\t\t\t: clearChatReference ? bytes(\"...\n      JUMPDEST \t\t\t: clearChatReference ? bytes(\"...\n    tag 929\t\t\tence,\\n            encryptedKe...\n      JUMPDEST \t\t\tence,\\n            encryptedKe...\n      PUSH 0\t\t\td\n      PUSH [tag] 931\t\t\t_ownerToTokenId[newWallet] = n...\n      DUP6 \t\t\t    _ha\n      DUP3 \t\t\tnId;\\n \n      DUP7 \t\t\t] = newTo\n      ADD \t\t\tllet] = newTokenId;\\n  \n      PUSH [tag] 635\t\t\t_ownerToTokenId[newWallet] = n...\n      JUMP \t\t\t_ownerToTokenId[newWallet] = n...\n    tag 931\t\t\t_ownerToTokenId[newWallet] = n...\n      JUMPDEST \t\t\t_ownerToTokenId[newWallet] = n...\n      SWAP3 \t\t\t;\\n        _ownerToTokenId[new...\n      POP \t\t\t;\\n        _ownerToTokenId[new...\n      POP \t\t\t     _tokenProfiles[newTokenId...\n      PUSH 20\t\t\tew\n      PUSH [tag] 932\t\t\tsafeMint(newWallet, newTokenId...\n      DUP6 \t\t\t     em\n      DUP3 \t\t\t     \\n\n      DUP7 \t\t\tkenId);\\n \n      ADD \t\t\tewTokenId);\\n        \\n \n      PUSH [tag] 635\t\t\tsafeMint(newWallet, newTokenId...\n      JUMP \t\t\tsafeMint(newWallet, newTokenId...\n    tag 932\t\t\tsafeMint(newWallet, newTokenId...\n      JUMPDEST \t\t\tsafeMint(newWallet, newTokenId...\n      SWAP2 \t\t\t\\n        _safeMint(newWallet,...\n      POP \t\t\t\\n        _safeMint(newWallet,...\n      POP \t\t\te;\\n        \\n        // Mint ...\n      SWAP3 \t\t\tp),\\n            chatDataRefer...\n      POP \t\t\tp),\\n            chatDataRefer...\n      SWAP3 \t\t\tp),\\n            chatDataRefer...\n      SWAP1 \t\t\tp),\\n            chatDataRefer...\n      POP \t\t\tp),\\n            chatDataRefer...\n      JUMP \t\t\tp),\\n            chatDataRefer...\n    tag 665\t\t\t oldTokenId, uint64(block.time...\n      JUMPDEST \t\t\t oldTokenId, uint64(block.time...\n      PUSH [tag] 934\t\t\tint64(block.timestamp));\n      DUP2 \t\t\tamp))\n      PUSH [tag] 639\t\t\tint64(block.timestamp));\n      JUMP \t\t\tint64(block.timestamp));\n    tag 934\t\t\tint64(block.timestamp));\n      JUMPDEST \t\t\tint64(block.timestamp));\n      DUP3 \t\t\tId,\n      MSTORE \t\t\tewTokenId, uint64(block.timest...\n      POP \t\t\t oldTokenId, uint64(block.time...\n      POP \t\t\t oldTokenId, uint64(block.time...\n      JUMP \t\t\t oldTokenId, uint64(block.time...\n    tag 195\t\t\t DidMigrated(oldWallet, newWal...\n      JUMPDEST \t\t\t DidMigrated(oldWallet, newWal...\n      PUSH 0\t\t\t\n      PUSH 20\t\t\t\n      DUP3 \t\t\t\n      ADD \t\t\t\n      SWAP1 \t\t\t\n      POP \t\t\t\n      PUSH [tag] 936\t\t\t\n      PUSH 0\t\t\t\n      DUP4 \t\t\t\n      ADD \t\t\t\n      DUP5 \t\t\t\n      PUSH [tag] 665\t\t\t\n      JUMP \t\t\t\n    tag 936\t\t\t\n      JUMPDEST \t\t\t\n      SWAP3 \t\t\t DidMigrated(oldWallet, newWal...\n      SWAP2 \t\t\t DidMigrated(oldWallet, newWal...\n      POP \t\t\t DidMigrated(oldWallet, newWal...\n      POP \t\t\t DidMigrated(oldWallet, newWal...\n      JUMP \t\t\t DidMigrated(oldWallet, newWal...\n    tag 666\t\t\t\n      JUMPDEST \t\t\t\n      PUSH 4E487B7100000000000000000000000000000000000000000000000000000000\t\t\t\n      PUSH 0\t\t\t\n      MSTORE \t\t\t\n      PUSH 22\t\t\t\n      PUSH 4\t\t\t\n      MSTORE \t\t\t\n      PUSH 24\t\t\t\n      PUSH 0\t\t\t\n      REVERT \t\t\t\n    tag 203\t\t\t\n      JUMPDEST \t\t\t\n      PUSH 0\t\t\t\n      PUSH 2\t\t\t\n      DUP3 \t\t\t\n      DIV \t\t\t\n      SWAP1 \t\t\t\n      POP \t\t\t\n      PUSH 1\t\t\t\n      DUP3 \t\t\t\n      AND \t\t\t\n      DUP1 \t\t\t\n      PUSH [tag] 939\t\t\t\n      JUMPI \t\t\t\n      PUSH 7F\t\t\t\n      DUP3 \t\t\t\n      AND \t\t\t\n      SWAP2 \t\t\t\n      POP \t\t\t\n    tag 939\t\t\t\n      JUMPDEST \t\t\t\n      PUSH 20\t\t\t\n      DUP3 \t\t\t\n      LT \t\t\t\n      DUP2 \t\t\t\n      SUB \t\t\t\n      PUSH [tag] 940\t\t\t\n      JUMPI \t\t\t\n      PUSH [tag] 941\t\t\t\n      PUSH [tag] 666\t\t\t\n      JUMP \t\t\t\n    tag 941\t\t\t\n      JUMPDEST \t\t\t\n    tag 940\t\t\t\n      JUMPDEST \t\t\t\n      POP \t\t\t\n      SWAP2 \t\t\t\n      SWAP1 \t\t\t\n      POP \t\t\t\n      JUMP \t\t\t\n    tag 667\t\t\t\n      JUMPDEST \t\t\t\n      PUSH 536F756C626F756E640000000000000000000000000000000000000000000000\t\t\t\n      PUSH 0\t\t\t\n      DUP3 \t\t\t\n      ADD \t\t\t\n      MSTORE \t\t\t\n      POP \t\t\t\n      JUMP \t\t\t\n    tag 668\t\t\t\n      JUMPDEST \t\t\t\n      PUSH 0\t\t\t\n      PUSH [tag] 944\t\t\t\n      PUSH 9\t\t\t\n      DUP4 \t\t\t\n      PUSH [tag] 624\t\t\t\n      JUMP \t\t\t\n    tag 944\t\t\t\n      JUMPDEST \t\t\t\n      SWAP2 \t\t\t\n      POP \t\t\t\n      PUSH [tag] 945\t\t\t\n      DUP3 \t\t\t\n      PUSH [tag] 667\t\t\t\n      JUMP \t\t\t\n    tag 945\t\t\t\n      JUMPDEST \t\t\t\n      PUSH 20\t\t\t\n      DUP3 \t\t\t\n      ADD \t\t\t\n      SWAP1 \t\t\t\n      POP \t\t\t\n      SWAP2 \t\t\t\n      SWAP1 \t\t\t\n      POP \t\t\t\n      JUMP \t\t\t\n    tag 215\t\t\t\n      JUMPDEST \t\t\t\n      PUSH 0\t\t\t\n      PUSH 20\t\t\t\n      DUP3 \t\t\t\n      ADD \t\t\t\n      SWAP1 \t\t\t\n      POP \t\t\t\n      DUP2 \t\t\t\n      DUP2 \t\t\t\n      SUB \t\t\t\n      PUSH 0\t\t\t\n      DUP4 \t\t\t\n      ADD \t\t\t\n      MSTORE \t\t\t\n      PUSH [tag] 947\t\t\t\n      DUP2 \t\t\t\n      PUSH [tag] 668\t\t\t\n      JUMP \t\t\t\n    tag 947\t\t\t\n      JUMPDEST \t\t\t\n      SWAP1 \t\t\t\n      POP \t\t\t\n      SWAP2 \t\t\t\n      SWAP1 \t\t\t\n      POP \t\t\t\n      JUMP \t\t\t\n    tag 669\t\t\t\n      JUMPDEST \t\t\t\n      PUSH 4E6F204449440000000000000000000000000000000000000000000000000000\t\t\t\n      PUSH 0\t\t\t\n      DUP3 \t\t\t\n      ADD \t\t\t\n      MSTORE \t\t\t\n      POP \t\t\t\n      JUMP \t\t\t\n    tag 670\t\t\t\n      JUMPDEST \t\t\t\n      PUSH 0\t\t\t\n      PUSH [tag] 950\t\t\t\n      PUSH 6\t\t\t\n      DUP4 \t\t\t\n      PUSH [tag] 624\t\t\t\n      JUMP \t\t\t\n    tag 950\t\t\t\n      JUMPDEST \t\t\t\n      SWAP2 \t\t\t\n      POP \t\t\t\n      PUSH [tag] 951\t\t\t\n      DUP3 \t\t\t\n      PUSH [tag] 669\t\t\t\n      JUMP \t\t\t\n    tag 951\t\t\t\n      JUMPDEST \t\t\t\n      PUSH 20\t\t\t\n      DUP3 \t\t\t\n      ADD \t\t\t\n      SWAP1 \t\t\t\n      POP \t\t\t\n      SWAP2 \t\t\t\n      SWAP1 \t\t\t\n      POP \t\t\t\n      JUMP \t\t\t\n    tag 221\t\t\t\n      JUMPDEST \t\t\t\n      PUSH 0\t\t\t\n      PUSH 20\t\t\t\n      DUP3 \t\t\t\n      ADD \t\t\t\n      SWAP1 \t\t\t\n      POP \t\t\t\n      DUP2 \t\t\t\n      DUP2 \t\t\t\n      SUB \t\t\t\n      PUSH 0\t\t\t\n      DUP4 \t\t\t\n      ADD \t\t\t\n      MSTORE \t\t\t\n      PUSH [tag] 953\t\t\t\n      DUP2 \t\t\t\n      PUSH [tag] 670\t\t\t\n      JUMP \t\t\t\n    tag 953\t\t\t\n      JUMPDEST \t\t\t\n      SWAP1 \t\t\t\n      POP \t\t\t\n      SWAP2 \t\t\t\n      SWAP1 \t\t\t\n      POP \t\t\t\n      JUMP \t\t\t\n    tag 671\t\t\t\n      JUMPDEST \t\t\t\n      PUSH 4E6F74206F776E65720000000000000000000000000000000000000000000000\t\t\t\n      PUSH 0\t\t\t\n      DUP3 \t\t\t\n      ADD \t\t\t\n      MSTORE \t\t\t\n      POP \t\t\t\n      JUMP \t\t\t\n    tag 672\t\t\t\n      JUMPDEST \t\t\t\n      PUSH 0\t\t\t\n      PUSH [tag] 956\t\t\t\n      PUSH 9\t\t\t\n      DUP4 \t\t\t\n      PUSH [tag] 624\t\t\t\n      JUMP \t\t\t\n    tag 956\t\t\t\n      JUMPDEST \t\t\t\n      SWAP2 \t\t\t\n      POP \t\t\t\n      PUSH [tag] 957\t\t\t\n      DUP3 \t\t\t\n      PUSH [tag] 671\t\t\t\n      JUMP \t\t\t\n    tag 957\t\t\t\n      JUMPDEST \t\t\t\n      PUSH 20\t\t\t\n      DUP3 \t\t\t\n      ADD \t\t\t\n      SWAP1 \t\t\t\n      POP \t\t\t\n      SWAP2 \t\t\t\n      SWAP1 \t\t\t\n      POP \t\t\t\n      JUMP \t\t\t\n    tag 232\t\t\t\n      JUMPDEST \t\t\t\n      PUSH 0\t\t\t\n      PUSH 20\t\t\t\n      DUP3 \t\t\t\n      ADD \t\t\t\n      SWAP1 \t\t\t\n      POP \t\t\t\n      DUP2 \t\t\t\n      DUP2 \t\t\t\n      SUB \t\t\t\n      PUSH 0\t\t\t\n      DUP4 \t\t\t\n      ADD \t\t\t\n      MSTORE \t\t\t\n      PUSH [tag] 959\t\t\t\n      DUP2 \t\t\t\n      PUSH [tag] 672\t\t\t\n      JUMP \t\t\t\n    tag 959\t\t\t\n      JUMPDEST \t\t\t\n      SWAP1 \t\t\t\n      POP \t\t\t\n      SWAP2 \t\t\t\n      SWAP1 \t\t\t\n      POP \t\t\t\n      JUMP \t\t\t\n    tag 673\t\t\t\n      JUMPDEST \t\t\t\n      PUSH 5265766F6B656400000000000000000000000000000000000000000000000000\t\t\t\n      PUSH 0\t\t\t\n      DUP3 \t\t\t\n      ADD \t\t\t\n      MSTORE \t\t\t\n      POP \t\t\t\n      JUMP \t\t\t\n    tag 674\t\t\t\n      JUMPDEST \t\t\t\n      PUSH 0\t\t\t\n      PUSH [tag] 962\t\t\t\n      PUSH 7\t\t\t\n      DUP4 \t\t\t\n      PUSH [tag] 624\t\t\t\n      JUMP \t\t\t\n    tag 962\t\t\t\n      JUMPDEST \t\t\t\n      SWAP2 \t\t\t\n      POP \t\t\t\n      PUSH [tag] 963\t\t\t\n      DUP3 \t\t\t\n      PUSH [tag] 673\t\t\t\n      JUMP \t\t\t\n    tag 963\t\t\t\n      JUMPDEST \t\t\t\n      PUSH 20\t\t\t\n      DUP3 \t\t\t\n      ADD \t\t\t\n      SWAP1 \t\t\t\n      POP \t\t\t\n      SWAP2 \t\t\t\n      SWAP1 \t\t\t\n      POP \t\t\t\n      JUMP \t\t\t\n    tag 238\t\t\t\n      JUMPDEST \t\t\t\n      PUSH 0\t\t\t\n      PUSH 20\t\t\t\n      DUP3 \t\t\t\n      ADD \t\t\t\n      SWAP1 \t\t\t\n      POP \t\t\t\n      DUP2 \t\t\t\n      DUP2 \t\t\t\n      SUB \t\t\t\n      PUSH 0\t\t\t\n      DUP4 \t\t\t\n      ADD \t\t\t\n      MSTORE \t\t\t\n      PUSH [tag] 965\t\t\t\n      DUP2 \t\t\t\n      PUSH [tag] 674\t\t\t\n      JUMP \t\t\t\n    tag 965\t\t\t\n      JUMPDEST \t\t\t\n      SWAP1 \t\t\t\n      POP \t\t\t\n      SWAP2 \t\t\t\n      SWAP1 \t\t\t\n      POP \t\t\t\n      JUMP \t\t\t\n    tag 675\t\t\t\n      JUMPDEST \t\t\t\n      PUSH 0\t\t\t\n      DUP2 \t\t\t\n      SWAP1 \t\t\t\n      POP \t\t\t\n      SWAP3 \t\t\t\n      SWAP2 \t\t\t\n      POP \t\t\t\n      POP \t\t\t\n      JUMP \t\t\t\n    tag 676\t\t\t\n      JUMPDEST \t\t\t\n      PUSH 0\t\t\t\n      PUSH [tag] 968\t\t\t\n      DUP4 \t\t\t\n      DUP6 \t\t\t\n      PUSH [tag] 675\t\t\t\n      JUMP \t\t\t\n    tag 968\t\t\t\n      JUMPDEST \t\t\t\n      SWAP4 \t\t\t\n      POP \t\t\t\n      PUSH [tag] 969\t\t\t\n      DUP4 \t\t\t\n      DUP6 \t\t\t\n      DUP5 \t\t\t\n      PUSH [tag] 657\t\t\t\n      JUMP \t\t\t\n    tag 969\t\t\t\n      JUMPDEST \t\t\t\n      DUP3 \t\t\t\n      DUP5 \t\t\t\n      ADD \t\t\t\n      SWAP1 \t\t\t\n      POP \t\t\t\n      SWAP4 \t\t\t\n      SWAP3 \t\t\t\n      POP \t\t\t\n      POP \t\t\t\n      POP \t\t\t\n      JUMP \t\t\t\n    tag 244\t\t\t\n      JUMPDEST \t\t\t\n      PUSH 0\t\t\t\n      PUSH [tag] 971\t\t\t\n      DUP3 \t\t\t\n      DUP5 \t\t\t\n      DUP7 \t\t\t\n      PUSH [tag] 676\t\t\t\n      JUMP \t\t\t\n    tag 971\t\t\t\n      JUMPDEST \t\t\t\n      SWAP2 \t\t\t\n      POP \t\t\t\n      DUP2 \t\t\t\n      SWAP1 \t\t\t\n      POP \t\t\t\n      SWAP4 \t\t\t\n      SWAP3 \t\t\t\n      POP \t\t\t\n      POP \t\t\t\n      POP \t\t\t\n      JUMP \t\t\t\n    tag 677\t\t\t\n      JUMPDEST \t\t\t\n      PUSH [tag] 973\t\t\t\n      DUP2 \t\t\t\n      PUSH [tag] 637\t\t\t\n      JUMP \t\t\t\n    tag 973\t\t\t\n      JUMPDEST \t\t\t\n      DUP3 \t\t\t\n      MSTORE \t\t\t\n      POP \t\t\t\n      POP \t\t\t\n      JUMP \t\t\t\n    tag 246\t\t\t\n      JUMPDEST \t\t\t\n      PUSH 0\t\t\t\n      PUSH 20\t\t\t\n      DUP3 \t\t\t\n      ADD \t\t\t\n      SWAP1 \t\t\t\n      POP \t\t\t\n      PUSH [tag] 975\t\t\t\n      PUSH 0\t\t\t\n      DUP4 \t\t\t\n      ADD \t\t\t\n      DUP5 \t\t\t\n      PUSH [tag] 677\t\t\t\n      JUMP \t\t\t\n    tag 975\t\t\t\n      JUMPDEST \t\t\t\n      SWAP3 \t\t\t\n      SWAP2 \t\t\t\n      POP \t\t\t\n      POP \t\t\t\n      JUMP \t\t\t\n    tag 271\t\t\t\n      JUMPDEST \t\t\t\n      PUSH 0\t\t\t\n      PUSH 60\t\t\t\n      DUP3 \t\t\t\n      ADD \t\t\t\n      SWAP1 \t\t\t\n      POP \t\t\t\n      PUSH [tag] 977\t\t\t\n      PUSH 0\t\t\t\n      DUP4 \t\t\t\n      ADD \t\t\t\n      DUP7 \t\t\t\n      PUSH [tag] 633\t\t\t\n      JUMP \t\t\t\n    tag 977\t\t\t\n      JUMPDEST \t\t\t\n      PUSH [tag] 978\t\t\t\n      PUSH 20\t\t\t\n      DUP4 \t\t\t\n      ADD \t\t\t\n      DUP6 \t\t\t\n      PUSH [tag] 649\t\t\t\n      JUMP \t\t\t\n    tag 978\t\t\t\n      JUMPDEST \t\t\t\n      PUSH [tag] 979\t\t\t\n      PUSH 40\t\t\t\n      DUP4 \t\t\t\n      ADD \t\t\t\n      DUP5 \t\t\t\n      PUSH [tag] 633\t\t\t\n      JUMP \t\t\t\n    tag 979\t\t\t\n      JUMPDEST \t\t\t\n      SWAP5 \t\t\t\n      SWAP4 \t\t\t\n      POP \t\t\t\n      POP \t\t\t\n      POP \t\t\t\n      POP \t\t\t\n      JUMP \t\t\t\n    tag 678\t\t\t\n      JUMPDEST \t\t\t\n      PUSH 0\t\t\t\n      DUP3 \t\t\t\n      SWAP1 \t\t\t\n      POP \t\t\t\n      SWAP3 \t\t\t\n      SWAP2 \t\t\t\n      POP \t\t\t\n      POP \t\t\t\n      JUMP \t\t\t\n    tag 679\t\t\t\n      JUMPDEST \t\t\t\n      PUSH 0\t\t\t\n      DUP2 \t\t\t\n      SWAP1 \t\t\t\n      POP \t\t\t\n      DUP2 \t\t\t\n      PUSH 0\t\t\t\n      MSTORE \t\t\t\n      PUSH 20\t\t\t\n      PUSH 0\t\t\t\n      KECCAK256 \t\t\t\n      SWAP1 \t\t\t\n      POP \t\t\t\n      SWAP2 \t\t\t\n      SWAP1 \t\t\t\n      POP \t\t\t\n      JUMP \t\t\t\n    tag 680\t\t\t\n      JUMPDEST \t\t\t\n      PUSH 0\t\t\t\n      PUSH 20\t\t\t\n      PUSH 1F\t\t\t\n      DUP4 \t\t\t\n      ADD \t\t\t\n      DIV \t\t\t\n      SWAP1 \t\t\t\n      POP \t\t\t\n      SWAP2 \t\t\t\n      SWAP1 \t\t\t\n      POP \t\t\t\n      JUMP \t\t\t\n    tag 681\t\t\t\n      JUMPDEST \t\t\t\n      PUSH 0\t\t\t\n      DUP3 \t\t\t\n      DUP3 \t\t\t\n      SHL \t\t\t\n      SWAP1 \t\t\t\n      POP \t\t\t\n      SWAP3 \t\t\t\n      SWAP2 \t\t\t\n      POP \t\t\t\n      POP \t\t\t\n      JUMP \t\t\t\n    tag 682\t\t\t\n      JUMPDEST \t\t\t\n      PUSH 0\t\t\t\n      PUSH 8\t\t\t\n      DUP4 \t\t\t\n      MUL \t\t\t\n      PUSH [tag] 985\t\t\t\n      PUSH FFFFFFFFFFFFFFFFFFFFFFFFFFFFFFFFFFFFFFFFFFFFFFFFFFFFFFFFFFFFFFFF\t\t\t\n      DUP3 \t\t\t\n      PUSH [tag] 681\t\t\t\n      JUMP \t\t\t\n    tag 985\t\t\t\n      JUMPDEST \t\t\t\n      PUSH [tag] 986\t\t\t\n      DUP7 \t\t\t\n      DUP4 \t\t\t\n      PUSH [tag] 681\t\t\t\n      JUMP \t\t\t\n    tag 986\t\t\t\n      JUMPDEST \t\t\t\n      SWAP6 \t\t\t\n      POP \t\t\t\n      DUP1 \t\t\t\n      NOT \t\t\t\n      DUP5 \t\t\t\n      AND \t\t\t\n      SWAP4 \t\t\t\n      POP \t\t\t\n      DUP1 \t\t\t\n      DUP7 \t\t\t\n      AND \t\t\t\n      DUP5 \t\t\t\n      OR \t\t\t\n      SWAP3 \t\t\t\n      POP \t\t\t\n      POP \t\t\t\n      POP \t\t\t\n      SWAP4 \t\t\t\n      SWAP3 \t\t\t\n      POP \t\t\t\n      POP \t\t\t\n      POP \t\t\t\n      JUMP \t\t\t\n    tag 683\t\t\t\n      JUMPDEST \t\t\t\n      PUSH 0\t\t\t\n      DUP2 \t\t\t\n      SWAP1 \t\t\t\n      POP \t\t\t\n      SWAP2 \t\t\t\n      SWAP1 \t\t\t\n      POP \t\t\t\n      JUMP \t\t\t\n    tag 684\t\t\t\n      JUMPDEST \t\t\t\n      PUSH 0\t\t\t\n      PUSH [tag] 989\t\t\t\n      PUSH [tag] 990\t\t\t\n      PUSH [tag] 991\t\t\t\n      DUP5 \t\t\t\n      PUSH [tag] 628\t\t\t\n      JUMP \t\t\t\n    tag 991\t\t\t\n      JUMPDEST \t\t\t\n      PUSH [tag] 683\t\t\t\n      JUMP \t\t\t\n    tag 990\t\t\t\n      JUMPDEST \t\t\t\n      PUSH [tag] 628\t\t\t\n      JUMP \t\t\t\n    tag 989\t\t\t\n      JUMPDEST \t\t\t\n      SWAP1 \t\t\t\n      POP \t\t\t\n      SWAP2 \t\t\t\n      SWAP1 \t\t\t\n      POP \t\t\t\n      JUMP \t\t\t\n    tag 685\t\t\t\n      JUMPDEST \t\t\t\n      PUSH 0\t\t\t\n      DUP2 \t\t\t\n      SWAP1 \t\t\t\n      POP \t\t\t\n      SWAP2 \t\t\t\n      SWAP1 \t\t\t\n      POP \t\t\t\n      JUMP \t\t\t\n    tag 686\t\t\t\n      JUMPDEST \t\t\t\n      PUSH [tag] 994\t\t\t\n      DUP4 \t\t\t\n      PUSH [tag] 684\t\t\t\n      JUMP \t\t\t\n    tag 994\t\t\t\n      JUMPDEST \t\t\t\n      PUSH [tag] 995\t\t\t\n      PUSH [tag] 996\t\t\t\n      DUP3 \t\t\t\n      PUSH [tag] 685\t\t\t\n      JUMP \t\t\t\n    tag 996\t\t\t\n      JUMPDEST \t\t\t\n      DUP5 \t\t\t\n      DUP5 \t\t\t\n      SLOAD \t\t\t\n      PUSH [tag] 682\t\t\t\n      JUMP \t\t\t\n    tag 995\t\t\t\n      JUMPDEST \t\t\t\n      DUP3 \t\t\t\n      SSTORE \t\t\t\n      POP \t\t\t\n      POP \t\t\t\n      POP \t\t\t\n      POP \t\t\t\n      JUMP \t\t\t\n    tag 687\t\t\t\n      JUMPDEST \t\t\t\n      PUSH 0\t\t\t\n      SWAP1 \t\t\t\n      JUMP \t\t\t\n    tag 688\t\t\t\n      JUMPDEST \t\t\t\n      PUSH [tag] 999\t\t\t\n      PUSH [tag] 687\t\t\t\n      JUMP \t\t\t\n    tag 999\t\t\t\n      JUMPDEST \t\t\t\n      PUSH [tag] 1000\t\t\t\n      DUP2 \t\t\t\n      DUP5 \t\t\t\n      DUP5 \t\t\t\n      PUSH [tag] 686\t\t\t\n      JUMP \t\t\t\n    tag 1000\t\t\t\n      JUMPDEST \t\t\t\n      POP \t\t\t\n      POP \t\t\t\n      POP \t\t\t\n      JUMP \t\t\t\n    tag 689\t\t\t\n      JUMPDEST \t\t\t\n    tag 1002\t\t\t\n      JUMPDEST \t\t\t\n      DUP2 \t\t\t\n      DUP2 \t\t\t\n      LT \t\t\t\n      ISZERO \t\t\t\n      PUSH [tag] 1004\t\t\t\n      JUMPI \t\t\t\n      PUSH [tag] 1005\t\t\t\n      PUSH 0\t\t\t\n      DUP3 \t\t\t\n      PUSH [tag] 688\t\t\t\n      JUMP \t\t\t\n    tag 1005\t\t\t\n      JUMPDEST \t\t\t\n      PUSH 1\t\t\t\n      DUP2 \t\t\t\n      ADD \t\t\t\n      SWAP1 \t\t\t\n      POP \t\t\t\n      PUSH [tag] 1002\t\t\t\n      JUMP \t\t\t\n    tag 1004\t\t\t\n      JUMPDEST \t\t\t\n      POP \t\t\t\n      POP \t\t\t\n      JUMP \t\t\t\n    tag 690\t\t\t\n      JUMPDEST \t\t\t\n      PUSH 1F\t\t\t\n      DUP3 \t\t\t\n      GT \t\t\t\n      ISZERO \t\t\t\n      PUSH [tag] 1007\t\t\t\n      JUMPI \t\t\t\n      PUSH [tag] 1008\t\t\t\n      DUP2 \t\t\t\n      PUSH [tag] 679\t\t\t\n      JUMP \t\t\t\n    tag 1008\t\t\t\n      JUMPDEST \t\t\t\n      PUSH [tag] 1009\t\t\t\n      DUP5 \t\t\t\n      PUSH [tag] 680\t\t\t\n      JUMP \t\t\t\n    tag 1009\t\t\t\n      JUMPDEST \t\t\t\n      DUP2 \t\t\t\n      ADD \t\t\t\n      PUSH 20\t\t\t\n      DUP6 \t\t\t\n      LT \t\t\t\n      ISZERO \t\t\t\n      PUSH [tag] 1010\t\t\t\n      JUMPI \t\t\t\n      DUP2 \t\t\t\n      SWAP1 \t\t\t\n      POP \t\t\t\n    tag 1010\t\t\t\n      JUMPDEST \t\t\t\n      PUSH [tag] 1011\t\t\t\n      PUSH [tag] 1012\t\t\t\n      DUP6 \t\t\t\n      PUSH [tag] 680\t\t\t\n      JUMP \t\t\t\n    tag 1012\t\t\t\n      JUMPDEST \t\t\t\n      DUP4 \t\t\t\n      ADD \t\t\t\n      DUP3 \t\t\t\n      PUSH [tag] 689\t\t\t\n      JUMP \t\t\t\n    tag 1011\t\t\t\n      JUMPDEST \t\t\t\n      POP \t\t\t\n      POP \t\t\t\n    tag 1007\t\t\t\n      JUMPDEST \t\t\t\n      POP \t\t\t\n      POP \t\t\t\n      POP \t\t\t\n      JUMP \t\t\t\n    tag 691\t\t\t\n      JUMPDEST \t\t\t\n      PUSH 0\t\t\t\n      DUP3 \t\t\t\n      DUP3 \t\t\t\n      SHR \t\t\t\n      SWAP1 \t\t\t\n      POP \t\t\t\n      SWAP3 \t\t\t\n      SWAP2 \t\t\t\n      POP \t\t\t\n      POP \t\t\t\n      JUMP \t\t\t\n    tag 692\t\t\t\n      JUMPDEST \t\t\t\n      PUSH 0\t\t\t\n      PUSH [tag] 1015\t\t\t\n      PUSH 0\t\t\t\n      NOT \t\t\t\n      DUP5 \t\t\t\n      PUSH 8\t\t\t\n      MUL \t\t\t\n      PUSH [tag] 691\t\t\t\n      JUMP \t\t\t\n    tag 1015\t\t\t\n      JUMPDEST \t\t\t\n      NOT \t\t\t\n      DUP1 \t\t\t\n      DUP4 \t\t\t\n      AND \t\t\t\n      SWAP2 \t\t\t\n      POP \t\t\t\n      POP \t\t\t\n      SWAP3 \t\t\t\n      SWAP2 \t\t\t\n      POP \t\t\t\n      POP \t\t\t\n      JUMP \t\t\t\n    tag 693\t\t\t\n      JUMPDEST \t\t\t\n      PUSH 0\t\t\t\n      PUSH [tag] 1017\t\t\t\n      DUP4 \t\t\t\n      DUP4 \t\t\t\n      PUSH [tag] 692\t\t\t\n      JUMP \t\t\t\n    tag 1017\t\t\t\n      JUMPDEST \t\t\t\n      SWAP2 \t\t\t\n      POP \t\t\t\n      DUP3 \t\t\t\n      PUSH 2\t\t\t\n      MUL \t\t\t\n      DUP3 \t\t\t\n      OR \t\t\t\n      SWAP1 \t\t\t\n      POP \t\t\t\n      SWAP3 \t\t\t\n      SWAP2 \t\t\t\n      POP \t\t\t\n      POP \t\t\t\n      JUMP \t\t\t\n    tag 289\t\t\t\n      JUMPDEST \t\t\t\n      PUSH [tag] 1019\t\t\t\n      DUP4 \t\t\t\n      DUP4 \t\t\t\n      PUSH [tag] 678\t\t\t\n      JUMP \t\t\t\n    tag 1019\t\t\t\n      JUMPDEST \t\t\t\n      PUSH FFFFFFFFFFFFFFFF\t\t\t\n      DUP2 \t\t\t\n      GT \t\t\t\n      ISZERO \t\t\t\n      PUSH [tag] 1020\t\t\t\n      JUMPI \t\t\t\n      PUSH [tag] 1021\t\t\t\n      PUSH [tag] 539\t\t\t\n      JUMP \t\t\t\n    tag 1021\t\t\t\n      JUMPDEST \t\t\t\n    tag 1020\t\t\t\n      JUMPDEST \t\t\t\n      PUSH [tag] 1022\t\t\t\n      DUP3 \t\t\t\n      SLOAD \t\t\t\n      PUSH [tag] 203\t\t\t\n      JUMP \t\t\t\n    tag 1022\t\t\t\n      JUMPDEST \t\t\t\n      PUSH [tag] 1023\t\t\t\n      DUP3 \t\t\t\n      DUP3 \t\t\t\n      DUP6 \t\t\t\n      PUSH [tag] 690\t\t\t\n      JUMP \t\t\t\n    tag 1023\t\t\t\n      JUMPDEST \t\t\t\n      PUSH 0\t\t\t\n      PUSH 1F\t\t\t\n      DUP4 \t\t\t\n      GT \t\t\t\n      PUSH 1\t\t\t\n      DUP2 \t\t\t\n      EQ \t\t\t\n      PUSH [tag] 1025\t\t\t\n      JUMPI \t\t\t\n      PUSH 0\t\t\t\n      DUP5 \t\t\t\n      ISZERO \t\t\t\n      PUSH [tag] 1026\t\t\t\n      JUMPI \t\t\t\n      DUP3 \t\t\t\n      DUP8 \t\t\t\n      ADD \t\t\t\n      CALLDATALOAD \t\t\t\n      SWAP1 \t\t\t\n      POP \t\t\t\n    tag 1026\t\t\t\n      JUMPDEST \t\t\t\n      PUSH [tag] 1027\t\t\t\n      DUP6 \t\t\t\n      DUP3 \t\t\t\n      PUSH [tag] 693\t\t\t\n      JUMP \t\t\t\n    tag 1027\t\t\t\n      JUMPDEST \t\t\t\n      DUP7 \t\t\t\n      SSTORE \t\t\t\n      POP \t\t\t\n      PUSH [tag] 1024\t\t\t\n      JUMP \t\t\t\n    tag 1025\t\t\t\n      JUMPDEST \t\t\t\n      PUSH 1F\t\t\t\n      NOT \t\t\t\n      DUP5 \t\t\t\n      AND \t\t\t\n      PUSH [tag] 1028\t\t\t\n      DUP7 \t\t\t\n      PUSH [tag] 679\t\t\t\n      JUMP \t\t\t\n    tag 1028\t\t\t\n      JUMPDEST \t\t\t\n      PUSH 0\t\t\t\n    tag 1029\t\t\t\n      JUMPDEST \t\t\t\n      DUP3 \t\t\t\n      DUP2 \t\t\t\n      LT \t\t\t\n      ISZERO \t\t\t\n      PUSH [tag] 1031\t\t\t\n      JUMPI \t\t\t\n      DUP5 \t\t\t\n      DUP10 \t\t\t\n      ADD \t\t\t\n      CALLDATALOAD \t\t\t\n      DUP3 \t\t\t\n      SSTORE \t\t\t\n      PUSH 1\t\t\t\n      DUP3 \t\t\t\n      ADD \t\t\t\n      SWAP2 \t\t\t\n      POP \t\t\t\n      PUSH 20\t\t\t\n      DUP6 \t\t\t\n      ADD \t\t\t\n      SWAP5 \t\t\t\n      POP \t\t\t\n      PUSH 20\t\t\t\n      DUP2 \t\t\t\n      ADD \t\t\t\n      SWAP1 \t\t\t\n      POP \t\t\t\n      PUSH [tag] 1029\t\t\t\n      JUMP \t\t\t\n    tag 1031\t\t\t\n      JUMPDEST \t\t\t\n      DUP7 \t\t\t\n      DUP4 \t\t\t\n      LT \t\t\t\n      ISZERO \t\t\t\n      PUSH [tag] 1032\t\t\t\n      JUMPI \t\t\t\n      DUP5 \t\t\t\n      DUP10 \t\t\t\n      ADD \t\t\t\n      CALLDATALOAD \t\t\t\n      PUSH [tag] 1033\t\t\t\n      PUSH 1F\t\t\t\n      DUP10 \t\t\t\n      AND \t\t\t\n      DUP3 \t\t\t\n      PUSH [tag] 692\t\t\t\n      JUMP \t\t\t\n    tag 1033\t\t\t\n      JUMPDEST \t\t\t\n      DUP4 \t\t\t\n      SSTORE \t\t\t\n      POP \t\t\t\n    tag 1032\t\t\t\n      JUMPDEST \t\t\t\n      PUSH 1\t\t\t\n      PUSH 2\t\t\t\n      DUP9 \t\t\t\n      MUL \t\t\t\n      ADD \t\t\t\n      DUP9 \t\t\t\n      SSTORE \t\t\t\n      POP \t\t\t\n      POP \t\t\t\n      POP \t\t\t\n    tag 1024\t\t\t\n      JUMPDEST \t\t\t\n      POP \t\t\t\n      POP \t\t\t\n      POP \t\t\t\n      POP \t\t\t\n      POP \t\t\t\n      POP \t\t\t\n      POP \t\t\t\n      JUMP \t\t\t\n    tag 694\t\t\t\n      JUMPDEST \t\t\t\n      PUSH 0\t\t\t\n      DUP2 \t\t\t\n      SWAP1 \t\t\t\n      POP \t\t\t\n      DUP2 \t\t\t\n      PUSH 0\t\t\t\n      MSTORE \t\t\t\n      PUSH 20\t\t\t\n      PUSH 0\t\t\t\n      KECCAK256 \t\t\t\n      SWAP1 \t\t\t\n      POP \t\t\t\n      SWAP2 \t\t\t\n      SWAP1 \t\t\t\n      POP \t\t\t\n      JUMP \t\t\t\n    tag 695\t\t\t\n      JUMPDEST \t\t\t\n      PUSH 1F\t\t\t\n      DUP3 \t\t\t\n      GT \t\t\t\n      ISZERO \t\t\t\n      PUSH [tag] 1036\t\t\t\n      JUMPI \t\t\t\n      PUSH [tag] 1037\t\t\t\n      DUP2 \t\t\t\n      PUSH [tag] 694\t\t\t\n      JUMP \t\t\t\n    tag 1037\t\t\t\n      JUMPDEST \t\t\t\n      PUSH [tag] 1038\t\t\t\n      DUP5 \t\t\t\n      PUSH [tag] 680\t\t\t\n      JUMP \t\t\t\n    tag 1038\t\t\t\n      JUMPDEST \t\t\t\n      DUP2 \t\t\t\n      ADD \t\t\t\n      PUSH 20\t\t\t\n      DUP6 \t\t\t\n      LT \t\t\t\n      ISZERO \t\t\t\n      PUSH [tag] 1039\t\t\t\n      JUMPI \t\t\t\n      DUP2 \t\t\t\n      SWAP1 \t\t\t\n      POP \t\t\t\n    tag 1039\t\t\t\n      JUMPDEST \t\t\t\n      PUSH [tag] 1040\t\t\t\n      PUSH [tag] 1041\t\t\t\n      DUP6 \t\t\t\n      PUSH [tag] 680\t\t\t\n      JUMP \t\t\t\n    tag 1041\t\t\t\n      JUMPDEST \t\t\t\n      DUP4 \t\t\t\n      ADD \t\t\t\n      DUP3 \t\t\t\n      PUSH [tag] 689\t\t\t\n      JUMP \t\t\t\n    tag 1040\t\t\t\n      JUMPDEST \t\t\t\n      POP \t\t\t\n      POP \t\t\t\n    tag 1036\t\t\t\n      JUMPDEST \t\t\t\n      POP \t\t\t\n      POP \t\t\t\n      POP \t\t\t\n      JUMP \t\t\t\n    tag 299\t\t\t\n      JUMPDEST \t\t\t\n      PUSH [tag] 1043\t\t\t\n      DUP3 \t\t\t\n      PUSH [tag] 623\t\t\t\n      JUMP \t\t\t\n    tag 1043\t\t\t\n      JUMPDEST \t\t\t\n      PUSH FFFFFFFFFFFFFFFF\t\t\t\n      DUP2 \t\t\t\n      GT \t\t\t\n      ISZERO \t\t\t\n      PUSH [tag] 1044\t\t\t\n      JUMPI \t\t\t\n      PUSH [tag] 1045\t\t\t\n      PUSH [tag] 539\t\t\t\n      JUMP \t\t\t\n    tag 1045\t\t\t\n      JUMPDEST \t\t\t\n    tag 1044\t\t\t\n      JUMPDEST \t\t\t\n      PUSH [tag] 1046\t\t\t\n      DUP3 \t\t\t\n      SLOAD \t\t\t\n      PUSH [tag] 203\t\t\t\n      JUMP \t\t\t\n    tag 1046\t\t\t\n      JUMPDEST \t\t\t\n      PUSH [tag] 1047\t\t\t\n      DUP3 \t\t\t\n      DUP3 \t\t\t\n      DUP6 \t\t\t\n      PUSH [tag] 695\t\t\t\n      JUMP \t\t\t\n    tag 1047\t\t\t\n      JUMPDEST \t\t\t\n      PUSH 0\t\t\t\n      PUSH 20\t\t\t\n      SWAP1 \t\t\t\n      POP \t\t\t\n      PUSH 1F\t\t\t\n      DUP4 \t\t\t\n      GT \t\t\t\n      PUSH 1\t\t\t\n      DUP2 \t\t\t\n      EQ \t\t\t\n      PUSH [tag] 1049\t\t\t\n      JUMPI \t\t\t\n      PUSH 0\t\t\t\n      DUP5 \t\t\t\n      ISZERO \t\t\t\n      PUSH [tag] 1050\t\t\t\n      JUMPI \t\t\t\n      DUP3 \t\t\t\n      DUP8 \t\t\t\n      ADD \t\t\t\n      MLOAD \t\t\t\n      SWAP1 \t\t\t\n      POP \t\t\t\n    tag 1050\t\t\t\n      JUMPDEST \t\t\t\n      PUSH [tag] 1051\t\t\t\n      DUP6 \t\t\t\n      DUP3 \t\t\t\n      PUSH [tag] 693\t\t\t\n      JUMP \t\t\t\n    tag 1051\t\t\t\n      JUMPDEST \t\t\t\n      DUP7 \t\t\t\n      SSTORE \t\t\t\n      POP \t\t\t\n      PUSH [tag] 1048\t\t\t\n      JUMP \t\t\t\n    tag 1049\t\t\t\n      JUMPDEST \t\t\t\n      PUSH 1F\t\t\t\n      NOT \t\t\t\n      DUP5 \t\t\t\n      AND \t\t\t\n      PUSH [tag] 1052\t\t\t\n      DUP7 \t\t\t\n      PUSH [tag] 694\t\t\t\n      JUMP \t\t\t\n    tag 1052\t\t\t\n      JUMPDEST \t\t\t\n      PUSH 0\t\t\t\n    tag 1053\t\t\t\n      JUMPDEST \t\t\t\n      DUP3 \t\t\t\n      DUP2 \t\t\t\n      LT \t\t\t\n      ISZERO \t\t\t\n      PUSH [tag] 1055\t\t\t\n      JUMPI \t\t\t\n      DUP5 \t\t\t\n      DUP10 \t\t\t\n      ADD \t\t\t\n      MLOAD \t\t\t\n      DUP3 \t\t\t\n      SSTORE \t\t\t\n      PUSH 1\t\t\t\n      DUP3 \t\t\t\n      ADD \t\t\t\n      SWAP2 \t\t\t\n      POP \t\t\t\n      PUSH 20\t\t\t\n      DUP6 \t\t\t\n      ADD \t\t\t\n      SWAP5 \t\t\t\n      POP \t\t\t\n      PUSH 20\t\t\t\n      DUP2 \t\t\t\n      ADD \t\t\t\n      SWAP1 \t\t\t\n      POP \t\t\t\n      PUSH [tag] 1053\t\t\t\n      JUMP \t\t\t\n    tag 1055\t\t\t\n      JUMPDEST \t\t\t\n      DUP7 \t\t\t\n      DUP4 \t\t\t\n      LT \t\t\t\n      ISZERO \t\t\t\n      PUSH [tag] 1056\t\t\t\n      JUMPI \t\t\t\n      DUP5 \t\t\t\n      DUP10 \t\t\t\n      ADD \t\t\t\n      MLOAD \t\t\t\n      PUSH [tag] 1057\t\t\t\n      PUSH 1F\t\t\t\n      DUP10 \t\t\t\n      AND \t\t\t\n      DUP3 \t\t\t\n      PUSH [tag] 692\t\t\t\n      JUMP \t\t\t\n    tag 1057\t\t\t\n      JUMPDEST \t\t\t\n      DUP4 \t\t\t\n      SSTORE \t\t\t\n      POP \t\t\t\n    tag 1056\t\t\t\n      JUMPDEST \t\t\t\n      PUSH 1\t\t\t\n      PUSH 2\t\t\t\n      DUP9 \t\t\t\n      MUL \t\t\t\n      ADD \t\t\t\n      DUP9 \t\t\t\n      SSTORE \t\t\t\n      POP \t\t\t\n      POP \t\t\t\n      POP \t\t\t\n    tag 1048\t\t\t\n      JUMPDEST \t\t\t\n      POP \t\t\t\n      POP \t\t\t\n      POP \t\t\t\n      POP \t\t\t\n      POP \t\t\t\n      POP \t\t\t\n      JUMP \t\t\t\n    tag 696\t\t\t\n      JUMPDEST \t\t\t\n      PUSH 4E6F7420617574686F72697A6564000000000000000000000000000000000000\t\t\t\n      PUSH 0\t\t\t\n      DUP3 \t\t\t\n      ADD \t\t\t\n      MSTORE \t\t\t\n      POP \t\t\t\n      JUMP \t\t\t\n    tag 697\t\t\t\n      JUMPDEST \t\t\t\n      PUSH 0\t\t\t\n      PUSH [tag] 1060\t\t\t\n      PUSH E\t\t\t\n      DUP4 \t\t\t\n      PUSH [tag] 624\t\t\t\n      JUMP \t\t\t\n    tag 1060\t\t\t\n      JUMPDEST \t\t\t\n      SWAP2 \t\t\t\n      POP \t\t\t\n      PUSH [tag] 1061\t\t\t\n      DUP3 \t\t\t\n      PUSH [tag] 696\t\t\t\n      JUMP \t\t\t\n    tag 1061\t\t\t\n      JUMPDEST \t\t\t\n      PUSH 20\t\t\t\n      DUP3 \t\t\t\n      ADD \t\t\t\n      SWAP1 \t\t\t\n      POP \t\t\t\n      SWAP2 \t\t\t\n      SWAP1 \t\t\t\n      POP \t\t\t\n      JUMP \t\t\t\n    tag 317\t\t\t\n      JUMPDEST \t\t\t\n      PUSH 0\t\t\t\n      PUSH 20\t\t\t\n      DUP3 \t\t\t\n      ADD \t\t\t\n      SWAP1 \t\t\t\n      POP \t\t\t\n      DUP2 \t\t\t\n      DUP2 \t\t\t\n      SUB \t\t\t\n      PUSH 0\t\t\t\n      DUP4 \t\t\t\n      ADD \t\t\t\n      MSTORE \t\t\t\n      PUSH [tag] 1063\t\t\t\n      DUP2 \t\t\t\n      PUSH [tag] 697\t\t\t\n      JUMP \t\t\t\n    tag 1063\t\t\t\n      JUMPDEST \t\t\t\n      SWAP1 \t\t\t\n      POP \t\t\t\n      SWAP2 \t\t\t\n      SWAP1 \t\t\t\n      POP \t\t\t\n      JUMP \t\t\t\n    tag 698\t\t\t\n      JUMPDEST \t\t\t\n      PUSH 5A65726F20616464720000000000000000000000000000000000000000000000\t\t\t\n      PUSH 0\t\t\t\n      DUP3 \t\t\t\n      ADD \t\t\t\n      MSTORE \t\t\t\n      POP \t\t\t\n      JUMP \t\t\t\n    tag 699\t\t\t\n      JUMPDEST \t\t\t\n      PUSH 0\t\t\t\n      PUSH [tag] 1066\t\t\t\n      PUSH 9\t\t\t\n      DUP4 \t\t\t\n      PUSH [tag] 624\t\t\t\n      JUMP \t\t\t\n    tag 1066\t\t\t\n      JUMPDEST \t\t\t\n      SWAP2 \t\t\t\n      POP \t\t\t\n      PUSH [tag] 1067\t\t\t\n      DUP3 \t\t\t\n      PUSH [tag] 698\t\t\t\n      JUMP \t\t\t\n    tag 1067\t\t\t\n      JUMPDEST \t\t\t\n      PUSH 20\t\t\t\n      DUP3 \t\t\t\n      ADD \t\t\t\n      SWAP1 \t\t\t\n      POP \t\t\t\n      SWAP2 \t\t\t\n      SWAP1 \t\t\t\n      POP \t\t\t\n      JUMP \t\t\t\n    tag 320\t\t\t\n      JUMPDEST \t\t\t\n      PUSH 0\t\t\t\n      PUSH 20\t\t\t\n      DUP3 \t\t\t\n      ADD \t\t\t\n      SWAP1 \t\t\t\n      POP \t\t\t\n      DUP2 \t\t\t\n      DUP2 \t\t\t\n      SUB \t\t\t\n      PUSH 0\t\t\t\n      DUP4 \t\t\t\n      ADD \t\t\t\n      MSTORE \t\t\t\n      PUSH [tag] 1069\t\t\t\n      DUP2 \t\t\t\n      PUSH [tag] 699\t\t\t\n      JUMP \t\t\t\n    tag 1069\t\t\t\n      JUMPDEST \t\t\t\n      SWAP1 \t\t\t\n      POP \t\t\t\n      SWAP2 \t\t\t\n      SWAP1 \t\t\t\n      POP \t\t\t\n      JUMP \t\t\t\n    tag 700\t\t\t\n      JUMPDEST \t\t\t\n      PUSH 53616D652077616C6C6574000000000000000000000000000000000000000000\t\t\t\n      PUSH 0\t\t\t\n      DUP3 \t\t\t\n      ADD \t\t\t\n      MSTORE \t\t\t\n      POP \t\t\t\n      JUMP \t\t\t\n    tag 701\t\t\t\n      JUMPDEST \t\t\t\n      PUSH 0\t\t\t\n      PUSH [tag] 1072\t\t\t\n      PUSH B\t\t\t\n      DUP4 \t\t\t\n      PUSH [tag] 624\t\t\t\n      JUMP \t\t\t\n    tag 1072\t\t\t\n      JUMPDEST \t\t\t\n      SWAP2 \t\t\t\n      POP \t\t\t\n      PUSH [tag] 1073\t\t\t\n      DUP3 \t\t\t\n      PUSH [tag] 700\t\t\t\n      JUMP \t\t\t\n    tag 1073\t\t\t\n      JUMPDEST \t\t\t\n      PUSH 20\t\t\t\n      DUP3 \t\t\t\n      ADD \t\t\t\n      SWAP1 \t\t\t\n      POP \t\t\t\n      SWAP2 \t\t\t\n      SWAP1 \t\t\t\n      POP \t\t\t\n      JUMP \t\t\t\n    tag 325\t\t\t\n      JUMPDEST \t\t\t\n      PUSH 0\t\t\t\n      PUSH 20\t\t\t\n      DUP3 \t\t\t\n      ADD \t\t\t\n      SWAP1 \t\t\t\n      POP \t\t\t\n      DUP2 \t\t\t\n      DUP2 \t\t\t\n      SUB \t\t\t\n      PUSH 0\t\t\t\n      DUP4 \t\t\t\n      ADD \t\t\t\n      MSTORE \t\t\t\n      PUSH [tag] 1075\t\t\t\n      DUP2 \t\t\t\n      PUSH [tag] 701\t\t\t\n      JUMP \t\t\t\n    tag 1075\t\t\t\n      JUMPDEST \t\t\t\n      SWAP1 \t\t\t\n      POP \t\t\t\n      SWAP2 \t\t\t\n      SWAP1 \t\t\t\n      POP \t\t\t\n      JUMP \t\t\t\n    tag 702\t\t\t\n      JUMPDEST \t\t\t\n      PUSH 4861732044494400000000000000000000000000000000000000000000000000\t\t\t\n      PUSH 0\t\t\t\n      DUP3 \t\t\t\n      ADD \t\t\t\n      MSTORE \t\t\t\n      POP \t\t\t\n      JUMP \t\t\t\n    tag 703\t\t\t\n      JUMPDEST \t\t\t\n      PUSH 0\t\t\t\n      PUSH [tag] 1078\t\t\t\n      PUSH 7\t\t\t\n      DUP4 \t\t\t\n      PUSH [tag] 624\t\t\t\n      JUMP \t\t\t\n    tag 1078\t\t\t\n      JUMPDEST \t\t\t\n      SWAP2 \t\t\t\n      POP \t\t\t\n      PUSH [tag] 1079\t\t\t\n      DUP3 \t\t\t\n      PUSH [tag] 702\t\t\t\n      JUMP \t\t\t\n    tag 1079\t\t\t\n      JUMPDEST \t\t\t\n      PUSH 20\t\t\t\n      DUP3 \t\t\t\n      ADD \t\t\t\n      SWAP1 \t\t\t\n      POP \t\t\t\n      SWAP2 \t\t\t\n      SWAP1 \t\t\t\n      POP \t\t\t\n      JUMP \t\t\t\n    tag 330\t\t\t\n      JUMPDEST \t\t\t\n      PUSH 0\t\t\t\n      PUSH 20\t\t\t\n      DUP3 \t\t\t\n      ADD \t\t\t\n      SWAP1 \t\t\t\n      POP \t\t\t\n      DUP2 \t\t\t\n      DUP2 \t\t\t\n      SUB \t\t\t\n      PUSH 0\t\t\t\n      DUP4 \t\t\t\n      ADD \t\t\t\n      MSTORE \t\t\t\n      PUSH [tag] 1081\t\t\t\n      DUP2 \t\t\t\n      PUSH [tag] 703\t\t\t\n      JUMP \t\t\t\n    tag 1081\t\t\t\n      JUMPDEST \t\t\t\n      SWAP1 \t\t\t\n      POP \t\t\t\n      SWAP2 \t\t\t\n      SWAP1 \t\t\t\n      POP \t\t\t\n      JUMP \t\t\t\n    tag 704\t\t\t\n      JUMPDEST \t\t\t\n      PUSH 4E487B7100000000000000000000000000000000000000000000000000000000\t\t\t\n      PUSH 0\t\t\t\n      MSTORE \t\t\t\n      PUSH 11\t\t\t\n      PUSH 4\t\t\t\n      MSTORE \t\t\t\n      PUSH 24\t\t\t\n      PUSH 0\t\t\t\n      REVERT \t\t\t\n    tag 334\t\t\t\n      JUMPDEST \t\t\t\n      PUSH 0\t\t\t\n      PUSH [tag] 1084\t\t\t\n      DUP3 \t\t\t\n      PUSH [tag] 628\t\t\t\n      JUMP \t\t\t\n    tag 1084\t\t\t\n      JUMPDEST \t\t\t\n      SWAP2 \t\t\t\n      POP \t\t\t\n      PUSH FFFFFFFFFFFFFFFFFFFFFFFFFFFFFFFFFFFFFFFFFFFFFFFFFFFFFFFFFFFFFFFF\t\t\t\n      DUP3 \t\t\t\n      SUB \t\t\t\n      PUSH [tag] 1085\t\t\t\n      JUMPI \t\t\t\n      PUSH [tag] 1086\t\t\t\n      PUSH [tag] 704\t\t\t\n      JUMP \t\t\t\n    tag 1086\t\t\t\n      JUMPDEST \t\t\t\n    tag 1085\t\t\t\n      JUMPDEST \t\t\t\n      PUSH 1\t\t\t\n      DUP3 \t\t\t\n      ADD \t\t\t\n      SWAP1 \t\t\t\n      POP \t\t\t\n      SWAP2 \t\t\t\n      SWAP1 \t\t\t\n      POP \t\t\t\n      JUMP \t\t\t\n    tag 345\t\t\t\n      JUMPDEST \t\t\t\n      PUSH [tag] 1088\t\t\t\n      DUP3 \t\t\t\n      PUSH [tag] 641\t\t\t\n      JUMP \t\t\t\n    tag 1088\t\t\t\n      JUMPDEST \t\t\t\n      PUSH FFFFFFFFFFFFFFFF\t\t\t\n      DUP2 \t\t\t\n      GT \t\t\t\n      ISZERO \t\t\t\n      PUSH [tag] 1089\t\t\t\n      JUMPI \t\t\t\n      PUSH [tag] 1090\t\t\t\n      PUSH [tag] 539\t\t\t\n      JUMP \t\t\t\n    tag 1090\t\t\t\n      JUMPDEST \t\t\t\n    tag 1089\t\t\t\n      JUMPDEST \t\t\t\n      PUSH [tag] 1091\t\t\t\n      DUP3 \t\t\t\n      SLOAD \t\t\t\n      PUSH [tag] 203\t\t\t\n      JUMP \t\t\t\n    tag 1091\t\t\t\n      JUMPDEST \t\t\t\n      PUSH [tag] 1092\t\t\t\n      DUP3 \t\t\t\n      DUP3 \t\t\t\n      DUP6 \t\t\t\n      PUSH [tag] 690\t\t\t\n      JUMP \t\t\t\n    tag 1092\t\t\t\n      JUMPDEST \t\t\t\n      PUSH 0\t\t\t\n      PUSH 20\t\t\t\n      SWAP1 \t\t\t\n      POP \t\t\t\n      PUSH 1F\t\t\t\n      DUP4 \t\t\t\n      GT \t\t\t\n      PUSH 1\t\t\t\n      DUP2 \t\t\t\n      EQ \t\t\t\n      PUSH [tag] 1094\t\t\t\n      JUMPI \t\t\t\n      PUSH 0\t\t\t\n      DUP5 \t\t\t\n      ISZERO \t\t\t\n      PUSH [tag] 1095\t\t\t\n      JUMPI \t\t\t\n      DUP3 \t\t\t\n      DUP8 \t\t\t\n      ADD \t\t\t\n      MLOAD \t\t\t\n      SWAP1 \t\t\t\n      POP \t\t\t\n    tag 1095\t\t\t\n      JUMPDEST \t\t\t\n      PUSH [tag] 1096\t\t\t\n      DUP6 \t\t\t\n      DUP3 \t\t\t\n      PUSH [tag] 693\t\t\t\n      JUMP \t\t\t\n    tag 1096\t\t\t\n      JUMPDEST \t\t\t\n      DUP7 \t\t\t\n      SSTORE \t\t\t\n      POP \t\t\t\n      PUSH [tag] 1093\t\t\t\n      JUMP \t\t\t\n    tag 1094\t\t\t\n      JUMPDEST \t\t\t\n      PUSH 1F\t\t\t\n      NOT \t\t\t\n      DUP5 \t\t\t\n      AND \t\t\t\n      PUSH [tag] 1097\t\t\t\n      DUP7 \t\t\t\n      PUSH [tag] 679\t\t\t\n      JUMP \t\t\t\n    tag 1097\t\t\t\n      JUMPDEST \t\t\t\n      PUSH 0\t\t\t\n    tag 1098\t\t\t\n      JUMPDEST \t\t\t\n      DUP3 \t\t\t\n      DUP2 \t\t\t\n      LT \t\t\t\n      ISZERO \t\t\t\n      PUSH [tag] 1100\t\t\t\n      JUMPI \t\t\t\n      DUP5 \t\t\t\n      DUP10 \t\t\t\n      ADD \t\t\t\n      MLOAD \t\t\t\n      DUP3 \t\t\t\n      SSTORE \t\t\t\n      PUSH 1\t\t\t\n      DUP3 \t\t\t\n      ADD \t\t\t\n      SWAP2 \t\t\t\n      POP \t\t\t\n      PUSH 20\t\t\t\n      DUP6 \t\t\t\n      ADD \t\t\t\n      SWAP5 \t\t\t\n      POP \t\t\t\n      PUSH 20\t\t\t\n      DUP2 \t\t\t\n      ADD \t\t\t\n      SWAP1 \t\t\t\n      POP \t\t\t\n      PUSH [tag] 1098\t\t\t\n      JUMP \t\t\t\n    tag 1100\t\t\t\n      JUMPDEST \t\t\t\n      DUP7 \t\t\t\n      DUP4 \t\t\t\n      LT \t\t\t\n      ISZERO \t\t\t\n      PUSH [tag] 1101\t\t\t\n      JUMPI \t\t\t\n      DUP5 \t\t\t\n      DUP10 \t\t\t\n      ADD \t\t\t\n      MLOAD \t\t\t\n      PUSH [tag] 1102\t\t\t\n      PUSH 1F\t\t\t\n      DUP10 \t\t\t\n      AND \t\t\t\n      DUP3 \t\t\t\n      PUSH [tag] 692\t\t\t\n      JUMP \t\t\t\n    tag 1102\t\t\t\n      JUMPDEST \t\t\t\n      DUP4 \t\t\t\n      SSTORE \t\t\t\n      POP \t\t\t\n    tag 1101\t\t\t\n      JUMPDEST \t\t\t\n      PUSH 1\t\t\t\n      PUSH 2\t\t\t\n      DUP9 \t\t\t\n      MUL \t\t\t\n      ADD \t\t\t\n      DUP9 \t\t\t\n      SSTORE \t\t\t\n      POP \t\t\t\n      POP \t\t\t\n      POP \t\t\t\n    tag 1093\t\t\t\n      JUMPDEST \t\t\t\n      POP \t\t\t\n      POP \t\t\t\n      POP \t\t\t\n      POP \t\t\t\n      POP \t\t\t\n      POP \t\t\t\n      JUMP \t\t\t\n    tag 705\t\t\t\n      JUMPDEST \t\t\t\n      PUSH 4E6F207075626C6963206D696E74000000000000000000000000000000000000\t\t\t\n      PUSH 0\t\t\t\n      DUP3 \t\t\t\n      ADD \t\t\t\n      MSTORE \t\t\t\n      POP \t\t\t\n      JUMP \t\t\t\n    tag 706\t\t\t\n      JUMPDEST \t\t\t\n      PUSH 0\t\t\t\n      PUSH [tag] 1105\t\t\t\n      PUSH E\t\t\t\n      DUP4 \t\t\t\n      PUSH [tag] 624\t\t\t\n      JUMP \t\t\t\n    tag 1105\t\t\t\n      JUMPDEST \t\t\t\n      SWAP2 \t\t\t\n      POP \t\t\t\n      PUSH [tag] 1106\t\t\t\n      DUP3 \t\t\t\n      PUSH [tag] 705\t\t\t\n      JUMP \t\t\t\n    tag 1106\t\t\t\n      JUMPDEST \t\t\t\n      PUSH 20\t\t\t\n      DUP3 \t\t\t\n      ADD \t\t\t\n      SWAP1 \t\t\t\n      POP \t\t\t\n      SWAP2 \t\t\t\n      SWAP1 \t\t\t\n      POP \t\t\t\n      JUMP \t\t\t\n    tag 394\t\t\t\n      JUMPDEST \t\t\t\n      PUSH 0\t\t\t\n      PUSH 20\t\t\t\n      DUP3 \t\t\t\n      ADD \t\t\t\n      SWAP1 \t\t\t\n      POP \t\t\t\n      DUP2 \t\t\t\n      DUP2 \t\t\t\n      SUB \t\t\t\n      PUSH 0\t\t\t\n      DUP4 \t\t\t\n      ADD \t\t\t\n      MSTORE \t\t\t\n      PUSH [tag] 1108\t\t\t\n      DUP2 \t\t\t\n      PUSH [tag] 706\t\t\t\n      JUMP \t\t\t\n    tag 1108\t\t\t\n      JUMPDEST \t\t\t\n      SWAP1 \t\t\t\n      POP \t\t\t\n      SWAP2 \t\t\t\n      SWAP1 \t\t\t\n      POP \t\t\t\n      JUMP \t\t\t\n    tag 707\t\t\t\n      JUMPDEST \t\t\t\n      PUSH 0\t\t\t\n      DUP2 \t\t\t\n      SWAP1 \t\t\t\n      POP \t\t\t\n      SWAP3 \t\t\t\n      SWAP2 \t\t\t\n      POP \t\t\t\n      POP \t\t\t\n      JUMP \t\t\t\n    tag 708\t\t\t\n      JUMPDEST \t\t\t\n      PUSH 0\t\t\t\n      PUSH [tag] 1111\t\t\t\n      DUP3 \t\t\t\n      PUSH [tag] 623\t\t\t\n      JUMP \t\t\t\n    tag 1111\t\t\t\n      JUMPDEST \t\t\t\n      PUSH [tag] 1112\t\t\t\n      DUP2 \t\t\t\n      DUP6 \t\t\t\n      PUSH [tag] 707\t\t\t\n      JUMP \t\t\t\n    tag 1112\t\t\t\n      JUMPDEST \t\t\t\n      SWAP4 \t\t\t\n      POP \t\t\t\n      PUSH [tag] 1113\t\t\t\n      DUP2 \t\t\t\n      DUP6 \t\t\t\n      PUSH 20\t\t\t\n      DUP7 \t\t\t\n      ADD \t\t\t\n      PUSH [tag] 625\t\t\t\n      JUMP \t\t\t\n    tag 1113\t\t\t\n      JUMPDEST \t\t\t\n      DUP1 \t\t\t\n      DUP5 \t\t\t\n      ADD \t\t\t\n      SWAP2 \t\t\t\n      POP \t\t\t\n      POP \t\t\t\n      SWAP3 \t\t\t\n      SWAP2 \t\t\t\n      POP \t\t\t\n      POP \t\t\t\n      JUMP \t\t\t\n    tag 412\t\t\t\n      JUMPDEST \t\t\t\n      PUSH 0\t\t\t\n      PUSH [tag] 1115\t\t\t\n      DUP3 \t\t\t\n      DUP6 \t\t\t\n      PUSH [tag] 708\t\t\t\n      JUMP \t\t\t\n    tag 1115\t\t\t\n      JUMPDEST \t\t\t\n      SWAP2 \t\t\t\n      POP \t\t\t\n      PUSH [tag] 1116\t\t\t\n      DUP3 \t\t\t\n      DUP5 \t\t\t\n      PUSH [tag] 708\t\t\t\n      JUMP \t\t\t\n    tag 1116\t\t\t\n      JUMPDEST \t\t\t\n      SWAP2 \t\t\t\n      POP \t\t\t\n      DUP2 \t\t\t\n      SWAP1 \t\t\t\n      POP \t\t\t\n      SWAP4 \t\t\t\n      SWAP3 \t\t\t\n      POP \t\t\t\n      POP \t\t\t\n      POP \t\t\t\n      JUMP \t\t\t\n    tag 709\t\t\t\n      JUMPDEST \t\t\t\n      PUSH 4E6F20746F6B656E000000000000000000000000000000000000000000000000\t\t\t\n      PUSH 0\t\t\t\n      DUP3 \t\t\t\n      ADD \t\t\t\n      MSTORE \t\t\t\n      POP \t\t\t\n      JUMP \t\t\t\n    tag 710\t\t\t\n      JUMPDEST \t\t\t\n      PUSH 0\t\t\t\n      PUSH [tag] 1119\t\t\t\n      PUSH 8\t\t\t\n      DUP4 \t\t\t\n      PUSH [tag] 624\t\t\t\n      JUMP \t\t\t\n    tag 1119\t\t\t\n      JUMPDEST \t\t\t\n      SWAP2 \t\t\t\n      POP \t\t\t\n      PUSH [tag] 1120\t\t\t\n      DUP3 \t\t\t\n      PUSH [tag] 709\t\t\t\n      JUMP \t\t\t\n    tag 1120\t\t\t\n      JUMPDEST \t\t\t\n      PUSH 20\t\t\t\n      DUP3 \t\t\t\n      ADD \t\t\t\n      SWAP1 \t\t\t\n      POP \t\t\t\n      SWAP2 \t\t\t\n      SWAP1 \t\t\t\n      POP \t\t\t\n      JUMP \t\t\t\n    tag 456\t\t\t\n      JUMPDEST \t\t\t\n      PUSH 0\t\t\t\n      PUSH 20\t\t\t\n      DUP3 \t\t\t\n      ADD \t\t\t\n      SWAP1 \t\t\t\n      POP \t\t\t\n      DUP2 \t\t\t\n      DUP2 \t\t\t\n      SUB \t\t\t\n      PUSH 0\t\t\t\n      DUP4 \t\t\t\n      ADD \t\t\t\n      MSTORE \t\t\t\n      PUSH [tag] 1122\t\t\t\n      DUP2 \t\t\t\n      PUSH [tag] 710\t\t\t\n      JUMP \t\t\t\n    tag 1122\t\t\t\n      JUMPDEST \t\t\t\n      SWAP1 \t\t\t\n      POP \t\t\t\n      SWAP2 \t\t\t\n      SWAP1 \t\t\t\n      POP \t\t\t\n      JUMP \t\t\t\n    tag 512\t\t\t\n      JUMPDEST \t\t\t\n      PUSH 0\t\t\t\n      PUSH 80\t\t\t\n      DUP3 \t\t\t\n      ADD \t\t\t\n      SWAP1 \t\t\t\n      POP \t\t\t\n      PUSH [tag] 1124\t\t\t\n      PUSH 0\t\t\t\n      DUP4 \t\t\t\n      ADD \t\t\t\n      DUP8 \t\t\t\n      PUSH [tag] 633\t\t\t\n      JUMP \t\t\t\n    tag 1124\t\t\t\n      JUMPDEST \t\t\t\n      PUSH [tag] 1125\t\t\t\n      PUSH 20\t\t\t\n      DUP4 \t\t\t\n      ADD \t\t\t\n      DUP7 \t\t\t\n      PUSH [tag] 633\t\t\t\n      JUMP \t\t\t\n    tag 1125\t\t\t\n      JUMPDEST \t\t\t\n      PUSH [tag] 1126\t\t\t\n      PUSH 40\t\t\t\n      DUP4 \t\t\t\n      ADD \t\t\t\n      DUP6 \t\t\t\n      PUSH [tag] 649\t\t\t\n      JUMP \t\t\t\n    tag 1126\t\t\t\n      JUMPDEST \t\t\t\n      DUP2 \t\t\t\n      DUP2 \t\t\t\n      SUB \t\t\t\n      PUSH 60\t\t\t\n      DUP4 \t\t\t\n      ADD \t\t\t\n      MSTORE \t\t\t\n      PUSH [tag] 1127\t\t\t\n      DUP2 \t\t\t\n      DUP5 \t\t\t\n      PUSH [tag] 661\t\t\t\n      JUMP \t\t\t\n    tag 1127\t\t\t\n      JUMPDEST \t\t\t\n      SWAP1 \t\t\t\n      POP \t\t\t\n      SWAP6 \t\t\t\n      SWAP5 \t\t\t\n      POP \t\t\t\n      POP \t\t\t\n      POP \t\t\t\n      POP \t\t\t\n      POP \t\t\t\n      JUMP \t\t\t\n    tag 711\t\t\t\n      JUMPDEST \t\t\t\n      PUSH 0\t\t\t\n      DUP2 \t\t\t\n      MLOAD \t\t\t\n      SWAP1 \t\t\t\n      POP \t\t\t\n      PUSH [tag] 1129\t\t\t\n      DUP2 \t\t\t\n      PUSH [tag] 619\t\t\t\n      JUMP \t\t\t\n    tag 1129\t\t\t\n      JUMPDEST \t\t\t\n      SWAP3 \t\t\t\n      SWAP2 \t\t\t\n      POP \t\t\t\n      POP \t\t\t\n      JUMP \t\t\t\n    tag 515\t\t\t\n      JUMPDEST \t\t\t\n      PUSH 0\t\t\t\n      PUSH 20\t\t\t\n      DUP3 \t\t\t\n      DUP5 \t\t\t\n      SUB \t\t\t\n      SLT \t\t\t\n      ISZERO \t\t\t\n      PUSH [tag] 1131\t\t\t\n      JUMPI \t\t\t\n      PUSH [tag] 1132\t\t\t\n      PUSH [tag] 616\t\t\t\n      JUMP \t\t\t\n    tag 1132\t\t\t\n      JUMPDEST \t\t\t\n    tag 1131\t\t\t\n      JUMPDEST \t\t\t\n      PUSH 0\t\t\t\n      PUSH [tag] 1133\t\t\t\n      DUP5 \t\t\t\n      DUP3 \t\t\t\n      DUP6 \t\t\t\n      ADD \t\t\t\n      PUSH [tag] 711\t\t\t\n      JUMP \t\t\t\n    tag 1133\t\t\t\n      JUMPDEST \t\t\t\n      SWAP2 \t\t\t\n      POP \t\t\t\n      POP \t\t\t\n      SWAP3 \t\t\t\n      SWAP2 \t\t\t\n      POP \t\t\t\n      POP \t\t\t\n      JUMP \t\t\t\n    tag 545\t\t\t\n      JUMPDEST \t\t\t\n      PUSH 4E487B7100000000000000000000000000000000000000000000000000000000\t\t\t\n      PUSH 0\t\t\t\n      MSTORE \t\t\t\n      PUSH 12\t\t\t\n      PUSH 4\t\t\t\n      MSTORE \t\t\t\n      PUSH 24\t\t\t\n      PUSH 0\t\t\t\n      REVERT \t\t\t\n    tag 592\t\t\t\n      JUMPDEST \t\t\t\n      PUSH 0\t\t\t\n      PUSH 40\t\t\t\n      DUP3 \t\t\t\n      ADD \t\t\t\n      SWAP1 \t\t\t\n      POP \t\t\t\n      PUSH [tag] 1136\t\t\t\n      PUSH 0\t\t\t\n      DUP4 \t\t\t\n      ADD \t\t\t\n      DUP6 \t\t\t\n      PUSH [tag] 633\t\t\t\n      JUMP \t\t\t\n    tag 1136\t\t\t\n      JUMPDEST \t\t\t\n      PUSH [tag] 1137\t\t\t\n      PUSH 20\t\t\t\n      DUP4 \t\t\t\n      ADD \t\t\t\n      DUP5 \t\t\t\n      PUSH [tag] 649\t\t\t\n      JUMP \t\t\t\n    tag 1137\t\t\t\n      JUMPDEST \t\t\t\n      SWAP4 \t\t\t\n      SWAP3 \t\t\t\n      POP \t\t\t\n      POP \t\t\t\n      POP \t\t\t\n      JUMP \t\t\t\n    .data\n"
}